{
	"src/crowdfunding.sol": {
		"CrowdFunding": {
			"abi": [
				{
					"inputs": [
						{
							"internalType": "string",
							"name": "_campainName",
							"type": "string"
						},
						{
							"internalType": "string",
							"name": "_campainDesc",
							"type": "string"
						},
						{
							"internalType": "uint256",
							"name": "_campainGoal",
							"type": "uint256"
						},
						{
							"internalType": "uint256",
							"name": "_participationRate",
							"type": "uint256"
						},
						{
							"internalType": "uint256",
							"name": "campainduration",
							"type": "uint256"
						}
					],
					"stateMutability": "nonpayable",
					"type": "constructor"
				},
				{
					"anonymous": false,
					"inputs": [
						{
							"indexed": false,
							"internalType": "uint256",
							"name": "ID",
							"type": "uint256"
						},
						{
							"indexed": false,
							"internalType": "uint256",
							"name": "fechacreacion",
							"type": "uint256"
						}
					],
					"name": "NuevaPeticionGasto",
					"type": "event"
				},
				{
					"anonymous": false,
					"inputs": [
						{
							"indexed": false,
							"internalType": "uint256",
							"name": "ID",
							"type": "uint256"
						},
						{
							"indexed": false,
							"internalType": "bool",
							"name": "resolucion",
							"type": "bool"
						}
					],
					"name": "ResolucionPeticionGasto",
					"type": "event"
				},
				{
					"stateMutability": "payable",
					"type": "fallback"
				},
				{
					"inputs": [],
					"name": "CAMPANIN_DUEDATE",
					"outputs": [
						{
							"internalType": "uint256",
							"name": "",
							"type": "uint256"
						}
					],
					"stateMutability": "view",
					"type": "function"
				},
				{
					"inputs": [],
					"name": "campainDescription",
					"outputs": [
						{
							"internalType": "string",
							"name": "",
							"type": "string"
						}
					],
					"stateMutability": "view",
					"type": "function"
				},
				{
					"inputs": [],
					"name": "campainEstado",
					"outputs": [
						{
							"internalType": "enum CrowdFunding.Estado",
							"name": "",
							"type": "uint8"
						}
					],
					"stateMutability": "view",
					"type": "function"
				},
				{
					"inputs": [],
					"name": "campainGoal",
					"outputs": [
						{
							"internalType": "uint256",
							"name": "",
							"type": "uint256"
						}
					],
					"stateMutability": "view",
					"type": "function"
				},
				{
					"inputs": [],
					"name": "campainManager",
					"outputs": [
						{
							"internalType": "address payable",
							"name": "",
							"type": "address"
						}
					],
					"stateMutability": "view",
					"type": "function"
				},
				{
					"inputs": [],
					"name": "campainName",
					"outputs": [
						{
							"internalType": "string",
							"name": "",
							"type": "string"
						}
					],
					"stateMutability": "view",
					"type": "function"
				},
				{
					"inputs": [
						{
							"internalType": "string",
							"name": "_detalle",
							"type": "string"
						},
						{
							"internalType": "uint256",
							"name": "_importe",
							"type": "uint256"
						},
						{
							"internalType": "address payable",
							"name": "_destinatario",
							"type": "address"
						}
					],
					"name": "crearPeticionDeGasto",
					"outputs": [],
					"stateMutability": "nonpayable",
					"type": "function"
				},
				{
					"inputs": [],
					"name": "finalizarCampain",
					"outputs": [],
					"stateMutability": "nonpayable",
					"type": "function"
				},
				{
					"inputs": [
						{
							"internalType": "uint256",
							"name": "index",
							"type": "uint256"
						}
					],
					"name": "getDetailPeticionGastobyId",
					"outputs": [
						{
							"internalType": "string",
							"name": "",
							"type": "string"
						},
						{
							"internalType": "uint256",
							"name": "",
							"type": "uint256"
						},
						{
							"internalType": "bool",
							"name": "",
							"type": "bool"
						}
					],
					"stateMutability": "view",
					"type": "function"
				},
				{
					"inputs": [],
					"name": "getNPeticionesDeGasto",
					"outputs": [
						{
							"internalType": "uint256",
							"name": "",
							"type": "uint256"
						}
					],
					"stateMutability": "view",
					"type": "function"
				},
				{
					"inputs": [],
					"name": "getParticipantes",
					"outputs": [
						{
							"internalType": "address[]",
							"name": "",
							"type": "address[]"
						}
					],
					"stateMutability": "view",
					"type": "function"
				},
				{
					"inputs": [],
					"name": "getPeticionesGastoAbiertas",
					"outputs": [
						{
							"internalType": "uint256[]",
							"name": "",
							"type": "uint256[]"
						}
					],
					"stateMutability": "view",
					"type": "function"
				},
				{
					"inputs": [],
					"name": "getTotalParticipantes",
					"outputs": [
						{
							"internalType": "uint256",
							"name": "",
							"type": "uint256"
						}
					],
					"stateMutability": "view",
					"type": "function"
				},
				{
					"inputs": [
						{
							"internalType": "address",
							"name": "user",
							"type": "address"
						}
					],
					"name": "getUserParticipaciones",
					"outputs": [
						{
							"internalType": "uint256",
							"name": "",
							"type": "uint256"
						}
					],
					"stateMutability": "view",
					"type": "function"
				},
				{
					"inputs": [
						{
							"internalType": "address",
							"name": "",
							"type": "address"
						}
					],
					"name": "participaciones",
					"outputs": [
						{
							"internalType": "uint256",
							"name": "",
							"type": "uint256"
						}
					],
					"stateMutability": "view",
					"type": "function"
				},
				{
					"inputs": [
						{
							"internalType": "uint256",
							"name": "",
							"type": "uint256"
						}
					],
					"name": "participantes",
					"outputs": [
						{
							"internalType": "address",
							"name": "",
							"type": "address"
						}
					],
					"stateMutability": "view",
					"type": "function"
				},
				{
					"inputs": [],
					"name": "participar",
					"outputs": [],
					"stateMutability": "payable",
					"type": "function"
				},
				{
					"inputs": [],
					"name": "participationRate",
					"outputs": [
						{
							"internalType": "uint256",
							"name": "",
							"type": "uint256"
						}
					],
					"stateMutability": "view",
					"type": "function"
				},
				{
					"inputs": [
						{
							"internalType": "uint256",
							"name": "",
							"type": "uint256"
						}
					],
					"name": "peticionesDeGasto",
					"outputs": [
						{
							"internalType": "string",
							"name": "detallePeticion",
							"type": "string"
						},
						{
							"internalType": "enum CrowdFunding.EstadoPeticion",
							"name": "estado",
							"type": "uint8"
						},
						{
							"internalType": "uint256",
							"name": "importe",
							"type": "uint256"
						},
						{
							"internalType": "address payable",
							"name": "walletDestinatario",
							"type": "address"
						},
						{
							"internalType": "uint256",
							"name": "votosRealizados",
							"type": "uint256"
						},
						{
							"internalType": "uint256",
							"name": "votosPositivos",
							"type": "uint256"
						}
					],
					"stateMutability": "view",
					"type": "function"
				},
				{
					"inputs": [
						{
							"internalType": "uint256",
							"name": "index",
							"type": "uint256"
						}
					],
					"name": "resolverPeticion",
					"outputs": [],
					"stateMutability": "nonpayable",
					"type": "function"
				},
				{
					"inputs": [],
					"name": "test_contractBalance",
					"outputs": [
						{
							"internalType": "uint256",
							"name": "",
							"type": "uint256"
						}
					],
					"stateMutability": "view",
					"type": "function"
				},
				{
					"inputs": [],
					"name": "totalParticipaciones",
					"outputs": [
						{
							"internalType": "uint256",
							"name": "",
							"type": "uint256"
						}
					],
					"stateMutability": "view",
					"type": "function"
				},
				{
					"inputs": [
						{
							"internalType": "uint256",
							"name": "index",
							"type": "uint256"
						},
						{
							"internalType": "bool",
							"name": "aprobar",
							"type": "bool"
						}
					],
					"name": "votarPeticionGasto",
					"outputs": [],
					"stateMutability": "nonpayable",
					"type": "function"
				},
				{
					"inputs": [],
					"name": "withdrawCanceledCampain",
					"outputs": [],
					"stateMutability": "nonpayable",
					"type": "function"
				},
				{
					"stateMutability": "payable",
					"type": "receive"
				}
			],
			"devdoc": {
				"kind": "dev",
				"methods": {},
				"version": 1
			},
			"evm": {
				"assembly": "    /* \"src/crowdfunding.sol\":72:7339  contract CrowdFunding {\r... */\n  mstore(0x40, 0xa0)\n    /* \"src/crowdfunding.sol\":1298:1825  constructor(string memory _campainName, string memory _campainDesc,uint256 _campainGoal, uint256 _participationRate, uint256 campainduration)  {\r... */\n  callvalue\n  dup1\n  iszero\n  tag_1\n  jumpi\n  0x00\n  dup1\n  revert\ntag_1:\n  pop\n  mload(0x40)\n  sub(codesize, bytecodeSize)\n  dup1\n  bytecodeSize\n  dup4\n  codecopy\n  dup2\n  dup2\n  add\n  0x40\n  mstore\n  dup2\n  add\n  swap1\n  tag_2\n  swap2\n  swap1\n  tag_3\n  jump\t// in\ntag_2:\n    /* \"src/crowdfunding.sol\":1475:1476  0 */\n  0x00\n    /* \"src/crowdfunding.sol\":1460:1472  _campainGoal */\n  dup4\n    /* \"src/crowdfunding.sol\":1460:1476  _campainGoal > 0 */\n  gt\n    /* \"src/crowdfunding.sol\":1460:1502  _campainGoal > 0 && _participationRate > 0 */\n  dup1\n  iszero\n  tag_6\n  jumpi\n  pop\n    /* \"src/crowdfunding.sol\":1501:1502  0 */\n  0x00\n    /* \"src/crowdfunding.sol\":1480:1498  _participationRate */\n  dup3\n    /* \"src/crowdfunding.sol\":1480:1502  _participationRate > 0 */\n  gt\n    /* \"src/crowdfunding.sol\":1460:1502  _campainGoal > 0 && _participationRate > 0 */\ntag_6:\n    /* \"src/crowdfunding.sol\":1452:1504  require(_campainGoal > 0 && _participationRate > 0 ) */\n  tag_7\n  jumpi\n  0x00\n  dup1\n  revert\ntag_7:\n    /* \"src/crowdfunding.sol\":1523:1535  _campainName */\n  dup5\n    /* \"src/crowdfunding.sol\":1509:1520  campainName */\n  0x01\n    /* \"src/crowdfunding.sol\":1509:1535  campainName = _campainName */\n  swap1\n  dup1\n  mload\n  swap1\n  0x20\n  add\n  swap1\n  tag_8\n  swap3\n  swap2\n  swap1\n  tag_9\n  jump\t// in\ntag_8:\n  pop\n    /* \"src/crowdfunding.sol\":1561:1573  _campainDesc */\n  dup4\n    /* \"src/crowdfunding.sol\":1540:1558  campainDescription */\n  0x02\n    /* \"src/crowdfunding.sol\":1540:1573  campainDescription = _campainDesc */\n  swap1\n  dup1\n  mload\n  swap1\n  0x20\n  add\n  swap1\n  tag_10\n  swap3\n  swap2\n  swap1\n  tag_9\n  jump\t// in\ntag_10:\n  pop\n    /* \"src/crowdfunding.sol\":1603:1613  msg.sender */\n  caller\n    /* \"src/crowdfunding.sol\":1578:1592  campainManager */\n  0x00\n  dup1\n    /* \"src/crowdfunding.sol\":1578:1614  campainManager = payable(msg.sender) */\n  0x0100\n  exp\n  dup2\n  sload\n  dup2\n  0xffffffffffffffffffffffffffffffffffffffff\n  mul\n  not\n  and\n  swap1\n  dup4\n  0xffffffffffffffffffffffffffffffffffffffff\n  and\n  mul\n  or\n  swap1\n  sstore\n  pop\n    /* \"src/crowdfunding.sol\":1639:1657  _participationRate */\n  dup2\n    /* \"src/crowdfunding.sol\":1619:1636  participationRate */\n  0x05\n    /* \"src/crowdfunding.sol\":1619:1657  participationRate = _participationRate */\n  dup2\n  swap1\n  sstore\n  pop\n    /* \"src/crowdfunding.sol\":1682:1694  _campainGoal */\n  dup3\n    /* \"src/crowdfunding.sol\":1668:1679  campainGoal */\n  0x04\n    /* \"src/crowdfunding.sol\":1668:1694  campainGoal = _campainGoal */\n  dup2\n  swap1\n  sstore\n  pop\n    /* \"src/crowdfunding.sol\":1721:1735  Estado.Abierta */\n  0x00\n    /* \"src/crowdfunding.sol\":1705:1718  campainEstado */\n  0x03\n  0x00\n    /* \"src/crowdfunding.sol\":1705:1735  campainEstado = Estado.Abierta */\n  0x0100\n  exp\n  dup2\n  sload\n  dup2\n  0xff\n  mul\n  not\n  and\n  swap1\n  dup4\n  0x02\n  dup2\n  gt\n  iszero\n  tag_11\n  jumpi\n  tag_12\n  tag_13\n  jump\t// in\ntag_12:\ntag_11:\n  mul\n  or\n  swap1\n  sstore\n  pop\n    /* \"src/crowdfunding.sol\":1801:1810  1 seconds */\n  0x01\n    /* \"src/crowdfunding.sol\":1783:1798  campainduration */\n  dup2\n    /* \"src/crowdfunding.sol\":1783:1810  campainduration * 1 seconds */\n  tag_14\n  swap2\n  swap1\n  tag_15\n  jump\t// in\ntag_14:\n    /* \"src/crowdfunding.sol\":1765:1780  block.timestamp */\n  timestamp\n    /* \"src/crowdfunding.sol\":1765:1810  block.timestamp + campainduration * 1 seconds */\n  tag_16\n  swap2\n  swap1\n  tag_17\n  jump\t// in\ntag_16:\n    /* \"src/crowdfunding.sol\":1746:1810  CAMPANIN_DUEDATE = block.timestamp + campainduration * 1 seconds */\n  0x80\n  dup2\n  dup2\n  mstore\n  pop\n  pop\n    /* \"src/crowdfunding.sol\":1298:1825  constructor(string memory _campainName, string memory _campainDesc,uint256 _campainGoal, uint256 _participationRate, uint256 campainduration)  {\r... */\n  pop\n  pop\n  pop\n  pop\n  pop\n    /* \"src/crowdfunding.sol\":72:7339  contract CrowdFunding {\r... */\n  jump(tag_18)\ntag_9:\n  dup3\n  dup1\n  sload\n  tag_19\n  swap1\n  tag_20\n  jump\t// in\ntag_19:\n  swap1\n  0x00\n  mstore\n  keccak256(0x00, 0x20)\n  swap1\n  0x1f\n  add\n  0x20\n  swap1\n  div\n  dup2\n  add\n  swap3\n  dup3\n  tag_22\n  jumpi\n  0x00\n  dup6\n  sstore\n  jump(tag_21)\ntag_22:\n  dup3\n  0x1f\n  lt\n  tag_23\n  jumpi\n  dup1\n  mload\n  not(0xff)\n  and\n  dup4\n  dup1\n  add\n  or\n  dup6\n  sstore\n  jump(tag_21)\ntag_23:\n  dup3\n  dup1\n  add\n  0x01\n  add\n  dup6\n  sstore\n  dup3\n  iszero\n  tag_21\n  jumpi\n  swap2\n  dup3\n  add\ntag_24:\n  dup3\n  dup2\n  gt\n  iszero\n  tag_25\n  jumpi\n  dup3\n  mload\n  dup3\n  sstore\n  swap2\n  0x20\n  add\n  swap2\n  swap1\n  0x01\n  add\n  swap1\n  jump(tag_24)\ntag_25:\ntag_21:\n  pop\n  swap1\n  pop\n  tag_26\n  swap2\n  swap1\n  tag_27\n  jump\t// in\ntag_26:\n  pop\n  swap1\n  jump\t// out\ntag_27:\ntag_28:\n  dup1\n  dup3\n  gt\n  iszero\n  tag_29\n  jumpi\n  0x00\n  dup2\n  0x00\n  swap1\n  sstore\n  pop\n  0x01\n  add\n  jump(tag_28)\ntag_29:\n  pop\n  swap1\n  jump\t// out\n    /* \"#utility.yul\":7:428   */\ntag_31:\n    /* \"#utility.yul\":96:101   */\n  0x00\n    /* \"#utility.yul\":121:187   */\n  tag_33\n    /* \"#utility.yul\":137:186   */\n  tag_34\n    /* \"#utility.yul\":179:185   */\n  dup5\n    /* \"#utility.yul\":137:186   */\n  tag_35\n  jump\t// in\ntag_34:\n    /* \"#utility.yul\":121:187   */\n  tag_36\n  jump\t// in\ntag_33:\n    /* \"#utility.yul\":112:187   */\n  swap1\n  pop\n    /* \"#utility.yul\":210:216   */\n  dup3\n    /* \"#utility.yul\":203:208   */\n  dup2\n    /* \"#utility.yul\":196:217   */\n  mstore\n    /* \"#utility.yul\":248:252   */\n  0x20\n    /* \"#utility.yul\":241:246   */\n  dup2\n    /* \"#utility.yul\":237:253   */\n  add\n    /* \"#utility.yul\":286:289   */\n  dup5\n    /* \"#utility.yul\":277:283   */\n  dup5\n    /* \"#utility.yul\":272:275   */\n  dup5\n    /* \"#utility.yul\":268:284   */\n  add\n    /* \"#utility.yul\":265:290   */\n  gt\n    /* \"#utility.yul\":262:374   */\n  iszero\n  tag_37\n  jumpi\n    /* \"#utility.yul\":293:372   */\n  tag_38\n  tag_39\n  jump\t// in\ntag_38:\n    /* \"#utility.yul\":262:374   */\ntag_37:\n    /* \"#utility.yul\":383:422   */\n  tag_40\n    /* \"#utility.yul\":415:421   */\n  dup5\n    /* \"#utility.yul\":410:413   */\n  dup3\n    /* \"#utility.yul\":405:408   */\n  dup6\n    /* \"#utility.yul\":383:422   */\n  tag_41\n  jump\t// in\ntag_40:\n    /* \"#utility.yul\":102:428   */\n  pop\n    /* \"#utility.yul\":7:428   */\n  swap4\n  swap3\n  pop\n  pop\n  pop\n  jump\t// out\n    /* \"#utility.yul\":448:803   */\ntag_42:\n    /* \"#utility.yul\":515:520   */\n  0x00\n    /* \"#utility.yul\":564:567   */\n  dup3\n    /* \"#utility.yul\":557:561   */\n  0x1f\n    /* \"#utility.yul\":549:555   */\n  dup4\n    /* \"#utility.yul\":545:562   */\n  add\n    /* \"#utility.yul\":541:568   */\n  slt\n    /* \"#utility.yul\":531:653   */\n  tag_44\n  jumpi\n    /* \"#utility.yul\":572:651   */\n  tag_45\n  tag_46\n  jump\t// in\ntag_45:\n    /* \"#utility.yul\":531:653   */\ntag_44:\n    /* \"#utility.yul\":682:688   */\n  dup2\n    /* \"#utility.yul\":676:689   */\n  mload\n    /* \"#utility.yul\":707:797   */\n  tag_47\n    /* \"#utility.yul\":793:796   */\n  dup5\n    /* \"#utility.yul\":785:791   */\n  dup3\n    /* \"#utility.yul\":778:782   */\n  0x20\n    /* \"#utility.yul\":770:776   */\n  dup7\n    /* \"#utility.yul\":766:783   */\n  add\n    /* \"#utility.yul\":707:797   */\n  tag_31\n  jump\t// in\ntag_47:\n    /* \"#utility.yul\":698:797   */\n  swap2\n  pop\n    /* \"#utility.yul\":521:803   */\n  pop\n    /* \"#utility.yul\":448:803   */\n  swap3\n  swap2\n  pop\n  pop\n  jump\t// out\n    /* \"#utility.yul\":809:952   */\ntag_48:\n    /* \"#utility.yul\":866:871   */\n  0x00\n    /* \"#utility.yul\":897:903   */\n  dup2\n    /* \"#utility.yul\":891:904   */\n  mload\n    /* \"#utility.yul\":882:904   */\n  swap1\n  pop\n    /* \"#utility.yul\":913:946   */\n  tag_50\n    /* \"#utility.yul\":940:945   */\n  dup2\n    /* \"#utility.yul\":913:946   */\n  tag_51\n  jump\t// in\ntag_50:\n    /* \"#utility.yul\":809:952   */\n  swap3\n  swap2\n  pop\n  pop\n  jump\t// out\n    /* \"#utility.yul\":958:2281   */\ntag_3:\n    /* \"#utility.yul\":1084:1090   */\n  0x00\n    /* \"#utility.yul\":1092:1098   */\n  dup1\n    /* \"#utility.yul\":1100:1106   */\n  0x00\n    /* \"#utility.yul\":1108:1114   */\n  dup1\n    /* \"#utility.yul\":1116:1122   */\n  0x00\n    /* \"#utility.yul\":1165:1168   */\n  0xa0\n    /* \"#utility.yul\":1153:1162   */\n  dup7\n    /* \"#utility.yul\":1144:1151   */\n  dup9\n    /* \"#utility.yul\":1140:1163   */\n  sub\n    /* \"#utility.yul\":1136:1169   */\n  slt\n    /* \"#utility.yul\":1133:1253   */\n  iszero\n  tag_53\n  jumpi\n    /* \"#utility.yul\":1172:1251   */\n  tag_54\n  tag_55\n  jump\t// in\ntag_54:\n    /* \"#utility.yul\":1133:1253   */\ntag_53:\n    /* \"#utility.yul\":1313:1314   */\n  0x00\n    /* \"#utility.yul\":1302:1311   */\n  dup7\n    /* \"#utility.yul\":1298:1315   */\n  add\n    /* \"#utility.yul\":1292:1316   */\n  mload\n    /* \"#utility.yul\":1343:1361   */\n  0xffffffffffffffff\n    /* \"#utility.yul\":1335:1341   */\n  dup2\n    /* \"#utility.yul\":1332:1362   */\n  gt\n    /* \"#utility.yul\":1329:1446   */\n  iszero\n  tag_56\n  jumpi\n    /* \"#utility.yul\":1365:1444   */\n  tag_57\n  tag_58\n  jump\t// in\ntag_57:\n    /* \"#utility.yul\":1329:1446   */\ntag_56:\n    /* \"#utility.yul\":1470:1544   */\n  tag_59\n    /* \"#utility.yul\":1536:1543   */\n  dup9\n    /* \"#utility.yul\":1527:1533   */\n  dup3\n    /* \"#utility.yul\":1516:1525   */\n  dup10\n    /* \"#utility.yul\":1512:1534   */\n  add\n    /* \"#utility.yul\":1470:1544   */\n  tag_42\n  jump\t// in\ntag_59:\n    /* \"#utility.yul\":1460:1544   */\n  swap6\n  pop\n    /* \"#utility.yul\":1263:1554   */\n  pop\n    /* \"#utility.yul\":1614:1616   */\n  0x20\n    /* \"#utility.yul\":1603:1612   */\n  dup7\n    /* \"#utility.yul\":1599:1617   */\n  add\n    /* \"#utility.yul\":1593:1618   */\n  mload\n    /* \"#utility.yul\":1645:1663   */\n  0xffffffffffffffff\n    /* \"#utility.yul\":1637:1643   */\n  dup2\n    /* \"#utility.yul\":1634:1664   */\n  gt\n    /* \"#utility.yul\":1631:1748   */\n  iszero\n  tag_60\n  jumpi\n    /* \"#utility.yul\":1667:1746   */\n  tag_61\n  tag_58\n  jump\t// in\ntag_61:\n    /* \"#utility.yul\":1631:1748   */\ntag_60:\n    /* \"#utility.yul\":1772:1846   */\n  tag_62\n    /* \"#utility.yul\":1838:1845   */\n  dup9\n    /* \"#utility.yul\":1829:1835   */\n  dup3\n    /* \"#utility.yul\":1818:1827   */\n  dup10\n    /* \"#utility.yul\":1814:1836   */\n  add\n    /* \"#utility.yul\":1772:1846   */\n  tag_42\n  jump\t// in\ntag_62:\n    /* \"#utility.yul\":1762:1846   */\n  swap5\n  pop\n    /* \"#utility.yul\":1564:1856   */\n  pop\n    /* \"#utility.yul\":1895:1897   */\n  0x40\n    /* \"#utility.yul\":1921:1985   */\n  tag_63\n    /* \"#utility.yul\":1977:1984   */\n  dup9\n    /* \"#utility.yul\":1968:1974   */\n  dup3\n    /* \"#utility.yul\":1957:1966   */\n  dup10\n    /* \"#utility.yul\":1953:1975   */\n  add\n    /* \"#utility.yul\":1921:1985   */\n  tag_48\n  jump\t// in\ntag_63:\n    /* \"#utility.yul\":1911:1985   */\n  swap4\n  pop\n    /* \"#utility.yul\":1866:1995   */\n  pop\n    /* \"#utility.yul\":2034:2036   */\n  0x60\n    /* \"#utility.yul\":2060:2124   */\n  tag_64\n    /* \"#utility.yul\":2116:2123   */\n  dup9\n    /* \"#utility.yul\":2107:2113   */\n  dup3\n    /* \"#utility.yul\":2096:2105   */\n  dup10\n    /* \"#utility.yul\":2092:2114   */\n  add\n    /* \"#utility.yul\":2060:2124   */\n  tag_48\n  jump\t// in\ntag_64:\n    /* \"#utility.yul\":2050:2124   */\n  swap3\n  pop\n    /* \"#utility.yul\":2005:2134   */\n  pop\n    /* \"#utility.yul\":2173:2176   */\n  0x80\n    /* \"#utility.yul\":2200:2264   */\n  tag_65\n    /* \"#utility.yul\":2256:2263   */\n  dup9\n    /* \"#utility.yul\":2247:2253   */\n  dup3\n    /* \"#utility.yul\":2236:2245   */\n  dup10\n    /* \"#utility.yul\":2232:2254   */\n  add\n    /* \"#utility.yul\":2200:2264   */\n  tag_48\n  jump\t// in\ntag_65:\n    /* \"#utility.yul\":2190:2264   */\n  swap2\n  pop\n    /* \"#utility.yul\":2144:2274   */\n  pop\n    /* \"#utility.yul\":958:2281   */\n  swap3\n  swap6\n  pop\n  swap3\n  swap6\n  swap1\n  swap4\n  pop\n  jump\t// out\n    /* \"#utility.yul\":2287:2416   */\ntag_36:\n    /* \"#utility.yul\":2321:2327   */\n  0x00\n    /* \"#utility.yul\":2348:2368   */\n  tag_67\n  tag_68\n  jump\t// in\ntag_67:\n    /* \"#utility.yul\":2338:2368   */\n  swap1\n  pop\n    /* \"#utility.yul\":2377:2410   */\n  tag_69\n    /* \"#utility.yul\":2405:2409   */\n  dup3\n    /* \"#utility.yul\":2397:2403   */\n  dup3\n    /* \"#utility.yul\":2377:2410   */\n  tag_70\n  jump\t// in\ntag_69:\n    /* \"#utility.yul\":2287:2416   */\n  swap2\n  swap1\n  pop\n  jump\t// out\n    /* \"#utility.yul\":2422:2497   */\ntag_68:\n    /* \"#utility.yul\":2455:2461   */\n  0x00\n    /* \"#utility.yul\":2488:2490   */\n  0x40\n    /* \"#utility.yul\":2482:2491   */\n  mload\n    /* \"#utility.yul\":2472:2491   */\n  swap1\n  pop\n    /* \"#utility.yul\":2422:2497   */\n  swap1\n  jump\t// out\n    /* \"#utility.yul\":2503:2811   */\ntag_35:\n    /* \"#utility.yul\":2565:2569   */\n  0x00\n    /* \"#utility.yul\":2655:2673   */\n  0xffffffffffffffff\n    /* \"#utility.yul\":2647:2653   */\n  dup3\n    /* \"#utility.yul\":2644:2674   */\n  gt\n    /* \"#utility.yul\":2641:2697   */\n  iszero\n  tag_73\n  jumpi\n    /* \"#utility.yul\":2677:2695   */\n  tag_74\n  tag_75\n  jump\t// in\ntag_74:\n    /* \"#utility.yul\":2641:2697   */\ntag_73:\n    /* \"#utility.yul\":2715:2744   */\n  tag_76\n    /* \"#utility.yul\":2737:2743   */\n  dup3\n    /* \"#utility.yul\":2715:2744   */\n  tag_77\n  jump\t// in\ntag_76:\n    /* \"#utility.yul\":2707:2744   */\n  swap1\n  pop\n    /* \"#utility.yul\":2799:2803   */\n  0x20\n    /* \"#utility.yul\":2793:2797   */\n  dup2\n    /* \"#utility.yul\":2789:2804   */\n  add\n    /* \"#utility.yul\":2781:2804   */\n  swap1\n  pop\n    /* \"#utility.yul\":2503:2811   */\n  swap2\n  swap1\n  pop\n  jump\t// out\n    /* \"#utility.yul\":2817:3122   */\ntag_17:\n    /* \"#utility.yul\":2857:2860   */\n  0x00\n    /* \"#utility.yul\":2876:2896   */\n  tag_79\n    /* \"#utility.yul\":2894:2895   */\n  dup3\n    /* \"#utility.yul\":2876:2896   */\n  tag_80\n  jump\t// in\ntag_79:\n    /* \"#utility.yul\":2871:2896   */\n  swap2\n  pop\n    /* \"#utility.yul\":2910:2930   */\n  tag_81\n    /* \"#utility.yul\":2928:2929   */\n  dup4\n    /* \"#utility.yul\":2910:2930   */\n  tag_80\n  jump\t// in\ntag_81:\n    /* \"#utility.yul\":2905:2930   */\n  swap3\n  pop\n    /* \"#utility.yul\":3064:3065   */\n  dup3\n    /* \"#utility.yul\":2996:3062   */\n  0xffffffffffffffffffffffffffffffffffffffffffffffffffffffffffffffff\n    /* \"#utility.yul\":2992:3066   */\n  sub\n    /* \"#utility.yul\":2989:2990   */\n  dup3\n    /* \"#utility.yul\":2986:3067   */\n  gt\n    /* \"#utility.yul\":2983:3090   */\n  iszero\n  tag_82\n  jumpi\n    /* \"#utility.yul\":3070:3088   */\n  tag_83\n  tag_84\n  jump\t// in\ntag_83:\n    /* \"#utility.yul\":2983:3090   */\ntag_82:\n    /* \"#utility.yul\":3114:3115   */\n  dup3\n    /* \"#utility.yul\":3111:3112   */\n  dup3\n    /* \"#utility.yul\":3107:3116   */\n  add\n    /* \"#utility.yul\":3100:3116   */\n  swap1\n  pop\n    /* \"#utility.yul\":2817:3122   */\n  swap3\n  swap2\n  pop\n  pop\n  jump\t// out\n    /* \"#utility.yul\":3128:3476   */\ntag_15:\n    /* \"#utility.yul\":3168:3175   */\n  0x00\n    /* \"#utility.yul\":3191:3211   */\n  tag_86\n    /* \"#utility.yul\":3209:3210   */\n  dup3\n    /* \"#utility.yul\":3191:3211   */\n  tag_80\n  jump\t// in\ntag_86:\n    /* \"#utility.yul\":3186:3211   */\n  swap2\n  pop\n    /* \"#utility.yul\":3225:3245   */\n  tag_87\n    /* \"#utility.yul\":3243:3244   */\n  dup4\n    /* \"#utility.yul\":3225:3245   */\n  tag_80\n  jump\t// in\ntag_87:\n    /* \"#utility.yul\":3220:3245   */\n  swap3\n  pop\n    /* \"#utility.yul\":3413:3414   */\n  dup2\n    /* \"#utility.yul\":3345:3411   */\n  0xffffffffffffffffffffffffffffffffffffffffffffffffffffffffffffffff\n    /* \"#utility.yul\":3341:3415   */\n  div\n    /* \"#utility.yul\":3338:3339   */\n  dup4\n    /* \"#utility.yul\":3335:3416   */\n  gt\n    /* \"#utility.yul\":3330:3331   */\n  dup3\n    /* \"#utility.yul\":3323:3332   */\n  iszero\n    /* \"#utility.yul\":3316:3333   */\n  iszero\n    /* \"#utility.yul\":3312:3417   */\n  and\n    /* \"#utility.yul\":3309:3440   */\n  iszero\n  tag_88\n  jumpi\n    /* \"#utility.yul\":3420:3438   */\n  tag_89\n  tag_84\n  jump\t// in\ntag_89:\n    /* \"#utility.yul\":3309:3440   */\ntag_88:\n    /* \"#utility.yul\":3468:3469   */\n  dup3\n    /* \"#utility.yul\":3465:3466   */\n  dup3\n    /* \"#utility.yul\":3461:3470   */\n  mul\n    /* \"#utility.yul\":3450:3470   */\n  swap1\n  pop\n    /* \"#utility.yul\":3128:3476   */\n  swap3\n  swap2\n  pop\n  pop\n  jump\t// out\n    /* \"#utility.yul\":3482:3559   */\ntag_80:\n    /* \"#utility.yul\":3519:3526   */\n  0x00\n    /* \"#utility.yul\":3548:3553   */\n  dup2\n    /* \"#utility.yul\":3537:3553   */\n  swap1\n  pop\n    /* \"#utility.yul\":3482:3559   */\n  swap2\n  swap1\n  pop\n  jump\t// out\n    /* \"#utility.yul\":3565:3872   */\ntag_41:\n    /* \"#utility.yul\":3633:3634   */\n  0x00\n    /* \"#utility.yul\":3643:3756   */\ntag_92:\n    /* \"#utility.yul\":3657:3663   */\n  dup4\n    /* \"#utility.yul\":3654:3655   */\n  dup2\n    /* \"#utility.yul\":3651:3664   */\n  lt\n    /* \"#utility.yul\":3643:3756   */\n  iszero\n  tag_94\n  jumpi\n    /* \"#utility.yul\":3742:3743   */\n  dup1\n    /* \"#utility.yul\":3737:3740   */\n  dup3\n    /* \"#utility.yul\":3733:3744   */\n  add\n    /* \"#utility.yul\":3727:3745   */\n  mload\n    /* \"#utility.yul\":3723:3724   */\n  dup2\n    /* \"#utility.yul\":3718:3721   */\n  dup5\n    /* \"#utility.yul\":3714:3725   */\n  add\n    /* \"#utility.yul\":3707:3746   */\n  mstore\n    /* \"#utility.yul\":3679:3681   */\n  0x20\n    /* \"#utility.yul\":3676:3677   */\n  dup2\n    /* \"#utility.yul\":3672:3682   */\n  add\n    /* \"#utility.yul\":3667:3682   */\n  swap1\n  pop\n    /* \"#utility.yul\":3643:3756   */\n  jump(tag_92)\ntag_94:\n    /* \"#utility.yul\":3774:3780   */\n  dup4\n    /* \"#utility.yul\":3771:3772   */\n  dup2\n    /* \"#utility.yul\":3768:3781   */\n  gt\n    /* \"#utility.yul\":3765:3866   */\n  iszero\n  tag_95\n  jumpi\n    /* \"#utility.yul\":3854:3855   */\n  0x00\n    /* \"#utility.yul\":3845:3851   */\n  dup5\n    /* \"#utility.yul\":3840:3843   */\n  dup5\n    /* \"#utility.yul\":3836:3852   */\n  add\n    /* \"#utility.yul\":3829:3856   */\n  mstore\n    /* \"#utility.yul\":3765:3866   */\ntag_95:\n    /* \"#utility.yul\":3614:3872   */\n  pop\n    /* \"#utility.yul\":3565:3872   */\n  pop\n  pop\n  pop\n  jump\t// out\n    /* \"#utility.yul\":3878:4198   */\ntag_20:\n    /* \"#utility.yul\":3922:3928   */\n  0x00\n    /* \"#utility.yul\":3959:3960   */\n  0x02\n    /* \"#utility.yul\":3953:3957   */\n  dup3\n    /* \"#utility.yul\":3949:3961   */\n  div\n    /* \"#utility.yul\":3939:3961   */\n  swap1\n  pop\n    /* \"#utility.yul\":4006:4007   */\n  0x01\n    /* \"#utility.yul\":4000:4004   */\n  dup3\n    /* \"#utility.yul\":3996:4008   */\n  and\n    /* \"#utility.yul\":4027:4045   */\n  dup1\n    /* \"#utility.yul\":4017:4098   */\n  tag_97\n  jumpi\n    /* \"#utility.yul\":4083:4087   */\n  0x7f\n    /* \"#utility.yul\":4075:4081   */\n  dup3\n    /* \"#utility.yul\":4071:4088   */\n  and\n    /* \"#utility.yul\":4061:4088   */\n  swap2\n  pop\n    /* \"#utility.yul\":4017:4098   */\ntag_97:\n    /* \"#utility.yul\":4145:4147   */\n  0x20\n    /* \"#utility.yul\":4137:4143   */\n  dup3\n    /* \"#utility.yul\":4134:4148   */\n  lt\n    /* \"#utility.yul\":4114:4132   */\n  dup2\n    /* \"#utility.yul\":4111:4149   */\n  eq\n    /* \"#utility.yul\":4108:4192   */\n  iszero\n  tag_98\n  jumpi\n    /* \"#utility.yul\":4164:4182   */\n  tag_99\n  tag_100\n  jump\t// in\ntag_99:\n    /* \"#utility.yul\":4108:4192   */\ntag_98:\n    /* \"#utility.yul\":3929:4198   */\n  pop\n    /* \"#utility.yul\":3878:4198   */\n  swap2\n  swap1\n  pop\n  jump\t// out\n    /* \"#utility.yul\":4204:4485   */\ntag_70:\n    /* \"#utility.yul\":4287:4314   */\n  tag_102\n    /* \"#utility.yul\":4309:4313   */\n  dup3\n    /* \"#utility.yul\":4287:4314   */\n  tag_77\n  jump\t// in\ntag_102:\n    /* \"#utility.yul\":4279:4285   */\n  dup2\n    /* \"#utility.yul\":4275:4315   */\n  add\n    /* \"#utility.yul\":4417:4423   */\n  dup2\n    /* \"#utility.yul\":4405:4415   */\n  dup2\n    /* \"#utility.yul\":4402:4424   */\n  lt\n    /* \"#utility.yul\":4381:4399   */\n  0xffffffffffffffff\n    /* \"#utility.yul\":4369:4379   */\n  dup3\n    /* \"#utility.yul\":4366:4400   */\n  gt\n    /* \"#utility.yul\":4363:4425   */\n  or\n    /* \"#utility.yul\":4360:4448   */\n  iszero\n  tag_103\n  jumpi\n    /* \"#utility.yul\":4428:4446   */\n  tag_104\n  tag_75\n  jump\t// in\ntag_104:\n    /* \"#utility.yul\":4360:4448   */\ntag_103:\n    /* \"#utility.yul\":4468:4478   */\n  dup1\n    /* \"#utility.yul\":4464:4466   */\n  0x40\n    /* \"#utility.yul\":4457:4479   */\n  mstore\n    /* \"#utility.yul\":4247:4485   */\n  pop\n    /* \"#utility.yul\":4204:4485   */\n  pop\n  pop\n  jump\t// out\n    /* \"#utility.yul\":4491:4671   */\ntag_84:\n    /* \"#utility.yul\":4539:4616   */\n  0x4e487b7100000000000000000000000000000000000000000000000000000000\n    /* \"#utility.yul\":4536:4537   */\n  0x00\n    /* \"#utility.yul\":4529:4617   */\n  mstore\n    /* \"#utility.yul\":4636:4640   */\n  0x11\n    /* \"#utility.yul\":4633:4634   */\n  0x04\n    /* \"#utility.yul\":4626:4641   */\n  mstore\n    /* \"#utility.yul\":4660:4664   */\n  0x24\n    /* \"#utility.yul\":4657:4658   */\n  0x00\n    /* \"#utility.yul\":4650:4665   */\n  revert\n    /* \"#utility.yul\":4677:4857   */\ntag_13:\n    /* \"#utility.yul\":4725:4802   */\n  0x4e487b7100000000000000000000000000000000000000000000000000000000\n    /* \"#utility.yul\":4722:4723   */\n  0x00\n    /* \"#utility.yul\":4715:4803   */\n  mstore\n    /* \"#utility.yul\":4822:4826   */\n  0x21\n    /* \"#utility.yul\":4819:4820   */\n  0x04\n    /* \"#utility.yul\":4812:4827   */\n  mstore\n    /* \"#utility.yul\":4846:4850   */\n  0x24\n    /* \"#utility.yul\":4843:4844   */\n  0x00\n    /* \"#utility.yul\":4836:4851   */\n  revert\n    /* \"#utility.yul\":4863:5043   */\ntag_100:\n    /* \"#utility.yul\":4911:4988   */\n  0x4e487b7100000000000000000000000000000000000000000000000000000000\n    /* \"#utility.yul\":4908:4909   */\n  0x00\n    /* \"#utility.yul\":4901:4989   */\n  mstore\n    /* \"#utility.yul\":5008:5012   */\n  0x22\n    /* \"#utility.yul\":5005:5006   */\n  0x04\n    /* \"#utility.yul\":4998:5013   */\n  mstore\n    /* \"#utility.yul\":5032:5036   */\n  0x24\n    /* \"#utility.yul\":5029:5030   */\n  0x00\n    /* \"#utility.yul\":5022:5037   */\n  revert\n    /* \"#utility.yul\":5049:5229   */\ntag_75:\n    /* \"#utility.yul\":5097:5174   */\n  0x4e487b7100000000000000000000000000000000000000000000000000000000\n    /* \"#utility.yul\":5094:5095   */\n  0x00\n    /* \"#utility.yul\":5087:5175   */\n  mstore\n    /* \"#utility.yul\":5194:5198   */\n  0x41\n    /* \"#utility.yul\":5191:5192   */\n  0x04\n    /* \"#utility.yul\":5184:5199   */\n  mstore\n    /* \"#utility.yul\":5218:5222   */\n  0x24\n    /* \"#utility.yul\":5215:5216   */\n  0x00\n    /* \"#utility.yul\":5208:5223   */\n  revert\n    /* \"#utility.yul\":5235:5352   */\ntag_46:\n    /* \"#utility.yul\":5344:5345   */\n  0x00\n    /* \"#utility.yul\":5341:5342   */\n  dup1\n    /* \"#utility.yul\":5334:5346   */\n  revert\n    /* \"#utility.yul\":5358:5475   */\ntag_39:\n    /* \"#utility.yul\":5467:5468   */\n  0x00\n    /* \"#utility.yul\":5464:5465   */\n  dup1\n    /* \"#utility.yul\":5457:5469   */\n  revert\n    /* \"#utility.yul\":5481:5598   */\ntag_58:\n    /* \"#utility.yul\":5590:5591   */\n  0x00\n    /* \"#utility.yul\":5587:5588   */\n  dup1\n    /* \"#utility.yul\":5580:5592   */\n  revert\n    /* \"#utility.yul\":5604:5721   */\ntag_55:\n    /* \"#utility.yul\":5713:5714   */\n  0x00\n    /* \"#utility.yul\":5710:5711   */\n  dup1\n    /* \"#utility.yul\":5703:5715   */\n  revert\n    /* \"#utility.yul\":5727:5829   */\ntag_77:\n    /* \"#utility.yul\":5768:5774   */\n  0x00\n    /* \"#utility.yul\":5819:5821   */\n  0x1f\n    /* \"#utility.yul\":5815:5822   */\n  not\n    /* \"#utility.yul\":5810:5812   */\n  0x1f\n    /* \"#utility.yul\":5803:5808   */\n  dup4\n    /* \"#utility.yul\":5799:5813   */\n  add\n    /* \"#utility.yul\":5795:5823   */\n  and\n    /* \"#utility.yul\":5785:5823   */\n  swap1\n  pop\n    /* \"#utility.yul\":5727:5829   */\n  swap2\n  swap1\n  pop\n  jump\t// out\n    /* \"#utility.yul\":5835:5957   */\ntag_51:\n    /* \"#utility.yul\":5908:5932   */\n  tag_115\n    /* \"#utility.yul\":5926:5931   */\n  dup2\n    /* \"#utility.yul\":5908:5932   */\n  tag_80\n  jump\t// in\ntag_115:\n    /* \"#utility.yul\":5901:5906   */\n  dup2\n    /* \"#utility.yul\":5898:5933   */\n  eq\n    /* \"#utility.yul\":5888:5951   */\n  tag_116\n  jumpi\n    /* \"#utility.yul\":5947:5948   */\n  0x00\n    /* \"#utility.yul\":5944:5945   */\n  dup1\n    /* \"#utility.yul\":5937:5949   */\n  revert\n    /* \"#utility.yul\":5888:5951   */\ntag_116:\n    /* \"#utility.yul\":5835:5957   */\n  pop\n  jump\t// out\n    /* \"src/crowdfunding.sol\":72:7339  contract CrowdFunding {\r... */\ntag_18:\n  mload(0x80)\n  codecopy(0x00, dataOffset(sub_0), dataSize(sub_0))\n  0x00\n  assignImmutable(\"0x7749cc8014201da2069c21d93ba99c584b6f62d393fde534ed47eac227e31561\")\n  return(0x00, dataSize(sub_0))\nstop\n\nsub_0: assembly {\n        /* \"src/crowdfunding.sol\":72:7339  contract CrowdFunding {\r... */\n      mstore(0x40, 0x80)\n      jumpi(tag_1, lt(calldatasize, 0x04))\n      shr(0xe0, calldataload(0x00))\n      dup1\n      0xb25924c1\n      gt\n      tag_27\n      jumpi\n      dup1\n      0xe3ce8164\n      gt\n      tag_28\n      jumpi\n      dup1\n      0xe3ce8164\n      eq\n      tag_21\n      jumpi\n      dup1\n      0xe7425109\n      eq\n      tag_22\n      jumpi\n      dup1\n      0xeb68f887\n      eq\n      tag_23\n      jumpi\n      dup1\n      0xf7256d66\n      eq\n      tag_24\n      jumpi\n      dup1\n      0xf7a7e57e\n      eq\n      tag_25\n      jumpi\n      dup1\n      0xf83589c0\n      eq\n      tag_26\n      jumpi\n      jump(tag_2)\n    tag_28:\n      dup1\n      0xb25924c1\n      eq\n      tag_15\n      jumpi\n      dup1\n      0xbbde609a\n      eq\n      tag_16\n      jumpi\n      dup1\n      0xcac9a391\n      eq\n      tag_17\n      jumpi\n      dup1\n      0xd50af7b4\n      eq\n      tag_18\n      jumpi\n      dup1\n      0xd50fac49\n      eq\n      tag_19\n      jumpi\n      dup1\n      0xe348c518\n      eq\n      tag_20\n      jumpi\n      jump(tag_2)\n    tag_27:\n      dup1\n      0x8f75c1fb\n      gt\n      tag_29\n      jumpi\n      dup1\n      0x8f75c1fb\n      eq\n      tag_9\n      jumpi\n      dup1\n      0x95df868d\n      eq\n      tag_10\n      jumpi\n      dup1\n      0x9de8fc99\n      eq\n      tag_11\n      jumpi\n      dup1\n      0xa4e58a87\n      eq\n      tag_12\n      jumpi\n      dup1\n      0xab672906\n      eq\n      tag_13\n      jumpi\n      dup1\n      0xb14d38c2\n      eq\n      tag_14\n      jumpi\n      jump(tag_2)\n    tag_29:\n      dup1\n      0x225682d1\n      eq\n      tag_3\n      jumpi\n      dup1\n      0x3deff252\n      eq\n      tag_4\n      jumpi\n      dup1\n      0x3e0905ec\n      eq\n      tag_5\n      jumpi\n      dup1\n      0x7bd82410\n      eq\n      tag_6\n      jumpi\n      dup1\n      0x8b83ba26\n      eq\n      tag_7\n      jumpi\n      dup1\n      0x8d1750c5\n      eq\n      tag_8\n      jumpi\n      jump(tag_2)\n    tag_1:\n      jumpi(tag_2, calldatasize)\n        /* \"src/crowdfunding.sol\":2458:2470  participar() */\n      tag_32\n        /* \"src/crowdfunding.sol\":2458:2468  participar */\n      tag_33\n        /* \"src/crowdfunding.sol\":2458:2470  participar() */\n      jump\t// in\n    tag_32:\n        /* \"src/crowdfunding.sol\":72:7339  contract CrowdFunding {\r... */\n      stop\n    tag_2:\n        /* \"src/crowdfunding.sol\":2524:2536  participar() */\n      tag_36\n        /* \"src/crowdfunding.sol\":2524:2534  participar */\n      tag_33\n        /* \"src/crowdfunding.sol\":2524:2536  participar() */\n      jump\t// in\n    tag_36:\n        /* \"src/crowdfunding.sol\":72:7339  contract CrowdFunding {\r... */\n      stop\n        /* \"src/crowdfunding.sol\":3745:3928  function test_contractBalance() public view returns (uint256) {\r... */\n    tag_3:\n      callvalue\n      dup1\n      iszero\n      tag_37\n      jumpi\n      0x00\n      dup1\n      revert\n    tag_37:\n      pop\n      tag_38\n      tag_39\n      jump\t// in\n    tag_38:\n      mload(0x40)\n      tag_40\n      swap2\n      swap1\n      tag_41\n      jump\t// in\n    tag_40:\n      mload(0x40)\n      dup1\n      swap2\n      sub\n      swap1\n      return\n        /* \"src/crowdfunding.sol\":196:221  string public campainName */\n    tag_4:\n      callvalue\n      dup1\n      iszero\n      tag_42\n      jumpi\n      0x00\n      dup1\n      revert\n    tag_42:\n      pop\n      tag_43\n      tag_44\n      jump\t// in\n    tag_43:\n      mload(0x40)\n      tag_45\n      swap2\n      swap1\n      tag_46\n      jump\t// in\n    tag_45:\n      mload(0x40)\n      dup1\n      swap2\n      sub\n      swap1\n      return\n        /* \"src/crowdfunding.sol\":7238:7334  function resolverPeticion(uint index) public only_manager {\r... */\n    tag_5:\n      callvalue\n      dup1\n      iszero\n      tag_47\n      jumpi\n      0x00\n      dup1\n      revert\n    tag_47:\n      pop\n      tag_48\n      0x04\n      dup1\n      calldatasize\n      sub\n      dup2\n      add\n      swap1\n      tag_49\n      swap2\n      swap1\n      tag_50\n      jump\t// in\n    tag_49:\n      tag_51\n      jump\t// in\n    tag_48:\n      stop\n        /* \"src/crowdfunding.sol\":462:497  uint256 public totalParticipaciones */\n    tag_6:\n      callvalue\n      dup1\n      iszero\n      tag_52\n      jumpi\n      0x00\n      dup1\n      revert\n    tag_52:\n      pop\n      tag_53\n      tag_54\n      jump\t// in\n    tag_53:\n      mload(0x40)\n      tag_55\n      swap2\n      swap1\n      tag_41\n      jump\t// in\n    tag_55:\n      mload(0x40)\n      dup1\n      swap2\n      sub\n      swap1\n      return\n        /* \"src/crowdfunding.sol\":2550:2672  function getUserParticipaciones(address user) public view returns(uint256) {\r... */\n    tag_7:\n      callvalue\n      dup1\n      iszero\n      tag_56\n      jumpi\n      0x00\n      dup1\n      revert\n    tag_56:\n      pop\n      tag_57\n      0x04\n      dup1\n      calldatasize\n      sub\n      dup2\n      add\n      swap1\n      tag_58\n      swap2\n      swap1\n      tag_59\n      jump\t// in\n    tag_58:\n      tag_60\n      jump\t// in\n    tag_57:\n      mload(0x40)\n      tag_61\n      swap2\n      swap1\n      tag_41\n      jump\t// in\n    tag_61:\n      mload(0x40)\n      dup1\n      swap2\n      sub\n      swap1\n      return\n        /* \"src/crowdfunding.sol\":264:292  Estado public  campainEstado */\n    tag_8:\n      callvalue\n      dup1\n      iszero\n      tag_62\n      jumpi\n      0x00\n      dup1\n      revert\n    tag_62:\n      pop\n      tag_63\n      tag_64\n      jump\t// in\n    tag_63:\n      mload(0x40)\n      tag_65\n      swap2\n      swap1\n      tag_66\n      jump\t// in\n    tag_65:\n      mload(0x40)\n      dup1\n      swap2\n      sub\n      swap1\n      return\n        /* \"src/crowdfunding.sol\":155:192  address payable public campainManager */\n    tag_9:\n      callvalue\n      dup1\n      iszero\n      tag_67\n      jumpi\n      0x00\n      dup1\n      revert\n    tag_67:\n      pop\n      tag_68\n      tag_69\n      jump\t// in\n    tag_68:\n      mload(0x40)\n      tag_70\n      swap2\n      swap1\n      tag_71\n      jump\t// in\n    tag_70:\n      mload(0x40)\n      dup1\n      swap2\n      sub\n      swap1\n      return\n        /* \"src/crowdfunding.sol\":299:325  uint256 public campainGoal */\n    tag_10:\n      callvalue\n      dup1\n      iszero\n      tag_72\n      jumpi\n      0x00\n      dup1\n      revert\n    tag_72:\n      pop\n      tag_73\n      tag_74\n      jump\t// in\n    tag_73:\n      mload(0x40)\n      tag_75\n      swap2\n      swap1\n      tag_41\n      jump\t// in\n    tag_75:\n      mload(0x40)\n      dup1\n      swap2\n      sub\n      swap1\n      return\n        /* \"src/crowdfunding.sol\":5182:5290  function getNPeticionesDeGasto() public view returns (uint) {\r... */\n    tag_11:\n      callvalue\n      dup1\n      iszero\n      tag_76\n      jumpi\n      0x00\n      dup1\n      revert\n    tag_76:\n      pop\n      tag_77\n      tag_78\n      jump\t// in\n    tag_77:\n      mload(0x40)\n      tag_79\n      swap2\n      swap1\n      tag_41\n      jump\t// in\n    tag_79:\n      mload(0x40)\n      dup1\n      swap2\n      sub\n      swap1\n      return\n        /* \"src/crowdfunding.sol\":3348:3732  function withdrawCanceledCampain() public {\r... */\n    tag_12:\n      callvalue\n      dup1\n      iszero\n      tag_80\n      jumpi\n      0x00\n      dup1\n      revert\n    tag_80:\n      pop\n      tag_81\n      tag_82\n      jump\t// in\n    tag_81:\n      stop\n        /* \"src/crowdfunding.sol\":1071:1127  mapping (uint => PeticionGasto) public peticionesDeGasto */\n    tag_13:\n      callvalue\n      dup1\n      iszero\n      tag_83\n      jumpi\n      0x00\n      dup1\n      revert\n    tag_83:\n      pop\n      tag_84\n      0x04\n      dup1\n      calldatasize\n      sub\n      dup2\n      add\n      swap1\n      tag_85\n      swap2\n      swap1\n      tag_50\n      jump\t// in\n    tag_85:\n      tag_86\n      jump\t// in\n    tag_84:\n      mload(0x40)\n      tag_87\n      swap7\n      swap6\n      swap5\n      swap4\n      swap3\n      swap2\n      swap1\n      tag_88\n      jump\t// in\n    tag_87:\n      mload(0x40)\n      dup1\n      swap2\n      sub\n      swap1\n      return\n        /* \"src/crowdfunding.sol\":2903:3335  function finalizarCampain() public  {\r... */\n    tag_14:\n      callvalue\n      dup1\n      iszero\n      tag_89\n      jumpi\n      0x00\n      dup1\n      revert\n    tag_89:\n      pop\n      tag_90\n      tag_91\n      jump\t// in\n    tag_90:\n      stop\n        /* \"src/crowdfunding.sol\":425:455  address[] public participantes */\n    tag_15:\n      callvalue\n      dup1\n      iszero\n      tag_92\n      jumpi\n      0x00\n      dup1\n      revert\n    tag_92:\n      pop\n      tag_93\n      0x04\n      dup1\n      calldatasize\n      sub\n      dup2\n      add\n      swap1\n      tag_94\n      swap2\n      swap1\n      tag_50\n      jump\t// in\n    tag_94:\n      tag_95\n      jump\t// in\n    tag_93:\n      mload(0x40)\n      tag_96\n      swap2\n      swap1\n      tag_97\n      jump\t// in\n    tag_96:\n      mload(0x40)\n      dup1\n      swap2\n      sub\n      swap1\n      return\n        /* \"src/crowdfunding.sol\":368:418  mapping(address => uint256) public participaciones */\n    tag_16:\n      callvalue\n      dup1\n      iszero\n      tag_98\n      jumpi\n      0x00\n      dup1\n      revert\n    tag_98:\n      pop\n      tag_99\n      0x04\n      dup1\n      calldatasize\n      sub\n      dup2\n      add\n      swap1\n      tag_100\n      swap2\n      swap1\n      tag_59\n      jump\t// in\n    tag_100:\n      tag_101\n      jump\t// in\n    tag_99:\n      mload(0x40)\n      tag_102\n      swap2\n      swap1\n      tag_41\n      jump\t// in\n    tag_102:\n      mload(0x40)\n      dup1\n      swap2\n      sub\n      swap1\n      return\n        /* \"src/crowdfunding.sol\":2792:2897  function getParticipantes() public view returns(address[] memory) {\r... */\n    tag_17:\n      callvalue\n      dup1\n      iszero\n      tag_103\n      jumpi\n      0x00\n      dup1\n      revert\n    tag_103:\n      pop\n      tag_104\n      tag_105\n      jump\t// in\n    tag_104:\n      mload(0x40)\n      tag_106\n      swap2\n      swap1\n      tag_107\n      jump\t// in\n    tag_106:\n      mload(0x40)\n      dup1\n      swap2\n      sub\n      swap1\n      return\n        /* \"src/crowdfunding.sol\":6093:6522  function getDetailPeticionGastobyId(uint index) public  view returns(string memory,uint, bool){\r... */\n    tag_18:\n      callvalue\n      dup1\n      iszero\n      tag_108\n      jumpi\n      0x00\n      dup1\n      revert\n    tag_108:\n      pop\n      tag_109\n      0x04\n      dup1\n      calldatasize\n      sub\n      dup2\n      add\n      swap1\n      tag_110\n      swap2\n      swap1\n      tag_50\n      jump\t// in\n    tag_110:\n      tag_111\n      jump\t// in\n    tag_109:\n      mload(0x40)\n      tag_112\n      swap4\n      swap3\n      swap2\n      swap1\n      tag_113\n      jump\t// in\n    tag_112:\n      mload(0x40)\n      dup1\n      swap2\n      sub\n      swap1\n      return\n        /* \"src/crowdfunding.sol\":1837:2413  function participar() public payable {\r... */\n    tag_19:\n      tag_114\n      tag_33\n      jump\t// in\n    tag_114:\n      stop\n        /* \"src/crowdfunding.sol\":329:361  uint256 public participationRate */\n    tag_20:\n      callvalue\n      dup1\n      iszero\n      tag_115\n      jumpi\n      0x00\n      dup1\n      revert\n    tag_115:\n      pop\n      tag_116\n      tag_117\n      jump\t// in\n    tag_116:\n      mload(0x40)\n      tag_118\n      swap2\n      swap1\n      tag_41\n      jump\t// in\n    tag_118:\n      mload(0x40)\n      dup1\n      swap2\n      sub\n      swap1\n      return\n        /* \"src/crowdfunding.sol\":2678:2786  function getTotalParticipantes() public view returns(uint256) {\r... */\n    tag_21:\n      callvalue\n      dup1\n      iszero\n      tag_119\n      jumpi\n      0x00\n      dup1\n      revert\n    tag_119:\n      pop\n      tag_120\n      tag_121\n      jump\t// in\n    tag_120:\n      mload(0x40)\n      tag_122\n      swap2\n      swap1\n      tag_41\n      jump\t// in\n    tag_122:\n      mload(0x40)\n      dup1\n      swap2\n      sub\n      swap1\n      return\n        /* \"src/crowdfunding.sol\":225:257  string public campainDescription */\n    tag_22:\n      callvalue\n      dup1\n      iszero\n      tag_123\n      jumpi\n      0x00\n      dup1\n      revert\n    tag_123:\n      pop\n      tag_124\n      tag_125\n      jump\t// in\n    tag_124:\n      mload(0x40)\n      tag_126\n      swap2\n      swap1\n      tag_46\n      jump\t// in\n    tag_126:\n      mload(0x40)\n      dup1\n      swap2\n      sub\n      swap1\n      return\n        /* \"src/crowdfunding.sol\":5296:6087  function getPeticionesGastoAbiertas() public view returns(uint[] memory) {\r... */\n    tag_23:\n      callvalue\n      dup1\n      iszero\n      tag_127\n      jumpi\n      0x00\n      dup1\n      revert\n    tag_127:\n      pop\n      tag_128\n      tag_129\n      jump\t// in\n    tag_128:\n      mload(0x40)\n      tag_130\n      swap2\n      swap1\n      tag_131\n      jump\t// in\n    tag_130:\n      mload(0x40)\n      dup1\n      swap2\n      sub\n      swap1\n      return\n        /* \"src/crowdfunding.sol\":6532:7232  function votarPeticionGasto(uint index, bool aprobar) public {\r... */\n    tag_24:\n      callvalue\n      dup1\n      iszero\n      tag_132\n      jumpi\n      0x00\n      dup1\n      revert\n    tag_132:\n      pop\n      tag_133\n      0x04\n      dup1\n      calldatasize\n      sub\n      dup2\n      add\n      swap1\n      tag_134\n      swap2\n      swap1\n      tag_135\n      jump\t// in\n    tag_134:\n      tag_136\n      jump\t// in\n    tag_133:\n      stop\n        /* \"src/crowdfunding.sol\":504:542  uint immutable public CAMPANIN_DUEDATE */\n    tag_25:\n      callvalue\n      dup1\n      iszero\n      tag_137\n      jumpi\n      0x00\n      dup1\n      revert\n    tag_137:\n      pop\n      tag_138\n      tag_139\n      jump\t// in\n    tag_138:\n      mload(0x40)\n      tag_140\n      swap2\n      swap1\n      tag_41\n      jump\t// in\n    tag_140:\n      mload(0x40)\n      dup1\n      swap2\n      sub\n      swap1\n      return\n        /* \"src/crowdfunding.sol\":4080:5176  function\tcrearPeticionDeGasto(string memory _detalle, uint _importe, address payable _destinatario) public only_manager {\r... */\n    tag_26:\n      callvalue\n      dup1\n      iszero\n      tag_141\n      jumpi\n      0x00\n      dup1\n      revert\n    tag_141:\n      pop\n      tag_142\n      0x04\n      dup1\n      calldatasize\n      sub\n      dup2\n      add\n      swap1\n      tag_143\n      swap2\n      swap1\n      tag_144\n      jump\t// in\n    tag_143:\n      tag_145\n      jump\t// in\n    tag_142:\n      stop\n        /* \"src/crowdfunding.sol\":1837:2413  function participar() public payable {\r... */\n    tag_33:\n        /* \"src/crowdfunding.sol\":1906:1923  participationRate */\n      sload(0x05)\n        /* \"src/crowdfunding.sol\":1893:1902  msg.value */\n      callvalue\n        /* \"src/crowdfunding.sol\":1893:1923  msg.value >= participationRate */\n      lt\n      iszero\n        /* \"src/crowdfunding.sol\":1885:1962  require(msg.value >= participationRate, \"Participacion minima no alcanzada\" ) */\n      tag_147\n      jumpi\n      mload(0x40)\n      0x08c379a000000000000000000000000000000000000000000000000000000000\n      dup2\n      mstore\n      0x04\n      add\n      tag_148\n      swap1\n      tag_149\n      jump\t// in\n    tag_148:\n      mload(0x40)\n      dup1\n      swap2\n      sub\n      swap1\n      revert\n    tag_147:\n        /* \"src/crowdfunding.sol\":1998:2012  Estado.Abierta */\n      0x00\n        /* \"src/crowdfunding.sol\":1981:2012  campainEstado == Estado.Abierta */\n      0x02\n      dup2\n      gt\n      iszero\n      tag_150\n      jumpi\n      tag_151\n      tag_152\n      jump\t// in\n    tag_151:\n    tag_150:\n        /* \"src/crowdfunding.sol\":1981:1994  campainEstado */\n      0x03\n      0x00\n      swap1\n      sload\n      swap1\n      0x0100\n      exp\n      swap1\n      div\n      0xff\n      and\n        /* \"src/crowdfunding.sol\":1981:2012  campainEstado == Estado.Abierta */\n      0x02\n      dup2\n      gt\n      iszero\n      tag_153\n      jumpi\n      tag_154\n      tag_152\n      jump\t// in\n    tag_154:\n    tag_153:\n      eq\n        /* \"src/crowdfunding.sol\":1973:2046  require(campainEstado == Estado.Abierta,\"Finalizado plazo participacion\") */\n      tag_155\n      jumpi\n      mload(0x40)\n      0x08c379a000000000000000000000000000000000000000000000000000000000\n      dup2\n      mstore\n      0x04\n      add\n      tag_156\n      swap1\n      tag_157\n      jump\t// in\n    tag_156:\n      mload(0x40)\n      dup1\n      swap2\n      sub\n      swap1\n      revert\n    tag_155:\n        /* \"src/crowdfunding.sol\":2091:2092  0 */\n      0x00\n        /* \"src/crowdfunding.sol\":2060:2075  participaciones */\n      0x06\n        /* \"src/crowdfunding.sol\":2060:2087  participaciones[msg.sender] */\n      0x00\n        /* \"src/crowdfunding.sol\":2076:2086  msg.sender */\n      caller\n        /* \"src/crowdfunding.sol\":2060:2087  participaciones[msg.sender] */\n      0xffffffffffffffffffffffffffffffffffffffff\n      and\n      0xffffffffffffffffffffffffffffffffffffffff\n      and\n      dup2\n      mstore\n      0x20\n      add\n      swap1\n      dup2\n      mstore\n      0x20\n      add\n      0x00\n      keccak256\n      sload\n        /* \"src/crowdfunding.sol\":2060:2092  participaciones[msg.sender] == 0 */\n      eq\n        /* \"src/crowdfunding.sol\":2057:2173  if(participaciones[msg.sender] == 0) {  //nuevo participante\r... */\n      iszero\n      tag_158\n      jumpi\n        /* \"src/crowdfunding.sol\":2131:2144  participantes */\n      0x07\n        /* \"src/crowdfunding.sol\":2150:2160  msg.sender */\n      caller\n        /* \"src/crowdfunding.sol\":2131:2161  participantes.push(msg.sender) */\n      swap1\n      dup1\n      0x01\n      dup2\n      sload\n      add\n      dup1\n      dup3\n      sstore\n      dup1\n      swap2\n      pop\n      pop\n      0x01\n      swap1\n      sub\n      swap1\n      0x00\n      mstore\n      keccak256(0x00, 0x20)\n      add\n      0x00\n      swap1\n      swap2\n      swap1\n      swap2\n      swap1\n      swap2\n      0x0100\n      exp\n      dup2\n      sload\n      dup2\n      0xffffffffffffffffffffffffffffffffffffffff\n      mul\n      not\n      and\n      swap1\n      dup4\n      0xffffffffffffffffffffffffffffffffffffffff\n      and\n      mul\n      or\n      swap1\n      sstore\n      pop\n        /* \"src/crowdfunding.sol\":2057:2173  if(participaciones[msg.sender] == 0) {  //nuevo participante\r... */\n    tag_158:\n        /* \"src/crowdfunding.sol\":2183:2209  uint256 newParticipaciones */\n      0x00\n        /* \"src/crowdfunding.sol\":2224:2241  participationRate */\n      sload(0x05)\n        /* \"src/crowdfunding.sol\":2212:2221  msg.value */\n      callvalue\n        /* \"src/crowdfunding.sol\":2212:2241  msg.value / participationRate */\n      tag_160\n      swap2\n      swap1\n      tag_161\n      jump\t// in\n    tag_160:\n        /* \"src/crowdfunding.sol\":2183:2241  uint256 newParticipaciones = msg.value / participationRate */\n      swap1\n      pop\n        /* \"src/crowdfunding.sol\":2313:2331  newParticipaciones */\n      dup1\n        /* \"src/crowdfunding.sol\":2283:2298  participaciones */\n      0x06\n        /* \"src/crowdfunding.sol\":2283:2310  participaciones[msg.sender] */\n      0x00\n        /* \"src/crowdfunding.sol\":2299:2309  msg.sender */\n      caller\n        /* \"src/crowdfunding.sol\":2283:2310  participaciones[msg.sender] */\n      0xffffffffffffffffffffffffffffffffffffffff\n      and\n      0xffffffffffffffffffffffffffffffffffffffff\n      and\n      dup2\n      mstore\n      0x20\n      add\n      swap1\n      dup2\n      mstore\n      0x20\n      add\n      0x00\n      keccak256\n      sload\n        /* \"src/crowdfunding.sol\":2283:2331  participaciones[msg.sender] + newParticipaciones */\n      tag_162\n      swap2\n      swap1\n      tag_163\n      jump\t// in\n    tag_162:\n        /* \"src/crowdfunding.sol\":2252:2267  participaciones */\n      0x06\n        /* \"src/crowdfunding.sol\":2252:2279  participaciones[msg.sender] */\n      0x00\n        /* \"src/crowdfunding.sol\":2268:2278  msg.sender */\n      caller\n        /* \"src/crowdfunding.sol\":2252:2279  participaciones[msg.sender] */\n      0xffffffffffffffffffffffffffffffffffffffff\n      and\n      0xffffffffffffffffffffffffffffffffffffffff\n      and\n      dup2\n      mstore\n      0x20\n      add\n      swap1\n      dup2\n      mstore\n      0x20\n      add\n      0x00\n      keccak256\n        /* \"src/crowdfunding.sol\":2252:2331  participaciones[msg.sender] =  participaciones[msg.sender] + newParticipaciones */\n      dup2\n      swap1\n      sstore\n      pop\n        /* \"src/crowdfunding.sol\":2387:2405  newParticipaciones */\n      dup1\n        /* \"src/crowdfunding.sol\":2365:2385  totalParticipaciones */\n      sload(0x08)\n        /* \"src/crowdfunding.sol\":2365:2405  totalParticipaciones +newParticipaciones */\n      tag_164\n      swap2\n      swap1\n      tag_163\n      jump\t// in\n    tag_164:\n        /* \"src/crowdfunding.sol\":2342:2362  totalParticipaciones */\n      0x08\n        /* \"src/crowdfunding.sol\":2342:2405  totalParticipaciones = totalParticipaciones +newParticipaciones */\n      dup2\n      swap1\n      sstore\n      pop\n        /* \"src/crowdfunding.sol\":1874:2413  {\r... */\n      pop\n        /* \"src/crowdfunding.sol\":1837:2413  function participar() public payable {\r... */\n      jump\t// out\n        /* \"src/crowdfunding.sol\":3745:3928  function test_contractBalance() public view returns (uint256) {\r... */\n    tag_39:\n        /* \"src/crowdfunding.sol\":3798:3805  uint256 */\n      0x00\n        /* \"src/crowdfunding.sol\":3899:3920  address(this).balance */\n      selfbalance\n        /* \"src/crowdfunding.sol\":3892:3920  return address(this).balance */\n      swap1\n      pop\n        /* \"src/crowdfunding.sol\":3745:3928  function test_contractBalance() public view returns (uint256) {\r... */\n      swap1\n      jump\t// out\n        /* \"src/crowdfunding.sol\":196:221  string public campainName */\n    tag_44:\n      0x01\n      dup1\n      sload\n      tag_166\n      swap1\n      tag_167\n      jump\t// in\n    tag_166:\n      dup1\n      0x1f\n      add\n      0x20\n      dup1\n      swap2\n      div\n      mul\n      0x20\n      add\n      mload(0x40)\n      swap1\n      dup2\n      add\n      0x40\n      mstore\n      dup1\n      swap3\n      swap2\n      swap1\n      dup2\n      dup2\n      mstore\n      0x20\n      add\n      dup3\n      dup1\n      sload\n      tag_168\n      swap1\n      tag_167\n      jump\t// in\n    tag_168:\n      dup1\n      iszero\n      tag_169\n      jumpi\n      dup1\n      0x1f\n      lt\n      tag_170\n      jumpi\n      0x0100\n      dup1\n      dup4\n      sload\n      div\n      mul\n      dup4\n      mstore\n      swap2\n      0x20\n      add\n      swap2\n      jump(tag_169)\n    tag_170:\n      dup3\n      add\n      swap2\n      swap1\n      0x00\n      mstore\n      keccak256(0x00, 0x20)\n      swap1\n    tag_171:\n      dup2\n      sload\n      dup2\n      mstore\n      swap1\n      0x01\n      add\n      swap1\n      0x20\n      add\n      dup1\n      dup4\n      gt\n      tag_171\n      jumpi\n      dup3\n      swap1\n      sub\n      0x1f\n      and\n      dup3\n      add\n      swap2\n    tag_169:\n      pop\n      pop\n      pop\n      pop\n      pop\n      dup2\n      jump\t// out\n        /* \"src/crowdfunding.sol\":7238:7334  function resolverPeticion(uint index) public only_manager {\r... */\n    tag_51:\n        /* \"src/crowdfunding.sol\":612:622  msg.sender */\n      caller\n        /* \"src/crowdfunding.sol\":594:622  campainManager == msg.sender */\n      0xffffffffffffffffffffffffffffffffffffffff\n      and\n        /* \"src/crowdfunding.sol\":594:608  campainManager */\n      0x00\n      dup1\n      sload\n      swap1\n      0x0100\n      exp\n      swap1\n      div\n      0xffffffffffffffffffffffffffffffffffffffff\n      and\n        /* \"src/crowdfunding.sol\":594:622  campainManager == msg.sender */\n      0xffffffffffffffffffffffffffffffffffffffff\n      and\n      eq\n        /* \"src/crowdfunding.sol\":586:646  require(campainManager == msg.sender,\"Only Campain manager\") */\n      tag_173\n      jumpi\n      mload(0x40)\n      0x08c379a000000000000000000000000000000000000000000000000000000000\n      dup2\n      mstore\n      0x04\n      add\n      tag_174\n      swap1\n      tag_175\n      jump\t// in\n    tag_174:\n      mload(0x40)\n      dup1\n      swap2\n      sub\n      swap1\n      revert\n    tag_173:\n        /* \"src/crowdfunding.sol\":7238:7334  function resolverPeticion(uint index) public only_manager {\r... */\n      pop\n      jump\t// out\n        /* \"src/crowdfunding.sol\":462:497  uint256 public totalParticipaciones */\n    tag_54:\n      sload(0x08)\n      dup2\n      jump\t// out\n        /* \"src/crowdfunding.sol\":2550:2672  function getUserParticipaciones(address user) public view returns(uint256) {\r... */\n    tag_60:\n        /* \"src/crowdfunding.sol\":2616:2623  uint256 */\n      0x00\n        /* \"src/crowdfunding.sol\":2643:2658  participaciones */\n      0x06\n        /* \"src/crowdfunding.sol\":2643:2664  participaciones[user] */\n      0x00\n        /* \"src/crowdfunding.sol\":2659:2663  user */\n      dup4\n        /* \"src/crowdfunding.sol\":2643:2664  participaciones[user] */\n      0xffffffffffffffffffffffffffffffffffffffff\n      and\n      0xffffffffffffffffffffffffffffffffffffffff\n      and\n      dup2\n      mstore\n      0x20\n      add\n      swap1\n      dup2\n      mstore\n      0x20\n      add\n      0x00\n      keccak256\n      sload\n        /* \"src/crowdfunding.sol\":2636:2664  return participaciones[user] */\n      swap1\n      pop\n        /* \"src/crowdfunding.sol\":2550:2672  function getUserParticipaciones(address user) public view returns(uint256) {\r... */\n      swap2\n      swap1\n      pop\n      jump\t// out\n        /* \"src/crowdfunding.sol\":264:292  Estado public  campainEstado */\n    tag_64:\n      0x03\n      0x00\n      swap1\n      sload\n      swap1\n      0x0100\n      exp\n      swap1\n      div\n      0xff\n      and\n      dup2\n      jump\t// out\n        /* \"src/crowdfunding.sol\":155:192  address payable public campainManager */\n    tag_69:\n      0x00\n      dup1\n      sload\n      swap1\n      0x0100\n      exp\n      swap1\n      div\n      0xffffffffffffffffffffffffffffffffffffffff\n      and\n      dup2\n      jump\t// out\n        /* \"src/crowdfunding.sol\":299:325  uint256 public campainGoal */\n    tag_74:\n      sload(0x04)\n      dup2\n      jump\t// out\n        /* \"src/crowdfunding.sol\":5182:5290  function getNPeticionesDeGasto() public view returns (uint) {\r... */\n    tag_78:\n        /* \"src/crowdfunding.sol\":5236:5240  uint */\n      0x00\n        /* \"src/crowdfunding.sol\":5260:5282  totalPeticionesDeGasto */\n      sload(0x0a)\n        /* \"src/crowdfunding.sol\":5253:5282  return totalPeticionesDeGasto */\n      swap1\n      pop\n        /* \"src/crowdfunding.sol\":5182:5290  function getNPeticionesDeGasto() public view returns (uint) {\r... */\n      swap1\n      jump\t// out\n        /* \"src/crowdfunding.sol\":3348:3732  function withdrawCanceledCampain() public {\r... */\n    tag_82:\n        /* \"src/crowdfunding.sol\":3439:3440  0 */\n      0x00\n        /* \"src/crowdfunding.sol\":3409:3424  participaciones */\n      0x06\n        /* \"src/crowdfunding.sol\":3409:3436  participaciones[msg.sender] */\n      0x00\n        /* \"src/crowdfunding.sol\":3425:3435  msg.sender */\n      caller\n        /* \"src/crowdfunding.sol\":3409:3436  participaciones[msg.sender] */\n      0xffffffffffffffffffffffffffffffffffffffff\n      and\n      0xffffffffffffffffffffffffffffffffffffffff\n      and\n      dup2\n      mstore\n      0x20\n      add\n      swap1\n      dup2\n      mstore\n      0x20\n      add\n      0x00\n      keccak256\n      sload\n        /* \"src/crowdfunding.sol\":3409:3440  participaciones[msg.sender] > 0 */\n      gt\n        /* \"src/crowdfunding.sol\":3401:3461  require(participaciones[msg.sender] > 0, \"fondos retirados\") */\n      tag_180\n      jumpi\n      mload(0x40)\n      0x08c379a000000000000000000000000000000000000000000000000000000000\n      dup2\n      mstore\n      0x04\n      add\n      tag_181\n      swap1\n      tag_182\n      jump\t// in\n    tag_181:\n      mload(0x40)\n      dup1\n      swap2\n      sub\n      swap1\n      revert\n    tag_180:\n        /* \"src/crowdfunding.sol\":3497:3513  Estado.Cancelada */\n      0x01\n        /* \"src/crowdfunding.sol\":3480:3513  campainEstado == Estado.Cancelada */\n      0x02\n      dup2\n      gt\n      iszero\n      tag_183\n      jumpi\n      tag_184\n      tag_152\n      jump\t// in\n    tag_184:\n    tag_183:\n        /* \"src/crowdfunding.sol\":3480:3493  campainEstado */\n      0x03\n      0x00\n      swap1\n      sload\n      swap1\n      0x0100\n      exp\n      swap1\n      div\n      0xff\n      and\n        /* \"src/crowdfunding.sol\":3480:3513  campainEstado == Estado.Cancelada */\n      0x02\n      dup2\n      gt\n      iszero\n      tag_185\n      jumpi\n      tag_186\n      tag_152\n      jump\t// in\n    tag_186:\n    tag_185:\n      eq\n        /* \"src/crowdfunding.sol\":3472:3538  require(campainEstado == Estado.Cancelada,\"Campanya no cancelada\") */\n      tag_187\n      jumpi\n      mload(0x40)\n      0x08c379a000000000000000000000000000000000000000000000000000000000\n      dup2\n      mstore\n      0x04\n      add\n      tag_188\n      swap1\n      tag_189\n      jump\t// in\n    tag_188:\n      mload(0x40)\n      dup1\n      swap2\n      sub\n      swap1\n      revert\n    tag_187:\n        /* \"src/crowdfunding.sol\":3549:3574  uint256 aportacionUsuario */\n      0x00\n        /* \"src/crowdfunding.sol\":3607:3624  participationRate */\n      sload(0x05)\n        /* \"src/crowdfunding.sol\":3577:3592  participaciones */\n      0x06\n        /* \"src/crowdfunding.sol\":3577:3604  participaciones[msg.sender] */\n      0x00\n        /* \"src/crowdfunding.sol\":3593:3603  msg.sender */\n      caller\n        /* \"src/crowdfunding.sol\":3577:3604  participaciones[msg.sender] */\n      0xffffffffffffffffffffffffffffffffffffffff\n      and\n      0xffffffffffffffffffffffffffffffffffffffff\n      and\n      dup2\n      mstore\n      0x20\n      add\n      swap1\n      dup2\n      mstore\n      0x20\n      add\n      0x00\n      keccak256\n      sload\n        /* \"src/crowdfunding.sol\":3577:3624  participaciones[msg.sender] * participationRate */\n      tag_190\n      swap2\n      swap1\n      tag_191\n      jump\t// in\n    tag_190:\n        /* \"src/crowdfunding.sol\":3549:3624  uint256 aportacionUsuario = participaciones[msg.sender] * participationRate */\n      swap1\n      pop\n        /* \"src/crowdfunding.sol\":3665:3666  0 */\n      0x00\n        /* \"src/crowdfunding.sol\":3635:3650  participaciones */\n      0x06\n        /* \"src/crowdfunding.sol\":3635:3662  participaciones[msg.sender] */\n      0x00\n        /* \"src/crowdfunding.sol\":3651:3661  msg.sender */\n      caller\n        /* \"src/crowdfunding.sol\":3635:3662  participaciones[msg.sender] */\n      0xffffffffffffffffffffffffffffffffffffffff\n      and\n      0xffffffffffffffffffffffffffffffffffffffff\n      and\n      dup2\n      mstore\n      0x20\n      add\n      swap1\n      dup2\n      mstore\n      0x20\n      add\n      0x00\n      keccak256\n        /* \"src/crowdfunding.sol\":3635:3666  participaciones[msg.sender] = 0 */\n      dup2\n      swap1\n      sstore\n      pop\n        /* \"src/crowdfunding.sol\":3685:3695  msg.sender */\n      caller\n        /* \"src/crowdfunding.sol\":3677:3705  payable(msg.sender).transfer */\n      0xffffffffffffffffffffffffffffffffffffffff\n      and\n        /* \"src/crowdfunding.sol\":3677:3724  payable(msg.sender).transfer(aportacionUsuario) */\n      0x08fc\n        /* \"src/crowdfunding.sol\":3706:3723  aportacionUsuario */\n      dup3\n        /* \"src/crowdfunding.sol\":3677:3724  payable(msg.sender).transfer(aportacionUsuario) */\n      swap1\n      dup2\n      iszero\n      mul\n      swap1\n      mload(0x40)\n      0x00\n      mload(0x40)\n      dup1\n      dup4\n      sub\n      dup2\n      dup6\n      dup9\n      dup9\n      call\n      swap4\n      pop\n      pop\n      pop\n      pop\n      iszero\n      dup1\n      iszero\n      tag_193\n      jumpi\n      returndatasize\n      0x00\n      dup1\n      returndatacopy\n      revert(0x00, returndatasize)\n    tag_193:\n      pop\n        /* \"src/crowdfunding.sol\":3390:3732  {\r... */\n      pop\n        /* \"src/crowdfunding.sol\":3348:3732  function withdrawCanceledCampain() public {\r... */\n      jump\t// out\n        /* \"src/crowdfunding.sol\":1071:1127  mapping (uint => PeticionGasto) public peticionesDeGasto */\n    tag_86:\n      mstore(0x20, 0x09)\n      dup1\n      0x00\n      mstore\n      keccak256(0x00, 0x40)\n      0x00\n      swap2\n      pop\n      swap1\n      pop\n      dup1\n      0x00\n      add\n      dup1\n      sload\n      tag_194\n      swap1\n      tag_167\n      jump\t// in\n    tag_194:\n      dup1\n      0x1f\n      add\n      0x20\n      dup1\n      swap2\n      div\n      mul\n      0x20\n      add\n      mload(0x40)\n      swap1\n      dup2\n      add\n      0x40\n      mstore\n      dup1\n      swap3\n      swap2\n      swap1\n      dup2\n      dup2\n      mstore\n      0x20\n      add\n      dup3\n      dup1\n      sload\n      tag_195\n      swap1\n      tag_167\n      jump\t// in\n    tag_195:\n      dup1\n      iszero\n      tag_196\n      jumpi\n      dup1\n      0x1f\n      lt\n      tag_197\n      jumpi\n      0x0100\n      dup1\n      dup4\n      sload\n      div\n      mul\n      dup4\n      mstore\n      swap2\n      0x20\n      add\n      swap2\n      jump(tag_196)\n    tag_197:\n      dup3\n      add\n      swap2\n      swap1\n      0x00\n      mstore\n      keccak256(0x00, 0x20)\n      swap1\n    tag_198:\n      dup2\n      sload\n      dup2\n      mstore\n      swap1\n      0x01\n      add\n      swap1\n      0x20\n      add\n      dup1\n      dup4\n      gt\n      tag_198\n      jumpi\n      dup3\n      swap1\n      sub\n      0x1f\n      and\n      dup3\n      add\n      swap2\n    tag_196:\n      pop\n      pop\n      pop\n      pop\n      pop\n      swap1\n      dup1\n      0x01\n      add\n      0x00\n      swap1\n      sload\n      swap1\n      0x0100\n      exp\n      swap1\n      div\n      0xff\n      and\n      swap1\n      dup1\n      0x02\n      add\n      sload\n      swap1\n      dup1\n      0x03\n      add\n      0x00\n      swap1\n      sload\n      swap1\n      0x0100\n      exp\n      swap1\n      div\n      0xffffffffffffffffffffffffffffffffffffffff\n      and\n      swap1\n      dup1\n      0x04\n      add\n      sload\n      swap1\n      dup1\n      0x05\n      add\n      sload\n      swap1\n      pop\n      dup7\n      jump\t// out\n        /* \"src/crowdfunding.sol\":2903:3335  function finalizarCampain() public  {\r... */\n    tag_91:\n        /* \"src/crowdfunding.sol\":2975:2989  Estado.Abierta */\n      0x00\n        /* \"src/crowdfunding.sol\":2958:2989  campainEstado == Estado.Abierta */\n      0x02\n      dup2\n      gt\n      iszero\n      tag_200\n      jumpi\n      tag_201\n      tag_152\n      jump\t// in\n    tag_201:\n    tag_200:\n        /* \"src/crowdfunding.sol\":2958:2971  campainEstado */\n      0x03\n      0x00\n      swap1\n      sload\n      swap1\n      0x0100\n      exp\n      swap1\n      div\n      0xff\n      and\n        /* \"src/crowdfunding.sol\":2958:2989  campainEstado == Estado.Abierta */\n      0x02\n      dup2\n      gt\n      iszero\n      tag_202\n      jumpi\n      tag_203\n      tag_152\n      jump\t// in\n    tag_203:\n    tag_202:\n      eq\n        /* \"src/crowdfunding.sol\":2950:3012  require(campainEstado == Estado.Abierta,\"Campanya no abierta\") */\n      tag_204\n      jumpi\n      mload(0x40)\n      0x08c379a000000000000000000000000000000000000000000000000000000000\n      dup2\n      mstore\n      0x04\n      add\n      tag_205\n      swap1\n      tag_206\n      jump\t// in\n    tag_205:\n      mload(0x40)\n      dup1\n      swap2\n      sub\n      swap1\n      revert\n    tag_204:\n        /* \"src/crowdfunding.sol\":3040:3054  campainManager */\n      0x00\n      dup1\n      sload\n      swap1\n      0x0100\n      exp\n      swap1\n      div\n      0xffffffffffffffffffffffffffffffffffffffff\n      and\n        /* \"src/crowdfunding.sol\":3026:3054  msg.sender != campainManager */\n      0xffffffffffffffffffffffffffffffffffffffff\n      and\n        /* \"src/crowdfunding.sol\":3026:3036  msg.sender */\n      caller\n        /* \"src/crowdfunding.sol\":3026:3054  msg.sender != campainManager */\n      0xffffffffffffffffffffffffffffffffffffffff\n      and\n      eq\n        /* \"src/crowdfunding.sol\":3023:3155  if(msg.sender != campainManager) {\r... */\n      tag_207\n      jumpi\n        /* \"src/crowdfunding.sol\":3099:3115  CAMPANIN_DUEDATE */\n      immutable(\"0x7749cc8014201da2069c21d93ba99c584b6f62d393fde534ed47eac227e31561\")\n        /* \"src/crowdfunding.sol\":3079:3094  block.timestamp */\n      timestamp\n        /* \"src/crowdfunding.sol\":3079:3115  block.timestamp >=  CAMPANIN_DUEDATE */\n      lt\n      iszero\n        /* \"src/crowdfunding.sol\":3071:3143  require(block.timestamp >=  CAMPANIN_DUEDATE, \"Campain is not over yet\") */\n      tag_208\n      jumpi\n      mload(0x40)\n      0x08c379a000000000000000000000000000000000000000000000000000000000\n      dup2\n      mstore\n      0x04\n      add\n      tag_209\n      swap1\n      tag_210\n      jump\t// in\n    tag_209:\n      mload(0x40)\n      dup1\n      swap2\n      sub\n      swap1\n      revert\n    tag_208:\n        /* \"src/crowdfunding.sol\":3023:3155  if(msg.sender != campainManager) {\r... */\n    tag_207:\n        /* \"src/crowdfunding.sol\":3185:3206  address(this).balance */\n      selfbalance\n        /* \"src/crowdfunding.sol\":3170:3181  campainGoal */\n      sload(0x04)\n        /* \"src/crowdfunding.sol\":3170:3206  campainGoal <= address(this).balance */\n      gt\n        /* \"src/crowdfunding.sol\":3167:3328  if(campainGoal <= address(this).balance) {\r... */\n      tag_211\n      jumpi\n        /* \"src/crowdfunding.sol\":3239:3252  Estado.Activa */\n      0x02\n        /* \"src/crowdfunding.sol\":3223:3236  campainEstado */\n      0x03\n      0x00\n        /* \"src/crowdfunding.sol\":3223:3252  campainEstado = Estado.Activa */\n      0x0100\n      exp\n      dup2\n      sload\n      dup2\n      0xff\n      mul\n      not\n      and\n      swap1\n      dup4\n      0x02\n      dup2\n      gt\n      iszero\n      tag_212\n      jumpi\n      tag_213\n      tag_152\n      jump\t// in\n    tag_213:\n    tag_212:\n      mul\n      or\n      swap1\n      sstore\n      pop\n        /* \"src/crowdfunding.sol\":3167:3328  if(campainGoal <= address(this).balance) {\r... */\n      jump(tag_214)\n    tag_211:\n        /* \"src/crowdfunding.sol\":3300:3316  Estado.Cancelada */\n      0x01\n        /* \"src/crowdfunding.sol\":3284:3297  campainEstado */\n      0x03\n      0x00\n        /* \"src/crowdfunding.sol\":3284:3316  campainEstado = Estado.Cancelada */\n      0x0100\n      exp\n      dup2\n      sload\n      dup2\n      0xff\n      mul\n      not\n      and\n      swap1\n      dup4\n      0x02\n      dup2\n      gt\n      iszero\n      tag_215\n      jumpi\n      tag_216\n      tag_152\n      jump\t// in\n    tag_216:\n    tag_215:\n      mul\n      or\n      swap1\n      sstore\n      pop\n        /* \"src/crowdfunding.sol\":3167:3328  if(campainGoal <= address(this).balance) {\r... */\n    tag_214:\n        /* \"src/crowdfunding.sol\":2903:3335  function finalizarCampain() public  {\r... */\n      jump\t// out\n        /* \"src/crowdfunding.sol\":425:455  address[] public participantes */\n    tag_95:\n      0x07\n      dup2\n      dup2\n      sload\n      dup2\n      lt\n      tag_217\n      jumpi\n      0x00\n      dup1\n      revert\n    tag_217:\n      swap1\n      0x00\n      mstore\n      keccak256(0x00, 0x20)\n      add\n      0x00\n      swap2\n      pop\n      sload\n      swap1\n      0x0100\n      exp\n      swap1\n      div\n      0xffffffffffffffffffffffffffffffffffffffff\n      and\n      dup2\n      jump\t// out\n        /* \"src/crowdfunding.sol\":368:418  mapping(address => uint256) public participaciones */\n    tag_101:\n      mstore(0x20, 0x06)\n      dup1\n      0x00\n      mstore\n      keccak256(0x00, 0x40)\n      0x00\n      swap2\n      pop\n      swap1\n      pop\n      sload\n      dup2\n      jump\t// out\n        /* \"src/crowdfunding.sol\":2792:2897  function getParticipantes() public view returns(address[] memory) {\r... */\n    tag_105:\n        /* \"src/crowdfunding.sol\":2840:2856  address[] memory */\n      0x60\n        /* \"src/crowdfunding.sol\":2876:2889  participantes */\n      0x07\n        /* \"src/crowdfunding.sol\":2869:2889  return participantes */\n      dup1\n      sload\n      dup1\n      0x20\n      mul\n      0x20\n      add\n      mload(0x40)\n      swap1\n      dup2\n      add\n      0x40\n      mstore\n      dup1\n      swap3\n      swap2\n      swap1\n      dup2\n      dup2\n      mstore\n      0x20\n      add\n      dup3\n      dup1\n      sload\n      dup1\n      iszero\n      tag_220\n      jumpi\n      0x20\n      mul\n      dup3\n      add\n      swap2\n      swap1\n      0x00\n      mstore\n      keccak256(0x00, 0x20)\n      swap1\n    tag_221:\n      dup2\n      0x00\n      swap1\n      sload\n      swap1\n      0x0100\n      exp\n      swap1\n      div\n      0xffffffffffffffffffffffffffffffffffffffff\n      and\n      0xffffffffffffffffffffffffffffffffffffffff\n      and\n      dup2\n      mstore\n      0x20\n      add\n      swap1\n      0x01\n      add\n      swap1\n      dup1\n      dup4\n      gt\n      tag_221\n      jumpi\n    tag_220:\n      pop\n      pop\n      pop\n      pop\n      pop\n      swap1\n      pop\n        /* \"src/crowdfunding.sol\":2792:2897  function getParticipantes() public view returns(address[] memory) {\r... */\n      swap1\n      jump\t// out\n        /* \"src/crowdfunding.sol\":6093:6522  function getDetailPeticionGastobyId(uint index) public  view returns(string memory,uint, bool){\r... */\n    tag_111:\n        /* \"src/crowdfunding.sol\":6162:6175  string memory */\n      0x60\n        /* \"src/crowdfunding.sol\":6176:6180  uint */\n      0x00\n        /* \"src/crowdfunding.sol\":6182:6186  bool */\n      dup1\n        /* \"src/crowdfunding.sol\":6214:6236  totalPeticionesDeGasto */\n      sload(0x0a)\n        /* \"src/crowdfunding.sol\":6206:6211  index */\n      dup5\n        /* \"src/crowdfunding.sol\":6206:6236  index < totalPeticionesDeGasto */\n      lt\n        /* \"src/crowdfunding.sol\":6198:6263  require(index < totalPeticionesDeGasto, \"peticion inexistentre\" ) */\n      tag_223\n      jumpi\n      mload(0x40)\n      0x08c379a000000000000000000000000000000000000000000000000000000000\n      dup2\n      mstore\n      0x04\n      add\n      tag_224\n      swap1\n      tag_225\n      jump\t// in\n    tag_224:\n      mload(0x40)\n      dup1\n      swap2\n      sub\n      swap1\n      revert\n    tag_223:\n        /* \"src/crowdfunding.sol\":6274:6287  bool aprobada */\n      0x00\n        /* \"src/crowdfunding.sol\":6346:6369  EstadoPeticion.Aprobada */\n      0x01\n        /* \"src/crowdfunding.sol\":6311:6369  peticionesDeGasto[index].estado == EstadoPeticion.Aprobada */\n      0x02\n      dup2\n      gt\n      iszero\n      tag_226\n      jumpi\n      tag_227\n      tag_152\n      jump\t// in\n    tag_227:\n    tag_226:\n        /* \"src/crowdfunding.sol\":6311:6328  peticionesDeGasto */\n      0x09\n        /* \"src/crowdfunding.sol\":6311:6335  peticionesDeGasto[index] */\n      0x00\n        /* \"src/crowdfunding.sol\":6329:6334  index */\n      dup8\n        /* \"src/crowdfunding.sol\":6311:6335  peticionesDeGasto[index] */\n      dup2\n      mstore\n      0x20\n      add\n      swap1\n      dup2\n      mstore\n      0x20\n      add\n      0x00\n      keccak256\n        /* \"src/crowdfunding.sol\":6311:6342  peticionesDeGasto[index].estado */\n      0x01\n      add\n      0x00\n      swap1\n      sload\n      swap1\n      0x0100\n      exp\n      swap1\n      div\n      0xff\n      and\n        /* \"src/crowdfunding.sol\":6311:6369  peticionesDeGasto[index].estado == EstadoPeticion.Aprobada */\n      0x02\n      dup2\n      gt\n      iszero\n      tag_228\n      jumpi\n      tag_229\n      tag_152\n      jump\t// in\n    tag_229:\n    tag_228:\n      eq\n        /* \"src/crowdfunding.sol\":6308:6390  if(peticionesDeGasto[index].estado == EstadoPeticion.Aprobada) {aprobada = true; } */\n      iszero\n      tag_230\n      jumpi\n        /* \"src/crowdfunding.sol\":6383:6387  true */\n      0x01\n        /* \"src/crowdfunding.sol\":6372:6387  aprobada = true */\n      swap1\n      pop\n        /* \"src/crowdfunding.sol\":6308:6390  if(peticionesDeGasto[index].estado == EstadoPeticion.Aprobada) {aprobada = true; } */\n    tag_230:\n        /* \"src/crowdfunding.sol\":6402:6426  PeticionGasto storage pt */\n      0x00\n        /* \"src/crowdfunding.sol\":6429:6446  peticionesDeGasto */\n      0x09\n        /* \"src/crowdfunding.sol\":6429:6453  peticionesDeGasto[index] */\n      0x00\n        /* \"src/crowdfunding.sol\":6447:6452  index */\n      dup8\n        /* \"src/crowdfunding.sol\":6429:6453  peticionesDeGasto[index] */\n      dup2\n      mstore\n      0x20\n      add\n      swap1\n      dup2\n      mstore\n      0x20\n      add\n      0x00\n      keccak256\n        /* \"src/crowdfunding.sol\":6402:6453  PeticionGasto storage pt = peticionesDeGasto[index] */\n      swap1\n      pop\n        /* \"src/crowdfunding.sol\":6474:6476  pt */\n      dup1\n        /* \"src/crowdfunding.sol\":6474:6492  pt.detallePeticion */\n      0x00\n      add\n        /* \"src/crowdfunding.sol\":6493:6495  pt */\n      dup2\n        /* \"src/crowdfunding.sol\":6493:6503  pt.importe */\n      0x02\n      add\n      sload\n        /* \"src/crowdfunding.sol\":6504:6512  aprobada */\n      dup4\n        /* \"src/crowdfunding.sol\":6466:6514  return (pt.detallePeticion,pt.importe,aprobada ) */\n      dup3\n      dup1\n      sload\n      tag_231\n      swap1\n      tag_167\n      jump\t// in\n    tag_231:\n      dup1\n      0x1f\n      add\n      0x20\n      dup1\n      swap2\n      div\n      mul\n      0x20\n      add\n      mload(0x40)\n      swap1\n      dup2\n      add\n      0x40\n      mstore\n      dup1\n      swap3\n      swap2\n      swap1\n      dup2\n      dup2\n      mstore\n      0x20\n      add\n      dup3\n      dup1\n      sload\n      tag_232\n      swap1\n      tag_167\n      jump\t// in\n    tag_232:\n      dup1\n      iszero\n      tag_233\n      jumpi\n      dup1\n      0x1f\n      lt\n      tag_234\n      jumpi\n      0x0100\n      dup1\n      dup4\n      sload\n      div\n      mul\n      dup4\n      mstore\n      swap2\n      0x20\n      add\n      swap2\n      jump(tag_233)\n    tag_234:\n      dup3\n      add\n      swap2\n      swap1\n      0x00\n      mstore\n      keccak256(0x00, 0x20)\n      swap1\n    tag_235:\n      dup2\n      sload\n      dup2\n      mstore\n      swap1\n      0x01\n      add\n      swap1\n      0x20\n      add\n      dup1\n      dup4\n      gt\n      tag_235\n      jumpi\n      dup3\n      swap1\n      sub\n      0x1f\n      and\n      dup3\n      add\n      swap2\n    tag_233:\n      pop\n      pop\n      pop\n      pop\n      pop\n      swap3\n      pop\n      swap5\n      pop\n      swap5\n      pop\n      swap5\n      pop\n      pop\n      pop\n        /* \"src/crowdfunding.sol\":6093:6522  function getDetailPeticionGastobyId(uint index) public  view returns(string memory,uint, bool){\r... */\n      swap2\n      swap4\n      swap1\n      swap3\n      pop\n      jump\t// out\n        /* \"src/crowdfunding.sol\":329:361  uint256 public participationRate */\n    tag_117:\n      sload(0x05)\n      dup2\n      jump\t// out\n        /* \"src/crowdfunding.sol\":2678:2786  function getTotalParticipantes() public view returns(uint256) {\r... */\n    tag_121:\n        /* \"src/crowdfunding.sol\":2731:2738  uint256 */\n      0x00\n        /* \"src/crowdfunding.sol\":2758:2771  participantes */\n      0x07\n        /* \"src/crowdfunding.sol\":2758:2778  participantes.length */\n      dup1\n      sload\n      swap1\n      pop\n        /* \"src/crowdfunding.sol\":2751:2778  return participantes.length */\n      swap1\n      pop\n        /* \"src/crowdfunding.sol\":2678:2786  function getTotalParticipantes() public view returns(uint256) {\r... */\n      swap1\n      jump\t// out\n        /* \"src/crowdfunding.sol\":225:257  string public campainDescription */\n    tag_125:\n      0x02\n      dup1\n      sload\n      tag_237\n      swap1\n      tag_167\n      jump\t// in\n    tag_237:\n      dup1\n      0x1f\n      add\n      0x20\n      dup1\n      swap2\n      div\n      mul\n      0x20\n      add\n      mload(0x40)\n      swap1\n      dup2\n      add\n      0x40\n      mstore\n      dup1\n      swap3\n      swap2\n      swap1\n      dup2\n      dup2\n      mstore\n      0x20\n      add\n      dup3\n      dup1\n      sload\n      tag_238\n      swap1\n      tag_167\n      jump\t// in\n    tag_238:\n      dup1\n      iszero\n      tag_239\n      jumpi\n      dup1\n      0x1f\n      lt\n      tag_240\n      jumpi\n      0x0100\n      dup1\n      dup4\n      sload\n      div\n      mul\n      dup4\n      mstore\n      swap2\n      0x20\n      add\n      swap2\n      jump(tag_239)\n    tag_240:\n      dup3\n      add\n      swap2\n      swap1\n      0x00\n      mstore\n      keccak256(0x00, 0x20)\n      swap1\n    tag_241:\n      dup2\n      sload\n      dup2\n      mstore\n      swap1\n      0x01\n      add\n      swap1\n      0x20\n      add\n      dup1\n      dup4\n      gt\n      tag_241\n      jumpi\n      dup3\n      swap1\n      sub\n      0x1f\n      and\n      dup3\n      add\n      swap2\n    tag_239:\n      pop\n      pop\n      pop\n      pop\n      pop\n      dup2\n      jump\t// out\n        /* \"src/crowdfunding.sol\":5296:6087  function getPeticionesGastoAbiertas() public view returns(uint[] memory) {\r... */\n    tag_129:\n        /* \"src/crowdfunding.sol\":5354:5367  uint[] memory */\n      0x60\n        /* \"src/crowdfunding.sol\":5380:5420  uint[] memory peticionesGastoAbiertasAux */\n      0x00\n        /* \"src/crowdfunding.sol\":5434:5456  totalPeticionesDeGasto */\n      sload(0x0a)\n        /* \"src/crowdfunding.sol\":5423:5457  new uint[](totalPeticionesDeGasto) */\n      0xffffffffffffffff\n      dup2\n      gt\n      iszero\n      tag_243\n      jumpi\n      tag_244\n      tag_245\n      jump\t// in\n    tag_244:\n    tag_243:\n      mload(0x40)\n      swap1\n      dup1\n      dup3\n      mstore\n      dup1\n      0x20\n      mul\n      0x20\n      add\n      dup3\n      add\n      0x40\n      mstore\n      dup1\n      iszero\n      tag_246\n      jumpi\n      dup2\n      0x20\n      add\n      0x20\n      dup3\n      mul\n      dup1\n      calldatasize\n      dup4\n      calldatacopy\n      dup1\n      dup3\n      add\n      swap2\n      pop\n      pop\n      swap1\n      pop\n    tag_246:\n      pop\n        /* \"src/crowdfunding.sol\":5380:5457  uint[] memory peticionesGastoAbiertasAux = new uint[](totalPeticionesDeGasto) */\n      swap1\n      pop\n        /* \"src/crowdfunding.sol\":5468:5481  uint cantidad */\n      0x00\n        /* \"src/crowdfunding.sol\":5502:5508  uint i */\n      dup1\n        /* \"src/crowdfunding.sol\":5498:5734  for(uint i = 0; i < totalPeticionesDeGasto; i++){\r... */\n    tag_247:\n        /* \"src/crowdfunding.sol\":5518:5540  totalPeticionesDeGasto */\n      sload(0x0a)\n        /* \"src/crowdfunding.sol\":5514:5515  i */\n      dup2\n        /* \"src/crowdfunding.sol\":5514:5540  i < totalPeticionesDeGasto */\n      lt\n        /* \"src/crowdfunding.sol\":5498:5734  for(uint i = 0; i < totalPeticionesDeGasto; i++){\r... */\n      iszero\n      tag_248\n      jumpi\n        /* \"src/crowdfunding.sol\":5595:5617  EstadoPeticion.Abierta */\n      0x00\n        /* \"src/crowdfunding.sol\":5564:5617  peticionesDeGasto[i].estado == EstadoPeticion.Abierta */\n      0x02\n      dup2\n      gt\n      iszero\n      tag_250\n      jumpi\n      tag_251\n      tag_152\n      jump\t// in\n    tag_251:\n    tag_250:\n        /* \"src/crowdfunding.sol\":5564:5581  peticionesDeGasto */\n      0x09\n        /* \"src/crowdfunding.sol\":5564:5584  peticionesDeGasto[i] */\n      0x00\n        /* \"src/crowdfunding.sol\":5582:5583  i */\n      dup4\n        /* \"src/crowdfunding.sol\":5564:5584  peticionesDeGasto[i] */\n      dup2\n      mstore\n      0x20\n      add\n      swap1\n      dup2\n      mstore\n      0x20\n      add\n      0x00\n      keccak256\n        /* \"src/crowdfunding.sol\":5564:5591  peticionesDeGasto[i].estado */\n      0x01\n      add\n      0x00\n      swap1\n      sload\n      swap1\n      0x0100\n      exp\n      swap1\n      div\n      0xff\n      and\n        /* \"src/crowdfunding.sol\":5564:5617  peticionesDeGasto[i].estado == EstadoPeticion.Abierta */\n      0x02\n      dup2\n      gt\n      iszero\n      tag_252\n      jumpi\n      tag_253\n      tag_152\n      jump\t// in\n    tag_253:\n    tag_252:\n      eq\n        /* \"src/crowdfunding.sol\":5561:5723  if(peticionesDeGasto[i].estado == EstadoPeticion.Abierta) {\r... */\n      iszero\n      tag_254\n      jumpi\n        /* \"src/crowdfunding.sol\":5677:5678  i */\n      dup1\n        /* \"src/crowdfunding.sol\":5638:5664  peticionesGastoAbiertasAux */\n      dup4\n        /* \"src/crowdfunding.sol\":5665:5673  cantidad */\n      dup4\n        /* \"src/crowdfunding.sol\":5638:5674  peticionesGastoAbiertasAux[cantidad] */\n      dup2\n      mload\n      dup2\n      lt\n      tag_255\n      jumpi\n      tag_256\n      tag_257\n      jump\t// in\n    tag_256:\n    tag_255:\n      0x20\n      mul\n      0x20\n      add\n      add\n        /* \"src/crowdfunding.sol\":5638:5678  peticionesGastoAbiertasAux[cantidad] = i */\n      dup2\n      dup2\n      mstore\n      pop\n      pop\n        /* \"src/crowdfunding.sol\":5697:5707  cantidad++ */\n      dup2\n      dup1\n      tag_258\n      swap1\n      tag_259\n      jump\t// in\n    tag_258:\n      swap3\n      pop\n      pop\n        /* \"src/crowdfunding.sol\":5561:5723  if(peticionesDeGasto[i].estado == EstadoPeticion.Abierta) {\r... */\n    tag_254:\n        /* \"src/crowdfunding.sol\":5542:5545  i++ */\n      dup1\n      dup1\n      tag_260\n      swap1\n      tag_259\n      jump\t// in\n    tag_260:\n      swap2\n      pop\n      pop\n        /* \"src/crowdfunding.sol\":5498:5734  for(uint i = 0; i < totalPeticionesDeGasto; i++){\r... */\n      jump(tag_247)\n    tag_248:\n      pop\n        /* \"src/crowdfunding.sol\":5846:5883  uint[] memory peticionesGastoAbiertas */\n      0x00\n        /* \"src/crowdfunding.sol\":5898:5906  cantidad */\n      dup2\n        /* \"src/crowdfunding.sol\":5887:5907  new uint[](cantidad) */\n      0xffffffffffffffff\n      dup2\n      gt\n      iszero\n      tag_261\n      jumpi\n      tag_262\n      tag_245\n      jump\t// in\n    tag_262:\n    tag_261:\n      mload(0x40)\n      swap1\n      dup1\n      dup3\n      mstore\n      dup1\n      0x20\n      mul\n      0x20\n      add\n      dup3\n      add\n      0x40\n      mstore\n      dup1\n      iszero\n      tag_263\n      jumpi\n      dup2\n      0x20\n      add\n      0x20\n      dup3\n      mul\n      dup1\n      calldatasize\n      dup4\n      calldatacopy\n      dup1\n      dup3\n      add\n      swap2\n      pop\n      pop\n      swap1\n      pop\n    tag_263:\n      pop\n        /* \"src/crowdfunding.sol\":5846:5907  uint[] memory peticionesGastoAbiertas  = new uint[](cantidad) */\n      swap1\n      pop\n        /* \"src/crowdfunding.sol\":5922:5928  uint i */\n      0x00\n        /* \"src/crowdfunding.sol\":5918:6037  for(uint i = 0; i < cantidad; i++){\r... */\n    tag_264:\n        /* \"src/crowdfunding.sol\":5938:5946  cantidad */\n      dup3\n        /* \"src/crowdfunding.sol\":5934:5935  i */\n      dup2\n        /* \"src/crowdfunding.sol\":5934:5946  i < cantidad */\n      lt\n        /* \"src/crowdfunding.sol\":5918:6037  for(uint i = 0; i < cantidad; i++){\r... */\n      iszero\n      tag_265\n      jumpi\n        /* \"src/crowdfunding.sol\":5996:6022  peticionesGastoAbiertasAux */\n      dup4\n        /* \"src/crowdfunding.sol\":6023:6024  i */\n      dup2\n        /* \"src/crowdfunding.sol\":5996:6025  peticionesGastoAbiertasAux[i] */\n      dup2\n      mload\n      dup2\n      lt\n      tag_267\n      jumpi\n      tag_268\n      tag_257\n      jump\t// in\n    tag_268:\n    tag_267:\n      0x20\n      mul\n      0x20\n      add\n      add\n      mload\n        /* \"src/crowdfunding.sol\":5967:5990  peticionesGastoAbiertas */\n      dup3\n        /* \"src/crowdfunding.sol\":5991:5992  i */\n      dup3\n        /* \"src/crowdfunding.sol\":5967:5993  peticionesGastoAbiertas[i] */\n      dup2\n      mload\n      dup2\n      lt\n      tag_269\n      jumpi\n      tag_270\n      tag_257\n      jump\t// in\n    tag_270:\n    tag_269:\n      0x20\n      mul\n      0x20\n      add\n      add\n        /* \"src/crowdfunding.sol\":5967:6025  peticionesGastoAbiertas[i] = peticionesGastoAbiertasAux[i] */\n      dup2\n      dup2\n      mstore\n      pop\n      pop\n        /* \"src/crowdfunding.sol\":5948:5951  i++ */\n      dup1\n      dup1\n      tag_271\n      swap1\n      tag_259\n      jump\t// in\n    tag_271:\n      swap2\n      pop\n      pop\n        /* \"src/crowdfunding.sol\":5918:6037  for(uint i = 0; i < cantidad; i++){\r... */\n      jump(tag_264)\n    tag_265:\n      pop\n        /* \"src/crowdfunding.sol\":6056:6079  peticionesGastoAbiertas */\n      dup1\n        /* \"src/crowdfunding.sol\":6049:6079  return peticionesGastoAbiertas */\n      swap4\n      pop\n      pop\n      pop\n      pop\n        /* \"src/crowdfunding.sol\":5296:6087  function getPeticionesGastoAbiertas() public view returns(uint[] memory) {\r... */\n      swap1\n      jump\t// out\n        /* \"src/crowdfunding.sol\":6532:7232  function votarPeticionGasto(uint index, bool aprobar) public {\r... */\n    tag_136:\n        /* \"src/crowdfunding.sol\":6621:6643  totalPeticionesDeGasto */\n      sload(0x0a)\n        /* \"src/crowdfunding.sol\":6613:6618  index */\n      dup3\n        /* \"src/crowdfunding.sol\":6613:6643  index < totalPeticionesDeGasto */\n      lt\n        /* \"src/crowdfunding.sol\":6605:6669  require(index < totalPeticionesDeGasto, \"Peticion inexistente\" ) */\n      tag_273\n      jumpi\n      mload(0x40)\n      0x08c379a000000000000000000000000000000000000000000000000000000000\n      dup2\n      mstore\n      0x04\n      add\n      tag_274\n      swap1\n      tag_275\n      jump\t// in\n    tag_274:\n      mload(0x40)\n      dup1\n      swap2\n      sub\n      swap1\n      revert\n    tag_273:\n        /* \"src/crowdfunding.sol\":6724:6746  EstadoPeticion.Abierta */\n      0x00\n        /* \"src/crowdfunding.sol\":6689:6746  peticionesDeGasto[index].estado == EstadoPeticion.Abierta */\n      0x02\n      dup2\n      gt\n      iszero\n      tag_276\n      jumpi\n      tag_277\n      tag_152\n      jump\t// in\n    tag_277:\n    tag_276:\n        /* \"src/crowdfunding.sol\":6689:6706  peticionesDeGasto */\n      0x09\n        /* \"src/crowdfunding.sol\":6689:6713  peticionesDeGasto[index] */\n      0x00\n        /* \"src/crowdfunding.sol\":6707:6712  index */\n      dup5\n        /* \"src/crowdfunding.sol\":6689:6713  peticionesDeGasto[index] */\n      dup2\n      mstore\n      0x20\n      add\n      swap1\n      dup2\n      mstore\n      0x20\n      add\n      0x00\n      keccak256\n        /* \"src/crowdfunding.sol\":6689:6720  peticionesDeGasto[index].estado */\n      0x01\n      add\n      0x00\n      swap1\n      sload\n      swap1\n      0x0100\n      exp\n      swap1\n      div\n      0xff\n      and\n        /* \"src/crowdfunding.sol\":6689:6746  peticionesDeGasto[index].estado == EstadoPeticion.Abierta */\n      0x02\n      dup2\n      gt\n      iszero\n      tag_278\n      jumpi\n      tag_279\n      tag_152\n      jump\t// in\n    tag_279:\n    tag_278:\n      eq\n        /* \"src/crowdfunding.sol\":6681:6776  require(peticionesDeGasto[index].estado == EstadoPeticion.Abierta,\"Peticion debe estar activa\") */\n      tag_280\n      jumpi\n      mload(0x40)\n      0x08c379a000000000000000000000000000000000000000000000000000000000\n      dup2\n      mstore\n      0x04\n      add\n      tag_281\n      swap1\n      tag_282\n      jump\t// in\n    tag_281:\n      mload(0x40)\n      dup1\n      swap2\n      sub\n      swap1\n      revert\n    tag_280:\n        /* \"src/crowdfunding.sol\":6532:7232  function votarPeticionGasto(uint index, bool aprobar) public {\r... */\n      pop\n      pop\n      jump\t// out\n        /* \"src/crowdfunding.sol\":504:542  uint immutable public CAMPANIN_DUEDATE */\n    tag_139:\n      immutable(\"0x7749cc8014201da2069c21d93ba99c584b6f62d393fde534ed47eac227e31561\")\n      dup2\n      jump\t// out\n        /* \"src/crowdfunding.sol\":4080:5176  function\tcrearPeticionDeGasto(string memory _detalle, uint _importe, address payable _destinatario) public only_manager {\r... */\n    tag_145:\n        /* \"src/crowdfunding.sol\":612:622  msg.sender */\n      caller\n        /* \"src/crowdfunding.sol\":594:622  campainManager == msg.sender */\n      0xffffffffffffffffffffffffffffffffffffffff\n      and\n        /* \"src/crowdfunding.sol\":594:608  campainManager */\n      0x00\n      dup1\n      sload\n      swap1\n      0x0100\n      exp\n      swap1\n      div\n      0xffffffffffffffffffffffffffffffffffffffff\n      and\n        /* \"src/crowdfunding.sol\":594:622  campainManager == msg.sender */\n      0xffffffffffffffffffffffffffffffffffffffff\n      and\n      eq\n        /* \"src/crowdfunding.sol\":586:646  require(campainManager == msg.sender,\"Only Campain manager\") */\n      tag_284\n      jumpi\n      mload(0x40)\n      0x08c379a000000000000000000000000000000000000000000000000000000000\n      dup2\n      mstore\n      0x04\n      add\n      tag_285\n      swap1\n      tag_175\n      jump\t// in\n    tag_285:\n      mload(0x40)\n      dup1\n      swap2\n      sub\n      swap1\n      revert\n    tag_284:\n        /* \"src/crowdfunding.sol\":4228:4249  address(this).balance */\n      selfbalance\n        /* \"src/crowdfunding.sol\":4216:4224  _importe */\n      dup3\n        /* \"src/crowdfunding.sol\":4216:4249  _importe <= address(this).balance */\n      gt\n      iszero\n        /* \"src/crowdfunding.sol\":4208:4272  require(_importe <= address(this).balance, \"saldo insuficiente\") */\n      tag_287\n      jumpi\n      mload(0x40)\n      0x08c379a000000000000000000000000000000000000000000000000000000000\n      dup2\n      mstore\n      0x04\n      add\n      tag_288\n      swap1\n      tag_289\n      jump\t// in\n    tag_288:\n      mload(0x40)\n      dup1\n      swap2\n      sub\n      swap1\n      revert\n    tag_287:\n        /* \"src/crowdfunding.sol\":4313:4314  0 */\n      0x00\n        /* \"src/crowdfunding.sol\":4288:4315  _destinatario != address(0) */\n      0xffffffffffffffffffffffffffffffffffffffff\n      and\n        /* \"src/crowdfunding.sol\":4288:4301  _destinatario */\n      dup2\n        /* \"src/crowdfunding.sol\":4288:4315  _destinatario != address(0) */\n      0xffffffffffffffffffffffffffffffffffffffff\n      and\n      eq\n      iszero\n        /* \"src/crowdfunding.sol\":4280:4316  require(_destinatario != address(0)) */\n      tag_290\n      jumpi\n      0x00\n      dup1\n      revert\n    tag_290:\n        /* \"src/crowdfunding.sol\":4710:4740  PeticionGasto storage peticion */\n      0x00\n        /* \"src/crowdfunding.sol\":4743:4760  peticionesDeGasto */\n      0x09\n        /* \"src/crowdfunding.sol\":4743:4784  peticionesDeGasto[totalPeticionesDeGasto] */\n      0x00\n        /* \"src/crowdfunding.sol\":4761:4783  totalPeticionesDeGasto */\n      sload(0x0a)\n        /* \"src/crowdfunding.sol\":4743:4784  peticionesDeGasto[totalPeticionesDeGasto] */\n      dup2\n      mstore\n      0x20\n      add\n      swap1\n      dup2\n      mstore\n      0x20\n      add\n      0x00\n      keccak256\n        /* \"src/crowdfunding.sol\":4710:4784  PeticionGasto storage peticion = peticionesDeGasto[totalPeticionesDeGasto] */\n      swap1\n      pop\n        /* \"src/crowdfunding.sol\":4821:4829  _detalle */\n      dup4\n        /* \"src/crowdfunding.sol\":4795:4803  peticion */\n      dup2\n        /* \"src/crowdfunding.sol\":4795:4819  peticion.detallePeticion */\n      0x00\n      add\n        /* \"src/crowdfunding.sol\":4795:4829  peticion.detallePeticion =_detalle */\n      swap1\n      dup1\n      mload\n      swap1\n      0x20\n      add\n      swap1\n      tag_291\n      swap3\n      swap2\n      swap1\n      tag_292\n      jump\t// in\n    tag_291:\n      pop\n        /* \"src/crowdfunding.sol\":4859:4881  EstadoPeticion.Abierta */\n      0x00\n        /* \"src/crowdfunding.sol\":4841:4849  peticion */\n      dup2\n        /* \"src/crowdfunding.sol\":4841:4856  peticion.estado */\n      0x01\n      add\n      0x00\n        /* \"src/crowdfunding.sol\":4841:4881  peticion.estado = EstadoPeticion.Abierta */\n      0x0100\n      exp\n      dup2\n      sload\n      dup2\n      0xff\n      mul\n      not\n      and\n      swap1\n      dup4\n      0x02\n      dup2\n      gt\n      iszero\n      tag_293\n      jumpi\n      tag_294\n      tag_152\n      jump\t// in\n    tag_294:\n    tag_293:\n      mul\n      or\n      swap1\n      sstore\n      pop\n        /* \"src/crowdfunding.sol\":4911:4919  _importe */\n      dup3\n        /* \"src/crowdfunding.sol\":4892:4900  peticion */\n      dup2\n        /* \"src/crowdfunding.sol\":4892:4908  peticion.importe */\n      0x02\n      add\n        /* \"src/crowdfunding.sol\":4892:4919  peticion.importe = _importe */\n      dup2\n      swap1\n      sstore\n      pop\n        /* \"src/crowdfunding.sol\":4960:4973  _destinatario */\n      dup2\n        /* \"src/crowdfunding.sol\":4930:4938  peticion */\n      dup2\n        /* \"src/crowdfunding.sol\":4930:4957  peticion.walletDestinatario */\n      0x03\n      add\n      0x00\n        /* \"src/crowdfunding.sol\":4930:4973  peticion.walletDestinatario = _destinatario */\n      0x0100\n      exp\n      dup2\n      sload\n      dup2\n      0xffffffffffffffffffffffffffffffffffffffff\n      mul\n      not\n      and\n      swap1\n      dup4\n      0xffffffffffffffffffffffffffffffffffffffff\n      and\n      mul\n      or\n      swap1\n      sstore\n      pop\n        /* \"src/crowdfunding.sol\":5077:5136  NuevaPeticionGasto(totalPeticionesDeGasto, block.timestamp) */\n      0x8a9eef508655ba905fac3270e36d1f3410a7101b0b7fe80cc755b4a0c26a71a5\n        /* \"src/crowdfunding.sol\":5096:5118  totalPeticionesDeGasto */\n      sload(0x0a)\n        /* \"src/crowdfunding.sol\":5120:5135  block.timestamp */\n      timestamp\n        /* \"src/crowdfunding.sol\":5077:5136  NuevaPeticionGasto(totalPeticionesDeGasto, block.timestamp) */\n      mload(0x40)\n      tag_295\n      swap3\n      swap2\n      swap1\n      tag_296\n      jump\t// in\n    tag_295:\n      mload(0x40)\n      dup1\n      swap2\n      sub\n      swap1\n      log1\n        /* \"src/crowdfunding.sol\":5147:5169  totalPeticionesDeGasto */\n      0x0a\n      0x00\n        /* \"src/crowdfunding.sol\":5147:5171  totalPeticionesDeGasto++ */\n      dup2\n      sload\n      dup1\n      swap3\n      swap2\n      swap1\n      tag_297\n      swap1\n      tag_259\n      jump\t// in\n    tag_297:\n      swap2\n      swap1\n      pop\n      sstore\n      pop\n        /* \"src/crowdfunding.sol\":4200:5176  {\r... */\n      pop\n        /* \"src/crowdfunding.sol\":4080:5176  function\tcrearPeticionDeGasto(string memory _detalle, uint _importe, address payable _destinatario) public only_manager {\r... */\n      pop\n      pop\n      pop\n      jump\t// out\n    tag_292:\n      dup3\n      dup1\n      sload\n      tag_298\n      swap1\n      tag_167\n      jump\t// in\n    tag_298:\n      swap1\n      0x00\n      mstore\n      keccak256(0x00, 0x20)\n      swap1\n      0x1f\n      add\n      0x20\n      swap1\n      div\n      dup2\n      add\n      swap3\n      dup3\n      tag_300\n      jumpi\n      0x00\n      dup6\n      sstore\n      jump(tag_299)\n    tag_300:\n      dup3\n      0x1f\n      lt\n      tag_301\n      jumpi\n      dup1\n      mload\n      not(0xff)\n      and\n      dup4\n      dup1\n      add\n      or\n      dup6\n      sstore\n      jump(tag_299)\n    tag_301:\n      dup3\n      dup1\n      add\n      0x01\n      add\n      dup6\n      sstore\n      dup3\n      iszero\n      tag_299\n      jumpi\n      swap2\n      dup3\n      add\n    tag_302:\n      dup3\n      dup2\n      gt\n      iszero\n      tag_303\n      jumpi\n      dup3\n      mload\n      dup3\n      sstore\n      swap2\n      0x20\n      add\n      swap2\n      swap1\n      0x01\n      add\n      swap1\n      jump(tag_302)\n    tag_303:\n    tag_299:\n      pop\n      swap1\n      pop\n      tag_304\n      swap2\n      swap1\n      tag_305\n      jump\t// in\n    tag_304:\n      pop\n      swap1\n      jump\t// out\n    tag_305:\n    tag_306:\n      dup1\n      dup3\n      gt\n      iszero\n      tag_307\n      jumpi\n      0x00\n      dup2\n      0x00\n      swap1\n      sstore\n      pop\n      0x01\n      add\n      jump(tag_306)\n    tag_307:\n      pop\n      swap1\n      jump\t// out\n        /* \"#utility.yul\":7:419   */\n    tag_309:\n        /* \"#utility.yul\":85:90   */\n      0x00\n        /* \"#utility.yul\":110:176   */\n      tag_311\n        /* \"#utility.yul\":126:175   */\n      tag_312\n        /* \"#utility.yul\":168:174   */\n      dup5\n        /* \"#utility.yul\":126:175   */\n      tag_313\n      jump\t// in\n    tag_312:\n        /* \"#utility.yul\":110:176   */\n      tag_314\n      jump\t// in\n    tag_311:\n        /* \"#utility.yul\":101:176   */\n      swap1\n      pop\n        /* \"#utility.yul\":199:205   */\n      dup3\n        /* \"#utility.yul\":192:197   */\n      dup2\n        /* \"#utility.yul\":185:206   */\n      mstore\n        /* \"#utility.yul\":237:241   */\n      0x20\n        /* \"#utility.yul\":230:235   */\n      dup2\n        /* \"#utility.yul\":226:242   */\n      add\n        /* \"#utility.yul\":275:278   */\n      dup5\n        /* \"#utility.yul\":266:272   */\n      dup5\n        /* \"#utility.yul\":261:264   */\n      dup5\n        /* \"#utility.yul\":257:273   */\n      add\n        /* \"#utility.yul\":254:279   */\n      gt\n        /* \"#utility.yul\":251:363   */\n      iszero\n      tag_315\n      jumpi\n        /* \"#utility.yul\":282:361   */\n      tag_316\n      tag_317\n      jump\t// in\n    tag_316:\n        /* \"#utility.yul\":251:363   */\n    tag_315:\n        /* \"#utility.yul\":372:413   */\n      tag_318\n        /* \"#utility.yul\":406:412   */\n      dup5\n        /* \"#utility.yul\":401:404   */\n      dup3\n        /* \"#utility.yul\":396:399   */\n      dup6\n        /* \"#utility.yul\":372:413   */\n      tag_319\n      jump\t// in\n    tag_318:\n        /* \"#utility.yul\":91:419   */\n      pop\n        /* \"#utility.yul\":7:419   */\n      swap4\n      swap3\n      pop\n      pop\n      pop\n      jump\t// out\n        /* \"#utility.yul\":425:564   */\n    tag_320:\n        /* \"#utility.yul\":471:476   */\n      0x00\n        /* \"#utility.yul\":509:515   */\n      dup2\n        /* \"#utility.yul\":496:516   */\n      calldataload\n        /* \"#utility.yul\":487:516   */\n      swap1\n      pop\n        /* \"#utility.yul\":525:558   */\n      tag_322\n        /* \"#utility.yul\":552:557   */\n      dup2\n        /* \"#utility.yul\":525:558   */\n      tag_323\n      jump\t// in\n    tag_322:\n        /* \"#utility.yul\":425:564   */\n      swap3\n      swap2\n      pop\n      pop\n      jump\t// out\n        /* \"#utility.yul\":570:725   */\n    tag_324:\n        /* \"#utility.yul\":624:629   */\n      0x00\n        /* \"#utility.yul\":662:668   */\n      dup2\n        /* \"#utility.yul\":649:669   */\n      calldataload\n        /* \"#utility.yul\":640:669   */\n      swap1\n      pop\n        /* \"#utility.yul\":678:719   */\n      tag_326\n        /* \"#utility.yul\":713:718   */\n      dup2\n        /* \"#utility.yul\":678:719   */\n      tag_327\n      jump\t// in\n    tag_326:\n        /* \"#utility.yul\":570:725   */\n      swap3\n      swap2\n      pop\n      pop\n      jump\t// out\n        /* \"#utility.yul\":731:864   */\n    tag_328:\n        /* \"#utility.yul\":774:779   */\n      0x00\n        /* \"#utility.yul\":812:818   */\n      dup2\n        /* \"#utility.yul\":799:819   */\n      calldataload\n        /* \"#utility.yul\":790:819   */\n      swap1\n      pop\n        /* \"#utility.yul\":828:858   */\n      tag_330\n        /* \"#utility.yul\":852:857   */\n      dup2\n        /* \"#utility.yul\":828:858   */\n      tag_331\n      jump\t// in\n    tag_330:\n        /* \"#utility.yul\":731:864   */\n      swap3\n      swap2\n      pop\n      pop\n      jump\t// out\n        /* \"#utility.yul\":884:1224   */\n    tag_332:\n        /* \"#utility.yul\":940:945   */\n      0x00\n        /* \"#utility.yul\":989:992   */\n      dup3\n        /* \"#utility.yul\":982:986   */\n      0x1f\n        /* \"#utility.yul\":974:980   */\n      dup4\n        /* \"#utility.yul\":970:987   */\n      add\n        /* \"#utility.yul\":966:993   */\n      slt\n        /* \"#utility.yul\":956:1078   */\n      tag_334\n      jumpi\n        /* \"#utility.yul\":997:1076   */\n      tag_335\n      tag_336\n      jump\t// in\n    tag_335:\n        /* \"#utility.yul\":956:1078   */\n    tag_334:\n        /* \"#utility.yul\":1114:1120   */\n      dup2\n        /* \"#utility.yul\":1101:1121   */\n      calldataload\n        /* \"#utility.yul\":1139:1218   */\n      tag_337\n        /* \"#utility.yul\":1214:1217   */\n      dup5\n        /* \"#utility.yul\":1206:1212   */\n      dup3\n        /* \"#utility.yul\":1199:1203   */\n      0x20\n        /* \"#utility.yul\":1191:1197   */\n      dup7\n        /* \"#utility.yul\":1187:1204   */\n      add\n        /* \"#utility.yul\":1139:1218   */\n      tag_309\n      jump\t// in\n    tag_337:\n        /* \"#utility.yul\":1130:1218   */\n      swap2\n      pop\n        /* \"#utility.yul\":946:1224   */\n      pop\n        /* \"#utility.yul\":884:1224   */\n      swap3\n      swap2\n      pop\n      pop\n      jump\t// out\n        /* \"#utility.yul\":1230:1369   */\n    tag_338:\n        /* \"#utility.yul\":1276:1281   */\n      0x00\n        /* \"#utility.yul\":1314:1320   */\n      dup2\n        /* \"#utility.yul\":1301:1321   */\n      calldataload\n        /* \"#utility.yul\":1292:1321   */\n      swap1\n      pop\n        /* \"#utility.yul\":1330:1363   */\n      tag_340\n        /* \"#utility.yul\":1357:1362   */\n      dup2\n        /* \"#utility.yul\":1330:1363   */\n      tag_341\n      jump\t// in\n    tag_340:\n        /* \"#utility.yul\":1230:1369   */\n      swap3\n      swap2\n      pop\n      pop\n      jump\t// out\n        /* \"#utility.yul\":1375:1704   */\n    tag_59:\n        /* \"#utility.yul\":1434:1440   */\n      0x00\n        /* \"#utility.yul\":1483:1485   */\n      0x20\n        /* \"#utility.yul\":1471:1480   */\n      dup3\n        /* \"#utility.yul\":1462:1469   */\n      dup5\n        /* \"#utility.yul\":1458:1481   */\n      sub\n        /* \"#utility.yul\":1454:1486   */\n      slt\n        /* \"#utility.yul\":1451:1570   */\n      iszero\n      tag_343\n      jumpi\n        /* \"#utility.yul\":1489:1568   */\n      tag_344\n      tag_345\n      jump\t// in\n    tag_344:\n        /* \"#utility.yul\":1451:1570   */\n    tag_343:\n        /* \"#utility.yul\":1609:1610   */\n      0x00\n        /* \"#utility.yul\":1634:1687   */\n      tag_346\n        /* \"#utility.yul\":1679:1686   */\n      dup5\n        /* \"#utility.yul\":1670:1676   */\n      dup3\n        /* \"#utility.yul\":1659:1668   */\n      dup6\n        /* \"#utility.yul\":1655:1677   */\n      add\n        /* \"#utility.yul\":1634:1687   */\n      tag_320\n      jump\t// in\n    tag_346:\n        /* \"#utility.yul\":1624:1687   */\n      swap2\n      pop\n        /* \"#utility.yul\":1580:1697   */\n      pop\n        /* \"#utility.yul\":1375:1704   */\n      swap3\n      swap2\n      pop\n      pop\n      jump\t// out\n        /* \"#utility.yul\":1710:2525   */\n    tag_144:\n        /* \"#utility.yul\":1805:1811   */\n      0x00\n        /* \"#utility.yul\":1813:1819   */\n      dup1\n        /* \"#utility.yul\":1821:1827   */\n      0x00\n        /* \"#utility.yul\":1870:1872   */\n      0x60\n        /* \"#utility.yul\":1858:1867   */\n      dup5\n        /* \"#utility.yul\":1849:1856   */\n      dup7\n        /* \"#utility.yul\":1845:1868   */\n      sub\n        /* \"#utility.yul\":1841:1873   */\n      slt\n        /* \"#utility.yul\":1838:1957   */\n      iszero\n      tag_348\n      jumpi\n        /* \"#utility.yul\":1876:1955   */\n      tag_349\n      tag_345\n      jump\t// in\n    tag_349:\n        /* \"#utility.yul\":1838:1957   */\n    tag_348:\n        /* \"#utility.yul\":2024:2025   */\n      0x00\n        /* \"#utility.yul\":2013:2022   */\n      dup5\n        /* \"#utility.yul\":2009:2026   */\n      add\n        /* \"#utility.yul\":1996:2027   */\n      calldataload\n        /* \"#utility.yul\":2054:2072   */\n      0xffffffffffffffff\n        /* \"#utility.yul\":2046:2052   */\n      dup2\n        /* \"#utility.yul\":2043:2073   */\n      gt\n        /* \"#utility.yul\":2040:2157   */\n      iszero\n      tag_350\n      jumpi\n        /* \"#utility.yul\":2076:2155   */\n      tag_351\n      tag_352\n      jump\t// in\n    tag_351:\n        /* \"#utility.yul\":2040:2157   */\n    tag_350:\n        /* \"#utility.yul\":2181:2244   */\n      tag_353\n        /* \"#utility.yul\":2236:2243   */\n      dup7\n        /* \"#utility.yul\":2227:2233   */\n      dup3\n        /* \"#utility.yul\":2216:2225   */\n      dup8\n        /* \"#utility.yul\":2212:2234   */\n      add\n        /* \"#utility.yul\":2181:2244   */\n      tag_332\n      jump\t// in\n    tag_353:\n        /* \"#utility.yul\":2171:2244   */\n      swap4\n      pop\n        /* \"#utility.yul\":1967:2254   */\n      pop\n        /* \"#utility.yul\":2293:2295   */\n      0x20\n        /* \"#utility.yul\":2319:2372   */\n      tag_354\n        /* \"#utility.yul\":2364:2371   */\n      dup7\n        /* \"#utility.yul\":2355:2361   */\n      dup3\n        /* \"#utility.yul\":2344:2353   */\n      dup8\n        /* \"#utility.yul\":2340:2362   */\n      add\n        /* \"#utility.yul\":2319:2372   */\n      tag_338\n      jump\t// in\n    tag_354:\n        /* \"#utility.yul\":2309:2372   */\n      swap3\n      pop\n        /* \"#utility.yul\":2264:2382   */\n      pop\n        /* \"#utility.yul\":2421:2423   */\n      0x40\n        /* \"#utility.yul\":2447:2508   */\n      tag_355\n        /* \"#utility.yul\":2500:2507   */\n      dup7\n        /* \"#utility.yul\":2491:2497   */\n      dup3\n        /* \"#utility.yul\":2480:2489   */\n      dup8\n        /* \"#utility.yul\":2476:2498   */\n      add\n        /* \"#utility.yul\":2447:2508   */\n      tag_324\n      jump\t// in\n    tag_355:\n        /* \"#utility.yul\":2437:2508   */\n      swap2\n      pop\n        /* \"#utility.yul\":2392:2518   */\n      pop\n        /* \"#utility.yul\":1710:2525   */\n      swap3\n      pop\n      swap3\n      pop\n      swap3\n      jump\t// out\n        /* \"#utility.yul\":2531:2860   */\n    tag_50:\n        /* \"#utility.yul\":2590:2596   */\n      0x00\n        /* \"#utility.yul\":2639:2641   */\n      0x20\n        /* \"#utility.yul\":2627:2636   */\n      dup3\n        /* \"#utility.yul\":2618:2625   */\n      dup5\n        /* \"#utility.yul\":2614:2637   */\n      sub\n        /* \"#utility.yul\":2610:2642   */\n      slt\n        /* \"#utility.yul\":2607:2726   */\n      iszero\n      tag_357\n      jumpi\n        /* \"#utility.yul\":2645:2724   */\n      tag_358\n      tag_345\n      jump\t// in\n    tag_358:\n        /* \"#utility.yul\":2607:2726   */\n    tag_357:\n        /* \"#utility.yul\":2765:2766   */\n      0x00\n        /* \"#utility.yul\":2790:2843   */\n      tag_359\n        /* \"#utility.yul\":2835:2842   */\n      dup5\n        /* \"#utility.yul\":2826:2832   */\n      dup3\n        /* \"#utility.yul\":2815:2824   */\n      dup6\n        /* \"#utility.yul\":2811:2833   */\n      add\n        /* \"#utility.yul\":2790:2843   */\n      tag_338\n      jump\t// in\n    tag_359:\n        /* \"#utility.yul\":2780:2843   */\n      swap2\n      pop\n        /* \"#utility.yul\":2736:2853   */\n      pop\n        /* \"#utility.yul\":2531:2860   */\n      swap3\n      swap2\n      pop\n      pop\n      jump\t// out\n        /* \"#utility.yul\":2866:3334   */\n    tag_135:\n        /* \"#utility.yul\":2931:2937   */\n      0x00\n        /* \"#utility.yul\":2939:2945   */\n      dup1\n        /* \"#utility.yul\":2988:2990   */\n      0x40\n        /* \"#utility.yul\":2976:2985   */\n      dup4\n        /* \"#utility.yul\":2967:2974   */\n      dup6\n        /* \"#utility.yul\":2963:2986   */\n      sub\n        /* \"#utility.yul\":2959:2991   */\n      slt\n        /* \"#utility.yul\":2956:3075   */\n      iszero\n      tag_361\n      jumpi\n        /* \"#utility.yul\":2994:3073   */\n      tag_362\n      tag_345\n      jump\t// in\n    tag_362:\n        /* \"#utility.yul\":2956:3075   */\n    tag_361:\n        /* \"#utility.yul\":3114:3115   */\n      0x00\n        /* \"#utility.yul\":3139:3192   */\n      tag_363\n        /* \"#utility.yul\":3184:3191   */\n      dup6\n        /* \"#utility.yul\":3175:3181   */\n      dup3\n        /* \"#utility.yul\":3164:3173   */\n      dup7\n        /* \"#utility.yul\":3160:3182   */\n      add\n        /* \"#utility.yul\":3139:3192   */\n      tag_338\n      jump\t// in\n    tag_363:\n        /* \"#utility.yul\":3129:3192   */\n      swap3\n      pop\n        /* \"#utility.yul\":3085:3202   */\n      pop\n        /* \"#utility.yul\":3241:3243   */\n      0x20\n        /* \"#utility.yul\":3267:3317   */\n      tag_364\n        /* \"#utility.yul\":3309:3316   */\n      dup6\n        /* \"#utility.yul\":3300:3306   */\n      dup3\n        /* \"#utility.yul\":3289:3298   */\n      dup7\n        /* \"#utility.yul\":3285:3307   */\n      add\n        /* \"#utility.yul\":3267:3317   */\n      tag_328\n      jump\t// in\n    tag_364:\n        /* \"#utility.yul\":3257:3317   */\n      swap2\n      pop\n        /* \"#utility.yul\":3212:3327   */\n      pop\n        /* \"#utility.yul\":2866:3334   */\n      swap3\n      pop\n      swap3\n      swap1\n      pop\n      jump\t// out\n        /* \"#utility.yul\":3340:3519   */\n    tag_365:\n        /* \"#utility.yul\":3409:3419   */\n      0x00\n        /* \"#utility.yul\":3430:3476   */\n      tag_367\n        /* \"#utility.yul\":3472:3475   */\n      dup4\n        /* \"#utility.yul\":3464:3470   */\n      dup4\n        /* \"#utility.yul\":3430:3476   */\n      tag_368\n      jump\t// in\n    tag_367:\n        /* \"#utility.yul\":3508:3512   */\n      0x20\n        /* \"#utility.yul\":3503:3506   */\n      dup4\n        /* \"#utility.yul\":3499:3513   */\n      add\n        /* \"#utility.yul\":3485:3513   */\n      swap1\n      pop\n        /* \"#utility.yul\":3340:3519   */\n      swap3\n      swap2\n      pop\n      pop\n      jump\t// out\n        /* \"#utility.yul\":3525:3704   */\n    tag_369:\n        /* \"#utility.yul\":3594:3604   */\n      0x00\n        /* \"#utility.yul\":3615:3661   */\n      tag_371\n        /* \"#utility.yul\":3657:3660   */\n      dup4\n        /* \"#utility.yul\":3649:3655   */\n      dup4\n        /* \"#utility.yul\":3615:3661   */\n      tag_372\n      jump\t// in\n    tag_371:\n        /* \"#utility.yul\":3693:3697   */\n      0x20\n        /* \"#utility.yul\":3688:3691   */\n      dup4\n        /* \"#utility.yul\":3684:3698   */\n      add\n        /* \"#utility.yul\":3670:3698   */\n      swap1\n      pop\n        /* \"#utility.yul\":3525:3704   */\n      swap3\n      swap2\n      pop\n      pop\n      jump\t// out\n        /* \"#utility.yul\":3710:3852   */\n    tag_373:\n        /* \"#utility.yul\":3813:3845   */\n      tag_375\n        /* \"#utility.yul\":3839:3844   */\n      dup2\n        /* \"#utility.yul\":3813:3845   */\n      tag_376\n      jump\t// in\n    tag_375:\n        /* \"#utility.yul\":3808:3811   */\n      dup3\n        /* \"#utility.yul\":3801:3846   */\n      mstore\n        /* \"#utility.yul\":3710:3852   */\n      pop\n      pop\n      jump\t// out\n        /* \"#utility.yul\":3858:3966   */\n    tag_368:\n        /* \"#utility.yul\":3935:3959   */\n      tag_378\n        /* \"#utility.yul\":3953:3958   */\n      dup2\n        /* \"#utility.yul\":3935:3959   */\n      tag_379\n      jump\t// in\n    tag_378:\n        /* \"#utility.yul\":3930:3933   */\n      dup3\n        /* \"#utility.yul\":3923:3960   */\n      mstore\n        /* \"#utility.yul\":3858:3966   */\n      pop\n      pop\n      jump\t// out\n        /* \"#utility.yul\":3972:4090   */\n    tag_380:\n        /* \"#utility.yul\":4059:4083   */\n      tag_382\n        /* \"#utility.yul\":4077:4082   */\n      dup2\n        /* \"#utility.yul\":4059:4083   */\n      tag_379\n      jump\t// in\n    tag_382:\n        /* \"#utility.yul\":4054:4057   */\n      dup3\n        /* \"#utility.yul\":4047:4084   */\n      mstore\n        /* \"#utility.yul\":3972:4090   */\n      pop\n      pop\n      jump\t// out\n        /* \"#utility.yul\":4126:4858   */\n    tag_383:\n        /* \"#utility.yul\":4245:4248   */\n      0x00\n        /* \"#utility.yul\":4274:4328   */\n      tag_385\n        /* \"#utility.yul\":4322:4327   */\n      dup3\n        /* \"#utility.yul\":4274:4328   */\n      tag_386\n      jump\t// in\n    tag_385:\n        /* \"#utility.yul\":4344:4430   */\n      tag_387\n        /* \"#utility.yul\":4423:4429   */\n      dup2\n        /* \"#utility.yul\":4418:4421   */\n      dup6\n        /* \"#utility.yul\":4344:4430   */\n      tag_388\n      jump\t// in\n    tag_387:\n        /* \"#utility.yul\":4337:4430   */\n      swap4\n      pop\n        /* \"#utility.yul\":4454:4510   */\n      tag_389\n        /* \"#utility.yul\":4504:4509   */\n      dup4\n        /* \"#utility.yul\":4454:4510   */\n      tag_390\n      jump\t// in\n    tag_389:\n        /* \"#utility.yul\":4533:4540   */\n      dup1\n        /* \"#utility.yul\":4564:4565   */\n      0x00\n        /* \"#utility.yul\":4549:4833   */\n    tag_391:\n        /* \"#utility.yul\":4574:4580   */\n      dup4\n        /* \"#utility.yul\":4571:4572   */\n      dup2\n        /* \"#utility.yul\":4568:4581   */\n      lt\n        /* \"#utility.yul\":4549:4833   */\n      iszero\n      tag_393\n      jumpi\n        /* \"#utility.yul\":4650:4656   */\n      dup2\n        /* \"#utility.yul\":4644:4657   */\n      mload\n        /* \"#utility.yul\":4677:4740   */\n      tag_394\n        /* \"#utility.yul\":4736:4739   */\n      dup9\n        /* \"#utility.yul\":4721:4734   */\n      dup3\n        /* \"#utility.yul\":4677:4740   */\n      tag_365\n      jump\t// in\n    tag_394:\n        /* \"#utility.yul\":4670:4740   */\n      swap8\n      pop\n        /* \"#utility.yul\":4763:4823   */\n      tag_395\n        /* \"#utility.yul\":4816:4822   */\n      dup4\n        /* \"#utility.yul\":4763:4823   */\n      tag_396\n      jump\t// in\n    tag_395:\n        /* \"#utility.yul\":4753:4823   */\n      swap3\n      pop\n        /* \"#utility.yul\":4609:4833   */\n      pop\n        /* \"#utility.yul\":4596:4597   */\n      0x01\n        /* \"#utility.yul\":4593:4594   */\n      dup2\n        /* \"#utility.yul\":4589:4598   */\n      add\n        /* \"#utility.yul\":4584:4598   */\n      swap1\n      pop\n        /* \"#utility.yul\":4549:4833   */\n      jump(tag_391)\n    tag_393:\n        /* \"#utility.yul\":4553:4567   */\n      pop\n        /* \"#utility.yul\":4849:4852   */\n      dup6\n        /* \"#utility.yul\":4842:4852   */\n      swap4\n      pop\n        /* \"#utility.yul\":4250:4858   */\n      pop\n      pop\n      pop\n        /* \"#utility.yul\":4126:4858   */\n      swap3\n      swap2\n      pop\n      pop\n      jump\t// out\n        /* \"#utility.yul\":4894:5626   */\n    tag_397:\n        /* \"#utility.yul\":5013:5016   */\n      0x00\n        /* \"#utility.yul\":5042:5096   */\n      tag_399\n        /* \"#utility.yul\":5090:5095   */\n      dup3\n        /* \"#utility.yul\":5042:5096   */\n      tag_400\n      jump\t// in\n    tag_399:\n        /* \"#utility.yul\":5112:5198   */\n      tag_401\n        /* \"#utility.yul\":5191:5197   */\n      dup2\n        /* \"#utility.yul\":5186:5189   */\n      dup6\n        /* \"#utility.yul\":5112:5198   */\n      tag_402\n      jump\t// in\n    tag_401:\n        /* \"#utility.yul\":5105:5198   */\n      swap4\n      pop\n        /* \"#utility.yul\":5222:5278   */\n      tag_403\n        /* \"#utility.yul\":5272:5277   */\n      dup4\n        /* \"#utility.yul\":5222:5278   */\n      tag_404\n      jump\t// in\n    tag_403:\n        /* \"#utility.yul\":5301:5308   */\n      dup1\n        /* \"#utility.yul\":5332:5333   */\n      0x00\n        /* \"#utility.yul\":5317:5601   */\n    tag_405:\n        /* \"#utility.yul\":5342:5348   */\n      dup4\n        /* \"#utility.yul\":5339:5340   */\n      dup2\n        /* \"#utility.yul\":5336:5349   */\n      lt\n        /* \"#utility.yul\":5317:5601   */\n      iszero\n      tag_407\n      jumpi\n        /* \"#utility.yul\":5418:5424   */\n      dup2\n        /* \"#utility.yul\":5412:5425   */\n      mload\n        /* \"#utility.yul\":5445:5508   */\n      tag_408\n        /* \"#utility.yul\":5504:5507   */\n      dup9\n        /* \"#utility.yul\":5489:5502   */\n      dup3\n        /* \"#utility.yul\":5445:5508   */\n      tag_369\n      jump\t// in\n    tag_408:\n        /* \"#utility.yul\":5438:5508   */\n      swap8\n      pop\n        /* \"#utility.yul\":5531:5591   */\n      tag_409\n        /* \"#utility.yul\":5584:5590   */\n      dup4\n        /* \"#utility.yul\":5531:5591   */\n      tag_410\n      jump\t// in\n    tag_409:\n        /* \"#utility.yul\":5521:5591   */\n      swap3\n      pop\n        /* \"#utility.yul\":5377:5601   */\n      pop\n        /* \"#utility.yul\":5364:5365   */\n      0x01\n        /* \"#utility.yul\":5361:5362   */\n      dup2\n        /* \"#utility.yul\":5357:5366   */\n      add\n        /* \"#utility.yul\":5352:5366   */\n      swap1\n      pop\n        /* \"#utility.yul\":5317:5601   */\n      jump(tag_405)\n    tag_407:\n        /* \"#utility.yul\":5321:5335   */\n      pop\n        /* \"#utility.yul\":5617:5620   */\n      dup6\n        /* \"#utility.yul\":5610:5620   */\n      swap4\n      pop\n        /* \"#utility.yul\":5018:5626   */\n      pop\n      pop\n      pop\n        /* \"#utility.yul\":4894:5626   */\n      swap3\n      swap2\n      pop\n      pop\n      jump\t// out\n        /* \"#utility.yul\":5632:5741   */\n    tag_411:\n        /* \"#utility.yul\":5713:5734   */\n      tag_413\n        /* \"#utility.yul\":5728:5733   */\n      dup2\n        /* \"#utility.yul\":5713:5734   */\n      tag_414\n      jump\t// in\n    tag_413:\n        /* \"#utility.yul\":5708:5711   */\n      dup3\n        /* \"#utility.yul\":5701:5735   */\n      mstore\n        /* \"#utility.yul\":5632:5741   */\n      pop\n      pop\n      jump\t// out\n        /* \"#utility.yul\":5747:5908   */\n    tag_415:\n        /* \"#utility.yul\":5849:5901   */\n      tag_417\n        /* \"#utility.yul\":5895:5900   */\n      dup2\n        /* \"#utility.yul\":5849:5901   */\n      tag_418\n      jump\t// in\n    tag_417:\n        /* \"#utility.yul\":5844:5847   */\n      dup3\n        /* \"#utility.yul\":5837:5902   */\n      mstore\n        /* \"#utility.yul\":5747:5908   */\n      pop\n      pop\n      jump\t// out\n        /* \"#utility.yul\":5914:6057   */\n    tag_419:\n        /* \"#utility.yul\":6007:6050   */\n      tag_421\n        /* \"#utility.yul\":6044:6049   */\n      dup2\n        /* \"#utility.yul\":6007:6050   */\n      tag_422\n      jump\t// in\n    tag_421:\n        /* \"#utility.yul\":6002:6005   */\n      dup3\n        /* \"#utility.yul\":5995:6051   */\n      mstore\n        /* \"#utility.yul\":5914:6057   */\n      pop\n      pop\n      jump\t// out\n        /* \"#utility.yul\":6063:6427   */\n    tag_423:\n        /* \"#utility.yul\":6151:6154   */\n      0x00\n        /* \"#utility.yul\":6179:6218   */\n      tag_425\n        /* \"#utility.yul\":6212:6217   */\n      dup3\n        /* \"#utility.yul\":6179:6218   */\n      tag_426\n      jump\t// in\n    tag_425:\n        /* \"#utility.yul\":6234:6305   */\n      tag_427\n        /* \"#utility.yul\":6298:6304   */\n      dup2\n        /* \"#utility.yul\":6293:6296   */\n      dup6\n        /* \"#utility.yul\":6234:6305   */\n      tag_428\n      jump\t// in\n    tag_427:\n        /* \"#utility.yul\":6227:6305   */\n      swap4\n      pop\n        /* \"#utility.yul\":6314:6366   */\n      tag_429\n        /* \"#utility.yul\":6359:6365   */\n      dup2\n        /* \"#utility.yul\":6354:6357   */\n      dup6\n        /* \"#utility.yul\":6347:6351   */\n      0x20\n        /* \"#utility.yul\":6340:6345   */\n      dup7\n        /* \"#utility.yul\":6336:6352   */\n      add\n        /* \"#utility.yul\":6314:6366   */\n      tag_430\n      jump\t// in\n    tag_429:\n        /* \"#utility.yul\":6391:6420   */\n      tag_431\n        /* \"#utility.yul\":6413:6419   */\n      dup2\n        /* \"#utility.yul\":6391:6420   */\n      tag_432\n      jump\t// in\n    tag_431:\n        /* \"#utility.yul\":6386:6389   */\n      dup5\n        /* \"#utility.yul\":6382:6421   */\n      add\n        /* \"#utility.yul\":6375:6421   */\n      swap2\n      pop\n        /* \"#utility.yul\":6155:6427   */\n      pop\n        /* \"#utility.yul\":6063:6427   */\n      swap3\n      swap2\n      pop\n      pop\n      jump\t// out\n        /* \"#utility.yul\":6433:6799   */\n    tag_433:\n        /* \"#utility.yul\":6575:6578   */\n      0x00\n        /* \"#utility.yul\":6596:6663   */\n      tag_435\n        /* \"#utility.yul\":6660:6662   */\n      0x13\n        /* \"#utility.yul\":6655:6658   */\n      dup4\n        /* \"#utility.yul\":6596:6663   */\n      tag_428\n      jump\t// in\n    tag_435:\n        /* \"#utility.yul\":6589:6663   */\n      swap2\n      pop\n        /* \"#utility.yul\":6672:6765   */\n      tag_436\n        /* \"#utility.yul\":6761:6764   */\n      dup3\n        /* \"#utility.yul\":6672:6765   */\n      tag_437\n      jump\t// in\n    tag_436:\n        /* \"#utility.yul\":6790:6792   */\n      0x20\n        /* \"#utility.yul\":6785:6788   */\n      dup3\n        /* \"#utility.yul\":6781:6793   */\n      add\n        /* \"#utility.yul\":6774:6793   */\n      swap1\n      pop\n        /* \"#utility.yul\":6433:6799   */\n      swap2\n      swap1\n      pop\n      jump\t// out\n        /* \"#utility.yul\":6805:7171   */\n    tag_438:\n        /* \"#utility.yul\":6947:6950   */\n      0x00\n        /* \"#utility.yul\":6968:7035   */\n      tag_440\n        /* \"#utility.yul\":7032:7034   */\n      0x21\n        /* \"#utility.yul\":7027:7030   */\n      dup4\n        /* \"#utility.yul\":6968:7035   */\n      tag_428\n      jump\t// in\n    tag_440:\n        /* \"#utility.yul\":6961:7035   */\n      swap2\n      pop\n        /* \"#utility.yul\":7044:7137   */\n      tag_441\n        /* \"#utility.yul\":7133:7136   */\n      dup3\n        /* \"#utility.yul\":7044:7137   */\n      tag_442\n      jump\t// in\n    tag_441:\n        /* \"#utility.yul\":7162:7164   */\n      0x40\n        /* \"#utility.yul\":7157:7160   */\n      dup3\n        /* \"#utility.yul\":7153:7165   */\n      add\n        /* \"#utility.yul\":7146:7165   */\n      swap1\n      pop\n        /* \"#utility.yul\":6805:7171   */\n      swap2\n      swap1\n      pop\n      jump\t// out\n        /* \"#utility.yul\":7177:7543   */\n    tag_443:\n        /* \"#utility.yul\":7319:7322   */\n      0x00\n        /* \"#utility.yul\":7340:7407   */\n      tag_445\n        /* \"#utility.yul\":7404:7406   */\n      0x1e\n        /* \"#utility.yul\":7399:7402   */\n      dup4\n        /* \"#utility.yul\":7340:7407   */\n      tag_428\n      jump\t// in\n    tag_445:\n        /* \"#utility.yul\":7333:7407   */\n      swap2\n      pop\n        /* \"#utility.yul\":7416:7509   */\n      tag_446\n        /* \"#utility.yul\":7505:7508   */\n      dup3\n        /* \"#utility.yul\":7416:7509   */\n      tag_447\n      jump\t// in\n    tag_446:\n        /* \"#utility.yul\":7534:7536   */\n      0x20\n        /* \"#utility.yul\":7529:7532   */\n      dup3\n        /* \"#utility.yul\":7525:7537   */\n      add\n        /* \"#utility.yul\":7518:7537   */\n      swap1\n      pop\n        /* \"#utility.yul\":7177:7543   */\n      swap2\n      swap1\n      pop\n      jump\t// out\n        /* \"#utility.yul\":7549:7915   */\n    tag_448:\n        /* \"#utility.yul\":7691:7694   */\n      0x00\n        /* \"#utility.yul\":7712:7779   */\n      tag_450\n        /* \"#utility.yul\":7776:7778   */\n      0x17\n        /* \"#utility.yul\":7771:7774   */\n      dup4\n        /* \"#utility.yul\":7712:7779   */\n      tag_428\n      jump\t// in\n    tag_450:\n        /* \"#utility.yul\":7705:7779   */\n      swap2\n      pop\n        /* \"#utility.yul\":7788:7881   */\n      tag_451\n        /* \"#utility.yul\":7877:7880   */\n      dup3\n        /* \"#utility.yul\":7788:7881   */\n      tag_452\n      jump\t// in\n    tag_451:\n        /* \"#utility.yul\":7906:7908   */\n      0x20\n        /* \"#utility.yul\":7901:7904   */\n      dup3\n        /* \"#utility.yul\":7897:7909   */\n      add\n        /* \"#utility.yul\":7890:7909   */\n      swap1\n      pop\n        /* \"#utility.yul\":7549:7915   */\n      swap2\n      swap1\n      pop\n      jump\t// out\n        /* \"#utility.yul\":7921:8287   */\n    tag_453:\n        /* \"#utility.yul\":8063:8066   */\n      0x00\n        /* \"#utility.yul\":8084:8151   */\n      tag_455\n        /* \"#utility.yul\":8148:8150   */\n      0x15\n        /* \"#utility.yul\":8143:8146   */\n      dup4\n        /* \"#utility.yul\":8084:8151   */\n      tag_428\n      jump\t// in\n    tag_455:\n        /* \"#utility.yul\":8077:8151   */\n      swap2\n      pop\n        /* \"#utility.yul\":8160:8253   */\n      tag_456\n        /* \"#utility.yul\":8249:8252   */\n      dup3\n        /* \"#utility.yul\":8160:8253   */\n      tag_457\n      jump\t// in\n    tag_456:\n        /* \"#utility.yul\":8278:8280   */\n      0x20\n        /* \"#utility.yul\":8273:8276   */\n      dup3\n        /* \"#utility.yul\":8269:8281   */\n      add\n        /* \"#utility.yul\":8262:8281   */\n      swap1\n      pop\n        /* \"#utility.yul\":7921:8287   */\n      swap2\n      swap1\n      pop\n      jump\t// out\n        /* \"#utility.yul\":8293:8659   */\n    tag_458:\n        /* \"#utility.yul\":8435:8438   */\n      0x00\n        /* \"#utility.yul\":8456:8523   */\n      tag_460\n        /* \"#utility.yul\":8520:8522   */\n      0x15\n        /* \"#utility.yul\":8515:8518   */\n      dup4\n        /* \"#utility.yul\":8456:8523   */\n      tag_428\n      jump\t// in\n    tag_460:\n        /* \"#utility.yul\":8449:8523   */\n      swap2\n      pop\n        /* \"#utility.yul\":8532:8625   */\n      tag_461\n        /* \"#utility.yul\":8621:8624   */\n      dup3\n        /* \"#utility.yul\":8532:8625   */\n      tag_462\n      jump\t// in\n    tag_461:\n        /* \"#utility.yul\":8650:8652   */\n      0x20\n        /* \"#utility.yul\":8645:8648   */\n      dup3\n        /* \"#utility.yul\":8641:8653   */\n      add\n        /* \"#utility.yul\":8634:8653   */\n      swap1\n      pop\n        /* \"#utility.yul\":8293:8659   */\n      swap2\n      swap1\n      pop\n      jump\t// out\n        /* \"#utility.yul\":8665:9031   */\n    tag_463:\n        /* \"#utility.yul\":8807:8810   */\n      0x00\n        /* \"#utility.yul\":8828:8895   */\n      tag_465\n        /* \"#utility.yul\":8892:8894   */\n      0x14\n        /* \"#utility.yul\":8887:8890   */\n      dup4\n        /* \"#utility.yul\":8828:8895   */\n      tag_428\n      jump\t// in\n    tag_465:\n        /* \"#utility.yul\":8821:8895   */\n      swap2\n      pop\n        /* \"#utility.yul\":8904:8997   */\n      tag_466\n        /* \"#utility.yul\":8993:8996   */\n      dup3\n        /* \"#utility.yul\":8904:8997   */\n      tag_467\n      jump\t// in\n    tag_466:\n        /* \"#utility.yul\":9022:9024   */\n      0x20\n        /* \"#utility.yul\":9017:9020   */\n      dup3\n        /* \"#utility.yul\":9013:9025   */\n      add\n        /* \"#utility.yul\":9006:9025   */\n      swap1\n      pop\n        /* \"#utility.yul\":8665:9031   */\n      swap2\n      swap1\n      pop\n      jump\t// out\n        /* \"#utility.yul\":9037:9403   */\n    tag_468:\n        /* \"#utility.yul\":9179:9182   */\n      0x00\n        /* \"#utility.yul\":9200:9267   */\n      tag_470\n        /* \"#utility.yul\":9264:9266   */\n      0x1a\n        /* \"#utility.yul\":9259:9262   */\n      dup4\n        /* \"#utility.yul\":9200:9267   */\n      tag_428\n      jump\t// in\n    tag_470:\n        /* \"#utility.yul\":9193:9267   */\n      swap2\n      pop\n        /* \"#utility.yul\":9276:9369   */\n      tag_471\n        /* \"#utility.yul\":9365:9368   */\n      dup3\n        /* \"#utility.yul\":9276:9369   */\n      tag_472\n      jump\t// in\n    tag_471:\n        /* \"#utility.yul\":9394:9396   */\n      0x20\n        /* \"#utility.yul\":9389:9392   */\n      dup3\n        /* \"#utility.yul\":9385:9397   */\n      add\n        /* \"#utility.yul\":9378:9397   */\n      swap1\n      pop\n        /* \"#utility.yul\":9037:9403   */\n      swap2\n      swap1\n      pop\n      jump\t// out\n        /* \"#utility.yul\":9409:9775   */\n    tag_473:\n        /* \"#utility.yul\":9551:9554   */\n      0x00\n        /* \"#utility.yul\":9572:9639   */\n      tag_475\n        /* \"#utility.yul\":9636:9638   */\n      0x14\n        /* \"#utility.yul\":9631:9634   */\n      dup4\n        /* \"#utility.yul\":9572:9639   */\n      tag_428\n      jump\t// in\n    tag_475:\n        /* \"#utility.yul\":9565:9639   */\n      swap2\n      pop\n        /* \"#utility.yul\":9648:9741   */\n      tag_476\n        /* \"#utility.yul\":9737:9740   */\n      dup3\n        /* \"#utility.yul\":9648:9741   */\n      tag_477\n      jump\t// in\n    tag_476:\n        /* \"#utility.yul\":9766:9768   */\n      0x20\n        /* \"#utility.yul\":9761:9764   */\n      dup3\n        /* \"#utility.yul\":9757:9769   */\n      add\n        /* \"#utility.yul\":9750:9769   */\n      swap1\n      pop\n        /* \"#utility.yul\":9409:9775   */\n      swap2\n      swap1\n      pop\n      jump\t// out\n        /* \"#utility.yul\":9781:10147   */\n    tag_478:\n        /* \"#utility.yul\":9923:9926   */\n      0x00\n        /* \"#utility.yul\":9944:10011   */\n      tag_480\n        /* \"#utility.yul\":10008:10010   */\n      0x10\n        /* \"#utility.yul\":10003:10006   */\n      dup4\n        /* \"#utility.yul\":9944:10011   */\n      tag_428\n      jump\t// in\n    tag_480:\n        /* \"#utility.yul\":9937:10011   */\n      swap2\n      pop\n        /* \"#utility.yul\":10020:10113   */\n      tag_481\n        /* \"#utility.yul\":10109:10112   */\n      dup3\n        /* \"#utility.yul\":10020:10113   */\n      tag_482\n      jump\t// in\n    tag_481:\n        /* \"#utility.yul\":10138:10140   */\n      0x20\n        /* \"#utility.yul\":10133:10136   */\n      dup3\n        /* \"#utility.yul\":10129:10141   */\n      add\n        /* \"#utility.yul\":10122:10141   */\n      swap1\n      pop\n        /* \"#utility.yul\":9781:10147   */\n      swap2\n      swap1\n      pop\n      jump\t// out\n        /* \"#utility.yul\":10153:10519   */\n    tag_483:\n        /* \"#utility.yul\":10295:10298   */\n      0x00\n        /* \"#utility.yul\":10316:10383   */\n      tag_485\n        /* \"#utility.yul\":10380:10382   */\n      0x12\n        /* \"#utility.yul\":10375:10378   */\n      dup4\n        /* \"#utility.yul\":10316:10383   */\n      tag_428\n      jump\t// in\n    tag_485:\n        /* \"#utility.yul\":10309:10383   */\n      swap2\n      pop\n        /* \"#utility.yul\":10392:10485   */\n      tag_486\n        /* \"#utility.yul\":10481:10484   */\n      dup3\n        /* \"#utility.yul\":10392:10485   */\n      tag_487\n      jump\t// in\n    tag_486:\n        /* \"#utility.yul\":10510:10512   */\n      0x20\n        /* \"#utility.yul\":10505:10508   */\n      dup3\n        /* \"#utility.yul\":10501:10513   */\n      add\n        /* \"#utility.yul\":10494:10513   */\n      swap1\n      pop\n        /* \"#utility.yul\":10153:10519   */\n      swap2\n      swap1\n      pop\n      jump\t// out\n        /* \"#utility.yul\":10525:10633   */\n    tag_372:\n        /* \"#utility.yul\":10602:10626   */\n      tag_489\n        /* \"#utility.yul\":10620:10625   */\n      dup2\n        /* \"#utility.yul\":10602:10626   */\n      tag_490\n      jump\t// in\n    tag_489:\n        /* \"#utility.yul\":10597:10600   */\n      dup3\n        /* \"#utility.yul\":10590:10627   */\n      mstore\n        /* \"#utility.yul\":10525:10633   */\n      pop\n      pop\n      jump\t// out\n        /* \"#utility.yul\":10639:10757   */\n    tag_491:\n        /* \"#utility.yul\":10726:10750   */\n      tag_493\n        /* \"#utility.yul\":10744:10749   */\n      dup2\n        /* \"#utility.yul\":10726:10750   */\n      tag_490\n      jump\t// in\n    tag_493:\n        /* \"#utility.yul\":10721:10724   */\n      dup3\n        /* \"#utility.yul\":10714:10751   */\n      mstore\n        /* \"#utility.yul\":10639:10757   */\n      pop\n      pop\n      jump\t// out\n        /* \"#utility.yul\":10763:10985   */\n    tag_97:\n        /* \"#utility.yul\":10856:10860   */\n      0x00\n        /* \"#utility.yul\":10894:10896   */\n      0x20\n        /* \"#utility.yul\":10883:10892   */\n      dup3\n        /* \"#utility.yul\":10879:10897   */\n      add\n        /* \"#utility.yul\":10871:10897   */\n      swap1\n      pop\n        /* \"#utility.yul\":10907:10978   */\n      tag_495\n        /* \"#utility.yul\":10975:10976   */\n      0x00\n        /* \"#utility.yul\":10964:10973   */\n      dup4\n        /* \"#utility.yul\":10960:10977   */\n      add\n        /* \"#utility.yul\":10951:10957   */\n      dup5\n        /* \"#utility.yul\":10907:10978   */\n      tag_380\n      jump\t// in\n    tag_495:\n        /* \"#utility.yul\":10763:10985   */\n      swap3\n      swap2\n      pop\n      pop\n      jump\t// out\n        /* \"#utility.yul\":10991:11245   */\n    tag_71:\n        /* \"#utility.yul\":11100:11104   */\n      0x00\n        /* \"#utility.yul\":11138:11140   */\n      0x20\n        /* \"#utility.yul\":11127:11136   */\n      dup3\n        /* \"#utility.yul\":11123:11141   */\n      add\n        /* \"#utility.yul\":11115:11141   */\n      swap1\n      pop\n        /* \"#utility.yul\":11151:11238   */\n      tag_497\n        /* \"#utility.yul\":11235:11236   */\n      0x00\n        /* \"#utility.yul\":11224:11233   */\n      dup4\n        /* \"#utility.yul\":11220:11237   */\n      add\n        /* \"#utility.yul\":11211:11217   */\n      dup5\n        /* \"#utility.yul\":11151:11238   */\n      tag_373\n      jump\t// in\n    tag_497:\n        /* \"#utility.yul\":10991:11245   */\n      swap3\n      swap2\n      pop\n      pop\n      jump\t// out\n        /* \"#utility.yul\":11251:11624   */\n    tag_107:\n        /* \"#utility.yul\":11394:11398   */\n      0x00\n        /* \"#utility.yul\":11432:11434   */\n      0x20\n        /* \"#utility.yul\":11421:11430   */\n      dup3\n        /* \"#utility.yul\":11417:11435   */\n      add\n        /* \"#utility.yul\":11409:11435   */\n      swap1\n      pop\n        /* \"#utility.yul\":11481:11490   */\n      dup2\n        /* \"#utility.yul\":11475:11479   */\n      dup2\n        /* \"#utility.yul\":11471:11491   */\n      sub\n        /* \"#utility.yul\":11467:11468   */\n      0x00\n        /* \"#utility.yul\":11456:11465   */\n      dup4\n        /* \"#utility.yul\":11452:11469   */\n      add\n        /* \"#utility.yul\":11445:11492   */\n      mstore\n        /* \"#utility.yul\":11509:11617   */\n      tag_499\n        /* \"#utility.yul\":11612:11616   */\n      dup2\n        /* \"#utility.yul\":11603:11609   */\n      dup5\n        /* \"#utility.yul\":11509:11617   */\n      tag_383\n      jump\t// in\n    tag_499:\n        /* \"#utility.yul\":11501:11617   */\n      swap1\n      pop\n        /* \"#utility.yul\":11251:11624   */\n      swap3\n      swap2\n      pop\n      pop\n      jump\t// out\n        /* \"#utility.yul\":11630:12003   */\n    tag_131:\n        /* \"#utility.yul\":11773:11777   */\n      0x00\n        /* \"#utility.yul\":11811:11813   */\n      0x20\n        /* \"#utility.yul\":11800:11809   */\n      dup3\n        /* \"#utility.yul\":11796:11814   */\n      add\n        /* \"#utility.yul\":11788:11814   */\n      swap1\n      pop\n        /* \"#utility.yul\":11860:11869   */\n      dup2\n        /* \"#utility.yul\":11854:11858   */\n      dup2\n        /* \"#utility.yul\":11850:11870   */\n      sub\n        /* \"#utility.yul\":11846:11847   */\n      0x00\n        /* \"#utility.yul\":11835:11844   */\n      dup4\n        /* \"#utility.yul\":11831:11848   */\n      add\n        /* \"#utility.yul\":11824:11871   */\n      mstore\n        /* \"#utility.yul\":11888:11996   */\n      tag_501\n        /* \"#utility.yul\":11991:11995   */\n      dup2\n        /* \"#utility.yul\":11982:11988   */\n      dup5\n        /* \"#utility.yul\":11888:11996   */\n      tag_397\n      jump\t// in\n    tag_501:\n        /* \"#utility.yul\":11880:11996   */\n      swap1\n      pop\n        /* \"#utility.yul\":11630:12003   */\n      swap3\n      swap2\n      pop\n      pop\n      jump\t// out\n        /* \"#utility.yul\":12009:12243   */\n    tag_66:\n        /* \"#utility.yul\":12108:12112   */\n      0x00\n        /* \"#utility.yul\":12146:12148   */\n      0x20\n        /* \"#utility.yul\":12135:12144   */\n      dup3\n        /* \"#utility.yul\":12131:12149   */\n      add\n        /* \"#utility.yul\":12123:12149   */\n      swap1\n      pop\n        /* \"#utility.yul\":12159:12236   */\n      tag_503\n        /* \"#utility.yul\":12233:12234   */\n      0x00\n        /* \"#utility.yul\":12222:12231   */\n      dup4\n        /* \"#utility.yul\":12218:12235   */\n      add\n        /* \"#utility.yul\":12209:12215   */\n      dup5\n        /* \"#utility.yul\":12159:12236   */\n      tag_419\n      jump\t// in\n    tag_503:\n        /* \"#utility.yul\":12009:12243   */\n      swap3\n      swap2\n      pop\n      pop\n      jump\t// out\n        /* \"#utility.yul\":12249:12562   */\n    tag_46:\n        /* \"#utility.yul\":12362:12366   */\n      0x00\n        /* \"#utility.yul\":12400:12402   */\n      0x20\n        /* \"#utility.yul\":12389:12398   */\n      dup3\n        /* \"#utility.yul\":12385:12403   */\n      add\n        /* \"#utility.yul\":12377:12403   */\n      swap1\n      pop\n        /* \"#utility.yul\":12449:12458   */\n      dup2\n        /* \"#utility.yul\":12443:12447   */\n      dup2\n        /* \"#utility.yul\":12439:12459   */\n      sub\n        /* \"#utility.yul\":12435:12436   */\n      0x00\n        /* \"#utility.yul\":12424:12433   */\n      dup4\n        /* \"#utility.yul\":12420:12437   */\n      add\n        /* \"#utility.yul\":12413:12460   */\n      mstore\n        /* \"#utility.yul\":12477:12555   */\n      tag_505\n        /* \"#utility.yul\":12550:12554   */\n      dup2\n        /* \"#utility.yul\":12541:12547   */\n      dup5\n        /* \"#utility.yul\":12477:12555   */\n      tag_423\n      jump\t// in\n    tag_505:\n        /* \"#utility.yul\":12469:12555   */\n      swap1\n      pop\n        /* \"#utility.yul\":12249:12562   */\n      swap3\n      swap2\n      pop\n      pop\n      jump\t// out\n        /* \"#utility.yul\":12568:13496   */\n    tag_88:\n        /* \"#utility.yul\":12852:12856   */\n      0x00\n        /* \"#utility.yul\":12890:12893   */\n      0xc0\n        /* \"#utility.yul\":12879:12888   */\n      dup3\n        /* \"#utility.yul\":12875:12894   */\n      add\n        /* \"#utility.yul\":12867:12894   */\n      swap1\n      pop\n        /* \"#utility.yul\":12940:12949   */\n      dup2\n        /* \"#utility.yul\":12934:12938   */\n      dup2\n        /* \"#utility.yul\":12930:12950   */\n      sub\n        /* \"#utility.yul\":12926:12927   */\n      0x00\n        /* \"#utility.yul\":12915:12924   */\n      dup4\n        /* \"#utility.yul\":12911:12928   */\n      add\n        /* \"#utility.yul\":12904:12951   */\n      mstore\n        /* \"#utility.yul\":12968:13046   */\n      tag_507\n        /* \"#utility.yul\":13041:13045   */\n      dup2\n        /* \"#utility.yul\":13032:13038   */\n      dup10\n        /* \"#utility.yul\":12968:13046   */\n      tag_423\n      jump\t// in\n    tag_507:\n        /* \"#utility.yul\":12960:13046   */\n      swap1\n      pop\n        /* \"#utility.yul\":13056:13143   */\n      tag_508\n        /* \"#utility.yul\":13139:13141   */\n      0x20\n        /* \"#utility.yul\":13128:13137   */\n      dup4\n        /* \"#utility.yul\":13124:13142   */\n      add\n        /* \"#utility.yul\":13115:13121   */\n      dup9\n        /* \"#utility.yul\":13056:13143   */\n      tag_415\n      jump\t// in\n    tag_508:\n        /* \"#utility.yul\":13153:13225   */\n      tag_509\n        /* \"#utility.yul\":13221:13223   */\n      0x40\n        /* \"#utility.yul\":13210:13219   */\n      dup4\n        /* \"#utility.yul\":13206:13224   */\n      add\n        /* \"#utility.yul\":13197:13203   */\n      dup8\n        /* \"#utility.yul\":13153:13225   */\n      tag_491\n      jump\t// in\n    tag_509:\n        /* \"#utility.yul\":13235:13323   */\n      tag_510\n        /* \"#utility.yul\":13319:13321   */\n      0x60\n        /* \"#utility.yul\":13308:13317   */\n      dup4\n        /* \"#utility.yul\":13304:13322   */\n      add\n        /* \"#utility.yul\":13295:13301   */\n      dup7\n        /* \"#utility.yul\":13235:13323   */\n      tag_373\n      jump\t// in\n    tag_510:\n        /* \"#utility.yul\":13333:13406   */\n      tag_511\n        /* \"#utility.yul\":13401:13404   */\n      0x80\n        /* \"#utility.yul\":13390:13399   */\n      dup4\n        /* \"#utility.yul\":13386:13405   */\n      add\n        /* \"#utility.yul\":13377:13383   */\n      dup6\n        /* \"#utility.yul\":13333:13406   */\n      tag_491\n      jump\t// in\n    tag_511:\n        /* \"#utility.yul\":13416:13489   */\n      tag_512\n        /* \"#utility.yul\":13484:13487   */\n      0xa0\n        /* \"#utility.yul\":13473:13482   */\n      dup4\n        /* \"#utility.yul\":13469:13488   */\n      add\n        /* \"#utility.yul\":13460:13466   */\n      dup5\n        /* \"#utility.yul\":13416:13489   */\n      tag_491\n      jump\t// in\n    tag_512:\n        /* \"#utility.yul\":12568:13496   */\n      swap8\n      swap7\n      pop\n      pop\n      pop\n      pop\n      pop\n      pop\n      pop\n      jump\t// out\n        /* \"#utility.yul\":13502:14023   */\n    tag_113:\n        /* \"#utility.yul\":13665:13669   */\n      0x00\n        /* \"#utility.yul\":13703:13705   */\n      0x60\n        /* \"#utility.yul\":13692:13701   */\n      dup3\n        /* \"#utility.yul\":13688:13706   */\n      add\n        /* \"#utility.yul\":13680:13706   */\n      swap1\n      pop\n        /* \"#utility.yul\":13752:13761   */\n      dup2\n        /* \"#utility.yul\":13746:13750   */\n      dup2\n        /* \"#utility.yul\":13742:13762   */\n      sub\n        /* \"#utility.yul\":13738:13739   */\n      0x00\n        /* \"#utility.yul\":13727:13736   */\n      dup4\n        /* \"#utility.yul\":13723:13740   */\n      add\n        /* \"#utility.yul\":13716:13763   */\n      mstore\n        /* \"#utility.yul\":13780:13858   */\n      tag_514\n        /* \"#utility.yul\":13853:13857   */\n      dup2\n        /* \"#utility.yul\":13844:13850   */\n      dup7\n        /* \"#utility.yul\":13780:13858   */\n      tag_423\n      jump\t// in\n    tag_514:\n        /* \"#utility.yul\":13772:13858   */\n      swap1\n      pop\n        /* \"#utility.yul\":13868:13940   */\n      tag_515\n        /* \"#utility.yul\":13936:13938   */\n      0x20\n        /* \"#utility.yul\":13925:13934   */\n      dup4\n        /* \"#utility.yul\":13921:13939   */\n      add\n        /* \"#utility.yul\":13912:13918   */\n      dup6\n        /* \"#utility.yul\":13868:13940   */\n      tag_491\n      jump\t// in\n    tag_515:\n        /* \"#utility.yul\":13950:14016   */\n      tag_516\n        /* \"#utility.yul\":14012:14014   */\n      0x40\n        /* \"#utility.yul\":14001:14010   */\n      dup4\n        /* \"#utility.yul\":13997:14015   */\n      add\n        /* \"#utility.yul\":13988:13994   */\n      dup5\n        /* \"#utility.yul\":13950:14016   */\n      tag_411\n      jump\t// in\n    tag_516:\n        /* \"#utility.yul\":13502:14023   */\n      swap5\n      swap4\n      pop\n      pop\n      pop\n      pop\n      jump\t// out\n        /* \"#utility.yul\":14029:14448   */\n    tag_206:\n        /* \"#utility.yul\":14195:14199   */\n      0x00\n        /* \"#utility.yul\":14233:14235   */\n      0x20\n        /* \"#utility.yul\":14222:14231   */\n      dup3\n        /* \"#utility.yul\":14218:14236   */\n      add\n        /* \"#utility.yul\":14210:14236   */\n      swap1\n      pop\n        /* \"#utility.yul\":14282:14291   */\n      dup2\n        /* \"#utility.yul\":14276:14280   */\n      dup2\n        /* \"#utility.yul\":14272:14292   */\n      sub\n        /* \"#utility.yul\":14268:14269   */\n      0x00\n        /* \"#utility.yul\":14257:14266   */\n      dup4\n        /* \"#utility.yul\":14253:14270   */\n      add\n        /* \"#utility.yul\":14246:14293   */\n      mstore\n        /* \"#utility.yul\":14310:14441   */\n      tag_518\n        /* \"#utility.yul\":14436:14440   */\n      dup2\n        /* \"#utility.yul\":14310:14441   */\n      tag_433\n      jump\t// in\n    tag_518:\n        /* \"#utility.yul\":14302:14441   */\n      swap1\n      pop\n        /* \"#utility.yul\":14029:14448   */\n      swap2\n      swap1\n      pop\n      jump\t// out\n        /* \"#utility.yul\":14454:14873   */\n    tag_149:\n        /* \"#utility.yul\":14620:14624   */\n      0x00\n        /* \"#utility.yul\":14658:14660   */\n      0x20\n        /* \"#utility.yul\":14647:14656   */\n      dup3\n        /* \"#utility.yul\":14643:14661   */\n      add\n        /* \"#utility.yul\":14635:14661   */\n      swap1\n      pop\n        /* \"#utility.yul\":14707:14716   */\n      dup2\n        /* \"#utility.yul\":14701:14705   */\n      dup2\n        /* \"#utility.yul\":14697:14717   */\n      sub\n        /* \"#utility.yul\":14693:14694   */\n      0x00\n        /* \"#utility.yul\":14682:14691   */\n      dup4\n        /* \"#utility.yul\":14678:14695   */\n      add\n        /* \"#utility.yul\":14671:14718   */\n      mstore\n        /* \"#utility.yul\":14735:14866   */\n      tag_520\n        /* \"#utility.yul\":14861:14865   */\n      dup2\n        /* \"#utility.yul\":14735:14866   */\n      tag_438\n      jump\t// in\n    tag_520:\n        /* \"#utility.yul\":14727:14866   */\n      swap1\n      pop\n        /* \"#utility.yul\":14454:14873   */\n      swap2\n      swap1\n      pop\n      jump\t// out\n        /* \"#utility.yul\":14879:15298   */\n    tag_157:\n        /* \"#utility.yul\":15045:15049   */\n      0x00\n        /* \"#utility.yul\":15083:15085   */\n      0x20\n        /* \"#utility.yul\":15072:15081   */\n      dup3\n        /* \"#utility.yul\":15068:15086   */\n      add\n        /* \"#utility.yul\":15060:15086   */\n      swap1\n      pop\n        /* \"#utility.yul\":15132:15141   */\n      dup2\n        /* \"#utility.yul\":15126:15130   */\n      dup2\n        /* \"#utility.yul\":15122:15142   */\n      sub\n        /* \"#utility.yul\":15118:15119   */\n      0x00\n        /* \"#utility.yul\":15107:15116   */\n      dup4\n        /* \"#utility.yul\":15103:15120   */\n      add\n        /* \"#utility.yul\":15096:15143   */\n      mstore\n        /* \"#utility.yul\":15160:15291   */\n      tag_522\n        /* \"#utility.yul\":15286:15290   */\n      dup2\n        /* \"#utility.yul\":15160:15291   */\n      tag_443\n      jump\t// in\n    tag_522:\n        /* \"#utility.yul\":15152:15291   */\n      swap1\n      pop\n        /* \"#utility.yul\":14879:15298   */\n      swap2\n      swap1\n      pop\n      jump\t// out\n        /* \"#utility.yul\":15304:15723   */\n    tag_210:\n        /* \"#utility.yul\":15470:15474   */\n      0x00\n        /* \"#utility.yul\":15508:15510   */\n      0x20\n        /* \"#utility.yul\":15497:15506   */\n      dup3\n        /* \"#utility.yul\":15493:15511   */\n      add\n        /* \"#utility.yul\":15485:15511   */\n      swap1\n      pop\n        /* \"#utility.yul\":15557:15566   */\n      dup2\n        /* \"#utility.yul\":15551:15555   */\n      dup2\n        /* \"#utility.yul\":15547:15567   */\n      sub\n        /* \"#utility.yul\":15543:15544   */\n      0x00\n        /* \"#utility.yul\":15532:15541   */\n      dup4\n        /* \"#utility.yul\":15528:15545   */\n      add\n        /* \"#utility.yul\":15521:15568   */\n      mstore\n        /* \"#utility.yul\":15585:15716   */\n      tag_524\n        /* \"#utility.yul\":15711:15715   */\n      dup2\n        /* \"#utility.yul\":15585:15716   */\n      tag_448\n      jump\t// in\n    tag_524:\n        /* \"#utility.yul\":15577:15716   */\n      swap1\n      pop\n        /* \"#utility.yul\":15304:15723   */\n      swap2\n      swap1\n      pop\n      jump\t// out\n        /* \"#utility.yul\":15729:16148   */\n    tag_189:\n        /* \"#utility.yul\":15895:15899   */\n      0x00\n        /* \"#utility.yul\":15933:15935   */\n      0x20\n        /* \"#utility.yul\":15922:15931   */\n      dup3\n        /* \"#utility.yul\":15918:15936   */\n      add\n        /* \"#utility.yul\":15910:15936   */\n      swap1\n      pop\n        /* \"#utility.yul\":15982:15991   */\n      dup2\n        /* \"#utility.yul\":15976:15980   */\n      dup2\n        /* \"#utility.yul\":15972:15992   */\n      sub\n        /* \"#utility.yul\":15968:15969   */\n      0x00\n        /* \"#utility.yul\":15957:15966   */\n      dup4\n        /* \"#utility.yul\":15953:15970   */\n      add\n        /* \"#utility.yul\":15946:15993   */\n      mstore\n        /* \"#utility.yul\":16010:16141   */\n      tag_526\n        /* \"#utility.yul\":16136:16140   */\n      dup2\n        /* \"#utility.yul\":16010:16141   */\n      tag_453\n      jump\t// in\n    tag_526:\n        /* \"#utility.yul\":16002:16141   */\n      swap1\n      pop\n        /* \"#utility.yul\":15729:16148   */\n      swap2\n      swap1\n      pop\n      jump\t// out\n        /* \"#utility.yul\":16154:16573   */\n    tag_225:\n        /* \"#utility.yul\":16320:16324   */\n      0x00\n        /* \"#utility.yul\":16358:16360   */\n      0x20\n        /* \"#utility.yul\":16347:16356   */\n      dup3\n        /* \"#utility.yul\":16343:16361   */\n      add\n        /* \"#utility.yul\":16335:16361   */\n      swap1\n      pop\n        /* \"#utility.yul\":16407:16416   */\n      dup2\n        /* \"#utility.yul\":16401:16405   */\n      dup2\n        /* \"#utility.yul\":16397:16417   */\n      sub\n        /* \"#utility.yul\":16393:16394   */\n      0x00\n        /* \"#utility.yul\":16382:16391   */\n      dup4\n        /* \"#utility.yul\":16378:16395   */\n      add\n        /* \"#utility.yul\":16371:16418   */\n      mstore\n        /* \"#utility.yul\":16435:16566   */\n      tag_528\n        /* \"#utility.yul\":16561:16565   */\n      dup2\n        /* \"#utility.yul\":16435:16566   */\n      tag_458\n      jump\t// in\n    tag_528:\n        /* \"#utility.yul\":16427:16566   */\n      swap1\n      pop\n        /* \"#utility.yul\":16154:16573   */\n      swap2\n      swap1\n      pop\n      jump\t// out\n        /* \"#utility.yul\":16579:16998   */\n    tag_275:\n        /* \"#utility.yul\":16745:16749   */\n      0x00\n        /* \"#utility.yul\":16783:16785   */\n      0x20\n        /* \"#utility.yul\":16772:16781   */\n      dup3\n        /* \"#utility.yul\":16768:16786   */\n      add\n        /* \"#utility.yul\":16760:16786   */\n      swap1\n      pop\n        /* \"#utility.yul\":16832:16841   */\n      dup2\n        /* \"#utility.yul\":16826:16830   */\n      dup2\n        /* \"#utility.yul\":16822:16842   */\n      sub\n        /* \"#utility.yul\":16818:16819   */\n      0x00\n        /* \"#utility.yul\":16807:16816   */\n      dup4\n        /* \"#utility.yul\":16803:16820   */\n      add\n        /* \"#utility.yul\":16796:16843   */\n      mstore\n        /* \"#utility.yul\":16860:16991   */\n      tag_530\n        /* \"#utility.yul\":16986:16990   */\n      dup2\n        /* \"#utility.yul\":16860:16991   */\n      tag_463\n      jump\t// in\n    tag_530:\n        /* \"#utility.yul\":16852:16991   */\n      swap1\n      pop\n        /* \"#utility.yul\":16579:16998   */\n      swap2\n      swap1\n      pop\n      jump\t// out\n        /* \"#utility.yul\":17004:17423   */\n    tag_282:\n        /* \"#utility.yul\":17170:17174   */\n      0x00\n        /* \"#utility.yul\":17208:17210   */\n      0x20\n        /* \"#utility.yul\":17197:17206   */\n      dup3\n        /* \"#utility.yul\":17193:17211   */\n      add\n        /* \"#utility.yul\":17185:17211   */\n      swap1\n      pop\n        /* \"#utility.yul\":17257:17266   */\n      dup2\n        /* \"#utility.yul\":17251:17255   */\n      dup2\n        /* \"#utility.yul\":17247:17267   */\n      sub\n        /* \"#utility.yul\":17243:17244   */\n      0x00\n        /* \"#utility.yul\":17232:17241   */\n      dup4\n        /* \"#utility.yul\":17228:17245   */\n      add\n        /* \"#utility.yul\":17221:17268   */\n      mstore\n        /* \"#utility.yul\":17285:17416   */\n      tag_532\n        /* \"#utility.yul\":17411:17415   */\n      dup2\n        /* \"#utility.yul\":17285:17416   */\n      tag_468\n      jump\t// in\n    tag_532:\n        /* \"#utility.yul\":17277:17416   */\n      swap1\n      pop\n        /* \"#utility.yul\":17004:17423   */\n      swap2\n      swap1\n      pop\n      jump\t// out\n        /* \"#utility.yul\":17429:17848   */\n    tag_175:\n        /* \"#utility.yul\":17595:17599   */\n      0x00\n        /* \"#utility.yul\":17633:17635   */\n      0x20\n        /* \"#utility.yul\":17622:17631   */\n      dup3\n        /* \"#utility.yul\":17618:17636   */\n      add\n        /* \"#utility.yul\":17610:17636   */\n      swap1\n      pop\n        /* \"#utility.yul\":17682:17691   */\n      dup2\n        /* \"#utility.yul\":17676:17680   */\n      dup2\n        /* \"#utility.yul\":17672:17692   */\n      sub\n        /* \"#utility.yul\":17668:17669   */\n      0x00\n        /* \"#utility.yul\":17657:17666   */\n      dup4\n        /* \"#utility.yul\":17653:17670   */\n      add\n        /* \"#utility.yul\":17646:17693   */\n      mstore\n        /* \"#utility.yul\":17710:17841   */\n      tag_534\n        /* \"#utility.yul\":17836:17840   */\n      dup2\n        /* \"#utility.yul\":17710:17841   */\n      tag_473\n      jump\t// in\n    tag_534:\n        /* \"#utility.yul\":17702:17841   */\n      swap1\n      pop\n        /* \"#utility.yul\":17429:17848   */\n      swap2\n      swap1\n      pop\n      jump\t// out\n        /* \"#utility.yul\":17854:18273   */\n    tag_182:\n        /* \"#utility.yul\":18020:18024   */\n      0x00\n        /* \"#utility.yul\":18058:18060   */\n      0x20\n        /* \"#utility.yul\":18047:18056   */\n      dup3\n        /* \"#utility.yul\":18043:18061   */\n      add\n        /* \"#utility.yul\":18035:18061   */\n      swap1\n      pop\n        /* \"#utility.yul\":18107:18116   */\n      dup2\n        /* \"#utility.yul\":18101:18105   */\n      dup2\n        /* \"#utility.yul\":18097:18117   */\n      sub\n        /* \"#utility.yul\":18093:18094   */\n      0x00\n        /* \"#utility.yul\":18082:18091   */\n      dup4\n        /* \"#utility.yul\":18078:18095   */\n      add\n        /* \"#utility.yul\":18071:18118   */\n      mstore\n        /* \"#utility.yul\":18135:18266   */\n      tag_536\n        /* \"#utility.yul\":18261:18265   */\n      dup2\n        /* \"#utility.yul\":18135:18266   */\n      tag_478\n      jump\t// in\n    tag_536:\n        /* \"#utility.yul\":18127:18266   */\n      swap1\n      pop\n        /* \"#utility.yul\":17854:18273   */\n      swap2\n      swap1\n      pop\n      jump\t// out\n        /* \"#utility.yul\":18279:18698   */\n    tag_289:\n        /* \"#utility.yul\":18445:18449   */\n      0x00\n        /* \"#utility.yul\":18483:18485   */\n      0x20\n        /* \"#utility.yul\":18472:18481   */\n      dup3\n        /* \"#utility.yul\":18468:18486   */\n      add\n        /* \"#utility.yul\":18460:18486   */\n      swap1\n      pop\n        /* \"#utility.yul\":18532:18541   */\n      dup2\n        /* \"#utility.yul\":18526:18530   */\n      dup2\n        /* \"#utility.yul\":18522:18542   */\n      sub\n        /* \"#utility.yul\":18518:18519   */\n      0x00\n        /* \"#utility.yul\":18507:18516   */\n      dup4\n        /* \"#utility.yul\":18503:18520   */\n      add\n        /* \"#utility.yul\":18496:18543   */\n      mstore\n        /* \"#utility.yul\":18560:18691   */\n      tag_538\n        /* \"#utility.yul\":18686:18690   */\n      dup2\n        /* \"#utility.yul\":18560:18691   */\n      tag_483\n      jump\t// in\n    tag_538:\n        /* \"#utility.yul\":18552:18691   */\n      swap1\n      pop\n        /* \"#utility.yul\":18279:18698   */\n      swap2\n      swap1\n      pop\n      jump\t// out\n        /* \"#utility.yul\":18704:18926   */\n    tag_41:\n        /* \"#utility.yul\":18797:18801   */\n      0x00\n        /* \"#utility.yul\":18835:18837   */\n      0x20\n        /* \"#utility.yul\":18824:18833   */\n      dup3\n        /* \"#utility.yul\":18820:18838   */\n      add\n        /* \"#utility.yul\":18812:18838   */\n      swap1\n      pop\n        /* \"#utility.yul\":18848:18919   */\n      tag_540\n        /* \"#utility.yul\":18916:18917   */\n      0x00\n        /* \"#utility.yul\":18905:18914   */\n      dup4\n        /* \"#utility.yul\":18901:18918   */\n      add\n        /* \"#utility.yul\":18892:18898   */\n      dup5\n        /* \"#utility.yul\":18848:18919   */\n      tag_491\n      jump\t// in\n    tag_540:\n        /* \"#utility.yul\":18704:18926   */\n      swap3\n      swap2\n      pop\n      pop\n      jump\t// out\n        /* \"#utility.yul\":18932:19264   */\n    tag_296:\n        /* \"#utility.yul\":19053:19057   */\n      0x00\n        /* \"#utility.yul\":19091:19093   */\n      0x40\n        /* \"#utility.yul\":19080:19089   */\n      dup3\n        /* \"#utility.yul\":19076:19094   */\n      add\n        /* \"#utility.yul\":19068:19094   */\n      swap1\n      pop\n        /* \"#utility.yul\":19104:19175   */\n      tag_542\n        /* \"#utility.yul\":19172:19173   */\n      0x00\n        /* \"#utility.yul\":19161:19170   */\n      dup4\n        /* \"#utility.yul\":19157:19174   */\n      add\n        /* \"#utility.yul\":19148:19154   */\n      dup6\n        /* \"#utility.yul\":19104:19175   */\n      tag_491\n      jump\t// in\n    tag_542:\n        /* \"#utility.yul\":19185:19257   */\n      tag_543\n        /* \"#utility.yul\":19253:19255   */\n      0x20\n        /* \"#utility.yul\":19242:19251   */\n      dup4\n        /* \"#utility.yul\":19238:19256   */\n      add\n        /* \"#utility.yul\":19229:19235   */\n      dup5\n        /* \"#utility.yul\":19185:19257   */\n      tag_491\n      jump\t// in\n    tag_543:\n        /* \"#utility.yul\":18932:19264   */\n      swap4\n      swap3\n      pop\n      pop\n      pop\n      jump\t// out\n        /* \"#utility.yul\":19270:19399   */\n    tag_314:\n        /* \"#utility.yul\":19304:19310   */\n      0x00\n        /* \"#utility.yul\":19331:19351   */\n      tag_545\n      tag_546\n      jump\t// in\n    tag_545:\n        /* \"#utility.yul\":19321:19351   */\n      swap1\n      pop\n        /* \"#utility.yul\":19360:19393   */\n      tag_547\n        /* \"#utility.yul\":19388:19392   */\n      dup3\n        /* \"#utility.yul\":19380:19386   */\n      dup3\n        /* \"#utility.yul\":19360:19393   */\n      tag_548\n      jump\t// in\n    tag_547:\n        /* \"#utility.yul\":19270:19399   */\n      swap2\n      swap1\n      pop\n      jump\t// out\n        /* \"#utility.yul\":19405:19480   */\n    tag_546:\n        /* \"#utility.yul\":19438:19444   */\n      0x00\n        /* \"#utility.yul\":19471:19473   */\n      0x40\n        /* \"#utility.yul\":19465:19474   */\n      mload\n        /* \"#utility.yul\":19455:19474   */\n      swap1\n      pop\n        /* \"#utility.yul\":19405:19480   */\n      swap1\n      jump\t// out\n        /* \"#utility.yul\":19486:19794   */\n    tag_313:\n        /* \"#utility.yul\":19548:19552   */\n      0x00\n        /* \"#utility.yul\":19638:19656   */\n      0xffffffffffffffff\n        /* \"#utility.yul\":19630:19636   */\n      dup3\n        /* \"#utility.yul\":19627:19657   */\n      gt\n        /* \"#utility.yul\":19624:19680   */\n      iszero\n      tag_551\n      jumpi\n        /* \"#utility.yul\":19660:19678   */\n      tag_552\n      tag_245\n      jump\t// in\n    tag_552:\n        /* \"#utility.yul\":19624:19680   */\n    tag_551:\n        /* \"#utility.yul\":19698:19727   */\n      tag_553\n        /* \"#utility.yul\":19720:19726   */\n      dup3\n        /* \"#utility.yul\":19698:19727   */\n      tag_432\n      jump\t// in\n    tag_553:\n        /* \"#utility.yul\":19690:19727   */\n      swap1\n      pop\n        /* \"#utility.yul\":19782:19786   */\n      0x20\n        /* \"#utility.yul\":19776:19780   */\n      dup2\n        /* \"#utility.yul\":19772:19787   */\n      add\n        /* \"#utility.yul\":19764:19787   */\n      swap1\n      pop\n        /* \"#utility.yul\":19486:19794   */\n      swap2\n      swap1\n      pop\n      jump\t// out\n        /* \"#utility.yul\":19800:19932   */\n    tag_390:\n        /* \"#utility.yul\":19867:19871   */\n      0x00\n        /* \"#utility.yul\":19890:19893   */\n      dup2\n        /* \"#utility.yul\":19882:19893   */\n      swap1\n      pop\n        /* \"#utility.yul\":19920:19924   */\n      0x20\n        /* \"#utility.yul\":19915:19918   */\n      dup3\n        /* \"#utility.yul\":19911:19925   */\n      add\n        /* \"#utility.yul\":19903:19925   */\n      swap1\n      pop\n        /* \"#utility.yul\":19800:19932   */\n      swap2\n      swap1\n      pop\n      jump\t// out\n        /* \"#utility.yul\":19938:20070   */\n    tag_404:\n        /* \"#utility.yul\":20005:20009   */\n      0x00\n        /* \"#utility.yul\":20028:20031   */\n      dup2\n        /* \"#utility.yul\":20020:20031   */\n      swap1\n      pop\n        /* \"#utility.yul\":20058:20062   */\n      0x20\n        /* \"#utility.yul\":20053:20056   */\n      dup3\n        /* \"#utility.yul\":20049:20063   */\n      add\n        /* \"#utility.yul\":20041:20063   */\n      swap1\n      pop\n        /* \"#utility.yul\":19938:20070   */\n      swap2\n      swap1\n      pop\n      jump\t// out\n        /* \"#utility.yul\":20076:20190   */\n    tag_386:\n        /* \"#utility.yul\":20143:20149   */\n      0x00\n        /* \"#utility.yul\":20177:20182   */\n      dup2\n        /* \"#utility.yul\":20171:20183   */\n      mload\n        /* \"#utility.yul\":20161:20183   */\n      swap1\n      pop\n        /* \"#utility.yul\":20076:20190   */\n      swap2\n      swap1\n      pop\n      jump\t// out\n        /* \"#utility.yul\":20196:20310   */\n    tag_400:\n        /* \"#utility.yul\":20263:20269   */\n      0x00\n        /* \"#utility.yul\":20297:20302   */\n      dup2\n        /* \"#utility.yul\":20291:20303   */\n      mload\n        /* \"#utility.yul\":20281:20303   */\n      swap1\n      pop\n        /* \"#utility.yul\":20196:20310   */\n      swap2\n      swap1\n      pop\n      jump\t// out\n        /* \"#utility.yul\":20316:20415   */\n    tag_426:\n        /* \"#utility.yul\":20368:20374   */\n      0x00\n        /* \"#utility.yul\":20402:20407   */\n      dup2\n        /* \"#utility.yul\":20396:20408   */\n      mload\n        /* \"#utility.yul\":20386:20408   */\n      swap1\n      pop\n        /* \"#utility.yul\":20316:20415   */\n      swap2\n      swap1\n      pop\n      jump\t// out\n        /* \"#utility.yul\":20421:20534   */\n    tag_396:\n        /* \"#utility.yul\":20491:20495   */\n      0x00\n        /* \"#utility.yul\":20523:20527   */\n      0x20\n        /* \"#utility.yul\":20518:20521   */\n      dup3\n        /* \"#utility.yul\":20514:20528   */\n      add\n        /* \"#utility.yul\":20506:20528   */\n      swap1\n      pop\n        /* \"#utility.yul\":20421:20534   */\n      swap2\n      swap1\n      pop\n      jump\t// out\n        /* \"#utility.yul\":20540:20653   */\n    tag_410:\n        /* \"#utility.yul\":20610:20614   */\n      0x00\n        /* \"#utility.yul\":20642:20646   */\n      0x20\n        /* \"#utility.yul\":20637:20640   */\n      dup3\n        /* \"#utility.yul\":20633:20647   */\n      add\n        /* \"#utility.yul\":20625:20647   */\n      swap1\n      pop\n        /* \"#utility.yul\":20540:20653   */\n      swap2\n      swap1\n      pop\n      jump\t// out\n        /* \"#utility.yul\":20659:20843   */\n    tag_388:\n        /* \"#utility.yul\":20758:20769   */\n      0x00\n        /* \"#utility.yul\":20792:20798   */\n      dup3\n        /* \"#utility.yul\":20787:20790   */\n      dup3\n        /* \"#utility.yul\":20780:20799   */\n      mstore\n        /* \"#utility.yul\":20832:20836   */\n      0x20\n        /* \"#utility.yul\":20827:20830   */\n      dup3\n        /* \"#utility.yul\":20823:20837   */\n      add\n        /* \"#utility.yul\":20808:20837   */\n      swap1\n      pop\n        /* \"#utility.yul\":20659:20843   */\n      swap3\n      swap2\n      pop\n      pop\n      jump\t// out\n        /* \"#utility.yul\":20849:21033   */\n    tag_402:\n        /* \"#utility.yul\":20948:20959   */\n      0x00\n        /* \"#utility.yul\":20982:20988   */\n      dup3\n        /* \"#utility.yul\":20977:20980   */\n      dup3\n        /* \"#utility.yul\":20970:20989   */\n      mstore\n        /* \"#utility.yul\":21022:21026   */\n      0x20\n        /* \"#utility.yul\":21017:21020   */\n      dup3\n        /* \"#utility.yul\":21013:21027   */\n      add\n        /* \"#utility.yul\":20998:21027   */\n      swap1\n      pop\n        /* \"#utility.yul\":20849:21033   */\n      swap3\n      swap2\n      pop\n      pop\n      jump\t// out\n        /* \"#utility.yul\":21039:21208   */\n    tag_428:\n        /* \"#utility.yul\":21123:21134   */\n      0x00\n        /* \"#utility.yul\":21157:21163   */\n      dup3\n        /* \"#utility.yul\":21152:21155   */\n      dup3\n        /* \"#utility.yul\":21145:21164   */\n      mstore\n        /* \"#utility.yul\":21197:21201   */\n      0x20\n        /* \"#utility.yul\":21192:21195   */\n      dup3\n        /* \"#utility.yul\":21188:21202   */\n      add\n        /* \"#utility.yul\":21173:21202   */\n      swap1\n      pop\n        /* \"#utility.yul\":21039:21208   */\n      swap3\n      swap2\n      pop\n      pop\n      jump\t// out\n        /* \"#utility.yul\":21214:21519   */\n    tag_163:\n        /* \"#utility.yul\":21254:21257   */\n      0x00\n        /* \"#utility.yul\":21273:21293   */\n      tag_565\n        /* \"#utility.yul\":21291:21292   */\n      dup3\n        /* \"#utility.yul\":21273:21293   */\n      tag_490\n      jump\t// in\n    tag_565:\n        /* \"#utility.yul\":21268:21293   */\n      swap2\n      pop\n        /* \"#utility.yul\":21307:21327   */\n      tag_566\n        /* \"#utility.yul\":21325:21326   */\n      dup4\n        /* \"#utility.yul\":21307:21327   */\n      tag_490\n      jump\t// in\n    tag_566:\n        /* \"#utility.yul\":21302:21327   */\n      swap3\n      pop\n        /* \"#utility.yul\":21461:21462   */\n      dup3\n        /* \"#utility.yul\":21393:21459   */\n      0xffffffffffffffffffffffffffffffffffffffffffffffffffffffffffffffff\n        /* \"#utility.yul\":21389:21463   */\n      sub\n        /* \"#utility.yul\":21386:21387   */\n      dup3\n        /* \"#utility.yul\":21383:21464   */\n      gt\n        /* \"#utility.yul\":21380:21487   */\n      iszero\n      tag_567\n      jumpi\n        /* \"#utility.yul\":21467:21485   */\n      tag_568\n      tag_569\n      jump\t// in\n    tag_568:\n        /* \"#utility.yul\":21380:21487   */\n    tag_567:\n        /* \"#utility.yul\":21511:21512   */\n      dup3\n        /* \"#utility.yul\":21508:21509   */\n      dup3\n        /* \"#utility.yul\":21504:21513   */\n      add\n        /* \"#utility.yul\":21497:21513   */\n      swap1\n      pop\n        /* \"#utility.yul\":21214:21519   */\n      swap3\n      swap2\n      pop\n      pop\n      jump\t// out\n        /* \"#utility.yul\":21525:21710   */\n    tag_161:\n        /* \"#utility.yul\":21565:21566   */\n      0x00\n        /* \"#utility.yul\":21582:21602   */\n      tag_571\n        /* \"#utility.yul\":21600:21601   */\n      dup3\n        /* \"#utility.yul\":21582:21602   */\n      tag_490\n      jump\t// in\n    tag_571:\n        /* \"#utility.yul\":21577:21602   */\n      swap2\n      pop\n        /* \"#utility.yul\":21616:21636   */\n      tag_572\n        /* \"#utility.yul\":21634:21635   */\n      dup4\n        /* \"#utility.yul\":21616:21636   */\n      tag_490\n      jump\t// in\n    tag_572:\n        /* \"#utility.yul\":21611:21636   */\n      swap3\n      pop\n        /* \"#utility.yul\":21655:21656   */\n      dup3\n        /* \"#utility.yul\":21645:21680   */\n      tag_573\n      jumpi\n        /* \"#utility.yul\":21660:21678   */\n      tag_574\n      tag_575\n      jump\t// in\n    tag_574:\n        /* \"#utility.yul\":21645:21680   */\n    tag_573:\n        /* \"#utility.yul\":21702:21703   */\n      dup3\n        /* \"#utility.yul\":21699:21700   */\n      dup3\n        /* \"#utility.yul\":21695:21704   */\n      div\n        /* \"#utility.yul\":21690:21704   */\n      swap1\n      pop\n        /* \"#utility.yul\":21525:21710   */\n      swap3\n      swap2\n      pop\n      pop\n      jump\t// out\n        /* \"#utility.yul\":21716:22064   */\n    tag_191:\n        /* \"#utility.yul\":21756:21763   */\n      0x00\n        /* \"#utility.yul\":21779:21799   */\n      tag_577\n        /* \"#utility.yul\":21797:21798   */\n      dup3\n        /* \"#utility.yul\":21779:21799   */\n      tag_490\n      jump\t// in\n    tag_577:\n        /* \"#utility.yul\":21774:21799   */\n      swap2\n      pop\n        /* \"#utility.yul\":21813:21833   */\n      tag_578\n        /* \"#utility.yul\":21831:21832   */\n      dup4\n        /* \"#utility.yul\":21813:21833   */\n      tag_490\n      jump\t// in\n    tag_578:\n        /* \"#utility.yul\":21808:21833   */\n      swap3\n      pop\n        /* \"#utility.yul\":22001:22002   */\n      dup2\n        /* \"#utility.yul\":21933:21999   */\n      0xffffffffffffffffffffffffffffffffffffffffffffffffffffffffffffffff\n        /* \"#utility.yul\":21929:22003   */\n      div\n        /* \"#utility.yul\":21926:21927   */\n      dup4\n        /* \"#utility.yul\":21923:22004   */\n      gt\n        /* \"#utility.yul\":21918:21919   */\n      dup3\n        /* \"#utility.yul\":21911:21920   */\n      iszero\n        /* \"#utility.yul\":21904:21921   */\n      iszero\n        /* \"#utility.yul\":21900:22005   */\n      and\n        /* \"#utility.yul\":21897:22028   */\n      iszero\n      tag_579\n      jumpi\n        /* \"#utility.yul\":22008:22026   */\n      tag_580\n      tag_569\n      jump\t// in\n    tag_580:\n        /* \"#utility.yul\":21897:22028   */\n    tag_579:\n        /* \"#utility.yul\":22056:22057   */\n      dup3\n        /* \"#utility.yul\":22053:22054   */\n      dup3\n        /* \"#utility.yul\":22049:22058   */\n      mul\n        /* \"#utility.yul\":22038:22058   */\n      swap1\n      pop\n        /* \"#utility.yul\":21716:22064   */\n      swap3\n      swap2\n      pop\n      pop\n      jump\t// out\n        /* \"#utility.yul\":22070:22166   */\n    tag_379:\n        /* \"#utility.yul\":22107:22114   */\n      0x00\n        /* \"#utility.yul\":22136:22160   */\n      tag_582\n        /* \"#utility.yul\":22154:22159   */\n      dup3\n        /* \"#utility.yul\":22136:22160   */\n      tag_583\n      jump\t// in\n    tag_582:\n        /* \"#utility.yul\":22125:22160   */\n      swap1\n      pop\n        /* \"#utility.yul\":22070:22166   */\n      swap2\n      swap1\n      pop\n      jump\t// out\n        /* \"#utility.yul\":22172:22276   */\n    tag_376:\n        /* \"#utility.yul\":22217:22224   */\n      0x00\n        /* \"#utility.yul\":22246:22270   */\n      tag_585\n        /* \"#utility.yul\":22264:22269   */\n      dup3\n        /* \"#utility.yul\":22246:22270   */\n      tag_583\n      jump\t// in\n    tag_585:\n        /* \"#utility.yul\":22235:22270   */\n      swap1\n      pop\n        /* \"#utility.yul\":22172:22276   */\n      swap2\n      swap1\n      pop\n      jump\t// out\n        /* \"#utility.yul\":22282:22372   */\n    tag_414:\n        /* \"#utility.yul\":22316:22323   */\n      0x00\n        /* \"#utility.yul\":22359:22364   */\n      dup2\n        /* \"#utility.yul\":22352:22365   */\n      iszero\n        /* \"#utility.yul\":22345:22366   */\n      iszero\n        /* \"#utility.yul\":22334:22366   */\n      swap1\n      pop\n        /* \"#utility.yul\":22282:22372   */\n      swap2\n      swap1\n      pop\n      jump\t// out\n        /* \"#utility.yul\":22378:22523   */\n    tag_587:\n        /* \"#utility.yul\":22432:22439   */\n      0x00\n        /* \"#utility.yul\":22461:22466   */\n      dup2\n        /* \"#utility.yul\":22450:22466   */\n      swap1\n      pop\n        /* \"#utility.yul\":22467:22517   */\n      tag_589\n        /* \"#utility.yul\":22511:22516   */\n      dup3\n        /* \"#utility.yul\":22467:22517   */\n      tag_590\n      jump\t// in\n    tag_589:\n        /* \"#utility.yul\":22378:22523   */\n      swap2\n      swap1\n      pop\n      jump\t// out\n        /* \"#utility.yul\":22529:22656   */\n    tag_591:\n        /* \"#utility.yul\":22574:22581   */\n      0x00\n        /* \"#utility.yul\":22603:22608   */\n      dup2\n        /* \"#utility.yul\":22592:22608   */\n      swap1\n      pop\n        /* \"#utility.yul\":22609:22650   */\n      tag_593\n        /* \"#utility.yul\":22644:22649   */\n      dup3\n        /* \"#utility.yul\":22609:22650   */\n      tag_594\n      jump\t// in\n    tag_593:\n        /* \"#utility.yul\":22529:22656   */\n      swap2\n      swap1\n      pop\n      jump\t// out\n        /* \"#utility.yul\":22662:22788   */\n    tag_583:\n        /* \"#utility.yul\":22699:22706   */\n      0x00\n        /* \"#utility.yul\":22739:22781   */\n      0xffffffffffffffffffffffffffffffffffffffff\n        /* \"#utility.yul\":22732:22737   */\n      dup3\n        /* \"#utility.yul\":22728:22782   */\n      and\n        /* \"#utility.yul\":22717:22782   */\n      swap1\n      pop\n        /* \"#utility.yul\":22662:22788   */\n      swap2\n      swap1\n      pop\n      jump\t// out\n        /* \"#utility.yul\":22794:22871   */\n    tag_490:\n        /* \"#utility.yul\":22831:22838   */\n      0x00\n        /* \"#utility.yul\":22860:22865   */\n      dup2\n        /* \"#utility.yul\":22849:22865   */\n      swap1\n      pop\n        /* \"#utility.yul\":22794:22871   */\n      swap2\n      swap1\n      pop\n      jump\t// out\n        /* \"#utility.yul\":22877:23022   */\n    tag_418:\n        /* \"#utility.yul\":22942:22951   */\n      0x00\n        /* \"#utility.yul\":22975:23016   */\n      tag_598\n        /* \"#utility.yul\":23010:23015   */\n      dup3\n        /* \"#utility.yul\":22975:23016   */\n      tag_587\n      jump\t// in\n    tag_598:\n        /* \"#utility.yul\":22962:23016   */\n      swap1\n      pop\n        /* \"#utility.yul\":22877:23022   */\n      swap2\n      swap1\n      pop\n      jump\t// out\n        /* \"#utility.yul\":23028:23155   */\n    tag_422:\n        /* \"#utility.yul\":23084:23093   */\n      0x00\n        /* \"#utility.yul\":23117:23149   */\n      tag_600\n        /* \"#utility.yul\":23143:23148   */\n      dup3\n        /* \"#utility.yul\":23117:23149   */\n      tag_591\n      jump\t// in\n    tag_600:\n        /* \"#utility.yul\":23104:23149   */\n      swap1\n      pop\n        /* \"#utility.yul\":23028:23155   */\n      swap2\n      swap1\n      pop\n      jump\t// out\n        /* \"#utility.yul\":23161:23315   */\n    tag_319:\n        /* \"#utility.yul\":23245:23251   */\n      dup3\n        /* \"#utility.yul\":23240:23243   */\n      dup2\n        /* \"#utility.yul\":23235:23238   */\n      dup4\n        /* \"#utility.yul\":23222:23252   */\n      calldatacopy\n        /* \"#utility.yul\":23307:23308   */\n      0x00\n        /* \"#utility.yul\":23298:23304   */\n      dup4\n        /* \"#utility.yul\":23293:23296   */\n      dup4\n        /* \"#utility.yul\":23289:23305   */\n      add\n        /* \"#utility.yul\":23282:23309   */\n      mstore\n        /* \"#utility.yul\":23161:23315   */\n      pop\n      pop\n      pop\n      jump\t// out\n        /* \"#utility.yul\":23321:23628   */\n    tag_430:\n        /* \"#utility.yul\":23389:23390   */\n      0x00\n        /* \"#utility.yul\":23399:23512   */\n    tag_603:\n        /* \"#utility.yul\":23413:23419   */\n      dup4\n        /* \"#utility.yul\":23410:23411   */\n      dup2\n        /* \"#utility.yul\":23407:23420   */\n      lt\n        /* \"#utility.yul\":23399:23512   */\n      iszero\n      tag_605\n      jumpi\n        /* \"#utility.yul\":23498:23499   */\n      dup1\n        /* \"#utility.yul\":23493:23496   */\n      dup3\n        /* \"#utility.yul\":23489:23500   */\n      add\n        /* \"#utility.yul\":23483:23501   */\n      mload\n        /* \"#utility.yul\":23479:23480   */\n      dup2\n        /* \"#utility.yul\":23474:23477   */\n      dup5\n        /* \"#utility.yul\":23470:23481   */\n      add\n        /* \"#utility.yul\":23463:23502   */\n      mstore\n        /* \"#utility.yul\":23435:23437   */\n      0x20\n        /* \"#utility.yul\":23432:23433   */\n      dup2\n        /* \"#utility.yul\":23428:23438   */\n      add\n        /* \"#utility.yul\":23423:23438   */\n      swap1\n      pop\n        /* \"#utility.yul\":23399:23512   */\n      jump(tag_603)\n    tag_605:\n        /* \"#utility.yul\":23530:23536   */\n      dup4\n        /* \"#utility.yul\":23527:23528   */\n      dup2\n        /* \"#utility.yul\":23524:23537   */\n      gt\n        /* \"#utility.yul\":23521:23622   */\n      iszero\n      tag_606\n      jumpi\n        /* \"#utility.yul\":23610:23611   */\n      0x00\n        /* \"#utility.yul\":23601:23607   */\n      dup5\n        /* \"#utility.yul\":23596:23599   */\n      dup5\n        /* \"#utility.yul\":23592:23608   */\n      add\n        /* \"#utility.yul\":23585:23612   */\n      mstore\n        /* \"#utility.yul\":23521:23622   */\n    tag_606:\n        /* \"#utility.yul\":23370:23628   */\n      pop\n        /* \"#utility.yul\":23321:23628   */\n      pop\n      pop\n      pop\n      jump\t// out\n        /* \"#utility.yul\":23634:23954   */\n    tag_167:\n        /* \"#utility.yul\":23678:23684   */\n      0x00\n        /* \"#utility.yul\":23715:23716   */\n      0x02\n        /* \"#utility.yul\":23709:23713   */\n      dup3\n        /* \"#utility.yul\":23705:23717   */\n      div\n        /* \"#utility.yul\":23695:23717   */\n      swap1\n      pop\n        /* \"#utility.yul\":23762:23763   */\n      0x01\n        /* \"#utility.yul\":23756:23760   */\n      dup3\n        /* \"#utility.yul\":23752:23764   */\n      and\n        /* \"#utility.yul\":23783:23801   */\n      dup1\n        /* \"#utility.yul\":23773:23854   */\n      tag_608\n      jumpi\n        /* \"#utility.yul\":23839:23843   */\n      0x7f\n        /* \"#utility.yul\":23831:23837   */\n      dup3\n        /* \"#utility.yul\":23827:23844   */\n      and\n        /* \"#utility.yul\":23817:23844   */\n      swap2\n      pop\n        /* \"#utility.yul\":23773:23854   */\n    tag_608:\n        /* \"#utility.yul\":23901:23903   */\n      0x20\n        /* \"#utility.yul\":23893:23899   */\n      dup3\n        /* \"#utility.yul\":23890:23904   */\n      lt\n        /* \"#utility.yul\":23870:23888   */\n      dup2\n        /* \"#utility.yul\":23867:23905   */\n      eq\n        /* \"#utility.yul\":23864:23948   */\n      iszero\n      tag_609\n      jumpi\n        /* \"#utility.yul\":23920:23938   */\n      tag_610\n      tag_611\n      jump\t// in\n    tag_610:\n        /* \"#utility.yul\":23864:23948   */\n    tag_609:\n        /* \"#utility.yul\":23685:23954   */\n      pop\n        /* \"#utility.yul\":23634:23954   */\n      swap2\n      swap1\n      pop\n      jump\t// out\n        /* \"#utility.yul\":23960:24241   */\n    tag_548:\n        /* \"#utility.yul\":24043:24070   */\n      tag_613\n        /* \"#utility.yul\":24065:24069   */\n      dup3\n        /* \"#utility.yul\":24043:24070   */\n      tag_432\n      jump\t// in\n    tag_613:\n        /* \"#utility.yul\":24035:24041   */\n      dup2\n        /* \"#utility.yul\":24031:24071   */\n      add\n        /* \"#utility.yul\":24173:24179   */\n      dup2\n        /* \"#utility.yul\":24161:24171   */\n      dup2\n        /* \"#utility.yul\":24158:24180   */\n      lt\n        /* \"#utility.yul\":24137:24155   */\n      0xffffffffffffffff\n        /* \"#utility.yul\":24125:24135   */\n      dup3\n        /* \"#utility.yul\":24122:24156   */\n      gt\n        /* \"#utility.yul\":24119:24181   */\n      or\n        /* \"#utility.yul\":24116:24204   */\n      iszero\n      tag_614\n      jumpi\n        /* \"#utility.yul\":24184:24202   */\n      tag_615\n      tag_245\n      jump\t// in\n    tag_615:\n        /* \"#utility.yul\":24116:24204   */\n    tag_614:\n        /* \"#utility.yul\":24224:24234   */\n      dup1\n        /* \"#utility.yul\":24220:24222   */\n      0x40\n        /* \"#utility.yul\":24213:24235   */\n      mstore\n        /* \"#utility.yul\":24003:24241   */\n      pop\n        /* \"#utility.yul\":23960:24241   */\n      pop\n      pop\n      jump\t// out\n        /* \"#utility.yul\":24247:24480   */\n    tag_259:\n        /* \"#utility.yul\":24286:24289   */\n      0x00\n        /* \"#utility.yul\":24309:24333   */\n      tag_617\n        /* \"#utility.yul\":24327:24332   */\n      dup3\n        /* \"#utility.yul\":24309:24333   */\n      tag_490\n      jump\t// in\n    tag_617:\n        /* \"#utility.yul\":24300:24333   */\n      swap2\n      pop\n        /* \"#utility.yul\":24355:24421   */\n      0xffffffffffffffffffffffffffffffffffffffffffffffffffffffffffffffff\n        /* \"#utility.yul\":24348:24353   */\n      dup3\n        /* \"#utility.yul\":24345:24422   */\n      eq\n        /* \"#utility.yul\":24342:24445   */\n      iszero\n      tag_618\n      jumpi\n        /* \"#utility.yul\":24425:24443   */\n      tag_619\n      tag_569\n      jump\t// in\n    tag_619:\n        /* \"#utility.yul\":24342:24445   */\n    tag_618:\n        /* \"#utility.yul\":24472:24473   */\n      0x01\n        /* \"#utility.yul\":24465:24470   */\n      dup3\n        /* \"#utility.yul\":24461:24474   */\n      add\n        /* \"#utility.yul\":24454:24474   */\n      swap1\n      pop\n        /* \"#utility.yul\":24247:24480   */\n      swap2\n      swap1\n      pop\n      jump\t// out\n        /* \"#utility.yul\":24486:24666   */\n    tag_569:\n        /* \"#utility.yul\":24534:24611   */\n      0x4e487b7100000000000000000000000000000000000000000000000000000000\n        /* \"#utility.yul\":24531:24532   */\n      0x00\n        /* \"#utility.yul\":24524:24612   */\n      mstore\n        /* \"#utility.yul\":24631:24635   */\n      0x11\n        /* \"#utility.yul\":24628:24629   */\n      0x04\n        /* \"#utility.yul\":24621:24636   */\n      mstore\n        /* \"#utility.yul\":24655:24659   */\n      0x24\n        /* \"#utility.yul\":24652:24653   */\n      0x00\n        /* \"#utility.yul\":24645:24660   */\n      revert\n        /* \"#utility.yul\":24672:24852   */\n    tag_575:\n        /* \"#utility.yul\":24720:24797   */\n      0x4e487b7100000000000000000000000000000000000000000000000000000000\n        /* \"#utility.yul\":24717:24718   */\n      0x00\n        /* \"#utility.yul\":24710:24798   */\n      mstore\n        /* \"#utility.yul\":24817:24821   */\n      0x12\n        /* \"#utility.yul\":24814:24815   */\n      0x04\n        /* \"#utility.yul\":24807:24822   */\n      mstore\n        /* \"#utility.yul\":24841:24845   */\n      0x24\n        /* \"#utility.yul\":24838:24839   */\n      0x00\n        /* \"#utility.yul\":24831:24846   */\n      revert\n        /* \"#utility.yul\":24858:25038   */\n    tag_152:\n        /* \"#utility.yul\":24906:24983   */\n      0x4e487b7100000000000000000000000000000000000000000000000000000000\n        /* \"#utility.yul\":24903:24904   */\n      0x00\n        /* \"#utility.yul\":24896:24984   */\n      mstore\n        /* \"#utility.yul\":25003:25007   */\n      0x21\n        /* \"#utility.yul\":25000:25001   */\n      0x04\n        /* \"#utility.yul\":24993:25008   */\n      mstore\n        /* \"#utility.yul\":25027:25031   */\n      0x24\n        /* \"#utility.yul\":25024:25025   */\n      0x00\n        /* \"#utility.yul\":25017:25032   */\n      revert\n        /* \"#utility.yul\":25044:25224   */\n    tag_611:\n        /* \"#utility.yul\":25092:25169   */\n      0x4e487b7100000000000000000000000000000000000000000000000000000000\n        /* \"#utility.yul\":25089:25090   */\n      0x00\n        /* \"#utility.yul\":25082:25170   */\n      mstore\n        /* \"#utility.yul\":25189:25193   */\n      0x22\n        /* \"#utility.yul\":25186:25187   */\n      0x04\n        /* \"#utility.yul\":25179:25194   */\n      mstore\n        /* \"#utility.yul\":25213:25217   */\n      0x24\n        /* \"#utility.yul\":25210:25211   */\n      0x00\n        /* \"#utility.yul\":25203:25218   */\n      revert\n        /* \"#utility.yul\":25230:25410   */\n    tag_257:\n        /* \"#utility.yul\":25278:25355   */\n      0x4e487b7100000000000000000000000000000000000000000000000000000000\n        /* \"#utility.yul\":25275:25276   */\n      0x00\n        /* \"#utility.yul\":25268:25356   */\n      mstore\n        /* \"#utility.yul\":25375:25379   */\n      0x32\n        /* \"#utility.yul\":25372:25373   */\n      0x04\n        /* \"#utility.yul\":25365:25380   */\n      mstore\n        /* \"#utility.yul\":25399:25403   */\n      0x24\n        /* \"#utility.yul\":25396:25397   */\n      0x00\n        /* \"#utility.yul\":25389:25404   */\n      revert\n        /* \"#utility.yul\":25416:25596   */\n    tag_245:\n        /* \"#utility.yul\":25464:25541   */\n      0x4e487b7100000000000000000000000000000000000000000000000000000000\n        /* \"#utility.yul\":25461:25462   */\n      0x00\n        /* \"#utility.yul\":25454:25542   */\n      mstore\n        /* \"#utility.yul\":25561:25565   */\n      0x41\n        /* \"#utility.yul\":25558:25559   */\n      0x04\n        /* \"#utility.yul\":25551:25566   */\n      mstore\n        /* \"#utility.yul\":25585:25589   */\n      0x24\n        /* \"#utility.yul\":25582:25583   */\n      0x00\n        /* \"#utility.yul\":25575:25590   */\n      revert\n        /* \"#utility.yul\":25602:25719   */\n    tag_336:\n        /* \"#utility.yul\":25711:25712   */\n      0x00\n        /* \"#utility.yul\":25708:25709   */\n      dup1\n        /* \"#utility.yul\":25701:25713   */\n      revert\n        /* \"#utility.yul\":25725:25842   */\n    tag_317:\n        /* \"#utility.yul\":25834:25835   */\n      0x00\n        /* \"#utility.yul\":25831:25832   */\n      dup1\n        /* \"#utility.yul\":25824:25836   */\n      revert\n        /* \"#utility.yul\":25848:25965   */\n    tag_352:\n        /* \"#utility.yul\":25957:25958   */\n      0x00\n        /* \"#utility.yul\":25954:25955   */\n      dup1\n        /* \"#utility.yul\":25947:25959   */\n      revert\n        /* \"#utility.yul\":25971:26088   */\n    tag_345:\n        /* \"#utility.yul\":26080:26081   */\n      0x00\n        /* \"#utility.yul\":26077:26078   */\n      dup1\n        /* \"#utility.yul\":26070:26082   */\n      revert\n        /* \"#utility.yul\":26094:26196   */\n    tag_432:\n        /* \"#utility.yul\":26135:26141   */\n      0x00\n        /* \"#utility.yul\":26186:26188   */\n      0x1f\n        /* \"#utility.yul\":26182:26189   */\n      not\n        /* \"#utility.yul\":26177:26179   */\n      0x1f\n        /* \"#utility.yul\":26170:26175   */\n      dup4\n        /* \"#utility.yul\":26166:26180   */\n      add\n        /* \"#utility.yul\":26162:26190   */\n      and\n        /* \"#utility.yul\":26152:26190   */\n      swap1\n      pop\n        /* \"#utility.yul\":26094:26196   */\n      swap2\n      swap1\n      pop\n      jump\t// out\n        /* \"#utility.yul\":26202:26371   */\n    tag_437:\n        /* \"#utility.yul\":26342:26363   */\n      0x43616d70616e7961206e6f206162696572746100000000000000000000000000\n        /* \"#utility.yul\":26338:26339   */\n      0x00\n        /* \"#utility.yul\":26330:26336   */\n      dup3\n        /* \"#utility.yul\":26326:26340   */\n      add\n        /* \"#utility.yul\":26319:26364   */\n      mstore\n        /* \"#utility.yul\":26202:26371   */\n      pop\n      jump\t// out\n        /* \"#utility.yul\":26377:26597   */\n    tag_442:\n        /* \"#utility.yul\":26517:26551   */\n      0x50617274696369706163696f6e206d696e696d61206e6f20616c63616e7a6164\n        /* \"#utility.yul\":26513:26514   */\n      0x00\n        /* \"#utility.yul\":26505:26511   */\n      dup3\n        /* \"#utility.yul\":26501:26515   */\n      add\n        /* \"#utility.yul\":26494:26552   */\n      mstore\n        /* \"#utility.yul\":26586:26589   */\n      0x6100000000000000000000000000000000000000000000000000000000000000\n        /* \"#utility.yul\":26581:26583   */\n      0x20\n        /* \"#utility.yul\":26573:26579   */\n      dup3\n        /* \"#utility.yul\":26569:26584   */\n      add\n        /* \"#utility.yul\":26562:26590   */\n      mstore\n        /* \"#utility.yul\":26377:26597   */\n      pop\n      jump\t// out\n        /* \"#utility.yul\":26603:26783   */\n    tag_447:\n        /* \"#utility.yul\":26743:26775   */\n      0x46696e616c697a61646f20706c617a6f2070617274696369706163696f6e0000\n        /* \"#utility.yul\":26739:26740   */\n      0x00\n        /* \"#utility.yul\":26731:26737   */\n      dup3\n        /* \"#utility.yul\":26727:26741   */\n      add\n        /* \"#utility.yul\":26720:26776   */\n      mstore\n        /* \"#utility.yul\":26603:26783   */\n      pop\n      jump\t// out\n        /* \"#utility.yul\":26789:26962   */\n    tag_452:\n        /* \"#utility.yul\":26929:26954   */\n      0x43616d7061696e206973206e6f74206f76657220796574000000000000000000\n        /* \"#utility.yul\":26925:26926   */\n      0x00\n        /* \"#utility.yul\":26917:26923   */\n      dup3\n        /* \"#utility.yul\":26913:26927   */\n      add\n        /* \"#utility.yul\":26906:26955   */\n      mstore\n        /* \"#utility.yul\":26789:26962   */\n      pop\n      jump\t// out\n        /* \"#utility.yul\":26968:27139   */\n    tag_457:\n        /* \"#utility.yul\":27108:27131   */\n      0x43616d70616e7961206e6f2063616e63656c6164610000000000000000000000\n        /* \"#utility.yul\":27104:27105   */\n      0x00\n        /* \"#utility.yul\":27096:27102   */\n      dup3\n        /* \"#utility.yul\":27092:27106   */\n      add\n        /* \"#utility.yul\":27085:27132   */\n      mstore\n        /* \"#utility.yul\":26968:27139   */\n      pop\n      jump\t// out\n        /* \"#utility.yul\":27145:27316   */\n    tag_462:\n        /* \"#utility.yul\":27285:27308   */\n      0x7065746963696f6e20696e6578697374656e7472650000000000000000000000\n        /* \"#utility.yul\":27281:27282   */\n      0x00\n        /* \"#utility.yul\":27273:27279   */\n      dup3\n        /* \"#utility.yul\":27269:27283   */\n      add\n        /* \"#utility.yul\":27262:27309   */\n      mstore\n        /* \"#utility.yul\":27145:27316   */\n      pop\n      jump\t// out\n        /* \"#utility.yul\":27322:27492   */\n    tag_467:\n        /* \"#utility.yul\":27462:27484   */\n      0x5065746963696f6e20696e6578697374656e7465000000000000000000000000\n        /* \"#utility.yul\":27458:27459   */\n      0x00\n        /* \"#utility.yul\":27450:27456   */\n      dup3\n        /* \"#utility.yul\":27446:27460   */\n      add\n        /* \"#utility.yul\":27439:27485   */\n      mstore\n        /* \"#utility.yul\":27322:27492   */\n      pop\n      jump\t// out\n        /* \"#utility.yul\":27498:27674   */\n    tag_472:\n        /* \"#utility.yul\":27638:27666   */\n      0x5065746963696f6e206465626520657374617220616374697661000000000000\n        /* \"#utility.yul\":27634:27635   */\n      0x00\n        /* \"#utility.yul\":27626:27632   */\n      dup3\n        /* \"#utility.yul\":27622:27636   */\n      add\n        /* \"#utility.yul\":27615:27667   */\n      mstore\n        /* \"#utility.yul\":27498:27674   */\n      pop\n      jump\t// out\n        /* \"#utility.yul\":27680:27850   */\n    tag_477:\n        /* \"#utility.yul\":27820:27842   */\n      0x4f6e6c792043616d7061696e206d616e61676572000000000000000000000000\n        /* \"#utility.yul\":27816:27817   */\n      0x00\n        /* \"#utility.yul\":27808:27814   */\n      dup3\n        /* \"#utility.yul\":27804:27818   */\n      add\n        /* \"#utility.yul\":27797:27843   */\n      mstore\n        /* \"#utility.yul\":27680:27850   */\n      pop\n      jump\t// out\n        /* \"#utility.yul\":27856:28022   */\n    tag_482:\n        /* \"#utility.yul\":27996:28014   */\n      0x666f6e646f7320726574697261646f7300000000000000000000000000000000\n        /* \"#utility.yul\":27992:27993   */\n      0x00\n        /* \"#utility.yul\":27984:27990   */\n      dup3\n        /* \"#utility.yul\":27980:27994   */\n      add\n        /* \"#utility.yul\":27973:28015   */\n      mstore\n        /* \"#utility.yul\":27856:28022   */\n      pop\n      jump\t// out\n        /* \"#utility.yul\":28028:28196   */\n    tag_487:\n        /* \"#utility.yul\":28168:28188   */\n      0x73616c646f20696e737566696369656e74650000000000000000000000000000\n        /* \"#utility.yul\":28164:28165   */\n      0x00\n        /* \"#utility.yul\":28156:28162   */\n      dup3\n        /* \"#utility.yul\":28152:28166   */\n      add\n        /* \"#utility.yul\":28145:28189   */\n      mstore\n        /* \"#utility.yul\":28028:28196   */\n      pop\n      jump\t// out\n        /* \"#utility.yul\":28202:28324   */\n    tag_590:\n        /* \"#utility.yul\":28292:28293   */\n      0x03\n        /* \"#utility.yul\":28285:28290   */\n      dup2\n        /* \"#utility.yul\":28282:28294   */\n      lt\n        /* \"#utility.yul\":28272:28318   */\n      tag_643\n      jumpi\n        /* \"#utility.yul\":28298:28316   */\n      tag_644\n      tag_152\n      jump\t// in\n    tag_644:\n        /* \"#utility.yul\":28272:28318   */\n    tag_643:\n        /* \"#utility.yul\":28202:28324   */\n      pop\n      jump\t// out\n        /* \"#utility.yul\":28330:28443   */\n    tag_594:\n        /* \"#utility.yul\":28411:28412   */\n      0x03\n        /* \"#utility.yul\":28404:28409   */\n      dup2\n        /* \"#utility.yul\":28401:28413   */\n      lt\n        /* \"#utility.yul\":28391:28437   */\n      tag_646\n      jumpi\n        /* \"#utility.yul\":28417:28435   */\n      tag_647\n      tag_152\n      jump\t// in\n    tag_647:\n        /* \"#utility.yul\":28391:28437   */\n    tag_646:\n        /* \"#utility.yul\":28330:28443   */\n      pop\n      jump\t// out\n        /* \"#utility.yul\":28449:28571   */\n    tag_323:\n        /* \"#utility.yul\":28522:28546   */\n      tag_649\n        /* \"#utility.yul\":28540:28545   */\n      dup2\n        /* \"#utility.yul\":28522:28546   */\n      tag_379\n      jump\t// in\n    tag_649:\n        /* \"#utility.yul\":28515:28520   */\n      dup2\n        /* \"#utility.yul\":28512:28547   */\n      eq\n        /* \"#utility.yul\":28502:28565   */\n      tag_650\n      jumpi\n        /* \"#utility.yul\":28561:28562   */\n      0x00\n        /* \"#utility.yul\":28558:28559   */\n      dup1\n        /* \"#utility.yul\":28551:28563   */\n      revert\n        /* \"#utility.yul\":28502:28565   */\n    tag_650:\n        /* \"#utility.yul\":28449:28571   */\n      pop\n      jump\t// out\n        /* \"#utility.yul\":28577:28715   */\n    tag_327:\n        /* \"#utility.yul\":28658:28690   */\n      tag_652\n        /* \"#utility.yul\":28684:28689   */\n      dup2\n        /* \"#utility.yul\":28658:28690   */\n      tag_376\n      jump\t// in\n    tag_652:\n        /* \"#utility.yul\":28651:28656   */\n      dup2\n        /* \"#utility.yul\":28648:28691   */\n      eq\n        /* \"#utility.yul\":28638:28709   */\n      tag_653\n      jumpi\n        /* \"#utility.yul\":28705:28706   */\n      0x00\n        /* \"#utility.yul\":28702:28703   */\n      dup1\n        /* \"#utility.yul\":28695:28707   */\n      revert\n        /* \"#utility.yul\":28638:28709   */\n    tag_653:\n        /* \"#utility.yul\":28577:28715   */\n      pop\n      jump\t// out\n        /* \"#utility.yul\":28721:28837   */\n    tag_331:\n        /* \"#utility.yul\":28791:28812   */\n      tag_655\n        /* \"#utility.yul\":28806:28811   */\n      dup2\n        /* \"#utility.yul\":28791:28812   */\n      tag_414\n      jump\t// in\n    tag_655:\n        /* \"#utility.yul\":28784:28789   */\n      dup2\n        /* \"#utility.yul\":28781:28813   */\n      eq\n        /* \"#utility.yul\":28771:28831   */\n      tag_656\n      jumpi\n        /* \"#utility.yul\":28827:28828   */\n      0x00\n        /* \"#utility.yul\":28824:28825   */\n      dup1\n        /* \"#utility.yul\":28817:28829   */\n      revert\n        /* \"#utility.yul\":28771:28831   */\n    tag_656:\n        /* \"#utility.yul\":28721:28837   */\n      pop\n      jump\t// out\n        /* \"#utility.yul\":28843:28965   */\n    tag_341:\n        /* \"#utility.yul\":28916:28940   */\n      tag_658\n        /* \"#utility.yul\":28934:28939   */\n      dup2\n        /* \"#utility.yul\":28916:28940   */\n      tag_490\n      jump\t// in\n    tag_658:\n        /* \"#utility.yul\":28909:28914   */\n      dup2\n        /* \"#utility.yul\":28906:28941   */\n      eq\n        /* \"#utility.yul\":28896:28959   */\n      tag_659\n      jumpi\n        /* \"#utility.yul\":28955:28956   */\n      0x00\n        /* \"#utility.yul\":28952:28953   */\n      dup1\n        /* \"#utility.yul\":28945:28957   */\n      revert\n        /* \"#utility.yul\":28896:28959   */\n    tag_659:\n        /* \"#utility.yul\":28843:28965   */\n      pop\n      jump\t// out\n\n    auxdata: 0xa2646970667358221220ae9d84c332644db9c25d39736492f8e644bb7bad34fe0889178606ae818ee94164736f6c63430008070033\n}\n",
				"bytecode": {
					"linkReferences": {},
					"object": "60a06040523480156200001157600080fd5b5060405162002b2a38038062002b2a833981810160405281019062000037919062000273565b600083118015620000485750600082115b6200005257600080fd5b84600190805190602001906200006a9291906200012e565b508360029080519060200190620000839291906200012e565b50336000806101000a81548173ffffffffffffffffffffffffffffffffffffffff021916908373ffffffffffffffffffffffffffffffffffffffff16021790555081600581905550826004819055506000600360006101000a81548160ff02191690836002811115620000fb57620000fa62000531565b5b02179055506001816200010f9190620003f5565b426200011c919062000398565b608081815250505050505050620005fd565b8280546200013c9062000496565b90600052602060002090601f016020900481019282620001605760008555620001ac565b82601f106200017b57805160ff1916838001178555620001ac565b82800160010185558215620001ac579182015b82811115620001ab5782518255916020019190600101906200018e565b5b509050620001bb9190620001bf565b5090565b5b80821115620001da576000816000905550600101620001c0565b5090565b6000620001f5620001ef8462000362565b62000339565b905082815260208101848484011115620002145762000213620005c3565b5b6200022184828562000460565b509392505050565b600082601f830112620002415762000240620005be565b5b815162000253848260208601620001de565b91505092915050565b6000815190506200026d81620005e3565b92915050565b600080600080600060a08688031215620002925762000291620005cd565b5b600086015167ffffffffffffffff811115620002b357620002b2620005c8565b5b620002c18882890162000229565b955050602086015167ffffffffffffffff811115620002e557620002e4620005c8565b5b620002f38882890162000229565b945050604062000306888289016200025c565b935050606062000319888289016200025c565b92505060806200032c888289016200025c565b9150509295509295909350565b60006200034562000358565b9050620003538282620004cc565b919050565b6000604051905090565b600067ffffffffffffffff82111562000380576200037f6200058f565b5b6200038b82620005d2565b9050602081019050919050565b6000620003a58262000456565b9150620003b28362000456565b9250827fffffffffffffffffffffffffffffffffffffffffffffffffffffffffffffffff03821115620003ea57620003e962000502565b5b828201905092915050565b6000620004028262000456565b91506200040f8362000456565b9250817fffffffffffffffffffffffffffffffffffffffffffffffffffffffffffffffff04831182151516156200044b576200044a62000502565b5b828202905092915050565b6000819050919050565b60005b838110156200048057808201518184015260208101905062000463565b8381111562000490576000848401525b50505050565b60006002820490506001821680620004af57607f821691505b60208210811415620004c657620004c562000560565b5b50919050565b620004d782620005d2565b810181811067ffffffffffffffff82111715620004f957620004f86200058f565b5b80604052505050565b7f4e487b7100000000000000000000000000000000000000000000000000000000600052601160045260246000fd5b7f4e487b7100000000000000000000000000000000000000000000000000000000600052602160045260246000fd5b7f4e487b7100000000000000000000000000000000000000000000000000000000600052602260045260246000fd5b7f4e487b7100000000000000000000000000000000000000000000000000000000600052604160045260246000fd5b600080fd5b600080fd5b600080fd5b600080fd5b6000601f19601f8301169050919050565b620005ee8162000456565b8114620005fa57600080fd5b50565b60805161250a6200062060003960008181610cf10152611311015261250a6000f3fe60806040526004361061014f5760003560e01c8063b25924c1116100b6578063e3ce81641161006f578063e3ce816414610484578063e7425109146104af578063eb68f887146104da578063f7256d6614610505578063f7a7e57e1461052e578063f83589c0146105595761015e565b8063b25924c11461036b578063bbde609a146103a8578063cac9a391146103e5578063d50af7b414610410578063d50fac491461044f578063e348c518146104595761015e565b80638f75c1fb116101085780638f75c1fb1461027a57806395df868d146102a55780639de8fc99146102d0578063a4e58a87146102fb578063ab67290614610312578063b14d38c2146103545761015e565b8063225682d1146101685780633deff252146101935780633e0905ec146101be5780637bd82410146101e75780638b83ba26146102125780638d1750c51461024f5761015e565b3661015e5761015c610582565b005b610166610582565b005b34801561017457600080fd5b5061017d6107a0565b60405161018a9190611d8d565b60405180910390f35b34801561019f57600080fd5b506101a86107a8565b6040516101b59190611b65565b60405180910390f35b3480156101ca57600080fd5b506101e560048036038101906101e09190611745565b610836565b005b3480156101f357600080fd5b506101fc6108c7565b6040516102099190611d8d565b60405180910390f35b34801561021e57600080fd5b50610239600480360381019061023491906116a9565b6108cd565b6040516102469190611d8d565b60405180910390f35b34801561025b57600080fd5b50610264610916565b6040516102719190611b4a565b60405180910390f35b34801561028657600080fd5b5061028f610929565b60405161029c9190611aeb565b60405180910390f35b3480156102b157600080fd5b506102ba61094d565b6040516102c79190611d8d565b60405180910390f35b3480156102dc57600080fd5b506102e5610953565b6040516102f29190611d8d565b60405180910390f35b34801561030757600080fd5b5061031061095d565b005b34801561031e57600080fd5b5061033960048036038101906103349190611745565b610b35565b60405161034b96959493929190611b87565b60405180910390f35b34801561036057600080fd5b50610369610c26565b005b34801561037757600080fd5b50610392600480360381019061038d9190611745565b610dba565b60405161039f9190611ad0565b60405180910390f35b3480156103b457600080fd5b506103cf60048036038101906103ca91906116a9565b610df9565b6040516103dc9190611d8d565b60405180910390f35b3480156103f157600080fd5b506103fa610e11565b6040516104079190611b06565b60405180910390f35b34801561041c57600080fd5b5061043760048036038101906104329190611745565b610e9f565b60405161044693929190611bef565b60405180910390f35b610457610582565b005b34801561046557600080fd5b5061046e610ffb565b60405161047b9190611d8d565b60405180910390f35b34801561049057600080fd5b50610499611001565b6040516104a69190611d8d565b60405180910390f35b3480156104bb57600080fd5b506104c461100e565b6040516104d19190611b65565b60405180910390f35b3480156104e657600080fd5b506104ef61109c565b6040516104fc9190611b28565b60405180910390f35b34801561051157600080fd5b5061052c60048036038101906105279190611772565b61123d565b005b34801561053a57600080fd5b5061054361130f565b6040516105509190611d8d565b60405180910390f35b34801561056557600080fd5b50610580600480360381019061057b91906116d6565b611333565b005b6005543410156105c7576040517f08c379a00000000000000000000000000000000000000000000000000000000081526004016105be90611c4d565b60405180910390fd5b600060028111156105db576105da612186565b5b600360009054906101000a900460ff1660028111156105fd576105fc612186565b5b1461063d576040517f08c379a000000000000000000000000000000000000000000000000000000000815260040161063490611c6d565b60405180910390fd5b6000600660003373ffffffffffffffffffffffffffffffffffffffff1673ffffffffffffffffffffffffffffffffffffffff1681526020019081526020016000205414156106e9576007339080600181540180825580915050600190039060005260206000200160009091909190916101000a81548173ffffffffffffffffffffffffffffffffffffffff021916908373ffffffffffffffffffffffffffffffffffffffff1602179055505b6000600554346106f99190611f0b565b905080600660003373ffffffffffffffffffffffffffffffffffffffff1673ffffffffffffffffffffffffffffffffffffffff168152602001908152602001600020546107469190611eb5565b600660003373ffffffffffffffffffffffffffffffffffffffff1673ffffffffffffffffffffffffffffffffffffffff16815260200190815260200160002081905550806008546107979190611eb5565b60088190555050565b600047905090565b600180546107b59061207c565b80601f01602080910402602001604051908101604052809291908181526020018280546107e19061207c565b801561082e5780601f106108035761010080835404028352916020019161082e565b820191906000526020600020905b81548152906001019060200180831161081157829003601f168201915b505050505081565b3373ffffffffffffffffffffffffffffffffffffffff1660008054906101000a900473ffffffffffffffffffffffffffffffffffffffff1673ffffffffffffffffffffffffffffffffffffffff16146108c4576040517f08c379a00000000000000000000000000000000000000000000000000000000081526004016108bb90611d2d565b60405180910390fd5b50565b60085481565b6000600660008373ffffffffffffffffffffffffffffffffffffffff1673ffffffffffffffffffffffffffffffffffffffff168152602001908152602001600020549050919050565b600360009054906101000a900460ff1681565b60008054906101000a900473ffffffffffffffffffffffffffffffffffffffff1681565b60045481565b6000600a54905090565b6000600660003373ffffffffffffffffffffffffffffffffffffffff1673ffffffffffffffffffffffffffffffffffffffff16815260200190815260200160002054116109df576040517f08c379a00000000000000000000000000000000000000000000000000000000081526004016109d690611d4d565b60405180910390fd5b600160028111156109f3576109f2612186565b5b600360009054906101000a900460ff166002811115610a1557610a14612186565b5b14610a55576040517f08c379a0000000000000000000000000000000000000000000000000000000008152600401610a4c90611cad565b60405180910390fd5b6000600554600660003373ffffffffffffffffffffffffffffffffffffffff1673ffffffffffffffffffffffffffffffffffffffff16815260200190815260200160002054610aa49190611f3c565b90506000600660003373ffffffffffffffffffffffffffffffffffffffff1673ffffffffffffffffffffffffffffffffffffffff168152602001908152602001600020819055503373ffffffffffffffffffffffffffffffffffffffff166108fc829081150290604051600060405180830381858888f19350505050158015610b31573d6000803e3d6000fd5b5050565b6009602052806000526040600020600091509050806000018054610b589061207c565b80601f0160208091040260200160405190810160405280929190818152602001828054610b849061207c565b8015610bd15780601f10610ba657610100808354040283529160200191610bd1565b820191906000526020600020905b815481529060010190602001808311610bb457829003601f168201915b5050505050908060010160009054906101000a900460ff16908060020154908060030160009054906101000a900473ffffffffffffffffffffffffffffffffffffffff16908060040154908060050154905086565b60006002811115610c3a57610c39612186565b5b600360009054906101000a900460ff166002811115610c5c57610c5b612186565b5b14610c9c576040517f08c379a0000000000000000000000000000000000000000000000000000000008152600401610c9390611c2d565b60405180910390fd5b60008054906101000a900473ffffffffffffffffffffffffffffffffffffffff1673ffffffffffffffffffffffffffffffffffffffff163373ffffffffffffffffffffffffffffffffffffffff1614610d53577f0000000000000000000000000000000000000000000000000000000000000000421015610d52576040517f08c379a0000000000000000000000000000000000000000000000000000000008152600401610d4990611c8d565b60405180910390fd5b5b4760045411610d8c576002600360006101000a81548160ff02191690836002811115610d8257610d81612186565b5b0217905550610db8565b6001600360006101000a81548160ff02191690836002811115610db257610db1612186565b5b02179055505b565b60078181548110610dca57600080fd5b906000526020600020016000915054906101000a900473ffffffffffffffffffffffffffffffffffffffff1681565b60066020528060005260406000206000915090505481565b60606007805480602002602001604051908101604052809291908181526020018280548015610e9557602002820191906000526020600020905b8160009054906101000a900473ffffffffffffffffffffffffffffffffffffffff1673ffffffffffffffffffffffffffffffffffffffff1681526020019060010190808311610e4b575b5050505050905090565b6060600080600a548410610ee8576040517f08c379a0000000000000000000000000000000000000000000000000000000008152600401610edf90611ccd565b60405180910390fd5b600060016002811115610efe57610efd612186565b5b6009600087815260200190815260200160002060010160009054906101000a900460ff166002811115610f3457610f33612186565b5b1415610f3f57600190505b600060096000878152602001908152602001600020905080600001816002015483828054610f6c9061207c565b80601f0160208091040260200160405190810160405280929190818152602001828054610f989061207c565b8015610fe55780601f10610fba57610100808354040283529160200191610fe5565b820191906000526020600020905b815481529060010190602001808311610fc857829003601f168201915b5050505050925094509450945050509193909250565b60055481565b6000600780549050905090565b6002805461101b9061207c565b80601f01602080910402602001604051908101604052809291908181526020018280546110479061207c565b80156110945780601f1061106957610100808354040283529160200191611094565b820191906000526020600020905b81548152906001019060200180831161107757829003601f168201915b505050505081565b60606000600a5467ffffffffffffffff8111156110bc576110bb612213565b5b6040519080825280602002602001820160405280156110ea5781602001602082028036833780820191505090505b5090506000805b600a5481101561118d576000600281111561110f5761110e612186565b5b6009600083815260200190815260200160002060010160009054906101000a900460ff16600281111561114557611144612186565b5b141561117a578083838151811061115f5761115e6121e4565b5b6020026020010181815250508180611176906120df565b9250505b8080611185906120df565b9150506110f1565b5060008167ffffffffffffffff8111156111aa576111a9612213565b5b6040519080825280602002602001820160405280156111d85781602001602082028036833780820191505090505b50905060005b82811015611233578381815181106111f9576111f86121e4565b5b6020026020010151828281518110611214576112136121e4565b5b602002602001018181525050808061122b906120df565b9150506111de565b5080935050505090565b600a548210611281576040517f08c379a000000000000000000000000000000000000000000000000000000000815260040161127890611ced565b60405180910390fd5b6000600281111561129557611294612186565b5b6009600084815260200190815260200160002060010160009054906101000a900460ff1660028111156112cb576112ca612186565b5b1461130b576040517f08c379a000000000000000000000000000000000000000000000000000000000815260040161130290611d0d565b60405180910390fd5b5050565b7f000000000000000000000000000000000000000000000000000000000000000081565b3373ffffffffffffffffffffffffffffffffffffffff1660008054906101000a900473ffffffffffffffffffffffffffffffffffffffff1673ffffffffffffffffffffffffffffffffffffffff16146113c1576040517f08c379a00000000000000000000000000000000000000000000000000000000081526004016113b890611d2d565b60405180910390fd5b47821115611404576040517f08c379a00000000000000000000000000000000000000000000000000000000081526004016113fb90611d6d565b60405180910390fd5b600073ffffffffffffffffffffffffffffffffffffffff168173ffffffffffffffffffffffffffffffffffffffff16141561143e57600080fd5b600060096000600a54815260200190815260200160002090508381600001908051906020019061146f929190611542565b5060008160010160006101000a81548160ff0219169083600281111561149857611497612186565b5b0217905550828160020181905550818160030160006101000a81548173ffffffffffffffffffffffffffffffffffffffff021916908373ffffffffffffffffffffffffffffffffffffffff1602179055507f8a9eef508655ba905fac3270e36d1f3410a7101b0b7fe80cc755b4a0c26a71a5600a544260405161151c929190611da8565b60405180910390a1600a6000815480929190611537906120df565b919050555050505050565b82805461154e9061207c565b90600052602060002090601f01602090048101928261157057600085556115b7565b82601f1061158957805160ff19168380011785556115b7565b828001600101855582156115b7579182015b828111156115b657825182559160200191906001019061159b565b5b5090506115c491906115c8565b5090565b5b808211156115e15760008160009055506001016115c9565b5090565b60006115f86115f384611df6565b611dd1565b90508281526020810184848401111561161457611613612247565b5b61161f84828561203a565b509392505050565b60008135905061163681612478565b92915050565b60008135905061164b8161248f565b92915050565b600081359050611660816124a6565b92915050565b600082601f83011261167b5761167a612242565b5b813561168b8482602086016115e5565b91505092915050565b6000813590506116a3816124bd565b92915050565b6000602082840312156116bf576116be612251565b5b60006116cd84828501611627565b91505092915050565b6000806000606084860312156116ef576116ee612251565b5b600084013567ffffffffffffffff81111561170d5761170c61224c565b5b61171986828701611666565b935050602061172a86828701611694565b925050604061173b8682870161163c565b9150509250925092565b60006020828403121561175b5761175a612251565b5b600061176984828501611694565b91505092915050565b6000806040838503121561178957611788612251565b5b600061179785828601611694565b92505060206117a885828601611651565b9150509250929050565b60006117be83836117f1565b60208301905092915050565b60006117d68383611ab2565b60208301905092915050565b6117eb81611fa8565b82525050565b6117fa81611f96565b82525050565b61180981611f96565b82525050565b600061181a82611e47565b6118248185611e82565b935061182f83611e27565b8060005b8381101561186057815161184788826117b2565b975061185283611e68565b925050600181019050611833565b5085935050505092915050565b600061187882611e52565b6118828185611e93565b935061188d83611e37565b8060005b838110156118be5781516118a588826117ca565b97506118b083611e75565b925050600181019050611891565b5085935050505092915050565b6118d481611fba565b82525050565b6118e381612016565b82525050565b6118f281612028565b82525050565b600061190382611e5d565b61190d8185611ea4565b935061191d818560208601612049565b61192681612256565b840191505092915050565b600061193e601383611ea4565b915061194982612267565b602082019050919050565b6000611961602183611ea4565b915061196c82612290565b604082019050919050565b6000611984601e83611ea4565b915061198f826122df565b602082019050919050565b60006119a7601783611ea4565b91506119b282612308565b602082019050919050565b60006119ca601583611ea4565b91506119d582612331565b602082019050919050565b60006119ed601583611ea4565b91506119f88261235a565b602082019050919050565b6000611a10601483611ea4565b9150611a1b82612383565b602082019050919050565b6000611a33601a83611ea4565b9150611a3e826123ac565b602082019050919050565b6000611a56601483611ea4565b9150611a61826123d5565b602082019050919050565b6000611a79601083611ea4565b9150611a84826123fe565b602082019050919050565b6000611a9c601283611ea4565b9150611aa782612427565b602082019050919050565b611abb8161200c565b82525050565b611aca8161200c565b82525050565b6000602082019050611ae56000830184611800565b92915050565b6000602082019050611b0060008301846117e2565b92915050565b60006020820190508181036000830152611b20818461180f565b905092915050565b60006020820190508181036000830152611b42818461186d565b905092915050565b6000602082019050611b5f60008301846118e9565b92915050565b60006020820190508181036000830152611b7f81846118f8565b905092915050565b600060c0820190508181036000830152611ba181896118f8565b9050611bb060208301886118da565b611bbd6040830187611ac1565b611bca60608301866117e2565b611bd76080830185611ac1565b611be460a0830184611ac1565b979650505050505050565b60006060820190508181036000830152611c0981866118f8565b9050611c186020830185611ac1565b611c2560408301846118cb565b949350505050565b60006020820190508181036000830152611c4681611931565b9050919050565b60006020820190508181036000830152611c6681611954565b9050919050565b60006020820190508181036000830152611c8681611977565b9050919050565b60006020820190508181036000830152611ca68161199a565b9050919050565b60006020820190508181036000830152611cc6816119bd565b9050919050565b60006020820190508181036000830152611ce6816119e0565b9050919050565b60006020820190508181036000830152611d0681611a03565b9050919050565b60006020820190508181036000830152611d2681611a26565b9050919050565b60006020820190508181036000830152611d4681611a49565b9050919050565b60006020820190508181036000830152611d6681611a6c565b9050919050565b60006020820190508181036000830152611d8681611a8f565b9050919050565b6000602082019050611da26000830184611ac1565b92915050565b6000604082019050611dbd6000830185611ac1565b611dca6020830184611ac1565b9392505050565b6000611ddb611dec565b9050611de782826120ae565b919050565b6000604051905090565b600067ffffffffffffffff821115611e1157611e10612213565b5b611e1a82612256565b9050602081019050919050565b6000819050602082019050919050565b6000819050602082019050919050565b600081519050919050565b600081519050919050565b600081519050919050565b6000602082019050919050565b6000602082019050919050565b600082825260208201905092915050565b600082825260208201905092915050565b600082825260208201905092915050565b6000611ec08261200c565b9150611ecb8361200c565b9250827fffffffffffffffffffffffffffffffffffffffffffffffffffffffffffffffff03821115611f0057611eff612128565b5b828201905092915050565b6000611f168261200c565b9150611f218361200c565b925082611f3157611f30612157565b5b828204905092915050565b6000611f478261200c565b9150611f528361200c565b9250817fffffffffffffffffffffffffffffffffffffffffffffffffffffffffffffffff0483118215151615611f8b57611f8a612128565b5b828202905092915050565b6000611fa182611fec565b9050919050565b6000611fb382611fec565b9050919050565b60008115159050919050565b6000819050611fd482612450565b919050565b6000819050611fe782612464565b919050565b600073ffffffffffffffffffffffffffffffffffffffff82169050919050565b6000819050919050565b600061202182611fc6565b9050919050565b600061203382611fd9565b9050919050565b82818337600083830152505050565b60005b8381101561206757808201518184015260208101905061204c565b83811115612076576000848401525b50505050565b6000600282049050600182168061209457607f821691505b602082108114156120a8576120a76121b5565b5b50919050565b6120b782612256565b810181811067ffffffffffffffff821117156120d6576120d5612213565b5b80604052505050565b60006120ea8261200c565b91507fffffffffffffffffffffffffffffffffffffffffffffffffffffffffffffffff82141561211d5761211c612128565b5b600182019050919050565b7f4e487b7100000000000000000000000000000000000000000000000000000000600052601160045260246000fd5b7f4e487b7100000000000000000000000000000000000000000000000000000000600052601260045260246000fd5b7f4e487b7100000000000000000000000000000000000000000000000000000000600052602160045260246000fd5b7f4e487b7100000000000000000000000000000000000000000000000000000000600052602260045260246000fd5b7f4e487b7100000000000000000000000000000000000000000000000000000000600052603260045260246000fd5b7f4e487b7100000000000000000000000000000000000000000000000000000000600052604160045260246000fd5b600080fd5b600080fd5b600080fd5b600080fd5b6000601f19601f8301169050919050565b7f43616d70616e7961206e6f206162696572746100000000000000000000000000600082015250565b7f50617274696369706163696f6e206d696e696d61206e6f20616c63616e7a616460008201527f6100000000000000000000000000000000000000000000000000000000000000602082015250565b7f46696e616c697a61646f20706c617a6f2070617274696369706163696f6e0000600082015250565b7f43616d7061696e206973206e6f74206f76657220796574000000000000000000600082015250565b7f43616d70616e7961206e6f2063616e63656c6164610000000000000000000000600082015250565b7f7065746963696f6e20696e6578697374656e7472650000000000000000000000600082015250565b7f5065746963696f6e20696e6578697374656e7465000000000000000000000000600082015250565b7f5065746963696f6e206465626520657374617220616374697661000000000000600082015250565b7f4f6e6c792043616d7061696e206d616e61676572000000000000000000000000600082015250565b7f666f6e646f7320726574697261646f7300000000000000000000000000000000600082015250565b7f73616c646f20696e737566696369656e74650000000000000000000000000000600082015250565b6003811061246157612460612186565b5b50565b6003811061247557612474612186565b5b50565b61248181611f96565b811461248c57600080fd5b50565b61249881611fa8565b81146124a357600080fd5b50565b6124af81611fba565b81146124ba57600080fd5b50565b6124c68161200c565b81146124d157600080fd5b5056fea2646970667358221220ae9d84c332644db9c25d39736492f8e644bb7bad34fe0889178606ae818ee94164736f6c63430008070033",
					"opcodes": "PUSH1 0xA0 PUSH1 0x40 MSTORE CALLVALUE DUP1 ISZERO PUSH3 0x11 JUMPI PUSH1 0x0 DUP1 REVERT JUMPDEST POP PUSH1 0x40 MLOAD PUSH3 0x2B2A CODESIZE SUB DUP1 PUSH3 0x2B2A DUP4 CODECOPY DUP2 DUP2 ADD PUSH1 0x40 MSTORE DUP2 ADD SWAP1 PUSH3 0x37 SWAP2 SWAP1 PUSH3 0x273 JUMP JUMPDEST PUSH1 0x0 DUP4 GT DUP1 ISZERO PUSH3 0x48 JUMPI POP PUSH1 0x0 DUP3 GT JUMPDEST PUSH3 0x52 JUMPI PUSH1 0x0 DUP1 REVERT JUMPDEST DUP5 PUSH1 0x1 SWAP1 DUP1 MLOAD SWAP1 PUSH1 0x20 ADD SWAP1 PUSH3 0x6A SWAP3 SWAP2 SWAP1 PUSH3 0x12E JUMP JUMPDEST POP DUP4 PUSH1 0x2 SWAP1 DUP1 MLOAD SWAP1 PUSH1 0x20 ADD SWAP1 PUSH3 0x83 SWAP3 SWAP2 SWAP1 PUSH3 0x12E JUMP JUMPDEST POP CALLER PUSH1 0x0 DUP1 PUSH2 0x100 EXP DUP2 SLOAD DUP2 PUSH20 0xFFFFFFFFFFFFFFFFFFFFFFFFFFFFFFFFFFFFFFFF MUL NOT AND SWAP1 DUP4 PUSH20 0xFFFFFFFFFFFFFFFFFFFFFFFFFFFFFFFFFFFFFFFF AND MUL OR SWAP1 SSTORE POP DUP2 PUSH1 0x5 DUP2 SWAP1 SSTORE POP DUP3 PUSH1 0x4 DUP2 SWAP1 SSTORE POP PUSH1 0x0 PUSH1 0x3 PUSH1 0x0 PUSH2 0x100 EXP DUP2 SLOAD DUP2 PUSH1 0xFF MUL NOT AND SWAP1 DUP4 PUSH1 0x2 DUP2 GT ISZERO PUSH3 0xFB JUMPI PUSH3 0xFA PUSH3 0x531 JUMP JUMPDEST JUMPDEST MUL OR SWAP1 SSTORE POP PUSH1 0x1 DUP2 PUSH3 0x10F SWAP2 SWAP1 PUSH3 0x3F5 JUMP JUMPDEST TIMESTAMP PUSH3 0x11C SWAP2 SWAP1 PUSH3 0x398 JUMP JUMPDEST PUSH1 0x80 DUP2 DUP2 MSTORE POP POP POP POP POP POP POP PUSH3 0x5FD JUMP JUMPDEST DUP3 DUP1 SLOAD PUSH3 0x13C SWAP1 PUSH3 0x496 JUMP JUMPDEST SWAP1 PUSH1 0x0 MSTORE PUSH1 0x20 PUSH1 0x0 KECCAK256 SWAP1 PUSH1 0x1F ADD PUSH1 0x20 SWAP1 DIV DUP2 ADD SWAP3 DUP3 PUSH3 0x160 JUMPI PUSH1 0x0 DUP6 SSTORE PUSH3 0x1AC JUMP JUMPDEST DUP3 PUSH1 0x1F LT PUSH3 0x17B JUMPI DUP1 MLOAD PUSH1 0xFF NOT AND DUP4 DUP1 ADD OR DUP6 SSTORE PUSH3 0x1AC JUMP JUMPDEST DUP3 DUP1 ADD PUSH1 0x1 ADD DUP6 SSTORE DUP3 ISZERO PUSH3 0x1AC JUMPI SWAP2 DUP3 ADD JUMPDEST DUP3 DUP2 GT ISZERO PUSH3 0x1AB JUMPI DUP3 MLOAD DUP3 SSTORE SWAP2 PUSH1 0x20 ADD SWAP2 SWAP1 PUSH1 0x1 ADD SWAP1 PUSH3 0x18E JUMP JUMPDEST JUMPDEST POP SWAP1 POP PUSH3 0x1BB SWAP2 SWAP1 PUSH3 0x1BF JUMP JUMPDEST POP SWAP1 JUMP JUMPDEST JUMPDEST DUP1 DUP3 GT ISZERO PUSH3 0x1DA JUMPI PUSH1 0x0 DUP2 PUSH1 0x0 SWAP1 SSTORE POP PUSH1 0x1 ADD PUSH3 0x1C0 JUMP JUMPDEST POP SWAP1 JUMP JUMPDEST PUSH1 0x0 PUSH3 0x1F5 PUSH3 0x1EF DUP5 PUSH3 0x362 JUMP JUMPDEST PUSH3 0x339 JUMP JUMPDEST SWAP1 POP DUP3 DUP2 MSTORE PUSH1 0x20 DUP2 ADD DUP5 DUP5 DUP5 ADD GT ISZERO PUSH3 0x214 JUMPI PUSH3 0x213 PUSH3 0x5C3 JUMP JUMPDEST JUMPDEST PUSH3 0x221 DUP5 DUP3 DUP6 PUSH3 0x460 JUMP JUMPDEST POP SWAP4 SWAP3 POP POP POP JUMP JUMPDEST PUSH1 0x0 DUP3 PUSH1 0x1F DUP4 ADD SLT PUSH3 0x241 JUMPI PUSH3 0x240 PUSH3 0x5BE JUMP JUMPDEST JUMPDEST DUP2 MLOAD PUSH3 0x253 DUP5 DUP3 PUSH1 0x20 DUP7 ADD PUSH3 0x1DE JUMP JUMPDEST SWAP2 POP POP SWAP3 SWAP2 POP POP JUMP JUMPDEST PUSH1 0x0 DUP2 MLOAD SWAP1 POP PUSH3 0x26D DUP2 PUSH3 0x5E3 JUMP JUMPDEST SWAP3 SWAP2 POP POP JUMP JUMPDEST PUSH1 0x0 DUP1 PUSH1 0x0 DUP1 PUSH1 0x0 PUSH1 0xA0 DUP7 DUP9 SUB SLT ISZERO PUSH3 0x292 JUMPI PUSH3 0x291 PUSH3 0x5CD JUMP JUMPDEST JUMPDEST PUSH1 0x0 DUP7 ADD MLOAD PUSH8 0xFFFFFFFFFFFFFFFF DUP2 GT ISZERO PUSH3 0x2B3 JUMPI PUSH3 0x2B2 PUSH3 0x5C8 JUMP JUMPDEST JUMPDEST PUSH3 0x2C1 DUP9 DUP3 DUP10 ADD PUSH3 0x229 JUMP JUMPDEST SWAP6 POP POP PUSH1 0x20 DUP7 ADD MLOAD PUSH8 0xFFFFFFFFFFFFFFFF DUP2 GT ISZERO PUSH3 0x2E5 JUMPI PUSH3 0x2E4 PUSH3 0x5C8 JUMP JUMPDEST JUMPDEST PUSH3 0x2F3 DUP9 DUP3 DUP10 ADD PUSH3 0x229 JUMP JUMPDEST SWAP5 POP POP PUSH1 0x40 PUSH3 0x306 DUP9 DUP3 DUP10 ADD PUSH3 0x25C JUMP JUMPDEST SWAP4 POP POP PUSH1 0x60 PUSH3 0x319 DUP9 DUP3 DUP10 ADD PUSH3 0x25C JUMP JUMPDEST SWAP3 POP POP PUSH1 0x80 PUSH3 0x32C DUP9 DUP3 DUP10 ADD PUSH3 0x25C JUMP JUMPDEST SWAP2 POP POP SWAP3 SWAP6 POP SWAP3 SWAP6 SWAP1 SWAP4 POP JUMP JUMPDEST PUSH1 0x0 PUSH3 0x345 PUSH3 0x358 JUMP JUMPDEST SWAP1 POP PUSH3 0x353 DUP3 DUP3 PUSH3 0x4CC JUMP JUMPDEST SWAP2 SWAP1 POP JUMP JUMPDEST PUSH1 0x0 PUSH1 0x40 MLOAD SWAP1 POP SWAP1 JUMP JUMPDEST PUSH1 0x0 PUSH8 0xFFFFFFFFFFFFFFFF DUP3 GT ISZERO PUSH3 0x380 JUMPI PUSH3 0x37F PUSH3 0x58F JUMP JUMPDEST JUMPDEST PUSH3 0x38B DUP3 PUSH3 0x5D2 JUMP JUMPDEST SWAP1 POP PUSH1 0x20 DUP2 ADD SWAP1 POP SWAP2 SWAP1 POP JUMP JUMPDEST PUSH1 0x0 PUSH3 0x3A5 DUP3 PUSH3 0x456 JUMP JUMPDEST SWAP2 POP PUSH3 0x3B2 DUP4 PUSH3 0x456 JUMP JUMPDEST SWAP3 POP DUP3 PUSH32 0xFFFFFFFFFFFFFFFFFFFFFFFFFFFFFFFFFFFFFFFFFFFFFFFFFFFFFFFFFFFFFFFF SUB DUP3 GT ISZERO PUSH3 0x3EA JUMPI PUSH3 0x3E9 PUSH3 0x502 JUMP JUMPDEST JUMPDEST DUP3 DUP3 ADD SWAP1 POP SWAP3 SWAP2 POP POP JUMP JUMPDEST PUSH1 0x0 PUSH3 0x402 DUP3 PUSH3 0x456 JUMP JUMPDEST SWAP2 POP PUSH3 0x40F DUP4 PUSH3 0x456 JUMP JUMPDEST SWAP3 POP DUP2 PUSH32 0xFFFFFFFFFFFFFFFFFFFFFFFFFFFFFFFFFFFFFFFFFFFFFFFFFFFFFFFFFFFFFFFF DIV DUP4 GT DUP3 ISZERO ISZERO AND ISZERO PUSH3 0x44B JUMPI PUSH3 0x44A PUSH3 0x502 JUMP JUMPDEST JUMPDEST DUP3 DUP3 MUL SWAP1 POP SWAP3 SWAP2 POP POP JUMP JUMPDEST PUSH1 0x0 DUP2 SWAP1 POP SWAP2 SWAP1 POP JUMP JUMPDEST PUSH1 0x0 JUMPDEST DUP4 DUP2 LT ISZERO PUSH3 0x480 JUMPI DUP1 DUP3 ADD MLOAD DUP2 DUP5 ADD MSTORE PUSH1 0x20 DUP2 ADD SWAP1 POP PUSH3 0x463 JUMP JUMPDEST DUP4 DUP2 GT ISZERO PUSH3 0x490 JUMPI PUSH1 0x0 DUP5 DUP5 ADD MSTORE JUMPDEST POP POP POP POP JUMP JUMPDEST PUSH1 0x0 PUSH1 0x2 DUP3 DIV SWAP1 POP PUSH1 0x1 DUP3 AND DUP1 PUSH3 0x4AF JUMPI PUSH1 0x7F DUP3 AND SWAP2 POP JUMPDEST PUSH1 0x20 DUP3 LT DUP2 EQ ISZERO PUSH3 0x4C6 JUMPI PUSH3 0x4C5 PUSH3 0x560 JUMP JUMPDEST JUMPDEST POP SWAP2 SWAP1 POP JUMP JUMPDEST PUSH3 0x4D7 DUP3 PUSH3 0x5D2 JUMP JUMPDEST DUP2 ADD DUP2 DUP2 LT PUSH8 0xFFFFFFFFFFFFFFFF DUP3 GT OR ISZERO PUSH3 0x4F9 JUMPI PUSH3 0x4F8 PUSH3 0x58F JUMP JUMPDEST JUMPDEST DUP1 PUSH1 0x40 MSTORE POP POP POP JUMP JUMPDEST PUSH32 0x4E487B7100000000000000000000000000000000000000000000000000000000 PUSH1 0x0 MSTORE PUSH1 0x11 PUSH1 0x4 MSTORE PUSH1 0x24 PUSH1 0x0 REVERT JUMPDEST PUSH32 0x4E487B7100000000000000000000000000000000000000000000000000000000 PUSH1 0x0 MSTORE PUSH1 0x21 PUSH1 0x4 MSTORE PUSH1 0x24 PUSH1 0x0 REVERT JUMPDEST PUSH32 0x4E487B7100000000000000000000000000000000000000000000000000000000 PUSH1 0x0 MSTORE PUSH1 0x22 PUSH1 0x4 MSTORE PUSH1 0x24 PUSH1 0x0 REVERT JUMPDEST PUSH32 0x4E487B7100000000000000000000000000000000000000000000000000000000 PUSH1 0x0 MSTORE PUSH1 0x41 PUSH1 0x4 MSTORE PUSH1 0x24 PUSH1 0x0 REVERT JUMPDEST PUSH1 0x0 DUP1 REVERT JUMPDEST PUSH1 0x0 DUP1 REVERT JUMPDEST PUSH1 0x0 DUP1 REVERT JUMPDEST PUSH1 0x0 DUP1 REVERT JUMPDEST PUSH1 0x0 PUSH1 0x1F NOT PUSH1 0x1F DUP4 ADD AND SWAP1 POP SWAP2 SWAP1 POP JUMP JUMPDEST PUSH3 0x5EE DUP2 PUSH3 0x456 JUMP JUMPDEST DUP2 EQ PUSH3 0x5FA JUMPI PUSH1 0x0 DUP1 REVERT JUMPDEST POP JUMP JUMPDEST PUSH1 0x80 MLOAD PUSH2 0x250A PUSH3 0x620 PUSH1 0x0 CODECOPY PUSH1 0x0 DUP2 DUP2 PUSH2 0xCF1 ADD MSTORE PUSH2 0x1311 ADD MSTORE PUSH2 0x250A PUSH1 0x0 RETURN INVALID PUSH1 0x80 PUSH1 0x40 MSTORE PUSH1 0x4 CALLDATASIZE LT PUSH2 0x14F JUMPI PUSH1 0x0 CALLDATALOAD PUSH1 0xE0 SHR DUP1 PUSH4 0xB25924C1 GT PUSH2 0xB6 JUMPI DUP1 PUSH4 0xE3CE8164 GT PUSH2 0x6F JUMPI DUP1 PUSH4 0xE3CE8164 EQ PUSH2 0x484 JUMPI DUP1 PUSH4 0xE7425109 EQ PUSH2 0x4AF JUMPI DUP1 PUSH4 0xEB68F887 EQ PUSH2 0x4DA JUMPI DUP1 PUSH4 0xF7256D66 EQ PUSH2 0x505 JUMPI DUP1 PUSH4 0xF7A7E57E EQ PUSH2 0x52E JUMPI DUP1 PUSH4 0xF83589C0 EQ PUSH2 0x559 JUMPI PUSH2 0x15E JUMP JUMPDEST DUP1 PUSH4 0xB25924C1 EQ PUSH2 0x36B JUMPI DUP1 PUSH4 0xBBDE609A EQ PUSH2 0x3A8 JUMPI DUP1 PUSH4 0xCAC9A391 EQ PUSH2 0x3E5 JUMPI DUP1 PUSH4 0xD50AF7B4 EQ PUSH2 0x410 JUMPI DUP1 PUSH4 0xD50FAC49 EQ PUSH2 0x44F JUMPI DUP1 PUSH4 0xE348C518 EQ PUSH2 0x459 JUMPI PUSH2 0x15E JUMP JUMPDEST DUP1 PUSH4 0x8F75C1FB GT PUSH2 0x108 JUMPI DUP1 PUSH4 0x8F75C1FB EQ PUSH2 0x27A JUMPI DUP1 PUSH4 0x95DF868D EQ PUSH2 0x2A5 JUMPI DUP1 PUSH4 0x9DE8FC99 EQ PUSH2 0x2D0 JUMPI DUP1 PUSH4 0xA4E58A87 EQ PUSH2 0x2FB JUMPI DUP1 PUSH4 0xAB672906 EQ PUSH2 0x312 JUMPI DUP1 PUSH4 0xB14D38C2 EQ PUSH2 0x354 JUMPI PUSH2 0x15E JUMP JUMPDEST DUP1 PUSH4 0x225682D1 EQ PUSH2 0x168 JUMPI DUP1 PUSH4 0x3DEFF252 EQ PUSH2 0x193 JUMPI DUP1 PUSH4 0x3E0905EC EQ PUSH2 0x1BE JUMPI DUP1 PUSH4 0x7BD82410 EQ PUSH2 0x1E7 JUMPI DUP1 PUSH4 0x8B83BA26 EQ PUSH2 0x212 JUMPI DUP1 PUSH4 0x8D1750C5 EQ PUSH2 0x24F JUMPI PUSH2 0x15E JUMP JUMPDEST CALLDATASIZE PUSH2 0x15E JUMPI PUSH2 0x15C PUSH2 0x582 JUMP JUMPDEST STOP JUMPDEST PUSH2 0x166 PUSH2 0x582 JUMP JUMPDEST STOP JUMPDEST CALLVALUE DUP1 ISZERO PUSH2 0x174 JUMPI PUSH1 0x0 DUP1 REVERT JUMPDEST POP PUSH2 0x17D PUSH2 0x7A0 JUMP JUMPDEST PUSH1 0x40 MLOAD PUSH2 0x18A SWAP2 SWAP1 PUSH2 0x1D8D JUMP JUMPDEST PUSH1 0x40 MLOAD DUP1 SWAP2 SUB SWAP1 RETURN JUMPDEST CALLVALUE DUP1 ISZERO PUSH2 0x19F JUMPI PUSH1 0x0 DUP1 REVERT JUMPDEST POP PUSH2 0x1A8 PUSH2 0x7A8 JUMP JUMPDEST PUSH1 0x40 MLOAD PUSH2 0x1B5 SWAP2 SWAP1 PUSH2 0x1B65 JUMP JUMPDEST PUSH1 0x40 MLOAD DUP1 SWAP2 SUB SWAP1 RETURN JUMPDEST CALLVALUE DUP1 ISZERO PUSH2 0x1CA JUMPI PUSH1 0x0 DUP1 REVERT JUMPDEST POP PUSH2 0x1E5 PUSH1 0x4 DUP1 CALLDATASIZE SUB DUP2 ADD SWAP1 PUSH2 0x1E0 SWAP2 SWAP1 PUSH2 0x1745 JUMP JUMPDEST PUSH2 0x836 JUMP JUMPDEST STOP JUMPDEST CALLVALUE DUP1 ISZERO PUSH2 0x1F3 JUMPI PUSH1 0x0 DUP1 REVERT JUMPDEST POP PUSH2 0x1FC PUSH2 0x8C7 JUMP JUMPDEST PUSH1 0x40 MLOAD PUSH2 0x209 SWAP2 SWAP1 PUSH2 0x1D8D JUMP JUMPDEST PUSH1 0x40 MLOAD DUP1 SWAP2 SUB SWAP1 RETURN JUMPDEST CALLVALUE DUP1 ISZERO PUSH2 0x21E JUMPI PUSH1 0x0 DUP1 REVERT JUMPDEST POP PUSH2 0x239 PUSH1 0x4 DUP1 CALLDATASIZE SUB DUP2 ADD SWAP1 PUSH2 0x234 SWAP2 SWAP1 PUSH2 0x16A9 JUMP JUMPDEST PUSH2 0x8CD JUMP JUMPDEST PUSH1 0x40 MLOAD PUSH2 0x246 SWAP2 SWAP1 PUSH2 0x1D8D JUMP JUMPDEST PUSH1 0x40 MLOAD DUP1 SWAP2 SUB SWAP1 RETURN JUMPDEST CALLVALUE DUP1 ISZERO PUSH2 0x25B JUMPI PUSH1 0x0 DUP1 REVERT JUMPDEST POP PUSH2 0x264 PUSH2 0x916 JUMP JUMPDEST PUSH1 0x40 MLOAD PUSH2 0x271 SWAP2 SWAP1 PUSH2 0x1B4A JUMP JUMPDEST PUSH1 0x40 MLOAD DUP1 SWAP2 SUB SWAP1 RETURN JUMPDEST CALLVALUE DUP1 ISZERO PUSH2 0x286 JUMPI PUSH1 0x0 DUP1 REVERT JUMPDEST POP PUSH2 0x28F PUSH2 0x929 JUMP JUMPDEST PUSH1 0x40 MLOAD PUSH2 0x29C SWAP2 SWAP1 PUSH2 0x1AEB JUMP JUMPDEST PUSH1 0x40 MLOAD DUP1 SWAP2 SUB SWAP1 RETURN JUMPDEST CALLVALUE DUP1 ISZERO PUSH2 0x2B1 JUMPI PUSH1 0x0 DUP1 REVERT JUMPDEST POP PUSH2 0x2BA PUSH2 0x94D JUMP JUMPDEST PUSH1 0x40 MLOAD PUSH2 0x2C7 SWAP2 SWAP1 PUSH2 0x1D8D JUMP JUMPDEST PUSH1 0x40 MLOAD DUP1 SWAP2 SUB SWAP1 RETURN JUMPDEST CALLVALUE DUP1 ISZERO PUSH2 0x2DC JUMPI PUSH1 0x0 DUP1 REVERT JUMPDEST POP PUSH2 0x2E5 PUSH2 0x953 JUMP JUMPDEST PUSH1 0x40 MLOAD PUSH2 0x2F2 SWAP2 SWAP1 PUSH2 0x1D8D JUMP JUMPDEST PUSH1 0x40 MLOAD DUP1 SWAP2 SUB SWAP1 RETURN JUMPDEST CALLVALUE DUP1 ISZERO PUSH2 0x307 JUMPI PUSH1 0x0 DUP1 REVERT JUMPDEST POP PUSH2 0x310 PUSH2 0x95D JUMP JUMPDEST STOP JUMPDEST CALLVALUE DUP1 ISZERO PUSH2 0x31E JUMPI PUSH1 0x0 DUP1 REVERT JUMPDEST POP PUSH2 0x339 PUSH1 0x4 DUP1 CALLDATASIZE SUB DUP2 ADD SWAP1 PUSH2 0x334 SWAP2 SWAP1 PUSH2 0x1745 JUMP JUMPDEST PUSH2 0xB35 JUMP JUMPDEST PUSH1 0x40 MLOAD PUSH2 0x34B SWAP7 SWAP6 SWAP5 SWAP4 SWAP3 SWAP2 SWAP1 PUSH2 0x1B87 JUMP JUMPDEST PUSH1 0x40 MLOAD DUP1 SWAP2 SUB SWAP1 RETURN JUMPDEST CALLVALUE DUP1 ISZERO PUSH2 0x360 JUMPI PUSH1 0x0 DUP1 REVERT JUMPDEST POP PUSH2 0x369 PUSH2 0xC26 JUMP JUMPDEST STOP JUMPDEST CALLVALUE DUP1 ISZERO PUSH2 0x377 JUMPI PUSH1 0x0 DUP1 REVERT JUMPDEST POP PUSH2 0x392 PUSH1 0x4 DUP1 CALLDATASIZE SUB DUP2 ADD SWAP1 PUSH2 0x38D SWAP2 SWAP1 PUSH2 0x1745 JUMP JUMPDEST PUSH2 0xDBA JUMP JUMPDEST PUSH1 0x40 MLOAD PUSH2 0x39F SWAP2 SWAP1 PUSH2 0x1AD0 JUMP JUMPDEST PUSH1 0x40 MLOAD DUP1 SWAP2 SUB SWAP1 RETURN JUMPDEST CALLVALUE DUP1 ISZERO PUSH2 0x3B4 JUMPI PUSH1 0x0 DUP1 REVERT JUMPDEST POP PUSH2 0x3CF PUSH1 0x4 DUP1 CALLDATASIZE SUB DUP2 ADD SWAP1 PUSH2 0x3CA SWAP2 SWAP1 PUSH2 0x16A9 JUMP JUMPDEST PUSH2 0xDF9 JUMP JUMPDEST PUSH1 0x40 MLOAD PUSH2 0x3DC SWAP2 SWAP1 PUSH2 0x1D8D JUMP JUMPDEST PUSH1 0x40 MLOAD DUP1 SWAP2 SUB SWAP1 RETURN JUMPDEST CALLVALUE DUP1 ISZERO PUSH2 0x3F1 JUMPI PUSH1 0x0 DUP1 REVERT JUMPDEST POP PUSH2 0x3FA PUSH2 0xE11 JUMP JUMPDEST PUSH1 0x40 MLOAD PUSH2 0x407 SWAP2 SWAP1 PUSH2 0x1B06 JUMP JUMPDEST PUSH1 0x40 MLOAD DUP1 SWAP2 SUB SWAP1 RETURN JUMPDEST CALLVALUE DUP1 ISZERO PUSH2 0x41C JUMPI PUSH1 0x0 DUP1 REVERT JUMPDEST POP PUSH2 0x437 PUSH1 0x4 DUP1 CALLDATASIZE SUB DUP2 ADD SWAP1 PUSH2 0x432 SWAP2 SWAP1 PUSH2 0x1745 JUMP JUMPDEST PUSH2 0xE9F JUMP JUMPDEST PUSH1 0x40 MLOAD PUSH2 0x446 SWAP4 SWAP3 SWAP2 SWAP1 PUSH2 0x1BEF JUMP JUMPDEST PUSH1 0x40 MLOAD DUP1 SWAP2 SUB SWAP1 RETURN JUMPDEST PUSH2 0x457 PUSH2 0x582 JUMP JUMPDEST STOP JUMPDEST CALLVALUE DUP1 ISZERO PUSH2 0x465 JUMPI PUSH1 0x0 DUP1 REVERT JUMPDEST POP PUSH2 0x46E PUSH2 0xFFB JUMP JUMPDEST PUSH1 0x40 MLOAD PUSH2 0x47B SWAP2 SWAP1 PUSH2 0x1D8D JUMP JUMPDEST PUSH1 0x40 MLOAD DUP1 SWAP2 SUB SWAP1 RETURN JUMPDEST CALLVALUE DUP1 ISZERO PUSH2 0x490 JUMPI PUSH1 0x0 DUP1 REVERT JUMPDEST POP PUSH2 0x499 PUSH2 0x1001 JUMP JUMPDEST PUSH1 0x40 MLOAD PUSH2 0x4A6 SWAP2 SWAP1 PUSH2 0x1D8D JUMP JUMPDEST PUSH1 0x40 MLOAD DUP1 SWAP2 SUB SWAP1 RETURN JUMPDEST CALLVALUE DUP1 ISZERO PUSH2 0x4BB JUMPI PUSH1 0x0 DUP1 REVERT JUMPDEST POP PUSH2 0x4C4 PUSH2 0x100E JUMP JUMPDEST PUSH1 0x40 MLOAD PUSH2 0x4D1 SWAP2 SWAP1 PUSH2 0x1B65 JUMP JUMPDEST PUSH1 0x40 MLOAD DUP1 SWAP2 SUB SWAP1 RETURN JUMPDEST CALLVALUE DUP1 ISZERO PUSH2 0x4E6 JUMPI PUSH1 0x0 DUP1 REVERT JUMPDEST POP PUSH2 0x4EF PUSH2 0x109C JUMP JUMPDEST PUSH1 0x40 MLOAD PUSH2 0x4FC SWAP2 SWAP1 PUSH2 0x1B28 JUMP JUMPDEST PUSH1 0x40 MLOAD DUP1 SWAP2 SUB SWAP1 RETURN JUMPDEST CALLVALUE DUP1 ISZERO PUSH2 0x511 JUMPI PUSH1 0x0 DUP1 REVERT JUMPDEST POP PUSH2 0x52C PUSH1 0x4 DUP1 CALLDATASIZE SUB DUP2 ADD SWAP1 PUSH2 0x527 SWAP2 SWAP1 PUSH2 0x1772 JUMP JUMPDEST PUSH2 0x123D JUMP JUMPDEST STOP JUMPDEST CALLVALUE DUP1 ISZERO PUSH2 0x53A JUMPI PUSH1 0x0 DUP1 REVERT JUMPDEST POP PUSH2 0x543 PUSH2 0x130F JUMP JUMPDEST PUSH1 0x40 MLOAD PUSH2 0x550 SWAP2 SWAP1 PUSH2 0x1D8D JUMP JUMPDEST PUSH1 0x40 MLOAD DUP1 SWAP2 SUB SWAP1 RETURN JUMPDEST CALLVALUE DUP1 ISZERO PUSH2 0x565 JUMPI PUSH1 0x0 DUP1 REVERT JUMPDEST POP PUSH2 0x580 PUSH1 0x4 DUP1 CALLDATASIZE SUB DUP2 ADD SWAP1 PUSH2 0x57B SWAP2 SWAP1 PUSH2 0x16D6 JUMP JUMPDEST PUSH2 0x1333 JUMP JUMPDEST STOP JUMPDEST PUSH1 0x5 SLOAD CALLVALUE LT ISZERO PUSH2 0x5C7 JUMPI PUSH1 0x40 MLOAD PUSH32 0x8C379A000000000000000000000000000000000000000000000000000000000 DUP2 MSTORE PUSH1 0x4 ADD PUSH2 0x5BE SWAP1 PUSH2 0x1C4D JUMP JUMPDEST PUSH1 0x40 MLOAD DUP1 SWAP2 SUB SWAP1 REVERT JUMPDEST PUSH1 0x0 PUSH1 0x2 DUP2 GT ISZERO PUSH2 0x5DB JUMPI PUSH2 0x5DA PUSH2 0x2186 JUMP JUMPDEST JUMPDEST PUSH1 0x3 PUSH1 0x0 SWAP1 SLOAD SWAP1 PUSH2 0x100 EXP SWAP1 DIV PUSH1 0xFF AND PUSH1 0x2 DUP2 GT ISZERO PUSH2 0x5FD JUMPI PUSH2 0x5FC PUSH2 0x2186 JUMP JUMPDEST JUMPDEST EQ PUSH2 0x63D JUMPI PUSH1 0x40 MLOAD PUSH32 0x8C379A000000000000000000000000000000000000000000000000000000000 DUP2 MSTORE PUSH1 0x4 ADD PUSH2 0x634 SWAP1 PUSH2 0x1C6D JUMP JUMPDEST PUSH1 0x40 MLOAD DUP1 SWAP2 SUB SWAP1 REVERT JUMPDEST PUSH1 0x0 PUSH1 0x6 PUSH1 0x0 CALLER PUSH20 0xFFFFFFFFFFFFFFFFFFFFFFFFFFFFFFFFFFFFFFFF AND PUSH20 0xFFFFFFFFFFFFFFFFFFFFFFFFFFFFFFFFFFFFFFFF AND DUP2 MSTORE PUSH1 0x20 ADD SWAP1 DUP2 MSTORE PUSH1 0x20 ADD PUSH1 0x0 KECCAK256 SLOAD EQ ISZERO PUSH2 0x6E9 JUMPI PUSH1 0x7 CALLER SWAP1 DUP1 PUSH1 0x1 DUP2 SLOAD ADD DUP1 DUP3 SSTORE DUP1 SWAP2 POP POP PUSH1 0x1 SWAP1 SUB SWAP1 PUSH1 0x0 MSTORE PUSH1 0x20 PUSH1 0x0 KECCAK256 ADD PUSH1 0x0 SWAP1 SWAP2 SWAP1 SWAP2 SWAP1 SWAP2 PUSH2 0x100 EXP DUP2 SLOAD DUP2 PUSH20 0xFFFFFFFFFFFFFFFFFFFFFFFFFFFFFFFFFFFFFFFF MUL NOT AND SWAP1 DUP4 PUSH20 0xFFFFFFFFFFFFFFFFFFFFFFFFFFFFFFFFFFFFFFFF AND MUL OR SWAP1 SSTORE POP JUMPDEST PUSH1 0x0 PUSH1 0x5 SLOAD CALLVALUE PUSH2 0x6F9 SWAP2 SWAP1 PUSH2 0x1F0B JUMP JUMPDEST SWAP1 POP DUP1 PUSH1 0x6 PUSH1 0x0 CALLER PUSH20 0xFFFFFFFFFFFFFFFFFFFFFFFFFFFFFFFFFFFFFFFF AND PUSH20 0xFFFFFFFFFFFFFFFFFFFFFFFFFFFFFFFFFFFFFFFF AND DUP2 MSTORE PUSH1 0x20 ADD SWAP1 DUP2 MSTORE PUSH1 0x20 ADD PUSH1 0x0 KECCAK256 SLOAD PUSH2 0x746 SWAP2 SWAP1 PUSH2 0x1EB5 JUMP JUMPDEST PUSH1 0x6 PUSH1 0x0 CALLER PUSH20 0xFFFFFFFFFFFFFFFFFFFFFFFFFFFFFFFFFFFFFFFF AND PUSH20 0xFFFFFFFFFFFFFFFFFFFFFFFFFFFFFFFFFFFFFFFF AND DUP2 MSTORE PUSH1 0x20 ADD SWAP1 DUP2 MSTORE PUSH1 0x20 ADD PUSH1 0x0 KECCAK256 DUP2 SWAP1 SSTORE POP DUP1 PUSH1 0x8 SLOAD PUSH2 0x797 SWAP2 SWAP1 PUSH2 0x1EB5 JUMP JUMPDEST PUSH1 0x8 DUP2 SWAP1 SSTORE POP POP JUMP JUMPDEST PUSH1 0x0 SELFBALANCE SWAP1 POP SWAP1 JUMP JUMPDEST PUSH1 0x1 DUP1 SLOAD PUSH2 0x7B5 SWAP1 PUSH2 0x207C JUMP JUMPDEST DUP1 PUSH1 0x1F ADD PUSH1 0x20 DUP1 SWAP2 DIV MUL PUSH1 0x20 ADD PUSH1 0x40 MLOAD SWAP1 DUP2 ADD PUSH1 0x40 MSTORE DUP1 SWAP3 SWAP2 SWAP1 DUP2 DUP2 MSTORE PUSH1 0x20 ADD DUP3 DUP1 SLOAD PUSH2 0x7E1 SWAP1 PUSH2 0x207C JUMP JUMPDEST DUP1 ISZERO PUSH2 0x82E JUMPI DUP1 PUSH1 0x1F LT PUSH2 0x803 JUMPI PUSH2 0x100 DUP1 DUP4 SLOAD DIV MUL DUP4 MSTORE SWAP2 PUSH1 0x20 ADD SWAP2 PUSH2 0x82E JUMP JUMPDEST DUP3 ADD SWAP2 SWAP1 PUSH1 0x0 MSTORE PUSH1 0x20 PUSH1 0x0 KECCAK256 SWAP1 JUMPDEST DUP2 SLOAD DUP2 MSTORE SWAP1 PUSH1 0x1 ADD SWAP1 PUSH1 0x20 ADD DUP1 DUP4 GT PUSH2 0x811 JUMPI DUP3 SWAP1 SUB PUSH1 0x1F AND DUP3 ADD SWAP2 JUMPDEST POP POP POP POP POP DUP2 JUMP JUMPDEST CALLER PUSH20 0xFFFFFFFFFFFFFFFFFFFFFFFFFFFFFFFFFFFFFFFF AND PUSH1 0x0 DUP1 SLOAD SWAP1 PUSH2 0x100 EXP SWAP1 DIV PUSH20 0xFFFFFFFFFFFFFFFFFFFFFFFFFFFFFFFFFFFFFFFF AND PUSH20 0xFFFFFFFFFFFFFFFFFFFFFFFFFFFFFFFFFFFFFFFF AND EQ PUSH2 0x8C4 JUMPI PUSH1 0x40 MLOAD PUSH32 0x8C379A000000000000000000000000000000000000000000000000000000000 DUP2 MSTORE PUSH1 0x4 ADD PUSH2 0x8BB SWAP1 PUSH2 0x1D2D JUMP JUMPDEST PUSH1 0x40 MLOAD DUP1 SWAP2 SUB SWAP1 REVERT JUMPDEST POP JUMP JUMPDEST PUSH1 0x8 SLOAD DUP2 JUMP JUMPDEST PUSH1 0x0 PUSH1 0x6 PUSH1 0x0 DUP4 PUSH20 0xFFFFFFFFFFFFFFFFFFFFFFFFFFFFFFFFFFFFFFFF AND PUSH20 0xFFFFFFFFFFFFFFFFFFFFFFFFFFFFFFFFFFFFFFFF AND DUP2 MSTORE PUSH1 0x20 ADD SWAP1 DUP2 MSTORE PUSH1 0x20 ADD PUSH1 0x0 KECCAK256 SLOAD SWAP1 POP SWAP2 SWAP1 POP JUMP JUMPDEST PUSH1 0x3 PUSH1 0x0 SWAP1 SLOAD SWAP1 PUSH2 0x100 EXP SWAP1 DIV PUSH1 0xFF AND DUP2 JUMP JUMPDEST PUSH1 0x0 DUP1 SLOAD SWAP1 PUSH2 0x100 EXP SWAP1 DIV PUSH20 0xFFFFFFFFFFFFFFFFFFFFFFFFFFFFFFFFFFFFFFFF AND DUP2 JUMP JUMPDEST PUSH1 0x4 SLOAD DUP2 JUMP JUMPDEST PUSH1 0x0 PUSH1 0xA SLOAD SWAP1 POP SWAP1 JUMP JUMPDEST PUSH1 0x0 PUSH1 0x6 PUSH1 0x0 CALLER PUSH20 0xFFFFFFFFFFFFFFFFFFFFFFFFFFFFFFFFFFFFFFFF AND PUSH20 0xFFFFFFFFFFFFFFFFFFFFFFFFFFFFFFFFFFFFFFFF AND DUP2 MSTORE PUSH1 0x20 ADD SWAP1 DUP2 MSTORE PUSH1 0x20 ADD PUSH1 0x0 KECCAK256 SLOAD GT PUSH2 0x9DF JUMPI PUSH1 0x40 MLOAD PUSH32 0x8C379A000000000000000000000000000000000000000000000000000000000 DUP2 MSTORE PUSH1 0x4 ADD PUSH2 0x9D6 SWAP1 PUSH2 0x1D4D JUMP JUMPDEST PUSH1 0x40 MLOAD DUP1 SWAP2 SUB SWAP1 REVERT JUMPDEST PUSH1 0x1 PUSH1 0x2 DUP2 GT ISZERO PUSH2 0x9F3 JUMPI PUSH2 0x9F2 PUSH2 0x2186 JUMP JUMPDEST JUMPDEST PUSH1 0x3 PUSH1 0x0 SWAP1 SLOAD SWAP1 PUSH2 0x100 EXP SWAP1 DIV PUSH1 0xFF AND PUSH1 0x2 DUP2 GT ISZERO PUSH2 0xA15 JUMPI PUSH2 0xA14 PUSH2 0x2186 JUMP JUMPDEST JUMPDEST EQ PUSH2 0xA55 JUMPI PUSH1 0x40 MLOAD PUSH32 0x8C379A000000000000000000000000000000000000000000000000000000000 DUP2 MSTORE PUSH1 0x4 ADD PUSH2 0xA4C SWAP1 PUSH2 0x1CAD JUMP JUMPDEST PUSH1 0x40 MLOAD DUP1 SWAP2 SUB SWAP1 REVERT JUMPDEST PUSH1 0x0 PUSH1 0x5 SLOAD PUSH1 0x6 PUSH1 0x0 CALLER PUSH20 0xFFFFFFFFFFFFFFFFFFFFFFFFFFFFFFFFFFFFFFFF AND PUSH20 0xFFFFFFFFFFFFFFFFFFFFFFFFFFFFFFFFFFFFFFFF AND DUP2 MSTORE PUSH1 0x20 ADD SWAP1 DUP2 MSTORE PUSH1 0x20 ADD PUSH1 0x0 KECCAK256 SLOAD PUSH2 0xAA4 SWAP2 SWAP1 PUSH2 0x1F3C JUMP JUMPDEST SWAP1 POP PUSH1 0x0 PUSH1 0x6 PUSH1 0x0 CALLER PUSH20 0xFFFFFFFFFFFFFFFFFFFFFFFFFFFFFFFFFFFFFFFF AND PUSH20 0xFFFFFFFFFFFFFFFFFFFFFFFFFFFFFFFFFFFFFFFF AND DUP2 MSTORE PUSH1 0x20 ADD SWAP1 DUP2 MSTORE PUSH1 0x20 ADD PUSH1 0x0 KECCAK256 DUP2 SWAP1 SSTORE POP CALLER PUSH20 0xFFFFFFFFFFFFFFFFFFFFFFFFFFFFFFFFFFFFFFFF AND PUSH2 0x8FC DUP3 SWAP1 DUP2 ISZERO MUL SWAP1 PUSH1 0x40 MLOAD PUSH1 0x0 PUSH1 0x40 MLOAD DUP1 DUP4 SUB DUP2 DUP6 DUP9 DUP9 CALL SWAP4 POP POP POP POP ISZERO DUP1 ISZERO PUSH2 0xB31 JUMPI RETURNDATASIZE PUSH1 0x0 DUP1 RETURNDATACOPY RETURNDATASIZE PUSH1 0x0 REVERT JUMPDEST POP POP JUMP JUMPDEST PUSH1 0x9 PUSH1 0x20 MSTORE DUP1 PUSH1 0x0 MSTORE PUSH1 0x40 PUSH1 0x0 KECCAK256 PUSH1 0x0 SWAP2 POP SWAP1 POP DUP1 PUSH1 0x0 ADD DUP1 SLOAD PUSH2 0xB58 SWAP1 PUSH2 0x207C JUMP JUMPDEST DUP1 PUSH1 0x1F ADD PUSH1 0x20 DUP1 SWAP2 DIV MUL PUSH1 0x20 ADD PUSH1 0x40 MLOAD SWAP1 DUP2 ADD PUSH1 0x40 MSTORE DUP1 SWAP3 SWAP2 SWAP1 DUP2 DUP2 MSTORE PUSH1 0x20 ADD DUP3 DUP1 SLOAD PUSH2 0xB84 SWAP1 PUSH2 0x207C JUMP JUMPDEST DUP1 ISZERO PUSH2 0xBD1 JUMPI DUP1 PUSH1 0x1F LT PUSH2 0xBA6 JUMPI PUSH2 0x100 DUP1 DUP4 SLOAD DIV MUL DUP4 MSTORE SWAP2 PUSH1 0x20 ADD SWAP2 PUSH2 0xBD1 JUMP JUMPDEST DUP3 ADD SWAP2 SWAP1 PUSH1 0x0 MSTORE PUSH1 0x20 PUSH1 0x0 KECCAK256 SWAP1 JUMPDEST DUP2 SLOAD DUP2 MSTORE SWAP1 PUSH1 0x1 ADD SWAP1 PUSH1 0x20 ADD DUP1 DUP4 GT PUSH2 0xBB4 JUMPI DUP3 SWAP1 SUB PUSH1 0x1F AND DUP3 ADD SWAP2 JUMPDEST POP POP POP POP POP SWAP1 DUP1 PUSH1 0x1 ADD PUSH1 0x0 SWAP1 SLOAD SWAP1 PUSH2 0x100 EXP SWAP1 DIV PUSH1 0xFF AND SWAP1 DUP1 PUSH1 0x2 ADD SLOAD SWAP1 DUP1 PUSH1 0x3 ADD PUSH1 0x0 SWAP1 SLOAD SWAP1 PUSH2 0x100 EXP SWAP1 DIV PUSH20 0xFFFFFFFFFFFFFFFFFFFFFFFFFFFFFFFFFFFFFFFF AND SWAP1 DUP1 PUSH1 0x4 ADD SLOAD SWAP1 DUP1 PUSH1 0x5 ADD SLOAD SWAP1 POP DUP7 JUMP JUMPDEST PUSH1 0x0 PUSH1 0x2 DUP2 GT ISZERO PUSH2 0xC3A JUMPI PUSH2 0xC39 PUSH2 0x2186 JUMP JUMPDEST JUMPDEST PUSH1 0x3 PUSH1 0x0 SWAP1 SLOAD SWAP1 PUSH2 0x100 EXP SWAP1 DIV PUSH1 0xFF AND PUSH1 0x2 DUP2 GT ISZERO PUSH2 0xC5C JUMPI PUSH2 0xC5B PUSH2 0x2186 JUMP JUMPDEST JUMPDEST EQ PUSH2 0xC9C JUMPI PUSH1 0x40 MLOAD PUSH32 0x8C379A000000000000000000000000000000000000000000000000000000000 DUP2 MSTORE PUSH1 0x4 ADD PUSH2 0xC93 SWAP1 PUSH2 0x1C2D JUMP JUMPDEST PUSH1 0x40 MLOAD DUP1 SWAP2 SUB SWAP1 REVERT JUMPDEST PUSH1 0x0 DUP1 SLOAD SWAP1 PUSH2 0x100 EXP SWAP1 DIV PUSH20 0xFFFFFFFFFFFFFFFFFFFFFFFFFFFFFFFFFFFFFFFF AND PUSH20 0xFFFFFFFFFFFFFFFFFFFFFFFFFFFFFFFFFFFFFFFF AND CALLER PUSH20 0xFFFFFFFFFFFFFFFFFFFFFFFFFFFFFFFFFFFFFFFF AND EQ PUSH2 0xD53 JUMPI PUSH32 0x0 TIMESTAMP LT ISZERO PUSH2 0xD52 JUMPI PUSH1 0x40 MLOAD PUSH32 0x8C379A000000000000000000000000000000000000000000000000000000000 DUP2 MSTORE PUSH1 0x4 ADD PUSH2 0xD49 SWAP1 PUSH2 0x1C8D JUMP JUMPDEST PUSH1 0x40 MLOAD DUP1 SWAP2 SUB SWAP1 REVERT JUMPDEST JUMPDEST SELFBALANCE PUSH1 0x4 SLOAD GT PUSH2 0xD8C JUMPI PUSH1 0x2 PUSH1 0x3 PUSH1 0x0 PUSH2 0x100 EXP DUP2 SLOAD DUP2 PUSH1 0xFF MUL NOT AND SWAP1 DUP4 PUSH1 0x2 DUP2 GT ISZERO PUSH2 0xD82 JUMPI PUSH2 0xD81 PUSH2 0x2186 JUMP JUMPDEST JUMPDEST MUL OR SWAP1 SSTORE POP PUSH2 0xDB8 JUMP JUMPDEST PUSH1 0x1 PUSH1 0x3 PUSH1 0x0 PUSH2 0x100 EXP DUP2 SLOAD DUP2 PUSH1 0xFF MUL NOT AND SWAP1 DUP4 PUSH1 0x2 DUP2 GT ISZERO PUSH2 0xDB2 JUMPI PUSH2 0xDB1 PUSH2 0x2186 JUMP JUMPDEST JUMPDEST MUL OR SWAP1 SSTORE POP JUMPDEST JUMP JUMPDEST PUSH1 0x7 DUP2 DUP2 SLOAD DUP2 LT PUSH2 0xDCA JUMPI PUSH1 0x0 DUP1 REVERT JUMPDEST SWAP1 PUSH1 0x0 MSTORE PUSH1 0x20 PUSH1 0x0 KECCAK256 ADD PUSH1 0x0 SWAP2 POP SLOAD SWAP1 PUSH2 0x100 EXP SWAP1 DIV PUSH20 0xFFFFFFFFFFFFFFFFFFFFFFFFFFFFFFFFFFFFFFFF AND DUP2 JUMP JUMPDEST PUSH1 0x6 PUSH1 0x20 MSTORE DUP1 PUSH1 0x0 MSTORE PUSH1 0x40 PUSH1 0x0 KECCAK256 PUSH1 0x0 SWAP2 POP SWAP1 POP SLOAD DUP2 JUMP JUMPDEST PUSH1 0x60 PUSH1 0x7 DUP1 SLOAD DUP1 PUSH1 0x20 MUL PUSH1 0x20 ADD PUSH1 0x40 MLOAD SWAP1 DUP2 ADD PUSH1 0x40 MSTORE DUP1 SWAP3 SWAP2 SWAP1 DUP2 DUP2 MSTORE PUSH1 0x20 ADD DUP3 DUP1 SLOAD DUP1 ISZERO PUSH2 0xE95 JUMPI PUSH1 0x20 MUL DUP3 ADD SWAP2 SWAP1 PUSH1 0x0 MSTORE PUSH1 0x20 PUSH1 0x0 KECCAK256 SWAP1 JUMPDEST DUP2 PUSH1 0x0 SWAP1 SLOAD SWAP1 PUSH2 0x100 EXP SWAP1 DIV PUSH20 0xFFFFFFFFFFFFFFFFFFFFFFFFFFFFFFFFFFFFFFFF AND PUSH20 0xFFFFFFFFFFFFFFFFFFFFFFFFFFFFFFFFFFFFFFFF AND DUP2 MSTORE PUSH1 0x20 ADD SWAP1 PUSH1 0x1 ADD SWAP1 DUP1 DUP4 GT PUSH2 0xE4B JUMPI JUMPDEST POP POP POP POP POP SWAP1 POP SWAP1 JUMP JUMPDEST PUSH1 0x60 PUSH1 0x0 DUP1 PUSH1 0xA SLOAD DUP5 LT PUSH2 0xEE8 JUMPI PUSH1 0x40 MLOAD PUSH32 0x8C379A000000000000000000000000000000000000000000000000000000000 DUP2 MSTORE PUSH1 0x4 ADD PUSH2 0xEDF SWAP1 PUSH2 0x1CCD JUMP JUMPDEST PUSH1 0x40 MLOAD DUP1 SWAP2 SUB SWAP1 REVERT JUMPDEST PUSH1 0x0 PUSH1 0x1 PUSH1 0x2 DUP2 GT ISZERO PUSH2 0xEFE JUMPI PUSH2 0xEFD PUSH2 0x2186 JUMP JUMPDEST JUMPDEST PUSH1 0x9 PUSH1 0x0 DUP8 DUP2 MSTORE PUSH1 0x20 ADD SWAP1 DUP2 MSTORE PUSH1 0x20 ADD PUSH1 0x0 KECCAK256 PUSH1 0x1 ADD PUSH1 0x0 SWAP1 SLOAD SWAP1 PUSH2 0x100 EXP SWAP1 DIV PUSH1 0xFF AND PUSH1 0x2 DUP2 GT ISZERO PUSH2 0xF34 JUMPI PUSH2 0xF33 PUSH2 0x2186 JUMP JUMPDEST JUMPDEST EQ ISZERO PUSH2 0xF3F JUMPI PUSH1 0x1 SWAP1 POP JUMPDEST PUSH1 0x0 PUSH1 0x9 PUSH1 0x0 DUP8 DUP2 MSTORE PUSH1 0x20 ADD SWAP1 DUP2 MSTORE PUSH1 0x20 ADD PUSH1 0x0 KECCAK256 SWAP1 POP DUP1 PUSH1 0x0 ADD DUP2 PUSH1 0x2 ADD SLOAD DUP4 DUP3 DUP1 SLOAD PUSH2 0xF6C SWAP1 PUSH2 0x207C JUMP JUMPDEST DUP1 PUSH1 0x1F ADD PUSH1 0x20 DUP1 SWAP2 DIV MUL PUSH1 0x20 ADD PUSH1 0x40 MLOAD SWAP1 DUP2 ADD PUSH1 0x40 MSTORE DUP1 SWAP3 SWAP2 SWAP1 DUP2 DUP2 MSTORE PUSH1 0x20 ADD DUP3 DUP1 SLOAD PUSH2 0xF98 SWAP1 PUSH2 0x207C JUMP JUMPDEST DUP1 ISZERO PUSH2 0xFE5 JUMPI DUP1 PUSH1 0x1F LT PUSH2 0xFBA JUMPI PUSH2 0x100 DUP1 DUP4 SLOAD DIV MUL DUP4 MSTORE SWAP2 PUSH1 0x20 ADD SWAP2 PUSH2 0xFE5 JUMP JUMPDEST DUP3 ADD SWAP2 SWAP1 PUSH1 0x0 MSTORE PUSH1 0x20 PUSH1 0x0 KECCAK256 SWAP1 JUMPDEST DUP2 SLOAD DUP2 MSTORE SWAP1 PUSH1 0x1 ADD SWAP1 PUSH1 0x20 ADD DUP1 DUP4 GT PUSH2 0xFC8 JUMPI DUP3 SWAP1 SUB PUSH1 0x1F AND DUP3 ADD SWAP2 JUMPDEST POP POP POP POP POP SWAP3 POP SWAP5 POP SWAP5 POP SWAP5 POP POP POP SWAP2 SWAP4 SWAP1 SWAP3 POP JUMP JUMPDEST PUSH1 0x5 SLOAD DUP2 JUMP JUMPDEST PUSH1 0x0 PUSH1 0x7 DUP1 SLOAD SWAP1 POP SWAP1 POP SWAP1 JUMP JUMPDEST PUSH1 0x2 DUP1 SLOAD PUSH2 0x101B SWAP1 PUSH2 0x207C JUMP JUMPDEST DUP1 PUSH1 0x1F ADD PUSH1 0x20 DUP1 SWAP2 DIV MUL PUSH1 0x20 ADD PUSH1 0x40 MLOAD SWAP1 DUP2 ADD PUSH1 0x40 MSTORE DUP1 SWAP3 SWAP2 SWAP1 DUP2 DUP2 MSTORE PUSH1 0x20 ADD DUP3 DUP1 SLOAD PUSH2 0x1047 SWAP1 PUSH2 0x207C JUMP JUMPDEST DUP1 ISZERO PUSH2 0x1094 JUMPI DUP1 PUSH1 0x1F LT PUSH2 0x1069 JUMPI PUSH2 0x100 DUP1 DUP4 SLOAD DIV MUL DUP4 MSTORE SWAP2 PUSH1 0x20 ADD SWAP2 PUSH2 0x1094 JUMP JUMPDEST DUP3 ADD SWAP2 SWAP1 PUSH1 0x0 MSTORE PUSH1 0x20 PUSH1 0x0 KECCAK256 SWAP1 JUMPDEST DUP2 SLOAD DUP2 MSTORE SWAP1 PUSH1 0x1 ADD SWAP1 PUSH1 0x20 ADD DUP1 DUP4 GT PUSH2 0x1077 JUMPI DUP3 SWAP1 SUB PUSH1 0x1F AND DUP3 ADD SWAP2 JUMPDEST POP POP POP POP POP DUP2 JUMP JUMPDEST PUSH1 0x60 PUSH1 0x0 PUSH1 0xA SLOAD PUSH8 0xFFFFFFFFFFFFFFFF DUP2 GT ISZERO PUSH2 0x10BC JUMPI PUSH2 0x10BB PUSH2 0x2213 JUMP JUMPDEST JUMPDEST PUSH1 0x40 MLOAD SWAP1 DUP1 DUP3 MSTORE DUP1 PUSH1 0x20 MUL PUSH1 0x20 ADD DUP3 ADD PUSH1 0x40 MSTORE DUP1 ISZERO PUSH2 0x10EA JUMPI DUP2 PUSH1 0x20 ADD PUSH1 0x20 DUP3 MUL DUP1 CALLDATASIZE DUP4 CALLDATACOPY DUP1 DUP3 ADD SWAP2 POP POP SWAP1 POP JUMPDEST POP SWAP1 POP PUSH1 0x0 DUP1 JUMPDEST PUSH1 0xA SLOAD DUP2 LT ISZERO PUSH2 0x118D JUMPI PUSH1 0x0 PUSH1 0x2 DUP2 GT ISZERO PUSH2 0x110F JUMPI PUSH2 0x110E PUSH2 0x2186 JUMP JUMPDEST JUMPDEST PUSH1 0x9 PUSH1 0x0 DUP4 DUP2 MSTORE PUSH1 0x20 ADD SWAP1 DUP2 MSTORE PUSH1 0x20 ADD PUSH1 0x0 KECCAK256 PUSH1 0x1 ADD PUSH1 0x0 SWAP1 SLOAD SWAP1 PUSH2 0x100 EXP SWAP1 DIV PUSH1 0xFF AND PUSH1 0x2 DUP2 GT ISZERO PUSH2 0x1145 JUMPI PUSH2 0x1144 PUSH2 0x2186 JUMP JUMPDEST JUMPDEST EQ ISZERO PUSH2 0x117A JUMPI DUP1 DUP4 DUP4 DUP2 MLOAD DUP2 LT PUSH2 0x115F JUMPI PUSH2 0x115E PUSH2 0x21E4 JUMP JUMPDEST JUMPDEST PUSH1 0x20 MUL PUSH1 0x20 ADD ADD DUP2 DUP2 MSTORE POP POP DUP2 DUP1 PUSH2 0x1176 SWAP1 PUSH2 0x20DF JUMP JUMPDEST SWAP3 POP POP JUMPDEST DUP1 DUP1 PUSH2 0x1185 SWAP1 PUSH2 0x20DF JUMP JUMPDEST SWAP2 POP POP PUSH2 0x10F1 JUMP JUMPDEST POP PUSH1 0x0 DUP2 PUSH8 0xFFFFFFFFFFFFFFFF DUP2 GT ISZERO PUSH2 0x11AA JUMPI PUSH2 0x11A9 PUSH2 0x2213 JUMP JUMPDEST JUMPDEST PUSH1 0x40 MLOAD SWAP1 DUP1 DUP3 MSTORE DUP1 PUSH1 0x20 MUL PUSH1 0x20 ADD DUP3 ADD PUSH1 0x40 MSTORE DUP1 ISZERO PUSH2 0x11D8 JUMPI DUP2 PUSH1 0x20 ADD PUSH1 0x20 DUP3 MUL DUP1 CALLDATASIZE DUP4 CALLDATACOPY DUP1 DUP3 ADD SWAP2 POP POP SWAP1 POP JUMPDEST POP SWAP1 POP PUSH1 0x0 JUMPDEST DUP3 DUP2 LT ISZERO PUSH2 0x1233 JUMPI DUP4 DUP2 DUP2 MLOAD DUP2 LT PUSH2 0x11F9 JUMPI PUSH2 0x11F8 PUSH2 0x21E4 JUMP JUMPDEST JUMPDEST PUSH1 0x20 MUL PUSH1 0x20 ADD ADD MLOAD DUP3 DUP3 DUP2 MLOAD DUP2 LT PUSH2 0x1214 JUMPI PUSH2 0x1213 PUSH2 0x21E4 JUMP JUMPDEST JUMPDEST PUSH1 0x20 MUL PUSH1 0x20 ADD ADD DUP2 DUP2 MSTORE POP POP DUP1 DUP1 PUSH2 0x122B SWAP1 PUSH2 0x20DF JUMP JUMPDEST SWAP2 POP POP PUSH2 0x11DE JUMP JUMPDEST POP DUP1 SWAP4 POP POP POP POP SWAP1 JUMP JUMPDEST PUSH1 0xA SLOAD DUP3 LT PUSH2 0x1281 JUMPI PUSH1 0x40 MLOAD PUSH32 0x8C379A000000000000000000000000000000000000000000000000000000000 DUP2 MSTORE PUSH1 0x4 ADD PUSH2 0x1278 SWAP1 PUSH2 0x1CED JUMP JUMPDEST PUSH1 0x40 MLOAD DUP1 SWAP2 SUB SWAP1 REVERT JUMPDEST PUSH1 0x0 PUSH1 0x2 DUP2 GT ISZERO PUSH2 0x1295 JUMPI PUSH2 0x1294 PUSH2 0x2186 JUMP JUMPDEST JUMPDEST PUSH1 0x9 PUSH1 0x0 DUP5 DUP2 MSTORE PUSH1 0x20 ADD SWAP1 DUP2 MSTORE PUSH1 0x20 ADD PUSH1 0x0 KECCAK256 PUSH1 0x1 ADD PUSH1 0x0 SWAP1 SLOAD SWAP1 PUSH2 0x100 EXP SWAP1 DIV PUSH1 0xFF AND PUSH1 0x2 DUP2 GT ISZERO PUSH2 0x12CB JUMPI PUSH2 0x12CA PUSH2 0x2186 JUMP JUMPDEST JUMPDEST EQ PUSH2 0x130B JUMPI PUSH1 0x40 MLOAD PUSH32 0x8C379A000000000000000000000000000000000000000000000000000000000 DUP2 MSTORE PUSH1 0x4 ADD PUSH2 0x1302 SWAP1 PUSH2 0x1D0D JUMP JUMPDEST PUSH1 0x40 MLOAD DUP1 SWAP2 SUB SWAP1 REVERT JUMPDEST POP POP JUMP JUMPDEST PUSH32 0x0 DUP2 JUMP JUMPDEST CALLER PUSH20 0xFFFFFFFFFFFFFFFFFFFFFFFFFFFFFFFFFFFFFFFF AND PUSH1 0x0 DUP1 SLOAD SWAP1 PUSH2 0x100 EXP SWAP1 DIV PUSH20 0xFFFFFFFFFFFFFFFFFFFFFFFFFFFFFFFFFFFFFFFF AND PUSH20 0xFFFFFFFFFFFFFFFFFFFFFFFFFFFFFFFFFFFFFFFF AND EQ PUSH2 0x13C1 JUMPI PUSH1 0x40 MLOAD PUSH32 0x8C379A000000000000000000000000000000000000000000000000000000000 DUP2 MSTORE PUSH1 0x4 ADD PUSH2 0x13B8 SWAP1 PUSH2 0x1D2D JUMP JUMPDEST PUSH1 0x40 MLOAD DUP1 SWAP2 SUB SWAP1 REVERT JUMPDEST SELFBALANCE DUP3 GT ISZERO PUSH2 0x1404 JUMPI PUSH1 0x40 MLOAD PUSH32 0x8C379A000000000000000000000000000000000000000000000000000000000 DUP2 MSTORE PUSH1 0x4 ADD PUSH2 0x13FB SWAP1 PUSH2 0x1D6D JUMP JUMPDEST PUSH1 0x40 MLOAD DUP1 SWAP2 SUB SWAP1 REVERT JUMPDEST PUSH1 0x0 PUSH20 0xFFFFFFFFFFFFFFFFFFFFFFFFFFFFFFFFFFFFFFFF AND DUP2 PUSH20 0xFFFFFFFFFFFFFFFFFFFFFFFFFFFFFFFFFFFFFFFF AND EQ ISZERO PUSH2 0x143E JUMPI PUSH1 0x0 DUP1 REVERT JUMPDEST PUSH1 0x0 PUSH1 0x9 PUSH1 0x0 PUSH1 0xA SLOAD DUP2 MSTORE PUSH1 0x20 ADD SWAP1 DUP2 MSTORE PUSH1 0x20 ADD PUSH1 0x0 KECCAK256 SWAP1 POP DUP4 DUP2 PUSH1 0x0 ADD SWAP1 DUP1 MLOAD SWAP1 PUSH1 0x20 ADD SWAP1 PUSH2 0x146F SWAP3 SWAP2 SWAP1 PUSH2 0x1542 JUMP JUMPDEST POP PUSH1 0x0 DUP2 PUSH1 0x1 ADD PUSH1 0x0 PUSH2 0x100 EXP DUP2 SLOAD DUP2 PUSH1 0xFF MUL NOT AND SWAP1 DUP4 PUSH1 0x2 DUP2 GT ISZERO PUSH2 0x1498 JUMPI PUSH2 0x1497 PUSH2 0x2186 JUMP JUMPDEST JUMPDEST MUL OR SWAP1 SSTORE POP DUP3 DUP2 PUSH1 0x2 ADD DUP2 SWAP1 SSTORE POP DUP2 DUP2 PUSH1 0x3 ADD PUSH1 0x0 PUSH2 0x100 EXP DUP2 SLOAD DUP2 PUSH20 0xFFFFFFFFFFFFFFFFFFFFFFFFFFFFFFFFFFFFFFFF MUL NOT AND SWAP1 DUP4 PUSH20 0xFFFFFFFFFFFFFFFFFFFFFFFFFFFFFFFFFFFFFFFF AND MUL OR SWAP1 SSTORE POP PUSH32 0x8A9EEF508655BA905FAC3270E36D1F3410A7101B0B7FE80CC755B4A0C26A71A5 PUSH1 0xA SLOAD TIMESTAMP PUSH1 0x40 MLOAD PUSH2 0x151C SWAP3 SWAP2 SWAP1 PUSH2 0x1DA8 JUMP JUMPDEST PUSH1 0x40 MLOAD DUP1 SWAP2 SUB SWAP1 LOG1 PUSH1 0xA PUSH1 0x0 DUP2 SLOAD DUP1 SWAP3 SWAP2 SWAP1 PUSH2 0x1537 SWAP1 PUSH2 0x20DF JUMP JUMPDEST SWAP2 SWAP1 POP SSTORE POP POP POP POP POP JUMP JUMPDEST DUP3 DUP1 SLOAD PUSH2 0x154E SWAP1 PUSH2 0x207C JUMP JUMPDEST SWAP1 PUSH1 0x0 MSTORE PUSH1 0x20 PUSH1 0x0 KECCAK256 SWAP1 PUSH1 0x1F ADD PUSH1 0x20 SWAP1 DIV DUP2 ADD SWAP3 DUP3 PUSH2 0x1570 JUMPI PUSH1 0x0 DUP6 SSTORE PUSH2 0x15B7 JUMP JUMPDEST DUP3 PUSH1 0x1F LT PUSH2 0x1589 JUMPI DUP1 MLOAD PUSH1 0xFF NOT AND DUP4 DUP1 ADD OR DUP6 SSTORE PUSH2 0x15B7 JUMP JUMPDEST DUP3 DUP1 ADD PUSH1 0x1 ADD DUP6 SSTORE DUP3 ISZERO PUSH2 0x15B7 JUMPI SWAP2 DUP3 ADD JUMPDEST DUP3 DUP2 GT ISZERO PUSH2 0x15B6 JUMPI DUP3 MLOAD DUP3 SSTORE SWAP2 PUSH1 0x20 ADD SWAP2 SWAP1 PUSH1 0x1 ADD SWAP1 PUSH2 0x159B JUMP JUMPDEST JUMPDEST POP SWAP1 POP PUSH2 0x15C4 SWAP2 SWAP1 PUSH2 0x15C8 JUMP JUMPDEST POP SWAP1 JUMP JUMPDEST JUMPDEST DUP1 DUP3 GT ISZERO PUSH2 0x15E1 JUMPI PUSH1 0x0 DUP2 PUSH1 0x0 SWAP1 SSTORE POP PUSH1 0x1 ADD PUSH2 0x15C9 JUMP JUMPDEST POP SWAP1 JUMP JUMPDEST PUSH1 0x0 PUSH2 0x15F8 PUSH2 0x15F3 DUP5 PUSH2 0x1DF6 JUMP JUMPDEST PUSH2 0x1DD1 JUMP JUMPDEST SWAP1 POP DUP3 DUP2 MSTORE PUSH1 0x20 DUP2 ADD DUP5 DUP5 DUP5 ADD GT ISZERO PUSH2 0x1614 JUMPI PUSH2 0x1613 PUSH2 0x2247 JUMP JUMPDEST JUMPDEST PUSH2 0x161F DUP5 DUP3 DUP6 PUSH2 0x203A JUMP JUMPDEST POP SWAP4 SWAP3 POP POP POP JUMP JUMPDEST PUSH1 0x0 DUP2 CALLDATALOAD SWAP1 POP PUSH2 0x1636 DUP2 PUSH2 0x2478 JUMP JUMPDEST SWAP3 SWAP2 POP POP JUMP JUMPDEST PUSH1 0x0 DUP2 CALLDATALOAD SWAP1 POP PUSH2 0x164B DUP2 PUSH2 0x248F JUMP JUMPDEST SWAP3 SWAP2 POP POP JUMP JUMPDEST PUSH1 0x0 DUP2 CALLDATALOAD SWAP1 POP PUSH2 0x1660 DUP2 PUSH2 0x24A6 JUMP JUMPDEST SWAP3 SWAP2 POP POP JUMP JUMPDEST PUSH1 0x0 DUP3 PUSH1 0x1F DUP4 ADD SLT PUSH2 0x167B JUMPI PUSH2 0x167A PUSH2 0x2242 JUMP JUMPDEST JUMPDEST DUP2 CALLDATALOAD PUSH2 0x168B DUP5 DUP3 PUSH1 0x20 DUP7 ADD PUSH2 0x15E5 JUMP JUMPDEST SWAP2 POP POP SWAP3 SWAP2 POP POP JUMP JUMPDEST PUSH1 0x0 DUP2 CALLDATALOAD SWAP1 POP PUSH2 0x16A3 DUP2 PUSH2 0x24BD JUMP JUMPDEST SWAP3 SWAP2 POP POP JUMP JUMPDEST PUSH1 0x0 PUSH1 0x20 DUP3 DUP5 SUB SLT ISZERO PUSH2 0x16BF JUMPI PUSH2 0x16BE PUSH2 0x2251 JUMP JUMPDEST JUMPDEST PUSH1 0x0 PUSH2 0x16CD DUP5 DUP3 DUP6 ADD PUSH2 0x1627 JUMP JUMPDEST SWAP2 POP POP SWAP3 SWAP2 POP POP JUMP JUMPDEST PUSH1 0x0 DUP1 PUSH1 0x0 PUSH1 0x60 DUP5 DUP7 SUB SLT ISZERO PUSH2 0x16EF JUMPI PUSH2 0x16EE PUSH2 0x2251 JUMP JUMPDEST JUMPDEST PUSH1 0x0 DUP5 ADD CALLDATALOAD PUSH8 0xFFFFFFFFFFFFFFFF DUP2 GT ISZERO PUSH2 0x170D JUMPI PUSH2 0x170C PUSH2 0x224C JUMP JUMPDEST JUMPDEST PUSH2 0x1719 DUP7 DUP3 DUP8 ADD PUSH2 0x1666 JUMP JUMPDEST SWAP4 POP POP PUSH1 0x20 PUSH2 0x172A DUP7 DUP3 DUP8 ADD PUSH2 0x1694 JUMP JUMPDEST SWAP3 POP POP PUSH1 0x40 PUSH2 0x173B DUP7 DUP3 DUP8 ADD PUSH2 0x163C JUMP JUMPDEST SWAP2 POP POP SWAP3 POP SWAP3 POP SWAP3 JUMP JUMPDEST PUSH1 0x0 PUSH1 0x20 DUP3 DUP5 SUB SLT ISZERO PUSH2 0x175B JUMPI PUSH2 0x175A PUSH2 0x2251 JUMP JUMPDEST JUMPDEST PUSH1 0x0 PUSH2 0x1769 DUP5 DUP3 DUP6 ADD PUSH2 0x1694 JUMP JUMPDEST SWAP2 POP POP SWAP3 SWAP2 POP POP JUMP JUMPDEST PUSH1 0x0 DUP1 PUSH1 0x40 DUP4 DUP6 SUB SLT ISZERO PUSH2 0x1789 JUMPI PUSH2 0x1788 PUSH2 0x2251 JUMP JUMPDEST JUMPDEST PUSH1 0x0 PUSH2 0x1797 DUP6 DUP3 DUP7 ADD PUSH2 0x1694 JUMP JUMPDEST SWAP3 POP POP PUSH1 0x20 PUSH2 0x17A8 DUP6 DUP3 DUP7 ADD PUSH2 0x1651 JUMP JUMPDEST SWAP2 POP POP SWAP3 POP SWAP3 SWAP1 POP JUMP JUMPDEST PUSH1 0x0 PUSH2 0x17BE DUP4 DUP4 PUSH2 0x17F1 JUMP JUMPDEST PUSH1 0x20 DUP4 ADD SWAP1 POP SWAP3 SWAP2 POP POP JUMP JUMPDEST PUSH1 0x0 PUSH2 0x17D6 DUP4 DUP4 PUSH2 0x1AB2 JUMP JUMPDEST PUSH1 0x20 DUP4 ADD SWAP1 POP SWAP3 SWAP2 POP POP JUMP JUMPDEST PUSH2 0x17EB DUP2 PUSH2 0x1FA8 JUMP JUMPDEST DUP3 MSTORE POP POP JUMP JUMPDEST PUSH2 0x17FA DUP2 PUSH2 0x1F96 JUMP JUMPDEST DUP3 MSTORE POP POP JUMP JUMPDEST PUSH2 0x1809 DUP2 PUSH2 0x1F96 JUMP JUMPDEST DUP3 MSTORE POP POP JUMP JUMPDEST PUSH1 0x0 PUSH2 0x181A DUP3 PUSH2 0x1E47 JUMP JUMPDEST PUSH2 0x1824 DUP2 DUP6 PUSH2 0x1E82 JUMP JUMPDEST SWAP4 POP PUSH2 0x182F DUP4 PUSH2 0x1E27 JUMP JUMPDEST DUP1 PUSH1 0x0 JUMPDEST DUP4 DUP2 LT ISZERO PUSH2 0x1860 JUMPI DUP2 MLOAD PUSH2 0x1847 DUP9 DUP3 PUSH2 0x17B2 JUMP JUMPDEST SWAP8 POP PUSH2 0x1852 DUP4 PUSH2 0x1E68 JUMP JUMPDEST SWAP3 POP POP PUSH1 0x1 DUP2 ADD SWAP1 POP PUSH2 0x1833 JUMP JUMPDEST POP DUP6 SWAP4 POP POP POP POP SWAP3 SWAP2 POP POP JUMP JUMPDEST PUSH1 0x0 PUSH2 0x1878 DUP3 PUSH2 0x1E52 JUMP JUMPDEST PUSH2 0x1882 DUP2 DUP6 PUSH2 0x1E93 JUMP JUMPDEST SWAP4 POP PUSH2 0x188D DUP4 PUSH2 0x1E37 JUMP JUMPDEST DUP1 PUSH1 0x0 JUMPDEST DUP4 DUP2 LT ISZERO PUSH2 0x18BE JUMPI DUP2 MLOAD PUSH2 0x18A5 DUP9 DUP3 PUSH2 0x17CA JUMP JUMPDEST SWAP8 POP PUSH2 0x18B0 DUP4 PUSH2 0x1E75 JUMP JUMPDEST SWAP3 POP POP PUSH1 0x1 DUP2 ADD SWAP1 POP PUSH2 0x1891 JUMP JUMPDEST POP DUP6 SWAP4 POP POP POP POP SWAP3 SWAP2 POP POP JUMP JUMPDEST PUSH2 0x18D4 DUP2 PUSH2 0x1FBA JUMP JUMPDEST DUP3 MSTORE POP POP JUMP JUMPDEST PUSH2 0x18E3 DUP2 PUSH2 0x2016 JUMP JUMPDEST DUP3 MSTORE POP POP JUMP JUMPDEST PUSH2 0x18F2 DUP2 PUSH2 0x2028 JUMP JUMPDEST DUP3 MSTORE POP POP JUMP JUMPDEST PUSH1 0x0 PUSH2 0x1903 DUP3 PUSH2 0x1E5D JUMP JUMPDEST PUSH2 0x190D DUP2 DUP6 PUSH2 0x1EA4 JUMP JUMPDEST SWAP4 POP PUSH2 0x191D DUP2 DUP6 PUSH1 0x20 DUP7 ADD PUSH2 0x2049 JUMP JUMPDEST PUSH2 0x1926 DUP2 PUSH2 0x2256 JUMP JUMPDEST DUP5 ADD SWAP2 POP POP SWAP3 SWAP2 POP POP JUMP JUMPDEST PUSH1 0x0 PUSH2 0x193E PUSH1 0x13 DUP4 PUSH2 0x1EA4 JUMP JUMPDEST SWAP2 POP PUSH2 0x1949 DUP3 PUSH2 0x2267 JUMP JUMPDEST PUSH1 0x20 DUP3 ADD SWAP1 POP SWAP2 SWAP1 POP JUMP JUMPDEST PUSH1 0x0 PUSH2 0x1961 PUSH1 0x21 DUP4 PUSH2 0x1EA4 JUMP JUMPDEST SWAP2 POP PUSH2 0x196C DUP3 PUSH2 0x2290 JUMP JUMPDEST PUSH1 0x40 DUP3 ADD SWAP1 POP SWAP2 SWAP1 POP JUMP JUMPDEST PUSH1 0x0 PUSH2 0x1984 PUSH1 0x1E DUP4 PUSH2 0x1EA4 JUMP JUMPDEST SWAP2 POP PUSH2 0x198F DUP3 PUSH2 0x22DF JUMP JUMPDEST PUSH1 0x20 DUP3 ADD SWAP1 POP SWAP2 SWAP1 POP JUMP JUMPDEST PUSH1 0x0 PUSH2 0x19A7 PUSH1 0x17 DUP4 PUSH2 0x1EA4 JUMP JUMPDEST SWAP2 POP PUSH2 0x19B2 DUP3 PUSH2 0x2308 JUMP JUMPDEST PUSH1 0x20 DUP3 ADD SWAP1 POP SWAP2 SWAP1 POP JUMP JUMPDEST PUSH1 0x0 PUSH2 0x19CA PUSH1 0x15 DUP4 PUSH2 0x1EA4 JUMP JUMPDEST SWAP2 POP PUSH2 0x19D5 DUP3 PUSH2 0x2331 JUMP JUMPDEST PUSH1 0x20 DUP3 ADD SWAP1 POP SWAP2 SWAP1 POP JUMP JUMPDEST PUSH1 0x0 PUSH2 0x19ED PUSH1 0x15 DUP4 PUSH2 0x1EA4 JUMP JUMPDEST SWAP2 POP PUSH2 0x19F8 DUP3 PUSH2 0x235A JUMP JUMPDEST PUSH1 0x20 DUP3 ADD SWAP1 POP SWAP2 SWAP1 POP JUMP JUMPDEST PUSH1 0x0 PUSH2 0x1A10 PUSH1 0x14 DUP4 PUSH2 0x1EA4 JUMP JUMPDEST SWAP2 POP PUSH2 0x1A1B DUP3 PUSH2 0x2383 JUMP JUMPDEST PUSH1 0x20 DUP3 ADD SWAP1 POP SWAP2 SWAP1 POP JUMP JUMPDEST PUSH1 0x0 PUSH2 0x1A33 PUSH1 0x1A DUP4 PUSH2 0x1EA4 JUMP JUMPDEST SWAP2 POP PUSH2 0x1A3E DUP3 PUSH2 0x23AC JUMP JUMPDEST PUSH1 0x20 DUP3 ADD SWAP1 POP SWAP2 SWAP1 POP JUMP JUMPDEST PUSH1 0x0 PUSH2 0x1A56 PUSH1 0x14 DUP4 PUSH2 0x1EA4 JUMP JUMPDEST SWAP2 POP PUSH2 0x1A61 DUP3 PUSH2 0x23D5 JUMP JUMPDEST PUSH1 0x20 DUP3 ADD SWAP1 POP SWAP2 SWAP1 POP JUMP JUMPDEST PUSH1 0x0 PUSH2 0x1A79 PUSH1 0x10 DUP4 PUSH2 0x1EA4 JUMP JUMPDEST SWAP2 POP PUSH2 0x1A84 DUP3 PUSH2 0x23FE JUMP JUMPDEST PUSH1 0x20 DUP3 ADD SWAP1 POP SWAP2 SWAP1 POP JUMP JUMPDEST PUSH1 0x0 PUSH2 0x1A9C PUSH1 0x12 DUP4 PUSH2 0x1EA4 JUMP JUMPDEST SWAP2 POP PUSH2 0x1AA7 DUP3 PUSH2 0x2427 JUMP JUMPDEST PUSH1 0x20 DUP3 ADD SWAP1 POP SWAP2 SWAP1 POP JUMP JUMPDEST PUSH2 0x1ABB DUP2 PUSH2 0x200C JUMP JUMPDEST DUP3 MSTORE POP POP JUMP JUMPDEST PUSH2 0x1ACA DUP2 PUSH2 0x200C JUMP JUMPDEST DUP3 MSTORE POP POP JUMP JUMPDEST PUSH1 0x0 PUSH1 0x20 DUP3 ADD SWAP1 POP PUSH2 0x1AE5 PUSH1 0x0 DUP4 ADD DUP5 PUSH2 0x1800 JUMP JUMPDEST SWAP3 SWAP2 POP POP JUMP JUMPDEST PUSH1 0x0 PUSH1 0x20 DUP3 ADD SWAP1 POP PUSH2 0x1B00 PUSH1 0x0 DUP4 ADD DUP5 PUSH2 0x17E2 JUMP JUMPDEST SWAP3 SWAP2 POP POP JUMP JUMPDEST PUSH1 0x0 PUSH1 0x20 DUP3 ADD SWAP1 POP DUP2 DUP2 SUB PUSH1 0x0 DUP4 ADD MSTORE PUSH2 0x1B20 DUP2 DUP5 PUSH2 0x180F JUMP JUMPDEST SWAP1 POP SWAP3 SWAP2 POP POP JUMP JUMPDEST PUSH1 0x0 PUSH1 0x20 DUP3 ADD SWAP1 POP DUP2 DUP2 SUB PUSH1 0x0 DUP4 ADD MSTORE PUSH2 0x1B42 DUP2 DUP5 PUSH2 0x186D JUMP JUMPDEST SWAP1 POP SWAP3 SWAP2 POP POP JUMP JUMPDEST PUSH1 0x0 PUSH1 0x20 DUP3 ADD SWAP1 POP PUSH2 0x1B5F PUSH1 0x0 DUP4 ADD DUP5 PUSH2 0x18E9 JUMP JUMPDEST SWAP3 SWAP2 POP POP JUMP JUMPDEST PUSH1 0x0 PUSH1 0x20 DUP3 ADD SWAP1 POP DUP2 DUP2 SUB PUSH1 0x0 DUP4 ADD MSTORE PUSH2 0x1B7F DUP2 DUP5 PUSH2 0x18F8 JUMP JUMPDEST SWAP1 POP SWAP3 SWAP2 POP POP JUMP JUMPDEST PUSH1 0x0 PUSH1 0xC0 DUP3 ADD SWAP1 POP DUP2 DUP2 SUB PUSH1 0x0 DUP4 ADD MSTORE PUSH2 0x1BA1 DUP2 DUP10 PUSH2 0x18F8 JUMP JUMPDEST SWAP1 POP PUSH2 0x1BB0 PUSH1 0x20 DUP4 ADD DUP9 PUSH2 0x18DA JUMP JUMPDEST PUSH2 0x1BBD PUSH1 0x40 DUP4 ADD DUP8 PUSH2 0x1AC1 JUMP JUMPDEST PUSH2 0x1BCA PUSH1 0x60 DUP4 ADD DUP7 PUSH2 0x17E2 JUMP JUMPDEST PUSH2 0x1BD7 PUSH1 0x80 DUP4 ADD DUP6 PUSH2 0x1AC1 JUMP JUMPDEST PUSH2 0x1BE4 PUSH1 0xA0 DUP4 ADD DUP5 PUSH2 0x1AC1 JUMP JUMPDEST SWAP8 SWAP7 POP POP POP POP POP POP POP JUMP JUMPDEST PUSH1 0x0 PUSH1 0x60 DUP3 ADD SWAP1 POP DUP2 DUP2 SUB PUSH1 0x0 DUP4 ADD MSTORE PUSH2 0x1C09 DUP2 DUP7 PUSH2 0x18F8 JUMP JUMPDEST SWAP1 POP PUSH2 0x1C18 PUSH1 0x20 DUP4 ADD DUP6 PUSH2 0x1AC1 JUMP JUMPDEST PUSH2 0x1C25 PUSH1 0x40 DUP4 ADD DUP5 PUSH2 0x18CB JUMP JUMPDEST SWAP5 SWAP4 POP POP POP POP JUMP JUMPDEST PUSH1 0x0 PUSH1 0x20 DUP3 ADD SWAP1 POP DUP2 DUP2 SUB PUSH1 0x0 DUP4 ADD MSTORE PUSH2 0x1C46 DUP2 PUSH2 0x1931 JUMP JUMPDEST SWAP1 POP SWAP2 SWAP1 POP JUMP JUMPDEST PUSH1 0x0 PUSH1 0x20 DUP3 ADD SWAP1 POP DUP2 DUP2 SUB PUSH1 0x0 DUP4 ADD MSTORE PUSH2 0x1C66 DUP2 PUSH2 0x1954 JUMP JUMPDEST SWAP1 POP SWAP2 SWAP1 POP JUMP JUMPDEST PUSH1 0x0 PUSH1 0x20 DUP3 ADD SWAP1 POP DUP2 DUP2 SUB PUSH1 0x0 DUP4 ADD MSTORE PUSH2 0x1C86 DUP2 PUSH2 0x1977 JUMP JUMPDEST SWAP1 POP SWAP2 SWAP1 POP JUMP JUMPDEST PUSH1 0x0 PUSH1 0x20 DUP3 ADD SWAP1 POP DUP2 DUP2 SUB PUSH1 0x0 DUP4 ADD MSTORE PUSH2 0x1CA6 DUP2 PUSH2 0x199A JUMP JUMPDEST SWAP1 POP SWAP2 SWAP1 POP JUMP JUMPDEST PUSH1 0x0 PUSH1 0x20 DUP3 ADD SWAP1 POP DUP2 DUP2 SUB PUSH1 0x0 DUP4 ADD MSTORE PUSH2 0x1CC6 DUP2 PUSH2 0x19BD JUMP JUMPDEST SWAP1 POP SWAP2 SWAP1 POP JUMP JUMPDEST PUSH1 0x0 PUSH1 0x20 DUP3 ADD SWAP1 POP DUP2 DUP2 SUB PUSH1 0x0 DUP4 ADD MSTORE PUSH2 0x1CE6 DUP2 PUSH2 0x19E0 JUMP JUMPDEST SWAP1 POP SWAP2 SWAP1 POP JUMP JUMPDEST PUSH1 0x0 PUSH1 0x20 DUP3 ADD SWAP1 POP DUP2 DUP2 SUB PUSH1 0x0 DUP4 ADD MSTORE PUSH2 0x1D06 DUP2 PUSH2 0x1A03 JUMP JUMPDEST SWAP1 POP SWAP2 SWAP1 POP JUMP JUMPDEST PUSH1 0x0 PUSH1 0x20 DUP3 ADD SWAP1 POP DUP2 DUP2 SUB PUSH1 0x0 DUP4 ADD MSTORE PUSH2 0x1D26 DUP2 PUSH2 0x1A26 JUMP JUMPDEST SWAP1 POP SWAP2 SWAP1 POP JUMP JUMPDEST PUSH1 0x0 PUSH1 0x20 DUP3 ADD SWAP1 POP DUP2 DUP2 SUB PUSH1 0x0 DUP4 ADD MSTORE PUSH2 0x1D46 DUP2 PUSH2 0x1A49 JUMP JUMPDEST SWAP1 POP SWAP2 SWAP1 POP JUMP JUMPDEST PUSH1 0x0 PUSH1 0x20 DUP3 ADD SWAP1 POP DUP2 DUP2 SUB PUSH1 0x0 DUP4 ADD MSTORE PUSH2 0x1D66 DUP2 PUSH2 0x1A6C JUMP JUMPDEST SWAP1 POP SWAP2 SWAP1 POP JUMP JUMPDEST PUSH1 0x0 PUSH1 0x20 DUP3 ADD SWAP1 POP DUP2 DUP2 SUB PUSH1 0x0 DUP4 ADD MSTORE PUSH2 0x1D86 DUP2 PUSH2 0x1A8F JUMP JUMPDEST SWAP1 POP SWAP2 SWAP1 POP JUMP JUMPDEST PUSH1 0x0 PUSH1 0x20 DUP3 ADD SWAP1 POP PUSH2 0x1DA2 PUSH1 0x0 DUP4 ADD DUP5 PUSH2 0x1AC1 JUMP JUMPDEST SWAP3 SWAP2 POP POP JUMP JUMPDEST PUSH1 0x0 PUSH1 0x40 DUP3 ADD SWAP1 POP PUSH2 0x1DBD PUSH1 0x0 DUP4 ADD DUP6 PUSH2 0x1AC1 JUMP JUMPDEST PUSH2 0x1DCA PUSH1 0x20 DUP4 ADD DUP5 PUSH2 0x1AC1 JUMP JUMPDEST SWAP4 SWAP3 POP POP POP JUMP JUMPDEST PUSH1 0x0 PUSH2 0x1DDB PUSH2 0x1DEC JUMP JUMPDEST SWAP1 POP PUSH2 0x1DE7 DUP3 DUP3 PUSH2 0x20AE JUMP JUMPDEST SWAP2 SWAP1 POP JUMP JUMPDEST PUSH1 0x0 PUSH1 0x40 MLOAD SWAP1 POP SWAP1 JUMP JUMPDEST PUSH1 0x0 PUSH8 0xFFFFFFFFFFFFFFFF DUP3 GT ISZERO PUSH2 0x1E11 JUMPI PUSH2 0x1E10 PUSH2 0x2213 JUMP JUMPDEST JUMPDEST PUSH2 0x1E1A DUP3 PUSH2 0x2256 JUMP JUMPDEST SWAP1 POP PUSH1 0x20 DUP2 ADD SWAP1 POP SWAP2 SWAP1 POP JUMP JUMPDEST PUSH1 0x0 DUP2 SWAP1 POP PUSH1 0x20 DUP3 ADD SWAP1 POP SWAP2 SWAP1 POP JUMP JUMPDEST PUSH1 0x0 DUP2 SWAP1 POP PUSH1 0x20 DUP3 ADD SWAP1 POP SWAP2 SWAP1 POP JUMP JUMPDEST PUSH1 0x0 DUP2 MLOAD SWAP1 POP SWAP2 SWAP1 POP JUMP JUMPDEST PUSH1 0x0 DUP2 MLOAD SWAP1 POP SWAP2 SWAP1 POP JUMP JUMPDEST PUSH1 0x0 DUP2 MLOAD SWAP1 POP SWAP2 SWAP1 POP JUMP JUMPDEST PUSH1 0x0 PUSH1 0x20 DUP3 ADD SWAP1 POP SWAP2 SWAP1 POP JUMP JUMPDEST PUSH1 0x0 PUSH1 0x20 DUP3 ADD SWAP1 POP SWAP2 SWAP1 POP JUMP JUMPDEST PUSH1 0x0 DUP3 DUP3 MSTORE PUSH1 0x20 DUP3 ADD SWAP1 POP SWAP3 SWAP2 POP POP JUMP JUMPDEST PUSH1 0x0 DUP3 DUP3 MSTORE PUSH1 0x20 DUP3 ADD SWAP1 POP SWAP3 SWAP2 POP POP JUMP JUMPDEST PUSH1 0x0 DUP3 DUP3 MSTORE PUSH1 0x20 DUP3 ADD SWAP1 POP SWAP3 SWAP2 POP POP JUMP JUMPDEST PUSH1 0x0 PUSH2 0x1EC0 DUP3 PUSH2 0x200C JUMP JUMPDEST SWAP2 POP PUSH2 0x1ECB DUP4 PUSH2 0x200C JUMP JUMPDEST SWAP3 POP DUP3 PUSH32 0xFFFFFFFFFFFFFFFFFFFFFFFFFFFFFFFFFFFFFFFFFFFFFFFFFFFFFFFFFFFFFFFF SUB DUP3 GT ISZERO PUSH2 0x1F00 JUMPI PUSH2 0x1EFF PUSH2 0x2128 JUMP JUMPDEST JUMPDEST DUP3 DUP3 ADD SWAP1 POP SWAP3 SWAP2 POP POP JUMP JUMPDEST PUSH1 0x0 PUSH2 0x1F16 DUP3 PUSH2 0x200C JUMP JUMPDEST SWAP2 POP PUSH2 0x1F21 DUP4 PUSH2 0x200C JUMP JUMPDEST SWAP3 POP DUP3 PUSH2 0x1F31 JUMPI PUSH2 0x1F30 PUSH2 0x2157 JUMP JUMPDEST JUMPDEST DUP3 DUP3 DIV SWAP1 POP SWAP3 SWAP2 POP POP JUMP JUMPDEST PUSH1 0x0 PUSH2 0x1F47 DUP3 PUSH2 0x200C JUMP JUMPDEST SWAP2 POP PUSH2 0x1F52 DUP4 PUSH2 0x200C JUMP JUMPDEST SWAP3 POP DUP2 PUSH32 0xFFFFFFFFFFFFFFFFFFFFFFFFFFFFFFFFFFFFFFFFFFFFFFFFFFFFFFFFFFFFFFFF DIV DUP4 GT DUP3 ISZERO ISZERO AND ISZERO PUSH2 0x1F8B JUMPI PUSH2 0x1F8A PUSH2 0x2128 JUMP JUMPDEST JUMPDEST DUP3 DUP3 MUL SWAP1 POP SWAP3 SWAP2 POP POP JUMP JUMPDEST PUSH1 0x0 PUSH2 0x1FA1 DUP3 PUSH2 0x1FEC JUMP JUMPDEST SWAP1 POP SWAP2 SWAP1 POP JUMP JUMPDEST PUSH1 0x0 PUSH2 0x1FB3 DUP3 PUSH2 0x1FEC JUMP JUMPDEST SWAP1 POP SWAP2 SWAP1 POP JUMP JUMPDEST PUSH1 0x0 DUP2 ISZERO ISZERO SWAP1 POP SWAP2 SWAP1 POP JUMP JUMPDEST PUSH1 0x0 DUP2 SWAP1 POP PUSH2 0x1FD4 DUP3 PUSH2 0x2450 JUMP JUMPDEST SWAP2 SWAP1 POP JUMP JUMPDEST PUSH1 0x0 DUP2 SWAP1 POP PUSH2 0x1FE7 DUP3 PUSH2 0x2464 JUMP JUMPDEST SWAP2 SWAP1 POP JUMP JUMPDEST PUSH1 0x0 PUSH20 0xFFFFFFFFFFFFFFFFFFFFFFFFFFFFFFFFFFFFFFFF DUP3 AND SWAP1 POP SWAP2 SWAP1 POP JUMP JUMPDEST PUSH1 0x0 DUP2 SWAP1 POP SWAP2 SWAP1 POP JUMP JUMPDEST PUSH1 0x0 PUSH2 0x2021 DUP3 PUSH2 0x1FC6 JUMP JUMPDEST SWAP1 POP SWAP2 SWAP1 POP JUMP JUMPDEST PUSH1 0x0 PUSH2 0x2033 DUP3 PUSH2 0x1FD9 JUMP JUMPDEST SWAP1 POP SWAP2 SWAP1 POP JUMP JUMPDEST DUP3 DUP2 DUP4 CALLDATACOPY PUSH1 0x0 DUP4 DUP4 ADD MSTORE POP POP POP JUMP JUMPDEST PUSH1 0x0 JUMPDEST DUP4 DUP2 LT ISZERO PUSH2 0x2067 JUMPI DUP1 DUP3 ADD MLOAD DUP2 DUP5 ADD MSTORE PUSH1 0x20 DUP2 ADD SWAP1 POP PUSH2 0x204C JUMP JUMPDEST DUP4 DUP2 GT ISZERO PUSH2 0x2076 JUMPI PUSH1 0x0 DUP5 DUP5 ADD MSTORE JUMPDEST POP POP POP POP JUMP JUMPDEST PUSH1 0x0 PUSH1 0x2 DUP3 DIV SWAP1 POP PUSH1 0x1 DUP3 AND DUP1 PUSH2 0x2094 JUMPI PUSH1 0x7F DUP3 AND SWAP2 POP JUMPDEST PUSH1 0x20 DUP3 LT DUP2 EQ ISZERO PUSH2 0x20A8 JUMPI PUSH2 0x20A7 PUSH2 0x21B5 JUMP JUMPDEST JUMPDEST POP SWAP2 SWAP1 POP JUMP JUMPDEST PUSH2 0x20B7 DUP3 PUSH2 0x2256 JUMP JUMPDEST DUP2 ADD DUP2 DUP2 LT PUSH8 0xFFFFFFFFFFFFFFFF DUP3 GT OR ISZERO PUSH2 0x20D6 JUMPI PUSH2 0x20D5 PUSH2 0x2213 JUMP JUMPDEST JUMPDEST DUP1 PUSH1 0x40 MSTORE POP POP POP JUMP JUMPDEST PUSH1 0x0 PUSH2 0x20EA DUP3 PUSH2 0x200C JUMP JUMPDEST SWAP2 POP PUSH32 0xFFFFFFFFFFFFFFFFFFFFFFFFFFFFFFFFFFFFFFFFFFFFFFFFFFFFFFFFFFFFFFFF DUP3 EQ ISZERO PUSH2 0x211D JUMPI PUSH2 0x211C PUSH2 0x2128 JUMP JUMPDEST JUMPDEST PUSH1 0x1 DUP3 ADD SWAP1 POP SWAP2 SWAP1 POP JUMP JUMPDEST PUSH32 0x4E487B7100000000000000000000000000000000000000000000000000000000 PUSH1 0x0 MSTORE PUSH1 0x11 PUSH1 0x4 MSTORE PUSH1 0x24 PUSH1 0x0 REVERT JUMPDEST PUSH32 0x4E487B7100000000000000000000000000000000000000000000000000000000 PUSH1 0x0 MSTORE PUSH1 0x12 PUSH1 0x4 MSTORE PUSH1 0x24 PUSH1 0x0 REVERT JUMPDEST PUSH32 0x4E487B7100000000000000000000000000000000000000000000000000000000 PUSH1 0x0 MSTORE PUSH1 0x21 PUSH1 0x4 MSTORE PUSH1 0x24 PUSH1 0x0 REVERT JUMPDEST PUSH32 0x4E487B7100000000000000000000000000000000000000000000000000000000 PUSH1 0x0 MSTORE PUSH1 0x22 PUSH1 0x4 MSTORE PUSH1 0x24 PUSH1 0x0 REVERT JUMPDEST PUSH32 0x4E487B7100000000000000000000000000000000000000000000000000000000 PUSH1 0x0 MSTORE PUSH1 0x32 PUSH1 0x4 MSTORE PUSH1 0x24 PUSH1 0x0 REVERT JUMPDEST PUSH32 0x4E487B7100000000000000000000000000000000000000000000000000000000 PUSH1 0x0 MSTORE PUSH1 0x41 PUSH1 0x4 MSTORE PUSH1 0x24 PUSH1 0x0 REVERT JUMPDEST PUSH1 0x0 DUP1 REVERT JUMPDEST PUSH1 0x0 DUP1 REVERT JUMPDEST PUSH1 0x0 DUP1 REVERT JUMPDEST PUSH1 0x0 DUP1 REVERT JUMPDEST PUSH1 0x0 PUSH1 0x1F NOT PUSH1 0x1F DUP4 ADD AND SWAP1 POP SWAP2 SWAP1 POP JUMP JUMPDEST PUSH32 0x43616D70616E7961206E6F206162696572746100000000000000000000000000 PUSH1 0x0 DUP3 ADD MSTORE POP JUMP JUMPDEST PUSH32 0x50617274696369706163696F6E206D696E696D61206E6F20616C63616E7A6164 PUSH1 0x0 DUP3 ADD MSTORE PUSH32 0x6100000000000000000000000000000000000000000000000000000000000000 PUSH1 0x20 DUP3 ADD MSTORE POP JUMP JUMPDEST PUSH32 0x46696E616C697A61646F20706C617A6F2070617274696369706163696F6E0000 PUSH1 0x0 DUP3 ADD MSTORE POP JUMP JUMPDEST PUSH32 0x43616D7061696E206973206E6F74206F76657220796574000000000000000000 PUSH1 0x0 DUP3 ADD MSTORE POP JUMP JUMPDEST PUSH32 0x43616D70616E7961206E6F2063616E63656C6164610000000000000000000000 PUSH1 0x0 DUP3 ADD MSTORE POP JUMP JUMPDEST PUSH32 0x7065746963696F6E20696E6578697374656E7472650000000000000000000000 PUSH1 0x0 DUP3 ADD MSTORE POP JUMP JUMPDEST PUSH32 0x5065746963696F6E20696E6578697374656E7465000000000000000000000000 PUSH1 0x0 DUP3 ADD MSTORE POP JUMP JUMPDEST PUSH32 0x5065746963696F6E206465626520657374617220616374697661000000000000 PUSH1 0x0 DUP3 ADD MSTORE POP JUMP JUMPDEST PUSH32 0x4F6E6C792043616D7061696E206D616E61676572000000000000000000000000 PUSH1 0x0 DUP3 ADD MSTORE POP JUMP JUMPDEST PUSH32 0x666F6E646F7320726574697261646F7300000000000000000000000000000000 PUSH1 0x0 DUP3 ADD MSTORE POP JUMP JUMPDEST PUSH32 0x73616C646F20696E737566696369656E74650000000000000000000000000000 PUSH1 0x0 DUP3 ADD MSTORE POP JUMP JUMPDEST PUSH1 0x3 DUP2 LT PUSH2 0x2461 JUMPI PUSH2 0x2460 PUSH2 0x2186 JUMP JUMPDEST JUMPDEST POP JUMP JUMPDEST PUSH1 0x3 DUP2 LT PUSH2 0x2475 JUMPI PUSH2 0x2474 PUSH2 0x2186 JUMP JUMPDEST JUMPDEST POP JUMP JUMPDEST PUSH2 0x2481 DUP2 PUSH2 0x1F96 JUMP JUMPDEST DUP2 EQ PUSH2 0x248C JUMPI PUSH1 0x0 DUP1 REVERT JUMPDEST POP JUMP JUMPDEST PUSH2 0x2498 DUP2 PUSH2 0x1FA8 JUMP JUMPDEST DUP2 EQ PUSH2 0x24A3 JUMPI PUSH1 0x0 DUP1 REVERT JUMPDEST POP JUMP JUMPDEST PUSH2 0x24AF DUP2 PUSH2 0x1FBA JUMP JUMPDEST DUP2 EQ PUSH2 0x24BA JUMPI PUSH1 0x0 DUP1 REVERT JUMPDEST POP JUMP JUMPDEST PUSH2 0x24C6 DUP2 PUSH2 0x200C JUMP JUMPDEST DUP2 EQ PUSH2 0x24D1 JUMPI PUSH1 0x0 DUP1 REVERT JUMPDEST POP JUMP INVALID LOG2 PUSH5 0x6970667358 0x22 SLT KECCAK256 0xAE SWAP14 DUP5 0xC3 ORIGIN PUSH5 0x4DB9C25D39 PUSH20 0x6492F8E644BB7BAD34FE0889178606AE818EE941 PUSH5 0x736F6C6343 STOP ADDMOD SMOD STOP CALLER "
				},
				"gasEstimates": {
					"creation": {
						"codeDepositCost": "1896400",
						"executionCost": "infinite",
						"totalCost": "infinite"
					},
					"external": {
						"": "infinite",
						"CAMPANIN_DUEDATE()": "infinite",
						"campainDescription()": "infinite",
						"campainEstado()": "2694",
						"campainGoal()": "2474",
						"campainManager()": "2534",
						"campainName()": "infinite",
						"crearPeticionDeGasto(string,uint256,address)": "infinite",
						"finalizarCampain()": "infinite",
						"getDetailPeticionGastobyId(uint256)": "infinite",
						"getNPeticionesDeGasto()": "2504",
						"getParticipantes()": "infinite",
						"getPeticionesGastoAbiertas()": "infinite",
						"getTotalParticipantes()": "2467",
						"getUserParticipaciones(address)": "2953",
						"participaciones(address)": "2859",
						"participantes(uint256)": "4979",
						"participar()": "infinite",
						"participationRate()": "2562",
						"peticionesDeGasto(uint256)": "infinite",
						"resolverPeticion(uint256)": "2928",
						"test_contractBalance()": "363",
						"totalParticipaciones()": "2519",
						"votarPeticionGasto(uint256,bool)": "5376",
						"withdrawCanceledCampain()": "infinite"
					}
				},
				"methodIdentifiers": {
					"CAMPANIN_DUEDATE()": "f7a7e57e",
					"campainDescription()": "e7425109",
					"campainEstado()": "8d1750c5",
					"campainGoal()": "95df868d",
					"campainManager()": "8f75c1fb",
					"campainName()": "3deff252",
					"crearPeticionDeGasto(string,uint256,address)": "f83589c0",
					"finalizarCampain()": "b14d38c2",
					"getDetailPeticionGastobyId(uint256)": "d50af7b4",
					"getNPeticionesDeGasto()": "9de8fc99",
					"getParticipantes()": "cac9a391",
					"getPeticionesGastoAbiertas()": "eb68f887",
					"getTotalParticipantes()": "e3ce8164",
					"getUserParticipaciones(address)": "8b83ba26",
					"participaciones(address)": "bbde609a",
					"participantes(uint256)": "b25924c1",
					"participar()": "d50fac49",
					"participationRate()": "e348c518",
					"peticionesDeGasto(uint256)": "ab672906",
					"resolverPeticion(uint256)": "3e0905ec",
					"test_contractBalance()": "225682d1",
					"totalParticipaciones()": "7bd82410",
					"votarPeticionGasto(uint256,bool)": "f7256d66",
					"withdrawCanceledCampain()": "a4e58a87"
				}
			},
			"storageLayout": {
				"storage": [
					{
						"astId": 7,
						"contract": "src/crowdfunding.sol:CrowdFunding",
						"label": "campainManager",
						"offset": 0,
						"slot": "0",
						"type": "t_address_payable"
					},
					{
						"astId": 9,
						"contract": "src/crowdfunding.sol:CrowdFunding",
						"label": "campainName",
						"offset": 0,
						"slot": "1",
						"type": "t_string_storage"
					},
					{
						"astId": 11,
						"contract": "src/crowdfunding.sol:CrowdFunding",
						"label": "campainDescription",
						"offset": 0,
						"slot": "2",
						"type": "t_string_storage"
					},
					{
						"astId": 14,
						"contract": "src/crowdfunding.sol:CrowdFunding",
						"label": "campainEstado",
						"offset": 0,
						"slot": "3",
						"type": "t_enum(Estado)5"
					},
					{
						"astId": 16,
						"contract": "src/crowdfunding.sol:CrowdFunding",
						"label": "campainGoal",
						"offset": 0,
						"slot": "4",
						"type": "t_uint256"
					},
					{
						"astId": 18,
						"contract": "src/crowdfunding.sol:CrowdFunding",
						"label": "participationRate",
						"offset": 0,
						"slot": "5",
						"type": "t_uint256"
					},
					{
						"astId": 22,
						"contract": "src/crowdfunding.sol:CrowdFunding",
						"label": "participaciones",
						"offset": 0,
						"slot": "6",
						"type": "t_mapping(t_address,t_uint256)"
					},
					{
						"astId": 25,
						"contract": "src/crowdfunding.sol:CrowdFunding",
						"label": "participantes",
						"offset": 0,
						"slot": "7",
						"type": "t_array(t_address)dyn_storage"
					},
					{
						"astId": 27,
						"contract": "src/crowdfunding.sol:CrowdFunding",
						"label": "totalParticipaciones",
						"offset": 0,
						"slot": "8",
						"type": "t_uint256"
					},
					{
						"astId": 68,
						"contract": "src/crowdfunding.sol:CrowdFunding",
						"label": "peticionesDeGasto",
						"offset": 0,
						"slot": "9",
						"type": "t_mapping(t_uint256,t_struct(PeticionGasto)63_storage)"
					},
					{
						"astId": 70,
						"contract": "src/crowdfunding.sol:CrowdFunding",
						"label": "totalPeticionesDeGasto",
						"offset": 0,
						"slot": "10",
						"type": "t_uint256"
					}
				],
				"types": {
					"t_address": {
						"encoding": "inplace",
						"label": "address",
						"numberOfBytes": "20"
					},
					"t_address_payable": {
						"encoding": "inplace",
						"label": "address payable",
						"numberOfBytes": "20"
					},
					"t_array(t_address)dyn_storage": {
						"base": "t_address",
						"encoding": "dynamic_array",
						"label": "address[]",
						"numberOfBytes": "32"
					},
					"t_bool": {
						"encoding": "inplace",
						"label": "bool",
						"numberOfBytes": "1"
					},
					"t_enum(Estado)5": {
						"encoding": "inplace",
						"label": "enum CrowdFunding.Estado",
						"numberOfBytes": "1"
					},
					"t_enum(EstadoPeticion)45": {
						"encoding": "inplace",
						"label": "enum CrowdFunding.EstadoPeticion",
						"numberOfBytes": "1"
					},
					"t_mapping(t_address,t_bool)": {
						"encoding": "mapping",
						"key": "t_address",
						"label": "mapping(address => bool)",
						"numberOfBytes": "32",
						"value": "t_bool"
					},
					"t_mapping(t_address,t_uint256)": {
						"encoding": "mapping",
						"key": "t_address",
						"label": "mapping(address => uint256)",
						"numberOfBytes": "32",
						"value": "t_uint256"
					},
					"t_mapping(t_uint256,t_struct(PeticionGasto)63_storage)": {
						"encoding": "mapping",
						"key": "t_uint256",
						"label": "mapping(uint256 => struct CrowdFunding.PeticionGasto)",
						"numberOfBytes": "32",
						"value": "t_struct(PeticionGasto)63_storage"
					},
					"t_string_storage": {
						"encoding": "bytes",
						"label": "string",
						"numberOfBytes": "32"
					},
					"t_struct(PeticionGasto)63_storage": {
						"encoding": "inplace",
						"label": "struct CrowdFunding.PeticionGasto",
						"members": [
							{
								"astId": 47,
								"contract": "src/crowdfunding.sol:CrowdFunding",
								"label": "detallePeticion",
								"offset": 0,
								"slot": "0",
								"type": "t_string_storage"
							},
							{
								"astId": 50,
								"contract": "src/crowdfunding.sol:CrowdFunding",
								"label": "estado",
								"offset": 0,
								"slot": "1",
								"type": "t_enum(EstadoPeticion)45"
							},
							{
								"astId": 52,
								"contract": "src/crowdfunding.sol:CrowdFunding",
								"label": "importe",
								"offset": 0,
								"slot": "2",
								"type": "t_uint256"
							},
							{
								"astId": 54,
								"contract": "src/crowdfunding.sol:CrowdFunding",
								"label": "walletDestinatario",
								"offset": 0,
								"slot": "3",
								"type": "t_address_payable"
							},
							{
								"astId": 56,
								"contract": "src/crowdfunding.sol:CrowdFunding",
								"label": "votosRealizados",
								"offset": 0,
								"slot": "4",
								"type": "t_uint256"
							},
							{
								"astId": 58,
								"contract": "src/crowdfunding.sol:CrowdFunding",
								"label": "votosPositivos",
								"offset": 0,
								"slot": "5",
								"type": "t_uint256"
							},
							{
								"astId": 62,
								"contract": "src/crowdfunding.sol:CrowdFunding",
								"label": "votantes",
								"offset": 0,
								"slot": "6",
								"type": "t_mapping(t_address,t_bool)"
							}
						],
						"numberOfBytes": "224"
					},
					"t_uint256": {
						"encoding": "inplace",
						"label": "uint256",
						"numberOfBytes": "32"
					}
				}
			},
			"userdoc": {
				"kind": "user",
				"methods": {},
				"version": 1
			}
		}
	}
}