{
	"src/crowdfunding.sol": {
		"CrowdFunding": {
			"abi": [
				{
					"inputs": [
						{
							"internalType": "string",
							"name": "_campainName",
							"type": "string"
						},
						{
							"internalType": "string",
							"name": "_campainDesc",
							"type": "string"
						},
						{
							"internalType": "uint256",
							"name": "_campainGoal",
							"type": "uint256"
						},
						{
							"internalType": "uint256",
							"name": "_participationRate",
							"type": "uint256"
						},
						{
							"internalType": "uint256",
							"name": "campainduration",
							"type": "uint256"
						}
					],
					"stateMutability": "nonpayable",
					"type": "constructor"
				},
				{
					"anonymous": false,
					"inputs": [
						{
							"indexed": false,
							"internalType": "uint256",
							"name": "ID",
							"type": "uint256"
						},
						{
							"indexed": false,
							"internalType": "uint256",
							"name": "fechacreacion",
							"type": "uint256"
						}
					],
					"name": "NuevaPeticionGasto",
					"type": "event"
				},
				{
					"anonymous": false,
					"inputs": [
						{
							"indexed": false,
							"internalType": "uint256",
							"name": "ID",
							"type": "uint256"
						},
						{
							"indexed": false,
							"internalType": "bool",
							"name": "resolucion",
							"type": "bool"
						}
					],
					"name": "ResolucionPeticionGasto",
					"type": "event"
				},
				{
					"stateMutability": "payable",
					"type": "fallback"
				},
				{
					"inputs": [],
					"name": "CAMPANIN_DUEDATE",
					"outputs": [
						{
							"internalType": "uint256",
							"name": "",
							"type": "uint256"
						}
					],
					"stateMutability": "view",
					"type": "function"
				},
				{
					"inputs": [],
					"name": "campainDescription",
					"outputs": [
						{
							"internalType": "string",
							"name": "",
							"type": "string"
						}
					],
					"stateMutability": "view",
					"type": "function"
				},
				{
					"inputs": [],
					"name": "campainEstado",
					"outputs": [
						{
							"internalType": "enum CrowdFunding.Estado",
							"name": "",
							"type": "uint8"
						}
					],
					"stateMutability": "view",
					"type": "function"
				},
				{
					"inputs": [],
					"name": "campainGoal",
					"outputs": [
						{
							"internalType": "uint256",
							"name": "",
							"type": "uint256"
						}
					],
					"stateMutability": "view",
					"type": "function"
				},
				{
					"inputs": [],
					"name": "campainManager",
					"outputs": [
						{
							"internalType": "address payable",
							"name": "",
							"type": "address"
						}
					],
					"stateMutability": "view",
					"type": "function"
				},
				{
					"inputs": [],
					"name": "campainName",
					"outputs": [
						{
							"internalType": "string",
							"name": "",
							"type": "string"
						}
					],
					"stateMutability": "view",
					"type": "function"
				},
				{
					"inputs": [
						{
							"internalType": "string",
							"name": "_detalle",
							"type": "string"
						},
						{
							"internalType": "uint256",
							"name": "_importe",
							"type": "uint256"
						},
						{
							"internalType": "address payable",
							"name": "_destinatario",
							"type": "address"
						}
					],
					"name": "crearPeticionDeGasto",
					"outputs": [],
					"stateMutability": "nonpayable",
					"type": "function"
				},
				{
					"inputs": [],
					"name": "finalizarCampain",
					"outputs": [],
					"stateMutability": "nonpayable",
					"type": "function"
				},
				{
					"inputs": [
						{
							"internalType": "uint256",
							"name": "index",
							"type": "uint256"
						}
					],
					"name": "getDetailPeticionGastobyId",
					"outputs": [
						{
							"internalType": "string",
							"name": "",
							"type": "string"
						},
						{
							"internalType": "uint256",
							"name": "",
							"type": "uint256"
						},
						{
							"internalType": "bool",
							"name": "",
							"type": "bool"
						}
					],
					"stateMutability": "view",
					"type": "function"
				},
				{
					"inputs": [],
					"name": "getNPeticionesDeGasto",
					"outputs": [
						{
							"internalType": "uint256",
							"name": "",
							"type": "uint256"
						}
					],
					"stateMutability": "view",
					"type": "function"
				},
				{
					"inputs": [],
					"name": "getParticipantes",
					"outputs": [
						{
							"internalType": "address[]",
							"name": "",
							"type": "address[]"
						}
					],
					"stateMutability": "view",
					"type": "function"
				},
				{
					"inputs": [],
					"name": "getPeticionesGastoAbiertas",
					"outputs": [
						{
							"internalType": "uint256[]",
							"name": "",
							"type": "uint256[]"
						}
					],
					"stateMutability": "view",
					"type": "function"
				},
				{
					"inputs": [],
					"name": "getTotalParticipantes",
					"outputs": [
						{
							"internalType": "uint256",
							"name": "",
							"type": "uint256"
						}
					],
					"stateMutability": "view",
					"type": "function"
				},
				{
					"inputs": [
						{
							"internalType": "address",
							"name": "user",
							"type": "address"
						}
					],
					"name": "getUserParticipaciones",
					"outputs": [
						{
							"internalType": "uint256",
							"name": "",
							"type": "uint256"
						}
					],
					"stateMutability": "view",
					"type": "function"
				},
				{
					"inputs": [
						{
							"internalType": "address",
							"name": "",
							"type": "address"
						}
					],
					"name": "participaciones",
					"outputs": [
						{
							"internalType": "uint256",
							"name": "",
							"type": "uint256"
						}
					],
					"stateMutability": "view",
					"type": "function"
				},
				{
					"inputs": [
						{
							"internalType": "uint256",
							"name": "",
							"type": "uint256"
						}
					],
					"name": "participantes",
					"outputs": [
						{
							"internalType": "address",
							"name": "",
							"type": "address"
						}
					],
					"stateMutability": "view",
					"type": "function"
				},
				{
					"inputs": [],
					"name": "participar",
					"outputs": [],
					"stateMutability": "payable",
					"type": "function"
				},
				{
					"inputs": [],
					"name": "participationRate",
					"outputs": [
						{
							"internalType": "uint256",
							"name": "",
							"type": "uint256"
						}
					],
					"stateMutability": "view",
					"type": "function"
				},
				{
					"inputs": [
						{
							"internalType": "uint256",
							"name": "",
							"type": "uint256"
						}
					],
					"name": "peticionesDeGasto",
					"outputs": [
						{
							"internalType": "string",
							"name": "detallePeticion",
							"type": "string"
						},
						{
							"internalType": "enum CrowdFunding.EstadoPeticion",
							"name": "estado",
							"type": "uint8"
						},
						{
							"internalType": "uint256",
							"name": "importe",
							"type": "uint256"
						},
						{
							"internalType": "address payable",
							"name": "walletDestinatario",
							"type": "address"
						},
						{
							"internalType": "uint256",
							"name": "votosRealizados",
							"type": "uint256"
						},
						{
							"internalType": "uint256",
							"name": "votosPositivos",
							"type": "uint256"
						}
					],
					"stateMutability": "view",
					"type": "function"
				},
				{
					"inputs": [
						{
							"internalType": "uint256",
							"name": "index",
							"type": "uint256"
						}
					],
					"name": "resolverPeticion",
					"outputs": [],
					"stateMutability": "nonpayable",
					"type": "function"
				},
				{
					"inputs": [],
					"name": "test_contractBalance",
					"outputs": [
						{
							"internalType": "uint256",
							"name": "",
							"type": "uint256"
						}
					],
					"stateMutability": "view",
					"type": "function"
				},
				{
					"inputs": [],
					"name": "totalParticipaciones",
					"outputs": [
						{
							"internalType": "uint256",
							"name": "",
							"type": "uint256"
						}
					],
					"stateMutability": "view",
					"type": "function"
				},
				{
					"inputs": [
						{
							"internalType": "uint256",
							"name": "index",
							"type": "uint256"
						},
						{
							"internalType": "bool",
							"name": "aprobar",
							"type": "bool"
						}
					],
					"name": "votarPeticionGasto",
					"outputs": [],
					"stateMutability": "nonpayable",
					"type": "function"
				},
				{
					"inputs": [],
					"name": "withdrawCanceledCampain",
					"outputs": [],
					"stateMutability": "nonpayable",
					"type": "function"
				},
				{
					"stateMutability": "payable",
					"type": "receive"
				}
			],
			"devdoc": {
				"kind": "dev",
				"methods": {},
				"version": 1
			},
			"evm": {
				"assembly": "    /* \"src/crowdfunding.sol\":72:8268  contract CrowdFunding {\r... */\n  mstore(0x40, 0xa0)\n    /* \"src/crowdfunding.sol\":1342:1869  constructor(string memory _campainName, string memory _campainDesc,uint256 _campainGoal, uint256 _participationRate, uint256 campainduration)  {\r... */\n  callvalue\n  dup1\n  iszero\n  tag_1\n  jumpi\n  0x00\n  dup1\n  revert\ntag_1:\n  pop\n  mload(0x40)\n  sub(codesize, bytecodeSize)\n  dup1\n  bytecodeSize\n  dup4\n  codecopy\n  dup2\n  dup2\n  add\n  0x40\n  mstore\n  dup2\n  add\n  swap1\n  tag_2\n  swap2\n  swap1\n  tag_3\n  jump\t// in\ntag_2:\n    /* \"src/crowdfunding.sol\":1519:1520  0 */\n  0x00\n    /* \"src/crowdfunding.sol\":1504:1516  _campainGoal */\n  dup4\n    /* \"src/crowdfunding.sol\":1504:1520  _campainGoal > 0 */\n  gt\n    /* \"src/crowdfunding.sol\":1504:1546  _campainGoal > 0 && _participationRate > 0 */\n  dup1\n  iszero\n  tag_6\n  jumpi\n  pop\n    /* \"src/crowdfunding.sol\":1545:1546  0 */\n  0x00\n    /* \"src/crowdfunding.sol\":1524:1542  _participationRate */\n  dup3\n    /* \"src/crowdfunding.sol\":1524:1546  _participationRate > 0 */\n  gt\n    /* \"src/crowdfunding.sol\":1504:1546  _campainGoal > 0 && _participationRate > 0 */\ntag_6:\n    /* \"src/crowdfunding.sol\":1496:1548  require(_campainGoal > 0 && _participationRate > 0 ) */\n  tag_7\n  jumpi\n  0x00\n  dup1\n  revert\ntag_7:\n    /* \"src/crowdfunding.sol\":1567:1579  _campainName */\n  dup5\n    /* \"src/crowdfunding.sol\":1553:1564  campainName */\n  0x01\n    /* \"src/crowdfunding.sol\":1553:1579  campainName = _campainName */\n  swap1\n  dup1\n  mload\n  swap1\n  0x20\n  add\n  swap1\n  tag_8\n  swap3\n  swap2\n  swap1\n  tag_9\n  jump\t// in\ntag_8:\n  pop\n    /* \"src/crowdfunding.sol\":1605:1617  _campainDesc */\n  dup4\n    /* \"src/crowdfunding.sol\":1584:1602  campainDescription */\n  0x02\n    /* \"src/crowdfunding.sol\":1584:1617  campainDescription = _campainDesc */\n  swap1\n  dup1\n  mload\n  swap1\n  0x20\n  add\n  swap1\n  tag_10\n  swap3\n  swap2\n  swap1\n  tag_9\n  jump\t// in\ntag_10:\n  pop\n    /* \"src/crowdfunding.sol\":1647:1657  msg.sender */\n  caller\n    /* \"src/crowdfunding.sol\":1622:1636  campainManager */\n  0x00\n  dup1\n    /* \"src/crowdfunding.sol\":1622:1658  campainManager = payable(msg.sender) */\n  0x0100\n  exp\n  dup2\n  sload\n  dup2\n  0xffffffffffffffffffffffffffffffffffffffff\n  mul\n  not\n  and\n  swap1\n  dup4\n  0xffffffffffffffffffffffffffffffffffffffff\n  and\n  mul\n  or\n  swap1\n  sstore\n  pop\n    /* \"src/crowdfunding.sol\":1683:1701  _participationRate */\n  dup2\n    /* \"src/crowdfunding.sol\":1663:1680  participationRate */\n  0x05\n    /* \"src/crowdfunding.sol\":1663:1701  participationRate = _participationRate */\n  dup2\n  swap1\n  sstore\n  pop\n    /* \"src/crowdfunding.sol\":1726:1738  _campainGoal */\n  dup3\n    /* \"src/crowdfunding.sol\":1712:1723  campainGoal */\n  0x04\n    /* \"src/crowdfunding.sol\":1712:1738  campainGoal = _campainGoal */\n  dup2\n  swap1\n  sstore\n  pop\n    /* \"src/crowdfunding.sol\":1765:1779  Estado.Abierta */\n  0x00\n    /* \"src/crowdfunding.sol\":1749:1762  campainEstado */\n  0x03\n  0x00\n    /* \"src/crowdfunding.sol\":1749:1779  campainEstado = Estado.Abierta */\n  0x0100\n  exp\n  dup2\n  sload\n  dup2\n  0xff\n  mul\n  not\n  and\n  swap1\n  dup4\n  0x02\n  dup2\n  gt\n  iszero\n  tag_11\n  jumpi\n  tag_12\n  tag_13\n  jump\t// in\ntag_12:\ntag_11:\n  mul\n  or\n  swap1\n  sstore\n  pop\n    /* \"src/crowdfunding.sol\":1845:1854  1 seconds */\n  0x01\n    /* \"src/crowdfunding.sol\":1827:1842  campainduration */\n  dup2\n    /* \"src/crowdfunding.sol\":1827:1854  campainduration * 1 seconds */\n  tag_14\n  swap2\n  swap1\n  tag_15\n  jump\t// in\ntag_14:\n    /* \"src/crowdfunding.sol\":1809:1824  block.timestamp */\n  timestamp\n    /* \"src/crowdfunding.sol\":1809:1854  block.timestamp + campainduration * 1 seconds */\n  tag_16\n  swap2\n  swap1\n  tag_17\n  jump\t// in\ntag_16:\n    /* \"src/crowdfunding.sol\":1790:1854  CAMPANIN_DUEDATE = block.timestamp + campainduration * 1 seconds */\n  0x80\n  dup2\n  dup2\n  mstore\n  pop\n  pop\n    /* \"src/crowdfunding.sol\":1342:1869  constructor(string memory _campainName, string memory _campainDesc,uint256 _campainGoal, uint256 _participationRate, uint256 campainduration)  {\r... */\n  pop\n  pop\n  pop\n  pop\n  pop\n    /* \"src/crowdfunding.sol\":72:8268  contract CrowdFunding {\r... */\n  jump(tag_18)\ntag_9:\n  dup3\n  dup1\n  sload\n  tag_19\n  swap1\n  tag_20\n  jump\t// in\ntag_19:\n  swap1\n  0x00\n  mstore\n  keccak256(0x00, 0x20)\n  swap1\n  0x1f\n  add\n  0x20\n  swap1\n  div\n  dup2\n  add\n  swap3\n  dup3\n  tag_22\n  jumpi\n  0x00\n  dup6\n  sstore\n  jump(tag_21)\ntag_22:\n  dup3\n  0x1f\n  lt\n  tag_23\n  jumpi\n  dup1\n  mload\n  not(0xff)\n  and\n  dup4\n  dup1\n  add\n  or\n  dup6\n  sstore\n  jump(tag_21)\ntag_23:\n  dup3\n  dup1\n  add\n  0x01\n  add\n  dup6\n  sstore\n  dup3\n  iszero\n  tag_21\n  jumpi\n  swap2\n  dup3\n  add\ntag_24:\n  dup3\n  dup2\n  gt\n  iszero\n  tag_25\n  jumpi\n  dup3\n  mload\n  dup3\n  sstore\n  swap2\n  0x20\n  add\n  swap2\n  swap1\n  0x01\n  add\n  swap1\n  jump(tag_24)\ntag_25:\ntag_21:\n  pop\n  swap1\n  pop\n  tag_26\n  swap2\n  swap1\n  tag_27\n  jump\t// in\ntag_26:\n  pop\n  swap1\n  jump\t// out\ntag_27:\ntag_28:\n  dup1\n  dup3\n  gt\n  iszero\n  tag_29\n  jumpi\n  0x00\n  dup2\n  0x00\n  swap1\n  sstore\n  pop\n  0x01\n  add\n  jump(tag_28)\ntag_29:\n  pop\n  swap1\n  jump\t// out\n    /* \"#utility.yul\":7:428   */\ntag_31:\n    /* \"#utility.yul\":96:101   */\n  0x00\n    /* \"#utility.yul\":121:187   */\n  tag_33\n    /* \"#utility.yul\":137:186   */\n  tag_34\n    /* \"#utility.yul\":179:185   */\n  dup5\n    /* \"#utility.yul\":137:186   */\n  tag_35\n  jump\t// in\ntag_34:\n    /* \"#utility.yul\":121:187   */\n  tag_36\n  jump\t// in\ntag_33:\n    /* \"#utility.yul\":112:187   */\n  swap1\n  pop\n    /* \"#utility.yul\":210:216   */\n  dup3\n    /* \"#utility.yul\":203:208   */\n  dup2\n    /* \"#utility.yul\":196:217   */\n  mstore\n    /* \"#utility.yul\":248:252   */\n  0x20\n    /* \"#utility.yul\":241:246   */\n  dup2\n    /* \"#utility.yul\":237:253   */\n  add\n    /* \"#utility.yul\":286:289   */\n  dup5\n    /* \"#utility.yul\":277:283   */\n  dup5\n    /* \"#utility.yul\":272:275   */\n  dup5\n    /* \"#utility.yul\":268:284   */\n  add\n    /* \"#utility.yul\":265:290   */\n  gt\n    /* \"#utility.yul\":262:374   */\n  iszero\n  tag_37\n  jumpi\n    /* \"#utility.yul\":293:372   */\n  tag_38\n  tag_39\n  jump\t// in\ntag_38:\n    /* \"#utility.yul\":262:374   */\ntag_37:\n    /* \"#utility.yul\":383:422   */\n  tag_40\n    /* \"#utility.yul\":415:421   */\n  dup5\n    /* \"#utility.yul\":410:413   */\n  dup3\n    /* \"#utility.yul\":405:408   */\n  dup6\n    /* \"#utility.yul\":383:422   */\n  tag_41\n  jump\t// in\ntag_40:\n    /* \"#utility.yul\":102:428   */\n  pop\n    /* \"#utility.yul\":7:428   */\n  swap4\n  swap3\n  pop\n  pop\n  pop\n  jump\t// out\n    /* \"#utility.yul\":448:803   */\ntag_42:\n    /* \"#utility.yul\":515:520   */\n  0x00\n    /* \"#utility.yul\":564:567   */\n  dup3\n    /* \"#utility.yul\":557:561   */\n  0x1f\n    /* \"#utility.yul\":549:555   */\n  dup4\n    /* \"#utility.yul\":545:562   */\n  add\n    /* \"#utility.yul\":541:568   */\n  slt\n    /* \"#utility.yul\":531:653   */\n  tag_44\n  jumpi\n    /* \"#utility.yul\":572:651   */\n  tag_45\n  tag_46\n  jump\t// in\ntag_45:\n    /* \"#utility.yul\":531:653   */\ntag_44:\n    /* \"#utility.yul\":682:688   */\n  dup2\n    /* \"#utility.yul\":676:689   */\n  mload\n    /* \"#utility.yul\":707:797   */\n  tag_47\n    /* \"#utility.yul\":793:796   */\n  dup5\n    /* \"#utility.yul\":785:791   */\n  dup3\n    /* \"#utility.yul\":778:782   */\n  0x20\n    /* \"#utility.yul\":770:776   */\n  dup7\n    /* \"#utility.yul\":766:783   */\n  add\n    /* \"#utility.yul\":707:797   */\n  tag_31\n  jump\t// in\ntag_47:\n    /* \"#utility.yul\":698:797   */\n  swap2\n  pop\n    /* \"#utility.yul\":521:803   */\n  pop\n    /* \"#utility.yul\":448:803   */\n  swap3\n  swap2\n  pop\n  pop\n  jump\t// out\n    /* \"#utility.yul\":809:952   */\ntag_48:\n    /* \"#utility.yul\":866:871   */\n  0x00\n    /* \"#utility.yul\":897:903   */\n  dup2\n    /* \"#utility.yul\":891:904   */\n  mload\n    /* \"#utility.yul\":882:904   */\n  swap1\n  pop\n    /* \"#utility.yul\":913:946   */\n  tag_50\n    /* \"#utility.yul\":940:945   */\n  dup2\n    /* \"#utility.yul\":913:946   */\n  tag_51\n  jump\t// in\ntag_50:\n    /* \"#utility.yul\":809:952   */\n  swap3\n  swap2\n  pop\n  pop\n  jump\t// out\n    /* \"#utility.yul\":958:2281   */\ntag_3:\n    /* \"#utility.yul\":1084:1090   */\n  0x00\n    /* \"#utility.yul\":1092:1098   */\n  dup1\n    /* \"#utility.yul\":1100:1106   */\n  0x00\n    /* \"#utility.yul\":1108:1114   */\n  dup1\n    /* \"#utility.yul\":1116:1122   */\n  0x00\n    /* \"#utility.yul\":1165:1168   */\n  0xa0\n    /* \"#utility.yul\":1153:1162   */\n  dup7\n    /* \"#utility.yul\":1144:1151   */\n  dup9\n    /* \"#utility.yul\":1140:1163   */\n  sub\n    /* \"#utility.yul\":1136:1169   */\n  slt\n    /* \"#utility.yul\":1133:1253   */\n  iszero\n  tag_53\n  jumpi\n    /* \"#utility.yul\":1172:1251   */\n  tag_54\n  tag_55\n  jump\t// in\ntag_54:\n    /* \"#utility.yul\":1133:1253   */\ntag_53:\n    /* \"#utility.yul\":1313:1314   */\n  0x00\n    /* \"#utility.yul\":1302:1311   */\n  dup7\n    /* \"#utility.yul\":1298:1315   */\n  add\n    /* \"#utility.yul\":1292:1316   */\n  mload\n    /* \"#utility.yul\":1343:1361   */\n  0xffffffffffffffff\n    /* \"#utility.yul\":1335:1341   */\n  dup2\n    /* \"#utility.yul\":1332:1362   */\n  gt\n    /* \"#utility.yul\":1329:1446   */\n  iszero\n  tag_56\n  jumpi\n    /* \"#utility.yul\":1365:1444   */\n  tag_57\n  tag_58\n  jump\t// in\ntag_57:\n    /* \"#utility.yul\":1329:1446   */\ntag_56:\n    /* \"#utility.yul\":1470:1544   */\n  tag_59\n    /* \"#utility.yul\":1536:1543   */\n  dup9\n    /* \"#utility.yul\":1527:1533   */\n  dup3\n    /* \"#utility.yul\":1516:1525   */\n  dup10\n    /* \"#utility.yul\":1512:1534   */\n  add\n    /* \"#utility.yul\":1470:1544   */\n  tag_42\n  jump\t// in\ntag_59:\n    /* \"#utility.yul\":1460:1544   */\n  swap6\n  pop\n    /* \"#utility.yul\":1263:1554   */\n  pop\n    /* \"#utility.yul\":1614:1616   */\n  0x20\n    /* \"#utility.yul\":1603:1612   */\n  dup7\n    /* \"#utility.yul\":1599:1617   */\n  add\n    /* \"#utility.yul\":1593:1618   */\n  mload\n    /* \"#utility.yul\":1645:1663   */\n  0xffffffffffffffff\n    /* \"#utility.yul\":1637:1643   */\n  dup2\n    /* \"#utility.yul\":1634:1664   */\n  gt\n    /* \"#utility.yul\":1631:1748   */\n  iszero\n  tag_60\n  jumpi\n    /* \"#utility.yul\":1667:1746   */\n  tag_61\n  tag_58\n  jump\t// in\ntag_61:\n    /* \"#utility.yul\":1631:1748   */\ntag_60:\n    /* \"#utility.yul\":1772:1846   */\n  tag_62\n    /* \"#utility.yul\":1838:1845   */\n  dup9\n    /* \"#utility.yul\":1829:1835   */\n  dup3\n    /* \"#utility.yul\":1818:1827   */\n  dup10\n    /* \"#utility.yul\":1814:1836   */\n  add\n    /* \"#utility.yul\":1772:1846   */\n  tag_42\n  jump\t// in\ntag_62:\n    /* \"#utility.yul\":1762:1846   */\n  swap5\n  pop\n    /* \"#utility.yul\":1564:1856   */\n  pop\n    /* \"#utility.yul\":1895:1897   */\n  0x40\n    /* \"#utility.yul\":1921:1985   */\n  tag_63\n    /* \"#utility.yul\":1977:1984   */\n  dup9\n    /* \"#utility.yul\":1968:1974   */\n  dup3\n    /* \"#utility.yul\":1957:1966   */\n  dup10\n    /* \"#utility.yul\":1953:1975   */\n  add\n    /* \"#utility.yul\":1921:1985   */\n  tag_48\n  jump\t// in\ntag_63:\n    /* \"#utility.yul\":1911:1985   */\n  swap4\n  pop\n    /* \"#utility.yul\":1866:1995   */\n  pop\n    /* \"#utility.yul\":2034:2036   */\n  0x60\n    /* \"#utility.yul\":2060:2124   */\n  tag_64\n    /* \"#utility.yul\":2116:2123   */\n  dup9\n    /* \"#utility.yul\":2107:2113   */\n  dup3\n    /* \"#utility.yul\":2096:2105   */\n  dup10\n    /* \"#utility.yul\":2092:2114   */\n  add\n    /* \"#utility.yul\":2060:2124   */\n  tag_48\n  jump\t// in\ntag_64:\n    /* \"#utility.yul\":2050:2124   */\n  swap3\n  pop\n    /* \"#utility.yul\":2005:2134   */\n  pop\n    /* \"#utility.yul\":2173:2176   */\n  0x80\n    /* \"#utility.yul\":2200:2264   */\n  tag_65\n    /* \"#utility.yul\":2256:2263   */\n  dup9\n    /* \"#utility.yul\":2247:2253   */\n  dup3\n    /* \"#utility.yul\":2236:2245   */\n  dup10\n    /* \"#utility.yul\":2232:2254   */\n  add\n    /* \"#utility.yul\":2200:2264   */\n  tag_48\n  jump\t// in\ntag_65:\n    /* \"#utility.yul\":2190:2264   */\n  swap2\n  pop\n    /* \"#utility.yul\":2144:2274   */\n  pop\n    /* \"#utility.yul\":958:2281   */\n  swap3\n  swap6\n  pop\n  swap3\n  swap6\n  swap1\n  swap4\n  pop\n  jump\t// out\n    /* \"#utility.yul\":2287:2416   */\ntag_36:\n    /* \"#utility.yul\":2321:2327   */\n  0x00\n    /* \"#utility.yul\":2348:2368   */\n  tag_67\n  tag_68\n  jump\t// in\ntag_67:\n    /* \"#utility.yul\":2338:2368   */\n  swap1\n  pop\n    /* \"#utility.yul\":2377:2410   */\n  tag_69\n    /* \"#utility.yul\":2405:2409   */\n  dup3\n    /* \"#utility.yul\":2397:2403   */\n  dup3\n    /* \"#utility.yul\":2377:2410   */\n  tag_70\n  jump\t// in\ntag_69:\n    /* \"#utility.yul\":2287:2416   */\n  swap2\n  swap1\n  pop\n  jump\t// out\n    /* \"#utility.yul\":2422:2497   */\ntag_68:\n    /* \"#utility.yul\":2455:2461   */\n  0x00\n    /* \"#utility.yul\":2488:2490   */\n  0x40\n    /* \"#utility.yul\":2482:2491   */\n  mload\n    /* \"#utility.yul\":2472:2491   */\n  swap1\n  pop\n    /* \"#utility.yul\":2422:2497   */\n  swap1\n  jump\t// out\n    /* \"#utility.yul\":2503:2811   */\ntag_35:\n    /* \"#utility.yul\":2565:2569   */\n  0x00\n    /* \"#utility.yul\":2655:2673   */\n  0xffffffffffffffff\n    /* \"#utility.yul\":2647:2653   */\n  dup3\n    /* \"#utility.yul\":2644:2674   */\n  gt\n    /* \"#utility.yul\":2641:2697   */\n  iszero\n  tag_73\n  jumpi\n    /* \"#utility.yul\":2677:2695   */\n  tag_74\n  tag_75\n  jump\t// in\ntag_74:\n    /* \"#utility.yul\":2641:2697   */\ntag_73:\n    /* \"#utility.yul\":2715:2744   */\n  tag_76\n    /* \"#utility.yul\":2737:2743   */\n  dup3\n    /* \"#utility.yul\":2715:2744   */\n  tag_77\n  jump\t// in\ntag_76:\n    /* \"#utility.yul\":2707:2744   */\n  swap1\n  pop\n    /* \"#utility.yul\":2799:2803   */\n  0x20\n    /* \"#utility.yul\":2793:2797   */\n  dup2\n    /* \"#utility.yul\":2789:2804   */\n  add\n    /* \"#utility.yul\":2781:2804   */\n  swap1\n  pop\n    /* \"#utility.yul\":2503:2811   */\n  swap2\n  swap1\n  pop\n  jump\t// out\n    /* \"#utility.yul\":2817:3122   */\ntag_17:\n    /* \"#utility.yul\":2857:2860   */\n  0x00\n    /* \"#utility.yul\":2876:2896   */\n  tag_79\n    /* \"#utility.yul\":2894:2895   */\n  dup3\n    /* \"#utility.yul\":2876:2896   */\n  tag_80\n  jump\t// in\ntag_79:\n    /* \"#utility.yul\":2871:2896   */\n  swap2\n  pop\n    /* \"#utility.yul\":2910:2930   */\n  tag_81\n    /* \"#utility.yul\":2928:2929   */\n  dup4\n    /* \"#utility.yul\":2910:2930   */\n  tag_80\n  jump\t// in\ntag_81:\n    /* \"#utility.yul\":2905:2930   */\n  swap3\n  pop\n    /* \"#utility.yul\":3064:3065   */\n  dup3\n    /* \"#utility.yul\":2996:3062   */\n  0xffffffffffffffffffffffffffffffffffffffffffffffffffffffffffffffff\n    /* \"#utility.yul\":2992:3066   */\n  sub\n    /* \"#utility.yul\":2989:2990   */\n  dup3\n    /* \"#utility.yul\":2986:3067   */\n  gt\n    /* \"#utility.yul\":2983:3090   */\n  iszero\n  tag_82\n  jumpi\n    /* \"#utility.yul\":3070:3088   */\n  tag_83\n  tag_84\n  jump\t// in\ntag_83:\n    /* \"#utility.yul\":2983:3090   */\ntag_82:\n    /* \"#utility.yul\":3114:3115   */\n  dup3\n    /* \"#utility.yul\":3111:3112   */\n  dup3\n    /* \"#utility.yul\":3107:3116   */\n  add\n    /* \"#utility.yul\":3100:3116   */\n  swap1\n  pop\n    /* \"#utility.yul\":2817:3122   */\n  swap3\n  swap2\n  pop\n  pop\n  jump\t// out\n    /* \"#utility.yul\":3128:3476   */\ntag_15:\n    /* \"#utility.yul\":3168:3175   */\n  0x00\n    /* \"#utility.yul\":3191:3211   */\n  tag_86\n    /* \"#utility.yul\":3209:3210   */\n  dup3\n    /* \"#utility.yul\":3191:3211   */\n  tag_80\n  jump\t// in\ntag_86:\n    /* \"#utility.yul\":3186:3211   */\n  swap2\n  pop\n    /* \"#utility.yul\":3225:3245   */\n  tag_87\n    /* \"#utility.yul\":3243:3244   */\n  dup4\n    /* \"#utility.yul\":3225:3245   */\n  tag_80\n  jump\t// in\ntag_87:\n    /* \"#utility.yul\":3220:3245   */\n  swap3\n  pop\n    /* \"#utility.yul\":3413:3414   */\n  dup2\n    /* \"#utility.yul\":3345:3411   */\n  0xffffffffffffffffffffffffffffffffffffffffffffffffffffffffffffffff\n    /* \"#utility.yul\":3341:3415   */\n  div\n    /* \"#utility.yul\":3338:3339   */\n  dup4\n    /* \"#utility.yul\":3335:3416   */\n  gt\n    /* \"#utility.yul\":3330:3331   */\n  dup3\n    /* \"#utility.yul\":3323:3332   */\n  iszero\n    /* \"#utility.yul\":3316:3333   */\n  iszero\n    /* \"#utility.yul\":3312:3417   */\n  and\n    /* \"#utility.yul\":3309:3440   */\n  iszero\n  tag_88\n  jumpi\n    /* \"#utility.yul\":3420:3438   */\n  tag_89\n  tag_84\n  jump\t// in\ntag_89:\n    /* \"#utility.yul\":3309:3440   */\ntag_88:\n    /* \"#utility.yul\":3468:3469   */\n  dup3\n    /* \"#utility.yul\":3465:3466   */\n  dup3\n    /* \"#utility.yul\":3461:3470   */\n  mul\n    /* \"#utility.yul\":3450:3470   */\n  swap1\n  pop\n    /* \"#utility.yul\":3128:3476   */\n  swap3\n  swap2\n  pop\n  pop\n  jump\t// out\n    /* \"#utility.yul\":3482:3559   */\ntag_80:\n    /* \"#utility.yul\":3519:3526   */\n  0x00\n    /* \"#utility.yul\":3548:3553   */\n  dup2\n    /* \"#utility.yul\":3537:3553   */\n  swap1\n  pop\n    /* \"#utility.yul\":3482:3559   */\n  swap2\n  swap1\n  pop\n  jump\t// out\n    /* \"#utility.yul\":3565:3872   */\ntag_41:\n    /* \"#utility.yul\":3633:3634   */\n  0x00\n    /* \"#utility.yul\":3643:3756   */\ntag_92:\n    /* \"#utility.yul\":3657:3663   */\n  dup4\n    /* \"#utility.yul\":3654:3655   */\n  dup2\n    /* \"#utility.yul\":3651:3664   */\n  lt\n    /* \"#utility.yul\":3643:3756   */\n  iszero\n  tag_94\n  jumpi\n    /* \"#utility.yul\":3742:3743   */\n  dup1\n    /* \"#utility.yul\":3737:3740   */\n  dup3\n    /* \"#utility.yul\":3733:3744   */\n  add\n    /* \"#utility.yul\":3727:3745   */\n  mload\n    /* \"#utility.yul\":3723:3724   */\n  dup2\n    /* \"#utility.yul\":3718:3721   */\n  dup5\n    /* \"#utility.yul\":3714:3725   */\n  add\n    /* \"#utility.yul\":3707:3746   */\n  mstore\n    /* \"#utility.yul\":3679:3681   */\n  0x20\n    /* \"#utility.yul\":3676:3677   */\n  dup2\n    /* \"#utility.yul\":3672:3682   */\n  add\n    /* \"#utility.yul\":3667:3682   */\n  swap1\n  pop\n    /* \"#utility.yul\":3643:3756   */\n  jump(tag_92)\ntag_94:\n    /* \"#utility.yul\":3774:3780   */\n  dup4\n    /* \"#utility.yul\":3771:3772   */\n  dup2\n    /* \"#utility.yul\":3768:3781   */\n  gt\n    /* \"#utility.yul\":3765:3866   */\n  iszero\n  tag_95\n  jumpi\n    /* \"#utility.yul\":3854:3855   */\n  0x00\n    /* \"#utility.yul\":3845:3851   */\n  dup5\n    /* \"#utility.yul\":3840:3843   */\n  dup5\n    /* \"#utility.yul\":3836:3852   */\n  add\n    /* \"#utility.yul\":3829:3856   */\n  mstore\n    /* \"#utility.yul\":3765:3866   */\ntag_95:\n    /* \"#utility.yul\":3614:3872   */\n  pop\n    /* \"#utility.yul\":3565:3872   */\n  pop\n  pop\n  pop\n  jump\t// out\n    /* \"#utility.yul\":3878:4198   */\ntag_20:\n    /* \"#utility.yul\":3922:3928   */\n  0x00\n    /* \"#utility.yul\":3959:3960   */\n  0x02\n    /* \"#utility.yul\":3953:3957   */\n  dup3\n    /* \"#utility.yul\":3949:3961   */\n  div\n    /* \"#utility.yul\":3939:3961   */\n  swap1\n  pop\n    /* \"#utility.yul\":4006:4007   */\n  0x01\n    /* \"#utility.yul\":4000:4004   */\n  dup3\n    /* \"#utility.yul\":3996:4008   */\n  and\n    /* \"#utility.yul\":4027:4045   */\n  dup1\n    /* \"#utility.yul\":4017:4098   */\n  tag_97\n  jumpi\n    /* \"#utility.yul\":4083:4087   */\n  0x7f\n    /* \"#utility.yul\":4075:4081   */\n  dup3\n    /* \"#utility.yul\":4071:4088   */\n  and\n    /* \"#utility.yul\":4061:4088   */\n  swap2\n  pop\n    /* \"#utility.yul\":4017:4098   */\ntag_97:\n    /* \"#utility.yul\":4145:4147   */\n  0x20\n    /* \"#utility.yul\":4137:4143   */\n  dup3\n    /* \"#utility.yul\":4134:4148   */\n  lt\n    /* \"#utility.yul\":4114:4132   */\n  dup2\n    /* \"#utility.yul\":4111:4149   */\n  eq\n    /* \"#utility.yul\":4108:4192   */\n  iszero\n  tag_98\n  jumpi\n    /* \"#utility.yul\":4164:4182   */\n  tag_99\n  tag_100\n  jump\t// in\ntag_99:\n    /* \"#utility.yul\":4108:4192   */\ntag_98:\n    /* \"#utility.yul\":3929:4198   */\n  pop\n    /* \"#utility.yul\":3878:4198   */\n  swap2\n  swap1\n  pop\n  jump\t// out\n    /* \"#utility.yul\":4204:4485   */\ntag_70:\n    /* \"#utility.yul\":4287:4314   */\n  tag_102\n    /* \"#utility.yul\":4309:4313   */\n  dup3\n    /* \"#utility.yul\":4287:4314   */\n  tag_77\n  jump\t// in\ntag_102:\n    /* \"#utility.yul\":4279:4285   */\n  dup2\n    /* \"#utility.yul\":4275:4315   */\n  add\n    /* \"#utility.yul\":4417:4423   */\n  dup2\n    /* \"#utility.yul\":4405:4415   */\n  dup2\n    /* \"#utility.yul\":4402:4424   */\n  lt\n    /* \"#utility.yul\":4381:4399   */\n  0xffffffffffffffff\n    /* \"#utility.yul\":4369:4379   */\n  dup3\n    /* \"#utility.yul\":4366:4400   */\n  gt\n    /* \"#utility.yul\":4363:4425   */\n  or\n    /* \"#utility.yul\":4360:4448   */\n  iszero\n  tag_103\n  jumpi\n    /* \"#utility.yul\":4428:4446   */\n  tag_104\n  tag_75\n  jump\t// in\ntag_104:\n    /* \"#utility.yul\":4360:4448   */\ntag_103:\n    /* \"#utility.yul\":4468:4478   */\n  dup1\n    /* \"#utility.yul\":4464:4466   */\n  0x40\n    /* \"#utility.yul\":4457:4479   */\n  mstore\n    /* \"#utility.yul\":4247:4485   */\n  pop\n    /* \"#utility.yul\":4204:4485   */\n  pop\n  pop\n  jump\t// out\n    /* \"#utility.yul\":4491:4671   */\ntag_84:\n    /* \"#utility.yul\":4539:4616   */\n  0x4e487b7100000000000000000000000000000000000000000000000000000000\n    /* \"#utility.yul\":4536:4537   */\n  0x00\n    /* \"#utility.yul\":4529:4617   */\n  mstore\n    /* \"#utility.yul\":4636:4640   */\n  0x11\n    /* \"#utility.yul\":4633:4634   */\n  0x04\n    /* \"#utility.yul\":4626:4641   */\n  mstore\n    /* \"#utility.yul\":4660:4664   */\n  0x24\n    /* \"#utility.yul\":4657:4658   */\n  0x00\n    /* \"#utility.yul\":4650:4665   */\n  revert\n    /* \"#utility.yul\":4677:4857   */\ntag_13:\n    /* \"#utility.yul\":4725:4802   */\n  0x4e487b7100000000000000000000000000000000000000000000000000000000\n    /* \"#utility.yul\":4722:4723   */\n  0x00\n    /* \"#utility.yul\":4715:4803   */\n  mstore\n    /* \"#utility.yul\":4822:4826   */\n  0x21\n    /* \"#utility.yul\":4819:4820   */\n  0x04\n    /* \"#utility.yul\":4812:4827   */\n  mstore\n    /* \"#utility.yul\":4846:4850   */\n  0x24\n    /* \"#utility.yul\":4843:4844   */\n  0x00\n    /* \"#utility.yul\":4836:4851   */\n  revert\n    /* \"#utility.yul\":4863:5043   */\ntag_100:\n    /* \"#utility.yul\":4911:4988   */\n  0x4e487b7100000000000000000000000000000000000000000000000000000000\n    /* \"#utility.yul\":4908:4909   */\n  0x00\n    /* \"#utility.yul\":4901:4989   */\n  mstore\n    /* \"#utility.yul\":5008:5012   */\n  0x22\n    /* \"#utility.yul\":5005:5006   */\n  0x04\n    /* \"#utility.yul\":4998:5013   */\n  mstore\n    /* \"#utility.yul\":5032:5036   */\n  0x24\n    /* \"#utility.yul\":5029:5030   */\n  0x00\n    /* \"#utility.yul\":5022:5037   */\n  revert\n    /* \"#utility.yul\":5049:5229   */\ntag_75:\n    /* \"#utility.yul\":5097:5174   */\n  0x4e487b7100000000000000000000000000000000000000000000000000000000\n    /* \"#utility.yul\":5094:5095   */\n  0x00\n    /* \"#utility.yul\":5087:5175   */\n  mstore\n    /* \"#utility.yul\":5194:5198   */\n  0x41\n    /* \"#utility.yul\":5191:5192   */\n  0x04\n    /* \"#utility.yul\":5184:5199   */\n  mstore\n    /* \"#utility.yul\":5218:5222   */\n  0x24\n    /* \"#utility.yul\":5215:5216   */\n  0x00\n    /* \"#utility.yul\":5208:5223   */\n  revert\n    /* \"#utility.yul\":5235:5352   */\ntag_46:\n    /* \"#utility.yul\":5344:5345   */\n  0x00\n    /* \"#utility.yul\":5341:5342   */\n  dup1\n    /* \"#utility.yul\":5334:5346   */\n  revert\n    /* \"#utility.yul\":5358:5475   */\ntag_39:\n    /* \"#utility.yul\":5467:5468   */\n  0x00\n    /* \"#utility.yul\":5464:5465   */\n  dup1\n    /* \"#utility.yul\":5457:5469   */\n  revert\n    /* \"#utility.yul\":5481:5598   */\ntag_58:\n    /* \"#utility.yul\":5590:5591   */\n  0x00\n    /* \"#utility.yul\":5587:5588   */\n  dup1\n    /* \"#utility.yul\":5580:5592   */\n  revert\n    /* \"#utility.yul\":5604:5721   */\ntag_55:\n    /* \"#utility.yul\":5713:5714   */\n  0x00\n    /* \"#utility.yul\":5710:5711   */\n  dup1\n    /* \"#utility.yul\":5703:5715   */\n  revert\n    /* \"#utility.yul\":5727:5829   */\ntag_77:\n    /* \"#utility.yul\":5768:5774   */\n  0x00\n    /* \"#utility.yul\":5819:5821   */\n  0x1f\n    /* \"#utility.yul\":5815:5822   */\n  not\n    /* \"#utility.yul\":5810:5812   */\n  0x1f\n    /* \"#utility.yul\":5803:5808   */\n  dup4\n    /* \"#utility.yul\":5799:5813   */\n  add\n    /* \"#utility.yul\":5795:5823   */\n  and\n    /* \"#utility.yul\":5785:5823   */\n  swap1\n  pop\n    /* \"#utility.yul\":5727:5829   */\n  swap2\n  swap1\n  pop\n  jump\t// out\n    /* \"#utility.yul\":5835:5957   */\ntag_51:\n    /* \"#utility.yul\":5908:5932   */\n  tag_115\n    /* \"#utility.yul\":5926:5931   */\n  dup2\n    /* \"#utility.yul\":5908:5932   */\n  tag_80\n  jump\t// in\ntag_115:\n    /* \"#utility.yul\":5901:5906   */\n  dup2\n    /* \"#utility.yul\":5898:5933   */\n  eq\n    /* \"#utility.yul\":5888:5951   */\n  tag_116\n  jumpi\n    /* \"#utility.yul\":5947:5948   */\n  0x00\n    /* \"#utility.yul\":5944:5945   */\n  dup1\n    /* \"#utility.yul\":5937:5949   */\n  revert\n    /* \"#utility.yul\":5888:5951   */\ntag_116:\n    /* \"#utility.yul\":5835:5957   */\n  pop\n  jump\t// out\n    /* \"src/crowdfunding.sol\":72:8268  contract CrowdFunding {\r... */\ntag_18:\n  mload(0x80)\n  codecopy(0x00, dataOffset(sub_0), dataSize(sub_0))\n  0x00\n  assignImmutable(\"0x7749cc8014201da2069c21d93ba99c584b6f62d393fde534ed47eac227e31561\")\n  return(0x00, dataSize(sub_0))\nstop\n\nsub_0: assembly {\n        /* \"src/crowdfunding.sol\":72:8268  contract CrowdFunding {\r... */\n      mstore(0x40, 0x80)\n      jumpi(tag_1, lt(calldatasize, 0x04))\n      shr(0xe0, calldataload(0x00))\n      dup1\n      0xb25924c1\n      gt\n      tag_27\n      jumpi\n      dup1\n      0xe3ce8164\n      gt\n      tag_28\n      jumpi\n      dup1\n      0xe3ce8164\n      eq\n      tag_21\n      jumpi\n      dup1\n      0xe7425109\n      eq\n      tag_22\n      jumpi\n      dup1\n      0xeb68f887\n      eq\n      tag_23\n      jumpi\n      dup1\n      0xf7256d66\n      eq\n      tag_24\n      jumpi\n      dup1\n      0xf7a7e57e\n      eq\n      tag_25\n      jumpi\n      dup1\n      0xf83589c0\n      eq\n      tag_26\n      jumpi\n      jump(tag_2)\n    tag_28:\n      dup1\n      0xb25924c1\n      eq\n      tag_15\n      jumpi\n      dup1\n      0xbbde609a\n      eq\n      tag_16\n      jumpi\n      dup1\n      0xcac9a391\n      eq\n      tag_17\n      jumpi\n      dup1\n      0xd50af7b4\n      eq\n      tag_18\n      jumpi\n      dup1\n      0xd50fac49\n      eq\n      tag_19\n      jumpi\n      dup1\n      0xe348c518\n      eq\n      tag_20\n      jumpi\n      jump(tag_2)\n    tag_27:\n      dup1\n      0x8f75c1fb\n      gt\n      tag_29\n      jumpi\n      dup1\n      0x8f75c1fb\n      eq\n      tag_9\n      jumpi\n      dup1\n      0x95df868d\n      eq\n      tag_10\n      jumpi\n      dup1\n      0x9de8fc99\n      eq\n      tag_11\n      jumpi\n      dup1\n      0xa4e58a87\n      eq\n      tag_12\n      jumpi\n      dup1\n      0xab672906\n      eq\n      tag_13\n      jumpi\n      dup1\n      0xb14d38c2\n      eq\n      tag_14\n      jumpi\n      jump(tag_2)\n    tag_29:\n      dup1\n      0x225682d1\n      eq\n      tag_3\n      jumpi\n      dup1\n      0x3deff252\n      eq\n      tag_4\n      jumpi\n      dup1\n      0x3e0905ec\n      eq\n      tag_5\n      jumpi\n      dup1\n      0x7bd82410\n      eq\n      tag_6\n      jumpi\n      dup1\n      0x8b83ba26\n      eq\n      tag_7\n      jumpi\n      dup1\n      0x8d1750c5\n      eq\n      tag_8\n      jumpi\n      jump(tag_2)\n    tag_1:\n      jumpi(tag_2, calldatasize)\n        /* \"src/crowdfunding.sol\":2502:2514  participar() */\n      tag_32\n        /* \"src/crowdfunding.sol\":2502:2512  participar */\n      tag_33\n        /* \"src/crowdfunding.sol\":2502:2514  participar() */\n      jump\t// in\n    tag_32:\n        /* \"src/crowdfunding.sol\":72:8268  contract CrowdFunding {\r... */\n      stop\n    tag_2:\n        /* \"src/crowdfunding.sol\":2568:2580  participar() */\n      tag_36\n        /* \"src/crowdfunding.sol\":2568:2578  participar */\n      tag_33\n        /* \"src/crowdfunding.sol\":2568:2580  participar() */\n      jump\t// in\n    tag_36:\n        /* \"src/crowdfunding.sol\":72:8268  contract CrowdFunding {\r... */\n      stop\n        /* \"src/crowdfunding.sol\":3789:3972  function test_contractBalance() public view returns (uint256) {\r... */\n    tag_3:\n      callvalue\n      dup1\n      iszero\n      tag_37\n      jumpi\n      0x00\n      dup1\n      revert\n    tag_37:\n      pop\n      tag_38\n      tag_39\n      jump\t// in\n    tag_38:\n      mload(0x40)\n      tag_40\n      swap2\n      swap1\n      tag_41\n      jump\t// in\n    tag_40:\n      mload(0x40)\n      dup1\n      swap2\n      sub\n      swap1\n      return\n        /* \"src/crowdfunding.sol\":196:221  string public campainName */\n    tag_4:\n      callvalue\n      dup1\n      iszero\n      tag_42\n      jumpi\n      0x00\n      dup1\n      revert\n    tag_42:\n      pop\n      tag_43\n      tag_44\n      jump\t// in\n    tag_43:\n      mload(0x40)\n      tag_45\n      swap2\n      swap1\n      tag_46\n      jump\t// in\n    tag_45:\n      mload(0x40)\n      dup1\n      swap2\n      sub\n      swap1\n      return\n        /* \"src/crowdfunding.sol\":7431:8263  function resolverPeticion(uint index) public only_manager {\r... */\n    tag_5:\n      callvalue\n      dup1\n      iszero\n      tag_47\n      jumpi\n      0x00\n      dup1\n      revert\n    tag_47:\n      pop\n      tag_48\n      0x04\n      dup1\n      calldatasize\n      sub\n      dup2\n      add\n      swap1\n      tag_49\n      swap2\n      swap1\n      tag_50\n      jump\t// in\n    tag_49:\n      tag_51\n      jump\t// in\n    tag_48:\n      stop\n        /* \"src/crowdfunding.sol\":462:497  uint256 public totalParticipaciones */\n    tag_6:\n      callvalue\n      dup1\n      iszero\n      tag_52\n      jumpi\n      0x00\n      dup1\n      revert\n    tag_52:\n      pop\n      tag_53\n      tag_54\n      jump\t// in\n    tag_53:\n      mload(0x40)\n      tag_55\n      swap2\n      swap1\n      tag_41\n      jump\t// in\n    tag_55:\n      mload(0x40)\n      dup1\n      swap2\n      sub\n      swap1\n      return\n        /* \"src/crowdfunding.sol\":2594:2716  function getUserParticipaciones(address user) public view returns(uint256) {\r... */\n    tag_7:\n      callvalue\n      dup1\n      iszero\n      tag_56\n      jumpi\n      0x00\n      dup1\n      revert\n    tag_56:\n      pop\n      tag_57\n      0x04\n      dup1\n      calldatasize\n      sub\n      dup2\n      add\n      swap1\n      tag_58\n      swap2\n      swap1\n      tag_59\n      jump\t// in\n    tag_58:\n      tag_60\n      jump\t// in\n    tag_57:\n      mload(0x40)\n      tag_61\n      swap2\n      swap1\n      tag_41\n      jump\t// in\n    tag_61:\n      mload(0x40)\n      dup1\n      swap2\n      sub\n      swap1\n      return\n        /* \"src/crowdfunding.sol\":264:292  Estado public  campainEstado */\n    tag_8:\n      callvalue\n      dup1\n      iszero\n      tag_62\n      jumpi\n      0x00\n      dup1\n      revert\n    tag_62:\n      pop\n      tag_63\n      tag_64\n      jump\t// in\n    tag_63:\n      mload(0x40)\n      tag_65\n      swap2\n      swap1\n      tag_66\n      jump\t// in\n    tag_65:\n      mload(0x40)\n      dup1\n      swap2\n      sub\n      swap1\n      return\n        /* \"src/crowdfunding.sol\":155:192  address payable public campainManager */\n    tag_9:\n      callvalue\n      dup1\n      iszero\n      tag_67\n      jumpi\n      0x00\n      dup1\n      revert\n    tag_67:\n      pop\n      tag_68\n      tag_69\n      jump\t// in\n    tag_68:\n      mload(0x40)\n      tag_70\n      swap2\n      swap1\n      tag_71\n      jump\t// in\n    tag_70:\n      mload(0x40)\n      dup1\n      swap2\n      sub\n      swap1\n      return\n        /* \"src/crowdfunding.sol\":299:325  uint256 public campainGoal */\n    tag_10:\n      callvalue\n      dup1\n      iszero\n      tag_72\n      jumpi\n      0x00\n      dup1\n      revert\n    tag_72:\n      pop\n      tag_73\n      tag_74\n      jump\t// in\n    tag_73:\n      mload(0x40)\n      tag_75\n      swap2\n      swap1\n      tag_41\n      jump\t// in\n    tag_75:\n      mload(0x40)\n      dup1\n      swap2\n      sub\n      swap1\n      return\n        /* \"src/crowdfunding.sol\":5311:5419  function getNPeticionesDeGasto() public view returns (uint) {\r... */\n    tag_11:\n      callvalue\n      dup1\n      iszero\n      tag_76\n      jumpi\n      0x00\n      dup1\n      revert\n    tag_76:\n      pop\n      tag_77\n      tag_78\n      jump\t// in\n    tag_77:\n      mload(0x40)\n      tag_79\n      swap2\n      swap1\n      tag_41\n      jump\t// in\n    tag_79:\n      mload(0x40)\n      dup1\n      swap2\n      sub\n      swap1\n      return\n        /* \"src/crowdfunding.sol\":3392:3776  function withdrawCanceledCampain() public {\r... */\n    tag_12:\n      callvalue\n      dup1\n      iszero\n      tag_80\n      jumpi\n      0x00\n      dup1\n      revert\n    tag_80:\n      pop\n      tag_81\n      tag_82\n      jump\t// in\n    tag_81:\n      stop\n        /* \"src/crowdfunding.sol\":1071:1127  mapping (uint => PeticionGasto) public peticionesDeGasto */\n    tag_13:\n      callvalue\n      dup1\n      iszero\n      tag_83\n      jumpi\n      0x00\n      dup1\n      revert\n    tag_83:\n      pop\n      tag_84\n      0x04\n      dup1\n      calldatasize\n      sub\n      dup2\n      add\n      swap1\n      tag_85\n      swap2\n      swap1\n      tag_50\n      jump\t// in\n    tag_85:\n      tag_86\n      jump\t// in\n    tag_84:\n      mload(0x40)\n      tag_87\n      swap7\n      swap6\n      swap5\n      swap4\n      swap3\n      swap2\n      swap1\n      tag_88\n      jump\t// in\n    tag_87:\n      mload(0x40)\n      dup1\n      swap2\n      sub\n      swap1\n      return\n        /* \"src/crowdfunding.sol\":2947:3379  function finalizarCampain() public  {\r... */\n    tag_14:\n      callvalue\n      dup1\n      iszero\n      tag_89\n      jumpi\n      0x00\n      dup1\n      revert\n    tag_89:\n      pop\n      tag_90\n      tag_91\n      jump\t// in\n    tag_90:\n      stop\n        /* \"src/crowdfunding.sol\":425:455  address[] public participantes */\n    tag_15:\n      callvalue\n      dup1\n      iszero\n      tag_92\n      jumpi\n      0x00\n      dup1\n      revert\n    tag_92:\n      pop\n      tag_93\n      0x04\n      dup1\n      calldatasize\n      sub\n      dup2\n      add\n      swap1\n      tag_94\n      swap2\n      swap1\n      tag_50\n      jump\t// in\n    tag_94:\n      tag_95\n      jump\t// in\n    tag_93:\n      mload(0x40)\n      tag_96\n      swap2\n      swap1\n      tag_97\n      jump\t// in\n    tag_96:\n      mload(0x40)\n      dup1\n      swap2\n      sub\n      swap1\n      return\n        /* \"src/crowdfunding.sol\":368:418  mapping(address => uint256) public participaciones */\n    tag_16:\n      callvalue\n      dup1\n      iszero\n      tag_98\n      jumpi\n      0x00\n      dup1\n      revert\n    tag_98:\n      pop\n      tag_99\n      0x04\n      dup1\n      calldatasize\n      sub\n      dup2\n      add\n      swap1\n      tag_100\n      swap2\n      swap1\n      tag_59\n      jump\t// in\n    tag_100:\n      tag_101\n      jump\t// in\n    tag_99:\n      mload(0x40)\n      tag_102\n      swap2\n      swap1\n      tag_41\n      jump\t// in\n    tag_102:\n      mload(0x40)\n      dup1\n      swap2\n      sub\n      swap1\n      return\n        /* \"src/crowdfunding.sol\":2836:2941  function getParticipantes() public view returns(address[] memory) {\r... */\n    tag_17:\n      callvalue\n      dup1\n      iszero\n      tag_103\n      jumpi\n      0x00\n      dup1\n      revert\n    tag_103:\n      pop\n      tag_104\n      tag_105\n      jump\t// in\n    tag_104:\n      mload(0x40)\n      tag_106\n      swap2\n      swap1\n      tag_107\n      jump\t// in\n    tag_106:\n      mload(0x40)\n      dup1\n      swap2\n      sub\n      swap1\n      return\n        /* \"src/crowdfunding.sol\":6222:6651  function getDetailPeticionGastobyId(uint index) public  view returns(string memory,uint, bool){\r... */\n    tag_18:\n      callvalue\n      dup1\n      iszero\n      tag_108\n      jumpi\n      0x00\n      dup1\n      revert\n    tag_108:\n      pop\n      tag_109\n      0x04\n      dup1\n      calldatasize\n      sub\n      dup2\n      add\n      swap1\n      tag_110\n      swap2\n      swap1\n      tag_50\n      jump\t// in\n    tag_110:\n      tag_111\n      jump\t// in\n    tag_109:\n      mload(0x40)\n      tag_112\n      swap4\n      swap3\n      swap2\n      swap1\n      tag_113\n      jump\t// in\n    tag_112:\n      mload(0x40)\n      dup1\n      swap2\n      sub\n      swap1\n      return\n        /* \"src/crowdfunding.sol\":1881:2457  function participar() public payable {\r... */\n    tag_19:\n      tag_114\n      tag_33\n      jump\t// in\n    tag_114:\n      stop\n        /* \"src/crowdfunding.sol\":329:361  uint256 public participationRate */\n    tag_20:\n      callvalue\n      dup1\n      iszero\n      tag_115\n      jumpi\n      0x00\n      dup1\n      revert\n    tag_115:\n      pop\n      tag_116\n      tag_117\n      jump\t// in\n    tag_116:\n      mload(0x40)\n      tag_118\n      swap2\n      swap1\n      tag_41\n      jump\t// in\n    tag_118:\n      mload(0x40)\n      dup1\n      swap2\n      sub\n      swap1\n      return\n        /* \"src/crowdfunding.sol\":2722:2830  function getTotalParticipantes() public view returns(uint256) {\r... */\n    tag_21:\n      callvalue\n      dup1\n      iszero\n      tag_119\n      jumpi\n      0x00\n      dup1\n      revert\n    tag_119:\n      pop\n      tag_120\n      tag_121\n      jump\t// in\n    tag_120:\n      mload(0x40)\n      tag_122\n      swap2\n      swap1\n      tag_41\n      jump\t// in\n    tag_122:\n      mload(0x40)\n      dup1\n      swap2\n      sub\n      swap1\n      return\n        /* \"src/crowdfunding.sol\":225:257  string public campainDescription */\n    tag_22:\n      callvalue\n      dup1\n      iszero\n      tag_123\n      jumpi\n      0x00\n      dup1\n      revert\n    tag_123:\n      pop\n      tag_124\n      tag_125\n      jump\t// in\n    tag_124:\n      mload(0x40)\n      tag_126\n      swap2\n      swap1\n      tag_46\n      jump\t// in\n    tag_126:\n      mload(0x40)\n      dup1\n      swap2\n      sub\n      swap1\n      return\n        /* \"src/crowdfunding.sol\":5425:6216  function getPeticionesGastoAbiertas() public view returns(uint[] memory) {\r... */\n    tag_23:\n      callvalue\n      dup1\n      iszero\n      tag_127\n      jumpi\n      0x00\n      dup1\n      revert\n    tag_127:\n      pop\n      tag_128\n      tag_129\n      jump\t// in\n    tag_128:\n      mload(0x40)\n      tag_130\n      swap2\n      swap1\n      tag_131\n      jump\t// in\n    tag_130:\n      mload(0x40)\n      dup1\n      swap2\n      sub\n      swap1\n      return\n        /* \"src/crowdfunding.sol\":6661:7423  function votarPeticionGasto(uint index, bool aprobar) public {\r... */\n    tag_24:\n      callvalue\n      dup1\n      iszero\n      tag_132\n      jumpi\n      0x00\n      dup1\n      revert\n    tag_132:\n      pop\n      tag_133\n      0x04\n      dup1\n      calldatasize\n      sub\n      dup2\n      add\n      swap1\n      tag_134\n      swap2\n      swap1\n      tag_135\n      jump\t// in\n    tag_134:\n      tag_136\n      jump\t// in\n    tag_133:\n      stop\n        /* \"src/crowdfunding.sol\":504:542  uint immutable public CAMPANIN_DUEDATE */\n    tag_25:\n      callvalue\n      dup1\n      iszero\n      tag_137\n      jumpi\n      0x00\n      dup1\n      revert\n    tag_137:\n      pop\n      tag_138\n      tag_139\n      jump\t// in\n    tag_138:\n      mload(0x40)\n      tag_140\n      swap2\n      swap1\n      tag_41\n      jump\t// in\n    tag_140:\n      mload(0x40)\n      dup1\n      swap2\n      sub\n      swap1\n      return\n        /* \"src/crowdfunding.sol\":4124:5305  function\tcrearPeticionDeGasto(string memory _detalle, uint _importe, address payable _destinatario) public only_manager {\r... */\n    tag_26:\n      callvalue\n      dup1\n      iszero\n      tag_141\n      jumpi\n      0x00\n      dup1\n      revert\n    tag_141:\n      pop\n      tag_142\n      0x04\n      dup1\n      calldatasize\n      sub\n      dup2\n      add\n      swap1\n      tag_143\n      swap2\n      swap1\n      tag_144\n      jump\t// in\n    tag_143:\n      tag_145\n      jump\t// in\n    tag_142:\n      stop\n        /* \"src/crowdfunding.sol\":1881:2457  function participar() public payable {\r... */\n    tag_33:\n        /* \"src/crowdfunding.sol\":1950:1967  participationRate */\n      sload(0x05)\n        /* \"src/crowdfunding.sol\":1937:1946  msg.value */\n      callvalue\n        /* \"src/crowdfunding.sol\":1937:1967  msg.value >= participationRate */\n      lt\n      iszero\n        /* \"src/crowdfunding.sol\":1929:2006  require(msg.value >= participationRate, \"Participacion minima no alcanzada\" ) */\n      tag_147\n      jumpi\n      mload(0x40)\n      0x08c379a000000000000000000000000000000000000000000000000000000000\n      dup2\n      mstore\n      0x04\n      add\n      tag_148\n      swap1\n      tag_149\n      jump\t// in\n    tag_148:\n      mload(0x40)\n      dup1\n      swap2\n      sub\n      swap1\n      revert\n    tag_147:\n        /* \"src/crowdfunding.sol\":2042:2056  Estado.Abierta */\n      0x00\n        /* \"src/crowdfunding.sol\":2025:2056  campainEstado == Estado.Abierta */\n      0x02\n      dup2\n      gt\n      iszero\n      tag_150\n      jumpi\n      tag_151\n      tag_152\n      jump\t// in\n    tag_151:\n    tag_150:\n        /* \"src/crowdfunding.sol\":2025:2038  campainEstado */\n      0x03\n      0x00\n      swap1\n      sload\n      swap1\n      0x0100\n      exp\n      swap1\n      div\n      0xff\n      and\n        /* \"src/crowdfunding.sol\":2025:2056  campainEstado == Estado.Abierta */\n      0x02\n      dup2\n      gt\n      iszero\n      tag_153\n      jumpi\n      tag_154\n      tag_152\n      jump\t// in\n    tag_154:\n    tag_153:\n      eq\n        /* \"src/crowdfunding.sol\":2017:2090  require(campainEstado == Estado.Abierta,\"Finalizado plazo participacion\") */\n      tag_155\n      jumpi\n      mload(0x40)\n      0x08c379a000000000000000000000000000000000000000000000000000000000\n      dup2\n      mstore\n      0x04\n      add\n      tag_156\n      swap1\n      tag_157\n      jump\t// in\n    tag_156:\n      mload(0x40)\n      dup1\n      swap2\n      sub\n      swap1\n      revert\n    tag_155:\n        /* \"src/crowdfunding.sol\":2135:2136  0 */\n      0x00\n        /* \"src/crowdfunding.sol\":2104:2119  participaciones */\n      0x06\n        /* \"src/crowdfunding.sol\":2104:2131  participaciones[msg.sender] */\n      0x00\n        /* \"src/crowdfunding.sol\":2120:2130  msg.sender */\n      caller\n        /* \"src/crowdfunding.sol\":2104:2131  participaciones[msg.sender] */\n      0xffffffffffffffffffffffffffffffffffffffff\n      and\n      0xffffffffffffffffffffffffffffffffffffffff\n      and\n      dup2\n      mstore\n      0x20\n      add\n      swap1\n      dup2\n      mstore\n      0x20\n      add\n      0x00\n      keccak256\n      sload\n        /* \"src/crowdfunding.sol\":2104:2136  participaciones[msg.sender] == 0 */\n      eq\n        /* \"src/crowdfunding.sol\":2101:2217  if(participaciones[msg.sender] == 0) {  //nuevo participante\r... */\n      iszero\n      tag_158\n      jumpi\n        /* \"src/crowdfunding.sol\":2175:2188  participantes */\n      0x07\n        /* \"src/crowdfunding.sol\":2194:2204  msg.sender */\n      caller\n        /* \"src/crowdfunding.sol\":2175:2205  participantes.push(msg.sender) */\n      swap1\n      dup1\n      0x01\n      dup2\n      sload\n      add\n      dup1\n      dup3\n      sstore\n      dup1\n      swap2\n      pop\n      pop\n      0x01\n      swap1\n      sub\n      swap1\n      0x00\n      mstore\n      keccak256(0x00, 0x20)\n      add\n      0x00\n      swap1\n      swap2\n      swap1\n      swap2\n      swap1\n      swap2\n      0x0100\n      exp\n      dup2\n      sload\n      dup2\n      0xffffffffffffffffffffffffffffffffffffffff\n      mul\n      not\n      and\n      swap1\n      dup4\n      0xffffffffffffffffffffffffffffffffffffffff\n      and\n      mul\n      or\n      swap1\n      sstore\n      pop\n        /* \"src/crowdfunding.sol\":2101:2217  if(participaciones[msg.sender] == 0) {  //nuevo participante\r... */\n    tag_158:\n        /* \"src/crowdfunding.sol\":2227:2253  uint256 newParticipaciones */\n      0x00\n        /* \"src/crowdfunding.sol\":2268:2285  participationRate */\n      sload(0x05)\n        /* \"src/crowdfunding.sol\":2256:2265  msg.value */\n      callvalue\n        /* \"src/crowdfunding.sol\":2256:2285  msg.value / participationRate */\n      tag_160\n      swap2\n      swap1\n      tag_161\n      jump\t// in\n    tag_160:\n        /* \"src/crowdfunding.sol\":2227:2285  uint256 newParticipaciones = msg.value / participationRate */\n      swap1\n      pop\n        /* \"src/crowdfunding.sol\":2357:2375  newParticipaciones */\n      dup1\n        /* \"src/crowdfunding.sol\":2327:2342  participaciones */\n      0x06\n        /* \"src/crowdfunding.sol\":2327:2354  participaciones[msg.sender] */\n      0x00\n        /* \"src/crowdfunding.sol\":2343:2353  msg.sender */\n      caller\n        /* \"src/crowdfunding.sol\":2327:2354  participaciones[msg.sender] */\n      0xffffffffffffffffffffffffffffffffffffffff\n      and\n      0xffffffffffffffffffffffffffffffffffffffff\n      and\n      dup2\n      mstore\n      0x20\n      add\n      swap1\n      dup2\n      mstore\n      0x20\n      add\n      0x00\n      keccak256\n      sload\n        /* \"src/crowdfunding.sol\":2327:2375  participaciones[msg.sender] + newParticipaciones */\n      tag_162\n      swap2\n      swap1\n      tag_163\n      jump\t// in\n    tag_162:\n        /* \"src/crowdfunding.sol\":2296:2311  participaciones */\n      0x06\n        /* \"src/crowdfunding.sol\":2296:2323  participaciones[msg.sender] */\n      0x00\n        /* \"src/crowdfunding.sol\":2312:2322  msg.sender */\n      caller\n        /* \"src/crowdfunding.sol\":2296:2323  participaciones[msg.sender] */\n      0xffffffffffffffffffffffffffffffffffffffff\n      and\n      0xffffffffffffffffffffffffffffffffffffffff\n      and\n      dup2\n      mstore\n      0x20\n      add\n      swap1\n      dup2\n      mstore\n      0x20\n      add\n      0x00\n      keccak256\n        /* \"src/crowdfunding.sol\":2296:2375  participaciones[msg.sender] =  participaciones[msg.sender] + newParticipaciones */\n      dup2\n      swap1\n      sstore\n      pop\n        /* \"src/crowdfunding.sol\":2431:2449  newParticipaciones */\n      dup1\n        /* \"src/crowdfunding.sol\":2409:2429  totalParticipaciones */\n      sload(0x08)\n        /* \"src/crowdfunding.sol\":2409:2449  totalParticipaciones +newParticipaciones */\n      tag_164\n      swap2\n      swap1\n      tag_163\n      jump\t// in\n    tag_164:\n        /* \"src/crowdfunding.sol\":2386:2406  totalParticipaciones */\n      0x08\n        /* \"src/crowdfunding.sol\":2386:2449  totalParticipaciones = totalParticipaciones +newParticipaciones */\n      dup2\n      swap1\n      sstore\n      pop\n        /* \"src/crowdfunding.sol\":1918:2457  {\r... */\n      pop\n        /* \"src/crowdfunding.sol\":1881:2457  function participar() public payable {\r... */\n      jump\t// out\n        /* \"src/crowdfunding.sol\":3789:3972  function test_contractBalance() public view returns (uint256) {\r... */\n    tag_39:\n        /* \"src/crowdfunding.sol\":3842:3849  uint256 */\n      0x00\n        /* \"src/crowdfunding.sol\":3943:3964  address(this).balance */\n      selfbalance\n        /* \"src/crowdfunding.sol\":3936:3964  return address(this).balance */\n      swap1\n      pop\n        /* \"src/crowdfunding.sol\":3789:3972  function test_contractBalance() public view returns (uint256) {\r... */\n      swap1\n      jump\t// out\n        /* \"src/crowdfunding.sol\":196:221  string public campainName */\n    tag_44:\n      0x01\n      dup1\n      sload\n      tag_166\n      swap1\n      tag_167\n      jump\t// in\n    tag_166:\n      dup1\n      0x1f\n      add\n      0x20\n      dup1\n      swap2\n      div\n      mul\n      0x20\n      add\n      mload(0x40)\n      swap1\n      dup2\n      add\n      0x40\n      mstore\n      dup1\n      swap3\n      swap2\n      swap1\n      dup2\n      dup2\n      mstore\n      0x20\n      add\n      dup3\n      dup1\n      sload\n      tag_168\n      swap1\n      tag_167\n      jump\t// in\n    tag_168:\n      dup1\n      iszero\n      tag_169\n      jumpi\n      dup1\n      0x1f\n      lt\n      tag_170\n      jumpi\n      0x0100\n      dup1\n      dup4\n      sload\n      div\n      mul\n      dup4\n      mstore\n      swap2\n      0x20\n      add\n      swap2\n      jump(tag_169)\n    tag_170:\n      dup3\n      add\n      swap2\n      swap1\n      0x00\n      mstore\n      keccak256(0x00, 0x20)\n      swap1\n    tag_171:\n      dup2\n      sload\n      dup2\n      mstore\n      swap1\n      0x01\n      add\n      swap1\n      0x20\n      add\n      dup1\n      dup4\n      gt\n      tag_171\n      jumpi\n      dup3\n      swap1\n      sub\n      0x1f\n      and\n      dup3\n      add\n      swap2\n    tag_169:\n      pop\n      pop\n      pop\n      pop\n      pop\n      dup2\n      jump\t// out\n        /* \"src/crowdfunding.sol\":7431:8263  function resolverPeticion(uint index) public only_manager {\r... */\n    tag_51:\n        /* \"src/crowdfunding.sol\":612:622  msg.sender */\n      caller\n        /* \"src/crowdfunding.sol\":594:622  campainManager == msg.sender */\n      0xffffffffffffffffffffffffffffffffffffffff\n      and\n        /* \"src/crowdfunding.sol\":594:608  campainManager */\n      0x00\n      dup1\n      sload\n      swap1\n      0x0100\n      exp\n      swap1\n      div\n      0xffffffffffffffffffffffffffffffffffffffff\n      and\n        /* \"src/crowdfunding.sol\":594:622  campainManager == msg.sender */\n      0xffffffffffffffffffffffffffffffffffffffff\n      and\n      eq\n        /* \"src/crowdfunding.sol\":586:646  require(campainManager == msg.sender,\"Only Campain manager\") */\n      tag_173\n      jumpi\n      mload(0x40)\n      0x08c379a000000000000000000000000000000000000000000000000000000000\n      dup2\n      mstore\n      0x04\n      add\n      tag_174\n      swap1\n      tag_175\n      jump\t// in\n    tag_174:\n      mload(0x40)\n      dup1\n      swap2\n      sub\n      swap1\n      revert\n    tag_173:\n        /* \"src/crowdfunding.sol\":7517:7539  totalPeticionesDeGasto */\n      sload(0x0a)\n        /* \"src/crowdfunding.sol\":7509:7514  index */\n      dup2\n        /* \"src/crowdfunding.sol\":7509:7539  index < totalPeticionesDeGasto */\n      lt\n        /* \"src/crowdfunding.sol\":7501:7565  require(index < totalPeticionesDeGasto, \"Peticion inexistente\" ) */\n      tag_177\n      jumpi\n      mload(0x40)\n      0x08c379a000000000000000000000000000000000000000000000000000000000\n      dup2\n      mstore\n      0x04\n      add\n      tag_178\n      swap1\n      tag_179\n      jump\t// in\n    tag_178:\n      mload(0x40)\n      dup1\n      swap2\n      sub\n      swap1\n      revert\n    tag_177:\n        /* \"src/crowdfunding.sol\":7620:7642  EstadoPeticion.Abierta */\n      0x00\n        /* \"src/crowdfunding.sol\":7585:7642  peticionesDeGasto[index].estado == EstadoPeticion.Abierta */\n      0x02\n      dup2\n      gt\n      iszero\n      tag_180\n      jumpi\n      tag_181\n      tag_152\n      jump\t// in\n    tag_181:\n    tag_180:\n        /* \"src/crowdfunding.sol\":7585:7602  peticionesDeGasto */\n      0x09\n        /* \"src/crowdfunding.sol\":7585:7609  peticionesDeGasto[index] */\n      0x00\n        /* \"src/crowdfunding.sol\":7603:7608  index */\n      dup4\n        /* \"src/crowdfunding.sol\":7585:7609  peticionesDeGasto[index] */\n      dup2\n      mstore\n      0x20\n      add\n      swap1\n      dup2\n      mstore\n      0x20\n      add\n      0x00\n      keccak256\n        /* \"src/crowdfunding.sol\":7585:7616  peticionesDeGasto[index].estado */\n      0x01\n      add\n      0x00\n      swap1\n      sload\n      swap1\n      0x0100\n      exp\n      swap1\n      div\n      0xff\n      and\n        /* \"src/crowdfunding.sol\":7585:7642  peticionesDeGasto[index].estado == EstadoPeticion.Abierta */\n      0x02\n      dup2\n      gt\n      iszero\n      tag_182\n      jumpi\n      tag_183\n      tag_152\n      jump\t// in\n    tag_183:\n    tag_182:\n      eq\n        /* \"src/crowdfunding.sol\":7577:7672  require(peticionesDeGasto[index].estado == EstadoPeticion.Abierta,\"Peticion debe estar activa\") */\n      tag_184\n      jumpi\n      mload(0x40)\n      0x08c379a000000000000000000000000000000000000000000000000000000000\n      dup2\n      mstore\n      0x04\n      add\n      tag_185\n      swap1\n      tag_186\n      jump\t// in\n    tag_185:\n      mload(0x40)\n      dup1\n      swap2\n      sub\n      swap1\n      revert\n    tag_184:\n        /* \"src/crowdfunding.sol\":7695:7719  PeticionGasto storage pt */\n      0x00\n        /* \"src/crowdfunding.sol\":7722:7739  peticionesDeGasto */\n      0x09\n        /* \"src/crowdfunding.sol\":7722:7746  peticionesDeGasto[index] */\n      0x00\n        /* \"src/crowdfunding.sol\":7740:7745  index */\n      dup4\n        /* \"src/crowdfunding.sol\":7722:7746  peticionesDeGasto[index] */\n      dup2\n      mstore\n      0x20\n      add\n      swap1\n      dup2\n      mstore\n      0x20\n      add\n      0x00\n      keccak256\n        /* \"src/crowdfunding.sol\":7695:7746  PeticionGasto storage pt = peticionesDeGasto[index] */\n      swap1\n      pop\n        /* \"src/crowdfunding.sol\":7758:7773  bool resolucion */\n      0x00\n        /* \"src/crowdfunding.sol\":7853:7854  2 */\n      0x02\n        /* \"src/crowdfunding.sol\":7830:7850  totalParticipaciones */\n      sload(0x08)\n        /* \"src/crowdfunding.sol\":7830:7854  totalParticipaciones / 2 */\n      tag_187\n      swap2\n      swap1\n      tag_161\n      jump\t// in\n    tag_187:\n        /* \"src/crowdfunding.sol\":7808:7810  pt */\n      dup3\n        /* \"src/crowdfunding.sol\":7808:7826  pt.votosRealizados */\n      0x04\n      add\n      sload\n        /* \"src/crowdfunding.sol\":7808:7855  pt.votosRealizados < (totalParticipaciones / 2) */\n      lt\n        /* \"src/crowdfunding.sol\":7808:7904  pt.votosRealizados < (totalParticipaciones / 2) || pt.votosPositivos <= (pt.votosRealizados / 2) */\n      dup1\n      tag_188\n      jumpi\n      pop\n        /* \"src/crowdfunding.sol\":7902:7903  2 */\n      0x02\n        /* \"src/crowdfunding.sol\":7881:7883  pt */\n      dup3\n        /* \"src/crowdfunding.sol\":7881:7899  pt.votosRealizados */\n      0x04\n      add\n      sload\n        /* \"src/crowdfunding.sol\":7881:7903  pt.votosRealizados / 2 */\n      tag_189\n      swap2\n      swap1\n      tag_161\n      jump\t// in\n    tag_189:\n        /* \"src/crowdfunding.sol\":7859:7861  pt */\n      dup3\n        /* \"src/crowdfunding.sol\":7859:7876  pt.votosPositivos */\n      0x05\n      add\n      sload\n        /* \"src/crowdfunding.sol\":7859:7904  pt.votosPositivos <= (pt.votosRealizados / 2) */\n      gt\n      iszero\n        /* \"src/crowdfunding.sol\":7808:7904  pt.votosRealizados < (totalParticipaciones / 2) || pt.votosPositivos <= (pt.votosRealizados / 2) */\n    tag_188:\n        /* \"src/crowdfunding.sol\":7804:8191  if (pt.votosRealizados < (totalParticipaciones / 2) || pt.votosPositivos <= (pt.votosRealizados / 2)) {\r... */\n      iszero\n      tag_190\n      jumpi\n        /* \"src/crowdfunding.sol\":7932:7956  EstadoPeticion.Rechazada */\n      0x02\n        /* \"src/crowdfunding.sol\":7920:7922  pt */\n      dup3\n        /* \"src/crowdfunding.sol\":7920:7929  pt.estado */\n      0x01\n      add\n      0x00\n        /* \"src/crowdfunding.sol\":7920:7956  pt.estado = EstadoPeticion.Rechazada */\n      0x0100\n      exp\n      dup2\n      sload\n      dup2\n      0xff\n      mul\n      not\n      and\n      swap1\n      dup4\n      0x02\n      dup2\n      gt\n      iszero\n      tag_191\n      jumpi\n      tag_192\n      tag_152\n      jump\t// in\n    tag_192:\n    tag_191:\n      mul\n      or\n      swap1\n      sstore\n      pop\n        /* \"src/crowdfunding.sol\":8003:8005  pt */\n      dup2\n        /* \"src/crowdfunding.sol\":8003:8013  pt.importe */\n      0x02\n      add\n      sload\n        /* \"src/crowdfunding.sol\":7970:7999  totalImportePeticionesDeGasto */\n      0x0b\n      0x00\n        /* \"src/crowdfunding.sol\":7970:8013  totalImportePeticionesDeGasto -= pt.importe */\n      dup3\n      dup3\n      sload\n      tag_193\n      swap2\n      swap1\n      tag_194\n      jump\t// in\n    tag_193:\n      swap3\n      pop\n      pop\n      dup2\n      swap1\n      sstore\n      pop\n        /* \"src/crowdfunding.sol\":7804:8191  if (pt.votosRealizados < (totalParticipaciones / 2) || pt.votosPositivos <= (pt.votosRealizados / 2)) {\r... */\n      jump(tag_195)\n    tag_190:\n        /* \"src/crowdfunding.sol\":8068:8091  EstadoPeticion.Aprobada */\n      0x01\n        /* \"src/crowdfunding.sol\":8056:8058  pt */\n      dup3\n        /* \"src/crowdfunding.sol\":8056:8065  pt.estado */\n      0x01\n      add\n      0x00\n        /* \"src/crowdfunding.sol\":8056:8091  pt.estado = EstadoPeticion.Aprobada */\n      0x0100\n      exp\n      dup2\n      sload\n      dup2\n      0xff\n      mul\n      not\n      and\n      swap1\n      dup4\n      0x02\n      dup2\n      gt\n      iszero\n      tag_196\n      jumpi\n      tag_197\n      tag_152\n      jump\t// in\n    tag_197:\n    tag_196:\n      mul\n      or\n      swap1\n      sstore\n      pop\n        /* \"src/crowdfunding.sol\":8118:8122  true */\n      0x01\n        /* \"src/crowdfunding.sol\":8105:8122  resolucion = true */\n      swap1\n      pop\n        /* \"src/crowdfunding.sol\":8136:8138  pt */\n      dup2\n        /* \"src/crowdfunding.sol\":8136:8157  pt.walletDestinatario */\n      0x03\n      add\n      0x00\n      swap1\n      sload\n      swap1\n      0x0100\n      exp\n      swap1\n      div\n      0xffffffffffffffffffffffffffffffffffffffff\n      and\n        /* \"src/crowdfunding.sol\":8136:8166  pt.walletDestinatario.transfer */\n      0xffffffffffffffffffffffffffffffffffffffff\n      and\n        /* \"src/crowdfunding.sol\":8136:8178  pt.walletDestinatario.transfer(pt.importe) */\n      0x08fc\n        /* \"src/crowdfunding.sol\":8167:8169  pt */\n      dup4\n        /* \"src/crowdfunding.sol\":8167:8177  pt.importe */\n      0x02\n      add\n      sload\n        /* \"src/crowdfunding.sol\":8136:8178  pt.walletDestinatario.transfer(pt.importe) */\n      swap1\n      dup2\n      iszero\n      mul\n      swap1\n      mload(0x40)\n      0x00\n      mload(0x40)\n      dup1\n      dup4\n      sub\n      dup2\n      dup6\n      dup9\n      dup9\n      call\n      swap4\n      pop\n      pop\n      pop\n      pop\n      iszero\n      dup1\n      iszero\n      tag_199\n      jumpi\n      returndatasize\n      0x00\n      dup1\n      returndatacopy\n      revert(0x00, returndatasize)\n    tag_199:\n      pop\n        /* \"src/crowdfunding.sol\":7804:8191  if (pt.votosRealizados < (totalParticipaciones / 2) || pt.votosPositivos <= (pt.votosRealizados / 2)) {\r... */\n    tag_195:\n        /* \"src/crowdfunding.sol\":8213:8255  ResolucionPeticionGasto(index, resolucion) */\n      0x5fc028bd51b0ea39833c5afe5ee686d9e6cb94e5f815ae5b2f31e5614e3210a9\n        /* \"src/crowdfunding.sol\":8237:8242  index */\n      dup4\n        /* \"src/crowdfunding.sol\":8244:8254  resolucion */\n      dup3\n        /* \"src/crowdfunding.sol\":8213:8255  ResolucionPeticionGasto(index, resolucion) */\n      mload(0x40)\n      tag_200\n      swap3\n      swap2\n      swap1\n      tag_201\n      jump\t// in\n    tag_200:\n      mload(0x40)\n      dup1\n      swap2\n      sub\n      swap1\n      log1\n        /* \"src/crowdfunding.sol\":7489:8263  {\r... */\n      pop\n      pop\n        /* \"src/crowdfunding.sol\":7431:8263  function resolverPeticion(uint index) public only_manager {\r... */\n      pop\n      jump\t// out\n        /* \"src/crowdfunding.sol\":462:497  uint256 public totalParticipaciones */\n    tag_54:\n      sload(0x08)\n      dup2\n      jump\t// out\n        /* \"src/crowdfunding.sol\":2594:2716  function getUserParticipaciones(address user) public view returns(uint256) {\r... */\n    tag_60:\n        /* \"src/crowdfunding.sol\":2660:2667  uint256 */\n      0x00\n        /* \"src/crowdfunding.sol\":2687:2702  participaciones */\n      0x06\n        /* \"src/crowdfunding.sol\":2687:2708  participaciones[user] */\n      0x00\n        /* \"src/crowdfunding.sol\":2703:2707  user */\n      dup4\n        /* \"src/crowdfunding.sol\":2687:2708  participaciones[user] */\n      0xffffffffffffffffffffffffffffffffffffffff\n      and\n      0xffffffffffffffffffffffffffffffffffffffff\n      and\n      dup2\n      mstore\n      0x20\n      add\n      swap1\n      dup2\n      mstore\n      0x20\n      add\n      0x00\n      keccak256\n      sload\n        /* \"src/crowdfunding.sol\":2680:2708  return participaciones[user] */\n      swap1\n      pop\n        /* \"src/crowdfunding.sol\":2594:2716  function getUserParticipaciones(address user) public view returns(uint256) {\r... */\n      swap2\n      swap1\n      pop\n      jump\t// out\n        /* \"src/crowdfunding.sol\":264:292  Estado public  campainEstado */\n    tag_64:\n      0x03\n      0x00\n      swap1\n      sload\n      swap1\n      0x0100\n      exp\n      swap1\n      div\n      0xff\n      and\n      dup2\n      jump\t// out\n        /* \"src/crowdfunding.sol\":155:192  address payable public campainManager */\n    tag_69:\n      0x00\n      dup1\n      sload\n      swap1\n      0x0100\n      exp\n      swap1\n      div\n      0xffffffffffffffffffffffffffffffffffffffff\n      and\n      dup2\n      jump\t// out\n        /* \"src/crowdfunding.sol\":299:325  uint256 public campainGoal */\n    tag_74:\n      sload(0x04)\n      dup2\n      jump\t// out\n        /* \"src/crowdfunding.sol\":5311:5419  function getNPeticionesDeGasto() public view returns (uint) {\r... */\n    tag_78:\n        /* \"src/crowdfunding.sol\":5365:5369  uint */\n      0x00\n        /* \"src/crowdfunding.sol\":5389:5411  totalPeticionesDeGasto */\n      sload(0x0a)\n        /* \"src/crowdfunding.sol\":5382:5411  return totalPeticionesDeGasto */\n      swap1\n      pop\n        /* \"src/crowdfunding.sol\":5311:5419  function getNPeticionesDeGasto() public view returns (uint) {\r... */\n      swap1\n      jump\t// out\n        /* \"src/crowdfunding.sol\":3392:3776  function withdrawCanceledCampain() public {\r... */\n    tag_82:\n        /* \"src/crowdfunding.sol\":3483:3484  0 */\n      0x00\n        /* \"src/crowdfunding.sol\":3453:3468  participaciones */\n      0x06\n        /* \"src/crowdfunding.sol\":3453:3480  participaciones[msg.sender] */\n      0x00\n        /* \"src/crowdfunding.sol\":3469:3479  msg.sender */\n      caller\n        /* \"src/crowdfunding.sol\":3453:3480  participaciones[msg.sender] */\n      0xffffffffffffffffffffffffffffffffffffffff\n      and\n      0xffffffffffffffffffffffffffffffffffffffff\n      and\n      dup2\n      mstore\n      0x20\n      add\n      swap1\n      dup2\n      mstore\n      0x20\n      add\n      0x00\n      keccak256\n      sload\n        /* \"src/crowdfunding.sol\":3453:3484  participaciones[msg.sender] > 0 */\n      gt\n        /* \"src/crowdfunding.sol\":3445:3505  require(participaciones[msg.sender] > 0, \"fondos retirados\") */\n      tag_205\n      jumpi\n      mload(0x40)\n      0x08c379a000000000000000000000000000000000000000000000000000000000\n      dup2\n      mstore\n      0x04\n      add\n      tag_206\n      swap1\n      tag_207\n      jump\t// in\n    tag_206:\n      mload(0x40)\n      dup1\n      swap2\n      sub\n      swap1\n      revert\n    tag_205:\n        /* \"src/crowdfunding.sol\":3541:3557  Estado.Cancelada */\n      0x01\n        /* \"src/crowdfunding.sol\":3524:3557  campainEstado == Estado.Cancelada */\n      0x02\n      dup2\n      gt\n      iszero\n      tag_208\n      jumpi\n      tag_209\n      tag_152\n      jump\t// in\n    tag_209:\n    tag_208:\n        /* \"src/crowdfunding.sol\":3524:3537  campainEstado */\n      0x03\n      0x00\n      swap1\n      sload\n      swap1\n      0x0100\n      exp\n      swap1\n      div\n      0xff\n      and\n        /* \"src/crowdfunding.sol\":3524:3557  campainEstado == Estado.Cancelada */\n      0x02\n      dup2\n      gt\n      iszero\n      tag_210\n      jumpi\n      tag_211\n      tag_152\n      jump\t// in\n    tag_211:\n    tag_210:\n      eq\n        /* \"src/crowdfunding.sol\":3516:3582  require(campainEstado == Estado.Cancelada,\"Campanya no cancelada\") */\n      tag_212\n      jumpi\n      mload(0x40)\n      0x08c379a000000000000000000000000000000000000000000000000000000000\n      dup2\n      mstore\n      0x04\n      add\n      tag_213\n      swap1\n      tag_214\n      jump\t// in\n    tag_213:\n      mload(0x40)\n      dup1\n      swap2\n      sub\n      swap1\n      revert\n    tag_212:\n        /* \"src/crowdfunding.sol\":3593:3618  uint256 aportacionUsuario */\n      0x00\n        /* \"src/crowdfunding.sol\":3651:3668  participationRate */\n      sload(0x05)\n        /* \"src/crowdfunding.sol\":3621:3636  participaciones */\n      0x06\n        /* \"src/crowdfunding.sol\":3621:3648  participaciones[msg.sender] */\n      0x00\n        /* \"src/crowdfunding.sol\":3637:3647  msg.sender */\n      caller\n        /* \"src/crowdfunding.sol\":3621:3648  participaciones[msg.sender] */\n      0xffffffffffffffffffffffffffffffffffffffff\n      and\n      0xffffffffffffffffffffffffffffffffffffffff\n      and\n      dup2\n      mstore\n      0x20\n      add\n      swap1\n      dup2\n      mstore\n      0x20\n      add\n      0x00\n      keccak256\n      sload\n        /* \"src/crowdfunding.sol\":3621:3668  participaciones[msg.sender] * participationRate */\n      tag_215\n      swap2\n      swap1\n      tag_216\n      jump\t// in\n    tag_215:\n        /* \"src/crowdfunding.sol\":3593:3668  uint256 aportacionUsuario = participaciones[msg.sender] * participationRate */\n      swap1\n      pop\n        /* \"src/crowdfunding.sol\":3709:3710  0 */\n      0x00\n        /* \"src/crowdfunding.sol\":3679:3694  participaciones */\n      0x06\n        /* \"src/crowdfunding.sol\":3679:3706  participaciones[msg.sender] */\n      0x00\n        /* \"src/crowdfunding.sol\":3695:3705  msg.sender */\n      caller\n        /* \"src/crowdfunding.sol\":3679:3706  participaciones[msg.sender] */\n      0xffffffffffffffffffffffffffffffffffffffff\n      and\n      0xffffffffffffffffffffffffffffffffffffffff\n      and\n      dup2\n      mstore\n      0x20\n      add\n      swap1\n      dup2\n      mstore\n      0x20\n      add\n      0x00\n      keccak256\n        /* \"src/crowdfunding.sol\":3679:3710  participaciones[msg.sender] = 0 */\n      dup2\n      swap1\n      sstore\n      pop\n        /* \"src/crowdfunding.sol\":3729:3739  msg.sender */\n      caller\n        /* \"src/crowdfunding.sol\":3721:3749  payable(msg.sender).transfer */\n      0xffffffffffffffffffffffffffffffffffffffff\n      and\n        /* \"src/crowdfunding.sol\":3721:3768  payable(msg.sender).transfer(aportacionUsuario) */\n      0x08fc\n        /* \"src/crowdfunding.sol\":3750:3767  aportacionUsuario */\n      dup3\n        /* \"src/crowdfunding.sol\":3721:3768  payable(msg.sender).transfer(aportacionUsuario) */\n      swap1\n      dup2\n      iszero\n      mul\n      swap1\n      mload(0x40)\n      0x00\n      mload(0x40)\n      dup1\n      dup4\n      sub\n      dup2\n      dup6\n      dup9\n      dup9\n      call\n      swap4\n      pop\n      pop\n      pop\n      pop\n      iszero\n      dup1\n      iszero\n      tag_218\n      jumpi\n      returndatasize\n      0x00\n      dup1\n      returndatacopy\n      revert(0x00, returndatasize)\n    tag_218:\n      pop\n        /* \"src/crowdfunding.sol\":3434:3776  {\r... */\n      pop\n        /* \"src/crowdfunding.sol\":3392:3776  function withdrawCanceledCampain() public {\r... */\n      jump\t// out\n        /* \"src/crowdfunding.sol\":1071:1127  mapping (uint => PeticionGasto) public peticionesDeGasto */\n    tag_86:\n      mstore(0x20, 0x09)\n      dup1\n      0x00\n      mstore\n      keccak256(0x00, 0x40)\n      0x00\n      swap2\n      pop\n      swap1\n      pop\n      dup1\n      0x00\n      add\n      dup1\n      sload\n      tag_219\n      swap1\n      tag_167\n      jump\t// in\n    tag_219:\n      dup1\n      0x1f\n      add\n      0x20\n      dup1\n      swap2\n      div\n      mul\n      0x20\n      add\n      mload(0x40)\n      swap1\n      dup2\n      add\n      0x40\n      mstore\n      dup1\n      swap3\n      swap2\n      swap1\n      dup2\n      dup2\n      mstore\n      0x20\n      add\n      dup3\n      dup1\n      sload\n      tag_220\n      swap1\n      tag_167\n      jump\t// in\n    tag_220:\n      dup1\n      iszero\n      tag_221\n      jumpi\n      dup1\n      0x1f\n      lt\n      tag_222\n      jumpi\n      0x0100\n      dup1\n      dup4\n      sload\n      div\n      mul\n      dup4\n      mstore\n      swap2\n      0x20\n      add\n      swap2\n      jump(tag_221)\n    tag_222:\n      dup3\n      add\n      swap2\n      swap1\n      0x00\n      mstore\n      keccak256(0x00, 0x20)\n      swap1\n    tag_223:\n      dup2\n      sload\n      dup2\n      mstore\n      swap1\n      0x01\n      add\n      swap1\n      0x20\n      add\n      dup1\n      dup4\n      gt\n      tag_223\n      jumpi\n      dup3\n      swap1\n      sub\n      0x1f\n      and\n      dup3\n      add\n      swap2\n    tag_221:\n      pop\n      pop\n      pop\n      pop\n      pop\n      swap1\n      dup1\n      0x01\n      add\n      0x00\n      swap1\n      sload\n      swap1\n      0x0100\n      exp\n      swap1\n      div\n      0xff\n      and\n      swap1\n      dup1\n      0x02\n      add\n      sload\n      swap1\n      dup1\n      0x03\n      add\n      0x00\n      swap1\n      sload\n      swap1\n      0x0100\n      exp\n      swap1\n      div\n      0xffffffffffffffffffffffffffffffffffffffff\n      and\n      swap1\n      dup1\n      0x04\n      add\n      sload\n      swap1\n      dup1\n      0x05\n      add\n      sload\n      swap1\n      pop\n      dup7\n      jump\t// out\n        /* \"src/crowdfunding.sol\":2947:3379  function finalizarCampain() public  {\r... */\n    tag_91:\n        /* \"src/crowdfunding.sol\":3019:3033  Estado.Abierta */\n      0x00\n        /* \"src/crowdfunding.sol\":3002:3033  campainEstado == Estado.Abierta */\n      0x02\n      dup2\n      gt\n      iszero\n      tag_225\n      jumpi\n      tag_226\n      tag_152\n      jump\t// in\n    tag_226:\n    tag_225:\n        /* \"src/crowdfunding.sol\":3002:3015  campainEstado */\n      0x03\n      0x00\n      swap1\n      sload\n      swap1\n      0x0100\n      exp\n      swap1\n      div\n      0xff\n      and\n        /* \"src/crowdfunding.sol\":3002:3033  campainEstado == Estado.Abierta */\n      0x02\n      dup2\n      gt\n      iszero\n      tag_227\n      jumpi\n      tag_228\n      tag_152\n      jump\t// in\n    tag_228:\n    tag_227:\n      eq\n        /* \"src/crowdfunding.sol\":2994:3056  require(campainEstado == Estado.Abierta,\"Campanya no abierta\") */\n      tag_229\n      jumpi\n      mload(0x40)\n      0x08c379a000000000000000000000000000000000000000000000000000000000\n      dup2\n      mstore\n      0x04\n      add\n      tag_230\n      swap1\n      tag_231\n      jump\t// in\n    tag_230:\n      mload(0x40)\n      dup1\n      swap2\n      sub\n      swap1\n      revert\n    tag_229:\n        /* \"src/crowdfunding.sol\":3084:3098  campainManager */\n      0x00\n      dup1\n      sload\n      swap1\n      0x0100\n      exp\n      swap1\n      div\n      0xffffffffffffffffffffffffffffffffffffffff\n      and\n        /* \"src/crowdfunding.sol\":3070:3098  msg.sender != campainManager */\n      0xffffffffffffffffffffffffffffffffffffffff\n      and\n        /* \"src/crowdfunding.sol\":3070:3080  msg.sender */\n      caller\n        /* \"src/crowdfunding.sol\":3070:3098  msg.sender != campainManager */\n      0xffffffffffffffffffffffffffffffffffffffff\n      and\n      eq\n        /* \"src/crowdfunding.sol\":3067:3199  if(msg.sender != campainManager) {\r... */\n      tag_232\n      jumpi\n        /* \"src/crowdfunding.sol\":3143:3159  CAMPANIN_DUEDATE */\n      immutable(\"0x7749cc8014201da2069c21d93ba99c584b6f62d393fde534ed47eac227e31561\")\n        /* \"src/crowdfunding.sol\":3123:3138  block.timestamp */\n      timestamp\n        /* \"src/crowdfunding.sol\":3123:3159  block.timestamp >=  CAMPANIN_DUEDATE */\n      lt\n      iszero\n        /* \"src/crowdfunding.sol\":3115:3187  require(block.timestamp >=  CAMPANIN_DUEDATE, \"Campain is not over yet\") */\n      tag_233\n      jumpi\n      mload(0x40)\n      0x08c379a000000000000000000000000000000000000000000000000000000000\n      dup2\n      mstore\n      0x04\n      add\n      tag_234\n      swap1\n      tag_235\n      jump\t// in\n    tag_234:\n      mload(0x40)\n      dup1\n      swap2\n      sub\n      swap1\n      revert\n    tag_233:\n        /* \"src/crowdfunding.sol\":3067:3199  if(msg.sender != campainManager) {\r... */\n    tag_232:\n        /* \"src/crowdfunding.sol\":3229:3250  address(this).balance */\n      selfbalance\n        /* \"src/crowdfunding.sol\":3214:3225  campainGoal */\n      sload(0x04)\n        /* \"src/crowdfunding.sol\":3214:3250  campainGoal <= address(this).balance */\n      gt\n        /* \"src/crowdfunding.sol\":3211:3372  if(campainGoal <= address(this).balance) {\r... */\n      tag_236\n      jumpi\n        /* \"src/crowdfunding.sol\":3283:3296  Estado.Activa */\n      0x02\n        /* \"src/crowdfunding.sol\":3267:3280  campainEstado */\n      0x03\n      0x00\n        /* \"src/crowdfunding.sol\":3267:3296  campainEstado = Estado.Activa */\n      0x0100\n      exp\n      dup2\n      sload\n      dup2\n      0xff\n      mul\n      not\n      and\n      swap1\n      dup4\n      0x02\n      dup2\n      gt\n      iszero\n      tag_237\n      jumpi\n      tag_238\n      tag_152\n      jump\t// in\n    tag_238:\n    tag_237:\n      mul\n      or\n      swap1\n      sstore\n      pop\n        /* \"src/crowdfunding.sol\":3211:3372  if(campainGoal <= address(this).balance) {\r... */\n      jump(tag_239)\n    tag_236:\n        /* \"src/crowdfunding.sol\":3344:3360  Estado.Cancelada */\n      0x01\n        /* \"src/crowdfunding.sol\":3328:3341  campainEstado */\n      0x03\n      0x00\n        /* \"src/crowdfunding.sol\":3328:3360  campainEstado = Estado.Cancelada */\n      0x0100\n      exp\n      dup2\n      sload\n      dup2\n      0xff\n      mul\n      not\n      and\n      swap1\n      dup4\n      0x02\n      dup2\n      gt\n      iszero\n      tag_240\n      jumpi\n      tag_241\n      tag_152\n      jump\t// in\n    tag_241:\n    tag_240:\n      mul\n      or\n      swap1\n      sstore\n      pop\n        /* \"src/crowdfunding.sol\":3211:3372  if(campainGoal <= address(this).balance) {\r... */\n    tag_239:\n        /* \"src/crowdfunding.sol\":2947:3379  function finalizarCampain() public  {\r... */\n      jump\t// out\n        /* \"src/crowdfunding.sol\":425:455  address[] public participantes */\n    tag_95:\n      0x07\n      dup2\n      dup2\n      sload\n      dup2\n      lt\n      tag_242\n      jumpi\n      0x00\n      dup1\n      revert\n    tag_242:\n      swap1\n      0x00\n      mstore\n      keccak256(0x00, 0x20)\n      add\n      0x00\n      swap2\n      pop\n      sload\n      swap1\n      0x0100\n      exp\n      swap1\n      div\n      0xffffffffffffffffffffffffffffffffffffffff\n      and\n      dup2\n      jump\t// out\n        /* \"src/crowdfunding.sol\":368:418  mapping(address => uint256) public participaciones */\n    tag_101:\n      mstore(0x20, 0x06)\n      dup1\n      0x00\n      mstore\n      keccak256(0x00, 0x40)\n      0x00\n      swap2\n      pop\n      swap1\n      pop\n      sload\n      dup2\n      jump\t// out\n        /* \"src/crowdfunding.sol\":2836:2941  function getParticipantes() public view returns(address[] memory) {\r... */\n    tag_105:\n        /* \"src/crowdfunding.sol\":2884:2900  address[] memory */\n      0x60\n        /* \"src/crowdfunding.sol\":2920:2933  participantes */\n      0x07\n        /* \"src/crowdfunding.sol\":2913:2933  return participantes */\n      dup1\n      sload\n      dup1\n      0x20\n      mul\n      0x20\n      add\n      mload(0x40)\n      swap1\n      dup2\n      add\n      0x40\n      mstore\n      dup1\n      swap3\n      swap2\n      swap1\n      dup2\n      dup2\n      mstore\n      0x20\n      add\n      dup3\n      dup1\n      sload\n      dup1\n      iszero\n      tag_245\n      jumpi\n      0x20\n      mul\n      dup3\n      add\n      swap2\n      swap1\n      0x00\n      mstore\n      keccak256(0x00, 0x20)\n      swap1\n    tag_246:\n      dup2\n      0x00\n      swap1\n      sload\n      swap1\n      0x0100\n      exp\n      swap1\n      div\n      0xffffffffffffffffffffffffffffffffffffffff\n      and\n      0xffffffffffffffffffffffffffffffffffffffff\n      and\n      dup2\n      mstore\n      0x20\n      add\n      swap1\n      0x01\n      add\n      swap1\n      dup1\n      dup4\n      gt\n      tag_246\n      jumpi\n    tag_245:\n      pop\n      pop\n      pop\n      pop\n      pop\n      swap1\n      pop\n        /* \"src/crowdfunding.sol\":2836:2941  function getParticipantes() public view returns(address[] memory) {\r... */\n      swap1\n      jump\t// out\n        /* \"src/crowdfunding.sol\":6222:6651  function getDetailPeticionGastobyId(uint index) public  view returns(string memory,uint, bool){\r... */\n    tag_111:\n        /* \"src/crowdfunding.sol\":6291:6304  string memory */\n      0x60\n        /* \"src/crowdfunding.sol\":6305:6309  uint */\n      0x00\n        /* \"src/crowdfunding.sol\":6311:6315  bool */\n      dup1\n        /* \"src/crowdfunding.sol\":6343:6365  totalPeticionesDeGasto */\n      sload(0x0a)\n        /* \"src/crowdfunding.sol\":6335:6340  index */\n      dup5\n        /* \"src/crowdfunding.sol\":6335:6365  index < totalPeticionesDeGasto */\n      lt\n        /* \"src/crowdfunding.sol\":6327:6392  require(index < totalPeticionesDeGasto, \"peticion inexistentre\" ) */\n      tag_248\n      jumpi\n      mload(0x40)\n      0x08c379a000000000000000000000000000000000000000000000000000000000\n      dup2\n      mstore\n      0x04\n      add\n      tag_249\n      swap1\n      tag_250\n      jump\t// in\n    tag_249:\n      mload(0x40)\n      dup1\n      swap2\n      sub\n      swap1\n      revert\n    tag_248:\n        /* \"src/crowdfunding.sol\":6403:6416  bool aprobada */\n      0x00\n        /* \"src/crowdfunding.sol\":6475:6498  EstadoPeticion.Aprobada */\n      0x01\n        /* \"src/crowdfunding.sol\":6440:6498  peticionesDeGasto[index].estado == EstadoPeticion.Aprobada */\n      0x02\n      dup2\n      gt\n      iszero\n      tag_251\n      jumpi\n      tag_252\n      tag_152\n      jump\t// in\n    tag_252:\n    tag_251:\n        /* \"src/crowdfunding.sol\":6440:6457  peticionesDeGasto */\n      0x09\n        /* \"src/crowdfunding.sol\":6440:6464  peticionesDeGasto[index] */\n      0x00\n        /* \"src/crowdfunding.sol\":6458:6463  index */\n      dup8\n        /* \"src/crowdfunding.sol\":6440:6464  peticionesDeGasto[index] */\n      dup2\n      mstore\n      0x20\n      add\n      swap1\n      dup2\n      mstore\n      0x20\n      add\n      0x00\n      keccak256\n        /* \"src/crowdfunding.sol\":6440:6471  peticionesDeGasto[index].estado */\n      0x01\n      add\n      0x00\n      swap1\n      sload\n      swap1\n      0x0100\n      exp\n      swap1\n      div\n      0xff\n      and\n        /* \"src/crowdfunding.sol\":6440:6498  peticionesDeGasto[index].estado == EstadoPeticion.Aprobada */\n      0x02\n      dup2\n      gt\n      iszero\n      tag_253\n      jumpi\n      tag_254\n      tag_152\n      jump\t// in\n    tag_254:\n    tag_253:\n      eq\n        /* \"src/crowdfunding.sol\":6437:6519  if(peticionesDeGasto[index].estado == EstadoPeticion.Aprobada) {aprobada = true; } */\n      iszero\n      tag_255\n      jumpi\n        /* \"src/crowdfunding.sol\":6512:6516  true */\n      0x01\n        /* \"src/crowdfunding.sol\":6501:6516  aprobada = true */\n      swap1\n      pop\n        /* \"src/crowdfunding.sol\":6437:6519  if(peticionesDeGasto[index].estado == EstadoPeticion.Aprobada) {aprobada = true; } */\n    tag_255:\n        /* \"src/crowdfunding.sol\":6531:6555  PeticionGasto storage pt */\n      0x00\n        /* \"src/crowdfunding.sol\":6558:6575  peticionesDeGasto */\n      0x09\n        /* \"src/crowdfunding.sol\":6558:6582  peticionesDeGasto[index] */\n      0x00\n        /* \"src/crowdfunding.sol\":6576:6581  index */\n      dup8\n        /* \"src/crowdfunding.sol\":6558:6582  peticionesDeGasto[index] */\n      dup2\n      mstore\n      0x20\n      add\n      swap1\n      dup2\n      mstore\n      0x20\n      add\n      0x00\n      keccak256\n        /* \"src/crowdfunding.sol\":6531:6582  PeticionGasto storage pt = peticionesDeGasto[index] */\n      swap1\n      pop\n        /* \"src/crowdfunding.sol\":6603:6605  pt */\n      dup1\n        /* \"src/crowdfunding.sol\":6603:6621  pt.detallePeticion */\n      0x00\n      add\n        /* \"src/crowdfunding.sol\":6622:6624  pt */\n      dup2\n        /* \"src/crowdfunding.sol\":6622:6632  pt.importe */\n      0x02\n      add\n      sload\n        /* \"src/crowdfunding.sol\":6633:6641  aprobada */\n      dup4\n        /* \"src/crowdfunding.sol\":6595:6643  return (pt.detallePeticion,pt.importe,aprobada ) */\n      dup3\n      dup1\n      sload\n      tag_256\n      swap1\n      tag_167\n      jump\t// in\n    tag_256:\n      dup1\n      0x1f\n      add\n      0x20\n      dup1\n      swap2\n      div\n      mul\n      0x20\n      add\n      mload(0x40)\n      swap1\n      dup2\n      add\n      0x40\n      mstore\n      dup1\n      swap3\n      swap2\n      swap1\n      dup2\n      dup2\n      mstore\n      0x20\n      add\n      dup3\n      dup1\n      sload\n      tag_257\n      swap1\n      tag_167\n      jump\t// in\n    tag_257:\n      dup1\n      iszero\n      tag_258\n      jumpi\n      dup1\n      0x1f\n      lt\n      tag_259\n      jumpi\n      0x0100\n      dup1\n      dup4\n      sload\n      div\n      mul\n      dup4\n      mstore\n      swap2\n      0x20\n      add\n      swap2\n      jump(tag_258)\n    tag_259:\n      dup3\n      add\n      swap2\n      swap1\n      0x00\n      mstore\n      keccak256(0x00, 0x20)\n      swap1\n    tag_260:\n      dup2\n      sload\n      dup2\n      mstore\n      swap1\n      0x01\n      add\n      swap1\n      0x20\n      add\n      dup1\n      dup4\n      gt\n      tag_260\n      jumpi\n      dup3\n      swap1\n      sub\n      0x1f\n      and\n      dup3\n      add\n      swap2\n    tag_258:\n      pop\n      pop\n      pop\n      pop\n      pop\n      swap3\n      pop\n      swap5\n      pop\n      swap5\n      pop\n      swap5\n      pop\n      pop\n      pop\n        /* \"src/crowdfunding.sol\":6222:6651  function getDetailPeticionGastobyId(uint index) public  view returns(string memory,uint, bool){\r... */\n      swap2\n      swap4\n      swap1\n      swap3\n      pop\n      jump\t// out\n        /* \"src/crowdfunding.sol\":329:361  uint256 public participationRate */\n    tag_117:\n      sload(0x05)\n      dup2\n      jump\t// out\n        /* \"src/crowdfunding.sol\":2722:2830  function getTotalParticipantes() public view returns(uint256) {\r... */\n    tag_121:\n        /* \"src/crowdfunding.sol\":2775:2782  uint256 */\n      0x00\n        /* \"src/crowdfunding.sol\":2802:2815  participantes */\n      0x07\n        /* \"src/crowdfunding.sol\":2802:2822  participantes.length */\n      dup1\n      sload\n      swap1\n      pop\n        /* \"src/crowdfunding.sol\":2795:2822  return participantes.length */\n      swap1\n      pop\n        /* \"src/crowdfunding.sol\":2722:2830  function getTotalParticipantes() public view returns(uint256) {\r... */\n      swap1\n      jump\t// out\n        /* \"src/crowdfunding.sol\":225:257  string public campainDescription */\n    tag_125:\n      0x02\n      dup1\n      sload\n      tag_262\n      swap1\n      tag_167\n      jump\t// in\n    tag_262:\n      dup1\n      0x1f\n      add\n      0x20\n      dup1\n      swap2\n      div\n      mul\n      0x20\n      add\n      mload(0x40)\n      swap1\n      dup2\n      add\n      0x40\n      mstore\n      dup1\n      swap3\n      swap2\n      swap1\n      dup2\n      dup2\n      mstore\n      0x20\n      add\n      dup3\n      dup1\n      sload\n      tag_263\n      swap1\n      tag_167\n      jump\t// in\n    tag_263:\n      dup1\n      iszero\n      tag_264\n      jumpi\n      dup1\n      0x1f\n      lt\n      tag_265\n      jumpi\n      0x0100\n      dup1\n      dup4\n      sload\n      div\n      mul\n      dup4\n      mstore\n      swap2\n      0x20\n      add\n      swap2\n      jump(tag_264)\n    tag_265:\n      dup3\n      add\n      swap2\n      swap1\n      0x00\n      mstore\n      keccak256(0x00, 0x20)\n      swap1\n    tag_266:\n      dup2\n      sload\n      dup2\n      mstore\n      swap1\n      0x01\n      add\n      swap1\n      0x20\n      add\n      dup1\n      dup4\n      gt\n      tag_266\n      jumpi\n      dup3\n      swap1\n      sub\n      0x1f\n      and\n      dup3\n      add\n      swap2\n    tag_264:\n      pop\n      pop\n      pop\n      pop\n      pop\n      dup2\n      jump\t// out\n        /* \"src/crowdfunding.sol\":5425:6216  function getPeticionesGastoAbiertas() public view returns(uint[] memory) {\r... */\n    tag_129:\n        /* \"src/crowdfunding.sol\":5483:5496  uint[] memory */\n      0x60\n        /* \"src/crowdfunding.sol\":5509:5549  uint[] memory peticionesGastoAbiertasAux */\n      0x00\n        /* \"src/crowdfunding.sol\":5563:5585  totalPeticionesDeGasto */\n      sload(0x0a)\n        /* \"src/crowdfunding.sol\":5552:5586  new uint[](totalPeticionesDeGasto) */\n      0xffffffffffffffff\n      dup2\n      gt\n      iszero\n      tag_268\n      jumpi\n      tag_269\n      tag_270\n      jump\t// in\n    tag_269:\n    tag_268:\n      mload(0x40)\n      swap1\n      dup1\n      dup3\n      mstore\n      dup1\n      0x20\n      mul\n      0x20\n      add\n      dup3\n      add\n      0x40\n      mstore\n      dup1\n      iszero\n      tag_271\n      jumpi\n      dup2\n      0x20\n      add\n      0x20\n      dup3\n      mul\n      dup1\n      calldatasize\n      dup4\n      calldatacopy\n      dup1\n      dup3\n      add\n      swap2\n      pop\n      pop\n      swap1\n      pop\n    tag_271:\n      pop\n        /* \"src/crowdfunding.sol\":5509:5586  uint[] memory peticionesGastoAbiertasAux = new uint[](totalPeticionesDeGasto) */\n      swap1\n      pop\n        /* \"src/crowdfunding.sol\":5597:5610  uint cantidad */\n      0x00\n        /* \"src/crowdfunding.sol\":5631:5637  uint i */\n      dup1\n        /* \"src/crowdfunding.sol\":5627:5863  for(uint i = 0; i < totalPeticionesDeGasto; i++){\r... */\n    tag_272:\n        /* \"src/crowdfunding.sol\":5647:5669  totalPeticionesDeGasto */\n      sload(0x0a)\n        /* \"src/crowdfunding.sol\":5643:5644  i */\n      dup2\n        /* \"src/crowdfunding.sol\":5643:5669  i < totalPeticionesDeGasto */\n      lt\n        /* \"src/crowdfunding.sol\":5627:5863  for(uint i = 0; i < totalPeticionesDeGasto; i++){\r... */\n      iszero\n      tag_273\n      jumpi\n        /* \"src/crowdfunding.sol\":5724:5746  EstadoPeticion.Abierta */\n      0x00\n        /* \"src/crowdfunding.sol\":5693:5746  peticionesDeGasto[i].estado == EstadoPeticion.Abierta */\n      0x02\n      dup2\n      gt\n      iszero\n      tag_275\n      jumpi\n      tag_276\n      tag_152\n      jump\t// in\n    tag_276:\n    tag_275:\n        /* \"src/crowdfunding.sol\":5693:5710  peticionesDeGasto */\n      0x09\n        /* \"src/crowdfunding.sol\":5693:5713  peticionesDeGasto[i] */\n      0x00\n        /* \"src/crowdfunding.sol\":5711:5712  i */\n      dup4\n        /* \"src/crowdfunding.sol\":5693:5713  peticionesDeGasto[i] */\n      dup2\n      mstore\n      0x20\n      add\n      swap1\n      dup2\n      mstore\n      0x20\n      add\n      0x00\n      keccak256\n        /* \"src/crowdfunding.sol\":5693:5720  peticionesDeGasto[i].estado */\n      0x01\n      add\n      0x00\n      swap1\n      sload\n      swap1\n      0x0100\n      exp\n      swap1\n      div\n      0xff\n      and\n        /* \"src/crowdfunding.sol\":5693:5746  peticionesDeGasto[i].estado == EstadoPeticion.Abierta */\n      0x02\n      dup2\n      gt\n      iszero\n      tag_277\n      jumpi\n      tag_278\n      tag_152\n      jump\t// in\n    tag_278:\n    tag_277:\n      eq\n        /* \"src/crowdfunding.sol\":5690:5852  if(peticionesDeGasto[i].estado == EstadoPeticion.Abierta) {\r... */\n      iszero\n      tag_279\n      jumpi\n        /* \"src/crowdfunding.sol\":5806:5807  i */\n      dup1\n        /* \"src/crowdfunding.sol\":5767:5793  peticionesGastoAbiertasAux */\n      dup4\n        /* \"src/crowdfunding.sol\":5794:5802  cantidad */\n      dup4\n        /* \"src/crowdfunding.sol\":5767:5803  peticionesGastoAbiertasAux[cantidad] */\n      dup2\n      mload\n      dup2\n      lt\n      tag_280\n      jumpi\n      tag_281\n      tag_282\n      jump\t// in\n    tag_281:\n    tag_280:\n      0x20\n      mul\n      0x20\n      add\n      add\n        /* \"src/crowdfunding.sol\":5767:5807  peticionesGastoAbiertasAux[cantidad] = i */\n      dup2\n      dup2\n      mstore\n      pop\n      pop\n        /* \"src/crowdfunding.sol\":5826:5836  cantidad++ */\n      dup2\n      dup1\n      tag_283\n      swap1\n      tag_284\n      jump\t// in\n    tag_283:\n      swap3\n      pop\n      pop\n        /* \"src/crowdfunding.sol\":5690:5852  if(peticionesDeGasto[i].estado == EstadoPeticion.Abierta) {\r... */\n    tag_279:\n        /* \"src/crowdfunding.sol\":5671:5674  i++ */\n      dup1\n      dup1\n      tag_285\n      swap1\n      tag_284\n      jump\t// in\n    tag_285:\n      swap2\n      pop\n      pop\n        /* \"src/crowdfunding.sol\":5627:5863  for(uint i = 0; i < totalPeticionesDeGasto; i++){\r... */\n      jump(tag_272)\n    tag_273:\n      pop\n        /* \"src/crowdfunding.sol\":5975:6012  uint[] memory peticionesGastoAbiertas */\n      0x00\n        /* \"src/crowdfunding.sol\":6027:6035  cantidad */\n      dup2\n        /* \"src/crowdfunding.sol\":6016:6036  new uint[](cantidad) */\n      0xffffffffffffffff\n      dup2\n      gt\n      iszero\n      tag_286\n      jumpi\n      tag_287\n      tag_270\n      jump\t// in\n    tag_287:\n    tag_286:\n      mload(0x40)\n      swap1\n      dup1\n      dup3\n      mstore\n      dup1\n      0x20\n      mul\n      0x20\n      add\n      dup3\n      add\n      0x40\n      mstore\n      dup1\n      iszero\n      tag_288\n      jumpi\n      dup2\n      0x20\n      add\n      0x20\n      dup3\n      mul\n      dup1\n      calldatasize\n      dup4\n      calldatacopy\n      dup1\n      dup3\n      add\n      swap2\n      pop\n      pop\n      swap1\n      pop\n    tag_288:\n      pop\n        /* \"src/crowdfunding.sol\":5975:6036  uint[] memory peticionesGastoAbiertas  = new uint[](cantidad) */\n      swap1\n      pop\n        /* \"src/crowdfunding.sol\":6051:6057  uint i */\n      0x00\n        /* \"src/crowdfunding.sol\":6047:6166  for(uint i = 0; i < cantidad; i++){\r... */\n    tag_289:\n        /* \"src/crowdfunding.sol\":6067:6075  cantidad */\n      dup3\n        /* \"src/crowdfunding.sol\":6063:6064  i */\n      dup2\n        /* \"src/crowdfunding.sol\":6063:6075  i < cantidad */\n      lt\n        /* \"src/crowdfunding.sol\":6047:6166  for(uint i = 0; i < cantidad; i++){\r... */\n      iszero\n      tag_290\n      jumpi\n        /* \"src/crowdfunding.sol\":6125:6151  peticionesGastoAbiertasAux */\n      dup4\n        /* \"src/crowdfunding.sol\":6152:6153  i */\n      dup2\n        /* \"src/crowdfunding.sol\":6125:6154  peticionesGastoAbiertasAux[i] */\n      dup2\n      mload\n      dup2\n      lt\n      tag_292\n      jumpi\n      tag_293\n      tag_282\n      jump\t// in\n    tag_293:\n    tag_292:\n      0x20\n      mul\n      0x20\n      add\n      add\n      mload\n        /* \"src/crowdfunding.sol\":6096:6119  peticionesGastoAbiertas */\n      dup3\n        /* \"src/crowdfunding.sol\":6120:6121  i */\n      dup3\n        /* \"src/crowdfunding.sol\":6096:6122  peticionesGastoAbiertas[i] */\n      dup2\n      mload\n      dup2\n      lt\n      tag_294\n      jumpi\n      tag_295\n      tag_282\n      jump\t// in\n    tag_295:\n    tag_294:\n      0x20\n      mul\n      0x20\n      add\n      add\n        /* \"src/crowdfunding.sol\":6096:6154  peticionesGastoAbiertas[i] = peticionesGastoAbiertasAux[i] */\n      dup2\n      dup2\n      mstore\n      pop\n      pop\n        /* \"src/crowdfunding.sol\":6077:6080  i++ */\n      dup1\n      dup1\n      tag_296\n      swap1\n      tag_284\n      jump\t// in\n    tag_296:\n      swap2\n      pop\n      pop\n        /* \"src/crowdfunding.sol\":6047:6166  for(uint i = 0; i < cantidad; i++){\r... */\n      jump(tag_289)\n    tag_290:\n      pop\n        /* \"src/crowdfunding.sol\":6185:6208  peticionesGastoAbiertas */\n      dup1\n        /* \"src/crowdfunding.sol\":6178:6208  return peticionesGastoAbiertas */\n      swap4\n      pop\n      pop\n      pop\n      pop\n        /* \"src/crowdfunding.sol\":5425:6216  function getPeticionesGastoAbiertas() public view returns(uint[] memory) {\r... */\n      swap1\n      jump\t// out\n        /* \"src/crowdfunding.sol\":6661:7423  function votarPeticionGasto(uint index, bool aprobar) public {\r... */\n    tag_136:\n        /* \"src/crowdfunding.sol\":6750:6772  totalPeticionesDeGasto */\n      sload(0x0a)\n        /* \"src/crowdfunding.sol\":6742:6747  index */\n      dup3\n        /* \"src/crowdfunding.sol\":6742:6772  index < totalPeticionesDeGasto */\n      lt\n        /* \"src/crowdfunding.sol\":6734:6798  require(index < totalPeticionesDeGasto, \"Peticion inexistente\" ) */\n      tag_298\n      jumpi\n      mload(0x40)\n      0x08c379a000000000000000000000000000000000000000000000000000000000\n      dup2\n      mstore\n      0x04\n      add\n      tag_299\n      swap1\n      tag_179\n      jump\t// in\n    tag_299:\n      mload(0x40)\n      dup1\n      swap2\n      sub\n      swap1\n      revert\n    tag_298:\n        /* \"src/crowdfunding.sol\":6853:6875  EstadoPeticion.Abierta */\n      0x00\n        /* \"src/crowdfunding.sol\":6818:6875  peticionesDeGasto[index].estado == EstadoPeticion.Abierta */\n      0x02\n      dup2\n      gt\n      iszero\n      tag_300\n      jumpi\n      tag_301\n      tag_152\n      jump\t// in\n    tag_301:\n    tag_300:\n        /* \"src/crowdfunding.sol\":6818:6835  peticionesDeGasto */\n      0x09\n        /* \"src/crowdfunding.sol\":6818:6842  peticionesDeGasto[index] */\n      0x00\n        /* \"src/crowdfunding.sol\":6836:6841  index */\n      dup5\n        /* \"src/crowdfunding.sol\":6818:6842  peticionesDeGasto[index] */\n      dup2\n      mstore\n      0x20\n      add\n      swap1\n      dup2\n      mstore\n      0x20\n      add\n      0x00\n      keccak256\n        /* \"src/crowdfunding.sol\":6818:6849  peticionesDeGasto[index].estado */\n      0x01\n      add\n      0x00\n      swap1\n      sload\n      swap1\n      0x0100\n      exp\n      swap1\n      div\n      0xff\n      and\n        /* \"src/crowdfunding.sol\":6818:6875  peticionesDeGasto[index].estado == EstadoPeticion.Abierta */\n      0x02\n      dup2\n      gt\n      iszero\n      tag_302\n      jumpi\n      tag_303\n      tag_152\n      jump\t// in\n    tag_303:\n    tag_302:\n      eq\n        /* \"src/crowdfunding.sol\":6810:6905  require(peticionesDeGasto[index].estado == EstadoPeticion.Abierta,\"Peticion debe estar activa\") */\n      tag_304\n      jumpi\n      mload(0x40)\n      0x08c379a000000000000000000000000000000000000000000000000000000000\n      dup2\n      mstore\n      0x04\n      add\n      tag_305\n      swap1\n      tag_186\n      jump\t// in\n    tag_305:\n      mload(0x40)\n      dup1\n      swap2\n      sub\n      swap1\n      revert\n    tag_304:\n        /* \"src/crowdfunding.sol\":6955:6956  0 */\n      0x00\n        /* \"src/crowdfunding.sol\":6925:6940  participaciones */\n      0x06\n        /* \"src/crowdfunding.sol\":6925:6952  participaciones[msg.sender] */\n      0x00\n        /* \"src/crowdfunding.sol\":6941:6951  msg.sender */\n      caller\n        /* \"src/crowdfunding.sol\":6925:6952  participaciones[msg.sender] */\n      0xffffffffffffffffffffffffffffffffffffffff\n      and\n      0xffffffffffffffffffffffffffffffffffffffff\n      and\n      dup2\n      mstore\n      0x20\n      add\n      swap1\n      dup2\n      mstore\n      0x20\n      add\n      0x00\n      keccak256\n      sload\n        /* \"src/crowdfunding.sol\":6925:6956  participaciones[msg.sender] > 0 */\n      gt\n        /* \"src/crowdfunding.sol\":6917:6989  require(participaciones[msg.sender] > 0, \"solo votan los participantes\") */\n      tag_306\n      jumpi\n      mload(0x40)\n      0x08c379a000000000000000000000000000000000000000000000000000000000\n      dup2\n      mstore\n      0x04\n      add\n      tag_307\n      swap1\n      tag_308\n      jump\t// in\n    tag_307:\n      mload(0x40)\n      dup1\n      swap2\n      sub\n      swap1\n      revert\n    tag_306:\n        /* \"src/crowdfunding.sol\":7003:7027  PeticionGasto storage pt */\n      0x00\n        /* \"src/crowdfunding.sol\":7030:7047  peticionesDeGasto */\n      0x09\n        /* \"src/crowdfunding.sol\":7030:7054  peticionesDeGasto[index] */\n      0x00\n        /* \"src/crowdfunding.sol\":7048:7053  index */\n      dup5\n        /* \"src/crowdfunding.sol\":7030:7054  peticionesDeGasto[index] */\n      dup2\n      mstore\n      0x20\n      add\n      swap1\n      dup2\n      mstore\n      0x20\n      add\n      0x00\n      keccak256\n        /* \"src/crowdfunding.sol\":7003:7054  PeticionGasto storage pt = peticionesDeGasto[index] */\n      swap1\n      pop\n        /* \"src/crowdfunding.sol\":7112:7117  false */\n      0x00\n        /* \"src/crowdfunding.sol\":7085:7117  pt.votantes[msg.sender] == false */\n      iszero\n      iszero\n        /* \"src/crowdfunding.sol\":7085:7087  pt */\n      dup2\n        /* \"src/crowdfunding.sol\":7085:7096  pt.votantes */\n      0x06\n      add\n        /* \"src/crowdfunding.sol\":7085:7108  pt.votantes[msg.sender] */\n      0x00\n        /* \"src/crowdfunding.sol\":7097:7107  msg.sender */\n      caller\n        /* \"src/crowdfunding.sol\":7085:7108  pt.votantes[msg.sender] */\n      0xffffffffffffffffffffffffffffffffffffffff\n      and\n      0xffffffffffffffffffffffffffffffffffffffff\n      and\n      dup2\n      mstore\n      0x20\n      add\n      swap1\n      dup2\n      mstore\n      0x20\n      add\n      0x00\n      keccak256\n      0x00\n      swap1\n      sload\n      swap1\n      0x0100\n      exp\n      swap1\n      div\n      0xff\n      and\n        /* \"src/crowdfunding.sol\":7085:7117  pt.votantes[msg.sender] == false */\n      iszero\n      iszero\n      eq\n        /* \"src/crowdfunding.sol\":7077:7150  require(pt.votantes[msg.sender] == false, \"El participante ya ha votado\") */\n      tag_309\n      jumpi\n      mload(0x40)\n      0x08c379a000000000000000000000000000000000000000000000000000000000\n      dup2\n      mstore\n      0x04\n      add\n      tag_310\n      swap1\n      tag_311\n      jump\t// in\n    tag_310:\n      mload(0x40)\n      dup1\n      swap2\n      sub\n      swap1\n      revert\n    tag_309:\n        /* \"src/crowdfunding.sol\":7164:7191  uint256 cantParticipaciones */\n      0x00\n        /* \"src/crowdfunding.sol\":7194:7209  participaciones */\n      0x06\n        /* \"src/crowdfunding.sol\":7194:7221  participaciones[msg.sender] */\n      0x00\n        /* \"src/crowdfunding.sol\":7210:7220  msg.sender */\n      caller\n        /* \"src/crowdfunding.sol\":7194:7221  participaciones[msg.sender] */\n      0xffffffffffffffffffffffffffffffffffffffff\n      and\n      0xffffffffffffffffffffffffffffffffffffffff\n      and\n      dup2\n      mstore\n      0x20\n      add\n      swap1\n      dup2\n      mstore\n      0x20\n      add\n      0x00\n      keccak256\n      sload\n        /* \"src/crowdfunding.sol\":7164:7221  uint256 cantParticipaciones = participaciones[msg.sender] */\n      swap1\n      pop\n        /* \"src/crowdfunding.sol\":7261:7265  true */\n      0x01\n        /* \"src/crowdfunding.sol\":7235:7237  pt */\n      dup3\n        /* \"src/crowdfunding.sol\":7235:7246  pt.votantes */\n      0x06\n      add\n        /* \"src/crowdfunding.sol\":7235:7258  pt.votantes[msg.sender] */\n      0x00\n        /* \"src/crowdfunding.sol\":7247:7257  msg.sender */\n      caller\n        /* \"src/crowdfunding.sol\":7235:7258  pt.votantes[msg.sender] */\n      0xffffffffffffffffffffffffffffffffffffffff\n      and\n      0xffffffffffffffffffffffffffffffffffffffff\n      and\n      dup2\n      mstore\n      0x20\n      add\n      swap1\n      dup2\n      mstore\n      0x20\n      add\n      0x00\n      keccak256\n      0x00\n        /* \"src/crowdfunding.sol\":7235:7265  pt.votantes[msg.sender] = true */\n      0x0100\n      exp\n      dup2\n      sload\n      dup2\n      0xff\n      mul\n      not\n      and\n      swap1\n      dup4\n      iszero\n      iszero\n      mul\n      or\n      swap1\n      sstore\n      pop\n        /* \"src/crowdfunding.sol\":7299:7318  cantParticipaciones */\n      dup1\n        /* \"src/crowdfunding.sol\":7277:7279  pt */\n      dup3\n        /* \"src/crowdfunding.sol\":7277:7295  pt.votosRealizados */\n      0x04\n      add\n      0x00\n        /* \"src/crowdfunding.sol\":7277:7318  pt.votosRealizados += cantParticipaciones */\n      dup3\n      dup3\n      sload\n      tag_312\n      swap2\n      swap1\n      tag_163\n      jump\t// in\n    tag_312:\n      swap3\n      pop\n      pop\n      dup2\n      swap1\n      sstore\n      pop\n        /* \"src/crowdfunding.sol\":7345:7349  true */\n      0x01\n        /* \"src/crowdfunding.sol\":7334:7349  aprobar == true */\n      iszero\n      iszero\n        /* \"src/crowdfunding.sol\":7334:7341  aprobar */\n      dup4\n        /* \"src/crowdfunding.sol\":7334:7349  aprobar == true */\n      iszero\n      iszero\n      eq\n        /* \"src/crowdfunding.sol\":7330:7413  if (aprobar == true)         \r... */\n      iszero\n      tag_313\n      jumpi\n        /* \"src/crowdfunding.sol\":7394:7413  cantParticipaciones */\n      dup1\n        /* \"src/crowdfunding.sol\":7373:7375  pt */\n      dup3\n        /* \"src/crowdfunding.sol\":7373:7390  pt.votosPositivos */\n      0x05\n      add\n      0x00\n        /* \"src/crowdfunding.sol\":7373:7413  pt.votosPositivos += cantParticipaciones */\n      dup3\n      dup3\n      sload\n      tag_314\n      swap2\n      swap1\n      tag_163\n      jump\t// in\n    tag_314:\n      swap3\n      pop\n      pop\n      dup2\n      swap1\n      sstore\n      pop\n        /* \"src/crowdfunding.sol\":7330:7413  if (aprobar == true)         \r... */\n    tag_313:\n        /* \"src/crowdfunding.sol\":6722:7423  {\r... */\n      pop\n      pop\n        /* \"src/crowdfunding.sol\":6661:7423  function votarPeticionGasto(uint index, bool aprobar) public {\r... */\n      pop\n      pop\n      jump\t// out\n        /* \"src/crowdfunding.sol\":504:542  uint immutable public CAMPANIN_DUEDATE */\n    tag_139:\n      immutable(\"0x7749cc8014201da2069c21d93ba99c584b6f62d393fde534ed47eac227e31561\")\n      dup2\n      jump\t// out\n        /* \"src/crowdfunding.sol\":4124:5305  function\tcrearPeticionDeGasto(string memory _detalle, uint _importe, address payable _destinatario) public only_manager {\r... */\n    tag_145:\n        /* \"src/crowdfunding.sol\":612:622  msg.sender */\n      caller\n        /* \"src/crowdfunding.sol\":594:622  campainManager == msg.sender */\n      0xffffffffffffffffffffffffffffffffffffffff\n      and\n        /* \"src/crowdfunding.sol\":594:608  campainManager */\n      0x00\n      dup1\n      sload\n      swap1\n      0x0100\n      exp\n      swap1\n      div\n      0xffffffffffffffffffffffffffffffffffffffff\n      and\n        /* \"src/crowdfunding.sol\":594:622  campainManager == msg.sender */\n      0xffffffffffffffffffffffffffffffffffffffff\n      and\n      eq\n        /* \"src/crowdfunding.sol\":586:646  require(campainManager == msg.sender,\"Only Campain manager\") */\n      tag_316\n      jumpi\n      mload(0x40)\n      0x08c379a000000000000000000000000000000000000000000000000000000000\n      dup2\n      mstore\n      0x04\n      add\n      tag_317\n      swap1\n      tag_175\n      jump\t// in\n    tag_317:\n      mload(0x40)\n      dup1\n      swap2\n      sub\n      swap1\n      revert\n    tag_316:\n        /* \"src/crowdfunding.sol\":4305:4326  address(this).balance */\n      selfbalance\n        /* \"src/crowdfunding.sol\":4293:4301  _importe */\n      dup3\n        /* \"src/crowdfunding.sol\":4261:4290  totalImportePeticionesDeGasto */\n      sload(0x0b)\n        /* \"src/crowdfunding.sol\":4261:4301  totalImportePeticionesDeGasto + _importe */\n      tag_319\n      swap2\n      swap1\n      tag_163\n      jump\t// in\n    tag_319:\n        /* \"src/crowdfunding.sol\":4261:4326  totalImportePeticionesDeGasto + _importe <= address(this).balance */\n      gt\n      iszero\n        /* \"src/crowdfunding.sol\":4252:4349  require( totalImportePeticionesDeGasto + _importe <= address(this).balance, \"saldo insuficiente\") */\n      tag_320\n      jumpi\n      mload(0x40)\n      0x08c379a000000000000000000000000000000000000000000000000000000000\n      dup2\n      mstore\n      0x04\n      add\n      tag_321\n      swap1\n      tag_322\n      jump\t// in\n    tag_321:\n      mload(0x40)\n      dup1\n      swap2\n      sub\n      swap1\n      revert\n    tag_320:\n        /* \"src/crowdfunding.sol\":4390:4391  0 */\n      0x00\n        /* \"src/crowdfunding.sol\":4365:4392  _destinatario != address(0) */\n      0xffffffffffffffffffffffffffffffffffffffff\n      and\n        /* \"src/crowdfunding.sol\":4365:4378  _destinatario */\n      dup2\n        /* \"src/crowdfunding.sol\":4365:4392  _destinatario != address(0) */\n      0xffffffffffffffffffffffffffffffffffffffff\n      and\n      eq\n      iszero\n        /* \"src/crowdfunding.sol\":4357:4393  require(_destinatario != address(0)) */\n      tag_323\n      jumpi\n      0x00\n      dup1\n      revert\n    tag_323:\n        /* \"src/crowdfunding.sol\":4787:4817  PeticionGasto storage peticion */\n      0x00\n        /* \"src/crowdfunding.sol\":4820:4837  peticionesDeGasto */\n      0x09\n        /* \"src/crowdfunding.sol\":4820:4861  peticionesDeGasto[totalPeticionesDeGasto] */\n      0x00\n        /* \"src/crowdfunding.sol\":4838:4860  totalPeticionesDeGasto */\n      sload(0x0a)\n        /* \"src/crowdfunding.sol\":4820:4861  peticionesDeGasto[totalPeticionesDeGasto] */\n      dup2\n      mstore\n      0x20\n      add\n      swap1\n      dup2\n      mstore\n      0x20\n      add\n      0x00\n      keccak256\n        /* \"src/crowdfunding.sol\":4787:4861  PeticionGasto storage peticion = peticionesDeGasto[totalPeticionesDeGasto] */\n      swap1\n      pop\n        /* \"src/crowdfunding.sol\":4898:4906  _detalle */\n      dup4\n        /* \"src/crowdfunding.sol\":4872:4880  peticion */\n      dup2\n        /* \"src/crowdfunding.sol\":4872:4896  peticion.detallePeticion */\n      0x00\n      add\n        /* \"src/crowdfunding.sol\":4872:4906  peticion.detallePeticion =_detalle */\n      swap1\n      dup1\n      mload\n      swap1\n      0x20\n      add\n      swap1\n      tag_324\n      swap3\n      swap2\n      swap1\n      tag_325\n      jump\t// in\n    tag_324:\n      pop\n        /* \"src/crowdfunding.sol\":4936:4958  EstadoPeticion.Abierta */\n      0x00\n        /* \"src/crowdfunding.sol\":4918:4926  peticion */\n      dup2\n        /* \"src/crowdfunding.sol\":4918:4933  peticion.estado */\n      0x01\n      add\n      0x00\n        /* \"src/crowdfunding.sol\":4918:4958  peticion.estado = EstadoPeticion.Abierta */\n      0x0100\n      exp\n      dup2\n      sload\n      dup2\n      0xff\n      mul\n      not\n      and\n      swap1\n      dup4\n      0x02\n      dup2\n      gt\n      iszero\n      tag_326\n      jumpi\n      tag_327\n      tag_152\n      jump\t// in\n    tag_327:\n    tag_326:\n      mul\n      or\n      swap1\n      sstore\n      pop\n        /* \"src/crowdfunding.sol\":4988:4996  _importe */\n      dup3\n        /* \"src/crowdfunding.sol\":4969:4977  peticion */\n      dup2\n        /* \"src/crowdfunding.sol\":4969:4985  peticion.importe */\n      0x02\n      add\n        /* \"src/crowdfunding.sol\":4969:4996  peticion.importe = _importe */\n      dup2\n      swap1\n      sstore\n      pop\n        /* \"src/crowdfunding.sol\":5037:5050  _destinatario */\n      dup2\n        /* \"src/crowdfunding.sol\":5007:5015  peticion */\n      dup2\n        /* \"src/crowdfunding.sol\":5007:5034  peticion.walletDestinatario */\n      0x03\n      add\n      0x00\n        /* \"src/crowdfunding.sol\":5007:5050  peticion.walletDestinatario = _destinatario */\n      0x0100\n      exp\n      dup2\n      sload\n      dup2\n      0xffffffffffffffffffffffffffffffffffffffff\n      mul\n      not\n      and\n      swap1\n      dup4\n      0xffffffffffffffffffffffffffffffffffffffff\n      and\n      mul\n      or\n      swap1\n      sstore\n      pop\n        /* \"src/crowdfunding.sol\":5154:5213  NuevaPeticionGasto(totalPeticionesDeGasto, block.timestamp) */\n      0x8a9eef508655ba905fac3270e36d1f3410a7101b0b7fe80cc755b4a0c26a71a5\n        /* \"src/crowdfunding.sol\":5173:5195  totalPeticionesDeGasto */\n      sload(0x0a)\n        /* \"src/crowdfunding.sol\":5197:5212  block.timestamp */\n      timestamp\n        /* \"src/crowdfunding.sol\":5154:5213  NuevaPeticionGasto(totalPeticionesDeGasto, block.timestamp) */\n      mload(0x40)\n      tag_328\n      swap3\n      swap2\n      swap1\n      tag_329\n      jump\t// in\n    tag_328:\n      mload(0x40)\n      dup1\n      swap2\n      sub\n      swap1\n      log1\n        /* \"src/crowdfunding.sol\":5224:5246  totalPeticionesDeGasto */\n      0x0a\n      0x00\n        /* \"src/crowdfunding.sol\":5224:5248  totalPeticionesDeGasto++ */\n      dup2\n      sload\n      dup1\n      swap3\n      swap2\n      swap1\n      tag_330\n      swap1\n      tag_284\n      jump\t// in\n    tag_330:\n      swap2\n      swap1\n      pop\n      sstore\n      pop\n        /* \"src/crowdfunding.sol\":5292:5300  _importe */\n      dup3\n        /* \"src/crowdfunding.sol\":5259:5288  totalImportePeticionesDeGasto */\n      0x0b\n      0x00\n        /* \"src/crowdfunding.sol\":5259:5300  totalImportePeticionesDeGasto += _importe */\n      dup3\n      dup3\n      sload\n      tag_331\n      swap2\n      swap1\n      tag_163\n      jump\t// in\n    tag_331:\n      swap3\n      pop\n      pop\n      dup2\n      swap1\n      sstore\n      pop\n        /* \"src/crowdfunding.sol\":4244:5305  {\r... */\n      pop\n        /* \"src/crowdfunding.sol\":4124:5305  function\tcrearPeticionDeGasto(string memory _detalle, uint _importe, address payable _destinatario) public only_manager {\r... */\n      pop\n      pop\n      pop\n      jump\t// out\n    tag_325:\n      dup3\n      dup1\n      sload\n      tag_332\n      swap1\n      tag_167\n      jump\t// in\n    tag_332:\n      swap1\n      0x00\n      mstore\n      keccak256(0x00, 0x20)\n      swap1\n      0x1f\n      add\n      0x20\n      swap1\n      div\n      dup2\n      add\n      swap3\n      dup3\n      tag_334\n      jumpi\n      0x00\n      dup6\n      sstore\n      jump(tag_333)\n    tag_334:\n      dup3\n      0x1f\n      lt\n      tag_335\n      jumpi\n      dup1\n      mload\n      not(0xff)\n      and\n      dup4\n      dup1\n      add\n      or\n      dup6\n      sstore\n      jump(tag_333)\n    tag_335:\n      dup3\n      dup1\n      add\n      0x01\n      add\n      dup6\n      sstore\n      dup3\n      iszero\n      tag_333\n      jumpi\n      swap2\n      dup3\n      add\n    tag_336:\n      dup3\n      dup2\n      gt\n      iszero\n      tag_337\n      jumpi\n      dup3\n      mload\n      dup3\n      sstore\n      swap2\n      0x20\n      add\n      swap2\n      swap1\n      0x01\n      add\n      swap1\n      jump(tag_336)\n    tag_337:\n    tag_333:\n      pop\n      swap1\n      pop\n      tag_338\n      swap2\n      swap1\n      tag_339\n      jump\t// in\n    tag_338:\n      pop\n      swap1\n      jump\t// out\n    tag_339:\n    tag_340:\n      dup1\n      dup3\n      gt\n      iszero\n      tag_341\n      jumpi\n      0x00\n      dup2\n      0x00\n      swap1\n      sstore\n      pop\n      0x01\n      add\n      jump(tag_340)\n    tag_341:\n      pop\n      swap1\n      jump\t// out\n        /* \"#utility.yul\":7:419   */\n    tag_343:\n        /* \"#utility.yul\":85:90   */\n      0x00\n        /* \"#utility.yul\":110:176   */\n      tag_345\n        /* \"#utility.yul\":126:175   */\n      tag_346\n        /* \"#utility.yul\":168:174   */\n      dup5\n        /* \"#utility.yul\":126:175   */\n      tag_347\n      jump\t// in\n    tag_346:\n        /* \"#utility.yul\":110:176   */\n      tag_348\n      jump\t// in\n    tag_345:\n        /* \"#utility.yul\":101:176   */\n      swap1\n      pop\n        /* \"#utility.yul\":199:205   */\n      dup3\n        /* \"#utility.yul\":192:197   */\n      dup2\n        /* \"#utility.yul\":185:206   */\n      mstore\n        /* \"#utility.yul\":237:241   */\n      0x20\n        /* \"#utility.yul\":230:235   */\n      dup2\n        /* \"#utility.yul\":226:242   */\n      add\n        /* \"#utility.yul\":275:278   */\n      dup5\n        /* \"#utility.yul\":266:272   */\n      dup5\n        /* \"#utility.yul\":261:264   */\n      dup5\n        /* \"#utility.yul\":257:273   */\n      add\n        /* \"#utility.yul\":254:279   */\n      gt\n        /* \"#utility.yul\":251:363   */\n      iszero\n      tag_349\n      jumpi\n        /* \"#utility.yul\":282:361   */\n      tag_350\n      tag_351\n      jump\t// in\n    tag_350:\n        /* \"#utility.yul\":251:363   */\n    tag_349:\n        /* \"#utility.yul\":372:413   */\n      tag_352\n        /* \"#utility.yul\":406:412   */\n      dup5\n        /* \"#utility.yul\":401:404   */\n      dup3\n        /* \"#utility.yul\":396:399   */\n      dup6\n        /* \"#utility.yul\":372:413   */\n      tag_353\n      jump\t// in\n    tag_352:\n        /* \"#utility.yul\":91:419   */\n      pop\n        /* \"#utility.yul\":7:419   */\n      swap4\n      swap3\n      pop\n      pop\n      pop\n      jump\t// out\n        /* \"#utility.yul\":425:564   */\n    tag_354:\n        /* \"#utility.yul\":471:476   */\n      0x00\n        /* \"#utility.yul\":509:515   */\n      dup2\n        /* \"#utility.yul\":496:516   */\n      calldataload\n        /* \"#utility.yul\":487:516   */\n      swap1\n      pop\n        /* \"#utility.yul\":525:558   */\n      tag_356\n        /* \"#utility.yul\":552:557   */\n      dup2\n        /* \"#utility.yul\":525:558   */\n      tag_357\n      jump\t// in\n    tag_356:\n        /* \"#utility.yul\":425:564   */\n      swap3\n      swap2\n      pop\n      pop\n      jump\t// out\n        /* \"#utility.yul\":570:725   */\n    tag_358:\n        /* \"#utility.yul\":624:629   */\n      0x00\n        /* \"#utility.yul\":662:668   */\n      dup2\n        /* \"#utility.yul\":649:669   */\n      calldataload\n        /* \"#utility.yul\":640:669   */\n      swap1\n      pop\n        /* \"#utility.yul\":678:719   */\n      tag_360\n        /* \"#utility.yul\":713:718   */\n      dup2\n        /* \"#utility.yul\":678:719   */\n      tag_361\n      jump\t// in\n    tag_360:\n        /* \"#utility.yul\":570:725   */\n      swap3\n      swap2\n      pop\n      pop\n      jump\t// out\n        /* \"#utility.yul\":731:864   */\n    tag_362:\n        /* \"#utility.yul\":774:779   */\n      0x00\n        /* \"#utility.yul\":812:818   */\n      dup2\n        /* \"#utility.yul\":799:819   */\n      calldataload\n        /* \"#utility.yul\":790:819   */\n      swap1\n      pop\n        /* \"#utility.yul\":828:858   */\n      tag_364\n        /* \"#utility.yul\":852:857   */\n      dup2\n        /* \"#utility.yul\":828:858   */\n      tag_365\n      jump\t// in\n    tag_364:\n        /* \"#utility.yul\":731:864   */\n      swap3\n      swap2\n      pop\n      pop\n      jump\t// out\n        /* \"#utility.yul\":884:1224   */\n    tag_366:\n        /* \"#utility.yul\":940:945   */\n      0x00\n        /* \"#utility.yul\":989:992   */\n      dup3\n        /* \"#utility.yul\":982:986   */\n      0x1f\n        /* \"#utility.yul\":974:980   */\n      dup4\n        /* \"#utility.yul\":970:987   */\n      add\n        /* \"#utility.yul\":966:993   */\n      slt\n        /* \"#utility.yul\":956:1078   */\n      tag_368\n      jumpi\n        /* \"#utility.yul\":997:1076   */\n      tag_369\n      tag_370\n      jump\t// in\n    tag_369:\n        /* \"#utility.yul\":956:1078   */\n    tag_368:\n        /* \"#utility.yul\":1114:1120   */\n      dup2\n        /* \"#utility.yul\":1101:1121   */\n      calldataload\n        /* \"#utility.yul\":1139:1218   */\n      tag_371\n        /* \"#utility.yul\":1214:1217   */\n      dup5\n        /* \"#utility.yul\":1206:1212   */\n      dup3\n        /* \"#utility.yul\":1199:1203   */\n      0x20\n        /* \"#utility.yul\":1191:1197   */\n      dup7\n        /* \"#utility.yul\":1187:1204   */\n      add\n        /* \"#utility.yul\":1139:1218   */\n      tag_343\n      jump\t// in\n    tag_371:\n        /* \"#utility.yul\":1130:1218   */\n      swap2\n      pop\n        /* \"#utility.yul\":946:1224   */\n      pop\n        /* \"#utility.yul\":884:1224   */\n      swap3\n      swap2\n      pop\n      pop\n      jump\t// out\n        /* \"#utility.yul\":1230:1369   */\n    tag_372:\n        /* \"#utility.yul\":1276:1281   */\n      0x00\n        /* \"#utility.yul\":1314:1320   */\n      dup2\n        /* \"#utility.yul\":1301:1321   */\n      calldataload\n        /* \"#utility.yul\":1292:1321   */\n      swap1\n      pop\n        /* \"#utility.yul\":1330:1363   */\n      tag_374\n        /* \"#utility.yul\":1357:1362   */\n      dup2\n        /* \"#utility.yul\":1330:1363   */\n      tag_375\n      jump\t// in\n    tag_374:\n        /* \"#utility.yul\":1230:1369   */\n      swap3\n      swap2\n      pop\n      pop\n      jump\t// out\n        /* \"#utility.yul\":1375:1704   */\n    tag_59:\n        /* \"#utility.yul\":1434:1440   */\n      0x00\n        /* \"#utility.yul\":1483:1485   */\n      0x20\n        /* \"#utility.yul\":1471:1480   */\n      dup3\n        /* \"#utility.yul\":1462:1469   */\n      dup5\n        /* \"#utility.yul\":1458:1481   */\n      sub\n        /* \"#utility.yul\":1454:1486   */\n      slt\n        /* \"#utility.yul\":1451:1570   */\n      iszero\n      tag_377\n      jumpi\n        /* \"#utility.yul\":1489:1568   */\n      tag_378\n      tag_379\n      jump\t// in\n    tag_378:\n        /* \"#utility.yul\":1451:1570   */\n    tag_377:\n        /* \"#utility.yul\":1609:1610   */\n      0x00\n        /* \"#utility.yul\":1634:1687   */\n      tag_380\n        /* \"#utility.yul\":1679:1686   */\n      dup5\n        /* \"#utility.yul\":1670:1676   */\n      dup3\n        /* \"#utility.yul\":1659:1668   */\n      dup6\n        /* \"#utility.yul\":1655:1677   */\n      add\n        /* \"#utility.yul\":1634:1687   */\n      tag_354\n      jump\t// in\n    tag_380:\n        /* \"#utility.yul\":1624:1687   */\n      swap2\n      pop\n        /* \"#utility.yul\":1580:1697   */\n      pop\n        /* \"#utility.yul\":1375:1704   */\n      swap3\n      swap2\n      pop\n      pop\n      jump\t// out\n        /* \"#utility.yul\":1710:2525   */\n    tag_144:\n        /* \"#utility.yul\":1805:1811   */\n      0x00\n        /* \"#utility.yul\":1813:1819   */\n      dup1\n        /* \"#utility.yul\":1821:1827   */\n      0x00\n        /* \"#utility.yul\":1870:1872   */\n      0x60\n        /* \"#utility.yul\":1858:1867   */\n      dup5\n        /* \"#utility.yul\":1849:1856   */\n      dup7\n        /* \"#utility.yul\":1845:1868   */\n      sub\n        /* \"#utility.yul\":1841:1873   */\n      slt\n        /* \"#utility.yul\":1838:1957   */\n      iszero\n      tag_382\n      jumpi\n        /* \"#utility.yul\":1876:1955   */\n      tag_383\n      tag_379\n      jump\t// in\n    tag_383:\n        /* \"#utility.yul\":1838:1957   */\n    tag_382:\n        /* \"#utility.yul\":2024:2025   */\n      0x00\n        /* \"#utility.yul\":2013:2022   */\n      dup5\n        /* \"#utility.yul\":2009:2026   */\n      add\n        /* \"#utility.yul\":1996:2027   */\n      calldataload\n        /* \"#utility.yul\":2054:2072   */\n      0xffffffffffffffff\n        /* \"#utility.yul\":2046:2052   */\n      dup2\n        /* \"#utility.yul\":2043:2073   */\n      gt\n        /* \"#utility.yul\":2040:2157   */\n      iszero\n      tag_384\n      jumpi\n        /* \"#utility.yul\":2076:2155   */\n      tag_385\n      tag_386\n      jump\t// in\n    tag_385:\n        /* \"#utility.yul\":2040:2157   */\n    tag_384:\n        /* \"#utility.yul\":2181:2244   */\n      tag_387\n        /* \"#utility.yul\":2236:2243   */\n      dup7\n        /* \"#utility.yul\":2227:2233   */\n      dup3\n        /* \"#utility.yul\":2216:2225   */\n      dup8\n        /* \"#utility.yul\":2212:2234   */\n      add\n        /* \"#utility.yul\":2181:2244   */\n      tag_366\n      jump\t// in\n    tag_387:\n        /* \"#utility.yul\":2171:2244   */\n      swap4\n      pop\n        /* \"#utility.yul\":1967:2254   */\n      pop\n        /* \"#utility.yul\":2293:2295   */\n      0x20\n        /* \"#utility.yul\":2319:2372   */\n      tag_388\n        /* \"#utility.yul\":2364:2371   */\n      dup7\n        /* \"#utility.yul\":2355:2361   */\n      dup3\n        /* \"#utility.yul\":2344:2353   */\n      dup8\n        /* \"#utility.yul\":2340:2362   */\n      add\n        /* \"#utility.yul\":2319:2372   */\n      tag_372\n      jump\t// in\n    tag_388:\n        /* \"#utility.yul\":2309:2372   */\n      swap3\n      pop\n        /* \"#utility.yul\":2264:2382   */\n      pop\n        /* \"#utility.yul\":2421:2423   */\n      0x40\n        /* \"#utility.yul\":2447:2508   */\n      tag_389\n        /* \"#utility.yul\":2500:2507   */\n      dup7\n        /* \"#utility.yul\":2491:2497   */\n      dup3\n        /* \"#utility.yul\":2480:2489   */\n      dup8\n        /* \"#utility.yul\":2476:2498   */\n      add\n        /* \"#utility.yul\":2447:2508   */\n      tag_358\n      jump\t// in\n    tag_389:\n        /* \"#utility.yul\":2437:2508   */\n      swap2\n      pop\n        /* \"#utility.yul\":2392:2518   */\n      pop\n        /* \"#utility.yul\":1710:2525   */\n      swap3\n      pop\n      swap3\n      pop\n      swap3\n      jump\t// out\n        /* \"#utility.yul\":2531:2860   */\n    tag_50:\n        /* \"#utility.yul\":2590:2596   */\n      0x00\n        /* \"#utility.yul\":2639:2641   */\n      0x20\n        /* \"#utility.yul\":2627:2636   */\n      dup3\n        /* \"#utility.yul\":2618:2625   */\n      dup5\n        /* \"#utility.yul\":2614:2637   */\n      sub\n        /* \"#utility.yul\":2610:2642   */\n      slt\n        /* \"#utility.yul\":2607:2726   */\n      iszero\n      tag_391\n      jumpi\n        /* \"#utility.yul\":2645:2724   */\n      tag_392\n      tag_379\n      jump\t// in\n    tag_392:\n        /* \"#utility.yul\":2607:2726   */\n    tag_391:\n        /* \"#utility.yul\":2765:2766   */\n      0x00\n        /* \"#utility.yul\":2790:2843   */\n      tag_393\n        /* \"#utility.yul\":2835:2842   */\n      dup5\n        /* \"#utility.yul\":2826:2832   */\n      dup3\n        /* \"#utility.yul\":2815:2824   */\n      dup6\n        /* \"#utility.yul\":2811:2833   */\n      add\n        /* \"#utility.yul\":2790:2843   */\n      tag_372\n      jump\t// in\n    tag_393:\n        /* \"#utility.yul\":2780:2843   */\n      swap2\n      pop\n        /* \"#utility.yul\":2736:2853   */\n      pop\n        /* \"#utility.yul\":2531:2860   */\n      swap3\n      swap2\n      pop\n      pop\n      jump\t// out\n        /* \"#utility.yul\":2866:3334   */\n    tag_135:\n        /* \"#utility.yul\":2931:2937   */\n      0x00\n        /* \"#utility.yul\":2939:2945   */\n      dup1\n        /* \"#utility.yul\":2988:2990   */\n      0x40\n        /* \"#utility.yul\":2976:2985   */\n      dup4\n        /* \"#utility.yul\":2967:2974   */\n      dup6\n        /* \"#utility.yul\":2963:2986   */\n      sub\n        /* \"#utility.yul\":2959:2991   */\n      slt\n        /* \"#utility.yul\":2956:3075   */\n      iszero\n      tag_395\n      jumpi\n        /* \"#utility.yul\":2994:3073   */\n      tag_396\n      tag_379\n      jump\t// in\n    tag_396:\n        /* \"#utility.yul\":2956:3075   */\n    tag_395:\n        /* \"#utility.yul\":3114:3115   */\n      0x00\n        /* \"#utility.yul\":3139:3192   */\n      tag_397\n        /* \"#utility.yul\":3184:3191   */\n      dup6\n        /* \"#utility.yul\":3175:3181   */\n      dup3\n        /* \"#utility.yul\":3164:3173   */\n      dup7\n        /* \"#utility.yul\":3160:3182   */\n      add\n        /* \"#utility.yul\":3139:3192   */\n      tag_372\n      jump\t// in\n    tag_397:\n        /* \"#utility.yul\":3129:3192   */\n      swap3\n      pop\n        /* \"#utility.yul\":3085:3202   */\n      pop\n        /* \"#utility.yul\":3241:3243   */\n      0x20\n        /* \"#utility.yul\":3267:3317   */\n      tag_398\n        /* \"#utility.yul\":3309:3316   */\n      dup6\n        /* \"#utility.yul\":3300:3306   */\n      dup3\n        /* \"#utility.yul\":3289:3298   */\n      dup7\n        /* \"#utility.yul\":3285:3307   */\n      add\n        /* \"#utility.yul\":3267:3317   */\n      tag_362\n      jump\t// in\n    tag_398:\n        /* \"#utility.yul\":3257:3317   */\n      swap2\n      pop\n        /* \"#utility.yul\":3212:3327   */\n      pop\n        /* \"#utility.yul\":2866:3334   */\n      swap3\n      pop\n      swap3\n      swap1\n      pop\n      jump\t// out\n        /* \"#utility.yul\":3340:3519   */\n    tag_399:\n        /* \"#utility.yul\":3409:3419   */\n      0x00\n        /* \"#utility.yul\":3430:3476   */\n      tag_401\n        /* \"#utility.yul\":3472:3475   */\n      dup4\n        /* \"#utility.yul\":3464:3470   */\n      dup4\n        /* \"#utility.yul\":3430:3476   */\n      tag_402\n      jump\t// in\n    tag_401:\n        /* \"#utility.yul\":3508:3512   */\n      0x20\n        /* \"#utility.yul\":3503:3506   */\n      dup4\n        /* \"#utility.yul\":3499:3513   */\n      add\n        /* \"#utility.yul\":3485:3513   */\n      swap1\n      pop\n        /* \"#utility.yul\":3340:3519   */\n      swap3\n      swap2\n      pop\n      pop\n      jump\t// out\n        /* \"#utility.yul\":3525:3704   */\n    tag_403:\n        /* \"#utility.yul\":3594:3604   */\n      0x00\n        /* \"#utility.yul\":3615:3661   */\n      tag_405\n        /* \"#utility.yul\":3657:3660   */\n      dup4\n        /* \"#utility.yul\":3649:3655   */\n      dup4\n        /* \"#utility.yul\":3615:3661   */\n      tag_406\n      jump\t// in\n    tag_405:\n        /* \"#utility.yul\":3693:3697   */\n      0x20\n        /* \"#utility.yul\":3688:3691   */\n      dup4\n        /* \"#utility.yul\":3684:3698   */\n      add\n        /* \"#utility.yul\":3670:3698   */\n      swap1\n      pop\n        /* \"#utility.yul\":3525:3704   */\n      swap3\n      swap2\n      pop\n      pop\n      jump\t// out\n        /* \"#utility.yul\":3710:3852   */\n    tag_407:\n        /* \"#utility.yul\":3813:3845   */\n      tag_409\n        /* \"#utility.yul\":3839:3844   */\n      dup2\n        /* \"#utility.yul\":3813:3845   */\n      tag_410\n      jump\t// in\n    tag_409:\n        /* \"#utility.yul\":3808:3811   */\n      dup3\n        /* \"#utility.yul\":3801:3846   */\n      mstore\n        /* \"#utility.yul\":3710:3852   */\n      pop\n      pop\n      jump\t// out\n        /* \"#utility.yul\":3858:3966   */\n    tag_402:\n        /* \"#utility.yul\":3935:3959   */\n      tag_412\n        /* \"#utility.yul\":3953:3958   */\n      dup2\n        /* \"#utility.yul\":3935:3959   */\n      tag_413\n      jump\t// in\n    tag_412:\n        /* \"#utility.yul\":3930:3933   */\n      dup3\n        /* \"#utility.yul\":3923:3960   */\n      mstore\n        /* \"#utility.yul\":3858:3966   */\n      pop\n      pop\n      jump\t// out\n        /* \"#utility.yul\":3972:4090   */\n    tag_414:\n        /* \"#utility.yul\":4059:4083   */\n      tag_416\n        /* \"#utility.yul\":4077:4082   */\n      dup2\n        /* \"#utility.yul\":4059:4083   */\n      tag_413\n      jump\t// in\n    tag_416:\n        /* \"#utility.yul\":4054:4057   */\n      dup3\n        /* \"#utility.yul\":4047:4084   */\n      mstore\n        /* \"#utility.yul\":3972:4090   */\n      pop\n      pop\n      jump\t// out\n        /* \"#utility.yul\":4126:4858   */\n    tag_417:\n        /* \"#utility.yul\":4245:4248   */\n      0x00\n        /* \"#utility.yul\":4274:4328   */\n      tag_419\n        /* \"#utility.yul\":4322:4327   */\n      dup3\n        /* \"#utility.yul\":4274:4328   */\n      tag_420\n      jump\t// in\n    tag_419:\n        /* \"#utility.yul\":4344:4430   */\n      tag_421\n        /* \"#utility.yul\":4423:4429   */\n      dup2\n        /* \"#utility.yul\":4418:4421   */\n      dup6\n        /* \"#utility.yul\":4344:4430   */\n      tag_422\n      jump\t// in\n    tag_421:\n        /* \"#utility.yul\":4337:4430   */\n      swap4\n      pop\n        /* \"#utility.yul\":4454:4510   */\n      tag_423\n        /* \"#utility.yul\":4504:4509   */\n      dup4\n        /* \"#utility.yul\":4454:4510   */\n      tag_424\n      jump\t// in\n    tag_423:\n        /* \"#utility.yul\":4533:4540   */\n      dup1\n        /* \"#utility.yul\":4564:4565   */\n      0x00\n        /* \"#utility.yul\":4549:4833   */\n    tag_425:\n        /* \"#utility.yul\":4574:4580   */\n      dup4\n        /* \"#utility.yul\":4571:4572   */\n      dup2\n        /* \"#utility.yul\":4568:4581   */\n      lt\n        /* \"#utility.yul\":4549:4833   */\n      iszero\n      tag_427\n      jumpi\n        /* \"#utility.yul\":4650:4656   */\n      dup2\n        /* \"#utility.yul\":4644:4657   */\n      mload\n        /* \"#utility.yul\":4677:4740   */\n      tag_428\n        /* \"#utility.yul\":4736:4739   */\n      dup9\n        /* \"#utility.yul\":4721:4734   */\n      dup3\n        /* \"#utility.yul\":4677:4740   */\n      tag_399\n      jump\t// in\n    tag_428:\n        /* \"#utility.yul\":4670:4740   */\n      swap8\n      pop\n        /* \"#utility.yul\":4763:4823   */\n      tag_429\n        /* \"#utility.yul\":4816:4822   */\n      dup4\n        /* \"#utility.yul\":4763:4823   */\n      tag_430\n      jump\t// in\n    tag_429:\n        /* \"#utility.yul\":4753:4823   */\n      swap3\n      pop\n        /* \"#utility.yul\":4609:4833   */\n      pop\n        /* \"#utility.yul\":4596:4597   */\n      0x01\n        /* \"#utility.yul\":4593:4594   */\n      dup2\n        /* \"#utility.yul\":4589:4598   */\n      add\n        /* \"#utility.yul\":4584:4598   */\n      swap1\n      pop\n        /* \"#utility.yul\":4549:4833   */\n      jump(tag_425)\n    tag_427:\n        /* \"#utility.yul\":4553:4567   */\n      pop\n        /* \"#utility.yul\":4849:4852   */\n      dup6\n        /* \"#utility.yul\":4842:4852   */\n      swap4\n      pop\n        /* \"#utility.yul\":4250:4858   */\n      pop\n      pop\n      pop\n        /* \"#utility.yul\":4126:4858   */\n      swap3\n      swap2\n      pop\n      pop\n      jump\t// out\n        /* \"#utility.yul\":4894:5626   */\n    tag_431:\n        /* \"#utility.yul\":5013:5016   */\n      0x00\n        /* \"#utility.yul\":5042:5096   */\n      tag_433\n        /* \"#utility.yul\":5090:5095   */\n      dup3\n        /* \"#utility.yul\":5042:5096   */\n      tag_434\n      jump\t// in\n    tag_433:\n        /* \"#utility.yul\":5112:5198   */\n      tag_435\n        /* \"#utility.yul\":5191:5197   */\n      dup2\n        /* \"#utility.yul\":5186:5189   */\n      dup6\n        /* \"#utility.yul\":5112:5198   */\n      tag_436\n      jump\t// in\n    tag_435:\n        /* \"#utility.yul\":5105:5198   */\n      swap4\n      pop\n        /* \"#utility.yul\":5222:5278   */\n      tag_437\n        /* \"#utility.yul\":5272:5277   */\n      dup4\n        /* \"#utility.yul\":5222:5278   */\n      tag_438\n      jump\t// in\n    tag_437:\n        /* \"#utility.yul\":5301:5308   */\n      dup1\n        /* \"#utility.yul\":5332:5333   */\n      0x00\n        /* \"#utility.yul\":5317:5601   */\n    tag_439:\n        /* \"#utility.yul\":5342:5348   */\n      dup4\n        /* \"#utility.yul\":5339:5340   */\n      dup2\n        /* \"#utility.yul\":5336:5349   */\n      lt\n        /* \"#utility.yul\":5317:5601   */\n      iszero\n      tag_441\n      jumpi\n        /* \"#utility.yul\":5418:5424   */\n      dup2\n        /* \"#utility.yul\":5412:5425   */\n      mload\n        /* \"#utility.yul\":5445:5508   */\n      tag_442\n        /* \"#utility.yul\":5504:5507   */\n      dup9\n        /* \"#utility.yul\":5489:5502   */\n      dup3\n        /* \"#utility.yul\":5445:5508   */\n      tag_403\n      jump\t// in\n    tag_442:\n        /* \"#utility.yul\":5438:5508   */\n      swap8\n      pop\n        /* \"#utility.yul\":5531:5591   */\n      tag_443\n        /* \"#utility.yul\":5584:5590   */\n      dup4\n        /* \"#utility.yul\":5531:5591   */\n      tag_444\n      jump\t// in\n    tag_443:\n        /* \"#utility.yul\":5521:5591   */\n      swap3\n      pop\n        /* \"#utility.yul\":5377:5601   */\n      pop\n        /* \"#utility.yul\":5364:5365   */\n      0x01\n        /* \"#utility.yul\":5361:5362   */\n      dup2\n        /* \"#utility.yul\":5357:5366   */\n      add\n        /* \"#utility.yul\":5352:5366   */\n      swap1\n      pop\n        /* \"#utility.yul\":5317:5601   */\n      jump(tag_439)\n    tag_441:\n        /* \"#utility.yul\":5321:5335   */\n      pop\n        /* \"#utility.yul\":5617:5620   */\n      dup6\n        /* \"#utility.yul\":5610:5620   */\n      swap4\n      pop\n        /* \"#utility.yul\":5018:5626   */\n      pop\n      pop\n      pop\n        /* \"#utility.yul\":4894:5626   */\n      swap3\n      swap2\n      pop\n      pop\n      jump\t// out\n        /* \"#utility.yul\":5632:5741   */\n    tag_445:\n        /* \"#utility.yul\":5713:5734   */\n      tag_447\n        /* \"#utility.yul\":5728:5733   */\n      dup2\n        /* \"#utility.yul\":5713:5734   */\n      tag_448\n      jump\t// in\n    tag_447:\n        /* \"#utility.yul\":5708:5711   */\n      dup3\n        /* \"#utility.yul\":5701:5735   */\n      mstore\n        /* \"#utility.yul\":5632:5741   */\n      pop\n      pop\n      jump\t// out\n        /* \"#utility.yul\":5747:5908   */\n    tag_449:\n        /* \"#utility.yul\":5849:5901   */\n      tag_451\n        /* \"#utility.yul\":5895:5900   */\n      dup2\n        /* \"#utility.yul\":5849:5901   */\n      tag_452\n      jump\t// in\n    tag_451:\n        /* \"#utility.yul\":5844:5847   */\n      dup3\n        /* \"#utility.yul\":5837:5902   */\n      mstore\n        /* \"#utility.yul\":5747:5908   */\n      pop\n      pop\n      jump\t// out\n        /* \"#utility.yul\":5914:6057   */\n    tag_453:\n        /* \"#utility.yul\":6007:6050   */\n      tag_455\n        /* \"#utility.yul\":6044:6049   */\n      dup2\n        /* \"#utility.yul\":6007:6050   */\n      tag_456\n      jump\t// in\n    tag_455:\n        /* \"#utility.yul\":6002:6005   */\n      dup3\n        /* \"#utility.yul\":5995:6051   */\n      mstore\n        /* \"#utility.yul\":5914:6057   */\n      pop\n      pop\n      jump\t// out\n        /* \"#utility.yul\":6063:6427   */\n    tag_457:\n        /* \"#utility.yul\":6151:6154   */\n      0x00\n        /* \"#utility.yul\":6179:6218   */\n      tag_459\n        /* \"#utility.yul\":6212:6217   */\n      dup3\n        /* \"#utility.yul\":6179:6218   */\n      tag_460\n      jump\t// in\n    tag_459:\n        /* \"#utility.yul\":6234:6305   */\n      tag_461\n        /* \"#utility.yul\":6298:6304   */\n      dup2\n        /* \"#utility.yul\":6293:6296   */\n      dup6\n        /* \"#utility.yul\":6234:6305   */\n      tag_462\n      jump\t// in\n    tag_461:\n        /* \"#utility.yul\":6227:6305   */\n      swap4\n      pop\n        /* \"#utility.yul\":6314:6366   */\n      tag_463\n        /* \"#utility.yul\":6359:6365   */\n      dup2\n        /* \"#utility.yul\":6354:6357   */\n      dup6\n        /* \"#utility.yul\":6347:6351   */\n      0x20\n        /* \"#utility.yul\":6340:6345   */\n      dup7\n        /* \"#utility.yul\":6336:6352   */\n      add\n        /* \"#utility.yul\":6314:6366   */\n      tag_464\n      jump\t// in\n    tag_463:\n        /* \"#utility.yul\":6391:6420   */\n      tag_465\n        /* \"#utility.yul\":6413:6419   */\n      dup2\n        /* \"#utility.yul\":6391:6420   */\n      tag_466\n      jump\t// in\n    tag_465:\n        /* \"#utility.yul\":6386:6389   */\n      dup5\n        /* \"#utility.yul\":6382:6421   */\n      add\n        /* \"#utility.yul\":6375:6421   */\n      swap2\n      pop\n        /* \"#utility.yul\":6155:6427   */\n      pop\n        /* \"#utility.yul\":6063:6427   */\n      swap3\n      swap2\n      pop\n      pop\n      jump\t// out\n        /* \"#utility.yul\":6433:6799   */\n    tag_467:\n        /* \"#utility.yul\":6575:6578   */\n      0x00\n        /* \"#utility.yul\":6596:6663   */\n      tag_469\n        /* \"#utility.yul\":6660:6662   */\n      0x13\n        /* \"#utility.yul\":6655:6658   */\n      dup4\n        /* \"#utility.yul\":6596:6663   */\n      tag_462\n      jump\t// in\n    tag_469:\n        /* \"#utility.yul\":6589:6663   */\n      swap2\n      pop\n        /* \"#utility.yul\":6672:6765   */\n      tag_470\n        /* \"#utility.yul\":6761:6764   */\n      dup3\n        /* \"#utility.yul\":6672:6765   */\n      tag_471\n      jump\t// in\n    tag_470:\n        /* \"#utility.yul\":6790:6792   */\n      0x20\n        /* \"#utility.yul\":6785:6788   */\n      dup3\n        /* \"#utility.yul\":6781:6793   */\n      add\n        /* \"#utility.yul\":6774:6793   */\n      swap1\n      pop\n        /* \"#utility.yul\":6433:6799   */\n      swap2\n      swap1\n      pop\n      jump\t// out\n        /* \"#utility.yul\":6805:7171   */\n    tag_472:\n        /* \"#utility.yul\":6947:6950   */\n      0x00\n        /* \"#utility.yul\":6968:7035   */\n      tag_474\n        /* \"#utility.yul\":7032:7034   */\n      0x21\n        /* \"#utility.yul\":7027:7030   */\n      dup4\n        /* \"#utility.yul\":6968:7035   */\n      tag_462\n      jump\t// in\n    tag_474:\n        /* \"#utility.yul\":6961:7035   */\n      swap2\n      pop\n        /* \"#utility.yul\":7044:7137   */\n      tag_475\n        /* \"#utility.yul\":7133:7136   */\n      dup3\n        /* \"#utility.yul\":7044:7137   */\n      tag_476\n      jump\t// in\n    tag_475:\n        /* \"#utility.yul\":7162:7164   */\n      0x40\n        /* \"#utility.yul\":7157:7160   */\n      dup3\n        /* \"#utility.yul\":7153:7165   */\n      add\n        /* \"#utility.yul\":7146:7165   */\n      swap1\n      pop\n        /* \"#utility.yul\":6805:7171   */\n      swap2\n      swap1\n      pop\n      jump\t// out\n        /* \"#utility.yul\":7177:7543   */\n    tag_477:\n        /* \"#utility.yul\":7319:7322   */\n      0x00\n        /* \"#utility.yul\":7340:7407   */\n      tag_479\n        /* \"#utility.yul\":7404:7406   */\n      0x1e\n        /* \"#utility.yul\":7399:7402   */\n      dup4\n        /* \"#utility.yul\":7340:7407   */\n      tag_462\n      jump\t// in\n    tag_479:\n        /* \"#utility.yul\":7333:7407   */\n      swap2\n      pop\n        /* \"#utility.yul\":7416:7509   */\n      tag_480\n        /* \"#utility.yul\":7505:7508   */\n      dup3\n        /* \"#utility.yul\":7416:7509   */\n      tag_481\n      jump\t// in\n    tag_480:\n        /* \"#utility.yul\":7534:7536   */\n      0x20\n        /* \"#utility.yul\":7529:7532   */\n      dup3\n        /* \"#utility.yul\":7525:7537   */\n      add\n        /* \"#utility.yul\":7518:7537   */\n      swap1\n      pop\n        /* \"#utility.yul\":7177:7543   */\n      swap2\n      swap1\n      pop\n      jump\t// out\n        /* \"#utility.yul\":7549:7915   */\n    tag_482:\n        /* \"#utility.yul\":7691:7694   */\n      0x00\n        /* \"#utility.yul\":7712:7779   */\n      tag_484\n        /* \"#utility.yul\":7776:7778   */\n      0x1c\n        /* \"#utility.yul\":7771:7774   */\n      dup4\n        /* \"#utility.yul\":7712:7779   */\n      tag_462\n      jump\t// in\n    tag_484:\n        /* \"#utility.yul\":7705:7779   */\n      swap2\n      pop\n        /* \"#utility.yul\":7788:7881   */\n      tag_485\n        /* \"#utility.yul\":7877:7880   */\n      dup3\n        /* \"#utility.yul\":7788:7881   */\n      tag_486\n      jump\t// in\n    tag_485:\n        /* \"#utility.yul\":7906:7908   */\n      0x20\n        /* \"#utility.yul\":7901:7904   */\n      dup3\n        /* \"#utility.yul\":7897:7909   */\n      add\n        /* \"#utility.yul\":7890:7909   */\n      swap1\n      pop\n        /* \"#utility.yul\":7549:7915   */\n      swap2\n      swap1\n      pop\n      jump\t// out\n        /* \"#utility.yul\":7921:8287   */\n    tag_487:\n        /* \"#utility.yul\":8063:8066   */\n      0x00\n        /* \"#utility.yul\":8084:8151   */\n      tag_489\n        /* \"#utility.yul\":8148:8150   */\n      0x17\n        /* \"#utility.yul\":8143:8146   */\n      dup4\n        /* \"#utility.yul\":8084:8151   */\n      tag_462\n      jump\t// in\n    tag_489:\n        /* \"#utility.yul\":8077:8151   */\n      swap2\n      pop\n        /* \"#utility.yul\":8160:8253   */\n      tag_490\n        /* \"#utility.yul\":8249:8252   */\n      dup3\n        /* \"#utility.yul\":8160:8253   */\n      tag_491\n      jump\t// in\n    tag_490:\n        /* \"#utility.yul\":8278:8280   */\n      0x20\n        /* \"#utility.yul\":8273:8276   */\n      dup3\n        /* \"#utility.yul\":8269:8281   */\n      add\n        /* \"#utility.yul\":8262:8281   */\n      swap1\n      pop\n        /* \"#utility.yul\":7921:8287   */\n      swap2\n      swap1\n      pop\n      jump\t// out\n        /* \"#utility.yul\":8293:8659   */\n    tag_492:\n        /* \"#utility.yul\":8435:8438   */\n      0x00\n        /* \"#utility.yul\":8456:8523   */\n      tag_494\n        /* \"#utility.yul\":8520:8522   */\n      0x15\n        /* \"#utility.yul\":8515:8518   */\n      dup4\n        /* \"#utility.yul\":8456:8523   */\n      tag_462\n      jump\t// in\n    tag_494:\n        /* \"#utility.yul\":8449:8523   */\n      swap2\n      pop\n        /* \"#utility.yul\":8532:8625   */\n      tag_495\n        /* \"#utility.yul\":8621:8624   */\n      dup3\n        /* \"#utility.yul\":8532:8625   */\n      tag_496\n      jump\t// in\n    tag_495:\n        /* \"#utility.yul\":8650:8652   */\n      0x20\n        /* \"#utility.yul\":8645:8648   */\n      dup3\n        /* \"#utility.yul\":8641:8653   */\n      add\n        /* \"#utility.yul\":8634:8653   */\n      swap1\n      pop\n        /* \"#utility.yul\":8293:8659   */\n      swap2\n      swap1\n      pop\n      jump\t// out\n        /* \"#utility.yul\":8665:9031   */\n    tag_497:\n        /* \"#utility.yul\":8807:8810   */\n      0x00\n        /* \"#utility.yul\":8828:8895   */\n      tag_499\n        /* \"#utility.yul\":8892:8894   */\n      0x15\n        /* \"#utility.yul\":8887:8890   */\n      dup4\n        /* \"#utility.yul\":8828:8895   */\n      tag_462\n      jump\t// in\n    tag_499:\n        /* \"#utility.yul\":8821:8895   */\n      swap2\n      pop\n        /* \"#utility.yul\":8904:8997   */\n      tag_500\n        /* \"#utility.yul\":8993:8996   */\n      dup3\n        /* \"#utility.yul\":8904:8997   */\n      tag_501\n      jump\t// in\n    tag_500:\n        /* \"#utility.yul\":9022:9024   */\n      0x20\n        /* \"#utility.yul\":9017:9020   */\n      dup3\n        /* \"#utility.yul\":9013:9025   */\n      add\n        /* \"#utility.yul\":9006:9025   */\n      swap1\n      pop\n        /* \"#utility.yul\":8665:9031   */\n      swap2\n      swap1\n      pop\n      jump\t// out\n        /* \"#utility.yul\":9037:9403   */\n    tag_502:\n        /* \"#utility.yul\":9179:9182   */\n      0x00\n        /* \"#utility.yul\":9200:9267   */\n      tag_504\n        /* \"#utility.yul\":9264:9266   */\n      0x14\n        /* \"#utility.yul\":9259:9262   */\n      dup4\n        /* \"#utility.yul\":9200:9267   */\n      tag_462\n      jump\t// in\n    tag_504:\n        /* \"#utility.yul\":9193:9267   */\n      swap2\n      pop\n        /* \"#utility.yul\":9276:9369   */\n      tag_505\n        /* \"#utility.yul\":9365:9368   */\n      dup3\n        /* \"#utility.yul\":9276:9369   */\n      tag_506\n      jump\t// in\n    tag_505:\n        /* \"#utility.yul\":9394:9396   */\n      0x20\n        /* \"#utility.yul\":9389:9392   */\n      dup3\n        /* \"#utility.yul\":9385:9397   */\n      add\n        /* \"#utility.yul\":9378:9397   */\n      swap1\n      pop\n        /* \"#utility.yul\":9037:9403   */\n      swap2\n      swap1\n      pop\n      jump\t// out\n        /* \"#utility.yul\":9409:9775   */\n    tag_507:\n        /* \"#utility.yul\":9551:9554   */\n      0x00\n        /* \"#utility.yul\":9572:9639   */\n      tag_509\n        /* \"#utility.yul\":9636:9638   */\n      0x1a\n        /* \"#utility.yul\":9631:9634   */\n      dup4\n        /* \"#utility.yul\":9572:9639   */\n      tag_462\n      jump\t// in\n    tag_509:\n        /* \"#utility.yul\":9565:9639   */\n      swap2\n      pop\n        /* \"#utility.yul\":9648:9741   */\n      tag_510\n        /* \"#utility.yul\":9737:9740   */\n      dup3\n        /* \"#utility.yul\":9648:9741   */\n      tag_511\n      jump\t// in\n    tag_510:\n        /* \"#utility.yul\":9766:9768   */\n      0x20\n        /* \"#utility.yul\":9761:9764   */\n      dup3\n        /* \"#utility.yul\":9757:9769   */\n      add\n        /* \"#utility.yul\":9750:9769   */\n      swap1\n      pop\n        /* \"#utility.yul\":9409:9775   */\n      swap2\n      swap1\n      pop\n      jump\t// out\n        /* \"#utility.yul\":9781:10147   */\n    tag_512:\n        /* \"#utility.yul\":9923:9926   */\n      0x00\n        /* \"#utility.yul\":9944:10011   */\n      tag_514\n        /* \"#utility.yul\":10008:10010   */\n      0x1c\n        /* \"#utility.yul\":10003:10006   */\n      dup4\n        /* \"#utility.yul\":9944:10011   */\n      tag_462\n      jump\t// in\n    tag_514:\n        /* \"#utility.yul\":9937:10011   */\n      swap2\n      pop\n        /* \"#utility.yul\":10020:10113   */\n      tag_515\n        /* \"#utility.yul\":10109:10112   */\n      dup3\n        /* \"#utility.yul\":10020:10113   */\n      tag_516\n      jump\t// in\n    tag_515:\n        /* \"#utility.yul\":10138:10140   */\n      0x20\n        /* \"#utility.yul\":10133:10136   */\n      dup3\n        /* \"#utility.yul\":10129:10141   */\n      add\n        /* \"#utility.yul\":10122:10141   */\n      swap1\n      pop\n        /* \"#utility.yul\":9781:10147   */\n      swap2\n      swap1\n      pop\n      jump\t// out\n        /* \"#utility.yul\":10153:10519   */\n    tag_517:\n        /* \"#utility.yul\":10295:10298   */\n      0x00\n        /* \"#utility.yul\":10316:10383   */\n      tag_519\n        /* \"#utility.yul\":10380:10382   */\n      0x14\n        /* \"#utility.yul\":10375:10378   */\n      dup4\n        /* \"#utility.yul\":10316:10383   */\n      tag_462\n      jump\t// in\n    tag_519:\n        /* \"#utility.yul\":10309:10383   */\n      swap2\n      pop\n        /* \"#utility.yul\":10392:10485   */\n      tag_520\n        /* \"#utility.yul\":10481:10484   */\n      dup3\n        /* \"#utility.yul\":10392:10485   */\n      tag_521\n      jump\t// in\n    tag_520:\n        /* \"#utility.yul\":10510:10512   */\n      0x20\n        /* \"#utility.yul\":10505:10508   */\n      dup3\n        /* \"#utility.yul\":10501:10513   */\n      add\n        /* \"#utility.yul\":10494:10513   */\n      swap1\n      pop\n        /* \"#utility.yul\":10153:10519   */\n      swap2\n      swap1\n      pop\n      jump\t// out\n        /* \"#utility.yul\":10525:10891   */\n    tag_522:\n        /* \"#utility.yul\":10667:10670   */\n      0x00\n        /* \"#utility.yul\":10688:10755   */\n      tag_524\n        /* \"#utility.yul\":10752:10754   */\n      0x10\n        /* \"#utility.yul\":10747:10750   */\n      dup4\n        /* \"#utility.yul\":10688:10755   */\n      tag_462\n      jump\t// in\n    tag_524:\n        /* \"#utility.yul\":10681:10755   */\n      swap2\n      pop\n        /* \"#utility.yul\":10764:10857   */\n      tag_525\n        /* \"#utility.yul\":10853:10856   */\n      dup3\n        /* \"#utility.yul\":10764:10857   */\n      tag_526\n      jump\t// in\n    tag_525:\n        /* \"#utility.yul\":10882:10884   */\n      0x20\n        /* \"#utility.yul\":10877:10880   */\n      dup3\n        /* \"#utility.yul\":10873:10885   */\n      add\n        /* \"#utility.yul\":10866:10885   */\n      swap1\n      pop\n        /* \"#utility.yul\":10525:10891   */\n      swap2\n      swap1\n      pop\n      jump\t// out\n        /* \"#utility.yul\":10897:11263   */\n    tag_527:\n        /* \"#utility.yul\":11039:11042   */\n      0x00\n        /* \"#utility.yul\":11060:11127   */\n      tag_529\n        /* \"#utility.yul\":11124:11126   */\n      0x12\n        /* \"#utility.yul\":11119:11122   */\n      dup4\n        /* \"#utility.yul\":11060:11127   */\n      tag_462\n      jump\t// in\n    tag_529:\n        /* \"#utility.yul\":11053:11127   */\n      swap2\n      pop\n        /* \"#utility.yul\":11136:11229   */\n      tag_530\n        /* \"#utility.yul\":11225:11228   */\n      dup3\n        /* \"#utility.yul\":11136:11229   */\n      tag_531\n      jump\t// in\n    tag_530:\n        /* \"#utility.yul\":11254:11256   */\n      0x20\n        /* \"#utility.yul\":11249:11252   */\n      dup3\n        /* \"#utility.yul\":11245:11257   */\n      add\n        /* \"#utility.yul\":11238:11257   */\n      swap1\n      pop\n        /* \"#utility.yul\":10897:11263   */\n      swap2\n      swap1\n      pop\n      jump\t// out\n        /* \"#utility.yul\":11269:11377   */\n    tag_406:\n        /* \"#utility.yul\":11346:11370   */\n      tag_533\n        /* \"#utility.yul\":11364:11369   */\n      dup2\n        /* \"#utility.yul\":11346:11370   */\n      tag_534\n      jump\t// in\n    tag_533:\n        /* \"#utility.yul\":11341:11344   */\n      dup3\n        /* \"#utility.yul\":11334:11371   */\n      mstore\n        /* \"#utility.yul\":11269:11377   */\n      pop\n      pop\n      jump\t// out\n        /* \"#utility.yul\":11383:11501   */\n    tag_535:\n        /* \"#utility.yul\":11470:11494   */\n      tag_537\n        /* \"#utility.yul\":11488:11493   */\n      dup2\n        /* \"#utility.yul\":11470:11494   */\n      tag_534\n      jump\t// in\n    tag_537:\n        /* \"#utility.yul\":11465:11468   */\n      dup3\n        /* \"#utility.yul\":11458:11495   */\n      mstore\n        /* \"#utility.yul\":11383:11501   */\n      pop\n      pop\n      jump\t// out\n        /* \"#utility.yul\":11507:11729   */\n    tag_97:\n        /* \"#utility.yul\":11600:11604   */\n      0x00\n        /* \"#utility.yul\":11638:11640   */\n      0x20\n        /* \"#utility.yul\":11627:11636   */\n      dup3\n        /* \"#utility.yul\":11623:11641   */\n      add\n        /* \"#utility.yul\":11615:11641   */\n      swap1\n      pop\n        /* \"#utility.yul\":11651:11722   */\n      tag_539\n        /* \"#utility.yul\":11719:11720   */\n      0x00\n        /* \"#utility.yul\":11708:11717   */\n      dup4\n        /* \"#utility.yul\":11704:11721   */\n      add\n        /* \"#utility.yul\":11695:11701   */\n      dup5\n        /* \"#utility.yul\":11651:11722   */\n      tag_414\n      jump\t// in\n    tag_539:\n        /* \"#utility.yul\":11507:11729   */\n      swap3\n      swap2\n      pop\n      pop\n      jump\t// out\n        /* \"#utility.yul\":11735:11989   */\n    tag_71:\n        /* \"#utility.yul\":11844:11848   */\n      0x00\n        /* \"#utility.yul\":11882:11884   */\n      0x20\n        /* \"#utility.yul\":11871:11880   */\n      dup3\n        /* \"#utility.yul\":11867:11885   */\n      add\n        /* \"#utility.yul\":11859:11885   */\n      swap1\n      pop\n        /* \"#utility.yul\":11895:11982   */\n      tag_541\n        /* \"#utility.yul\":11979:11980   */\n      0x00\n        /* \"#utility.yul\":11968:11977   */\n      dup4\n        /* \"#utility.yul\":11964:11981   */\n      add\n        /* \"#utility.yul\":11955:11961   */\n      dup5\n        /* \"#utility.yul\":11895:11982   */\n      tag_407\n      jump\t// in\n    tag_541:\n        /* \"#utility.yul\":11735:11989   */\n      swap3\n      swap2\n      pop\n      pop\n      jump\t// out\n        /* \"#utility.yul\":11995:12368   */\n    tag_107:\n        /* \"#utility.yul\":12138:12142   */\n      0x00\n        /* \"#utility.yul\":12176:12178   */\n      0x20\n        /* \"#utility.yul\":12165:12174   */\n      dup3\n        /* \"#utility.yul\":12161:12179   */\n      add\n        /* \"#utility.yul\":12153:12179   */\n      swap1\n      pop\n        /* \"#utility.yul\":12225:12234   */\n      dup2\n        /* \"#utility.yul\":12219:12223   */\n      dup2\n        /* \"#utility.yul\":12215:12235   */\n      sub\n        /* \"#utility.yul\":12211:12212   */\n      0x00\n        /* \"#utility.yul\":12200:12209   */\n      dup4\n        /* \"#utility.yul\":12196:12213   */\n      add\n        /* \"#utility.yul\":12189:12236   */\n      mstore\n        /* \"#utility.yul\":12253:12361   */\n      tag_543\n        /* \"#utility.yul\":12356:12360   */\n      dup2\n        /* \"#utility.yul\":12347:12353   */\n      dup5\n        /* \"#utility.yul\":12253:12361   */\n      tag_417\n      jump\t// in\n    tag_543:\n        /* \"#utility.yul\":12245:12361   */\n      swap1\n      pop\n        /* \"#utility.yul\":11995:12368   */\n      swap3\n      swap2\n      pop\n      pop\n      jump\t// out\n        /* \"#utility.yul\":12374:12747   */\n    tag_131:\n        /* \"#utility.yul\":12517:12521   */\n      0x00\n        /* \"#utility.yul\":12555:12557   */\n      0x20\n        /* \"#utility.yul\":12544:12553   */\n      dup3\n        /* \"#utility.yul\":12540:12558   */\n      add\n        /* \"#utility.yul\":12532:12558   */\n      swap1\n      pop\n        /* \"#utility.yul\":12604:12613   */\n      dup2\n        /* \"#utility.yul\":12598:12602   */\n      dup2\n        /* \"#utility.yul\":12594:12614   */\n      sub\n        /* \"#utility.yul\":12590:12591   */\n      0x00\n        /* \"#utility.yul\":12579:12588   */\n      dup4\n        /* \"#utility.yul\":12575:12592   */\n      add\n        /* \"#utility.yul\":12568:12615   */\n      mstore\n        /* \"#utility.yul\":12632:12740   */\n      tag_545\n        /* \"#utility.yul\":12735:12739   */\n      dup2\n        /* \"#utility.yul\":12726:12732   */\n      dup5\n        /* \"#utility.yul\":12632:12740   */\n      tag_431\n      jump\t// in\n    tag_545:\n        /* \"#utility.yul\":12624:12740   */\n      swap1\n      pop\n        /* \"#utility.yul\":12374:12747   */\n      swap3\n      swap2\n      pop\n      pop\n      jump\t// out\n        /* \"#utility.yul\":12753:12987   */\n    tag_66:\n        /* \"#utility.yul\":12852:12856   */\n      0x00\n        /* \"#utility.yul\":12890:12892   */\n      0x20\n        /* \"#utility.yul\":12879:12888   */\n      dup3\n        /* \"#utility.yul\":12875:12893   */\n      add\n        /* \"#utility.yul\":12867:12893   */\n      swap1\n      pop\n        /* \"#utility.yul\":12903:12980   */\n      tag_547\n        /* \"#utility.yul\":12977:12978   */\n      0x00\n        /* \"#utility.yul\":12966:12975   */\n      dup4\n        /* \"#utility.yul\":12962:12979   */\n      add\n        /* \"#utility.yul\":12953:12959   */\n      dup5\n        /* \"#utility.yul\":12903:12980   */\n      tag_453\n      jump\t// in\n    tag_547:\n        /* \"#utility.yul\":12753:12987   */\n      swap3\n      swap2\n      pop\n      pop\n      jump\t// out\n        /* \"#utility.yul\":12993:13306   */\n    tag_46:\n        /* \"#utility.yul\":13106:13110   */\n      0x00\n        /* \"#utility.yul\":13144:13146   */\n      0x20\n        /* \"#utility.yul\":13133:13142   */\n      dup3\n        /* \"#utility.yul\":13129:13147   */\n      add\n        /* \"#utility.yul\":13121:13147   */\n      swap1\n      pop\n        /* \"#utility.yul\":13193:13202   */\n      dup2\n        /* \"#utility.yul\":13187:13191   */\n      dup2\n        /* \"#utility.yul\":13183:13203   */\n      sub\n        /* \"#utility.yul\":13179:13180   */\n      0x00\n        /* \"#utility.yul\":13168:13177   */\n      dup4\n        /* \"#utility.yul\":13164:13181   */\n      add\n        /* \"#utility.yul\":13157:13204   */\n      mstore\n        /* \"#utility.yul\":13221:13299   */\n      tag_549\n        /* \"#utility.yul\":13294:13298   */\n      dup2\n        /* \"#utility.yul\":13285:13291   */\n      dup5\n        /* \"#utility.yul\":13221:13299   */\n      tag_457\n      jump\t// in\n    tag_549:\n        /* \"#utility.yul\":13213:13299   */\n      swap1\n      pop\n        /* \"#utility.yul\":12993:13306   */\n      swap3\n      swap2\n      pop\n      pop\n      jump\t// out\n        /* \"#utility.yul\":13312:14240   */\n    tag_88:\n        /* \"#utility.yul\":13596:13600   */\n      0x00\n        /* \"#utility.yul\":13634:13637   */\n      0xc0\n        /* \"#utility.yul\":13623:13632   */\n      dup3\n        /* \"#utility.yul\":13619:13638   */\n      add\n        /* \"#utility.yul\":13611:13638   */\n      swap1\n      pop\n        /* \"#utility.yul\":13684:13693   */\n      dup2\n        /* \"#utility.yul\":13678:13682   */\n      dup2\n        /* \"#utility.yul\":13674:13694   */\n      sub\n        /* \"#utility.yul\":13670:13671   */\n      0x00\n        /* \"#utility.yul\":13659:13668   */\n      dup4\n        /* \"#utility.yul\":13655:13672   */\n      add\n        /* \"#utility.yul\":13648:13695   */\n      mstore\n        /* \"#utility.yul\":13712:13790   */\n      tag_551\n        /* \"#utility.yul\":13785:13789   */\n      dup2\n        /* \"#utility.yul\":13776:13782   */\n      dup10\n        /* \"#utility.yul\":13712:13790   */\n      tag_457\n      jump\t// in\n    tag_551:\n        /* \"#utility.yul\":13704:13790   */\n      swap1\n      pop\n        /* \"#utility.yul\":13800:13887   */\n      tag_552\n        /* \"#utility.yul\":13883:13885   */\n      0x20\n        /* \"#utility.yul\":13872:13881   */\n      dup4\n        /* \"#utility.yul\":13868:13886   */\n      add\n        /* \"#utility.yul\":13859:13865   */\n      dup9\n        /* \"#utility.yul\":13800:13887   */\n      tag_449\n      jump\t// in\n    tag_552:\n        /* \"#utility.yul\":13897:13969   */\n      tag_553\n        /* \"#utility.yul\":13965:13967   */\n      0x40\n        /* \"#utility.yul\":13954:13963   */\n      dup4\n        /* \"#utility.yul\":13950:13968   */\n      add\n        /* \"#utility.yul\":13941:13947   */\n      dup8\n        /* \"#utility.yul\":13897:13969   */\n      tag_535\n      jump\t// in\n    tag_553:\n        /* \"#utility.yul\":13979:14067   */\n      tag_554\n        /* \"#utility.yul\":14063:14065   */\n      0x60\n        /* \"#utility.yul\":14052:14061   */\n      dup4\n        /* \"#utility.yul\":14048:14066   */\n      add\n        /* \"#utility.yul\":14039:14045   */\n      dup7\n        /* \"#utility.yul\":13979:14067   */\n      tag_407\n      jump\t// in\n    tag_554:\n        /* \"#utility.yul\":14077:14150   */\n      tag_555\n        /* \"#utility.yul\":14145:14148   */\n      0x80\n        /* \"#utility.yul\":14134:14143   */\n      dup4\n        /* \"#utility.yul\":14130:14149   */\n      add\n        /* \"#utility.yul\":14121:14127   */\n      dup6\n        /* \"#utility.yul\":14077:14150   */\n      tag_535\n      jump\t// in\n    tag_555:\n        /* \"#utility.yul\":14160:14233   */\n      tag_556\n        /* \"#utility.yul\":14228:14231   */\n      0xa0\n        /* \"#utility.yul\":14217:14226   */\n      dup4\n        /* \"#utility.yul\":14213:14232   */\n      add\n        /* \"#utility.yul\":14204:14210   */\n      dup5\n        /* \"#utility.yul\":14160:14233   */\n      tag_535\n      jump\t// in\n    tag_556:\n        /* \"#utility.yul\":13312:14240   */\n      swap8\n      swap7\n      pop\n      pop\n      pop\n      pop\n      pop\n      pop\n      pop\n      jump\t// out\n        /* \"#utility.yul\":14246:14767   */\n    tag_113:\n        /* \"#utility.yul\":14409:14413   */\n      0x00\n        /* \"#utility.yul\":14447:14449   */\n      0x60\n        /* \"#utility.yul\":14436:14445   */\n      dup3\n        /* \"#utility.yul\":14432:14450   */\n      add\n        /* \"#utility.yul\":14424:14450   */\n      swap1\n      pop\n        /* \"#utility.yul\":14496:14505   */\n      dup2\n        /* \"#utility.yul\":14490:14494   */\n      dup2\n        /* \"#utility.yul\":14486:14506   */\n      sub\n        /* \"#utility.yul\":14482:14483   */\n      0x00\n        /* \"#utility.yul\":14471:14480   */\n      dup4\n        /* \"#utility.yul\":14467:14484   */\n      add\n        /* \"#utility.yul\":14460:14507   */\n      mstore\n        /* \"#utility.yul\":14524:14602   */\n      tag_558\n        /* \"#utility.yul\":14597:14601   */\n      dup2\n        /* \"#utility.yul\":14588:14594   */\n      dup7\n        /* \"#utility.yul\":14524:14602   */\n      tag_457\n      jump\t// in\n    tag_558:\n        /* \"#utility.yul\":14516:14602   */\n      swap1\n      pop\n        /* \"#utility.yul\":14612:14684   */\n      tag_559\n        /* \"#utility.yul\":14680:14682   */\n      0x20\n        /* \"#utility.yul\":14669:14678   */\n      dup4\n        /* \"#utility.yul\":14665:14683   */\n      add\n        /* \"#utility.yul\":14656:14662   */\n      dup6\n        /* \"#utility.yul\":14612:14684   */\n      tag_535\n      jump\t// in\n    tag_559:\n        /* \"#utility.yul\":14694:14760   */\n      tag_560\n        /* \"#utility.yul\":14756:14758   */\n      0x40\n        /* \"#utility.yul\":14745:14754   */\n      dup4\n        /* \"#utility.yul\":14741:14759   */\n      add\n        /* \"#utility.yul\":14732:14738   */\n      dup5\n        /* \"#utility.yul\":14694:14760   */\n      tag_445\n      jump\t// in\n    tag_560:\n        /* \"#utility.yul\":14246:14767   */\n      swap5\n      swap4\n      pop\n      pop\n      pop\n      pop\n      jump\t// out\n        /* \"#utility.yul\":14773:15192   */\n    tag_231:\n        /* \"#utility.yul\":14939:14943   */\n      0x00\n        /* \"#utility.yul\":14977:14979   */\n      0x20\n        /* \"#utility.yul\":14966:14975   */\n      dup3\n        /* \"#utility.yul\":14962:14980   */\n      add\n        /* \"#utility.yul\":14954:14980   */\n      swap1\n      pop\n        /* \"#utility.yul\":15026:15035   */\n      dup2\n        /* \"#utility.yul\":15020:15024   */\n      dup2\n        /* \"#utility.yul\":15016:15036   */\n      sub\n        /* \"#utility.yul\":15012:15013   */\n      0x00\n        /* \"#utility.yul\":15001:15010   */\n      dup4\n        /* \"#utility.yul\":14997:15014   */\n      add\n        /* \"#utility.yul\":14990:15037   */\n      mstore\n        /* \"#utility.yul\":15054:15185   */\n      tag_562\n        /* \"#utility.yul\":15180:15184   */\n      dup2\n        /* \"#utility.yul\":15054:15185   */\n      tag_467\n      jump\t// in\n    tag_562:\n        /* \"#utility.yul\":15046:15185   */\n      swap1\n      pop\n        /* \"#utility.yul\":14773:15192   */\n      swap2\n      swap1\n      pop\n      jump\t// out\n        /* \"#utility.yul\":15198:15617   */\n    tag_149:\n        /* \"#utility.yul\":15364:15368   */\n      0x00\n        /* \"#utility.yul\":15402:15404   */\n      0x20\n        /* \"#utility.yul\":15391:15400   */\n      dup3\n        /* \"#utility.yul\":15387:15405   */\n      add\n        /* \"#utility.yul\":15379:15405   */\n      swap1\n      pop\n        /* \"#utility.yul\":15451:15460   */\n      dup2\n        /* \"#utility.yul\":15445:15449   */\n      dup2\n        /* \"#utility.yul\":15441:15461   */\n      sub\n        /* \"#utility.yul\":15437:15438   */\n      0x00\n        /* \"#utility.yul\":15426:15435   */\n      dup4\n        /* \"#utility.yul\":15422:15439   */\n      add\n        /* \"#utility.yul\":15415:15462   */\n      mstore\n        /* \"#utility.yul\":15479:15610   */\n      tag_564\n        /* \"#utility.yul\":15605:15609   */\n      dup2\n        /* \"#utility.yul\":15479:15610   */\n      tag_472\n      jump\t// in\n    tag_564:\n        /* \"#utility.yul\":15471:15610   */\n      swap1\n      pop\n        /* \"#utility.yul\":15198:15617   */\n      swap2\n      swap1\n      pop\n      jump\t// out\n        /* \"#utility.yul\":15623:16042   */\n    tag_157:\n        /* \"#utility.yul\":15789:15793   */\n      0x00\n        /* \"#utility.yul\":15827:15829   */\n      0x20\n        /* \"#utility.yul\":15816:15825   */\n      dup3\n        /* \"#utility.yul\":15812:15830   */\n      add\n        /* \"#utility.yul\":15804:15830   */\n      swap1\n      pop\n        /* \"#utility.yul\":15876:15885   */\n      dup2\n        /* \"#utility.yul\":15870:15874   */\n      dup2\n        /* \"#utility.yul\":15866:15886   */\n      sub\n        /* \"#utility.yul\":15862:15863   */\n      0x00\n        /* \"#utility.yul\":15851:15860   */\n      dup4\n        /* \"#utility.yul\":15847:15864   */\n      add\n        /* \"#utility.yul\":15840:15887   */\n      mstore\n        /* \"#utility.yul\":15904:16035   */\n      tag_566\n        /* \"#utility.yul\":16030:16034   */\n      dup2\n        /* \"#utility.yul\":15904:16035   */\n      tag_477\n      jump\t// in\n    tag_566:\n        /* \"#utility.yul\":15896:16035   */\n      swap1\n      pop\n        /* \"#utility.yul\":15623:16042   */\n      swap2\n      swap1\n      pop\n      jump\t// out\n        /* \"#utility.yul\":16048:16467   */\n    tag_308:\n        /* \"#utility.yul\":16214:16218   */\n      0x00\n        /* \"#utility.yul\":16252:16254   */\n      0x20\n        /* \"#utility.yul\":16241:16250   */\n      dup3\n        /* \"#utility.yul\":16237:16255   */\n      add\n        /* \"#utility.yul\":16229:16255   */\n      swap1\n      pop\n        /* \"#utility.yul\":16301:16310   */\n      dup2\n        /* \"#utility.yul\":16295:16299   */\n      dup2\n        /* \"#utility.yul\":16291:16311   */\n      sub\n        /* \"#utility.yul\":16287:16288   */\n      0x00\n        /* \"#utility.yul\":16276:16285   */\n      dup4\n        /* \"#utility.yul\":16272:16289   */\n      add\n        /* \"#utility.yul\":16265:16312   */\n      mstore\n        /* \"#utility.yul\":16329:16460   */\n      tag_568\n        /* \"#utility.yul\":16455:16459   */\n      dup2\n        /* \"#utility.yul\":16329:16460   */\n      tag_482\n      jump\t// in\n    tag_568:\n        /* \"#utility.yul\":16321:16460   */\n      swap1\n      pop\n        /* \"#utility.yul\":16048:16467   */\n      swap2\n      swap1\n      pop\n      jump\t// out\n        /* \"#utility.yul\":16473:16892   */\n    tag_235:\n        /* \"#utility.yul\":16639:16643   */\n      0x00\n        /* \"#utility.yul\":16677:16679   */\n      0x20\n        /* \"#utility.yul\":16666:16675   */\n      dup3\n        /* \"#utility.yul\":16662:16680   */\n      add\n        /* \"#utility.yul\":16654:16680   */\n      swap1\n      pop\n        /* \"#utility.yul\":16726:16735   */\n      dup2\n        /* \"#utility.yul\":16720:16724   */\n      dup2\n        /* \"#utility.yul\":16716:16736   */\n      sub\n        /* \"#utility.yul\":16712:16713   */\n      0x00\n        /* \"#utility.yul\":16701:16710   */\n      dup4\n        /* \"#utility.yul\":16697:16714   */\n      add\n        /* \"#utility.yul\":16690:16737   */\n      mstore\n        /* \"#utility.yul\":16754:16885   */\n      tag_570\n        /* \"#utility.yul\":16880:16884   */\n      dup2\n        /* \"#utility.yul\":16754:16885   */\n      tag_487\n      jump\t// in\n    tag_570:\n        /* \"#utility.yul\":16746:16885   */\n      swap1\n      pop\n        /* \"#utility.yul\":16473:16892   */\n      swap2\n      swap1\n      pop\n      jump\t// out\n        /* \"#utility.yul\":16898:17317   */\n    tag_214:\n        /* \"#utility.yul\":17064:17068   */\n      0x00\n        /* \"#utility.yul\":17102:17104   */\n      0x20\n        /* \"#utility.yul\":17091:17100   */\n      dup3\n        /* \"#utility.yul\":17087:17105   */\n      add\n        /* \"#utility.yul\":17079:17105   */\n      swap1\n      pop\n        /* \"#utility.yul\":17151:17160   */\n      dup2\n        /* \"#utility.yul\":17145:17149   */\n      dup2\n        /* \"#utility.yul\":17141:17161   */\n      sub\n        /* \"#utility.yul\":17137:17138   */\n      0x00\n        /* \"#utility.yul\":17126:17135   */\n      dup4\n        /* \"#utility.yul\":17122:17139   */\n      add\n        /* \"#utility.yul\":17115:17162   */\n      mstore\n        /* \"#utility.yul\":17179:17310   */\n      tag_572\n        /* \"#utility.yul\":17305:17309   */\n      dup2\n        /* \"#utility.yul\":17179:17310   */\n      tag_492\n      jump\t// in\n    tag_572:\n        /* \"#utility.yul\":17171:17310   */\n      swap1\n      pop\n        /* \"#utility.yul\":16898:17317   */\n      swap2\n      swap1\n      pop\n      jump\t// out\n        /* \"#utility.yul\":17323:17742   */\n    tag_250:\n        /* \"#utility.yul\":17489:17493   */\n      0x00\n        /* \"#utility.yul\":17527:17529   */\n      0x20\n        /* \"#utility.yul\":17516:17525   */\n      dup3\n        /* \"#utility.yul\":17512:17530   */\n      add\n        /* \"#utility.yul\":17504:17530   */\n      swap1\n      pop\n        /* \"#utility.yul\":17576:17585   */\n      dup2\n        /* \"#utility.yul\":17570:17574   */\n      dup2\n        /* \"#utility.yul\":17566:17586   */\n      sub\n        /* \"#utility.yul\":17562:17563   */\n      0x00\n        /* \"#utility.yul\":17551:17560   */\n      dup4\n        /* \"#utility.yul\":17547:17564   */\n      add\n        /* \"#utility.yul\":17540:17587   */\n      mstore\n        /* \"#utility.yul\":17604:17735   */\n      tag_574\n        /* \"#utility.yul\":17730:17734   */\n      dup2\n        /* \"#utility.yul\":17604:17735   */\n      tag_497\n      jump\t// in\n    tag_574:\n        /* \"#utility.yul\":17596:17735   */\n      swap1\n      pop\n        /* \"#utility.yul\":17323:17742   */\n      swap2\n      swap1\n      pop\n      jump\t// out\n        /* \"#utility.yul\":17748:18167   */\n    tag_179:\n        /* \"#utility.yul\":17914:17918   */\n      0x00\n        /* \"#utility.yul\":17952:17954   */\n      0x20\n        /* \"#utility.yul\":17941:17950   */\n      dup3\n        /* \"#utility.yul\":17937:17955   */\n      add\n        /* \"#utility.yul\":17929:17955   */\n      swap1\n      pop\n        /* \"#utility.yul\":18001:18010   */\n      dup2\n        /* \"#utility.yul\":17995:17999   */\n      dup2\n        /* \"#utility.yul\":17991:18011   */\n      sub\n        /* \"#utility.yul\":17987:17988   */\n      0x00\n        /* \"#utility.yul\":17976:17985   */\n      dup4\n        /* \"#utility.yul\":17972:17989   */\n      add\n        /* \"#utility.yul\":17965:18012   */\n      mstore\n        /* \"#utility.yul\":18029:18160   */\n      tag_576\n        /* \"#utility.yul\":18155:18159   */\n      dup2\n        /* \"#utility.yul\":18029:18160   */\n      tag_502\n      jump\t// in\n    tag_576:\n        /* \"#utility.yul\":18021:18160   */\n      swap1\n      pop\n        /* \"#utility.yul\":17748:18167   */\n      swap2\n      swap1\n      pop\n      jump\t// out\n        /* \"#utility.yul\":18173:18592   */\n    tag_186:\n        /* \"#utility.yul\":18339:18343   */\n      0x00\n        /* \"#utility.yul\":18377:18379   */\n      0x20\n        /* \"#utility.yul\":18366:18375   */\n      dup3\n        /* \"#utility.yul\":18362:18380   */\n      add\n        /* \"#utility.yul\":18354:18380   */\n      swap1\n      pop\n        /* \"#utility.yul\":18426:18435   */\n      dup2\n        /* \"#utility.yul\":18420:18424   */\n      dup2\n        /* \"#utility.yul\":18416:18436   */\n      sub\n        /* \"#utility.yul\":18412:18413   */\n      0x00\n        /* \"#utility.yul\":18401:18410   */\n      dup4\n        /* \"#utility.yul\":18397:18414   */\n      add\n        /* \"#utility.yul\":18390:18437   */\n      mstore\n        /* \"#utility.yul\":18454:18585   */\n      tag_578\n        /* \"#utility.yul\":18580:18584   */\n      dup2\n        /* \"#utility.yul\":18454:18585   */\n      tag_507\n      jump\t// in\n    tag_578:\n        /* \"#utility.yul\":18446:18585   */\n      swap1\n      pop\n        /* \"#utility.yul\":18173:18592   */\n      swap2\n      swap1\n      pop\n      jump\t// out\n        /* \"#utility.yul\":18598:19017   */\n    tag_311:\n        /* \"#utility.yul\":18764:18768   */\n      0x00\n        /* \"#utility.yul\":18802:18804   */\n      0x20\n        /* \"#utility.yul\":18791:18800   */\n      dup3\n        /* \"#utility.yul\":18787:18805   */\n      add\n        /* \"#utility.yul\":18779:18805   */\n      swap1\n      pop\n        /* \"#utility.yul\":18851:18860   */\n      dup2\n        /* \"#utility.yul\":18845:18849   */\n      dup2\n        /* \"#utility.yul\":18841:18861   */\n      sub\n        /* \"#utility.yul\":18837:18838   */\n      0x00\n        /* \"#utility.yul\":18826:18835   */\n      dup4\n        /* \"#utility.yul\":18822:18839   */\n      add\n        /* \"#utility.yul\":18815:18862   */\n      mstore\n        /* \"#utility.yul\":18879:19010   */\n      tag_580\n        /* \"#utility.yul\":19005:19009   */\n      dup2\n        /* \"#utility.yul\":18879:19010   */\n      tag_512\n      jump\t// in\n    tag_580:\n        /* \"#utility.yul\":18871:19010   */\n      swap1\n      pop\n        /* \"#utility.yul\":18598:19017   */\n      swap2\n      swap1\n      pop\n      jump\t// out\n        /* \"#utility.yul\":19023:19442   */\n    tag_175:\n        /* \"#utility.yul\":19189:19193   */\n      0x00\n        /* \"#utility.yul\":19227:19229   */\n      0x20\n        /* \"#utility.yul\":19216:19225   */\n      dup3\n        /* \"#utility.yul\":19212:19230   */\n      add\n        /* \"#utility.yul\":19204:19230   */\n      swap1\n      pop\n        /* \"#utility.yul\":19276:19285   */\n      dup2\n        /* \"#utility.yul\":19270:19274   */\n      dup2\n        /* \"#utility.yul\":19266:19286   */\n      sub\n        /* \"#utility.yul\":19262:19263   */\n      0x00\n        /* \"#utility.yul\":19251:19260   */\n      dup4\n        /* \"#utility.yul\":19247:19264   */\n      add\n        /* \"#utility.yul\":19240:19287   */\n      mstore\n        /* \"#utility.yul\":19304:19435   */\n      tag_582\n        /* \"#utility.yul\":19430:19434   */\n      dup2\n        /* \"#utility.yul\":19304:19435   */\n      tag_517\n      jump\t// in\n    tag_582:\n        /* \"#utility.yul\":19296:19435   */\n      swap1\n      pop\n        /* \"#utility.yul\":19023:19442   */\n      swap2\n      swap1\n      pop\n      jump\t// out\n        /* \"#utility.yul\":19448:19867   */\n    tag_207:\n        /* \"#utility.yul\":19614:19618   */\n      0x00\n        /* \"#utility.yul\":19652:19654   */\n      0x20\n        /* \"#utility.yul\":19641:19650   */\n      dup3\n        /* \"#utility.yul\":19637:19655   */\n      add\n        /* \"#utility.yul\":19629:19655   */\n      swap1\n      pop\n        /* \"#utility.yul\":19701:19710   */\n      dup2\n        /* \"#utility.yul\":19695:19699   */\n      dup2\n        /* \"#utility.yul\":19691:19711   */\n      sub\n        /* \"#utility.yul\":19687:19688   */\n      0x00\n        /* \"#utility.yul\":19676:19685   */\n      dup4\n        /* \"#utility.yul\":19672:19689   */\n      add\n        /* \"#utility.yul\":19665:19712   */\n      mstore\n        /* \"#utility.yul\":19729:19860   */\n      tag_584\n        /* \"#utility.yul\":19855:19859   */\n      dup2\n        /* \"#utility.yul\":19729:19860   */\n      tag_522\n      jump\t// in\n    tag_584:\n        /* \"#utility.yul\":19721:19860   */\n      swap1\n      pop\n        /* \"#utility.yul\":19448:19867   */\n      swap2\n      swap1\n      pop\n      jump\t// out\n        /* \"#utility.yul\":19873:20292   */\n    tag_322:\n        /* \"#utility.yul\":20039:20043   */\n      0x00\n        /* \"#utility.yul\":20077:20079   */\n      0x20\n        /* \"#utility.yul\":20066:20075   */\n      dup3\n        /* \"#utility.yul\":20062:20080   */\n      add\n        /* \"#utility.yul\":20054:20080   */\n      swap1\n      pop\n        /* \"#utility.yul\":20126:20135   */\n      dup2\n        /* \"#utility.yul\":20120:20124   */\n      dup2\n        /* \"#utility.yul\":20116:20136   */\n      sub\n        /* \"#utility.yul\":20112:20113   */\n      0x00\n        /* \"#utility.yul\":20101:20110   */\n      dup4\n        /* \"#utility.yul\":20097:20114   */\n      add\n        /* \"#utility.yul\":20090:20137   */\n      mstore\n        /* \"#utility.yul\":20154:20285   */\n      tag_586\n        /* \"#utility.yul\":20280:20284   */\n      dup2\n        /* \"#utility.yul\":20154:20285   */\n      tag_527\n      jump\t// in\n    tag_586:\n        /* \"#utility.yul\":20146:20285   */\n      swap1\n      pop\n        /* \"#utility.yul\":19873:20292   */\n      swap2\n      swap1\n      pop\n      jump\t// out\n        /* \"#utility.yul\":20298:20520   */\n    tag_41:\n        /* \"#utility.yul\":20391:20395   */\n      0x00\n        /* \"#utility.yul\":20429:20431   */\n      0x20\n        /* \"#utility.yul\":20418:20427   */\n      dup3\n        /* \"#utility.yul\":20414:20432   */\n      add\n        /* \"#utility.yul\":20406:20432   */\n      swap1\n      pop\n        /* \"#utility.yul\":20442:20513   */\n      tag_588\n        /* \"#utility.yul\":20510:20511   */\n      0x00\n        /* \"#utility.yul\":20499:20508   */\n      dup4\n        /* \"#utility.yul\":20495:20512   */\n      add\n        /* \"#utility.yul\":20486:20492   */\n      dup5\n        /* \"#utility.yul\":20442:20513   */\n      tag_535\n      jump\t// in\n    tag_588:\n        /* \"#utility.yul\":20298:20520   */\n      swap3\n      swap2\n      pop\n      pop\n      jump\t// out\n        /* \"#utility.yul\":20526:20846   */\n    tag_201:\n        /* \"#utility.yul\":20641:20645   */\n      0x00\n        /* \"#utility.yul\":20679:20681   */\n      0x40\n        /* \"#utility.yul\":20668:20677   */\n      dup3\n        /* \"#utility.yul\":20664:20682   */\n      add\n        /* \"#utility.yul\":20656:20682   */\n      swap1\n      pop\n        /* \"#utility.yul\":20692:20763   */\n      tag_590\n        /* \"#utility.yul\":20760:20761   */\n      0x00\n        /* \"#utility.yul\":20749:20758   */\n      dup4\n        /* \"#utility.yul\":20745:20762   */\n      add\n        /* \"#utility.yul\":20736:20742   */\n      dup6\n        /* \"#utility.yul\":20692:20763   */\n      tag_535\n      jump\t// in\n    tag_590:\n        /* \"#utility.yul\":20773:20839   */\n      tag_591\n        /* \"#utility.yul\":20835:20837   */\n      0x20\n        /* \"#utility.yul\":20824:20833   */\n      dup4\n        /* \"#utility.yul\":20820:20838   */\n      add\n        /* \"#utility.yul\":20811:20817   */\n      dup5\n        /* \"#utility.yul\":20773:20839   */\n      tag_445\n      jump\t// in\n    tag_591:\n        /* \"#utility.yul\":20526:20846   */\n      swap4\n      swap3\n      pop\n      pop\n      pop\n      jump\t// out\n        /* \"#utility.yul\":20852:21184   */\n    tag_329:\n        /* \"#utility.yul\":20973:20977   */\n      0x00\n        /* \"#utility.yul\":21011:21013   */\n      0x40\n        /* \"#utility.yul\":21000:21009   */\n      dup3\n        /* \"#utility.yul\":20996:21014   */\n      add\n        /* \"#utility.yul\":20988:21014   */\n      swap1\n      pop\n        /* \"#utility.yul\":21024:21095   */\n      tag_593\n        /* \"#utility.yul\":21092:21093   */\n      0x00\n        /* \"#utility.yul\":21081:21090   */\n      dup4\n        /* \"#utility.yul\":21077:21094   */\n      add\n        /* \"#utility.yul\":21068:21074   */\n      dup6\n        /* \"#utility.yul\":21024:21095   */\n      tag_535\n      jump\t// in\n    tag_593:\n        /* \"#utility.yul\":21105:21177   */\n      tag_594\n        /* \"#utility.yul\":21173:21175   */\n      0x20\n        /* \"#utility.yul\":21162:21171   */\n      dup4\n        /* \"#utility.yul\":21158:21176   */\n      add\n        /* \"#utility.yul\":21149:21155   */\n      dup5\n        /* \"#utility.yul\":21105:21177   */\n      tag_535\n      jump\t// in\n    tag_594:\n        /* \"#utility.yul\":20852:21184   */\n      swap4\n      swap3\n      pop\n      pop\n      pop\n      jump\t// out\n        /* \"#utility.yul\":21190:21319   */\n    tag_348:\n        /* \"#utility.yul\":21224:21230   */\n      0x00\n        /* \"#utility.yul\":21251:21271   */\n      tag_596\n      tag_597\n      jump\t// in\n    tag_596:\n        /* \"#utility.yul\":21241:21271   */\n      swap1\n      pop\n        /* \"#utility.yul\":21280:21313   */\n      tag_598\n        /* \"#utility.yul\":21308:21312   */\n      dup3\n        /* \"#utility.yul\":21300:21306   */\n      dup3\n        /* \"#utility.yul\":21280:21313   */\n      tag_599\n      jump\t// in\n    tag_598:\n        /* \"#utility.yul\":21190:21319   */\n      swap2\n      swap1\n      pop\n      jump\t// out\n        /* \"#utility.yul\":21325:21400   */\n    tag_597:\n        /* \"#utility.yul\":21358:21364   */\n      0x00\n        /* \"#utility.yul\":21391:21393   */\n      0x40\n        /* \"#utility.yul\":21385:21394   */\n      mload\n        /* \"#utility.yul\":21375:21394   */\n      swap1\n      pop\n        /* \"#utility.yul\":21325:21400   */\n      swap1\n      jump\t// out\n        /* \"#utility.yul\":21406:21714   */\n    tag_347:\n        /* \"#utility.yul\":21468:21472   */\n      0x00\n        /* \"#utility.yul\":21558:21576   */\n      0xffffffffffffffff\n        /* \"#utility.yul\":21550:21556   */\n      dup3\n        /* \"#utility.yul\":21547:21577   */\n      gt\n        /* \"#utility.yul\":21544:21600   */\n      iszero\n      tag_602\n      jumpi\n        /* \"#utility.yul\":21580:21598   */\n      tag_603\n      tag_270\n      jump\t// in\n    tag_603:\n        /* \"#utility.yul\":21544:21600   */\n    tag_602:\n        /* \"#utility.yul\":21618:21647   */\n      tag_604\n        /* \"#utility.yul\":21640:21646   */\n      dup3\n        /* \"#utility.yul\":21618:21647   */\n      tag_466\n      jump\t// in\n    tag_604:\n        /* \"#utility.yul\":21610:21647   */\n      swap1\n      pop\n        /* \"#utility.yul\":21702:21706   */\n      0x20\n        /* \"#utility.yul\":21696:21700   */\n      dup2\n        /* \"#utility.yul\":21692:21707   */\n      add\n        /* \"#utility.yul\":21684:21707   */\n      swap1\n      pop\n        /* \"#utility.yul\":21406:21714   */\n      swap2\n      swap1\n      pop\n      jump\t// out\n        /* \"#utility.yul\":21720:21852   */\n    tag_424:\n        /* \"#utility.yul\":21787:21791   */\n      0x00\n        /* \"#utility.yul\":21810:21813   */\n      dup2\n        /* \"#utility.yul\":21802:21813   */\n      swap1\n      pop\n        /* \"#utility.yul\":21840:21844   */\n      0x20\n        /* \"#utility.yul\":21835:21838   */\n      dup3\n        /* \"#utility.yul\":21831:21845   */\n      add\n        /* \"#utility.yul\":21823:21845   */\n      swap1\n      pop\n        /* \"#utility.yul\":21720:21852   */\n      swap2\n      swap1\n      pop\n      jump\t// out\n        /* \"#utility.yul\":21858:21990   */\n    tag_438:\n        /* \"#utility.yul\":21925:21929   */\n      0x00\n        /* \"#utility.yul\":21948:21951   */\n      dup2\n        /* \"#utility.yul\":21940:21951   */\n      swap1\n      pop\n        /* \"#utility.yul\":21978:21982   */\n      0x20\n        /* \"#utility.yul\":21973:21976   */\n      dup3\n        /* \"#utility.yul\":21969:21983   */\n      add\n        /* \"#utility.yul\":21961:21983   */\n      swap1\n      pop\n        /* \"#utility.yul\":21858:21990   */\n      swap2\n      swap1\n      pop\n      jump\t// out\n        /* \"#utility.yul\":21996:22110   */\n    tag_420:\n        /* \"#utility.yul\":22063:22069   */\n      0x00\n        /* \"#utility.yul\":22097:22102   */\n      dup2\n        /* \"#utility.yul\":22091:22103   */\n      mload\n        /* \"#utility.yul\":22081:22103   */\n      swap1\n      pop\n        /* \"#utility.yul\":21996:22110   */\n      swap2\n      swap1\n      pop\n      jump\t// out\n        /* \"#utility.yul\":22116:22230   */\n    tag_434:\n        /* \"#utility.yul\":22183:22189   */\n      0x00\n        /* \"#utility.yul\":22217:22222   */\n      dup2\n        /* \"#utility.yul\":22211:22223   */\n      mload\n        /* \"#utility.yul\":22201:22223   */\n      swap1\n      pop\n        /* \"#utility.yul\":22116:22230   */\n      swap2\n      swap1\n      pop\n      jump\t// out\n        /* \"#utility.yul\":22236:22335   */\n    tag_460:\n        /* \"#utility.yul\":22288:22294   */\n      0x00\n        /* \"#utility.yul\":22322:22327   */\n      dup2\n        /* \"#utility.yul\":22316:22328   */\n      mload\n        /* \"#utility.yul\":22306:22328   */\n      swap1\n      pop\n        /* \"#utility.yul\":22236:22335   */\n      swap2\n      swap1\n      pop\n      jump\t// out\n        /* \"#utility.yul\":22341:22454   */\n    tag_430:\n        /* \"#utility.yul\":22411:22415   */\n      0x00\n        /* \"#utility.yul\":22443:22447   */\n      0x20\n        /* \"#utility.yul\":22438:22441   */\n      dup3\n        /* \"#utility.yul\":22434:22448   */\n      add\n        /* \"#utility.yul\":22426:22448   */\n      swap1\n      pop\n        /* \"#utility.yul\":22341:22454   */\n      swap2\n      swap1\n      pop\n      jump\t// out\n        /* \"#utility.yul\":22460:22573   */\n    tag_444:\n        /* \"#utility.yul\":22530:22534   */\n      0x00\n        /* \"#utility.yul\":22562:22566   */\n      0x20\n        /* \"#utility.yul\":22557:22560   */\n      dup3\n        /* \"#utility.yul\":22553:22567   */\n      add\n        /* \"#utility.yul\":22545:22567   */\n      swap1\n      pop\n        /* \"#utility.yul\":22460:22573   */\n      swap2\n      swap1\n      pop\n      jump\t// out\n        /* \"#utility.yul\":22579:22763   */\n    tag_422:\n        /* \"#utility.yul\":22678:22689   */\n      0x00\n        /* \"#utility.yul\":22712:22718   */\n      dup3\n        /* \"#utility.yul\":22707:22710   */\n      dup3\n        /* \"#utility.yul\":22700:22719   */\n      mstore\n        /* \"#utility.yul\":22752:22756   */\n      0x20\n        /* \"#utility.yul\":22747:22750   */\n      dup3\n        /* \"#utility.yul\":22743:22757   */\n      add\n        /* \"#utility.yul\":22728:22757   */\n      swap1\n      pop\n        /* \"#utility.yul\":22579:22763   */\n      swap3\n      swap2\n      pop\n      pop\n      jump\t// out\n        /* \"#utility.yul\":22769:22953   */\n    tag_436:\n        /* \"#utility.yul\":22868:22879   */\n      0x00\n        /* \"#utility.yul\":22902:22908   */\n      dup3\n        /* \"#utility.yul\":22897:22900   */\n      dup3\n        /* \"#utility.yul\":22890:22909   */\n      mstore\n        /* \"#utility.yul\":22942:22946   */\n      0x20\n        /* \"#utility.yul\":22937:22940   */\n      dup3\n        /* \"#utility.yul\":22933:22947   */\n      add\n        /* \"#utility.yul\":22918:22947   */\n      swap1\n      pop\n        /* \"#utility.yul\":22769:22953   */\n      swap3\n      swap2\n      pop\n      pop\n      jump\t// out\n        /* \"#utility.yul\":22959:23128   */\n    tag_462:\n        /* \"#utility.yul\":23043:23054   */\n      0x00\n        /* \"#utility.yul\":23077:23083   */\n      dup3\n        /* \"#utility.yul\":23072:23075   */\n      dup3\n        /* \"#utility.yul\":23065:23084   */\n      mstore\n        /* \"#utility.yul\":23117:23121   */\n      0x20\n        /* \"#utility.yul\":23112:23115   */\n      dup3\n        /* \"#utility.yul\":23108:23122   */\n      add\n        /* \"#utility.yul\":23093:23122   */\n      swap1\n      pop\n        /* \"#utility.yul\":22959:23128   */\n      swap3\n      swap2\n      pop\n      pop\n      jump\t// out\n        /* \"#utility.yul\":23134:23439   */\n    tag_163:\n        /* \"#utility.yul\":23174:23177   */\n      0x00\n        /* \"#utility.yul\":23193:23213   */\n      tag_616\n        /* \"#utility.yul\":23211:23212   */\n      dup3\n        /* \"#utility.yul\":23193:23213   */\n      tag_534\n      jump\t// in\n    tag_616:\n        /* \"#utility.yul\":23188:23213   */\n      swap2\n      pop\n        /* \"#utility.yul\":23227:23247   */\n      tag_617\n        /* \"#utility.yul\":23245:23246   */\n      dup4\n        /* \"#utility.yul\":23227:23247   */\n      tag_534\n      jump\t// in\n    tag_617:\n        /* \"#utility.yul\":23222:23247   */\n      swap3\n      pop\n        /* \"#utility.yul\":23381:23382   */\n      dup3\n        /* \"#utility.yul\":23313:23379   */\n      0xffffffffffffffffffffffffffffffffffffffffffffffffffffffffffffffff\n        /* \"#utility.yul\":23309:23383   */\n      sub\n        /* \"#utility.yul\":23306:23307   */\n      dup3\n        /* \"#utility.yul\":23303:23384   */\n      gt\n        /* \"#utility.yul\":23300:23407   */\n      iszero\n      tag_618\n      jumpi\n        /* \"#utility.yul\":23387:23405   */\n      tag_619\n      tag_620\n      jump\t// in\n    tag_619:\n        /* \"#utility.yul\":23300:23407   */\n    tag_618:\n        /* \"#utility.yul\":23431:23432   */\n      dup3\n        /* \"#utility.yul\":23428:23429   */\n      dup3\n        /* \"#utility.yul\":23424:23433   */\n      add\n        /* \"#utility.yul\":23417:23433   */\n      swap1\n      pop\n        /* \"#utility.yul\":23134:23439   */\n      swap3\n      swap2\n      pop\n      pop\n      jump\t// out\n        /* \"#utility.yul\":23445:23630   */\n    tag_161:\n        /* \"#utility.yul\":23485:23486   */\n      0x00\n        /* \"#utility.yul\":23502:23522   */\n      tag_622\n        /* \"#utility.yul\":23520:23521   */\n      dup3\n        /* \"#utility.yul\":23502:23522   */\n      tag_534\n      jump\t// in\n    tag_622:\n        /* \"#utility.yul\":23497:23522   */\n      swap2\n      pop\n        /* \"#utility.yul\":23536:23556   */\n      tag_623\n        /* \"#utility.yul\":23554:23555   */\n      dup4\n        /* \"#utility.yul\":23536:23556   */\n      tag_534\n      jump\t// in\n    tag_623:\n        /* \"#utility.yul\":23531:23556   */\n      swap3\n      pop\n        /* \"#utility.yul\":23575:23576   */\n      dup3\n        /* \"#utility.yul\":23565:23600   */\n      tag_624\n      jumpi\n        /* \"#utility.yul\":23580:23598   */\n      tag_625\n      tag_626\n      jump\t// in\n    tag_625:\n        /* \"#utility.yul\":23565:23600   */\n    tag_624:\n        /* \"#utility.yul\":23622:23623   */\n      dup3\n        /* \"#utility.yul\":23619:23620   */\n      dup3\n        /* \"#utility.yul\":23615:23624   */\n      div\n        /* \"#utility.yul\":23610:23624   */\n      swap1\n      pop\n        /* \"#utility.yul\":23445:23630   */\n      swap3\n      swap2\n      pop\n      pop\n      jump\t// out\n        /* \"#utility.yul\":23636:23984   */\n    tag_216:\n        /* \"#utility.yul\":23676:23683   */\n      0x00\n        /* \"#utility.yul\":23699:23719   */\n      tag_628\n        /* \"#utility.yul\":23717:23718   */\n      dup3\n        /* \"#utility.yul\":23699:23719   */\n      tag_534\n      jump\t// in\n    tag_628:\n        /* \"#utility.yul\":23694:23719   */\n      swap2\n      pop\n        /* \"#utility.yul\":23733:23753   */\n      tag_629\n        /* \"#utility.yul\":23751:23752   */\n      dup4\n        /* \"#utility.yul\":23733:23753   */\n      tag_534\n      jump\t// in\n    tag_629:\n        /* \"#utility.yul\":23728:23753   */\n      swap3\n      pop\n        /* \"#utility.yul\":23921:23922   */\n      dup2\n        /* \"#utility.yul\":23853:23919   */\n      0xffffffffffffffffffffffffffffffffffffffffffffffffffffffffffffffff\n        /* \"#utility.yul\":23849:23923   */\n      div\n        /* \"#utility.yul\":23846:23847   */\n      dup4\n        /* \"#utility.yul\":23843:23924   */\n      gt\n        /* \"#utility.yul\":23838:23839   */\n      dup3\n        /* \"#utility.yul\":23831:23840   */\n      iszero\n        /* \"#utility.yul\":23824:23841   */\n      iszero\n        /* \"#utility.yul\":23820:23925   */\n      and\n        /* \"#utility.yul\":23817:23948   */\n      iszero\n      tag_630\n      jumpi\n        /* \"#utility.yul\":23928:23946   */\n      tag_631\n      tag_620\n      jump\t// in\n    tag_631:\n        /* \"#utility.yul\":23817:23948   */\n    tag_630:\n        /* \"#utility.yul\":23976:23977   */\n      dup3\n        /* \"#utility.yul\":23973:23974   */\n      dup3\n        /* \"#utility.yul\":23969:23978   */\n      mul\n        /* \"#utility.yul\":23958:23978   */\n      swap1\n      pop\n        /* \"#utility.yul\":23636:23984   */\n      swap3\n      swap2\n      pop\n      pop\n      jump\t// out\n        /* \"#utility.yul\":23990:24181   */\n    tag_194:\n        /* \"#utility.yul\":24030:24034   */\n      0x00\n        /* \"#utility.yul\":24050:24070   */\n      tag_633\n        /* \"#utility.yul\":24068:24069   */\n      dup3\n        /* \"#utility.yul\":24050:24070   */\n      tag_534\n      jump\t// in\n    tag_633:\n        /* \"#utility.yul\":24045:24070   */\n      swap2\n      pop\n        /* \"#utility.yul\":24084:24104   */\n      tag_634\n        /* \"#utility.yul\":24102:24103   */\n      dup4\n        /* \"#utility.yul\":24084:24104   */\n      tag_534\n      jump\t// in\n    tag_634:\n        /* \"#utility.yul\":24079:24104   */\n      swap3\n      pop\n        /* \"#utility.yul\":24123:24124   */\n      dup3\n        /* \"#utility.yul\":24120:24121   */\n      dup3\n        /* \"#utility.yul\":24117:24125   */\n      lt\n        /* \"#utility.yul\":24114:24148   */\n      iszero\n      tag_635\n      jumpi\n        /* \"#utility.yul\":24128:24146   */\n      tag_636\n      tag_620\n      jump\t// in\n    tag_636:\n        /* \"#utility.yul\":24114:24148   */\n    tag_635:\n        /* \"#utility.yul\":24173:24174   */\n      dup3\n        /* \"#utility.yul\":24170:24171   */\n      dup3\n        /* \"#utility.yul\":24166:24175   */\n      sub\n        /* \"#utility.yul\":24158:24175   */\n      swap1\n      pop\n        /* \"#utility.yul\":23990:24181   */\n      swap3\n      swap2\n      pop\n      pop\n      jump\t// out\n        /* \"#utility.yul\":24187:24283   */\n    tag_413:\n        /* \"#utility.yul\":24224:24231   */\n      0x00\n        /* \"#utility.yul\":24253:24277   */\n      tag_638\n        /* \"#utility.yul\":24271:24276   */\n      dup3\n        /* \"#utility.yul\":24253:24277   */\n      tag_639\n      jump\t// in\n    tag_638:\n        /* \"#utility.yul\":24242:24277   */\n      swap1\n      pop\n        /* \"#utility.yul\":24187:24283   */\n      swap2\n      swap1\n      pop\n      jump\t// out\n        /* \"#utility.yul\":24289:24393   */\n    tag_410:\n        /* \"#utility.yul\":24334:24341   */\n      0x00\n        /* \"#utility.yul\":24363:24387   */\n      tag_641\n        /* \"#utility.yul\":24381:24386   */\n      dup3\n        /* \"#utility.yul\":24363:24387   */\n      tag_639\n      jump\t// in\n    tag_641:\n        /* \"#utility.yul\":24352:24387   */\n      swap1\n      pop\n        /* \"#utility.yul\":24289:24393   */\n      swap2\n      swap1\n      pop\n      jump\t// out\n        /* \"#utility.yul\":24399:24489   */\n    tag_448:\n        /* \"#utility.yul\":24433:24440   */\n      0x00\n        /* \"#utility.yul\":24476:24481   */\n      dup2\n        /* \"#utility.yul\":24469:24482   */\n      iszero\n        /* \"#utility.yul\":24462:24483   */\n      iszero\n        /* \"#utility.yul\":24451:24483   */\n      swap1\n      pop\n        /* \"#utility.yul\":24399:24489   */\n      swap2\n      swap1\n      pop\n      jump\t// out\n        /* \"#utility.yul\":24495:24640   */\n    tag_643:\n        /* \"#utility.yul\":24549:24556   */\n      0x00\n        /* \"#utility.yul\":24578:24583   */\n      dup2\n        /* \"#utility.yul\":24567:24583   */\n      swap1\n      pop\n        /* \"#utility.yul\":24584:24634   */\n      tag_645\n        /* \"#utility.yul\":24628:24633   */\n      dup3\n        /* \"#utility.yul\":24584:24634   */\n      tag_646\n      jump\t// in\n    tag_645:\n        /* \"#utility.yul\":24495:24640   */\n      swap2\n      swap1\n      pop\n      jump\t// out\n        /* \"#utility.yul\":24646:24773   */\n    tag_647:\n        /* \"#utility.yul\":24691:24698   */\n      0x00\n        /* \"#utility.yul\":24720:24725   */\n      dup2\n        /* \"#utility.yul\":24709:24725   */\n      swap1\n      pop\n        /* \"#utility.yul\":24726:24767   */\n      tag_649\n        /* \"#utility.yul\":24761:24766   */\n      dup3\n        /* \"#utility.yul\":24726:24767   */\n      tag_650\n      jump\t// in\n    tag_649:\n        /* \"#utility.yul\":24646:24773   */\n      swap2\n      swap1\n      pop\n      jump\t// out\n        /* \"#utility.yul\":24779:24905   */\n    tag_639:\n        /* \"#utility.yul\":24816:24823   */\n      0x00\n        /* \"#utility.yul\":24856:24898   */\n      0xffffffffffffffffffffffffffffffffffffffff\n        /* \"#utility.yul\":24849:24854   */\n      dup3\n        /* \"#utility.yul\":24845:24899   */\n      and\n        /* \"#utility.yul\":24834:24899   */\n      swap1\n      pop\n        /* \"#utility.yul\":24779:24905   */\n      swap2\n      swap1\n      pop\n      jump\t// out\n        /* \"#utility.yul\":24911:24988   */\n    tag_534:\n        /* \"#utility.yul\":24948:24955   */\n      0x00\n        /* \"#utility.yul\":24977:24982   */\n      dup2\n        /* \"#utility.yul\":24966:24982   */\n      swap1\n      pop\n        /* \"#utility.yul\":24911:24988   */\n      swap2\n      swap1\n      pop\n      jump\t// out\n        /* \"#utility.yul\":24994:25139   */\n    tag_452:\n        /* \"#utility.yul\":25059:25068   */\n      0x00\n        /* \"#utility.yul\":25092:25133   */\n      tag_654\n        /* \"#utility.yul\":25127:25132   */\n      dup3\n        /* \"#utility.yul\":25092:25133   */\n      tag_643\n      jump\t// in\n    tag_654:\n        /* \"#utility.yul\":25079:25133   */\n      swap1\n      pop\n        /* \"#utility.yul\":24994:25139   */\n      swap2\n      swap1\n      pop\n      jump\t// out\n        /* \"#utility.yul\":25145:25272   */\n    tag_456:\n        /* \"#utility.yul\":25201:25210   */\n      0x00\n        /* \"#utility.yul\":25234:25266   */\n      tag_656\n        /* \"#utility.yul\":25260:25265   */\n      dup3\n        /* \"#utility.yul\":25234:25266   */\n      tag_647\n      jump\t// in\n    tag_656:\n        /* \"#utility.yul\":25221:25266   */\n      swap1\n      pop\n        /* \"#utility.yul\":25145:25272   */\n      swap2\n      swap1\n      pop\n      jump\t// out\n        /* \"#utility.yul\":25278:25432   */\n    tag_353:\n        /* \"#utility.yul\":25362:25368   */\n      dup3\n        /* \"#utility.yul\":25357:25360   */\n      dup2\n        /* \"#utility.yul\":25352:25355   */\n      dup4\n        /* \"#utility.yul\":25339:25369   */\n      calldatacopy\n        /* \"#utility.yul\":25424:25425   */\n      0x00\n        /* \"#utility.yul\":25415:25421   */\n      dup4\n        /* \"#utility.yul\":25410:25413   */\n      dup4\n        /* \"#utility.yul\":25406:25422   */\n      add\n        /* \"#utility.yul\":25399:25426   */\n      mstore\n        /* \"#utility.yul\":25278:25432   */\n      pop\n      pop\n      pop\n      jump\t// out\n        /* \"#utility.yul\":25438:25745   */\n    tag_464:\n        /* \"#utility.yul\":25506:25507   */\n      0x00\n        /* \"#utility.yul\":25516:25629   */\n    tag_659:\n        /* \"#utility.yul\":25530:25536   */\n      dup4\n        /* \"#utility.yul\":25527:25528   */\n      dup2\n        /* \"#utility.yul\":25524:25537   */\n      lt\n        /* \"#utility.yul\":25516:25629   */\n      iszero\n      tag_661\n      jumpi\n        /* \"#utility.yul\":25615:25616   */\n      dup1\n        /* \"#utility.yul\":25610:25613   */\n      dup3\n        /* \"#utility.yul\":25606:25617   */\n      add\n        /* \"#utility.yul\":25600:25618   */\n      mload\n        /* \"#utility.yul\":25596:25597   */\n      dup2\n        /* \"#utility.yul\":25591:25594   */\n      dup5\n        /* \"#utility.yul\":25587:25598   */\n      add\n        /* \"#utility.yul\":25580:25619   */\n      mstore\n        /* \"#utility.yul\":25552:25554   */\n      0x20\n        /* \"#utility.yul\":25549:25550   */\n      dup2\n        /* \"#utility.yul\":25545:25555   */\n      add\n        /* \"#utility.yul\":25540:25555   */\n      swap1\n      pop\n        /* \"#utility.yul\":25516:25629   */\n      jump(tag_659)\n    tag_661:\n        /* \"#utility.yul\":25647:25653   */\n      dup4\n        /* \"#utility.yul\":25644:25645   */\n      dup2\n        /* \"#utility.yul\":25641:25654   */\n      gt\n        /* \"#utility.yul\":25638:25739   */\n      iszero\n      tag_662\n      jumpi\n        /* \"#utility.yul\":25727:25728   */\n      0x00\n        /* \"#utility.yul\":25718:25724   */\n      dup5\n        /* \"#utility.yul\":25713:25716   */\n      dup5\n        /* \"#utility.yul\":25709:25725   */\n      add\n        /* \"#utility.yul\":25702:25729   */\n      mstore\n        /* \"#utility.yul\":25638:25739   */\n    tag_662:\n        /* \"#utility.yul\":25487:25745   */\n      pop\n        /* \"#utility.yul\":25438:25745   */\n      pop\n      pop\n      pop\n      jump\t// out\n        /* \"#utility.yul\":25751:26071   */\n    tag_167:\n        /* \"#utility.yul\":25795:25801   */\n      0x00\n        /* \"#utility.yul\":25832:25833   */\n      0x02\n        /* \"#utility.yul\":25826:25830   */\n      dup3\n        /* \"#utility.yul\":25822:25834   */\n      div\n        /* \"#utility.yul\":25812:25834   */\n      swap1\n      pop\n        /* \"#utility.yul\":25879:25880   */\n      0x01\n        /* \"#utility.yul\":25873:25877   */\n      dup3\n        /* \"#utility.yul\":25869:25881   */\n      and\n        /* \"#utility.yul\":25900:25918   */\n      dup1\n        /* \"#utility.yul\":25890:25971   */\n      tag_664\n      jumpi\n        /* \"#utility.yul\":25956:25960   */\n      0x7f\n        /* \"#utility.yul\":25948:25954   */\n      dup3\n        /* \"#utility.yul\":25944:25961   */\n      and\n        /* \"#utility.yul\":25934:25961   */\n      swap2\n      pop\n        /* \"#utility.yul\":25890:25971   */\n    tag_664:\n        /* \"#utility.yul\":26018:26020   */\n      0x20\n        /* \"#utility.yul\":26010:26016   */\n      dup3\n        /* \"#utility.yul\":26007:26021   */\n      lt\n        /* \"#utility.yul\":25987:26005   */\n      dup2\n        /* \"#utility.yul\":25984:26022   */\n      eq\n        /* \"#utility.yul\":25981:26065   */\n      iszero\n      tag_665\n      jumpi\n        /* \"#utility.yul\":26037:26055   */\n      tag_666\n      tag_667\n      jump\t// in\n    tag_666:\n        /* \"#utility.yul\":25981:26065   */\n    tag_665:\n        /* \"#utility.yul\":25802:26071   */\n      pop\n        /* \"#utility.yul\":25751:26071   */\n      swap2\n      swap1\n      pop\n      jump\t// out\n        /* \"#utility.yul\":26077:26358   */\n    tag_599:\n        /* \"#utility.yul\":26160:26187   */\n      tag_669\n        /* \"#utility.yul\":26182:26186   */\n      dup3\n        /* \"#utility.yul\":26160:26187   */\n      tag_466\n      jump\t// in\n    tag_669:\n        /* \"#utility.yul\":26152:26158   */\n      dup2\n        /* \"#utility.yul\":26148:26188   */\n      add\n        /* \"#utility.yul\":26290:26296   */\n      dup2\n        /* \"#utility.yul\":26278:26288   */\n      dup2\n        /* \"#utility.yul\":26275:26297   */\n      lt\n        /* \"#utility.yul\":26254:26272   */\n      0xffffffffffffffff\n        /* \"#utility.yul\":26242:26252   */\n      dup3\n        /* \"#utility.yul\":26239:26273   */\n      gt\n        /* \"#utility.yul\":26236:26298   */\n      or\n        /* \"#utility.yul\":26233:26321   */\n      iszero\n      tag_670\n      jumpi\n        /* \"#utility.yul\":26301:26319   */\n      tag_671\n      tag_270\n      jump\t// in\n    tag_671:\n        /* \"#utility.yul\":26233:26321   */\n    tag_670:\n        /* \"#utility.yul\":26341:26351   */\n      dup1\n        /* \"#utility.yul\":26337:26339   */\n      0x40\n        /* \"#utility.yul\":26330:26352   */\n      mstore\n        /* \"#utility.yul\":26120:26358   */\n      pop\n        /* \"#utility.yul\":26077:26358   */\n      pop\n      pop\n      jump\t// out\n        /* \"#utility.yul\":26364:26597   */\n    tag_284:\n        /* \"#utility.yul\":26403:26406   */\n      0x00\n        /* \"#utility.yul\":26426:26450   */\n      tag_673\n        /* \"#utility.yul\":26444:26449   */\n      dup3\n        /* \"#utility.yul\":26426:26450   */\n      tag_534\n      jump\t// in\n    tag_673:\n        /* \"#utility.yul\":26417:26450   */\n      swap2\n      pop\n        /* \"#utility.yul\":26472:26538   */\n      0xffffffffffffffffffffffffffffffffffffffffffffffffffffffffffffffff\n        /* \"#utility.yul\":26465:26470   */\n      dup3\n        /* \"#utility.yul\":26462:26539   */\n      eq\n        /* \"#utility.yul\":26459:26562   */\n      iszero\n      tag_674\n      jumpi\n        /* \"#utility.yul\":26542:26560   */\n      tag_675\n      tag_620\n      jump\t// in\n    tag_675:\n        /* \"#utility.yul\":26459:26562   */\n    tag_674:\n        /* \"#utility.yul\":26589:26590   */\n      0x01\n        /* \"#utility.yul\":26582:26587   */\n      dup3\n        /* \"#utility.yul\":26578:26591   */\n      add\n        /* \"#utility.yul\":26571:26591   */\n      swap1\n      pop\n        /* \"#utility.yul\":26364:26597   */\n      swap2\n      swap1\n      pop\n      jump\t// out\n        /* \"#utility.yul\":26603:26783   */\n    tag_620:\n        /* \"#utility.yul\":26651:26728   */\n      0x4e487b7100000000000000000000000000000000000000000000000000000000\n        /* \"#utility.yul\":26648:26649   */\n      0x00\n        /* \"#utility.yul\":26641:26729   */\n      mstore\n        /* \"#utility.yul\":26748:26752   */\n      0x11\n        /* \"#utility.yul\":26745:26746   */\n      0x04\n        /* \"#utility.yul\":26738:26753   */\n      mstore\n        /* \"#utility.yul\":26772:26776   */\n      0x24\n        /* \"#utility.yul\":26769:26770   */\n      0x00\n        /* \"#utility.yul\":26762:26777   */\n      revert\n        /* \"#utility.yul\":26789:26969   */\n    tag_626:\n        /* \"#utility.yul\":26837:26914   */\n      0x4e487b7100000000000000000000000000000000000000000000000000000000\n        /* \"#utility.yul\":26834:26835   */\n      0x00\n        /* \"#utility.yul\":26827:26915   */\n      mstore\n        /* \"#utility.yul\":26934:26938   */\n      0x12\n        /* \"#utility.yul\":26931:26932   */\n      0x04\n        /* \"#utility.yul\":26924:26939   */\n      mstore\n        /* \"#utility.yul\":26958:26962   */\n      0x24\n        /* \"#utility.yul\":26955:26956   */\n      0x00\n        /* \"#utility.yul\":26948:26963   */\n      revert\n        /* \"#utility.yul\":26975:27155   */\n    tag_152:\n        /* \"#utility.yul\":27023:27100   */\n      0x4e487b7100000000000000000000000000000000000000000000000000000000\n        /* \"#utility.yul\":27020:27021   */\n      0x00\n        /* \"#utility.yul\":27013:27101   */\n      mstore\n        /* \"#utility.yul\":27120:27124   */\n      0x21\n        /* \"#utility.yul\":27117:27118   */\n      0x04\n        /* \"#utility.yul\":27110:27125   */\n      mstore\n        /* \"#utility.yul\":27144:27148   */\n      0x24\n        /* \"#utility.yul\":27141:27142   */\n      0x00\n        /* \"#utility.yul\":27134:27149   */\n      revert\n        /* \"#utility.yul\":27161:27341   */\n    tag_667:\n        /* \"#utility.yul\":27209:27286   */\n      0x4e487b7100000000000000000000000000000000000000000000000000000000\n        /* \"#utility.yul\":27206:27207   */\n      0x00\n        /* \"#utility.yul\":27199:27287   */\n      mstore\n        /* \"#utility.yul\":27306:27310   */\n      0x22\n        /* \"#utility.yul\":27303:27304   */\n      0x04\n        /* \"#utility.yul\":27296:27311   */\n      mstore\n        /* \"#utility.yul\":27330:27334   */\n      0x24\n        /* \"#utility.yul\":27327:27328   */\n      0x00\n        /* \"#utility.yul\":27320:27335   */\n      revert\n        /* \"#utility.yul\":27347:27527   */\n    tag_282:\n        /* \"#utility.yul\":27395:27472   */\n      0x4e487b7100000000000000000000000000000000000000000000000000000000\n        /* \"#utility.yul\":27392:27393   */\n      0x00\n        /* \"#utility.yul\":27385:27473   */\n      mstore\n        /* \"#utility.yul\":27492:27496   */\n      0x32\n        /* \"#utility.yul\":27489:27490   */\n      0x04\n        /* \"#utility.yul\":27482:27497   */\n      mstore\n        /* \"#utility.yul\":27516:27520   */\n      0x24\n        /* \"#utility.yul\":27513:27514   */\n      0x00\n        /* \"#utility.yul\":27506:27521   */\n      revert\n        /* \"#utility.yul\":27533:27713   */\n    tag_270:\n        /* \"#utility.yul\":27581:27658   */\n      0x4e487b7100000000000000000000000000000000000000000000000000000000\n        /* \"#utility.yul\":27578:27579   */\n      0x00\n        /* \"#utility.yul\":27571:27659   */\n      mstore\n        /* \"#utility.yul\":27678:27682   */\n      0x41\n        /* \"#utility.yul\":27675:27676   */\n      0x04\n        /* \"#utility.yul\":27668:27683   */\n      mstore\n        /* \"#utility.yul\":27702:27706   */\n      0x24\n        /* \"#utility.yul\":27699:27700   */\n      0x00\n        /* \"#utility.yul\":27692:27707   */\n      revert\n        /* \"#utility.yul\":27719:27836   */\n    tag_370:\n        /* \"#utility.yul\":27828:27829   */\n      0x00\n        /* \"#utility.yul\":27825:27826   */\n      dup1\n        /* \"#utility.yul\":27818:27830   */\n      revert\n        /* \"#utility.yul\":27842:27959   */\n    tag_351:\n        /* \"#utility.yul\":27951:27952   */\n      0x00\n        /* \"#utility.yul\":27948:27949   */\n      dup1\n        /* \"#utility.yul\":27941:27953   */\n      revert\n        /* \"#utility.yul\":27965:28082   */\n    tag_386:\n        /* \"#utility.yul\":28074:28075   */\n      0x00\n        /* \"#utility.yul\":28071:28072   */\n      dup1\n        /* \"#utility.yul\":28064:28076   */\n      revert\n        /* \"#utility.yul\":28088:28205   */\n    tag_379:\n        /* \"#utility.yul\":28197:28198   */\n      0x00\n        /* \"#utility.yul\":28194:28195   */\n      dup1\n        /* \"#utility.yul\":28187:28199   */\n      revert\n        /* \"#utility.yul\":28211:28313   */\n    tag_466:\n        /* \"#utility.yul\":28252:28258   */\n      0x00\n        /* \"#utility.yul\":28303:28305   */\n      0x1f\n        /* \"#utility.yul\":28299:28306   */\n      not\n        /* \"#utility.yul\":28294:28296   */\n      0x1f\n        /* \"#utility.yul\":28287:28292   */\n      dup4\n        /* \"#utility.yul\":28283:28297   */\n      add\n        /* \"#utility.yul\":28279:28307   */\n      and\n        /* \"#utility.yul\":28269:28307   */\n      swap1\n      pop\n        /* \"#utility.yul\":28211:28313   */\n      swap2\n      swap1\n      pop\n      jump\t// out\n        /* \"#utility.yul\":28319:28488   */\n    tag_471:\n        /* \"#utility.yul\":28459:28480   */\n      0x43616d70616e7961206e6f206162696572746100000000000000000000000000\n        /* \"#utility.yul\":28455:28456   */\n      0x00\n        /* \"#utility.yul\":28447:28453   */\n      dup3\n        /* \"#utility.yul\":28443:28457   */\n      add\n        /* \"#utility.yul\":28436:28481   */\n      mstore\n        /* \"#utility.yul\":28319:28488   */\n      pop\n      jump\t// out\n        /* \"#utility.yul\":28494:28714   */\n    tag_476:\n        /* \"#utility.yul\":28634:28668   */\n      0x50617274696369706163696f6e206d696e696d61206e6f20616c63616e7a6164\n        /* \"#utility.yul\":28630:28631   */\n      0x00\n        /* \"#utility.yul\":28622:28628   */\n      dup3\n        /* \"#utility.yul\":28618:28632   */\n      add\n        /* \"#utility.yul\":28611:28669   */\n      mstore\n        /* \"#utility.yul\":28703:28706   */\n      0x6100000000000000000000000000000000000000000000000000000000000000\n        /* \"#utility.yul\":28698:28700   */\n      0x20\n        /* \"#utility.yul\":28690:28696   */\n      dup3\n        /* \"#utility.yul\":28686:28701   */\n      add\n        /* \"#utility.yul\":28679:28707   */\n      mstore\n        /* \"#utility.yul\":28494:28714   */\n      pop\n      jump\t// out\n        /* \"#utility.yul\":28720:28900   */\n    tag_481:\n        /* \"#utility.yul\":28860:28892   */\n      0x46696e616c697a61646f20706c617a6f2070617274696369706163696f6e0000\n        /* \"#utility.yul\":28856:28857   */\n      0x00\n        /* \"#utility.yul\":28848:28854   */\n      dup3\n        /* \"#utility.yul\":28844:28858   */\n      add\n        /* \"#utility.yul\":28837:28893   */\n      mstore\n        /* \"#utility.yul\":28720:28900   */\n      pop\n      jump\t// out\n        /* \"#utility.yul\":28906:29084   */\n    tag_486:\n        /* \"#utility.yul\":29046:29076   */\n      0x736f6c6f20766f74616e206c6f73207061727469636970616e74657300000000\n        /* \"#utility.yul\":29042:29043   */\n      0x00\n        /* \"#utility.yul\":29034:29040   */\n      dup3\n        /* \"#utility.yul\":29030:29044   */\n      add\n        /* \"#utility.yul\":29023:29077   */\n      mstore\n        /* \"#utility.yul\":28906:29084   */\n      pop\n      jump\t// out\n        /* \"#utility.yul\":29090:29263   */\n    tag_491:\n        /* \"#utility.yul\":29230:29255   */\n      0x43616d7061696e206973206e6f74206f76657220796574000000000000000000\n        /* \"#utility.yul\":29226:29227   */\n      0x00\n        /* \"#utility.yul\":29218:29224   */\n      dup3\n        /* \"#utility.yul\":29214:29228   */\n      add\n        /* \"#utility.yul\":29207:29256   */\n      mstore\n        /* \"#utility.yul\":29090:29263   */\n      pop\n      jump\t// out\n        /* \"#utility.yul\":29269:29440   */\n    tag_496:\n        /* \"#utility.yul\":29409:29432   */\n      0x43616d70616e7961206e6f2063616e63656c6164610000000000000000000000\n        /* \"#utility.yul\":29405:29406   */\n      0x00\n        /* \"#utility.yul\":29397:29403   */\n      dup3\n        /* \"#utility.yul\":29393:29407   */\n      add\n        /* \"#utility.yul\":29386:29433   */\n      mstore\n        /* \"#utility.yul\":29269:29440   */\n      pop\n      jump\t// out\n        /* \"#utility.yul\":29446:29617   */\n    tag_501:\n        /* \"#utility.yul\":29586:29609   */\n      0x7065746963696f6e20696e6578697374656e7472650000000000000000000000\n        /* \"#utility.yul\":29582:29583   */\n      0x00\n        /* \"#utility.yul\":29574:29580   */\n      dup3\n        /* \"#utility.yul\":29570:29584   */\n      add\n        /* \"#utility.yul\":29563:29610   */\n      mstore\n        /* \"#utility.yul\":29446:29617   */\n      pop\n      jump\t// out\n        /* \"#utility.yul\":29623:29793   */\n    tag_506:\n        /* \"#utility.yul\":29763:29785   */\n      0x5065746963696f6e20696e6578697374656e7465000000000000000000000000\n        /* \"#utility.yul\":29759:29760   */\n      0x00\n        /* \"#utility.yul\":29751:29757   */\n      dup3\n        /* \"#utility.yul\":29747:29761   */\n      add\n        /* \"#utility.yul\":29740:29786   */\n      mstore\n        /* \"#utility.yul\":29623:29793   */\n      pop\n      jump\t// out\n        /* \"#utility.yul\":29799:29975   */\n    tag_511:\n        /* \"#utility.yul\":29939:29967   */\n      0x5065746963696f6e206465626520657374617220616374697661000000000000\n        /* \"#utility.yul\":29935:29936   */\n      0x00\n        /* \"#utility.yul\":29927:29933   */\n      dup3\n        /* \"#utility.yul\":29923:29937   */\n      add\n        /* \"#utility.yul\":29916:29968   */\n      mstore\n        /* \"#utility.yul\":29799:29975   */\n      pop\n      jump\t// out\n        /* \"#utility.yul\":29981:30159   */\n    tag_516:\n        /* \"#utility.yul\":30121:30151   */\n      0x456c207061727469636970616e746520796120686120766f7461646f00000000\n        /* \"#utility.yul\":30117:30118   */\n      0x00\n        /* \"#utility.yul\":30109:30115   */\n      dup3\n        /* \"#utility.yul\":30105:30119   */\n      add\n        /* \"#utility.yul\":30098:30152   */\n      mstore\n        /* \"#utility.yul\":29981:30159   */\n      pop\n      jump\t// out\n        /* \"#utility.yul\":30165:30335   */\n    tag_521:\n        /* \"#utility.yul\":30305:30327   */\n      0x4f6e6c792043616d7061696e206d616e61676572000000000000000000000000\n        /* \"#utility.yul\":30301:30302   */\n      0x00\n        /* \"#utility.yul\":30293:30299   */\n      dup3\n        /* \"#utility.yul\":30289:30303   */\n      add\n        /* \"#utility.yul\":30282:30328   */\n      mstore\n        /* \"#utility.yul\":30165:30335   */\n      pop\n      jump\t// out\n        /* \"#utility.yul\":30341:30507   */\n    tag_526:\n        /* \"#utility.yul\":30481:30499   */\n      0x666f6e646f7320726574697261646f7300000000000000000000000000000000\n        /* \"#utility.yul\":30477:30478   */\n      0x00\n        /* \"#utility.yul\":30469:30475   */\n      dup3\n        /* \"#utility.yul\":30465:30479   */\n      add\n        /* \"#utility.yul\":30458:30500   */\n      mstore\n        /* \"#utility.yul\":30341:30507   */\n      pop\n      jump\t// out\n        /* \"#utility.yul\":30513:30681   */\n    tag_531:\n        /* \"#utility.yul\":30653:30673   */\n      0x73616c646f20696e737566696369656e74650000000000000000000000000000\n        /* \"#utility.yul\":30649:30650   */\n      0x00\n        /* \"#utility.yul\":30641:30647   */\n      dup3\n        /* \"#utility.yul\":30637:30651   */\n      add\n        /* \"#utility.yul\":30630:30674   */\n      mstore\n        /* \"#utility.yul\":30513:30681   */\n      pop\n      jump\t// out\n        /* \"#utility.yul\":30687:30809   */\n    tag_646:\n        /* \"#utility.yul\":30777:30778   */\n      0x03\n        /* \"#utility.yul\":30770:30775   */\n      dup2\n        /* \"#utility.yul\":30767:30779   */\n      lt\n        /* \"#utility.yul\":30757:30803   */\n      tag_701\n      jumpi\n        /* \"#utility.yul\":30783:30801   */\n      tag_702\n      tag_152\n      jump\t// in\n    tag_702:\n        /* \"#utility.yul\":30757:30803   */\n    tag_701:\n        /* \"#utility.yul\":30687:30809   */\n      pop\n      jump\t// out\n        /* \"#utility.yul\":30815:30928   */\n    tag_650:\n        /* \"#utility.yul\":30896:30897   */\n      0x03\n        /* \"#utility.yul\":30889:30894   */\n      dup2\n        /* \"#utility.yul\":30886:30898   */\n      lt\n        /* \"#utility.yul\":30876:30922   */\n      tag_704\n      jumpi\n        /* \"#utility.yul\":30902:30920   */\n      tag_705\n      tag_152\n      jump\t// in\n    tag_705:\n        /* \"#utility.yul\":30876:30922   */\n    tag_704:\n        /* \"#utility.yul\":30815:30928   */\n      pop\n      jump\t// out\n        /* \"#utility.yul\":30934:31056   */\n    tag_357:\n        /* \"#utility.yul\":31007:31031   */\n      tag_707\n        /* \"#utility.yul\":31025:31030   */\n      dup2\n        /* \"#utility.yul\":31007:31031   */\n      tag_413\n      jump\t// in\n    tag_707:\n        /* \"#utility.yul\":31000:31005   */\n      dup2\n        /* \"#utility.yul\":30997:31032   */\n      eq\n        /* \"#utility.yul\":30987:31050   */\n      tag_708\n      jumpi\n        /* \"#utility.yul\":31046:31047   */\n      0x00\n        /* \"#utility.yul\":31043:31044   */\n      dup1\n        /* \"#utility.yul\":31036:31048   */\n      revert\n        /* \"#utility.yul\":30987:31050   */\n    tag_708:\n        /* \"#utility.yul\":30934:31056   */\n      pop\n      jump\t// out\n        /* \"#utility.yul\":31062:31200   */\n    tag_361:\n        /* \"#utility.yul\":31143:31175   */\n      tag_710\n        /* \"#utility.yul\":31169:31174   */\n      dup2\n        /* \"#utility.yul\":31143:31175   */\n      tag_410\n      jump\t// in\n    tag_710:\n        /* \"#utility.yul\":31136:31141   */\n      dup2\n        /* \"#utility.yul\":31133:31176   */\n      eq\n        /* \"#utility.yul\":31123:31194   */\n      tag_711\n      jumpi\n        /* \"#utility.yul\":31190:31191   */\n      0x00\n        /* \"#utility.yul\":31187:31188   */\n      dup1\n        /* \"#utility.yul\":31180:31192   */\n      revert\n        /* \"#utility.yul\":31123:31194   */\n    tag_711:\n        /* \"#utility.yul\":31062:31200   */\n      pop\n      jump\t// out\n        /* \"#utility.yul\":31206:31322   */\n    tag_365:\n        /* \"#utility.yul\":31276:31297   */\n      tag_713\n        /* \"#utility.yul\":31291:31296   */\n      dup2\n        /* \"#utility.yul\":31276:31297   */\n      tag_448\n      jump\t// in\n    tag_713:\n        /* \"#utility.yul\":31269:31274   */\n      dup2\n        /* \"#utility.yul\":31266:31298   */\n      eq\n        /* \"#utility.yul\":31256:31316   */\n      tag_714\n      jumpi\n        /* \"#utility.yul\":31312:31313   */\n      0x00\n        /* \"#utility.yul\":31309:31310   */\n      dup1\n        /* \"#utility.yul\":31302:31314   */\n      revert\n        /* \"#utility.yul\":31256:31316   */\n    tag_714:\n        /* \"#utility.yul\":31206:31322   */\n      pop\n      jump\t// out\n        /* \"#utility.yul\":31328:31450   */\n    tag_375:\n        /* \"#utility.yul\":31401:31425   */\n      tag_716\n        /* \"#utility.yul\":31419:31424   */\n      dup2\n        /* \"#utility.yul\":31401:31425   */\n      tag_534\n      jump\t// in\n    tag_716:\n        /* \"#utility.yul\":31394:31399   */\n      dup2\n        /* \"#utility.yul\":31391:31426   */\n      eq\n        /* \"#utility.yul\":31381:31444   */\n      tag_717\n      jumpi\n        /* \"#utility.yul\":31440:31441   */\n      0x00\n        /* \"#utility.yul\":31437:31438   */\n      dup1\n        /* \"#utility.yul\":31430:31442   */\n      revert\n        /* \"#utility.yul\":31381:31444   */\n    tag_717:\n        /* \"#utility.yul\":31328:31450   */\n      pop\n      jump\t// out\n\n    auxdata: 0xa26469706673582212205be0dec0f7c80602df6254663eb0452057acd8650ff690949ed6ffa8801ad68364736f6c63430008070033\n}\n",
				"bytecode": {
					"linkReferences": {},
					"object": "60a06040523480156200001157600080fd5b50604051620030e2380380620030e2833981810160405281019062000037919062000273565b600083118015620000485750600082115b6200005257600080fd5b84600190805190602001906200006a9291906200012e565b508360029080519060200190620000839291906200012e565b50336000806101000a81548173ffffffffffffffffffffffffffffffffffffffff021916908373ffffffffffffffffffffffffffffffffffffffff16021790555081600581905550826004819055506000600360006101000a81548160ff02191690836002811115620000fb57620000fa62000531565b5b02179055506001816200010f9190620003f5565b426200011c919062000398565b608081815250505050505050620005fd565b8280546200013c9062000496565b90600052602060002090601f016020900481019282620001605760008555620001ac565b82601f106200017b57805160ff1916838001178555620001ac565b82800160010185558215620001ac579182015b82811115620001ab5782518255916020019190600101906200018e565b5b509050620001bb9190620001bf565b5090565b5b80821115620001da576000816000905550600101620001c0565b5090565b6000620001f5620001ef8462000362565b62000339565b905082815260208101848484011115620002145762000213620005c3565b5b6200022184828562000460565b509392505050565b600082601f830112620002415762000240620005be565b5b815162000253848260208601620001de565b91505092915050565b6000815190506200026d81620005e3565b92915050565b600080600080600060a08688031215620002925762000291620005cd565b5b600086015167ffffffffffffffff811115620002b357620002b2620005c8565b5b620002c18882890162000229565b955050602086015167ffffffffffffffff811115620002e557620002e4620005c8565b5b620002f38882890162000229565b945050604062000306888289016200025c565b935050606062000319888289016200025c565b92505060806200032c888289016200025c565b9150509295509295909350565b60006200034562000358565b9050620003538282620004cc565b919050565b6000604051905090565b600067ffffffffffffffff82111562000380576200037f6200058f565b5b6200038b82620005d2565b9050602081019050919050565b6000620003a58262000456565b9150620003b28362000456565b9250827fffffffffffffffffffffffffffffffffffffffffffffffffffffffffffffffff03821115620003ea57620003e962000502565b5b828201905092915050565b6000620004028262000456565b91506200040f8362000456565b9250817fffffffffffffffffffffffffffffffffffffffffffffffffffffffffffffffff04831182151516156200044b576200044a62000502565b5b828202905092915050565b6000819050919050565b60005b838110156200048057808201518184015260208101905062000463565b8381111562000490576000848401525b50505050565b60006002820490506001821680620004af57607f821691505b60208210811415620004c657620004c562000560565b5b50919050565b620004d782620005d2565b810181811067ffffffffffffffff82111715620004f957620004f86200058f565b5b80604052505050565b7f4e487b7100000000000000000000000000000000000000000000000000000000600052601160045260246000fd5b7f4e487b7100000000000000000000000000000000000000000000000000000000600052602160045260246000fd5b7f4e487b7100000000000000000000000000000000000000000000000000000000600052602260045260246000fd5b7f4e487b7100000000000000000000000000000000000000000000000000000000600052604160045260246000fd5b600080fd5b600080fd5b600080fd5b600080fd5b6000601f19601f8301169050919050565b620005ee8162000456565b8114620005fa57600080fd5b50565b608051612ac26200062060003960008181610f3c015261176e0152612ac26000f3fe60806040526004361061014f5760003560e01c8063b25924c1116100b6578063e3ce81641161006f578063e3ce816414610484578063e7425109146104af578063eb68f887146104da578063f7256d6614610505578063f7a7e57e1461052e578063f83589c0146105595761015e565b8063b25924c11461036b578063bbde609a146103a8578063cac9a391146103e5578063d50af7b414610410578063d50fac491461044f578063e348c518146104595761015e565b80638f75c1fb116101085780638f75c1fb1461027a57806395df868d146102a55780639de8fc99146102d0578063a4e58a87146102fb578063ab67290614610312578063b14d38c2146103545761015e565b8063225682d1146101685780633deff252146101935780633e0905ec146101be5780637bd82410146101e75780638b83ba26146102125780638d1750c51461024f5761015e565b3661015e5761015c610582565b005b610166610582565b005b34801561017457600080fd5b5061017d6107a0565b60405161018a9190612296565b60405180910390f35b34801561019f57600080fd5b506101a86107a8565b6040516101b5919061202e565b60405180910390f35b3480156101ca57600080fd5b506101e560048036038101906101e09190611bc8565b610836565b005b3480156101f357600080fd5b506101fc610b12565b6040516102099190612296565b60405180910390f35b34801561021e57600080fd5b5061023960048036038101906102349190611b2c565b610b18565b6040516102469190612296565b60405180910390f35b34801561025b57600080fd5b50610264610b61565b6040516102719190612013565b60405180910390f35b34801561028657600080fd5b5061028f610b74565b60405161029c9190611fb4565b60405180910390f35b3480156102b157600080fd5b506102ba610b98565b6040516102c79190612296565b60405180910390f35b3480156102dc57600080fd5b506102e5610b9e565b6040516102f29190612296565b60405180910390f35b34801561030757600080fd5b50610310610ba8565b005b34801561031e57600080fd5b5061033960048036038101906103349190611bc8565b610d80565b60405161034b96959493929190612050565b60405180910390f35b34801561036057600080fd5b50610369610e71565b005b34801561037757600080fd5b50610392600480360381019061038d9190611bc8565b611005565b60405161039f9190611f99565b60405180910390f35b3480156103b457600080fd5b506103cf60048036038101906103ca9190611b2c565b611044565b6040516103dc9190612296565b60405180910390f35b3480156103f157600080fd5b506103fa61105c565b6040516104079190611fcf565b60405180910390f35b34801561041c57600080fd5b5061043760048036038101906104329190611bc8565b6110ea565b604051610446939291906120b8565b60405180910390f35b610457610582565b005b34801561046557600080fd5b5061046e611246565b60405161047b9190612296565b60405180910390f35b34801561049057600080fd5b5061049961124c565b6040516104a69190612296565b60405180910390f35b3480156104bb57600080fd5b506104c4611259565b6040516104d1919061202e565b60405180910390f35b3480156104e657600080fd5b506104ef6112e7565b6040516104fc9190611ff1565b60405180910390f35b34801561051157600080fd5b5061052c60048036038101906105279190611bf5565b611488565b005b34801561053a57600080fd5b5061054361176c565b6040516105509190612296565b60405180910390f35b34801561056557600080fd5b50610580600480360381019061057b9190611b59565b611790565b005b6005543410156105c7576040517f08c379a00000000000000000000000000000000000000000000000000000000081526004016105be90612116565b60405180910390fd5b600060028111156105db576105da6126ec565b5b600360009054906101000a900460ff1660028111156105fd576105fc6126ec565b5b1461063d576040517f08c379a000000000000000000000000000000000000000000000000000000000815260040161063490612136565b60405180910390fd5b6000600660003373ffffffffffffffffffffffffffffffffffffffff1673ffffffffffffffffffffffffffffffffffffffff1681526020019081526020016000205414156106e9576007339080600181540180825580915050600190039060005260206000200160009091909190916101000a81548173ffffffffffffffffffffffffffffffffffffffff021916908373ffffffffffffffffffffffffffffffffffffffff1602179055505b6000600554346106f9919061243d565b905080600660003373ffffffffffffffffffffffffffffffffffffffff1673ffffffffffffffffffffffffffffffffffffffff1681526020019081526020016000205461074691906123e7565b600660003373ffffffffffffffffffffffffffffffffffffffff1673ffffffffffffffffffffffffffffffffffffffff168152602001908152602001600020819055508060085461079791906123e7565b60088190555050565b600047905090565b600180546107b5906125e2565b80601f01602080910402602001604051908101604052809291908181526020018280546107e1906125e2565b801561082e5780601f106108035761010080835404028352916020019161082e565b820191906000526020600020905b81548152906001019060200180831161081157829003601f168201915b505050505081565b3373ffffffffffffffffffffffffffffffffffffffff1660008054906101000a900473ffffffffffffffffffffffffffffffffffffffff1673ffffffffffffffffffffffffffffffffffffffff16146108c4576040517f08c379a00000000000000000000000000000000000000000000000000000000081526004016108bb90612236565b60405180910390fd5b600a548110610908576040517f08c379a00000000000000000000000000000000000000000000000000000000081526004016108ff906121d6565b60405180910390fd5b6000600281111561091c5761091b6126ec565b5b6009600083815260200190815260200160002060010160009054906101000a900460ff166002811115610952576109516126ec565b5b14610992576040517f08c379a0000000000000000000000000000000000000000000000000000000008152600401610989906121f6565b60405180910390fd5b6000600960008381526020019081526020016000209050600060026008546109ba919061243d565b826004015410806109df5750600282600401546109d7919061243d565b826005015411155b15610a335760028260010160006101000a81548160ff02191690836002811115610a0c57610a0b6126ec565b5b02179055508160020154600b6000828254610a2791906124c8565b92505081905550610ad4565b60018260010160006101000a81548160ff02191690836002811115610a5b57610a5a6126ec565b5b0217905550600190508160030160009054906101000a900473ffffffffffffffffffffffffffffffffffffffff1673ffffffffffffffffffffffffffffffffffffffff166108fc83600201549081150290604051600060405180830381858888f19350505050158015610ad2573d6000803e3d6000fd5b505b7f5fc028bd51b0ea39833c5afe5ee686d9e6cb94e5f815ae5b2f31e5614e3210a98382604051610b059291906122b1565b60405180910390a1505050565b60085481565b6000600660008373ffffffffffffffffffffffffffffffffffffffff1673ffffffffffffffffffffffffffffffffffffffff168152602001908152602001600020549050919050565b600360009054906101000a900460ff1681565b60008054906101000a900473ffffffffffffffffffffffffffffffffffffffff1681565b60045481565b6000600a54905090565b6000600660003373ffffffffffffffffffffffffffffffffffffffff1673ffffffffffffffffffffffffffffffffffffffff1681526020019081526020016000205411610c2a576040517f08c379a0000000000000000000000000000000000000000000000000000000008152600401610c2190612256565b60405180910390fd5b60016002811115610c3e57610c3d6126ec565b5b600360009054906101000a900460ff166002811115610c6057610c5f6126ec565b5b14610ca0576040517f08c379a0000000000000000000000000000000000000000000000000000000008152600401610c9790612196565b60405180910390fd5b6000600554600660003373ffffffffffffffffffffffffffffffffffffffff1673ffffffffffffffffffffffffffffffffffffffff16815260200190815260200160002054610cef919061246e565b90506000600660003373ffffffffffffffffffffffffffffffffffffffff1673ffffffffffffffffffffffffffffffffffffffff168152602001908152602001600020819055503373ffffffffffffffffffffffffffffffffffffffff166108fc829081150290604051600060405180830381858888f19350505050158015610d7c573d6000803e3d6000fd5b5050565b6009602052806000526040600020600091509050806000018054610da3906125e2565b80601f0160208091040260200160405190810160405280929190818152602001828054610dcf906125e2565b8015610e1c5780601f10610df157610100808354040283529160200191610e1c565b820191906000526020600020905b815481529060010190602001808311610dff57829003601f168201915b5050505050908060010160009054906101000a900460ff16908060020154908060030160009054906101000a900473ffffffffffffffffffffffffffffffffffffffff16908060040154908060050154905086565b60006002811115610e8557610e846126ec565b5b600360009054906101000a900460ff166002811115610ea757610ea66126ec565b5b14610ee7576040517f08c379a0000000000000000000000000000000000000000000000000000000008152600401610ede906120f6565b60405180910390fd5b60008054906101000a900473ffffffffffffffffffffffffffffffffffffffff1673ffffffffffffffffffffffffffffffffffffffff163373ffffffffffffffffffffffffffffffffffffffff1614610f9e577f0000000000000000000000000000000000000000000000000000000000000000421015610f9d576040517f08c379a0000000000000000000000000000000000000000000000000000000008152600401610f9490612176565b60405180910390fd5b5b4760045411610fd7576002600360006101000a81548160ff02191690836002811115610fcd57610fcc6126ec565b5b0217905550611003565b6001600360006101000a81548160ff02191690836002811115610ffd57610ffc6126ec565b5b02179055505b565b6007818154811061101557600080fd5b906000526020600020016000915054906101000a900473ffffffffffffffffffffffffffffffffffffffff1681565b60066020528060005260406000206000915090505481565b606060078054806020026020016040519081016040528092919081815260200182805480156110e057602002820191906000526020600020905b8160009054906101000a900473ffffffffffffffffffffffffffffffffffffffff1673ffffffffffffffffffffffffffffffffffffffff1681526020019060010190808311611096575b5050505050905090565b6060600080600a548410611133576040517f08c379a000000000000000000000000000000000000000000000000000000000815260040161112a906121b6565b60405180910390fd5b600060016002811115611149576111486126ec565b5b6009600087815260200190815260200160002060010160009054906101000a900460ff16600281111561117f5761117e6126ec565b5b141561118a57600190505b6000600960008781526020019081526020016000209050806000018160020154838280546111b7906125e2565b80601f01602080910402602001604051908101604052809291908181526020018280546111e3906125e2565b80156112305780601f1061120557610100808354040283529160200191611230565b820191906000526020600020905b81548152906001019060200180831161121357829003601f168201915b5050505050925094509450945050509193909250565b60055481565b6000600780549050905090565b60028054611266906125e2565b80601f0160208091040260200160405190810160405280929190818152602001828054611292906125e2565b80156112df5780601f106112b4576101008083540402835291602001916112df565b820191906000526020600020905b8154815290600101906020018083116112c257829003601f168201915b505050505081565b60606000600a5467ffffffffffffffff81111561130757611306612779565b5b6040519080825280602002602001820160405280156113355781602001602082028036833780820191505090505b5090506000805b600a548110156113d8576000600281111561135a576113596126ec565b5b6009600083815260200190815260200160002060010160009054906101000a900460ff1660028111156113905761138f6126ec565b5b14156113c557808383815181106113aa576113a961274a565b5b60200260200101818152505081806113c190612645565b9250505b80806113d090612645565b91505061133c565b5060008167ffffffffffffffff8111156113f5576113f4612779565b5b6040519080825280602002602001820160405280156114235781602001602082028036833780820191505090505b50905060005b8281101561147e578381815181106114445761144361274a565b5b602002602001015182828151811061145f5761145e61274a565b5b602002602001018181525050808061147690612645565b915050611429565b5080935050505090565b600a5482106114cc576040517f08c379a00000000000000000000000000000000000000000000000000000000081526004016114c3906121d6565b60405180910390fd5b600060028111156114e0576114df6126ec565b5b6009600084815260200190815260200160002060010160009054906101000a900460ff166002811115611516576115156126ec565b5b14611556576040517f08c379a000000000000000000000000000000000000000000000000000000000815260040161154d906121f6565b60405180910390fd5b6000600660003373ffffffffffffffffffffffffffffffffffffffff1673ffffffffffffffffffffffffffffffffffffffff16815260200190815260200160002054116115d8576040517f08c379a00000000000000000000000000000000000000000000000000000000081526004016115cf90612156565b60405180910390fd5b6000600960008481526020019081526020016000209050600015158160060160003373ffffffffffffffffffffffffffffffffffffffff1673ffffffffffffffffffffffffffffffffffffffff16815260200190815260200160002060009054906101000a900460ff16151514611684576040517f08c379a000000000000000000000000000000000000000000000000000000000815260040161167b90612216565b60405180910390fd5b6000600660003373ffffffffffffffffffffffffffffffffffffffff1673ffffffffffffffffffffffffffffffffffffffff16815260200190815260200160002054905060018260060160003373ffffffffffffffffffffffffffffffffffffffff1673ffffffffffffffffffffffffffffffffffffffff16815260200190815260200160002060006101000a81548160ff0219169083151502179055508082600401600082825461173691906123e7565b92505081905550600115158315151415611766578082600501600082825461175e91906123e7565b925050819055505b50505050565b7f000000000000000000000000000000000000000000000000000000000000000081565b3373ffffffffffffffffffffffffffffffffffffffff1660008054906101000a900473ffffffffffffffffffffffffffffffffffffffff1673ffffffffffffffffffffffffffffffffffffffff161461181e576040517f08c379a000000000000000000000000000000000000000000000000000000000815260040161181590612236565b60405180910390fd5b4782600b5461182d91906123e7565b111561186e576040517f08c379a000000000000000000000000000000000000000000000000000000000815260040161186590612276565b60405180910390fd5b600073ffffffffffffffffffffffffffffffffffffffff168173ffffffffffffffffffffffffffffffffffffffff1614156118a857600080fd5b600060096000600a5481526020019081526020016000209050838160000190805190602001906118d99291906119c5565b5060008160010160006101000a81548160ff02191690836002811115611902576119016126ec565b5b0217905550828160020181905550818160030160006101000a81548173ffffffffffffffffffffffffffffffffffffffff021916908373ffffffffffffffffffffffffffffffffffffffff1602179055507f8a9eef508655ba905fac3270e36d1f3410a7101b0b7fe80cc755b4a0c26a71a5600a54426040516119869291906122da565b60405180910390a1600a60008154809291906119a190612645565b919050555082600b60008282546119b891906123e7565b9250508190555050505050565b8280546119d1906125e2565b90600052602060002090601f0160209004810192826119f35760008555611a3a565b82601f10611a0c57805160ff1916838001178555611a3a565b82800160010185558215611a3a579182015b82811115611a39578251825591602001919060010190611a1e565b5b509050611a479190611a4b565b5090565b5b80821115611a64576000816000905550600101611a4c565b5090565b6000611a7b611a7684612328565b612303565b905082815260208101848484011115611a9757611a966127ad565b5b611aa28482856125a0565b509392505050565b600081359050611ab981612a30565b92915050565b600081359050611ace81612a47565b92915050565b600081359050611ae381612a5e565b92915050565b600082601f830112611afe57611afd6127a8565b5b8135611b0e848260208601611a68565b91505092915050565b600081359050611b2681612a75565b92915050565b600060208284031215611b4257611b416127b7565b5b6000611b5084828501611aaa565b91505092915050565b600080600060608486031215611b7257611b716127b7565b5b600084013567ffffffffffffffff811115611b9057611b8f6127b2565b5b611b9c86828701611ae9565b9350506020611bad86828701611b17565b9250506040611bbe86828701611abf565b9150509250925092565b600060208284031215611bde57611bdd6127b7565b5b6000611bec84828501611b17565b91505092915050565b60008060408385031215611c0c57611c0b6127b7565b5b6000611c1a85828601611b17565b9250506020611c2b85828601611ad4565b9150509250929050565b6000611c418383611c74565b60208301905092915050565b6000611c598383611f7b565b60208301905092915050565b611c6e8161250e565b82525050565b611c7d816124fc565b82525050565b611c8c816124fc565b82525050565b6000611c9d82612379565b611ca781856123b4565b9350611cb283612359565b8060005b83811015611ce3578151611cca8882611c35565b9750611cd58361239a565b925050600181019050611cb6565b5085935050505092915050565b6000611cfb82612384565b611d0581856123c5565b9350611d1083612369565b8060005b83811015611d41578151611d288882611c4d565b9750611d33836123a7565b925050600181019050611d14565b5085935050505092915050565b611d5781612520565b82525050565b611d668161257c565b82525050565b611d758161258e565b82525050565b6000611d868261238f565b611d9081856123d6565b9350611da08185602086016125af565b611da9816127bc565b840191505092915050565b6000611dc16013836123d6565b9150611dcc826127cd565b602082019050919050565b6000611de46021836123d6565b9150611def826127f6565b604082019050919050565b6000611e07601e836123d6565b9150611e1282612845565b602082019050919050565b6000611e2a601c836123d6565b9150611e358261286e565b602082019050919050565b6000611e4d6017836123d6565b9150611e5882612897565b602082019050919050565b6000611e706015836123d6565b9150611e7b826128c0565b602082019050919050565b6000611e936015836123d6565b9150611e9e826128e9565b602082019050919050565b6000611eb66014836123d6565b9150611ec182612912565b602082019050919050565b6000611ed9601a836123d6565b9150611ee48261293b565b602082019050919050565b6000611efc601c836123d6565b9150611f0782612964565b602082019050919050565b6000611f1f6014836123d6565b9150611f2a8261298d565b602082019050919050565b6000611f426010836123d6565b9150611f4d826129b6565b602082019050919050565b6000611f656012836123d6565b9150611f70826129df565b602082019050919050565b611f8481612572565b82525050565b611f9381612572565b82525050565b6000602082019050611fae6000830184611c83565b92915050565b6000602082019050611fc96000830184611c65565b92915050565b60006020820190508181036000830152611fe98184611c92565b905092915050565b6000602082019050818103600083015261200b8184611cf0565b905092915050565b60006020820190506120286000830184611d6c565b92915050565b600060208201905081810360008301526120488184611d7b565b905092915050565b600060c082019050818103600083015261206a8189611d7b565b90506120796020830188611d5d565b6120866040830187611f8a565b6120936060830186611c65565b6120a06080830185611f8a565b6120ad60a0830184611f8a565b979650505050505050565b600060608201905081810360008301526120d28186611d7b565b90506120e16020830185611f8a565b6120ee6040830184611d4e565b949350505050565b6000602082019050818103600083015261210f81611db4565b9050919050565b6000602082019050818103600083015261212f81611dd7565b9050919050565b6000602082019050818103600083015261214f81611dfa565b9050919050565b6000602082019050818103600083015261216f81611e1d565b9050919050565b6000602082019050818103600083015261218f81611e40565b9050919050565b600060208201905081810360008301526121af81611e63565b9050919050565b600060208201905081810360008301526121cf81611e86565b9050919050565b600060208201905081810360008301526121ef81611ea9565b9050919050565b6000602082019050818103600083015261220f81611ecc565b9050919050565b6000602082019050818103600083015261222f81611eef565b9050919050565b6000602082019050818103600083015261224f81611f12565b9050919050565b6000602082019050818103600083015261226f81611f35565b9050919050565b6000602082019050818103600083015261228f81611f58565b9050919050565b60006020820190506122ab6000830184611f8a565b92915050565b60006040820190506122c66000830185611f8a565b6122d36020830184611d4e565b9392505050565b60006040820190506122ef6000830185611f8a565b6122fc6020830184611f8a565b9392505050565b600061230d61231e565b90506123198282612614565b919050565b6000604051905090565b600067ffffffffffffffff82111561234357612342612779565b5b61234c826127bc565b9050602081019050919050565b6000819050602082019050919050565b6000819050602082019050919050565b600081519050919050565b600081519050919050565b600081519050919050565b6000602082019050919050565b6000602082019050919050565b600082825260208201905092915050565b600082825260208201905092915050565b600082825260208201905092915050565b60006123f282612572565b91506123fd83612572565b9250827fffffffffffffffffffffffffffffffffffffffffffffffffffffffffffffffff038211156124325761243161268e565b5b828201905092915050565b600061244882612572565b915061245383612572565b925082612463576124626126bd565b5b828204905092915050565b600061247982612572565b915061248483612572565b9250817fffffffffffffffffffffffffffffffffffffffffffffffffffffffffffffffff04831182151516156124bd576124bc61268e565b5b828202905092915050565b60006124d382612572565b91506124de83612572565b9250828210156124f1576124f061268e565b5b828203905092915050565b600061250782612552565b9050919050565b600061251982612552565b9050919050565b60008115159050919050565b600081905061253a82612a08565b919050565b600081905061254d82612a1c565b919050565b600073ffffffffffffffffffffffffffffffffffffffff82169050919050565b6000819050919050565b60006125878261252c565b9050919050565b60006125998261253f565b9050919050565b82818337600083830152505050565b60005b838110156125cd5780820151818401526020810190506125b2565b838111156125dc576000848401525b50505050565b600060028204905060018216806125fa57607f821691505b6020821081141561260e5761260d61271b565b5b50919050565b61261d826127bc565b810181811067ffffffffffffffff8211171561263c5761263b612779565b5b80604052505050565b600061265082612572565b91507fffffffffffffffffffffffffffffffffffffffffffffffffffffffffffffffff8214156126835761268261268e565b5b600182019050919050565b7f4e487b7100000000000000000000000000000000000000000000000000000000600052601160045260246000fd5b7f4e487b7100000000000000000000000000000000000000000000000000000000600052601260045260246000fd5b7f4e487b7100000000000000000000000000000000000000000000000000000000600052602160045260246000fd5b7f4e487b7100000000000000000000000000000000000000000000000000000000600052602260045260246000fd5b7f4e487b7100000000000000000000000000000000000000000000000000000000600052603260045260246000fd5b7f4e487b7100000000000000000000000000000000000000000000000000000000600052604160045260246000fd5b600080fd5b600080fd5b600080fd5b600080fd5b6000601f19601f8301169050919050565b7f43616d70616e7961206e6f206162696572746100000000000000000000000000600082015250565b7f50617274696369706163696f6e206d696e696d61206e6f20616c63616e7a616460008201527f6100000000000000000000000000000000000000000000000000000000000000602082015250565b7f46696e616c697a61646f20706c617a6f2070617274696369706163696f6e0000600082015250565b7f736f6c6f20766f74616e206c6f73207061727469636970616e74657300000000600082015250565b7f43616d7061696e206973206e6f74206f76657220796574000000000000000000600082015250565b7f43616d70616e7961206e6f2063616e63656c6164610000000000000000000000600082015250565b7f7065746963696f6e20696e6578697374656e7472650000000000000000000000600082015250565b7f5065746963696f6e20696e6578697374656e7465000000000000000000000000600082015250565b7f5065746963696f6e206465626520657374617220616374697661000000000000600082015250565b7f456c207061727469636970616e746520796120686120766f7461646f00000000600082015250565b7f4f6e6c792043616d7061696e206d616e61676572000000000000000000000000600082015250565b7f666f6e646f7320726574697261646f7300000000000000000000000000000000600082015250565b7f73616c646f20696e737566696369656e74650000000000000000000000000000600082015250565b60038110612a1957612a186126ec565b5b50565b60038110612a2d57612a2c6126ec565b5b50565b612a39816124fc565b8114612a4457600080fd5b50565b612a508161250e565b8114612a5b57600080fd5b50565b612a6781612520565b8114612a7257600080fd5b50565b612a7e81612572565b8114612a8957600080fd5b5056fea26469706673582212205be0dec0f7c80602df6254663eb0452057acd8650ff690949ed6ffa8801ad68364736f6c63430008070033",
					"opcodes": "PUSH1 0xA0 PUSH1 0x40 MSTORE CALLVALUE DUP1 ISZERO PUSH3 0x11 JUMPI PUSH1 0x0 DUP1 REVERT JUMPDEST POP PUSH1 0x40 MLOAD PUSH3 0x30E2 CODESIZE SUB DUP1 PUSH3 0x30E2 DUP4 CODECOPY DUP2 DUP2 ADD PUSH1 0x40 MSTORE DUP2 ADD SWAP1 PUSH3 0x37 SWAP2 SWAP1 PUSH3 0x273 JUMP JUMPDEST PUSH1 0x0 DUP4 GT DUP1 ISZERO PUSH3 0x48 JUMPI POP PUSH1 0x0 DUP3 GT JUMPDEST PUSH3 0x52 JUMPI PUSH1 0x0 DUP1 REVERT JUMPDEST DUP5 PUSH1 0x1 SWAP1 DUP1 MLOAD SWAP1 PUSH1 0x20 ADD SWAP1 PUSH3 0x6A SWAP3 SWAP2 SWAP1 PUSH3 0x12E JUMP JUMPDEST POP DUP4 PUSH1 0x2 SWAP1 DUP1 MLOAD SWAP1 PUSH1 0x20 ADD SWAP1 PUSH3 0x83 SWAP3 SWAP2 SWAP1 PUSH3 0x12E JUMP JUMPDEST POP CALLER PUSH1 0x0 DUP1 PUSH2 0x100 EXP DUP2 SLOAD DUP2 PUSH20 0xFFFFFFFFFFFFFFFFFFFFFFFFFFFFFFFFFFFFFFFF MUL NOT AND SWAP1 DUP4 PUSH20 0xFFFFFFFFFFFFFFFFFFFFFFFFFFFFFFFFFFFFFFFF AND MUL OR SWAP1 SSTORE POP DUP2 PUSH1 0x5 DUP2 SWAP1 SSTORE POP DUP3 PUSH1 0x4 DUP2 SWAP1 SSTORE POP PUSH1 0x0 PUSH1 0x3 PUSH1 0x0 PUSH2 0x100 EXP DUP2 SLOAD DUP2 PUSH1 0xFF MUL NOT AND SWAP1 DUP4 PUSH1 0x2 DUP2 GT ISZERO PUSH3 0xFB JUMPI PUSH3 0xFA PUSH3 0x531 JUMP JUMPDEST JUMPDEST MUL OR SWAP1 SSTORE POP PUSH1 0x1 DUP2 PUSH3 0x10F SWAP2 SWAP1 PUSH3 0x3F5 JUMP JUMPDEST TIMESTAMP PUSH3 0x11C SWAP2 SWAP1 PUSH3 0x398 JUMP JUMPDEST PUSH1 0x80 DUP2 DUP2 MSTORE POP POP POP POP POP POP POP PUSH3 0x5FD JUMP JUMPDEST DUP3 DUP1 SLOAD PUSH3 0x13C SWAP1 PUSH3 0x496 JUMP JUMPDEST SWAP1 PUSH1 0x0 MSTORE PUSH1 0x20 PUSH1 0x0 KECCAK256 SWAP1 PUSH1 0x1F ADD PUSH1 0x20 SWAP1 DIV DUP2 ADD SWAP3 DUP3 PUSH3 0x160 JUMPI PUSH1 0x0 DUP6 SSTORE PUSH3 0x1AC JUMP JUMPDEST DUP3 PUSH1 0x1F LT PUSH3 0x17B JUMPI DUP1 MLOAD PUSH1 0xFF NOT AND DUP4 DUP1 ADD OR DUP6 SSTORE PUSH3 0x1AC JUMP JUMPDEST DUP3 DUP1 ADD PUSH1 0x1 ADD DUP6 SSTORE DUP3 ISZERO PUSH3 0x1AC JUMPI SWAP2 DUP3 ADD JUMPDEST DUP3 DUP2 GT ISZERO PUSH3 0x1AB JUMPI DUP3 MLOAD DUP3 SSTORE SWAP2 PUSH1 0x20 ADD SWAP2 SWAP1 PUSH1 0x1 ADD SWAP1 PUSH3 0x18E JUMP JUMPDEST JUMPDEST POP SWAP1 POP PUSH3 0x1BB SWAP2 SWAP1 PUSH3 0x1BF JUMP JUMPDEST POP SWAP1 JUMP JUMPDEST JUMPDEST DUP1 DUP3 GT ISZERO PUSH3 0x1DA JUMPI PUSH1 0x0 DUP2 PUSH1 0x0 SWAP1 SSTORE POP PUSH1 0x1 ADD PUSH3 0x1C0 JUMP JUMPDEST POP SWAP1 JUMP JUMPDEST PUSH1 0x0 PUSH3 0x1F5 PUSH3 0x1EF DUP5 PUSH3 0x362 JUMP JUMPDEST PUSH3 0x339 JUMP JUMPDEST SWAP1 POP DUP3 DUP2 MSTORE PUSH1 0x20 DUP2 ADD DUP5 DUP5 DUP5 ADD GT ISZERO PUSH3 0x214 JUMPI PUSH3 0x213 PUSH3 0x5C3 JUMP JUMPDEST JUMPDEST PUSH3 0x221 DUP5 DUP3 DUP6 PUSH3 0x460 JUMP JUMPDEST POP SWAP4 SWAP3 POP POP POP JUMP JUMPDEST PUSH1 0x0 DUP3 PUSH1 0x1F DUP4 ADD SLT PUSH3 0x241 JUMPI PUSH3 0x240 PUSH3 0x5BE JUMP JUMPDEST JUMPDEST DUP2 MLOAD PUSH3 0x253 DUP5 DUP3 PUSH1 0x20 DUP7 ADD PUSH3 0x1DE JUMP JUMPDEST SWAP2 POP POP SWAP3 SWAP2 POP POP JUMP JUMPDEST PUSH1 0x0 DUP2 MLOAD SWAP1 POP PUSH3 0x26D DUP2 PUSH3 0x5E3 JUMP JUMPDEST SWAP3 SWAP2 POP POP JUMP JUMPDEST PUSH1 0x0 DUP1 PUSH1 0x0 DUP1 PUSH1 0x0 PUSH1 0xA0 DUP7 DUP9 SUB SLT ISZERO PUSH3 0x292 JUMPI PUSH3 0x291 PUSH3 0x5CD JUMP JUMPDEST JUMPDEST PUSH1 0x0 DUP7 ADD MLOAD PUSH8 0xFFFFFFFFFFFFFFFF DUP2 GT ISZERO PUSH3 0x2B3 JUMPI PUSH3 0x2B2 PUSH3 0x5C8 JUMP JUMPDEST JUMPDEST PUSH3 0x2C1 DUP9 DUP3 DUP10 ADD PUSH3 0x229 JUMP JUMPDEST SWAP6 POP POP PUSH1 0x20 DUP7 ADD MLOAD PUSH8 0xFFFFFFFFFFFFFFFF DUP2 GT ISZERO PUSH3 0x2E5 JUMPI PUSH3 0x2E4 PUSH3 0x5C8 JUMP JUMPDEST JUMPDEST PUSH3 0x2F3 DUP9 DUP3 DUP10 ADD PUSH3 0x229 JUMP JUMPDEST SWAP5 POP POP PUSH1 0x40 PUSH3 0x306 DUP9 DUP3 DUP10 ADD PUSH3 0x25C JUMP JUMPDEST SWAP4 POP POP PUSH1 0x60 PUSH3 0x319 DUP9 DUP3 DUP10 ADD PUSH3 0x25C JUMP JUMPDEST SWAP3 POP POP PUSH1 0x80 PUSH3 0x32C DUP9 DUP3 DUP10 ADD PUSH3 0x25C JUMP JUMPDEST SWAP2 POP POP SWAP3 SWAP6 POP SWAP3 SWAP6 SWAP1 SWAP4 POP JUMP JUMPDEST PUSH1 0x0 PUSH3 0x345 PUSH3 0x358 JUMP JUMPDEST SWAP1 POP PUSH3 0x353 DUP3 DUP3 PUSH3 0x4CC JUMP JUMPDEST SWAP2 SWAP1 POP JUMP JUMPDEST PUSH1 0x0 PUSH1 0x40 MLOAD SWAP1 POP SWAP1 JUMP JUMPDEST PUSH1 0x0 PUSH8 0xFFFFFFFFFFFFFFFF DUP3 GT ISZERO PUSH3 0x380 JUMPI PUSH3 0x37F PUSH3 0x58F JUMP JUMPDEST JUMPDEST PUSH3 0x38B DUP3 PUSH3 0x5D2 JUMP JUMPDEST SWAP1 POP PUSH1 0x20 DUP2 ADD SWAP1 POP SWAP2 SWAP1 POP JUMP JUMPDEST PUSH1 0x0 PUSH3 0x3A5 DUP3 PUSH3 0x456 JUMP JUMPDEST SWAP2 POP PUSH3 0x3B2 DUP4 PUSH3 0x456 JUMP JUMPDEST SWAP3 POP DUP3 PUSH32 0xFFFFFFFFFFFFFFFFFFFFFFFFFFFFFFFFFFFFFFFFFFFFFFFFFFFFFFFFFFFFFFFF SUB DUP3 GT ISZERO PUSH3 0x3EA JUMPI PUSH3 0x3E9 PUSH3 0x502 JUMP JUMPDEST JUMPDEST DUP3 DUP3 ADD SWAP1 POP SWAP3 SWAP2 POP POP JUMP JUMPDEST PUSH1 0x0 PUSH3 0x402 DUP3 PUSH3 0x456 JUMP JUMPDEST SWAP2 POP PUSH3 0x40F DUP4 PUSH3 0x456 JUMP JUMPDEST SWAP3 POP DUP2 PUSH32 0xFFFFFFFFFFFFFFFFFFFFFFFFFFFFFFFFFFFFFFFFFFFFFFFFFFFFFFFFFFFFFFFF DIV DUP4 GT DUP3 ISZERO ISZERO AND ISZERO PUSH3 0x44B JUMPI PUSH3 0x44A PUSH3 0x502 JUMP JUMPDEST JUMPDEST DUP3 DUP3 MUL SWAP1 POP SWAP3 SWAP2 POP POP JUMP JUMPDEST PUSH1 0x0 DUP2 SWAP1 POP SWAP2 SWAP1 POP JUMP JUMPDEST PUSH1 0x0 JUMPDEST DUP4 DUP2 LT ISZERO PUSH3 0x480 JUMPI DUP1 DUP3 ADD MLOAD DUP2 DUP5 ADD MSTORE PUSH1 0x20 DUP2 ADD SWAP1 POP PUSH3 0x463 JUMP JUMPDEST DUP4 DUP2 GT ISZERO PUSH3 0x490 JUMPI PUSH1 0x0 DUP5 DUP5 ADD MSTORE JUMPDEST POP POP POP POP JUMP JUMPDEST PUSH1 0x0 PUSH1 0x2 DUP3 DIV SWAP1 POP PUSH1 0x1 DUP3 AND DUP1 PUSH3 0x4AF JUMPI PUSH1 0x7F DUP3 AND SWAP2 POP JUMPDEST PUSH1 0x20 DUP3 LT DUP2 EQ ISZERO PUSH3 0x4C6 JUMPI PUSH3 0x4C5 PUSH3 0x560 JUMP JUMPDEST JUMPDEST POP SWAP2 SWAP1 POP JUMP JUMPDEST PUSH3 0x4D7 DUP3 PUSH3 0x5D2 JUMP JUMPDEST DUP2 ADD DUP2 DUP2 LT PUSH8 0xFFFFFFFFFFFFFFFF DUP3 GT OR ISZERO PUSH3 0x4F9 JUMPI PUSH3 0x4F8 PUSH3 0x58F JUMP JUMPDEST JUMPDEST DUP1 PUSH1 0x40 MSTORE POP POP POP JUMP JUMPDEST PUSH32 0x4E487B7100000000000000000000000000000000000000000000000000000000 PUSH1 0x0 MSTORE PUSH1 0x11 PUSH1 0x4 MSTORE PUSH1 0x24 PUSH1 0x0 REVERT JUMPDEST PUSH32 0x4E487B7100000000000000000000000000000000000000000000000000000000 PUSH1 0x0 MSTORE PUSH1 0x21 PUSH1 0x4 MSTORE PUSH1 0x24 PUSH1 0x0 REVERT JUMPDEST PUSH32 0x4E487B7100000000000000000000000000000000000000000000000000000000 PUSH1 0x0 MSTORE PUSH1 0x22 PUSH1 0x4 MSTORE PUSH1 0x24 PUSH1 0x0 REVERT JUMPDEST PUSH32 0x4E487B7100000000000000000000000000000000000000000000000000000000 PUSH1 0x0 MSTORE PUSH1 0x41 PUSH1 0x4 MSTORE PUSH1 0x24 PUSH1 0x0 REVERT JUMPDEST PUSH1 0x0 DUP1 REVERT JUMPDEST PUSH1 0x0 DUP1 REVERT JUMPDEST PUSH1 0x0 DUP1 REVERT JUMPDEST PUSH1 0x0 DUP1 REVERT JUMPDEST PUSH1 0x0 PUSH1 0x1F NOT PUSH1 0x1F DUP4 ADD AND SWAP1 POP SWAP2 SWAP1 POP JUMP JUMPDEST PUSH3 0x5EE DUP2 PUSH3 0x456 JUMP JUMPDEST DUP2 EQ PUSH3 0x5FA JUMPI PUSH1 0x0 DUP1 REVERT JUMPDEST POP JUMP JUMPDEST PUSH1 0x80 MLOAD PUSH2 0x2AC2 PUSH3 0x620 PUSH1 0x0 CODECOPY PUSH1 0x0 DUP2 DUP2 PUSH2 0xF3C ADD MSTORE PUSH2 0x176E ADD MSTORE PUSH2 0x2AC2 PUSH1 0x0 RETURN INVALID PUSH1 0x80 PUSH1 0x40 MSTORE PUSH1 0x4 CALLDATASIZE LT PUSH2 0x14F JUMPI PUSH1 0x0 CALLDATALOAD PUSH1 0xE0 SHR DUP1 PUSH4 0xB25924C1 GT PUSH2 0xB6 JUMPI DUP1 PUSH4 0xE3CE8164 GT PUSH2 0x6F JUMPI DUP1 PUSH4 0xE3CE8164 EQ PUSH2 0x484 JUMPI DUP1 PUSH4 0xE7425109 EQ PUSH2 0x4AF JUMPI DUP1 PUSH4 0xEB68F887 EQ PUSH2 0x4DA JUMPI DUP1 PUSH4 0xF7256D66 EQ PUSH2 0x505 JUMPI DUP1 PUSH4 0xF7A7E57E EQ PUSH2 0x52E JUMPI DUP1 PUSH4 0xF83589C0 EQ PUSH2 0x559 JUMPI PUSH2 0x15E JUMP JUMPDEST DUP1 PUSH4 0xB25924C1 EQ PUSH2 0x36B JUMPI DUP1 PUSH4 0xBBDE609A EQ PUSH2 0x3A8 JUMPI DUP1 PUSH4 0xCAC9A391 EQ PUSH2 0x3E5 JUMPI DUP1 PUSH4 0xD50AF7B4 EQ PUSH2 0x410 JUMPI DUP1 PUSH4 0xD50FAC49 EQ PUSH2 0x44F JUMPI DUP1 PUSH4 0xE348C518 EQ PUSH2 0x459 JUMPI PUSH2 0x15E JUMP JUMPDEST DUP1 PUSH4 0x8F75C1FB GT PUSH2 0x108 JUMPI DUP1 PUSH4 0x8F75C1FB EQ PUSH2 0x27A JUMPI DUP1 PUSH4 0x95DF868D EQ PUSH2 0x2A5 JUMPI DUP1 PUSH4 0x9DE8FC99 EQ PUSH2 0x2D0 JUMPI DUP1 PUSH4 0xA4E58A87 EQ PUSH2 0x2FB JUMPI DUP1 PUSH4 0xAB672906 EQ PUSH2 0x312 JUMPI DUP1 PUSH4 0xB14D38C2 EQ PUSH2 0x354 JUMPI PUSH2 0x15E JUMP JUMPDEST DUP1 PUSH4 0x225682D1 EQ PUSH2 0x168 JUMPI DUP1 PUSH4 0x3DEFF252 EQ PUSH2 0x193 JUMPI DUP1 PUSH4 0x3E0905EC EQ PUSH2 0x1BE JUMPI DUP1 PUSH4 0x7BD82410 EQ PUSH2 0x1E7 JUMPI DUP1 PUSH4 0x8B83BA26 EQ PUSH2 0x212 JUMPI DUP1 PUSH4 0x8D1750C5 EQ PUSH2 0x24F JUMPI PUSH2 0x15E JUMP JUMPDEST CALLDATASIZE PUSH2 0x15E JUMPI PUSH2 0x15C PUSH2 0x582 JUMP JUMPDEST STOP JUMPDEST PUSH2 0x166 PUSH2 0x582 JUMP JUMPDEST STOP JUMPDEST CALLVALUE DUP1 ISZERO PUSH2 0x174 JUMPI PUSH1 0x0 DUP1 REVERT JUMPDEST POP PUSH2 0x17D PUSH2 0x7A0 JUMP JUMPDEST PUSH1 0x40 MLOAD PUSH2 0x18A SWAP2 SWAP1 PUSH2 0x2296 JUMP JUMPDEST PUSH1 0x40 MLOAD DUP1 SWAP2 SUB SWAP1 RETURN JUMPDEST CALLVALUE DUP1 ISZERO PUSH2 0x19F JUMPI PUSH1 0x0 DUP1 REVERT JUMPDEST POP PUSH2 0x1A8 PUSH2 0x7A8 JUMP JUMPDEST PUSH1 0x40 MLOAD PUSH2 0x1B5 SWAP2 SWAP1 PUSH2 0x202E JUMP JUMPDEST PUSH1 0x40 MLOAD DUP1 SWAP2 SUB SWAP1 RETURN JUMPDEST CALLVALUE DUP1 ISZERO PUSH2 0x1CA JUMPI PUSH1 0x0 DUP1 REVERT JUMPDEST POP PUSH2 0x1E5 PUSH1 0x4 DUP1 CALLDATASIZE SUB DUP2 ADD SWAP1 PUSH2 0x1E0 SWAP2 SWAP1 PUSH2 0x1BC8 JUMP JUMPDEST PUSH2 0x836 JUMP JUMPDEST STOP JUMPDEST CALLVALUE DUP1 ISZERO PUSH2 0x1F3 JUMPI PUSH1 0x0 DUP1 REVERT JUMPDEST POP PUSH2 0x1FC PUSH2 0xB12 JUMP JUMPDEST PUSH1 0x40 MLOAD PUSH2 0x209 SWAP2 SWAP1 PUSH2 0x2296 JUMP JUMPDEST PUSH1 0x40 MLOAD DUP1 SWAP2 SUB SWAP1 RETURN JUMPDEST CALLVALUE DUP1 ISZERO PUSH2 0x21E JUMPI PUSH1 0x0 DUP1 REVERT JUMPDEST POP PUSH2 0x239 PUSH1 0x4 DUP1 CALLDATASIZE SUB DUP2 ADD SWAP1 PUSH2 0x234 SWAP2 SWAP1 PUSH2 0x1B2C JUMP JUMPDEST PUSH2 0xB18 JUMP JUMPDEST PUSH1 0x40 MLOAD PUSH2 0x246 SWAP2 SWAP1 PUSH2 0x2296 JUMP JUMPDEST PUSH1 0x40 MLOAD DUP1 SWAP2 SUB SWAP1 RETURN JUMPDEST CALLVALUE DUP1 ISZERO PUSH2 0x25B JUMPI PUSH1 0x0 DUP1 REVERT JUMPDEST POP PUSH2 0x264 PUSH2 0xB61 JUMP JUMPDEST PUSH1 0x40 MLOAD PUSH2 0x271 SWAP2 SWAP1 PUSH2 0x2013 JUMP JUMPDEST PUSH1 0x40 MLOAD DUP1 SWAP2 SUB SWAP1 RETURN JUMPDEST CALLVALUE DUP1 ISZERO PUSH2 0x286 JUMPI PUSH1 0x0 DUP1 REVERT JUMPDEST POP PUSH2 0x28F PUSH2 0xB74 JUMP JUMPDEST PUSH1 0x40 MLOAD PUSH2 0x29C SWAP2 SWAP1 PUSH2 0x1FB4 JUMP JUMPDEST PUSH1 0x40 MLOAD DUP1 SWAP2 SUB SWAP1 RETURN JUMPDEST CALLVALUE DUP1 ISZERO PUSH2 0x2B1 JUMPI PUSH1 0x0 DUP1 REVERT JUMPDEST POP PUSH2 0x2BA PUSH2 0xB98 JUMP JUMPDEST PUSH1 0x40 MLOAD PUSH2 0x2C7 SWAP2 SWAP1 PUSH2 0x2296 JUMP JUMPDEST PUSH1 0x40 MLOAD DUP1 SWAP2 SUB SWAP1 RETURN JUMPDEST CALLVALUE DUP1 ISZERO PUSH2 0x2DC JUMPI PUSH1 0x0 DUP1 REVERT JUMPDEST POP PUSH2 0x2E5 PUSH2 0xB9E JUMP JUMPDEST PUSH1 0x40 MLOAD PUSH2 0x2F2 SWAP2 SWAP1 PUSH2 0x2296 JUMP JUMPDEST PUSH1 0x40 MLOAD DUP1 SWAP2 SUB SWAP1 RETURN JUMPDEST CALLVALUE DUP1 ISZERO PUSH2 0x307 JUMPI PUSH1 0x0 DUP1 REVERT JUMPDEST POP PUSH2 0x310 PUSH2 0xBA8 JUMP JUMPDEST STOP JUMPDEST CALLVALUE DUP1 ISZERO PUSH2 0x31E JUMPI PUSH1 0x0 DUP1 REVERT JUMPDEST POP PUSH2 0x339 PUSH1 0x4 DUP1 CALLDATASIZE SUB DUP2 ADD SWAP1 PUSH2 0x334 SWAP2 SWAP1 PUSH2 0x1BC8 JUMP JUMPDEST PUSH2 0xD80 JUMP JUMPDEST PUSH1 0x40 MLOAD PUSH2 0x34B SWAP7 SWAP6 SWAP5 SWAP4 SWAP3 SWAP2 SWAP1 PUSH2 0x2050 JUMP JUMPDEST PUSH1 0x40 MLOAD DUP1 SWAP2 SUB SWAP1 RETURN JUMPDEST CALLVALUE DUP1 ISZERO PUSH2 0x360 JUMPI PUSH1 0x0 DUP1 REVERT JUMPDEST POP PUSH2 0x369 PUSH2 0xE71 JUMP JUMPDEST STOP JUMPDEST CALLVALUE DUP1 ISZERO PUSH2 0x377 JUMPI PUSH1 0x0 DUP1 REVERT JUMPDEST POP PUSH2 0x392 PUSH1 0x4 DUP1 CALLDATASIZE SUB DUP2 ADD SWAP1 PUSH2 0x38D SWAP2 SWAP1 PUSH2 0x1BC8 JUMP JUMPDEST PUSH2 0x1005 JUMP JUMPDEST PUSH1 0x40 MLOAD PUSH2 0x39F SWAP2 SWAP1 PUSH2 0x1F99 JUMP JUMPDEST PUSH1 0x40 MLOAD DUP1 SWAP2 SUB SWAP1 RETURN JUMPDEST CALLVALUE DUP1 ISZERO PUSH2 0x3B4 JUMPI PUSH1 0x0 DUP1 REVERT JUMPDEST POP PUSH2 0x3CF PUSH1 0x4 DUP1 CALLDATASIZE SUB DUP2 ADD SWAP1 PUSH2 0x3CA SWAP2 SWAP1 PUSH2 0x1B2C JUMP JUMPDEST PUSH2 0x1044 JUMP JUMPDEST PUSH1 0x40 MLOAD PUSH2 0x3DC SWAP2 SWAP1 PUSH2 0x2296 JUMP JUMPDEST PUSH1 0x40 MLOAD DUP1 SWAP2 SUB SWAP1 RETURN JUMPDEST CALLVALUE DUP1 ISZERO PUSH2 0x3F1 JUMPI PUSH1 0x0 DUP1 REVERT JUMPDEST POP PUSH2 0x3FA PUSH2 0x105C JUMP JUMPDEST PUSH1 0x40 MLOAD PUSH2 0x407 SWAP2 SWAP1 PUSH2 0x1FCF JUMP JUMPDEST PUSH1 0x40 MLOAD DUP1 SWAP2 SUB SWAP1 RETURN JUMPDEST CALLVALUE DUP1 ISZERO PUSH2 0x41C JUMPI PUSH1 0x0 DUP1 REVERT JUMPDEST POP PUSH2 0x437 PUSH1 0x4 DUP1 CALLDATASIZE SUB DUP2 ADD SWAP1 PUSH2 0x432 SWAP2 SWAP1 PUSH2 0x1BC8 JUMP JUMPDEST PUSH2 0x10EA JUMP JUMPDEST PUSH1 0x40 MLOAD PUSH2 0x446 SWAP4 SWAP3 SWAP2 SWAP1 PUSH2 0x20B8 JUMP JUMPDEST PUSH1 0x40 MLOAD DUP1 SWAP2 SUB SWAP1 RETURN JUMPDEST PUSH2 0x457 PUSH2 0x582 JUMP JUMPDEST STOP JUMPDEST CALLVALUE DUP1 ISZERO PUSH2 0x465 JUMPI PUSH1 0x0 DUP1 REVERT JUMPDEST POP PUSH2 0x46E PUSH2 0x1246 JUMP JUMPDEST PUSH1 0x40 MLOAD PUSH2 0x47B SWAP2 SWAP1 PUSH2 0x2296 JUMP JUMPDEST PUSH1 0x40 MLOAD DUP1 SWAP2 SUB SWAP1 RETURN JUMPDEST CALLVALUE DUP1 ISZERO PUSH2 0x490 JUMPI PUSH1 0x0 DUP1 REVERT JUMPDEST POP PUSH2 0x499 PUSH2 0x124C JUMP JUMPDEST PUSH1 0x40 MLOAD PUSH2 0x4A6 SWAP2 SWAP1 PUSH2 0x2296 JUMP JUMPDEST PUSH1 0x40 MLOAD DUP1 SWAP2 SUB SWAP1 RETURN JUMPDEST CALLVALUE DUP1 ISZERO PUSH2 0x4BB JUMPI PUSH1 0x0 DUP1 REVERT JUMPDEST POP PUSH2 0x4C4 PUSH2 0x1259 JUMP JUMPDEST PUSH1 0x40 MLOAD PUSH2 0x4D1 SWAP2 SWAP1 PUSH2 0x202E JUMP JUMPDEST PUSH1 0x40 MLOAD DUP1 SWAP2 SUB SWAP1 RETURN JUMPDEST CALLVALUE DUP1 ISZERO PUSH2 0x4E6 JUMPI PUSH1 0x0 DUP1 REVERT JUMPDEST POP PUSH2 0x4EF PUSH2 0x12E7 JUMP JUMPDEST PUSH1 0x40 MLOAD PUSH2 0x4FC SWAP2 SWAP1 PUSH2 0x1FF1 JUMP JUMPDEST PUSH1 0x40 MLOAD DUP1 SWAP2 SUB SWAP1 RETURN JUMPDEST CALLVALUE DUP1 ISZERO PUSH2 0x511 JUMPI PUSH1 0x0 DUP1 REVERT JUMPDEST POP PUSH2 0x52C PUSH1 0x4 DUP1 CALLDATASIZE SUB DUP2 ADD SWAP1 PUSH2 0x527 SWAP2 SWAP1 PUSH2 0x1BF5 JUMP JUMPDEST PUSH2 0x1488 JUMP JUMPDEST STOP JUMPDEST CALLVALUE DUP1 ISZERO PUSH2 0x53A JUMPI PUSH1 0x0 DUP1 REVERT JUMPDEST POP PUSH2 0x543 PUSH2 0x176C JUMP JUMPDEST PUSH1 0x40 MLOAD PUSH2 0x550 SWAP2 SWAP1 PUSH2 0x2296 JUMP JUMPDEST PUSH1 0x40 MLOAD DUP1 SWAP2 SUB SWAP1 RETURN JUMPDEST CALLVALUE DUP1 ISZERO PUSH2 0x565 JUMPI PUSH1 0x0 DUP1 REVERT JUMPDEST POP PUSH2 0x580 PUSH1 0x4 DUP1 CALLDATASIZE SUB DUP2 ADD SWAP1 PUSH2 0x57B SWAP2 SWAP1 PUSH2 0x1B59 JUMP JUMPDEST PUSH2 0x1790 JUMP JUMPDEST STOP JUMPDEST PUSH1 0x5 SLOAD CALLVALUE LT ISZERO PUSH2 0x5C7 JUMPI PUSH1 0x40 MLOAD PUSH32 0x8C379A000000000000000000000000000000000000000000000000000000000 DUP2 MSTORE PUSH1 0x4 ADD PUSH2 0x5BE SWAP1 PUSH2 0x2116 JUMP JUMPDEST PUSH1 0x40 MLOAD DUP1 SWAP2 SUB SWAP1 REVERT JUMPDEST PUSH1 0x0 PUSH1 0x2 DUP2 GT ISZERO PUSH2 0x5DB JUMPI PUSH2 0x5DA PUSH2 0x26EC JUMP JUMPDEST JUMPDEST PUSH1 0x3 PUSH1 0x0 SWAP1 SLOAD SWAP1 PUSH2 0x100 EXP SWAP1 DIV PUSH1 0xFF AND PUSH1 0x2 DUP2 GT ISZERO PUSH2 0x5FD JUMPI PUSH2 0x5FC PUSH2 0x26EC JUMP JUMPDEST JUMPDEST EQ PUSH2 0x63D JUMPI PUSH1 0x40 MLOAD PUSH32 0x8C379A000000000000000000000000000000000000000000000000000000000 DUP2 MSTORE PUSH1 0x4 ADD PUSH2 0x634 SWAP1 PUSH2 0x2136 JUMP JUMPDEST PUSH1 0x40 MLOAD DUP1 SWAP2 SUB SWAP1 REVERT JUMPDEST PUSH1 0x0 PUSH1 0x6 PUSH1 0x0 CALLER PUSH20 0xFFFFFFFFFFFFFFFFFFFFFFFFFFFFFFFFFFFFFFFF AND PUSH20 0xFFFFFFFFFFFFFFFFFFFFFFFFFFFFFFFFFFFFFFFF AND DUP2 MSTORE PUSH1 0x20 ADD SWAP1 DUP2 MSTORE PUSH1 0x20 ADD PUSH1 0x0 KECCAK256 SLOAD EQ ISZERO PUSH2 0x6E9 JUMPI PUSH1 0x7 CALLER SWAP1 DUP1 PUSH1 0x1 DUP2 SLOAD ADD DUP1 DUP3 SSTORE DUP1 SWAP2 POP POP PUSH1 0x1 SWAP1 SUB SWAP1 PUSH1 0x0 MSTORE PUSH1 0x20 PUSH1 0x0 KECCAK256 ADD PUSH1 0x0 SWAP1 SWAP2 SWAP1 SWAP2 SWAP1 SWAP2 PUSH2 0x100 EXP DUP2 SLOAD DUP2 PUSH20 0xFFFFFFFFFFFFFFFFFFFFFFFFFFFFFFFFFFFFFFFF MUL NOT AND SWAP1 DUP4 PUSH20 0xFFFFFFFFFFFFFFFFFFFFFFFFFFFFFFFFFFFFFFFF AND MUL OR SWAP1 SSTORE POP JUMPDEST PUSH1 0x0 PUSH1 0x5 SLOAD CALLVALUE PUSH2 0x6F9 SWAP2 SWAP1 PUSH2 0x243D JUMP JUMPDEST SWAP1 POP DUP1 PUSH1 0x6 PUSH1 0x0 CALLER PUSH20 0xFFFFFFFFFFFFFFFFFFFFFFFFFFFFFFFFFFFFFFFF AND PUSH20 0xFFFFFFFFFFFFFFFFFFFFFFFFFFFFFFFFFFFFFFFF AND DUP2 MSTORE PUSH1 0x20 ADD SWAP1 DUP2 MSTORE PUSH1 0x20 ADD PUSH1 0x0 KECCAK256 SLOAD PUSH2 0x746 SWAP2 SWAP1 PUSH2 0x23E7 JUMP JUMPDEST PUSH1 0x6 PUSH1 0x0 CALLER PUSH20 0xFFFFFFFFFFFFFFFFFFFFFFFFFFFFFFFFFFFFFFFF AND PUSH20 0xFFFFFFFFFFFFFFFFFFFFFFFFFFFFFFFFFFFFFFFF AND DUP2 MSTORE PUSH1 0x20 ADD SWAP1 DUP2 MSTORE PUSH1 0x20 ADD PUSH1 0x0 KECCAK256 DUP2 SWAP1 SSTORE POP DUP1 PUSH1 0x8 SLOAD PUSH2 0x797 SWAP2 SWAP1 PUSH2 0x23E7 JUMP JUMPDEST PUSH1 0x8 DUP2 SWAP1 SSTORE POP POP JUMP JUMPDEST PUSH1 0x0 SELFBALANCE SWAP1 POP SWAP1 JUMP JUMPDEST PUSH1 0x1 DUP1 SLOAD PUSH2 0x7B5 SWAP1 PUSH2 0x25E2 JUMP JUMPDEST DUP1 PUSH1 0x1F ADD PUSH1 0x20 DUP1 SWAP2 DIV MUL PUSH1 0x20 ADD PUSH1 0x40 MLOAD SWAP1 DUP2 ADD PUSH1 0x40 MSTORE DUP1 SWAP3 SWAP2 SWAP1 DUP2 DUP2 MSTORE PUSH1 0x20 ADD DUP3 DUP1 SLOAD PUSH2 0x7E1 SWAP1 PUSH2 0x25E2 JUMP JUMPDEST DUP1 ISZERO PUSH2 0x82E JUMPI DUP1 PUSH1 0x1F LT PUSH2 0x803 JUMPI PUSH2 0x100 DUP1 DUP4 SLOAD DIV MUL DUP4 MSTORE SWAP2 PUSH1 0x20 ADD SWAP2 PUSH2 0x82E JUMP JUMPDEST DUP3 ADD SWAP2 SWAP1 PUSH1 0x0 MSTORE PUSH1 0x20 PUSH1 0x0 KECCAK256 SWAP1 JUMPDEST DUP2 SLOAD DUP2 MSTORE SWAP1 PUSH1 0x1 ADD SWAP1 PUSH1 0x20 ADD DUP1 DUP4 GT PUSH2 0x811 JUMPI DUP3 SWAP1 SUB PUSH1 0x1F AND DUP3 ADD SWAP2 JUMPDEST POP POP POP POP POP DUP2 JUMP JUMPDEST CALLER PUSH20 0xFFFFFFFFFFFFFFFFFFFFFFFFFFFFFFFFFFFFFFFF AND PUSH1 0x0 DUP1 SLOAD SWAP1 PUSH2 0x100 EXP SWAP1 DIV PUSH20 0xFFFFFFFFFFFFFFFFFFFFFFFFFFFFFFFFFFFFFFFF AND PUSH20 0xFFFFFFFFFFFFFFFFFFFFFFFFFFFFFFFFFFFFFFFF AND EQ PUSH2 0x8C4 JUMPI PUSH1 0x40 MLOAD PUSH32 0x8C379A000000000000000000000000000000000000000000000000000000000 DUP2 MSTORE PUSH1 0x4 ADD PUSH2 0x8BB SWAP1 PUSH2 0x2236 JUMP JUMPDEST PUSH1 0x40 MLOAD DUP1 SWAP2 SUB SWAP1 REVERT JUMPDEST PUSH1 0xA SLOAD DUP2 LT PUSH2 0x908 JUMPI PUSH1 0x40 MLOAD PUSH32 0x8C379A000000000000000000000000000000000000000000000000000000000 DUP2 MSTORE PUSH1 0x4 ADD PUSH2 0x8FF SWAP1 PUSH2 0x21D6 JUMP JUMPDEST PUSH1 0x40 MLOAD DUP1 SWAP2 SUB SWAP1 REVERT JUMPDEST PUSH1 0x0 PUSH1 0x2 DUP2 GT ISZERO PUSH2 0x91C JUMPI PUSH2 0x91B PUSH2 0x26EC JUMP JUMPDEST JUMPDEST PUSH1 0x9 PUSH1 0x0 DUP4 DUP2 MSTORE PUSH1 0x20 ADD SWAP1 DUP2 MSTORE PUSH1 0x20 ADD PUSH1 0x0 KECCAK256 PUSH1 0x1 ADD PUSH1 0x0 SWAP1 SLOAD SWAP1 PUSH2 0x100 EXP SWAP1 DIV PUSH1 0xFF AND PUSH1 0x2 DUP2 GT ISZERO PUSH2 0x952 JUMPI PUSH2 0x951 PUSH2 0x26EC JUMP JUMPDEST JUMPDEST EQ PUSH2 0x992 JUMPI PUSH1 0x40 MLOAD PUSH32 0x8C379A000000000000000000000000000000000000000000000000000000000 DUP2 MSTORE PUSH1 0x4 ADD PUSH2 0x989 SWAP1 PUSH2 0x21F6 JUMP JUMPDEST PUSH1 0x40 MLOAD DUP1 SWAP2 SUB SWAP1 REVERT JUMPDEST PUSH1 0x0 PUSH1 0x9 PUSH1 0x0 DUP4 DUP2 MSTORE PUSH1 0x20 ADD SWAP1 DUP2 MSTORE PUSH1 0x20 ADD PUSH1 0x0 KECCAK256 SWAP1 POP PUSH1 0x0 PUSH1 0x2 PUSH1 0x8 SLOAD PUSH2 0x9BA SWAP2 SWAP1 PUSH2 0x243D JUMP JUMPDEST DUP3 PUSH1 0x4 ADD SLOAD LT DUP1 PUSH2 0x9DF JUMPI POP PUSH1 0x2 DUP3 PUSH1 0x4 ADD SLOAD PUSH2 0x9D7 SWAP2 SWAP1 PUSH2 0x243D JUMP JUMPDEST DUP3 PUSH1 0x5 ADD SLOAD GT ISZERO JUMPDEST ISZERO PUSH2 0xA33 JUMPI PUSH1 0x2 DUP3 PUSH1 0x1 ADD PUSH1 0x0 PUSH2 0x100 EXP DUP2 SLOAD DUP2 PUSH1 0xFF MUL NOT AND SWAP1 DUP4 PUSH1 0x2 DUP2 GT ISZERO PUSH2 0xA0C JUMPI PUSH2 0xA0B PUSH2 0x26EC JUMP JUMPDEST JUMPDEST MUL OR SWAP1 SSTORE POP DUP2 PUSH1 0x2 ADD SLOAD PUSH1 0xB PUSH1 0x0 DUP3 DUP3 SLOAD PUSH2 0xA27 SWAP2 SWAP1 PUSH2 0x24C8 JUMP JUMPDEST SWAP3 POP POP DUP2 SWAP1 SSTORE POP PUSH2 0xAD4 JUMP JUMPDEST PUSH1 0x1 DUP3 PUSH1 0x1 ADD PUSH1 0x0 PUSH2 0x100 EXP DUP2 SLOAD DUP2 PUSH1 0xFF MUL NOT AND SWAP1 DUP4 PUSH1 0x2 DUP2 GT ISZERO PUSH2 0xA5B JUMPI PUSH2 0xA5A PUSH2 0x26EC JUMP JUMPDEST JUMPDEST MUL OR SWAP1 SSTORE POP PUSH1 0x1 SWAP1 POP DUP2 PUSH1 0x3 ADD PUSH1 0x0 SWAP1 SLOAD SWAP1 PUSH2 0x100 EXP SWAP1 DIV PUSH20 0xFFFFFFFFFFFFFFFFFFFFFFFFFFFFFFFFFFFFFFFF AND PUSH20 0xFFFFFFFFFFFFFFFFFFFFFFFFFFFFFFFFFFFFFFFF AND PUSH2 0x8FC DUP4 PUSH1 0x2 ADD SLOAD SWAP1 DUP2 ISZERO MUL SWAP1 PUSH1 0x40 MLOAD PUSH1 0x0 PUSH1 0x40 MLOAD DUP1 DUP4 SUB DUP2 DUP6 DUP9 DUP9 CALL SWAP4 POP POP POP POP ISZERO DUP1 ISZERO PUSH2 0xAD2 JUMPI RETURNDATASIZE PUSH1 0x0 DUP1 RETURNDATACOPY RETURNDATASIZE PUSH1 0x0 REVERT JUMPDEST POP JUMPDEST PUSH32 0x5FC028BD51B0EA39833C5AFE5EE686D9E6CB94E5F815AE5B2F31E5614E3210A9 DUP4 DUP3 PUSH1 0x40 MLOAD PUSH2 0xB05 SWAP3 SWAP2 SWAP1 PUSH2 0x22B1 JUMP JUMPDEST PUSH1 0x40 MLOAD DUP1 SWAP2 SUB SWAP1 LOG1 POP POP POP JUMP JUMPDEST PUSH1 0x8 SLOAD DUP2 JUMP JUMPDEST PUSH1 0x0 PUSH1 0x6 PUSH1 0x0 DUP4 PUSH20 0xFFFFFFFFFFFFFFFFFFFFFFFFFFFFFFFFFFFFFFFF AND PUSH20 0xFFFFFFFFFFFFFFFFFFFFFFFFFFFFFFFFFFFFFFFF AND DUP2 MSTORE PUSH1 0x20 ADD SWAP1 DUP2 MSTORE PUSH1 0x20 ADD PUSH1 0x0 KECCAK256 SLOAD SWAP1 POP SWAP2 SWAP1 POP JUMP JUMPDEST PUSH1 0x3 PUSH1 0x0 SWAP1 SLOAD SWAP1 PUSH2 0x100 EXP SWAP1 DIV PUSH1 0xFF AND DUP2 JUMP JUMPDEST PUSH1 0x0 DUP1 SLOAD SWAP1 PUSH2 0x100 EXP SWAP1 DIV PUSH20 0xFFFFFFFFFFFFFFFFFFFFFFFFFFFFFFFFFFFFFFFF AND DUP2 JUMP JUMPDEST PUSH1 0x4 SLOAD DUP2 JUMP JUMPDEST PUSH1 0x0 PUSH1 0xA SLOAD SWAP1 POP SWAP1 JUMP JUMPDEST PUSH1 0x0 PUSH1 0x6 PUSH1 0x0 CALLER PUSH20 0xFFFFFFFFFFFFFFFFFFFFFFFFFFFFFFFFFFFFFFFF AND PUSH20 0xFFFFFFFFFFFFFFFFFFFFFFFFFFFFFFFFFFFFFFFF AND DUP2 MSTORE PUSH1 0x20 ADD SWAP1 DUP2 MSTORE PUSH1 0x20 ADD PUSH1 0x0 KECCAK256 SLOAD GT PUSH2 0xC2A JUMPI PUSH1 0x40 MLOAD PUSH32 0x8C379A000000000000000000000000000000000000000000000000000000000 DUP2 MSTORE PUSH1 0x4 ADD PUSH2 0xC21 SWAP1 PUSH2 0x2256 JUMP JUMPDEST PUSH1 0x40 MLOAD DUP1 SWAP2 SUB SWAP1 REVERT JUMPDEST PUSH1 0x1 PUSH1 0x2 DUP2 GT ISZERO PUSH2 0xC3E JUMPI PUSH2 0xC3D PUSH2 0x26EC JUMP JUMPDEST JUMPDEST PUSH1 0x3 PUSH1 0x0 SWAP1 SLOAD SWAP1 PUSH2 0x100 EXP SWAP1 DIV PUSH1 0xFF AND PUSH1 0x2 DUP2 GT ISZERO PUSH2 0xC60 JUMPI PUSH2 0xC5F PUSH2 0x26EC JUMP JUMPDEST JUMPDEST EQ PUSH2 0xCA0 JUMPI PUSH1 0x40 MLOAD PUSH32 0x8C379A000000000000000000000000000000000000000000000000000000000 DUP2 MSTORE PUSH1 0x4 ADD PUSH2 0xC97 SWAP1 PUSH2 0x2196 JUMP JUMPDEST PUSH1 0x40 MLOAD DUP1 SWAP2 SUB SWAP1 REVERT JUMPDEST PUSH1 0x0 PUSH1 0x5 SLOAD PUSH1 0x6 PUSH1 0x0 CALLER PUSH20 0xFFFFFFFFFFFFFFFFFFFFFFFFFFFFFFFFFFFFFFFF AND PUSH20 0xFFFFFFFFFFFFFFFFFFFFFFFFFFFFFFFFFFFFFFFF AND DUP2 MSTORE PUSH1 0x20 ADD SWAP1 DUP2 MSTORE PUSH1 0x20 ADD PUSH1 0x0 KECCAK256 SLOAD PUSH2 0xCEF SWAP2 SWAP1 PUSH2 0x246E JUMP JUMPDEST SWAP1 POP PUSH1 0x0 PUSH1 0x6 PUSH1 0x0 CALLER PUSH20 0xFFFFFFFFFFFFFFFFFFFFFFFFFFFFFFFFFFFFFFFF AND PUSH20 0xFFFFFFFFFFFFFFFFFFFFFFFFFFFFFFFFFFFFFFFF AND DUP2 MSTORE PUSH1 0x20 ADD SWAP1 DUP2 MSTORE PUSH1 0x20 ADD PUSH1 0x0 KECCAK256 DUP2 SWAP1 SSTORE POP CALLER PUSH20 0xFFFFFFFFFFFFFFFFFFFFFFFFFFFFFFFFFFFFFFFF AND PUSH2 0x8FC DUP3 SWAP1 DUP2 ISZERO MUL SWAP1 PUSH1 0x40 MLOAD PUSH1 0x0 PUSH1 0x40 MLOAD DUP1 DUP4 SUB DUP2 DUP6 DUP9 DUP9 CALL SWAP4 POP POP POP POP ISZERO DUP1 ISZERO PUSH2 0xD7C JUMPI RETURNDATASIZE PUSH1 0x0 DUP1 RETURNDATACOPY RETURNDATASIZE PUSH1 0x0 REVERT JUMPDEST POP POP JUMP JUMPDEST PUSH1 0x9 PUSH1 0x20 MSTORE DUP1 PUSH1 0x0 MSTORE PUSH1 0x40 PUSH1 0x0 KECCAK256 PUSH1 0x0 SWAP2 POP SWAP1 POP DUP1 PUSH1 0x0 ADD DUP1 SLOAD PUSH2 0xDA3 SWAP1 PUSH2 0x25E2 JUMP JUMPDEST DUP1 PUSH1 0x1F ADD PUSH1 0x20 DUP1 SWAP2 DIV MUL PUSH1 0x20 ADD PUSH1 0x40 MLOAD SWAP1 DUP2 ADD PUSH1 0x40 MSTORE DUP1 SWAP3 SWAP2 SWAP1 DUP2 DUP2 MSTORE PUSH1 0x20 ADD DUP3 DUP1 SLOAD PUSH2 0xDCF SWAP1 PUSH2 0x25E2 JUMP JUMPDEST DUP1 ISZERO PUSH2 0xE1C JUMPI DUP1 PUSH1 0x1F LT PUSH2 0xDF1 JUMPI PUSH2 0x100 DUP1 DUP4 SLOAD DIV MUL DUP4 MSTORE SWAP2 PUSH1 0x20 ADD SWAP2 PUSH2 0xE1C JUMP JUMPDEST DUP3 ADD SWAP2 SWAP1 PUSH1 0x0 MSTORE PUSH1 0x20 PUSH1 0x0 KECCAK256 SWAP1 JUMPDEST DUP2 SLOAD DUP2 MSTORE SWAP1 PUSH1 0x1 ADD SWAP1 PUSH1 0x20 ADD DUP1 DUP4 GT PUSH2 0xDFF JUMPI DUP3 SWAP1 SUB PUSH1 0x1F AND DUP3 ADD SWAP2 JUMPDEST POP POP POP POP POP SWAP1 DUP1 PUSH1 0x1 ADD PUSH1 0x0 SWAP1 SLOAD SWAP1 PUSH2 0x100 EXP SWAP1 DIV PUSH1 0xFF AND SWAP1 DUP1 PUSH1 0x2 ADD SLOAD SWAP1 DUP1 PUSH1 0x3 ADD PUSH1 0x0 SWAP1 SLOAD SWAP1 PUSH2 0x100 EXP SWAP1 DIV PUSH20 0xFFFFFFFFFFFFFFFFFFFFFFFFFFFFFFFFFFFFFFFF AND SWAP1 DUP1 PUSH1 0x4 ADD SLOAD SWAP1 DUP1 PUSH1 0x5 ADD SLOAD SWAP1 POP DUP7 JUMP JUMPDEST PUSH1 0x0 PUSH1 0x2 DUP2 GT ISZERO PUSH2 0xE85 JUMPI PUSH2 0xE84 PUSH2 0x26EC JUMP JUMPDEST JUMPDEST PUSH1 0x3 PUSH1 0x0 SWAP1 SLOAD SWAP1 PUSH2 0x100 EXP SWAP1 DIV PUSH1 0xFF AND PUSH1 0x2 DUP2 GT ISZERO PUSH2 0xEA7 JUMPI PUSH2 0xEA6 PUSH2 0x26EC JUMP JUMPDEST JUMPDEST EQ PUSH2 0xEE7 JUMPI PUSH1 0x40 MLOAD PUSH32 0x8C379A000000000000000000000000000000000000000000000000000000000 DUP2 MSTORE PUSH1 0x4 ADD PUSH2 0xEDE SWAP1 PUSH2 0x20F6 JUMP JUMPDEST PUSH1 0x40 MLOAD DUP1 SWAP2 SUB SWAP1 REVERT JUMPDEST PUSH1 0x0 DUP1 SLOAD SWAP1 PUSH2 0x100 EXP SWAP1 DIV PUSH20 0xFFFFFFFFFFFFFFFFFFFFFFFFFFFFFFFFFFFFFFFF AND PUSH20 0xFFFFFFFFFFFFFFFFFFFFFFFFFFFFFFFFFFFFFFFF AND CALLER PUSH20 0xFFFFFFFFFFFFFFFFFFFFFFFFFFFFFFFFFFFFFFFF AND EQ PUSH2 0xF9E JUMPI PUSH32 0x0 TIMESTAMP LT ISZERO PUSH2 0xF9D JUMPI PUSH1 0x40 MLOAD PUSH32 0x8C379A000000000000000000000000000000000000000000000000000000000 DUP2 MSTORE PUSH1 0x4 ADD PUSH2 0xF94 SWAP1 PUSH2 0x2176 JUMP JUMPDEST PUSH1 0x40 MLOAD DUP1 SWAP2 SUB SWAP1 REVERT JUMPDEST JUMPDEST SELFBALANCE PUSH1 0x4 SLOAD GT PUSH2 0xFD7 JUMPI PUSH1 0x2 PUSH1 0x3 PUSH1 0x0 PUSH2 0x100 EXP DUP2 SLOAD DUP2 PUSH1 0xFF MUL NOT AND SWAP1 DUP4 PUSH1 0x2 DUP2 GT ISZERO PUSH2 0xFCD JUMPI PUSH2 0xFCC PUSH2 0x26EC JUMP JUMPDEST JUMPDEST MUL OR SWAP1 SSTORE POP PUSH2 0x1003 JUMP JUMPDEST PUSH1 0x1 PUSH1 0x3 PUSH1 0x0 PUSH2 0x100 EXP DUP2 SLOAD DUP2 PUSH1 0xFF MUL NOT AND SWAP1 DUP4 PUSH1 0x2 DUP2 GT ISZERO PUSH2 0xFFD JUMPI PUSH2 0xFFC PUSH2 0x26EC JUMP JUMPDEST JUMPDEST MUL OR SWAP1 SSTORE POP JUMPDEST JUMP JUMPDEST PUSH1 0x7 DUP2 DUP2 SLOAD DUP2 LT PUSH2 0x1015 JUMPI PUSH1 0x0 DUP1 REVERT JUMPDEST SWAP1 PUSH1 0x0 MSTORE PUSH1 0x20 PUSH1 0x0 KECCAK256 ADD PUSH1 0x0 SWAP2 POP SLOAD SWAP1 PUSH2 0x100 EXP SWAP1 DIV PUSH20 0xFFFFFFFFFFFFFFFFFFFFFFFFFFFFFFFFFFFFFFFF AND DUP2 JUMP JUMPDEST PUSH1 0x6 PUSH1 0x20 MSTORE DUP1 PUSH1 0x0 MSTORE PUSH1 0x40 PUSH1 0x0 KECCAK256 PUSH1 0x0 SWAP2 POP SWAP1 POP SLOAD DUP2 JUMP JUMPDEST PUSH1 0x60 PUSH1 0x7 DUP1 SLOAD DUP1 PUSH1 0x20 MUL PUSH1 0x20 ADD PUSH1 0x40 MLOAD SWAP1 DUP2 ADD PUSH1 0x40 MSTORE DUP1 SWAP3 SWAP2 SWAP1 DUP2 DUP2 MSTORE PUSH1 0x20 ADD DUP3 DUP1 SLOAD DUP1 ISZERO PUSH2 0x10E0 JUMPI PUSH1 0x20 MUL DUP3 ADD SWAP2 SWAP1 PUSH1 0x0 MSTORE PUSH1 0x20 PUSH1 0x0 KECCAK256 SWAP1 JUMPDEST DUP2 PUSH1 0x0 SWAP1 SLOAD SWAP1 PUSH2 0x100 EXP SWAP1 DIV PUSH20 0xFFFFFFFFFFFFFFFFFFFFFFFFFFFFFFFFFFFFFFFF AND PUSH20 0xFFFFFFFFFFFFFFFFFFFFFFFFFFFFFFFFFFFFFFFF AND DUP2 MSTORE PUSH1 0x20 ADD SWAP1 PUSH1 0x1 ADD SWAP1 DUP1 DUP4 GT PUSH2 0x1096 JUMPI JUMPDEST POP POP POP POP POP SWAP1 POP SWAP1 JUMP JUMPDEST PUSH1 0x60 PUSH1 0x0 DUP1 PUSH1 0xA SLOAD DUP5 LT PUSH2 0x1133 JUMPI PUSH1 0x40 MLOAD PUSH32 0x8C379A000000000000000000000000000000000000000000000000000000000 DUP2 MSTORE PUSH1 0x4 ADD PUSH2 0x112A SWAP1 PUSH2 0x21B6 JUMP JUMPDEST PUSH1 0x40 MLOAD DUP1 SWAP2 SUB SWAP1 REVERT JUMPDEST PUSH1 0x0 PUSH1 0x1 PUSH1 0x2 DUP2 GT ISZERO PUSH2 0x1149 JUMPI PUSH2 0x1148 PUSH2 0x26EC JUMP JUMPDEST JUMPDEST PUSH1 0x9 PUSH1 0x0 DUP8 DUP2 MSTORE PUSH1 0x20 ADD SWAP1 DUP2 MSTORE PUSH1 0x20 ADD PUSH1 0x0 KECCAK256 PUSH1 0x1 ADD PUSH1 0x0 SWAP1 SLOAD SWAP1 PUSH2 0x100 EXP SWAP1 DIV PUSH1 0xFF AND PUSH1 0x2 DUP2 GT ISZERO PUSH2 0x117F JUMPI PUSH2 0x117E PUSH2 0x26EC JUMP JUMPDEST JUMPDEST EQ ISZERO PUSH2 0x118A JUMPI PUSH1 0x1 SWAP1 POP JUMPDEST PUSH1 0x0 PUSH1 0x9 PUSH1 0x0 DUP8 DUP2 MSTORE PUSH1 0x20 ADD SWAP1 DUP2 MSTORE PUSH1 0x20 ADD PUSH1 0x0 KECCAK256 SWAP1 POP DUP1 PUSH1 0x0 ADD DUP2 PUSH1 0x2 ADD SLOAD DUP4 DUP3 DUP1 SLOAD PUSH2 0x11B7 SWAP1 PUSH2 0x25E2 JUMP JUMPDEST DUP1 PUSH1 0x1F ADD PUSH1 0x20 DUP1 SWAP2 DIV MUL PUSH1 0x20 ADD PUSH1 0x40 MLOAD SWAP1 DUP2 ADD PUSH1 0x40 MSTORE DUP1 SWAP3 SWAP2 SWAP1 DUP2 DUP2 MSTORE PUSH1 0x20 ADD DUP3 DUP1 SLOAD PUSH2 0x11E3 SWAP1 PUSH2 0x25E2 JUMP JUMPDEST DUP1 ISZERO PUSH2 0x1230 JUMPI DUP1 PUSH1 0x1F LT PUSH2 0x1205 JUMPI PUSH2 0x100 DUP1 DUP4 SLOAD DIV MUL DUP4 MSTORE SWAP2 PUSH1 0x20 ADD SWAP2 PUSH2 0x1230 JUMP JUMPDEST DUP3 ADD SWAP2 SWAP1 PUSH1 0x0 MSTORE PUSH1 0x20 PUSH1 0x0 KECCAK256 SWAP1 JUMPDEST DUP2 SLOAD DUP2 MSTORE SWAP1 PUSH1 0x1 ADD SWAP1 PUSH1 0x20 ADD DUP1 DUP4 GT PUSH2 0x1213 JUMPI DUP3 SWAP1 SUB PUSH1 0x1F AND DUP3 ADD SWAP2 JUMPDEST POP POP POP POP POP SWAP3 POP SWAP5 POP SWAP5 POP SWAP5 POP POP POP SWAP2 SWAP4 SWAP1 SWAP3 POP JUMP JUMPDEST PUSH1 0x5 SLOAD DUP2 JUMP JUMPDEST PUSH1 0x0 PUSH1 0x7 DUP1 SLOAD SWAP1 POP SWAP1 POP SWAP1 JUMP JUMPDEST PUSH1 0x2 DUP1 SLOAD PUSH2 0x1266 SWAP1 PUSH2 0x25E2 JUMP JUMPDEST DUP1 PUSH1 0x1F ADD PUSH1 0x20 DUP1 SWAP2 DIV MUL PUSH1 0x20 ADD PUSH1 0x40 MLOAD SWAP1 DUP2 ADD PUSH1 0x40 MSTORE DUP1 SWAP3 SWAP2 SWAP1 DUP2 DUP2 MSTORE PUSH1 0x20 ADD DUP3 DUP1 SLOAD PUSH2 0x1292 SWAP1 PUSH2 0x25E2 JUMP JUMPDEST DUP1 ISZERO PUSH2 0x12DF JUMPI DUP1 PUSH1 0x1F LT PUSH2 0x12B4 JUMPI PUSH2 0x100 DUP1 DUP4 SLOAD DIV MUL DUP4 MSTORE SWAP2 PUSH1 0x20 ADD SWAP2 PUSH2 0x12DF JUMP JUMPDEST DUP3 ADD SWAP2 SWAP1 PUSH1 0x0 MSTORE PUSH1 0x20 PUSH1 0x0 KECCAK256 SWAP1 JUMPDEST DUP2 SLOAD DUP2 MSTORE SWAP1 PUSH1 0x1 ADD SWAP1 PUSH1 0x20 ADD DUP1 DUP4 GT PUSH2 0x12C2 JUMPI DUP3 SWAP1 SUB PUSH1 0x1F AND DUP3 ADD SWAP2 JUMPDEST POP POP POP POP POP DUP2 JUMP JUMPDEST PUSH1 0x60 PUSH1 0x0 PUSH1 0xA SLOAD PUSH8 0xFFFFFFFFFFFFFFFF DUP2 GT ISZERO PUSH2 0x1307 JUMPI PUSH2 0x1306 PUSH2 0x2779 JUMP JUMPDEST JUMPDEST PUSH1 0x40 MLOAD SWAP1 DUP1 DUP3 MSTORE DUP1 PUSH1 0x20 MUL PUSH1 0x20 ADD DUP3 ADD PUSH1 0x40 MSTORE DUP1 ISZERO PUSH2 0x1335 JUMPI DUP2 PUSH1 0x20 ADD PUSH1 0x20 DUP3 MUL DUP1 CALLDATASIZE DUP4 CALLDATACOPY DUP1 DUP3 ADD SWAP2 POP POP SWAP1 POP JUMPDEST POP SWAP1 POP PUSH1 0x0 DUP1 JUMPDEST PUSH1 0xA SLOAD DUP2 LT ISZERO PUSH2 0x13D8 JUMPI PUSH1 0x0 PUSH1 0x2 DUP2 GT ISZERO PUSH2 0x135A JUMPI PUSH2 0x1359 PUSH2 0x26EC JUMP JUMPDEST JUMPDEST PUSH1 0x9 PUSH1 0x0 DUP4 DUP2 MSTORE PUSH1 0x20 ADD SWAP1 DUP2 MSTORE PUSH1 0x20 ADD PUSH1 0x0 KECCAK256 PUSH1 0x1 ADD PUSH1 0x0 SWAP1 SLOAD SWAP1 PUSH2 0x100 EXP SWAP1 DIV PUSH1 0xFF AND PUSH1 0x2 DUP2 GT ISZERO PUSH2 0x1390 JUMPI PUSH2 0x138F PUSH2 0x26EC JUMP JUMPDEST JUMPDEST EQ ISZERO PUSH2 0x13C5 JUMPI DUP1 DUP4 DUP4 DUP2 MLOAD DUP2 LT PUSH2 0x13AA JUMPI PUSH2 0x13A9 PUSH2 0x274A JUMP JUMPDEST JUMPDEST PUSH1 0x20 MUL PUSH1 0x20 ADD ADD DUP2 DUP2 MSTORE POP POP DUP2 DUP1 PUSH2 0x13C1 SWAP1 PUSH2 0x2645 JUMP JUMPDEST SWAP3 POP POP JUMPDEST DUP1 DUP1 PUSH2 0x13D0 SWAP1 PUSH2 0x2645 JUMP JUMPDEST SWAP2 POP POP PUSH2 0x133C JUMP JUMPDEST POP PUSH1 0x0 DUP2 PUSH8 0xFFFFFFFFFFFFFFFF DUP2 GT ISZERO PUSH2 0x13F5 JUMPI PUSH2 0x13F4 PUSH2 0x2779 JUMP JUMPDEST JUMPDEST PUSH1 0x40 MLOAD SWAP1 DUP1 DUP3 MSTORE DUP1 PUSH1 0x20 MUL PUSH1 0x20 ADD DUP3 ADD PUSH1 0x40 MSTORE DUP1 ISZERO PUSH2 0x1423 JUMPI DUP2 PUSH1 0x20 ADD PUSH1 0x20 DUP3 MUL DUP1 CALLDATASIZE DUP4 CALLDATACOPY DUP1 DUP3 ADD SWAP2 POP POP SWAP1 POP JUMPDEST POP SWAP1 POP PUSH1 0x0 JUMPDEST DUP3 DUP2 LT ISZERO PUSH2 0x147E JUMPI DUP4 DUP2 DUP2 MLOAD DUP2 LT PUSH2 0x1444 JUMPI PUSH2 0x1443 PUSH2 0x274A JUMP JUMPDEST JUMPDEST PUSH1 0x20 MUL PUSH1 0x20 ADD ADD MLOAD DUP3 DUP3 DUP2 MLOAD DUP2 LT PUSH2 0x145F JUMPI PUSH2 0x145E PUSH2 0x274A JUMP JUMPDEST JUMPDEST PUSH1 0x20 MUL PUSH1 0x20 ADD ADD DUP2 DUP2 MSTORE POP POP DUP1 DUP1 PUSH2 0x1476 SWAP1 PUSH2 0x2645 JUMP JUMPDEST SWAP2 POP POP PUSH2 0x1429 JUMP JUMPDEST POP DUP1 SWAP4 POP POP POP POP SWAP1 JUMP JUMPDEST PUSH1 0xA SLOAD DUP3 LT PUSH2 0x14CC JUMPI PUSH1 0x40 MLOAD PUSH32 0x8C379A000000000000000000000000000000000000000000000000000000000 DUP2 MSTORE PUSH1 0x4 ADD PUSH2 0x14C3 SWAP1 PUSH2 0x21D6 JUMP JUMPDEST PUSH1 0x40 MLOAD DUP1 SWAP2 SUB SWAP1 REVERT JUMPDEST PUSH1 0x0 PUSH1 0x2 DUP2 GT ISZERO PUSH2 0x14E0 JUMPI PUSH2 0x14DF PUSH2 0x26EC JUMP JUMPDEST JUMPDEST PUSH1 0x9 PUSH1 0x0 DUP5 DUP2 MSTORE PUSH1 0x20 ADD SWAP1 DUP2 MSTORE PUSH1 0x20 ADD PUSH1 0x0 KECCAK256 PUSH1 0x1 ADD PUSH1 0x0 SWAP1 SLOAD SWAP1 PUSH2 0x100 EXP SWAP1 DIV PUSH1 0xFF AND PUSH1 0x2 DUP2 GT ISZERO PUSH2 0x1516 JUMPI PUSH2 0x1515 PUSH2 0x26EC JUMP JUMPDEST JUMPDEST EQ PUSH2 0x1556 JUMPI PUSH1 0x40 MLOAD PUSH32 0x8C379A000000000000000000000000000000000000000000000000000000000 DUP2 MSTORE PUSH1 0x4 ADD PUSH2 0x154D SWAP1 PUSH2 0x21F6 JUMP JUMPDEST PUSH1 0x40 MLOAD DUP1 SWAP2 SUB SWAP1 REVERT JUMPDEST PUSH1 0x0 PUSH1 0x6 PUSH1 0x0 CALLER PUSH20 0xFFFFFFFFFFFFFFFFFFFFFFFFFFFFFFFFFFFFFFFF AND PUSH20 0xFFFFFFFFFFFFFFFFFFFFFFFFFFFFFFFFFFFFFFFF AND DUP2 MSTORE PUSH1 0x20 ADD SWAP1 DUP2 MSTORE PUSH1 0x20 ADD PUSH1 0x0 KECCAK256 SLOAD GT PUSH2 0x15D8 JUMPI PUSH1 0x40 MLOAD PUSH32 0x8C379A000000000000000000000000000000000000000000000000000000000 DUP2 MSTORE PUSH1 0x4 ADD PUSH2 0x15CF SWAP1 PUSH2 0x2156 JUMP JUMPDEST PUSH1 0x40 MLOAD DUP1 SWAP2 SUB SWAP1 REVERT JUMPDEST PUSH1 0x0 PUSH1 0x9 PUSH1 0x0 DUP5 DUP2 MSTORE PUSH1 0x20 ADD SWAP1 DUP2 MSTORE PUSH1 0x20 ADD PUSH1 0x0 KECCAK256 SWAP1 POP PUSH1 0x0 ISZERO ISZERO DUP2 PUSH1 0x6 ADD PUSH1 0x0 CALLER PUSH20 0xFFFFFFFFFFFFFFFFFFFFFFFFFFFFFFFFFFFFFFFF AND PUSH20 0xFFFFFFFFFFFFFFFFFFFFFFFFFFFFFFFFFFFFFFFF AND DUP2 MSTORE PUSH1 0x20 ADD SWAP1 DUP2 MSTORE PUSH1 0x20 ADD PUSH1 0x0 KECCAK256 PUSH1 0x0 SWAP1 SLOAD SWAP1 PUSH2 0x100 EXP SWAP1 DIV PUSH1 0xFF AND ISZERO ISZERO EQ PUSH2 0x1684 JUMPI PUSH1 0x40 MLOAD PUSH32 0x8C379A000000000000000000000000000000000000000000000000000000000 DUP2 MSTORE PUSH1 0x4 ADD PUSH2 0x167B SWAP1 PUSH2 0x2216 JUMP JUMPDEST PUSH1 0x40 MLOAD DUP1 SWAP2 SUB SWAP1 REVERT JUMPDEST PUSH1 0x0 PUSH1 0x6 PUSH1 0x0 CALLER PUSH20 0xFFFFFFFFFFFFFFFFFFFFFFFFFFFFFFFFFFFFFFFF AND PUSH20 0xFFFFFFFFFFFFFFFFFFFFFFFFFFFFFFFFFFFFFFFF AND DUP2 MSTORE PUSH1 0x20 ADD SWAP1 DUP2 MSTORE PUSH1 0x20 ADD PUSH1 0x0 KECCAK256 SLOAD SWAP1 POP PUSH1 0x1 DUP3 PUSH1 0x6 ADD PUSH1 0x0 CALLER PUSH20 0xFFFFFFFFFFFFFFFFFFFFFFFFFFFFFFFFFFFFFFFF AND PUSH20 0xFFFFFFFFFFFFFFFFFFFFFFFFFFFFFFFFFFFFFFFF AND DUP2 MSTORE PUSH1 0x20 ADD SWAP1 DUP2 MSTORE PUSH1 0x20 ADD PUSH1 0x0 KECCAK256 PUSH1 0x0 PUSH2 0x100 EXP DUP2 SLOAD DUP2 PUSH1 0xFF MUL NOT AND SWAP1 DUP4 ISZERO ISZERO MUL OR SWAP1 SSTORE POP DUP1 DUP3 PUSH1 0x4 ADD PUSH1 0x0 DUP3 DUP3 SLOAD PUSH2 0x1736 SWAP2 SWAP1 PUSH2 0x23E7 JUMP JUMPDEST SWAP3 POP POP DUP2 SWAP1 SSTORE POP PUSH1 0x1 ISZERO ISZERO DUP4 ISZERO ISZERO EQ ISZERO PUSH2 0x1766 JUMPI DUP1 DUP3 PUSH1 0x5 ADD PUSH1 0x0 DUP3 DUP3 SLOAD PUSH2 0x175E SWAP2 SWAP1 PUSH2 0x23E7 JUMP JUMPDEST SWAP3 POP POP DUP2 SWAP1 SSTORE POP JUMPDEST POP POP POP POP JUMP JUMPDEST PUSH32 0x0 DUP2 JUMP JUMPDEST CALLER PUSH20 0xFFFFFFFFFFFFFFFFFFFFFFFFFFFFFFFFFFFFFFFF AND PUSH1 0x0 DUP1 SLOAD SWAP1 PUSH2 0x100 EXP SWAP1 DIV PUSH20 0xFFFFFFFFFFFFFFFFFFFFFFFFFFFFFFFFFFFFFFFF AND PUSH20 0xFFFFFFFFFFFFFFFFFFFFFFFFFFFFFFFFFFFFFFFF AND EQ PUSH2 0x181E JUMPI PUSH1 0x40 MLOAD PUSH32 0x8C379A000000000000000000000000000000000000000000000000000000000 DUP2 MSTORE PUSH1 0x4 ADD PUSH2 0x1815 SWAP1 PUSH2 0x2236 JUMP JUMPDEST PUSH1 0x40 MLOAD DUP1 SWAP2 SUB SWAP1 REVERT JUMPDEST SELFBALANCE DUP3 PUSH1 0xB SLOAD PUSH2 0x182D SWAP2 SWAP1 PUSH2 0x23E7 JUMP JUMPDEST GT ISZERO PUSH2 0x186E JUMPI PUSH1 0x40 MLOAD PUSH32 0x8C379A000000000000000000000000000000000000000000000000000000000 DUP2 MSTORE PUSH1 0x4 ADD PUSH2 0x1865 SWAP1 PUSH2 0x2276 JUMP JUMPDEST PUSH1 0x40 MLOAD DUP1 SWAP2 SUB SWAP1 REVERT JUMPDEST PUSH1 0x0 PUSH20 0xFFFFFFFFFFFFFFFFFFFFFFFFFFFFFFFFFFFFFFFF AND DUP2 PUSH20 0xFFFFFFFFFFFFFFFFFFFFFFFFFFFFFFFFFFFFFFFF AND EQ ISZERO PUSH2 0x18A8 JUMPI PUSH1 0x0 DUP1 REVERT JUMPDEST PUSH1 0x0 PUSH1 0x9 PUSH1 0x0 PUSH1 0xA SLOAD DUP2 MSTORE PUSH1 0x20 ADD SWAP1 DUP2 MSTORE PUSH1 0x20 ADD PUSH1 0x0 KECCAK256 SWAP1 POP DUP4 DUP2 PUSH1 0x0 ADD SWAP1 DUP1 MLOAD SWAP1 PUSH1 0x20 ADD SWAP1 PUSH2 0x18D9 SWAP3 SWAP2 SWAP1 PUSH2 0x19C5 JUMP JUMPDEST POP PUSH1 0x0 DUP2 PUSH1 0x1 ADD PUSH1 0x0 PUSH2 0x100 EXP DUP2 SLOAD DUP2 PUSH1 0xFF MUL NOT AND SWAP1 DUP4 PUSH1 0x2 DUP2 GT ISZERO PUSH2 0x1902 JUMPI PUSH2 0x1901 PUSH2 0x26EC JUMP JUMPDEST JUMPDEST MUL OR SWAP1 SSTORE POP DUP3 DUP2 PUSH1 0x2 ADD DUP2 SWAP1 SSTORE POP DUP2 DUP2 PUSH1 0x3 ADD PUSH1 0x0 PUSH2 0x100 EXP DUP2 SLOAD DUP2 PUSH20 0xFFFFFFFFFFFFFFFFFFFFFFFFFFFFFFFFFFFFFFFF MUL NOT AND SWAP1 DUP4 PUSH20 0xFFFFFFFFFFFFFFFFFFFFFFFFFFFFFFFFFFFFFFFF AND MUL OR SWAP1 SSTORE POP PUSH32 0x8A9EEF508655BA905FAC3270E36D1F3410A7101B0B7FE80CC755B4A0C26A71A5 PUSH1 0xA SLOAD TIMESTAMP PUSH1 0x40 MLOAD PUSH2 0x1986 SWAP3 SWAP2 SWAP1 PUSH2 0x22DA JUMP JUMPDEST PUSH1 0x40 MLOAD DUP1 SWAP2 SUB SWAP1 LOG1 PUSH1 0xA PUSH1 0x0 DUP2 SLOAD DUP1 SWAP3 SWAP2 SWAP1 PUSH2 0x19A1 SWAP1 PUSH2 0x2645 JUMP JUMPDEST SWAP2 SWAP1 POP SSTORE POP DUP3 PUSH1 0xB PUSH1 0x0 DUP3 DUP3 SLOAD PUSH2 0x19B8 SWAP2 SWAP1 PUSH2 0x23E7 JUMP JUMPDEST SWAP3 POP POP DUP2 SWAP1 SSTORE POP POP POP POP POP JUMP JUMPDEST DUP3 DUP1 SLOAD PUSH2 0x19D1 SWAP1 PUSH2 0x25E2 JUMP JUMPDEST SWAP1 PUSH1 0x0 MSTORE PUSH1 0x20 PUSH1 0x0 KECCAK256 SWAP1 PUSH1 0x1F ADD PUSH1 0x20 SWAP1 DIV DUP2 ADD SWAP3 DUP3 PUSH2 0x19F3 JUMPI PUSH1 0x0 DUP6 SSTORE PUSH2 0x1A3A JUMP JUMPDEST DUP3 PUSH1 0x1F LT PUSH2 0x1A0C JUMPI DUP1 MLOAD PUSH1 0xFF NOT AND DUP4 DUP1 ADD OR DUP6 SSTORE PUSH2 0x1A3A JUMP JUMPDEST DUP3 DUP1 ADD PUSH1 0x1 ADD DUP6 SSTORE DUP3 ISZERO PUSH2 0x1A3A JUMPI SWAP2 DUP3 ADD JUMPDEST DUP3 DUP2 GT ISZERO PUSH2 0x1A39 JUMPI DUP3 MLOAD DUP3 SSTORE SWAP2 PUSH1 0x20 ADD SWAP2 SWAP1 PUSH1 0x1 ADD SWAP1 PUSH2 0x1A1E JUMP JUMPDEST JUMPDEST POP SWAP1 POP PUSH2 0x1A47 SWAP2 SWAP1 PUSH2 0x1A4B JUMP JUMPDEST POP SWAP1 JUMP JUMPDEST JUMPDEST DUP1 DUP3 GT ISZERO PUSH2 0x1A64 JUMPI PUSH1 0x0 DUP2 PUSH1 0x0 SWAP1 SSTORE POP PUSH1 0x1 ADD PUSH2 0x1A4C JUMP JUMPDEST POP SWAP1 JUMP JUMPDEST PUSH1 0x0 PUSH2 0x1A7B PUSH2 0x1A76 DUP5 PUSH2 0x2328 JUMP JUMPDEST PUSH2 0x2303 JUMP JUMPDEST SWAP1 POP DUP3 DUP2 MSTORE PUSH1 0x20 DUP2 ADD DUP5 DUP5 DUP5 ADD GT ISZERO PUSH2 0x1A97 JUMPI PUSH2 0x1A96 PUSH2 0x27AD JUMP JUMPDEST JUMPDEST PUSH2 0x1AA2 DUP5 DUP3 DUP6 PUSH2 0x25A0 JUMP JUMPDEST POP SWAP4 SWAP3 POP POP POP JUMP JUMPDEST PUSH1 0x0 DUP2 CALLDATALOAD SWAP1 POP PUSH2 0x1AB9 DUP2 PUSH2 0x2A30 JUMP JUMPDEST SWAP3 SWAP2 POP POP JUMP JUMPDEST PUSH1 0x0 DUP2 CALLDATALOAD SWAP1 POP PUSH2 0x1ACE DUP2 PUSH2 0x2A47 JUMP JUMPDEST SWAP3 SWAP2 POP POP JUMP JUMPDEST PUSH1 0x0 DUP2 CALLDATALOAD SWAP1 POP PUSH2 0x1AE3 DUP2 PUSH2 0x2A5E JUMP JUMPDEST SWAP3 SWAP2 POP POP JUMP JUMPDEST PUSH1 0x0 DUP3 PUSH1 0x1F DUP4 ADD SLT PUSH2 0x1AFE JUMPI PUSH2 0x1AFD PUSH2 0x27A8 JUMP JUMPDEST JUMPDEST DUP2 CALLDATALOAD PUSH2 0x1B0E DUP5 DUP3 PUSH1 0x20 DUP7 ADD PUSH2 0x1A68 JUMP JUMPDEST SWAP2 POP POP SWAP3 SWAP2 POP POP JUMP JUMPDEST PUSH1 0x0 DUP2 CALLDATALOAD SWAP1 POP PUSH2 0x1B26 DUP2 PUSH2 0x2A75 JUMP JUMPDEST SWAP3 SWAP2 POP POP JUMP JUMPDEST PUSH1 0x0 PUSH1 0x20 DUP3 DUP5 SUB SLT ISZERO PUSH2 0x1B42 JUMPI PUSH2 0x1B41 PUSH2 0x27B7 JUMP JUMPDEST JUMPDEST PUSH1 0x0 PUSH2 0x1B50 DUP5 DUP3 DUP6 ADD PUSH2 0x1AAA JUMP JUMPDEST SWAP2 POP POP SWAP3 SWAP2 POP POP JUMP JUMPDEST PUSH1 0x0 DUP1 PUSH1 0x0 PUSH1 0x60 DUP5 DUP7 SUB SLT ISZERO PUSH2 0x1B72 JUMPI PUSH2 0x1B71 PUSH2 0x27B7 JUMP JUMPDEST JUMPDEST PUSH1 0x0 DUP5 ADD CALLDATALOAD PUSH8 0xFFFFFFFFFFFFFFFF DUP2 GT ISZERO PUSH2 0x1B90 JUMPI PUSH2 0x1B8F PUSH2 0x27B2 JUMP JUMPDEST JUMPDEST PUSH2 0x1B9C DUP7 DUP3 DUP8 ADD PUSH2 0x1AE9 JUMP JUMPDEST SWAP4 POP POP PUSH1 0x20 PUSH2 0x1BAD DUP7 DUP3 DUP8 ADD PUSH2 0x1B17 JUMP JUMPDEST SWAP3 POP POP PUSH1 0x40 PUSH2 0x1BBE DUP7 DUP3 DUP8 ADD PUSH2 0x1ABF JUMP JUMPDEST SWAP2 POP POP SWAP3 POP SWAP3 POP SWAP3 JUMP JUMPDEST PUSH1 0x0 PUSH1 0x20 DUP3 DUP5 SUB SLT ISZERO PUSH2 0x1BDE JUMPI PUSH2 0x1BDD PUSH2 0x27B7 JUMP JUMPDEST JUMPDEST PUSH1 0x0 PUSH2 0x1BEC DUP5 DUP3 DUP6 ADD PUSH2 0x1B17 JUMP JUMPDEST SWAP2 POP POP SWAP3 SWAP2 POP POP JUMP JUMPDEST PUSH1 0x0 DUP1 PUSH1 0x40 DUP4 DUP6 SUB SLT ISZERO PUSH2 0x1C0C JUMPI PUSH2 0x1C0B PUSH2 0x27B7 JUMP JUMPDEST JUMPDEST PUSH1 0x0 PUSH2 0x1C1A DUP6 DUP3 DUP7 ADD PUSH2 0x1B17 JUMP JUMPDEST SWAP3 POP POP PUSH1 0x20 PUSH2 0x1C2B DUP6 DUP3 DUP7 ADD PUSH2 0x1AD4 JUMP JUMPDEST SWAP2 POP POP SWAP3 POP SWAP3 SWAP1 POP JUMP JUMPDEST PUSH1 0x0 PUSH2 0x1C41 DUP4 DUP4 PUSH2 0x1C74 JUMP JUMPDEST PUSH1 0x20 DUP4 ADD SWAP1 POP SWAP3 SWAP2 POP POP JUMP JUMPDEST PUSH1 0x0 PUSH2 0x1C59 DUP4 DUP4 PUSH2 0x1F7B JUMP JUMPDEST PUSH1 0x20 DUP4 ADD SWAP1 POP SWAP3 SWAP2 POP POP JUMP JUMPDEST PUSH2 0x1C6E DUP2 PUSH2 0x250E JUMP JUMPDEST DUP3 MSTORE POP POP JUMP JUMPDEST PUSH2 0x1C7D DUP2 PUSH2 0x24FC JUMP JUMPDEST DUP3 MSTORE POP POP JUMP JUMPDEST PUSH2 0x1C8C DUP2 PUSH2 0x24FC JUMP JUMPDEST DUP3 MSTORE POP POP JUMP JUMPDEST PUSH1 0x0 PUSH2 0x1C9D DUP3 PUSH2 0x2379 JUMP JUMPDEST PUSH2 0x1CA7 DUP2 DUP6 PUSH2 0x23B4 JUMP JUMPDEST SWAP4 POP PUSH2 0x1CB2 DUP4 PUSH2 0x2359 JUMP JUMPDEST DUP1 PUSH1 0x0 JUMPDEST DUP4 DUP2 LT ISZERO PUSH2 0x1CE3 JUMPI DUP2 MLOAD PUSH2 0x1CCA DUP9 DUP3 PUSH2 0x1C35 JUMP JUMPDEST SWAP8 POP PUSH2 0x1CD5 DUP4 PUSH2 0x239A JUMP JUMPDEST SWAP3 POP POP PUSH1 0x1 DUP2 ADD SWAP1 POP PUSH2 0x1CB6 JUMP JUMPDEST POP DUP6 SWAP4 POP POP POP POP SWAP3 SWAP2 POP POP JUMP JUMPDEST PUSH1 0x0 PUSH2 0x1CFB DUP3 PUSH2 0x2384 JUMP JUMPDEST PUSH2 0x1D05 DUP2 DUP6 PUSH2 0x23C5 JUMP JUMPDEST SWAP4 POP PUSH2 0x1D10 DUP4 PUSH2 0x2369 JUMP JUMPDEST DUP1 PUSH1 0x0 JUMPDEST DUP4 DUP2 LT ISZERO PUSH2 0x1D41 JUMPI DUP2 MLOAD PUSH2 0x1D28 DUP9 DUP3 PUSH2 0x1C4D JUMP JUMPDEST SWAP8 POP PUSH2 0x1D33 DUP4 PUSH2 0x23A7 JUMP JUMPDEST SWAP3 POP POP PUSH1 0x1 DUP2 ADD SWAP1 POP PUSH2 0x1D14 JUMP JUMPDEST POP DUP6 SWAP4 POP POP POP POP SWAP3 SWAP2 POP POP JUMP JUMPDEST PUSH2 0x1D57 DUP2 PUSH2 0x2520 JUMP JUMPDEST DUP3 MSTORE POP POP JUMP JUMPDEST PUSH2 0x1D66 DUP2 PUSH2 0x257C JUMP JUMPDEST DUP3 MSTORE POP POP JUMP JUMPDEST PUSH2 0x1D75 DUP2 PUSH2 0x258E JUMP JUMPDEST DUP3 MSTORE POP POP JUMP JUMPDEST PUSH1 0x0 PUSH2 0x1D86 DUP3 PUSH2 0x238F JUMP JUMPDEST PUSH2 0x1D90 DUP2 DUP6 PUSH2 0x23D6 JUMP JUMPDEST SWAP4 POP PUSH2 0x1DA0 DUP2 DUP6 PUSH1 0x20 DUP7 ADD PUSH2 0x25AF JUMP JUMPDEST PUSH2 0x1DA9 DUP2 PUSH2 0x27BC JUMP JUMPDEST DUP5 ADD SWAP2 POP POP SWAP3 SWAP2 POP POP JUMP JUMPDEST PUSH1 0x0 PUSH2 0x1DC1 PUSH1 0x13 DUP4 PUSH2 0x23D6 JUMP JUMPDEST SWAP2 POP PUSH2 0x1DCC DUP3 PUSH2 0x27CD JUMP JUMPDEST PUSH1 0x20 DUP3 ADD SWAP1 POP SWAP2 SWAP1 POP JUMP JUMPDEST PUSH1 0x0 PUSH2 0x1DE4 PUSH1 0x21 DUP4 PUSH2 0x23D6 JUMP JUMPDEST SWAP2 POP PUSH2 0x1DEF DUP3 PUSH2 0x27F6 JUMP JUMPDEST PUSH1 0x40 DUP3 ADD SWAP1 POP SWAP2 SWAP1 POP JUMP JUMPDEST PUSH1 0x0 PUSH2 0x1E07 PUSH1 0x1E DUP4 PUSH2 0x23D6 JUMP JUMPDEST SWAP2 POP PUSH2 0x1E12 DUP3 PUSH2 0x2845 JUMP JUMPDEST PUSH1 0x20 DUP3 ADD SWAP1 POP SWAP2 SWAP1 POP JUMP JUMPDEST PUSH1 0x0 PUSH2 0x1E2A PUSH1 0x1C DUP4 PUSH2 0x23D6 JUMP JUMPDEST SWAP2 POP PUSH2 0x1E35 DUP3 PUSH2 0x286E JUMP JUMPDEST PUSH1 0x20 DUP3 ADD SWAP1 POP SWAP2 SWAP1 POP JUMP JUMPDEST PUSH1 0x0 PUSH2 0x1E4D PUSH1 0x17 DUP4 PUSH2 0x23D6 JUMP JUMPDEST SWAP2 POP PUSH2 0x1E58 DUP3 PUSH2 0x2897 JUMP JUMPDEST PUSH1 0x20 DUP3 ADD SWAP1 POP SWAP2 SWAP1 POP JUMP JUMPDEST PUSH1 0x0 PUSH2 0x1E70 PUSH1 0x15 DUP4 PUSH2 0x23D6 JUMP JUMPDEST SWAP2 POP PUSH2 0x1E7B DUP3 PUSH2 0x28C0 JUMP JUMPDEST PUSH1 0x20 DUP3 ADD SWAP1 POP SWAP2 SWAP1 POP JUMP JUMPDEST PUSH1 0x0 PUSH2 0x1E93 PUSH1 0x15 DUP4 PUSH2 0x23D6 JUMP JUMPDEST SWAP2 POP PUSH2 0x1E9E DUP3 PUSH2 0x28E9 JUMP JUMPDEST PUSH1 0x20 DUP3 ADD SWAP1 POP SWAP2 SWAP1 POP JUMP JUMPDEST PUSH1 0x0 PUSH2 0x1EB6 PUSH1 0x14 DUP4 PUSH2 0x23D6 JUMP JUMPDEST SWAP2 POP PUSH2 0x1EC1 DUP3 PUSH2 0x2912 JUMP JUMPDEST PUSH1 0x20 DUP3 ADD SWAP1 POP SWAP2 SWAP1 POP JUMP JUMPDEST PUSH1 0x0 PUSH2 0x1ED9 PUSH1 0x1A DUP4 PUSH2 0x23D6 JUMP JUMPDEST SWAP2 POP PUSH2 0x1EE4 DUP3 PUSH2 0x293B JUMP JUMPDEST PUSH1 0x20 DUP3 ADD SWAP1 POP SWAP2 SWAP1 POP JUMP JUMPDEST PUSH1 0x0 PUSH2 0x1EFC PUSH1 0x1C DUP4 PUSH2 0x23D6 JUMP JUMPDEST SWAP2 POP PUSH2 0x1F07 DUP3 PUSH2 0x2964 JUMP JUMPDEST PUSH1 0x20 DUP3 ADD SWAP1 POP SWAP2 SWAP1 POP JUMP JUMPDEST PUSH1 0x0 PUSH2 0x1F1F PUSH1 0x14 DUP4 PUSH2 0x23D6 JUMP JUMPDEST SWAP2 POP PUSH2 0x1F2A DUP3 PUSH2 0x298D JUMP JUMPDEST PUSH1 0x20 DUP3 ADD SWAP1 POP SWAP2 SWAP1 POP JUMP JUMPDEST PUSH1 0x0 PUSH2 0x1F42 PUSH1 0x10 DUP4 PUSH2 0x23D6 JUMP JUMPDEST SWAP2 POP PUSH2 0x1F4D DUP3 PUSH2 0x29B6 JUMP JUMPDEST PUSH1 0x20 DUP3 ADD SWAP1 POP SWAP2 SWAP1 POP JUMP JUMPDEST PUSH1 0x0 PUSH2 0x1F65 PUSH1 0x12 DUP4 PUSH2 0x23D6 JUMP JUMPDEST SWAP2 POP PUSH2 0x1F70 DUP3 PUSH2 0x29DF JUMP JUMPDEST PUSH1 0x20 DUP3 ADD SWAP1 POP SWAP2 SWAP1 POP JUMP JUMPDEST PUSH2 0x1F84 DUP2 PUSH2 0x2572 JUMP JUMPDEST DUP3 MSTORE POP POP JUMP JUMPDEST PUSH2 0x1F93 DUP2 PUSH2 0x2572 JUMP JUMPDEST DUP3 MSTORE POP POP JUMP JUMPDEST PUSH1 0x0 PUSH1 0x20 DUP3 ADD SWAP1 POP PUSH2 0x1FAE PUSH1 0x0 DUP4 ADD DUP5 PUSH2 0x1C83 JUMP JUMPDEST SWAP3 SWAP2 POP POP JUMP JUMPDEST PUSH1 0x0 PUSH1 0x20 DUP3 ADD SWAP1 POP PUSH2 0x1FC9 PUSH1 0x0 DUP4 ADD DUP5 PUSH2 0x1C65 JUMP JUMPDEST SWAP3 SWAP2 POP POP JUMP JUMPDEST PUSH1 0x0 PUSH1 0x20 DUP3 ADD SWAP1 POP DUP2 DUP2 SUB PUSH1 0x0 DUP4 ADD MSTORE PUSH2 0x1FE9 DUP2 DUP5 PUSH2 0x1C92 JUMP JUMPDEST SWAP1 POP SWAP3 SWAP2 POP POP JUMP JUMPDEST PUSH1 0x0 PUSH1 0x20 DUP3 ADD SWAP1 POP DUP2 DUP2 SUB PUSH1 0x0 DUP4 ADD MSTORE PUSH2 0x200B DUP2 DUP5 PUSH2 0x1CF0 JUMP JUMPDEST SWAP1 POP SWAP3 SWAP2 POP POP JUMP JUMPDEST PUSH1 0x0 PUSH1 0x20 DUP3 ADD SWAP1 POP PUSH2 0x2028 PUSH1 0x0 DUP4 ADD DUP5 PUSH2 0x1D6C JUMP JUMPDEST SWAP3 SWAP2 POP POP JUMP JUMPDEST PUSH1 0x0 PUSH1 0x20 DUP3 ADD SWAP1 POP DUP2 DUP2 SUB PUSH1 0x0 DUP4 ADD MSTORE PUSH2 0x2048 DUP2 DUP5 PUSH2 0x1D7B JUMP JUMPDEST SWAP1 POP SWAP3 SWAP2 POP POP JUMP JUMPDEST PUSH1 0x0 PUSH1 0xC0 DUP3 ADD SWAP1 POP DUP2 DUP2 SUB PUSH1 0x0 DUP4 ADD MSTORE PUSH2 0x206A DUP2 DUP10 PUSH2 0x1D7B JUMP JUMPDEST SWAP1 POP PUSH2 0x2079 PUSH1 0x20 DUP4 ADD DUP9 PUSH2 0x1D5D JUMP JUMPDEST PUSH2 0x2086 PUSH1 0x40 DUP4 ADD DUP8 PUSH2 0x1F8A JUMP JUMPDEST PUSH2 0x2093 PUSH1 0x60 DUP4 ADD DUP7 PUSH2 0x1C65 JUMP JUMPDEST PUSH2 0x20A0 PUSH1 0x80 DUP4 ADD DUP6 PUSH2 0x1F8A JUMP JUMPDEST PUSH2 0x20AD PUSH1 0xA0 DUP4 ADD DUP5 PUSH2 0x1F8A JUMP JUMPDEST SWAP8 SWAP7 POP POP POP POP POP POP POP JUMP JUMPDEST PUSH1 0x0 PUSH1 0x60 DUP3 ADD SWAP1 POP DUP2 DUP2 SUB PUSH1 0x0 DUP4 ADD MSTORE PUSH2 0x20D2 DUP2 DUP7 PUSH2 0x1D7B JUMP JUMPDEST SWAP1 POP PUSH2 0x20E1 PUSH1 0x20 DUP4 ADD DUP6 PUSH2 0x1F8A JUMP JUMPDEST PUSH2 0x20EE PUSH1 0x40 DUP4 ADD DUP5 PUSH2 0x1D4E JUMP JUMPDEST SWAP5 SWAP4 POP POP POP POP JUMP JUMPDEST PUSH1 0x0 PUSH1 0x20 DUP3 ADD SWAP1 POP DUP2 DUP2 SUB PUSH1 0x0 DUP4 ADD MSTORE PUSH2 0x210F DUP2 PUSH2 0x1DB4 JUMP JUMPDEST SWAP1 POP SWAP2 SWAP1 POP JUMP JUMPDEST PUSH1 0x0 PUSH1 0x20 DUP3 ADD SWAP1 POP DUP2 DUP2 SUB PUSH1 0x0 DUP4 ADD MSTORE PUSH2 0x212F DUP2 PUSH2 0x1DD7 JUMP JUMPDEST SWAP1 POP SWAP2 SWAP1 POP JUMP JUMPDEST PUSH1 0x0 PUSH1 0x20 DUP3 ADD SWAP1 POP DUP2 DUP2 SUB PUSH1 0x0 DUP4 ADD MSTORE PUSH2 0x214F DUP2 PUSH2 0x1DFA JUMP JUMPDEST SWAP1 POP SWAP2 SWAP1 POP JUMP JUMPDEST PUSH1 0x0 PUSH1 0x20 DUP3 ADD SWAP1 POP DUP2 DUP2 SUB PUSH1 0x0 DUP4 ADD MSTORE PUSH2 0x216F DUP2 PUSH2 0x1E1D JUMP JUMPDEST SWAP1 POP SWAP2 SWAP1 POP JUMP JUMPDEST PUSH1 0x0 PUSH1 0x20 DUP3 ADD SWAP1 POP DUP2 DUP2 SUB PUSH1 0x0 DUP4 ADD MSTORE PUSH2 0x218F DUP2 PUSH2 0x1E40 JUMP JUMPDEST SWAP1 POP SWAP2 SWAP1 POP JUMP JUMPDEST PUSH1 0x0 PUSH1 0x20 DUP3 ADD SWAP1 POP DUP2 DUP2 SUB PUSH1 0x0 DUP4 ADD MSTORE PUSH2 0x21AF DUP2 PUSH2 0x1E63 JUMP JUMPDEST SWAP1 POP SWAP2 SWAP1 POP JUMP JUMPDEST PUSH1 0x0 PUSH1 0x20 DUP3 ADD SWAP1 POP DUP2 DUP2 SUB PUSH1 0x0 DUP4 ADD MSTORE PUSH2 0x21CF DUP2 PUSH2 0x1E86 JUMP JUMPDEST SWAP1 POP SWAP2 SWAP1 POP JUMP JUMPDEST PUSH1 0x0 PUSH1 0x20 DUP3 ADD SWAP1 POP DUP2 DUP2 SUB PUSH1 0x0 DUP4 ADD MSTORE PUSH2 0x21EF DUP2 PUSH2 0x1EA9 JUMP JUMPDEST SWAP1 POP SWAP2 SWAP1 POP JUMP JUMPDEST PUSH1 0x0 PUSH1 0x20 DUP3 ADD SWAP1 POP DUP2 DUP2 SUB PUSH1 0x0 DUP4 ADD MSTORE PUSH2 0x220F DUP2 PUSH2 0x1ECC JUMP JUMPDEST SWAP1 POP SWAP2 SWAP1 POP JUMP JUMPDEST PUSH1 0x0 PUSH1 0x20 DUP3 ADD SWAP1 POP DUP2 DUP2 SUB PUSH1 0x0 DUP4 ADD MSTORE PUSH2 0x222F DUP2 PUSH2 0x1EEF JUMP JUMPDEST SWAP1 POP SWAP2 SWAP1 POP JUMP JUMPDEST PUSH1 0x0 PUSH1 0x20 DUP3 ADD SWAP1 POP DUP2 DUP2 SUB PUSH1 0x0 DUP4 ADD MSTORE PUSH2 0x224F DUP2 PUSH2 0x1F12 JUMP JUMPDEST SWAP1 POP SWAP2 SWAP1 POP JUMP JUMPDEST PUSH1 0x0 PUSH1 0x20 DUP3 ADD SWAP1 POP DUP2 DUP2 SUB PUSH1 0x0 DUP4 ADD MSTORE PUSH2 0x226F DUP2 PUSH2 0x1F35 JUMP JUMPDEST SWAP1 POP SWAP2 SWAP1 POP JUMP JUMPDEST PUSH1 0x0 PUSH1 0x20 DUP3 ADD SWAP1 POP DUP2 DUP2 SUB PUSH1 0x0 DUP4 ADD MSTORE PUSH2 0x228F DUP2 PUSH2 0x1F58 JUMP JUMPDEST SWAP1 POP SWAP2 SWAP1 POP JUMP JUMPDEST PUSH1 0x0 PUSH1 0x20 DUP3 ADD SWAP1 POP PUSH2 0x22AB PUSH1 0x0 DUP4 ADD DUP5 PUSH2 0x1F8A JUMP JUMPDEST SWAP3 SWAP2 POP POP JUMP JUMPDEST PUSH1 0x0 PUSH1 0x40 DUP3 ADD SWAP1 POP PUSH2 0x22C6 PUSH1 0x0 DUP4 ADD DUP6 PUSH2 0x1F8A JUMP JUMPDEST PUSH2 0x22D3 PUSH1 0x20 DUP4 ADD DUP5 PUSH2 0x1D4E JUMP JUMPDEST SWAP4 SWAP3 POP POP POP JUMP JUMPDEST PUSH1 0x0 PUSH1 0x40 DUP3 ADD SWAP1 POP PUSH2 0x22EF PUSH1 0x0 DUP4 ADD DUP6 PUSH2 0x1F8A JUMP JUMPDEST PUSH2 0x22FC PUSH1 0x20 DUP4 ADD DUP5 PUSH2 0x1F8A JUMP JUMPDEST SWAP4 SWAP3 POP POP POP JUMP JUMPDEST PUSH1 0x0 PUSH2 0x230D PUSH2 0x231E JUMP JUMPDEST SWAP1 POP PUSH2 0x2319 DUP3 DUP3 PUSH2 0x2614 JUMP JUMPDEST SWAP2 SWAP1 POP JUMP JUMPDEST PUSH1 0x0 PUSH1 0x40 MLOAD SWAP1 POP SWAP1 JUMP JUMPDEST PUSH1 0x0 PUSH8 0xFFFFFFFFFFFFFFFF DUP3 GT ISZERO PUSH2 0x2343 JUMPI PUSH2 0x2342 PUSH2 0x2779 JUMP JUMPDEST JUMPDEST PUSH2 0x234C DUP3 PUSH2 0x27BC JUMP JUMPDEST SWAP1 POP PUSH1 0x20 DUP2 ADD SWAP1 POP SWAP2 SWAP1 POP JUMP JUMPDEST PUSH1 0x0 DUP2 SWAP1 POP PUSH1 0x20 DUP3 ADD SWAP1 POP SWAP2 SWAP1 POP JUMP JUMPDEST PUSH1 0x0 DUP2 SWAP1 POP PUSH1 0x20 DUP3 ADD SWAP1 POP SWAP2 SWAP1 POP JUMP JUMPDEST PUSH1 0x0 DUP2 MLOAD SWAP1 POP SWAP2 SWAP1 POP JUMP JUMPDEST PUSH1 0x0 DUP2 MLOAD SWAP1 POP SWAP2 SWAP1 POP JUMP JUMPDEST PUSH1 0x0 DUP2 MLOAD SWAP1 POP SWAP2 SWAP1 POP JUMP JUMPDEST PUSH1 0x0 PUSH1 0x20 DUP3 ADD SWAP1 POP SWAP2 SWAP1 POP JUMP JUMPDEST PUSH1 0x0 PUSH1 0x20 DUP3 ADD SWAP1 POP SWAP2 SWAP1 POP JUMP JUMPDEST PUSH1 0x0 DUP3 DUP3 MSTORE PUSH1 0x20 DUP3 ADD SWAP1 POP SWAP3 SWAP2 POP POP JUMP JUMPDEST PUSH1 0x0 DUP3 DUP3 MSTORE PUSH1 0x20 DUP3 ADD SWAP1 POP SWAP3 SWAP2 POP POP JUMP JUMPDEST PUSH1 0x0 DUP3 DUP3 MSTORE PUSH1 0x20 DUP3 ADD SWAP1 POP SWAP3 SWAP2 POP POP JUMP JUMPDEST PUSH1 0x0 PUSH2 0x23F2 DUP3 PUSH2 0x2572 JUMP JUMPDEST SWAP2 POP PUSH2 0x23FD DUP4 PUSH2 0x2572 JUMP JUMPDEST SWAP3 POP DUP3 PUSH32 0xFFFFFFFFFFFFFFFFFFFFFFFFFFFFFFFFFFFFFFFFFFFFFFFFFFFFFFFFFFFFFFFF SUB DUP3 GT ISZERO PUSH2 0x2432 JUMPI PUSH2 0x2431 PUSH2 0x268E JUMP JUMPDEST JUMPDEST DUP3 DUP3 ADD SWAP1 POP SWAP3 SWAP2 POP POP JUMP JUMPDEST PUSH1 0x0 PUSH2 0x2448 DUP3 PUSH2 0x2572 JUMP JUMPDEST SWAP2 POP PUSH2 0x2453 DUP4 PUSH2 0x2572 JUMP JUMPDEST SWAP3 POP DUP3 PUSH2 0x2463 JUMPI PUSH2 0x2462 PUSH2 0x26BD JUMP JUMPDEST JUMPDEST DUP3 DUP3 DIV SWAP1 POP SWAP3 SWAP2 POP POP JUMP JUMPDEST PUSH1 0x0 PUSH2 0x2479 DUP3 PUSH2 0x2572 JUMP JUMPDEST SWAP2 POP PUSH2 0x2484 DUP4 PUSH2 0x2572 JUMP JUMPDEST SWAP3 POP DUP2 PUSH32 0xFFFFFFFFFFFFFFFFFFFFFFFFFFFFFFFFFFFFFFFFFFFFFFFFFFFFFFFFFFFFFFFF DIV DUP4 GT DUP3 ISZERO ISZERO AND ISZERO PUSH2 0x24BD JUMPI PUSH2 0x24BC PUSH2 0x268E JUMP JUMPDEST JUMPDEST DUP3 DUP3 MUL SWAP1 POP SWAP3 SWAP2 POP POP JUMP JUMPDEST PUSH1 0x0 PUSH2 0x24D3 DUP3 PUSH2 0x2572 JUMP JUMPDEST SWAP2 POP PUSH2 0x24DE DUP4 PUSH2 0x2572 JUMP JUMPDEST SWAP3 POP DUP3 DUP3 LT ISZERO PUSH2 0x24F1 JUMPI PUSH2 0x24F0 PUSH2 0x268E JUMP JUMPDEST JUMPDEST DUP3 DUP3 SUB SWAP1 POP SWAP3 SWAP2 POP POP JUMP JUMPDEST PUSH1 0x0 PUSH2 0x2507 DUP3 PUSH2 0x2552 JUMP JUMPDEST SWAP1 POP SWAP2 SWAP1 POP JUMP JUMPDEST PUSH1 0x0 PUSH2 0x2519 DUP3 PUSH2 0x2552 JUMP JUMPDEST SWAP1 POP SWAP2 SWAP1 POP JUMP JUMPDEST PUSH1 0x0 DUP2 ISZERO ISZERO SWAP1 POP SWAP2 SWAP1 POP JUMP JUMPDEST PUSH1 0x0 DUP2 SWAP1 POP PUSH2 0x253A DUP3 PUSH2 0x2A08 JUMP JUMPDEST SWAP2 SWAP1 POP JUMP JUMPDEST PUSH1 0x0 DUP2 SWAP1 POP PUSH2 0x254D DUP3 PUSH2 0x2A1C JUMP JUMPDEST SWAP2 SWAP1 POP JUMP JUMPDEST PUSH1 0x0 PUSH20 0xFFFFFFFFFFFFFFFFFFFFFFFFFFFFFFFFFFFFFFFF DUP3 AND SWAP1 POP SWAP2 SWAP1 POP JUMP JUMPDEST PUSH1 0x0 DUP2 SWAP1 POP SWAP2 SWAP1 POP JUMP JUMPDEST PUSH1 0x0 PUSH2 0x2587 DUP3 PUSH2 0x252C JUMP JUMPDEST SWAP1 POP SWAP2 SWAP1 POP JUMP JUMPDEST PUSH1 0x0 PUSH2 0x2599 DUP3 PUSH2 0x253F JUMP JUMPDEST SWAP1 POP SWAP2 SWAP1 POP JUMP JUMPDEST DUP3 DUP2 DUP4 CALLDATACOPY PUSH1 0x0 DUP4 DUP4 ADD MSTORE POP POP POP JUMP JUMPDEST PUSH1 0x0 JUMPDEST DUP4 DUP2 LT ISZERO PUSH2 0x25CD JUMPI DUP1 DUP3 ADD MLOAD DUP2 DUP5 ADD MSTORE PUSH1 0x20 DUP2 ADD SWAP1 POP PUSH2 0x25B2 JUMP JUMPDEST DUP4 DUP2 GT ISZERO PUSH2 0x25DC JUMPI PUSH1 0x0 DUP5 DUP5 ADD MSTORE JUMPDEST POP POP POP POP JUMP JUMPDEST PUSH1 0x0 PUSH1 0x2 DUP3 DIV SWAP1 POP PUSH1 0x1 DUP3 AND DUP1 PUSH2 0x25FA JUMPI PUSH1 0x7F DUP3 AND SWAP2 POP JUMPDEST PUSH1 0x20 DUP3 LT DUP2 EQ ISZERO PUSH2 0x260E JUMPI PUSH2 0x260D PUSH2 0x271B JUMP JUMPDEST JUMPDEST POP SWAP2 SWAP1 POP JUMP JUMPDEST PUSH2 0x261D DUP3 PUSH2 0x27BC JUMP JUMPDEST DUP2 ADD DUP2 DUP2 LT PUSH8 0xFFFFFFFFFFFFFFFF DUP3 GT OR ISZERO PUSH2 0x263C JUMPI PUSH2 0x263B PUSH2 0x2779 JUMP JUMPDEST JUMPDEST DUP1 PUSH1 0x40 MSTORE POP POP POP JUMP JUMPDEST PUSH1 0x0 PUSH2 0x2650 DUP3 PUSH2 0x2572 JUMP JUMPDEST SWAP2 POP PUSH32 0xFFFFFFFFFFFFFFFFFFFFFFFFFFFFFFFFFFFFFFFFFFFFFFFFFFFFFFFFFFFFFFFF DUP3 EQ ISZERO PUSH2 0x2683 JUMPI PUSH2 0x2682 PUSH2 0x268E JUMP JUMPDEST JUMPDEST PUSH1 0x1 DUP3 ADD SWAP1 POP SWAP2 SWAP1 POP JUMP JUMPDEST PUSH32 0x4E487B7100000000000000000000000000000000000000000000000000000000 PUSH1 0x0 MSTORE PUSH1 0x11 PUSH1 0x4 MSTORE PUSH1 0x24 PUSH1 0x0 REVERT JUMPDEST PUSH32 0x4E487B7100000000000000000000000000000000000000000000000000000000 PUSH1 0x0 MSTORE PUSH1 0x12 PUSH1 0x4 MSTORE PUSH1 0x24 PUSH1 0x0 REVERT JUMPDEST PUSH32 0x4E487B7100000000000000000000000000000000000000000000000000000000 PUSH1 0x0 MSTORE PUSH1 0x21 PUSH1 0x4 MSTORE PUSH1 0x24 PUSH1 0x0 REVERT JUMPDEST PUSH32 0x4E487B7100000000000000000000000000000000000000000000000000000000 PUSH1 0x0 MSTORE PUSH1 0x22 PUSH1 0x4 MSTORE PUSH1 0x24 PUSH1 0x0 REVERT JUMPDEST PUSH32 0x4E487B7100000000000000000000000000000000000000000000000000000000 PUSH1 0x0 MSTORE PUSH1 0x32 PUSH1 0x4 MSTORE PUSH1 0x24 PUSH1 0x0 REVERT JUMPDEST PUSH32 0x4E487B7100000000000000000000000000000000000000000000000000000000 PUSH1 0x0 MSTORE PUSH1 0x41 PUSH1 0x4 MSTORE PUSH1 0x24 PUSH1 0x0 REVERT JUMPDEST PUSH1 0x0 DUP1 REVERT JUMPDEST PUSH1 0x0 DUP1 REVERT JUMPDEST PUSH1 0x0 DUP1 REVERT JUMPDEST PUSH1 0x0 DUP1 REVERT JUMPDEST PUSH1 0x0 PUSH1 0x1F NOT PUSH1 0x1F DUP4 ADD AND SWAP1 POP SWAP2 SWAP1 POP JUMP JUMPDEST PUSH32 0x43616D70616E7961206E6F206162696572746100000000000000000000000000 PUSH1 0x0 DUP3 ADD MSTORE POP JUMP JUMPDEST PUSH32 0x50617274696369706163696F6E206D696E696D61206E6F20616C63616E7A6164 PUSH1 0x0 DUP3 ADD MSTORE PUSH32 0x6100000000000000000000000000000000000000000000000000000000000000 PUSH1 0x20 DUP3 ADD MSTORE POP JUMP JUMPDEST PUSH32 0x46696E616C697A61646F20706C617A6F2070617274696369706163696F6E0000 PUSH1 0x0 DUP3 ADD MSTORE POP JUMP JUMPDEST PUSH32 0x736F6C6F20766F74616E206C6F73207061727469636970616E74657300000000 PUSH1 0x0 DUP3 ADD MSTORE POP JUMP JUMPDEST PUSH32 0x43616D7061696E206973206E6F74206F76657220796574000000000000000000 PUSH1 0x0 DUP3 ADD MSTORE POP JUMP JUMPDEST PUSH32 0x43616D70616E7961206E6F2063616E63656C6164610000000000000000000000 PUSH1 0x0 DUP3 ADD MSTORE POP JUMP JUMPDEST PUSH32 0x7065746963696F6E20696E6578697374656E7472650000000000000000000000 PUSH1 0x0 DUP3 ADD MSTORE POP JUMP JUMPDEST PUSH32 0x5065746963696F6E20696E6578697374656E7465000000000000000000000000 PUSH1 0x0 DUP3 ADD MSTORE POP JUMP JUMPDEST PUSH32 0x5065746963696F6E206465626520657374617220616374697661000000000000 PUSH1 0x0 DUP3 ADD MSTORE POP JUMP JUMPDEST PUSH32 0x456C207061727469636970616E746520796120686120766F7461646F00000000 PUSH1 0x0 DUP3 ADD MSTORE POP JUMP JUMPDEST PUSH32 0x4F6E6C792043616D7061696E206D616E61676572000000000000000000000000 PUSH1 0x0 DUP3 ADD MSTORE POP JUMP JUMPDEST PUSH32 0x666F6E646F7320726574697261646F7300000000000000000000000000000000 PUSH1 0x0 DUP3 ADD MSTORE POP JUMP JUMPDEST PUSH32 0x73616C646F20696E737566696369656E74650000000000000000000000000000 PUSH1 0x0 DUP3 ADD MSTORE POP JUMP JUMPDEST PUSH1 0x3 DUP2 LT PUSH2 0x2A19 JUMPI PUSH2 0x2A18 PUSH2 0x26EC JUMP JUMPDEST JUMPDEST POP JUMP JUMPDEST PUSH1 0x3 DUP2 LT PUSH2 0x2A2D JUMPI PUSH2 0x2A2C PUSH2 0x26EC JUMP JUMPDEST JUMPDEST POP JUMP JUMPDEST PUSH2 0x2A39 DUP2 PUSH2 0x24FC JUMP JUMPDEST DUP2 EQ PUSH2 0x2A44 JUMPI PUSH1 0x0 DUP1 REVERT JUMPDEST POP JUMP JUMPDEST PUSH2 0x2A50 DUP2 PUSH2 0x250E JUMP JUMPDEST DUP2 EQ PUSH2 0x2A5B JUMPI PUSH1 0x0 DUP1 REVERT JUMPDEST POP JUMP JUMPDEST PUSH2 0x2A67 DUP2 PUSH2 0x2520 JUMP JUMPDEST DUP2 EQ PUSH2 0x2A72 JUMPI PUSH1 0x0 DUP1 REVERT JUMPDEST POP JUMP JUMPDEST PUSH2 0x2A7E DUP2 PUSH2 0x2572 JUMP JUMPDEST DUP2 EQ PUSH2 0x2A89 JUMPI PUSH1 0x0 DUP1 REVERT JUMPDEST POP JUMP INVALID LOG2 PUSH5 0x6970667358 0x22 SLT KECCAK256 JUMPDEST 0xE0 0xDE 0xC0 0xF7 0xC8 MOD MUL 0xDF PUSH3 0x54663E 0xB0 GASLIMIT KECCAK256 JUMPI 0xAC 0xD8 PUSH6 0xFF690949ED6 SELFDESTRUCT 0xA8 DUP1 BYTE 0xD6 DUP4 PUSH5 0x736F6C6343 STOP ADDMOD SMOD STOP CALLER "
				},
				"gasEstimates": {
					"creation": {
						"codeDepositCost": "2189200",
						"executionCost": "infinite",
						"totalCost": "infinite"
					},
					"external": {
						"": "infinite",
						"CAMPANIN_DUEDATE()": "infinite",
						"campainDescription()": "infinite",
						"campainEstado()": "2694",
						"campainGoal()": "2474",
						"campainManager()": "2534",
						"campainName()": "infinite",
						"crearPeticionDeGasto(string,uint256,address)": "infinite",
						"finalizarCampain()": "infinite",
						"getDetailPeticionGastobyId(uint256)": "infinite",
						"getNPeticionesDeGasto()": "2504",
						"getParticipantes()": "infinite",
						"getPeticionesGastoAbiertas()": "infinite",
						"getTotalParticipantes()": "2467",
						"getUserParticipaciones(address)": "2953",
						"participaciones(address)": "2859",
						"participantes(uint256)": "4979",
						"participar()": "infinite",
						"participationRate()": "2562",
						"peticionesDeGasto(uint256)": "infinite",
						"resolverPeticion(uint256)": "infinite",
						"test_contractBalance()": "363",
						"totalParticipaciones()": "2519",
						"votarPeticionGasto(uint256,bool)": "infinite",
						"withdrawCanceledCampain()": "infinite"
					}
				},
				"methodIdentifiers": {
					"CAMPANIN_DUEDATE()": "f7a7e57e",
					"campainDescription()": "e7425109",
					"campainEstado()": "8d1750c5",
					"campainGoal()": "95df868d",
					"campainManager()": "8f75c1fb",
					"campainName()": "3deff252",
					"crearPeticionDeGasto(string,uint256,address)": "f83589c0",
					"finalizarCampain()": "b14d38c2",
					"getDetailPeticionGastobyId(uint256)": "d50af7b4",
					"getNPeticionesDeGasto()": "9de8fc99",
					"getParticipantes()": "cac9a391",
					"getPeticionesGastoAbiertas()": "eb68f887",
					"getTotalParticipantes()": "e3ce8164",
					"getUserParticipaciones(address)": "8b83ba26",
					"participaciones(address)": "bbde609a",
					"participantes(uint256)": "b25924c1",
					"participar()": "d50fac49",
					"participationRate()": "e348c518",
					"peticionesDeGasto(uint256)": "ab672906",
					"resolverPeticion(uint256)": "3e0905ec",
					"test_contractBalance()": "225682d1",
					"totalParticipaciones()": "7bd82410",
					"votarPeticionGasto(uint256,bool)": "f7256d66",
					"withdrawCanceledCampain()": "a4e58a87"
				}
			},
			"storageLayout": {
				"storage": [
					{
						"astId": 7,
						"contract": "src/crowdfunding.sol:CrowdFunding",
						"label": "campainManager",
						"offset": 0,
						"slot": "0",
						"type": "t_address_payable"
					},
					{
						"astId": 9,
						"contract": "src/crowdfunding.sol:CrowdFunding",
						"label": "campainName",
						"offset": 0,
						"slot": "1",
						"type": "t_string_storage"
					},
					{
						"astId": 11,
						"contract": "src/crowdfunding.sol:CrowdFunding",
						"label": "campainDescription",
						"offset": 0,
						"slot": "2",
						"type": "t_string_storage"
					},
					{
						"astId": 14,
						"contract": "src/crowdfunding.sol:CrowdFunding",
						"label": "campainEstado",
						"offset": 0,
						"slot": "3",
						"type": "t_enum(Estado)5"
					},
					{
						"astId": 16,
						"contract": "src/crowdfunding.sol:CrowdFunding",
						"label": "campainGoal",
						"offset": 0,
						"slot": "4",
						"type": "t_uint256"
					},
					{
						"astId": 18,
						"contract": "src/crowdfunding.sol:CrowdFunding",
						"label": "participationRate",
						"offset": 0,
						"slot": "5",
						"type": "t_uint256"
					},
					{
						"astId": 22,
						"contract": "src/crowdfunding.sol:CrowdFunding",
						"label": "participaciones",
						"offset": 0,
						"slot": "6",
						"type": "t_mapping(t_address,t_uint256)"
					},
					{
						"astId": 25,
						"contract": "src/crowdfunding.sol:CrowdFunding",
						"label": "participantes",
						"offset": 0,
						"slot": "7",
						"type": "t_array(t_address)dyn_storage"
					},
					{
						"astId": 27,
						"contract": "src/crowdfunding.sol:CrowdFunding",
						"label": "totalParticipaciones",
						"offset": 0,
						"slot": "8",
						"type": "t_uint256"
					},
					{
						"astId": 68,
						"contract": "src/crowdfunding.sol:CrowdFunding",
						"label": "peticionesDeGasto",
						"offset": 0,
						"slot": "9",
						"type": "t_mapping(t_uint256,t_struct(PeticionGasto)63_storage)"
					},
					{
						"astId": 70,
						"contract": "src/crowdfunding.sol:CrowdFunding",
						"label": "totalPeticionesDeGasto",
						"offset": 0,
						"slot": "10",
						"type": "t_uint256"
					},
					{
						"astId": 72,
						"contract": "src/crowdfunding.sol:CrowdFunding",
						"label": "totalImportePeticionesDeGasto",
						"offset": 0,
						"slot": "11",
						"type": "t_uint256"
					}
				],
				"types": {
					"t_address": {
						"encoding": "inplace",
						"label": "address",
						"numberOfBytes": "20"
					},
					"t_address_payable": {
						"encoding": "inplace",
						"label": "address payable",
						"numberOfBytes": "20"
					},
					"t_array(t_address)dyn_storage": {
						"base": "t_address",
						"encoding": "dynamic_array",
						"label": "address[]",
						"numberOfBytes": "32"
					},
					"t_bool": {
						"encoding": "inplace",
						"label": "bool",
						"numberOfBytes": "1"
					},
					"t_enum(Estado)5": {
						"encoding": "inplace",
						"label": "enum CrowdFunding.Estado",
						"numberOfBytes": "1"
					},
					"t_enum(EstadoPeticion)45": {
						"encoding": "inplace",
						"label": "enum CrowdFunding.EstadoPeticion",
						"numberOfBytes": "1"
					},
					"t_mapping(t_address,t_bool)": {
						"encoding": "mapping",
						"key": "t_address",
						"label": "mapping(address => bool)",
						"numberOfBytes": "32",
						"value": "t_bool"
					},
					"t_mapping(t_address,t_uint256)": {
						"encoding": "mapping",
						"key": "t_address",
						"label": "mapping(address => uint256)",
						"numberOfBytes": "32",
						"value": "t_uint256"
					},
					"t_mapping(t_uint256,t_struct(PeticionGasto)63_storage)": {
						"encoding": "mapping",
						"key": "t_uint256",
						"label": "mapping(uint256 => struct CrowdFunding.PeticionGasto)",
						"numberOfBytes": "32",
						"value": "t_struct(PeticionGasto)63_storage"
					},
					"t_string_storage": {
						"encoding": "bytes",
						"label": "string",
						"numberOfBytes": "32"
					},
					"t_struct(PeticionGasto)63_storage": {
						"encoding": "inplace",
						"label": "struct CrowdFunding.PeticionGasto",
						"members": [
							{
								"astId": 47,
								"contract": "src/crowdfunding.sol:CrowdFunding",
								"label": "detallePeticion",
								"offset": 0,
								"slot": "0",
								"type": "t_string_storage"
							},
							{
								"astId": 50,
								"contract": "src/crowdfunding.sol:CrowdFunding",
								"label": "estado",
								"offset": 0,
								"slot": "1",
								"type": "t_enum(EstadoPeticion)45"
							},
							{
								"astId": 52,
								"contract": "src/crowdfunding.sol:CrowdFunding",
								"label": "importe",
								"offset": 0,
								"slot": "2",
								"type": "t_uint256"
							},
							{
								"astId": 54,
								"contract": "src/crowdfunding.sol:CrowdFunding",
								"label": "walletDestinatario",
								"offset": 0,
								"slot": "3",
								"type": "t_address_payable"
							},
							{
								"astId": 56,
								"contract": "src/crowdfunding.sol:CrowdFunding",
								"label": "votosRealizados",
								"offset": 0,
								"slot": "4",
								"type": "t_uint256"
							},
							{
								"astId": 58,
								"contract": "src/crowdfunding.sol:CrowdFunding",
								"label": "votosPositivos",
								"offset": 0,
								"slot": "5",
								"type": "t_uint256"
							},
							{
								"astId": 62,
								"contract": "src/crowdfunding.sol:CrowdFunding",
								"label": "votantes",
								"offset": 0,
								"slot": "6",
								"type": "t_mapping(t_address,t_bool)"
							}
						],
						"numberOfBytes": "224"
					},
					"t_uint256": {
						"encoding": "inplace",
						"label": "uint256",
						"numberOfBytes": "32"
					}
				}
			},
			"userdoc": {
				"kind": "user",
				"methods": {},
				"version": 1
			}
		}
	}
}