{
  "abi": [
    {
      "inputs": [
        {
          "internalType": "string",
          "name": "_campainName",
          "type": "string"
        },
        {
          "internalType": "string",
          "name": "_campainDesc",
          "type": "string"
        },
        {
          "internalType": "uint256",
          "name": "_campainGoal",
          "type": "uint256"
        },
        {
          "internalType": "uint256",
          "name": "_participationRate",
          "type": "uint256"
        },
        {
          "internalType": "uint256",
          "name": "campainduration",
          "type": "uint256"
        }
      ],
      "stateMutability": "nonpayable",
      "type": "constructor"
    },
    {
      "stateMutability": "payable",
      "type": "fallback"
    },
    {
      "inputs": [],
      "name": "CAMPANIN_DUEDATE",
      "outputs": [
        {
          "internalType": "uint256",
          "name": "",
          "type": "uint256"
        }
      ],
      "stateMutability": "view",
      "type": "function"
    },
    {
      "inputs": [],
      "name": "adminGetFunds",
      "outputs": [],
      "stateMutability": "nonpayable",
      "type": "function"
    },
    {
      "inputs": [],
      "name": "campainDescription",
      "outputs": [
        {
          "internalType": "string",
          "name": "",
          "type": "string"
        }
      ],
      "stateMutability": "view",
      "type": "function"
    },
    {
      "inputs": [],
      "name": "campainEstado",
      "outputs": [
        {
          "internalType": "enum CrowdFunding.Estado",
          "name": "",
          "type": "uint8"
        }
      ],
      "stateMutability": "view",
      "type": "function"
    },
    {
      "inputs": [],
      "name": "campainGoal",
      "outputs": [
        {
          "internalType": "uint256",
          "name": "",
          "type": "uint256"
        }
      ],
      "stateMutability": "view",
      "type": "function"
    },
    {
      "inputs": [],
      "name": "campainManager",
      "outputs": [
        {
          "internalType": "address payable",
          "name": "",
          "type": "address"
        }
      ],
      "stateMutability": "view",
      "type": "function"
    },
    {
      "inputs": [],
      "name": "campainName",
      "outputs": [
        {
          "internalType": "string",
          "name": "",
          "type": "string"
        }
      ],
      "stateMutability": "view",
      "type": "function"
    },
    {
      "inputs": [],
      "name": "finalizarCampain",
      "outputs": [],
      "stateMutability": "nonpayable",
      "type": "function"
    },
    {
      "inputs": [],
      "name": "getParticipantes",
      "outputs": [
        {
          "internalType": "address[]",
          "name": "",
          "type": "address[]"
        }
      ],
      "stateMutability": "view",
      "type": "function"
    },
    {
      "inputs": [],
      "name": "getTotalParticipantes",
      "outputs": [
        {
          "internalType": "uint256",
          "name": "",
          "type": "uint256"
        }
      ],
      "stateMutability": "view",
      "type": "function"
    },
    {
      "inputs": [
        {
          "internalType": "address",
          "name": "user",
          "type": "address"
        }
      ],
      "name": "getUserParticipaciones",
      "outputs": [
        {
          "internalType": "uint256",
          "name": "",
          "type": "uint256"
        }
      ],
      "stateMutability": "view",
      "type": "function"
    },
    {
      "inputs": [
        {
          "internalType": "address",
          "name": "",
          "type": "address"
        }
      ],
      "name": "participaciones",
      "outputs": [
        {
          "internalType": "uint256",
          "name": "",
          "type": "uint256"
        }
      ],
      "stateMutability": "view",
      "type": "function"
    },
    {
      "inputs": [
        {
          "internalType": "uint256",
          "name": "",
          "type": "uint256"
        }
      ],
      "name": "participantes",
      "outputs": [
        {
          "internalType": "address",
          "name": "",
          "type": "address"
        }
      ],
      "stateMutability": "view",
      "type": "function"
    },
    {
      "inputs": [],
      "name": "participar",
      "outputs": [],
      "stateMutability": "payable",
      "type": "function"
    },
    {
      "inputs": [],
      "name": "participationRate",
      "outputs": [
        {
          "internalType": "uint256",
          "name": "",
          "type": "uint256"
        }
      ],
      "stateMutability": "view",
      "type": "function"
    },
    {
      "inputs": [],
      "name": "test_contractBalance",
      "outputs": [
        {
          "internalType": "uint256",
          "name": "",
          "type": "uint256"
        }
      ],
      "stateMutability": "view",
      "type": "function"
    },
    {
      "inputs": [],
      "name": "totalParticipaciones",
      "outputs": [
        {
          "internalType": "uint256",
          "name": "",
          "type": "uint256"
        }
      ],
      "stateMutability": "view",
      "type": "function"
    },
    {
      "inputs": [],
      "name": "withdrawCanceledCampain",
      "outputs": [],
      "stateMutability": "nonpayable",
      "type": "function"
    },
    {
      "stateMutability": "payable",
      "type": "receive"
    }
  ],
  "devdoc": {
    "kind": "dev",
    "methods": {},
    "version": 1
  },
  "evm": {
    "assembly": "    /* \"crowdfunding_v1.sol\":72:3430  contract CrowdFunding {... */\n  mstore(0x40, 0xa0)\n    /* \"crowdfunding_v1.sol\":682:1209  constructor(string memory _campainName, string memory _campainDesc,uint256 _campainGoal, uint256 _participationRate, uint256 campainduration)  {... */\n  callvalue\n  dup1\n  iszero\n  tag_1\n  jumpi\n  0x00\n  dup1\n  revert\ntag_1:\n  pop\n  mload(0x40)\n  sub(codesize, bytecodeSize)\n  dup1\n  bytecodeSize\n  dup4\n  codecopy\n  dup2\n  dup2\n  add\n  0x40\n  mstore\n  dup2\n  add\n  swap1\n  tag_2\n  swap2\n  swap1\n  tag_3\n  jump\t// in\ntag_2:\n    /* \"crowdfunding_v1.sol\":859:860  0 */\n  0x00\n    /* \"crowdfunding_v1.sol\":844:856  _campainGoal */\n  dup4\n    /* \"crowdfunding_v1.sol\":844:860  _campainGoal > 0 */\n  gt\n    /* \"crowdfunding_v1.sol\":844:886  _campainGoal > 0 && _participationRate > 0 */\n  dup1\n  iszero\n  tag_6\n  jumpi\n  pop\n    /* \"crowdfunding_v1.sol\":885:886  0 */\n  0x00\n    /* \"crowdfunding_v1.sol\":864:882  _participationRate */\n  dup3\n    /* \"crowdfunding_v1.sol\":864:886  _participationRate > 0 */\n  gt\n    /* \"crowdfunding_v1.sol\":844:886  _campainGoal > 0 && _participationRate > 0 */\ntag_6:\n    /* \"crowdfunding_v1.sol\":836:888  require(_campainGoal > 0 && _participationRate > 0 ) */\n  tag_7\n  jumpi\n  0x00\n  dup1\n  revert\ntag_7:\n    /* \"crowdfunding_v1.sol\":907:919  _campainName */\n  dup5\n    /* \"crowdfunding_v1.sol\":893:904  campainName */\n  0x01\n    /* \"crowdfunding_v1.sol\":893:919  campainName = _campainName */\n  swap1\n  dup1\n  mload\n  swap1\n  0x20\n  add\n  swap1\n  tag_8\n  swap3\n  swap2\n  swap1\n  tag_9\n  jump\t// in\ntag_8:\n  pop\n    /* \"crowdfunding_v1.sol\":945:957  _campainDesc */\n  dup4\n    /* \"crowdfunding_v1.sol\":924:942  campainDescription */\n  0x02\n    /* \"crowdfunding_v1.sol\":924:957  campainDescription = _campainDesc */\n  swap1\n  dup1\n  mload\n  swap1\n  0x20\n  add\n  swap1\n  tag_10\n  swap3\n  swap2\n  swap1\n  tag_9\n  jump\t// in\ntag_10:\n  pop\n    /* \"crowdfunding_v1.sol\":987:997  msg.sender */\n  caller\n    /* \"crowdfunding_v1.sol\":962:976  campainManager */\n  0x00\n  dup1\n    /* \"crowdfunding_v1.sol\":962:998  campainManager = payable(msg.sender) */\n  0x0100\n  exp\n  dup2\n  sload\n  dup2\n  0xffffffffffffffffffffffffffffffffffffffff\n  mul\n  not\n  and\n  swap1\n  dup4\n  0xffffffffffffffffffffffffffffffffffffffff\n  and\n  mul\n  or\n  swap1\n  sstore\n  pop\n    /* \"crowdfunding_v1.sol\":1023:1041  _participationRate */\n  dup2\n    /* \"crowdfunding_v1.sol\":1003:1020  participationRate */\n  0x05\n    /* \"crowdfunding_v1.sol\":1003:1041  participationRate = _participationRate */\n  dup2\n  swap1\n  sstore\n  pop\n    /* \"crowdfunding_v1.sol\":1066:1078  _campainGoal */\n  dup3\n    /* \"crowdfunding_v1.sol\":1052:1063  campainGoal */\n  0x04\n    /* \"crowdfunding_v1.sol\":1052:1078  campainGoal = _campainGoal */\n  dup2\n  swap1\n  sstore\n  pop\n    /* \"crowdfunding_v1.sol\":1105:1119  Estado.Abierta */\n  0x00\n    /* \"crowdfunding_v1.sol\":1089:1102  campainEstado */\n  0x03\n  0x00\n    /* \"crowdfunding_v1.sol\":1089:1119  campainEstado = Estado.Abierta */\n  0x0100\n  exp\n  dup2\n  sload\n  dup2\n  0xff\n  mul\n  not\n  and\n  swap1\n  dup4\n  0x02\n  dup2\n  gt\n  iszero\n  tag_11\n  jumpi\n  tag_12\n  tag_13\n  jump\t// in\ntag_12:\ntag_11:\n  mul\n  or\n  swap1\n  sstore\n  pop\n    /* \"crowdfunding_v1.sol\":1185:1194  1 seconds */\n  0x01\n    /* \"crowdfunding_v1.sol\":1167:1182  campainduration */\n  dup2\n    /* \"crowdfunding_v1.sol\":1167:1194  campainduration * 1 seconds */\n  tag_14\n  swap2\n  swap1\n  tag_15\n  jump\t// in\ntag_14:\n    /* \"crowdfunding_v1.sol\":1149:1164  block.timestamp */\n  timestamp\n    /* \"crowdfunding_v1.sol\":1149:1194  block.timestamp + campainduration * 1 seconds */\n  tag_16\n  swap2\n  swap1\n  tag_17\n  jump\t// in\ntag_16:\n    /* \"crowdfunding_v1.sol\":1130:1194  CAMPANIN_DUEDATE = block.timestamp + campainduration * 1 seconds */\n  0x80\n  dup2\n  dup2\n  mstore\n  pop\n  pop\n    /* \"crowdfunding_v1.sol\":682:1209  constructor(string memory _campainName, string memory _campainDesc,uint256 _campainGoal, uint256 _participationRate, uint256 campainduration)  {... */\n  pop\n  pop\n  pop\n  pop\n  pop\n    /* \"crowdfunding_v1.sol\":72:3430  contract CrowdFunding {... */\n  jump(tag_18)\ntag_9:\n  dup3\n  dup1\n  sload\n  tag_19\n  swap1\n  tag_20\n  jump\t// in\ntag_19:\n  swap1\n  0x00\n  mstore\n  keccak256(0x00, 0x20)\n  swap1\n  0x1f\n  add\n  0x20\n  swap1\n  div\n  dup2\n  add\n  swap3\n  dup3\n  tag_22\n  jumpi\n  0x00\n  dup6\n  sstore\n  jump(tag_21)\ntag_22:\n  dup3\n  0x1f\n  lt\n  tag_23\n  jumpi\n  dup1\n  mload\n  not(0xff)\n  and\n  dup4\n  dup1\n  add\n  or\n  dup6\n  sstore\n  jump(tag_21)\ntag_23:\n  dup3\n  dup1\n  add\n  0x01\n  add\n  dup6\n  sstore\n  dup3\n  iszero\n  tag_21\n  jumpi\n  swap2\n  dup3\n  add\ntag_24:\n  dup3\n  dup2\n  gt\n  iszero\n  tag_25\n  jumpi\n  dup3\n  mload\n  dup3\n  sstore\n  swap2\n  0x20\n  add\n  swap2\n  swap1\n  0x01\n  add\n  swap1\n  jump(tag_24)\ntag_25:\ntag_21:\n  pop\n  swap1\n  pop\n  tag_26\n  swap2\n  swap1\n  tag_27\n  jump\t// in\ntag_26:\n  pop\n  swap1\n  jump\t// out\ntag_27:\ntag_28:\n  dup1\n  dup3\n  gt\n  iszero\n  tag_29\n  jumpi\n  0x00\n  dup2\n  0x00\n  swap1\n  sstore\n  pop\n  0x01\n  add\n  jump(tag_28)\ntag_29:\n  pop\n  swap1\n  jump\t// out\n    /* \"#utility.yul\":7:82   */\ntag_30:\n    /* \"#utility.yul\":40:46   */\n  0x00\n    /* \"#utility.yul\":73:75   */\n  0x40\n    /* \"#utility.yul\":67:76   */\n  mload\n    /* \"#utility.yul\":57:76   */\n  swap1\n  pop\n    /* \"#utility.yul\":7:82   */\n  swap1\n  jump\t// out\n    /* \"#utility.yul\":88:205   */\ntag_31:\n    /* \"#utility.yul\":197:198   */\n  0x00\n    /* \"#utility.yul\":194:195   */\n  dup1\n    /* \"#utility.yul\":187:199   */\n  revert\n    /* \"#utility.yul\":211:328   */\ntag_32:\n    /* \"#utility.yul\":320:321   */\n  0x00\n    /* \"#utility.yul\":317:318   */\n  dup1\n    /* \"#utility.yul\":310:322   */\n  revert\n    /* \"#utility.yul\":334:451   */\ntag_33:\n    /* \"#utility.yul\":443:444   */\n  0x00\n    /* \"#utility.yul\":440:441   */\n  dup1\n    /* \"#utility.yul\":433:445   */\n  revert\n    /* \"#utility.yul\":457:574   */\ntag_34:\n    /* \"#utility.yul\":566:567   */\n  0x00\n    /* \"#utility.yul\":563:564   */\n  dup1\n    /* \"#utility.yul\":556:568   */\n  revert\n    /* \"#utility.yul\":580:682   */\ntag_35:\n    /* \"#utility.yul\":621:627   */\n  0x00\n    /* \"#utility.yul\":672:674   */\n  0x1f\n    /* \"#utility.yul\":668:675   */\n  not\n    /* \"#utility.yul\":663:665   */\n  0x1f\n    /* \"#utility.yul\":656:661   */\n  dup4\n    /* \"#utility.yul\":652:666   */\n  add\n    /* \"#utility.yul\":648:676   */\n  and\n    /* \"#utility.yul\":638:676   */\n  swap1\n  pop\n    /* \"#utility.yul\":580:682   */\n  swap2\n  swap1\n  pop\n  jump\t// out\n    /* \"#utility.yul\":688:868   */\ntag_36:\n    /* \"#utility.yul\":736:813   */\n  0x4e487b7100000000000000000000000000000000000000000000000000000000\n    /* \"#utility.yul\":733:734   */\n  0x00\n    /* \"#utility.yul\":726:814   */\n  mstore\n    /* \"#utility.yul\":833:837   */\n  0x41\n    /* \"#utility.yul\":830:831   */\n  0x04\n    /* \"#utility.yul\":823:838   */\n  mstore\n    /* \"#utility.yul\":857:861   */\n  0x24\n    /* \"#utility.yul\":854:855   */\n  0x00\n    /* \"#utility.yul\":847:862   */\n  revert\n    /* \"#utility.yul\":874:1155   */\ntag_37:\n    /* \"#utility.yul\":957:984   */\n  tag_57\n    /* \"#utility.yul\":979:983   */\n  dup3\n    /* \"#utility.yul\":957:984   */\n  tag_35\n  jump\t// in\ntag_57:\n    /* \"#utility.yul\":949:955   */\n  dup2\n    /* \"#utility.yul\":945:985   */\n  add\n    /* \"#utility.yul\":1087:1093   */\n  dup2\n    /* \"#utility.yul\":1075:1085   */\n  dup2\n    /* \"#utility.yul\":1072:1094   */\n  lt\n    /* \"#utility.yul\":1051:1069   */\n  0xffffffffffffffff\n    /* \"#utility.yul\":1039:1049   */\n  dup3\n    /* \"#utility.yul\":1036:1070   */\n  gt\n    /* \"#utility.yul\":1033:1095   */\n  or\n    /* \"#utility.yul\":1030:1118   */\n  iszero\n  tag_58\n  jumpi\n    /* \"#utility.yul\":1098:1116   */\n  tag_59\n  tag_36\n  jump\t// in\ntag_59:\n    /* \"#utility.yul\":1030:1118   */\ntag_58:\n    /* \"#utility.yul\":1138:1148   */\n  dup1\n    /* \"#utility.yul\":1134:1136   */\n  0x40\n    /* \"#utility.yul\":1127:1149   */\n  mstore\n    /* \"#utility.yul\":917:1155   */\n  pop\n    /* \"#utility.yul\":874:1155   */\n  pop\n  pop\n  jump\t// out\n    /* \"#utility.yul\":1161:1290   */\ntag_38:\n    /* \"#utility.yul\":1195:1201   */\n  0x00\n    /* \"#utility.yul\":1222:1242   */\n  tag_61\n  tag_30\n  jump\t// in\ntag_61:\n    /* \"#utility.yul\":1212:1242   */\n  swap1\n  pop\n    /* \"#utility.yul\":1251:1284   */\n  tag_62\n    /* \"#utility.yul\":1279:1283   */\n  dup3\n    /* \"#utility.yul\":1271:1277   */\n  dup3\n    /* \"#utility.yul\":1251:1284   */\n  tag_37\n  jump\t// in\ntag_62:\n    /* \"#utility.yul\":1161:1290   */\n  swap2\n  swap1\n  pop\n  jump\t// out\n    /* \"#utility.yul\":1296:1604   */\ntag_39:\n    /* \"#utility.yul\":1358:1362   */\n  0x00\n    /* \"#utility.yul\":1448:1466   */\n  0xffffffffffffffff\n    /* \"#utility.yul\":1440:1446   */\n  dup3\n    /* \"#utility.yul\":1437:1467   */\n  gt\n    /* \"#utility.yul\":1434:1490   */\n  iszero\n  tag_64\n  jumpi\n    /* \"#utility.yul\":1470:1488   */\n  tag_65\n  tag_36\n  jump\t// in\ntag_65:\n    /* \"#utility.yul\":1434:1490   */\ntag_64:\n    /* \"#utility.yul\":1508:1537   */\n  tag_66\n    /* \"#utility.yul\":1530:1536   */\n  dup3\n    /* \"#utility.yul\":1508:1537   */\n  tag_35\n  jump\t// in\ntag_66:\n    /* \"#utility.yul\":1500:1537   */\n  swap1\n  pop\n    /* \"#utility.yul\":1592:1596   */\n  0x20\n    /* \"#utility.yul\":1586:1590   */\n  dup2\n    /* \"#utility.yul\":1582:1597   */\n  add\n    /* \"#utility.yul\":1574:1597   */\n  swap1\n  pop\n    /* \"#utility.yul\":1296:1604   */\n  swap2\n  swap1\n  pop\n  jump\t// out\n    /* \"#utility.yul\":1610:1917   */\ntag_40:\n    /* \"#utility.yul\":1678:1679   */\n  0x00\n    /* \"#utility.yul\":1688:1801   */\ntag_68:\n    /* \"#utility.yul\":1702:1708   */\n  dup4\n    /* \"#utility.yul\":1699:1700   */\n  dup2\n    /* \"#utility.yul\":1696:1709   */\n  lt\n    /* \"#utility.yul\":1688:1801   */\n  iszero\n  tag_70\n  jumpi\n    /* \"#utility.yul\":1787:1788   */\n  dup1\n    /* \"#utility.yul\":1782:1785   */\n  dup3\n    /* \"#utility.yul\":1778:1789   */\n  add\n    /* \"#utility.yul\":1772:1790   */\n  mload\n    /* \"#utility.yul\":1768:1769   */\n  dup2\n    /* \"#utility.yul\":1763:1766   */\n  dup5\n    /* \"#utility.yul\":1759:1770   */\n  add\n    /* \"#utility.yul\":1752:1791   */\n  mstore\n    /* \"#utility.yul\":1724:1726   */\n  0x20\n    /* \"#utility.yul\":1721:1722   */\n  dup2\n    /* \"#utility.yul\":1717:1727   */\n  add\n    /* \"#utility.yul\":1712:1727   */\n  swap1\n  pop\n    /* \"#utility.yul\":1688:1801   */\n  jump(tag_68)\ntag_70:\n    /* \"#utility.yul\":1819:1825   */\n  dup4\n    /* \"#utility.yul\":1816:1817   */\n  dup2\n    /* \"#utility.yul\":1813:1826   */\n  gt\n    /* \"#utility.yul\":1810:1911   */\n  iszero\n  tag_71\n  jumpi\n    /* \"#utility.yul\":1899:1900   */\n  0x00\n    /* \"#utility.yul\":1890:1896   */\n  dup5\n    /* \"#utility.yul\":1885:1888   */\n  dup5\n    /* \"#utility.yul\":1881:1897   */\n  add\n    /* \"#utility.yul\":1874:1901   */\n  mstore\n    /* \"#utility.yul\":1810:1911   */\ntag_71:\n    /* \"#utility.yul\":1659:1917   */\n  pop\n    /* \"#utility.yul\":1610:1917   */\n  pop\n  pop\n  pop\n  jump\t// out\n    /* \"#utility.yul\":1923:2344   */\ntag_41:\n    /* \"#utility.yul\":2012:2017   */\n  0x00\n    /* \"#utility.yul\":2037:2103   */\n  tag_73\n    /* \"#utility.yul\":2053:2102   */\n  tag_74\n    /* \"#utility.yul\":2095:2101   */\n  dup5\n    /* \"#utility.yul\":2053:2102   */\n  tag_39\n  jump\t// in\ntag_74:\n    /* \"#utility.yul\":2037:2103   */\n  tag_38\n  jump\t// in\ntag_73:\n    /* \"#utility.yul\":2028:2103   */\n  swap1\n  pop\n    /* \"#utility.yul\":2126:2132   */\n  dup3\n    /* \"#utility.yul\":2119:2124   */\n  dup2\n    /* \"#utility.yul\":2112:2133   */\n  mstore\n    /* \"#utility.yul\":2164:2168   */\n  0x20\n    /* \"#utility.yul\":2157:2162   */\n  dup2\n    /* \"#utility.yul\":2153:2169   */\n  add\n    /* \"#utility.yul\":2202:2205   */\n  dup5\n    /* \"#utility.yul\":2193:2199   */\n  dup5\n    /* \"#utility.yul\":2188:2191   */\n  dup5\n    /* \"#utility.yul\":2184:2200   */\n  add\n    /* \"#utility.yul\":2181:2206   */\n  gt\n    /* \"#utility.yul\":2178:2290   */\n  iszero\n  tag_75\n  jumpi\n    /* \"#utility.yul\":2209:2288   */\n  tag_76\n  tag_34\n  jump\t// in\ntag_76:\n    /* \"#utility.yul\":2178:2290   */\ntag_75:\n    /* \"#utility.yul\":2299:2338   */\n  tag_77\n    /* \"#utility.yul\":2331:2337   */\n  dup5\n    /* \"#utility.yul\":2326:2329   */\n  dup3\n    /* \"#utility.yul\":2321:2324   */\n  dup6\n    /* \"#utility.yul\":2299:2338   */\n  tag_40\n  jump\t// in\ntag_77:\n    /* \"#utility.yul\":2018:2344   */\n  pop\n    /* \"#utility.yul\":1923:2344   */\n  swap4\n  swap3\n  pop\n  pop\n  pop\n  jump\t// out\n    /* \"#utility.yul\":2364:2719   */\ntag_42:\n    /* \"#utility.yul\":2431:2436   */\n  0x00\n    /* \"#utility.yul\":2480:2483   */\n  dup3\n    /* \"#utility.yul\":2473:2477   */\n  0x1f\n    /* \"#utility.yul\":2465:2471   */\n  dup4\n    /* \"#utility.yul\":2461:2478   */\n  add\n    /* \"#utility.yul\":2457:2484   */\n  slt\n    /* \"#utility.yul\":2447:2569   */\n  tag_79\n  jumpi\n    /* \"#utility.yul\":2488:2567   */\n  tag_80\n  tag_33\n  jump\t// in\ntag_80:\n    /* \"#utility.yul\":2447:2569   */\ntag_79:\n    /* \"#utility.yul\":2598:2604   */\n  dup2\n    /* \"#utility.yul\":2592:2605   */\n  mload\n    /* \"#utility.yul\":2623:2713   */\n  tag_81\n    /* \"#utility.yul\":2709:2712   */\n  dup5\n    /* \"#utility.yul\":2701:2707   */\n  dup3\n    /* \"#utility.yul\":2694:2698   */\n  0x20\n    /* \"#utility.yul\":2686:2692   */\n  dup7\n    /* \"#utility.yul\":2682:2699   */\n  add\n    /* \"#utility.yul\":2623:2713   */\n  tag_41\n  jump\t// in\ntag_81:\n    /* \"#utility.yul\":2614:2713   */\n  swap2\n  pop\n    /* \"#utility.yul\":2437:2719   */\n  pop\n    /* \"#utility.yul\":2364:2719   */\n  swap3\n  swap2\n  pop\n  pop\n  jump\t// out\n    /* \"#utility.yul\":2725:2802   */\ntag_43:\n    /* \"#utility.yul\":2762:2769   */\n  0x00\n    /* \"#utility.yul\":2791:2796   */\n  dup2\n    /* \"#utility.yul\":2780:2796   */\n  swap1\n  pop\n    /* \"#utility.yul\":2725:2802   */\n  swap2\n  swap1\n  pop\n  jump\t// out\n    /* \"#utility.yul\":2808:2930   */\ntag_44:\n    /* \"#utility.yul\":2881:2905   */\n  tag_84\n    /* \"#utility.yul\":2899:2904   */\n  dup2\n    /* \"#utility.yul\":2881:2905   */\n  tag_43\n  jump\t// in\ntag_84:\n    /* \"#utility.yul\":2874:2879   */\n  dup2\n    /* \"#utility.yul\":2871:2906   */\n  eq\n    /* \"#utility.yul\":2861:2924   */\n  tag_85\n  jumpi\n    /* \"#utility.yul\":2920:2921   */\n  0x00\n    /* \"#utility.yul\":2917:2918   */\n  dup1\n    /* \"#utility.yul\":2910:2922   */\n  revert\n    /* \"#utility.yul\":2861:2924   */\ntag_85:\n    /* \"#utility.yul\":2808:2930   */\n  pop\n  jump\t// out\n    /* \"#utility.yul\":2936:3079   */\ntag_45:\n    /* \"#utility.yul\":2993:2998   */\n  0x00\n    /* \"#utility.yul\":3024:3030   */\n  dup2\n    /* \"#utility.yul\":3018:3031   */\n  mload\n    /* \"#utility.yul\":3009:3031   */\n  swap1\n  pop\n    /* \"#utility.yul\":3040:3073   */\n  tag_87\n    /* \"#utility.yul\":3067:3072   */\n  dup2\n    /* \"#utility.yul\":3040:3073   */\n  tag_44\n  jump\t// in\ntag_87:\n    /* \"#utility.yul\":2936:3079   */\n  swap3\n  swap2\n  pop\n  pop\n  jump\t// out\n    /* \"#utility.yul\":3085:4408   */\ntag_3:\n    /* \"#utility.yul\":3211:3217   */\n  0x00\n    /* \"#utility.yul\":3219:3225   */\n  dup1\n    /* \"#utility.yul\":3227:3233   */\n  0x00\n    /* \"#utility.yul\":3235:3241   */\n  dup1\n    /* \"#utility.yul\":3243:3249   */\n  0x00\n    /* \"#utility.yul\":3292:3295   */\n  0xa0\n    /* \"#utility.yul\":3280:3289   */\n  dup7\n    /* \"#utility.yul\":3271:3278   */\n  dup9\n    /* \"#utility.yul\":3267:3290   */\n  sub\n    /* \"#utility.yul\":3263:3296   */\n  slt\n    /* \"#utility.yul\":3260:3380   */\n  iszero\n  tag_89\n  jumpi\n    /* \"#utility.yul\":3299:3378   */\n  tag_90\n  tag_31\n  jump\t// in\ntag_90:\n    /* \"#utility.yul\":3260:3380   */\ntag_89:\n    /* \"#utility.yul\":3440:3441   */\n  0x00\n    /* \"#utility.yul\":3429:3438   */\n  dup7\n    /* \"#utility.yul\":3425:3442   */\n  add\n    /* \"#utility.yul\":3419:3443   */\n  mload\n    /* \"#utility.yul\":3470:3488   */\n  0xffffffffffffffff\n    /* \"#utility.yul\":3462:3468   */\n  dup2\n    /* \"#utility.yul\":3459:3489   */\n  gt\n    /* \"#utility.yul\":3456:3573   */\n  iszero\n  tag_91\n  jumpi\n    /* \"#utility.yul\":3492:3571   */\n  tag_92\n  tag_32\n  jump\t// in\ntag_92:\n    /* \"#utility.yul\":3456:3573   */\ntag_91:\n    /* \"#utility.yul\":3597:3671   */\n  tag_93\n    /* \"#utility.yul\":3663:3670   */\n  dup9\n    /* \"#utility.yul\":3654:3660   */\n  dup3\n    /* \"#utility.yul\":3643:3652   */\n  dup10\n    /* \"#utility.yul\":3639:3661   */\n  add\n    /* \"#utility.yul\":3597:3671   */\n  tag_42\n  jump\t// in\ntag_93:\n    /* \"#utility.yul\":3587:3671   */\n  swap6\n  pop\n    /* \"#utility.yul\":3390:3681   */\n  pop\n    /* \"#utility.yul\":3741:3743   */\n  0x20\n    /* \"#utility.yul\":3730:3739   */\n  dup7\n    /* \"#utility.yul\":3726:3744   */\n  add\n    /* \"#utility.yul\":3720:3745   */\n  mload\n    /* \"#utility.yul\":3772:3790   */\n  0xffffffffffffffff\n    /* \"#utility.yul\":3764:3770   */\n  dup2\n    /* \"#utility.yul\":3761:3791   */\n  gt\n    /* \"#utility.yul\":3758:3875   */\n  iszero\n  tag_94\n  jumpi\n    /* \"#utility.yul\":3794:3873   */\n  tag_95\n  tag_32\n  jump\t// in\ntag_95:\n    /* \"#utility.yul\":3758:3875   */\ntag_94:\n    /* \"#utility.yul\":3899:3973   */\n  tag_96\n    /* \"#utility.yul\":3965:3972   */\n  dup9\n    /* \"#utility.yul\":3956:3962   */\n  dup3\n    /* \"#utility.yul\":3945:3954   */\n  dup10\n    /* \"#utility.yul\":3941:3963   */\n  add\n    /* \"#utility.yul\":3899:3973   */\n  tag_42\n  jump\t// in\ntag_96:\n    /* \"#utility.yul\":3889:3973   */\n  swap5\n  pop\n    /* \"#utility.yul\":3691:3983   */\n  pop\n    /* \"#utility.yul\":4022:4024   */\n  0x40\n    /* \"#utility.yul\":4048:4112   */\n  tag_97\n    /* \"#utility.yul\":4104:4111   */\n  dup9\n    /* \"#utility.yul\":4095:4101   */\n  dup3\n    /* \"#utility.yul\":4084:4093   */\n  dup10\n    /* \"#utility.yul\":4080:4102   */\n  add\n    /* \"#utility.yul\":4048:4112   */\n  tag_45\n  jump\t// in\ntag_97:\n    /* \"#utility.yul\":4038:4112   */\n  swap4\n  pop\n    /* \"#utility.yul\":3993:4122   */\n  pop\n    /* \"#utility.yul\":4161:4163   */\n  0x60\n    /* \"#utility.yul\":4187:4251   */\n  tag_98\n    /* \"#utility.yul\":4243:4250   */\n  dup9\n    /* \"#utility.yul\":4234:4240   */\n  dup3\n    /* \"#utility.yul\":4223:4232   */\n  dup10\n    /* \"#utility.yul\":4219:4241   */\n  add\n    /* \"#utility.yul\":4187:4251   */\n  tag_45\n  jump\t// in\ntag_98:\n    /* \"#utility.yul\":4177:4251   */\n  swap3\n  pop\n    /* \"#utility.yul\":4132:4261   */\n  pop\n    /* \"#utility.yul\":4300:4303   */\n  0x80\n    /* \"#utility.yul\":4327:4391   */\n  tag_99\n    /* \"#utility.yul\":4383:4390   */\n  dup9\n    /* \"#utility.yul\":4374:4380   */\n  dup3\n    /* \"#utility.yul\":4363:4372   */\n  dup10\n    /* \"#utility.yul\":4359:4381   */\n  add\n    /* \"#utility.yul\":4327:4391   */\n  tag_45\n  jump\t// in\ntag_99:\n    /* \"#utility.yul\":4317:4391   */\n  swap2\n  pop\n    /* \"#utility.yul\":4271:4401   */\n  pop\n    /* \"#utility.yul\":3085:4408   */\n  swap3\n  swap6\n  pop\n  swap3\n  swap6\n  swap1\n  swap4\n  pop\n  jump\t// out\n    /* \"#utility.yul\":4414:4594   */\ntag_13:\n    /* \"#utility.yul\":4462:4539   */\n  0x4e487b7100000000000000000000000000000000000000000000000000000000\n    /* \"#utility.yul\":4459:4460   */\n  0x00\n    /* \"#utility.yul\":4452:4540   */\n  mstore\n    /* \"#utility.yul\":4559:4563   */\n  0x21\n    /* \"#utility.yul\":4556:4557   */\n  0x04\n    /* \"#utility.yul\":4549:4564   */\n  mstore\n    /* \"#utility.yul\":4583:4587   */\n  0x24\n    /* \"#utility.yul\":4580:4581   */\n  0x00\n    /* \"#utility.yul\":4573:4588   */\n  revert\n    /* \"#utility.yul\":4600:4780   */\ntag_46:\n    /* \"#utility.yul\":4648:4725   */\n  0x4e487b7100000000000000000000000000000000000000000000000000000000\n    /* \"#utility.yul\":4645:4646   */\n  0x00\n    /* \"#utility.yul\":4638:4726   */\n  mstore\n    /* \"#utility.yul\":4745:4749   */\n  0x11\n    /* \"#utility.yul\":4742:4743   */\n  0x04\n    /* \"#utility.yul\":4735:4750   */\n  mstore\n    /* \"#utility.yul\":4769:4773   */\n  0x24\n    /* \"#utility.yul\":4766:4767   */\n  0x00\n    /* \"#utility.yul\":4759:4774   */\n  revert\n    /* \"#utility.yul\":4786:5134   */\ntag_15:\n    /* \"#utility.yul\":4826:4833   */\n  0x00\n    /* \"#utility.yul\":4849:4869   */\n  tag_103\n    /* \"#utility.yul\":4867:4868   */\n  dup3\n    /* \"#utility.yul\":4849:4869   */\n  tag_43\n  jump\t// in\ntag_103:\n    /* \"#utility.yul\":4844:4869   */\n  swap2\n  pop\n    /* \"#utility.yul\":4883:4903   */\n  tag_104\n    /* \"#utility.yul\":4901:4902   */\n  dup4\n    /* \"#utility.yul\":4883:4903   */\n  tag_43\n  jump\t// in\ntag_104:\n    /* \"#utility.yul\":4878:4903   */\n  swap3\n  pop\n    /* \"#utility.yul\":5071:5072   */\n  dup2\n    /* \"#utility.yul\":5003:5069   */\n  0xffffffffffffffffffffffffffffffffffffffffffffffffffffffffffffffff\n    /* \"#utility.yul\":4999:5073   */\n  div\n    /* \"#utility.yul\":4996:4997   */\n  dup4\n    /* \"#utility.yul\":4993:5074   */\n  gt\n    /* \"#utility.yul\":4988:4989   */\n  dup3\n    /* \"#utility.yul\":4981:4990   */\n  iszero\n    /* \"#utility.yul\":4974:4991   */\n  iszero\n    /* \"#utility.yul\":4970:5075   */\n  and\n    /* \"#utility.yul\":4967:5098   */\n  iszero\n  tag_105\n  jumpi\n    /* \"#utility.yul\":5078:5096   */\n  tag_106\n  tag_46\n  jump\t// in\ntag_106:\n    /* \"#utility.yul\":4967:5098   */\ntag_105:\n    /* \"#utility.yul\":5126:5127   */\n  dup3\n    /* \"#utility.yul\":5123:5124   */\n  dup3\n    /* \"#utility.yul\":5119:5128   */\n  mul\n    /* \"#utility.yul\":5108:5128   */\n  swap1\n  pop\n    /* \"#utility.yul\":4786:5134   */\n  swap3\n  swap2\n  pop\n  pop\n  jump\t// out\n    /* \"#utility.yul\":5140:5445   */\ntag_17:\n    /* \"#utility.yul\":5180:5183   */\n  0x00\n    /* \"#utility.yul\":5199:5219   */\n  tag_108\n    /* \"#utility.yul\":5217:5218   */\n  dup3\n    /* \"#utility.yul\":5199:5219   */\n  tag_43\n  jump\t// in\ntag_108:\n    /* \"#utility.yul\":5194:5219   */\n  swap2\n  pop\n    /* \"#utility.yul\":5233:5253   */\n  tag_109\n    /* \"#utility.yul\":5251:5252   */\n  dup4\n    /* \"#utility.yul\":5233:5253   */\n  tag_43\n  jump\t// in\ntag_109:\n    /* \"#utility.yul\":5228:5253   */\n  swap3\n  pop\n    /* \"#utility.yul\":5387:5388   */\n  dup3\n    /* \"#utility.yul\":5319:5385   */\n  0xffffffffffffffffffffffffffffffffffffffffffffffffffffffffffffffff\n    /* \"#utility.yul\":5315:5389   */\n  sub\n    /* \"#utility.yul\":5312:5313   */\n  dup3\n    /* \"#utility.yul\":5309:5390   */\n  gt\n    /* \"#utility.yul\":5306:5413   */\n  iszero\n  tag_110\n  jumpi\n    /* \"#utility.yul\":5393:5411   */\n  tag_111\n  tag_46\n  jump\t// in\ntag_111:\n    /* \"#utility.yul\":5306:5413   */\ntag_110:\n    /* \"#utility.yul\":5437:5438   */\n  dup3\n    /* \"#utility.yul\":5434:5435   */\n  dup3\n    /* \"#utility.yul\":5430:5439   */\n  add\n    /* \"#utility.yul\":5423:5439   */\n  swap1\n  pop\n    /* \"#utility.yul\":5140:5445   */\n  swap3\n  swap2\n  pop\n  pop\n  jump\t// out\n    /* \"#utility.yul\":5451:5631   */\ntag_47:\n    /* \"#utility.yul\":5499:5576   */\n  0x4e487b7100000000000000000000000000000000000000000000000000000000\n    /* \"#utility.yul\":5496:5497   */\n  0x00\n    /* \"#utility.yul\":5489:5577   */\n  mstore\n    /* \"#utility.yul\":5596:5600   */\n  0x22\n    /* \"#utility.yul\":5593:5594   */\n  0x04\n    /* \"#utility.yul\":5586:5601   */\n  mstore\n    /* \"#utility.yul\":5620:5624   */\n  0x24\n    /* \"#utility.yul\":5617:5618   */\n  0x00\n    /* \"#utility.yul\":5610:5625   */\n  revert\n    /* \"#utility.yul\":5637:5957   */\ntag_20:\n    /* \"#utility.yul\":5681:5687   */\n  0x00\n    /* \"#utility.yul\":5718:5719   */\n  0x02\n    /* \"#utility.yul\":5712:5716   */\n  dup3\n    /* \"#utility.yul\":5708:5720   */\n  div\n    /* \"#utility.yul\":5698:5720   */\n  swap1\n  pop\n    /* \"#utility.yul\":5765:5766   */\n  0x01\n    /* \"#utility.yul\":5759:5763   */\n  dup3\n    /* \"#utility.yul\":5755:5767   */\n  and\n    /* \"#utility.yul\":5786:5804   */\n  dup1\n    /* \"#utility.yul\":5776:5857   */\n  tag_114\n  jumpi\n    /* \"#utility.yul\":5842:5846   */\n  0x7f\n    /* \"#utility.yul\":5834:5840   */\n  dup3\n    /* \"#utility.yul\":5830:5847   */\n  and\n    /* \"#utility.yul\":5820:5847   */\n  swap2\n  pop\n    /* \"#utility.yul\":5776:5857   */\ntag_114:\n    /* \"#utility.yul\":5904:5906   */\n  0x20\n    /* \"#utility.yul\":5896:5902   */\n  dup3\n    /* \"#utility.yul\":5893:5907   */\n  lt\n    /* \"#utility.yul\":5873:5891   */\n  dup2\n    /* \"#utility.yul\":5870:5908   */\n  eq\n    /* \"#utility.yul\":5867:5951   */\n  iszero\n  tag_115\n  jumpi\n    /* \"#utility.yul\":5923:5941   */\n  tag_116\n  tag_47\n  jump\t// in\ntag_116:\n    /* \"#utility.yul\":5867:5951   */\ntag_115:\n    /* \"#utility.yul\":5688:5957   */\n  pop\n    /* \"#utility.yul\":5637:5957   */\n  swap2\n  swap1\n  pop\n  jump\t// out\n    /* \"crowdfunding_v1.sol\":72:3430  contract CrowdFunding {... */\ntag_18:\n  mload(0x80)\n  codecopy(0x00, dataOffset(sub_0), dataSize(sub_0))\n  0x00\n  assignImmutable(\"0x7749cc8014201da2069c21d93ba99c584b6f62d393fde534ed47eac227e31561\")\n  return(0x00, dataSize(sub_0))\nstop\n\nsub_0: assembly {\n        /* \"crowdfunding_v1.sol\":72:3430  contract CrowdFunding {... */\n      mstore(0x40, 0x80)\n      jumpi(tag_1, lt(calldatasize, 0x04))\n      shr(0xe0, calldataload(0x00))\n      dup1\n      0xb14d38c2\n      gt\n      tag_21\n      jumpi\n      dup1\n      0xd50fac49\n      gt\n      tag_22\n      jumpi\n      dup1\n      0xd50fac49\n      eq\n      tag_16\n      jumpi\n      dup1\n      0xe348c518\n      eq\n      tag_17\n      jumpi\n      dup1\n      0xe3ce8164\n      eq\n      tag_18\n      jumpi\n      dup1\n      0xe7425109\n      eq\n      tag_19\n      jumpi\n      dup1\n      0xf7a7e57e\n      eq\n      tag_20\n      jumpi\n      jump(tag_2)\n    tag_22:\n      dup1\n      0xb14d38c2\n      eq\n      tag_12\n      jumpi\n      dup1\n      0xb25924c1\n      eq\n      tag_13\n      jumpi\n      dup1\n      0xbbde609a\n      eq\n      tag_14\n      jumpi\n      dup1\n      0xcac9a391\n      eq\n      tag_15\n      jumpi\n      jump(tag_2)\n    tag_21:\n      dup1\n      0x8d1750c5\n      gt\n      tag_23\n      jumpi\n      dup1\n      0x8d1750c5\n      eq\n      tag_7\n      jumpi\n      dup1\n      0x8f75c1fb\n      eq\n      tag_8\n      jumpi\n      dup1\n      0x93a39b2e\n      eq\n      tag_9\n      jumpi\n      dup1\n      0x95df868d\n      eq\n      tag_10\n      jumpi\n      dup1\n      0xa4e58a87\n      eq\n      tag_11\n      jumpi\n      jump(tag_2)\n    tag_23:\n      dup1\n      0x225682d1\n      eq\n      tag_3\n      jumpi\n      dup1\n      0x3deff252\n      eq\n      tag_4\n      jumpi\n      dup1\n      0x7bd82410\n      eq\n      tag_5\n      jumpi\n      dup1\n      0x8b83ba26\n      eq\n      tag_6\n      jumpi\n      jump(tag_2)\n    tag_1:\n      jumpi(tag_2, calldatasize)\n        /* \"crowdfunding_v1.sol\":1842:1854  participar() */\n      tag_26\n        /* \"crowdfunding_v1.sol\":1842:1852  participar */\n      tag_27\n        /* \"crowdfunding_v1.sol\":1842:1854  participar() */\n      jump\t// in\n    tag_26:\n        /* \"crowdfunding_v1.sol\":72:3430  contract CrowdFunding {... */\n      stop\n    tag_2:\n        /* \"crowdfunding_v1.sol\":1908:1920  participar() */\n      tag_30\n        /* \"crowdfunding_v1.sol\":1908:1918  participar */\n      tag_27\n        /* \"crowdfunding_v1.sol\":1908:1920  participar() */\n      jump\t// in\n    tag_30:\n        /* \"crowdfunding_v1.sol\":72:3430  contract CrowdFunding {... */\n      stop\n        /* \"crowdfunding_v1.sol\":3238:3421  function test_contractBalance() public view returns (uint256) {... */\n    tag_3:\n      callvalue\n      dup1\n      iszero\n      tag_31\n      jumpi\n      0x00\n      dup1\n      revert\n    tag_31:\n      pop\n      tag_32\n      tag_33\n      jump\t// in\n    tag_32:\n      mload(0x40)\n      tag_34\n      swap2\n      swap1\n      tag_35\n      jump\t// in\n    tag_34:\n      mload(0x40)\n      dup1\n      swap2\n      sub\n      swap1\n      return\n        /* \"crowdfunding_v1.sol\":196:221  string public campainName */\n    tag_4:\n      callvalue\n      dup1\n      iszero\n      tag_36\n      jumpi\n      0x00\n      dup1\n      revert\n    tag_36:\n      pop\n      tag_37\n      tag_38\n      jump\t// in\n    tag_37:\n      mload(0x40)\n      tag_39\n      swap2\n      swap1\n      tag_40\n      jump\t// in\n    tag_39:\n      mload(0x40)\n      dup1\n      swap2\n      sub\n      swap1\n      return\n        /* \"crowdfunding_v1.sol\":462:497  uint256 public totalParticipaciones */\n    tag_5:\n      callvalue\n      dup1\n      iszero\n      tag_41\n      jumpi\n      0x00\n      dup1\n      revert\n    tag_41:\n      pop\n      tag_42\n      tag_43\n      jump\t// in\n    tag_42:\n      mload(0x40)\n      tag_44\n      swap2\n      swap1\n      tag_35\n      jump\t// in\n    tag_44:\n      mload(0x40)\n      dup1\n      swap2\n      sub\n      swap1\n      return\n        /* \"crowdfunding_v1.sol\":1934:2056  function getUserParticipaciones(address user) public view returns(uint256) {... */\n    tag_6:\n      callvalue\n      dup1\n      iszero\n      tag_45\n      jumpi\n      0x00\n      dup1\n      revert\n    tag_45:\n      pop\n      tag_46\n      0x04\n      dup1\n      calldatasize\n      sub\n      dup2\n      add\n      swap1\n      tag_47\n      swap2\n      swap1\n      tag_48\n      jump\t// in\n    tag_47:\n      tag_49\n      jump\t// in\n    tag_46:\n      mload(0x40)\n      tag_50\n      swap2\n      swap1\n      tag_35\n      jump\t// in\n    tag_50:\n      mload(0x40)\n      dup1\n      swap2\n      sub\n      swap1\n      return\n        /* \"crowdfunding_v1.sol\":264:292  Estado public  campainEstado */\n    tag_7:\n      callvalue\n      dup1\n      iszero\n      tag_51\n      jumpi\n      0x00\n      dup1\n      revert\n    tag_51:\n      pop\n      tag_52\n      tag_53\n      jump\t// in\n    tag_52:\n      mload(0x40)\n      tag_54\n      swap2\n      swap1\n      tag_55\n      jump\t// in\n    tag_54:\n      mload(0x40)\n      dup1\n      swap2\n      sub\n      swap1\n      return\n        /* \"crowdfunding_v1.sol\":155:192  address payable public campainManager */\n    tag_8:\n      callvalue\n      dup1\n      iszero\n      tag_56\n      jumpi\n      0x00\n      dup1\n      revert\n    tag_56:\n      pop\n      tag_57\n      tag_58\n      jump\t// in\n    tag_57:\n      mload(0x40)\n      tag_59\n      swap2\n      swap1\n      tag_60\n      jump\t// in\n    tag_59:\n      mload(0x40)\n      dup1\n      swap2\n      sub\n      swap1\n      return\n        /* \"crowdfunding_v1.sol\":3122:3232  function adminGetFunds() public only_manager {... */\n    tag_9:\n      callvalue\n      dup1\n      iszero\n      tag_61\n      jumpi\n      0x00\n      dup1\n      revert\n    tag_61:\n      pop\n      tag_62\n      tag_63\n      jump\t// in\n    tag_62:\n      stop\n        /* \"crowdfunding_v1.sol\":299:325  uint256 public campainGoal */\n    tag_10:\n      callvalue\n      dup1\n      iszero\n      tag_64\n      jumpi\n      0x00\n      dup1\n      revert\n    tag_64:\n      pop\n      tag_65\n      tag_66\n      jump\t// in\n    tag_65:\n      mload(0x40)\n      tag_67\n      swap2\n      swap1\n      tag_35\n      jump\t// in\n    tag_67:\n      mload(0x40)\n      dup1\n      swap2\n      sub\n      swap1\n      return\n        /* \"crowdfunding_v1.sol\":2732:3116  function withdrawCanceledCampain() public {... */\n    tag_11:\n      callvalue\n      dup1\n      iszero\n      tag_68\n      jumpi\n      0x00\n      dup1\n      revert\n    tag_68:\n      pop\n      tag_69\n      tag_70\n      jump\t// in\n    tag_69:\n      stop\n        /* \"crowdfunding_v1.sol\":2287:2719  function finalizarCampain() public  {... */\n    tag_12:\n      callvalue\n      dup1\n      iszero\n      tag_71\n      jumpi\n      0x00\n      dup1\n      revert\n    tag_71:\n      pop\n      tag_72\n      tag_73\n      jump\t// in\n    tag_72:\n      stop\n        /* \"crowdfunding_v1.sol\":425:455  address[] public participantes */\n    tag_13:\n      callvalue\n      dup1\n      iszero\n      tag_74\n      jumpi\n      0x00\n      dup1\n      revert\n    tag_74:\n      pop\n      tag_75\n      0x04\n      dup1\n      calldatasize\n      sub\n      dup2\n      add\n      swap1\n      tag_76\n      swap2\n      swap1\n      tag_77\n      jump\t// in\n    tag_76:\n      tag_78\n      jump\t// in\n    tag_75:\n      mload(0x40)\n      tag_79\n      swap2\n      swap1\n      tag_80\n      jump\t// in\n    tag_79:\n      mload(0x40)\n      dup1\n      swap2\n      sub\n      swap1\n      return\n        /* \"crowdfunding_v1.sol\":368:418  mapping(address => uint256) public participaciones */\n    tag_14:\n      callvalue\n      dup1\n      iszero\n      tag_81\n      jumpi\n      0x00\n      dup1\n      revert\n    tag_81:\n      pop\n      tag_82\n      0x04\n      dup1\n      calldatasize\n      sub\n      dup2\n      add\n      swap1\n      tag_83\n      swap2\n      swap1\n      tag_48\n      jump\t// in\n    tag_83:\n      tag_84\n      jump\t// in\n    tag_82:\n      mload(0x40)\n      tag_85\n      swap2\n      swap1\n      tag_35\n      jump\t// in\n    tag_85:\n      mload(0x40)\n      dup1\n      swap2\n      sub\n      swap1\n      return\n        /* \"crowdfunding_v1.sol\":2176:2281  function getParticipantes() public view returns(address[] memory) {... */\n    tag_15:\n      callvalue\n      dup1\n      iszero\n      tag_86\n      jumpi\n      0x00\n      dup1\n      revert\n    tag_86:\n      pop\n      tag_87\n      tag_88\n      jump\t// in\n    tag_87:\n      mload(0x40)\n      tag_89\n      swap2\n      swap1\n      tag_90\n      jump\t// in\n    tag_89:\n      mload(0x40)\n      dup1\n      swap2\n      sub\n      swap1\n      return\n        /* \"crowdfunding_v1.sol\":1221:1797  function participar() public payable {... */\n    tag_16:\n      tag_91\n      tag_27\n      jump\t// in\n    tag_91:\n      stop\n        /* \"crowdfunding_v1.sol\":329:361  uint256 public participationRate */\n    tag_17:\n      callvalue\n      dup1\n      iszero\n      tag_92\n      jumpi\n      0x00\n      dup1\n      revert\n    tag_92:\n      pop\n      tag_93\n      tag_94\n      jump\t// in\n    tag_93:\n      mload(0x40)\n      tag_95\n      swap2\n      swap1\n      tag_35\n      jump\t// in\n    tag_95:\n      mload(0x40)\n      dup1\n      swap2\n      sub\n      swap1\n      return\n        /* \"crowdfunding_v1.sol\":2062:2170  function getTotalParticipantes() public view returns(uint256) {... */\n    tag_18:\n      callvalue\n      dup1\n      iszero\n      tag_96\n      jumpi\n      0x00\n      dup1\n      revert\n    tag_96:\n      pop\n      tag_97\n      tag_98\n      jump\t// in\n    tag_97:\n      mload(0x40)\n      tag_99\n      swap2\n      swap1\n      tag_35\n      jump\t// in\n    tag_99:\n      mload(0x40)\n      dup1\n      swap2\n      sub\n      swap1\n      return\n        /* \"crowdfunding_v1.sol\":225:257  string public campainDescription */\n    tag_19:\n      callvalue\n      dup1\n      iszero\n      tag_100\n      jumpi\n      0x00\n      dup1\n      revert\n    tag_100:\n      pop\n      tag_101\n      tag_102\n      jump\t// in\n    tag_101:\n      mload(0x40)\n      tag_103\n      swap2\n      swap1\n      tag_40\n      jump\t// in\n    tag_103:\n      mload(0x40)\n      dup1\n      swap2\n      sub\n      swap1\n      return\n        /* \"crowdfunding_v1.sol\":504:542  uint immutable public CAMPANIN_DUEDATE */\n    tag_20:\n      callvalue\n      dup1\n      iszero\n      tag_104\n      jumpi\n      0x00\n      dup1\n      revert\n    tag_104:\n      pop\n      tag_105\n      tag_106\n      jump\t// in\n    tag_105:\n      mload(0x40)\n      tag_107\n      swap2\n      swap1\n      tag_35\n      jump\t// in\n    tag_107:\n      mload(0x40)\n      dup1\n      swap2\n      sub\n      swap1\n      return\n        /* \"crowdfunding_v1.sol\":1221:1797  function participar() public payable {... */\n    tag_27:\n        /* \"crowdfunding_v1.sol\":1290:1307  participationRate */\n      sload(0x05)\n        /* \"crowdfunding_v1.sol\":1277:1286  msg.value */\n      callvalue\n        /* \"crowdfunding_v1.sol\":1277:1307  msg.value >= participationRate */\n      lt\n      iszero\n        /* \"crowdfunding_v1.sol\":1269:1346  require(msg.value >= participationRate, \"Participacion minima no alcanzada\" ) */\n      tag_109\n      jumpi\n      mload(0x40)\n      0x08c379a000000000000000000000000000000000000000000000000000000000\n      dup2\n      mstore\n      0x04\n      add\n      tag_110\n      swap1\n      tag_111\n      jump\t// in\n    tag_110:\n      mload(0x40)\n      dup1\n      swap2\n      sub\n      swap1\n      revert\n    tag_109:\n        /* \"crowdfunding_v1.sol\":1382:1396  Estado.Abierta */\n      0x00\n        /* \"crowdfunding_v1.sol\":1365:1396  campainEstado == Estado.Abierta */\n      0x02\n      dup2\n      gt\n      iszero\n      tag_112\n      jumpi\n      tag_113\n      tag_114\n      jump\t// in\n    tag_113:\n    tag_112:\n        /* \"crowdfunding_v1.sol\":1365:1378  campainEstado */\n      0x03\n      0x00\n      swap1\n      sload\n      swap1\n      0x0100\n      exp\n      swap1\n      div\n      0xff\n      and\n        /* \"crowdfunding_v1.sol\":1365:1396  campainEstado == Estado.Abierta */\n      0x02\n      dup2\n      gt\n      iszero\n      tag_115\n      jumpi\n      tag_116\n      tag_114\n      jump\t// in\n    tag_116:\n    tag_115:\n      eq\n        /* \"crowdfunding_v1.sol\":1357:1430  require(campainEstado == Estado.Abierta,\"Finalizado plazo participacion\") */\n      tag_117\n      jumpi\n      mload(0x40)\n      0x08c379a000000000000000000000000000000000000000000000000000000000\n      dup2\n      mstore\n      0x04\n      add\n      tag_118\n      swap1\n      tag_119\n      jump\t// in\n    tag_118:\n      mload(0x40)\n      dup1\n      swap2\n      sub\n      swap1\n      revert\n    tag_117:\n        /* \"crowdfunding_v1.sol\":1475:1476  0 */\n      0x00\n        /* \"crowdfunding_v1.sol\":1444:1459  participaciones */\n      0x06\n        /* \"crowdfunding_v1.sol\":1444:1471  participaciones[msg.sender] */\n      0x00\n        /* \"crowdfunding_v1.sol\":1460:1470  msg.sender */\n      caller\n        /* \"crowdfunding_v1.sol\":1444:1471  participaciones[msg.sender] */\n      0xffffffffffffffffffffffffffffffffffffffff\n      and\n      0xffffffffffffffffffffffffffffffffffffffff\n      and\n      dup2\n      mstore\n      0x20\n      add\n      swap1\n      dup2\n      mstore\n      0x20\n      add\n      0x00\n      keccak256\n      sload\n        /* \"crowdfunding_v1.sol\":1444:1476  participaciones[msg.sender] == 0 */\n      eq\n        /* \"crowdfunding_v1.sol\":1441:1557  if(participaciones[msg.sender] == 0) {  //nuevo participante... */\n      iszero\n      tag_120\n      jumpi\n        /* \"crowdfunding_v1.sol\":1515:1528  participantes */\n      0x07\n        /* \"crowdfunding_v1.sol\":1534:1544  msg.sender */\n      caller\n        /* \"crowdfunding_v1.sol\":1515:1545  participantes.push(msg.sender) */\n      swap1\n      dup1\n      0x01\n      dup2\n      sload\n      add\n      dup1\n      dup3\n      sstore\n      dup1\n      swap2\n      pop\n      pop\n      0x01\n      swap1\n      sub\n      swap1\n      0x00\n      mstore\n      keccak256(0x00, 0x20)\n      add\n      0x00\n      swap1\n      swap2\n      swap1\n      swap2\n      swap1\n      swap2\n      0x0100\n      exp\n      dup2\n      sload\n      dup2\n      0xffffffffffffffffffffffffffffffffffffffff\n      mul\n      not\n      and\n      swap1\n      dup4\n      0xffffffffffffffffffffffffffffffffffffffff\n      and\n      mul\n      or\n      swap1\n      sstore\n      pop\n        /* \"crowdfunding_v1.sol\":1441:1557  if(participaciones[msg.sender] == 0) {  //nuevo participante... */\n    tag_120:\n        /* \"crowdfunding_v1.sol\":1567:1593  uint256 newParticipaciones */\n      0x00\n        /* \"crowdfunding_v1.sol\":1608:1625  participationRate */\n      sload(0x05)\n        /* \"crowdfunding_v1.sol\":1596:1605  msg.value */\n      callvalue\n        /* \"crowdfunding_v1.sol\":1596:1625  msg.value / participationRate */\n      tag_122\n      swap2\n      swap1\n      tag_123\n      jump\t// in\n    tag_122:\n        /* \"crowdfunding_v1.sol\":1567:1625  uint256 newParticipaciones = msg.value / participationRate */\n      swap1\n      pop\n        /* \"crowdfunding_v1.sol\":1697:1715  newParticipaciones */\n      dup1\n        /* \"crowdfunding_v1.sol\":1667:1682  participaciones */\n      0x06\n        /* \"crowdfunding_v1.sol\":1667:1694  participaciones[msg.sender] */\n      0x00\n        /* \"crowdfunding_v1.sol\":1683:1693  msg.sender */\n      caller\n        /* \"crowdfunding_v1.sol\":1667:1694  participaciones[msg.sender] */\n      0xffffffffffffffffffffffffffffffffffffffff\n      and\n      0xffffffffffffffffffffffffffffffffffffffff\n      and\n      dup2\n      mstore\n      0x20\n      add\n      swap1\n      dup2\n      mstore\n      0x20\n      add\n      0x00\n      keccak256\n      sload\n        /* \"crowdfunding_v1.sol\":1667:1715  participaciones[msg.sender] + newParticipaciones */\n      tag_124\n      swap2\n      swap1\n      tag_125\n      jump\t// in\n    tag_124:\n        /* \"crowdfunding_v1.sol\":1636:1651  participaciones */\n      0x06\n        /* \"crowdfunding_v1.sol\":1636:1663  participaciones[msg.sender] */\n      0x00\n        /* \"crowdfunding_v1.sol\":1652:1662  msg.sender */\n      caller\n        /* \"crowdfunding_v1.sol\":1636:1663  participaciones[msg.sender] */\n      0xffffffffffffffffffffffffffffffffffffffff\n      and\n      0xffffffffffffffffffffffffffffffffffffffff\n      and\n      dup2\n      mstore\n      0x20\n      add\n      swap1\n      dup2\n      mstore\n      0x20\n      add\n      0x00\n      keccak256\n        /* \"crowdfunding_v1.sol\":1636:1715  participaciones[msg.sender] =  participaciones[msg.sender] + newParticipaciones */\n      dup2\n      swap1\n      sstore\n      pop\n        /* \"crowdfunding_v1.sol\":1771:1789  newParticipaciones */\n      dup1\n        /* \"crowdfunding_v1.sol\":1749:1769  totalParticipaciones */\n      sload(0x08)\n        /* \"crowdfunding_v1.sol\":1749:1789  totalParticipaciones +newParticipaciones */\n      tag_126\n      swap2\n      swap1\n      tag_125\n      jump\t// in\n    tag_126:\n        /* \"crowdfunding_v1.sol\":1726:1746  totalParticipaciones */\n      0x08\n        /* \"crowdfunding_v1.sol\":1726:1789  totalParticipaciones = totalParticipaciones +newParticipaciones */\n      dup2\n      swap1\n      sstore\n      pop\n        /* \"crowdfunding_v1.sol\":1258:1797  {... */\n      pop\n        /* \"crowdfunding_v1.sol\":1221:1797  function participar() public payable {... */\n      jump\t// out\n        /* \"crowdfunding_v1.sol\":3238:3421  function test_contractBalance() public view returns (uint256) {... */\n    tag_33:\n        /* \"crowdfunding_v1.sol\":3291:3298  uint256 */\n      0x00\n        /* \"crowdfunding_v1.sol\":3392:3413  address(this).balance */\n      selfbalance\n        /* \"crowdfunding_v1.sol\":3385:3413  return address(this).balance */\n      swap1\n      pop\n        /* \"crowdfunding_v1.sol\":3238:3421  function test_contractBalance() public view returns (uint256) {... */\n      swap1\n      jump\t// out\n        /* \"crowdfunding_v1.sol\":196:221  string public campainName */\n    tag_38:\n      0x01\n      dup1\n      sload\n      tag_128\n      swap1\n      tag_129\n      jump\t// in\n    tag_128:\n      dup1\n      0x1f\n      add\n      0x20\n      dup1\n      swap2\n      div\n      mul\n      0x20\n      add\n      mload(0x40)\n      swap1\n      dup2\n      add\n      0x40\n      mstore\n      dup1\n      swap3\n      swap2\n      swap1\n      dup2\n      dup2\n      mstore\n      0x20\n      add\n      dup3\n      dup1\n      sload\n      tag_130\n      swap1\n      tag_129\n      jump\t// in\n    tag_130:\n      dup1\n      iszero\n      tag_131\n      jumpi\n      dup1\n      0x1f\n      lt\n      tag_132\n      jumpi\n      0x0100\n      dup1\n      dup4\n      sload\n      div\n      mul\n      dup4\n      mstore\n      swap2\n      0x20\n      add\n      swap2\n      jump(tag_131)\n    tag_132:\n      dup3\n      add\n      swap2\n      swap1\n      0x00\n      mstore\n      keccak256(0x00, 0x20)\n      swap1\n    tag_133:\n      dup2\n      sload\n      dup2\n      mstore\n      swap1\n      0x01\n      add\n      swap1\n      0x20\n      add\n      dup1\n      dup4\n      gt\n      tag_133\n      jumpi\n      dup3\n      swap1\n      sub\n      0x1f\n      and\n      dup3\n      add\n      swap2\n    tag_131:\n      pop\n      pop\n      pop\n      pop\n      pop\n      dup2\n      jump\t// out\n        /* \"crowdfunding_v1.sol\":462:497  uint256 public totalParticipaciones */\n    tag_43:\n      sload(0x08)\n      dup2\n      jump\t// out\n        /* \"crowdfunding_v1.sol\":1934:2056  function getUserParticipaciones(address user) public view returns(uint256) {... */\n    tag_49:\n        /* \"crowdfunding_v1.sol\":2000:2007  uint256 */\n      0x00\n        /* \"crowdfunding_v1.sol\":2027:2042  participaciones */\n      0x06\n        /* \"crowdfunding_v1.sol\":2027:2048  participaciones[user] */\n      0x00\n        /* \"crowdfunding_v1.sol\":2043:2047  user */\n      dup4\n        /* \"crowdfunding_v1.sol\":2027:2048  participaciones[user] */\n      0xffffffffffffffffffffffffffffffffffffffff\n      and\n      0xffffffffffffffffffffffffffffffffffffffff\n      and\n      dup2\n      mstore\n      0x20\n      add\n      swap1\n      dup2\n      mstore\n      0x20\n      add\n      0x00\n      keccak256\n      sload\n        /* \"crowdfunding_v1.sol\":2020:2048  return participaciones[user] */\n      swap1\n      pop\n        /* \"crowdfunding_v1.sol\":1934:2056  function getUserParticipaciones(address user) public view returns(uint256) {... */\n      swap2\n      swap1\n      pop\n      jump\t// out\n        /* \"crowdfunding_v1.sol\":264:292  Estado public  campainEstado */\n    tag_53:\n      0x03\n      0x00\n      swap1\n      sload\n      swap1\n      0x0100\n      exp\n      swap1\n      div\n      0xff\n      and\n      dup2\n      jump\t// out\n        /* \"crowdfunding_v1.sol\":155:192  address payable public campainManager */\n    tag_58:\n      0x00\n      dup1\n      sload\n      swap1\n      0x0100\n      exp\n      swap1\n      div\n      0xffffffffffffffffffffffffffffffffffffffff\n      and\n      dup2\n      jump\t// out\n        /* \"crowdfunding_v1.sol\":3122:3232  function adminGetFunds() public only_manager {... */\n    tag_63:\n        /* \"crowdfunding_v1.sol\":616:626  msg.sender */\n      caller\n        /* \"crowdfunding_v1.sol\":598:626  campainManager == msg.sender */\n      0xffffffffffffffffffffffffffffffffffffffff\n      and\n        /* \"crowdfunding_v1.sol\":598:612  campainManager */\n      0x00\n      dup1\n      sload\n      swap1\n      0x0100\n      exp\n      swap1\n      div\n      0xffffffffffffffffffffffffffffffffffffffff\n      and\n        /* \"crowdfunding_v1.sol\":598:626  campainManager == msg.sender */\n      0xffffffffffffffffffffffffffffffffffffffff\n      and\n      eq\n        /* \"crowdfunding_v1.sol\":590:650  require(campainManager == msg.sender,\"Only Campain manager\") */\n      tag_136\n      jumpi\n      mload(0x40)\n      0x08c379a000000000000000000000000000000000000000000000000000000000\n      dup2\n      mstore\n      0x04\n      add\n      tag_137\n      swap1\n      tag_138\n      jump\t// in\n    tag_137:\n      mload(0x40)\n      dup1\n      swap2\n      sub\n      swap1\n      revert\n    tag_136:\n        /* \"crowdfunding_v1.sol\":3178:3192  campainManager */\n      0x00\n      dup1\n      sload\n      swap1\n      0x0100\n      exp\n      swap1\n      div\n      0xffffffffffffffffffffffffffffffffffffffff\n      and\n        /* \"crowdfunding_v1.sol\":3178:3201  campainManager.transfer */\n      0xffffffffffffffffffffffffffffffffffffffff\n      and\n        /* \"crowdfunding_v1.sol\":3178:3224  campainManager.transfer(address(this).balance) */\n      0x08fc\n        /* \"crowdfunding_v1.sol\":3202:3223  address(this).balance */\n      selfbalance\n        /* \"crowdfunding_v1.sol\":3178:3224  campainManager.transfer(address(this).balance) */\n      swap1\n      dup2\n      iszero\n      mul\n      swap1\n      mload(0x40)\n      0x00\n      mload(0x40)\n      dup1\n      dup4\n      sub\n      dup2\n      dup6\n      dup9\n      dup9\n      call\n      swap4\n      pop\n      pop\n      pop\n      pop\n      iszero\n      dup1\n      iszero\n      tag_141\n      jumpi\n      returndatasize\n      0x00\n      dup1\n      returndatacopy\n      revert(0x00, returndatasize)\n    tag_141:\n      pop\n        /* \"crowdfunding_v1.sol\":3122:3232  function adminGetFunds() public only_manager {... */\n      jump\t// out\n        /* \"crowdfunding_v1.sol\":299:325  uint256 public campainGoal */\n    tag_66:\n      sload(0x04)\n      dup2\n      jump\t// out\n        /* \"crowdfunding_v1.sol\":2732:3116  function withdrawCanceledCampain() public {... */\n    tag_70:\n        /* \"crowdfunding_v1.sol\":2823:2824  0 */\n      0x00\n        /* \"crowdfunding_v1.sol\":2793:2808  participaciones */\n      0x06\n        /* \"crowdfunding_v1.sol\":2793:2820  participaciones[msg.sender] */\n      0x00\n        /* \"crowdfunding_v1.sol\":2809:2819  msg.sender */\n      caller\n        /* \"crowdfunding_v1.sol\":2793:2820  participaciones[msg.sender] */\n      0xffffffffffffffffffffffffffffffffffffffff\n      and\n      0xffffffffffffffffffffffffffffffffffffffff\n      and\n      dup2\n      mstore\n      0x20\n      add\n      swap1\n      dup2\n      mstore\n      0x20\n      add\n      0x00\n      keccak256\n      sload\n        /* \"crowdfunding_v1.sol\":2793:2824  participaciones[msg.sender] > 0 */\n      gt\n        /* \"crowdfunding_v1.sol\":2785:2845  require(participaciones[msg.sender] > 0, \"fondos retirados\") */\n      tag_143\n      jumpi\n      mload(0x40)\n      0x08c379a000000000000000000000000000000000000000000000000000000000\n      dup2\n      mstore\n      0x04\n      add\n      tag_144\n      swap1\n      tag_145\n      jump\t// in\n    tag_144:\n      mload(0x40)\n      dup1\n      swap2\n      sub\n      swap1\n      revert\n    tag_143:\n        /* \"crowdfunding_v1.sol\":2881:2897  Estado.Cancelada */\n      0x01\n        /* \"crowdfunding_v1.sol\":2864:2897  campainEstado == Estado.Cancelada */\n      0x02\n      dup2\n      gt\n      iszero\n      tag_146\n      jumpi\n      tag_147\n      tag_114\n      jump\t// in\n    tag_147:\n    tag_146:\n        /* \"crowdfunding_v1.sol\":2864:2877  campainEstado */\n      0x03\n      0x00\n      swap1\n      sload\n      swap1\n      0x0100\n      exp\n      swap1\n      div\n      0xff\n      and\n        /* \"crowdfunding_v1.sol\":2864:2897  campainEstado == Estado.Cancelada */\n      0x02\n      dup2\n      gt\n      iszero\n      tag_148\n      jumpi\n      tag_149\n      tag_114\n      jump\t// in\n    tag_149:\n    tag_148:\n      eq\n        /* \"crowdfunding_v1.sol\":2856:2922  require(campainEstado == Estado.Cancelada,\"Campanya no cancelada\") */\n      tag_150\n      jumpi\n      mload(0x40)\n      0x08c379a000000000000000000000000000000000000000000000000000000000\n      dup2\n      mstore\n      0x04\n      add\n      tag_151\n      swap1\n      tag_152\n      jump\t// in\n    tag_151:\n      mload(0x40)\n      dup1\n      swap2\n      sub\n      swap1\n      revert\n    tag_150:\n        /* \"crowdfunding_v1.sol\":2933:2958  uint256 aportacionUsuario */\n      0x00\n        /* \"crowdfunding_v1.sol\":2991:3008  participationRate */\n      sload(0x05)\n        /* \"crowdfunding_v1.sol\":2961:2976  participaciones */\n      0x06\n        /* \"crowdfunding_v1.sol\":2961:2988  participaciones[msg.sender] */\n      0x00\n        /* \"crowdfunding_v1.sol\":2977:2987  msg.sender */\n      caller\n        /* \"crowdfunding_v1.sol\":2961:2988  participaciones[msg.sender] */\n      0xffffffffffffffffffffffffffffffffffffffff\n      and\n      0xffffffffffffffffffffffffffffffffffffffff\n      and\n      dup2\n      mstore\n      0x20\n      add\n      swap1\n      dup2\n      mstore\n      0x20\n      add\n      0x00\n      keccak256\n      sload\n        /* \"crowdfunding_v1.sol\":2961:3008  participaciones[msg.sender] * participationRate */\n      tag_153\n      swap2\n      swap1\n      tag_154\n      jump\t// in\n    tag_153:\n        /* \"crowdfunding_v1.sol\":2933:3008  uint256 aportacionUsuario = participaciones[msg.sender] * participationRate */\n      swap1\n      pop\n        /* \"crowdfunding_v1.sol\":3049:3050  0 */\n      0x00\n        /* \"crowdfunding_v1.sol\":3019:3034  participaciones */\n      0x06\n        /* \"crowdfunding_v1.sol\":3019:3046  participaciones[msg.sender] */\n      0x00\n        /* \"crowdfunding_v1.sol\":3035:3045  msg.sender */\n      caller\n        /* \"crowdfunding_v1.sol\":3019:3046  participaciones[msg.sender] */\n      0xffffffffffffffffffffffffffffffffffffffff\n      and\n      0xffffffffffffffffffffffffffffffffffffffff\n      and\n      dup2\n      mstore\n      0x20\n      add\n      swap1\n      dup2\n      mstore\n      0x20\n      add\n      0x00\n      keccak256\n        /* \"crowdfunding_v1.sol\":3019:3050  participaciones[msg.sender] = 0 */\n      dup2\n      swap1\n      sstore\n      pop\n        /* \"crowdfunding_v1.sol\":3069:3079  msg.sender */\n      caller\n        /* \"crowdfunding_v1.sol\":3061:3089  payable(msg.sender).transfer */\n      0xffffffffffffffffffffffffffffffffffffffff\n      and\n        /* \"crowdfunding_v1.sol\":3061:3108  payable(msg.sender).transfer(aportacionUsuario) */\n      0x08fc\n        /* \"crowdfunding_v1.sol\":3090:3107  aportacionUsuario */\n      dup3\n        /* \"crowdfunding_v1.sol\":3061:3108  payable(msg.sender).transfer(aportacionUsuario) */\n      swap1\n      dup2\n      iszero\n      mul\n      swap1\n      mload(0x40)\n      0x00\n      mload(0x40)\n      dup1\n      dup4\n      sub\n      dup2\n      dup6\n      dup9\n      dup9\n      call\n      swap4\n      pop\n      pop\n      pop\n      pop\n      iszero\n      dup1\n      iszero\n      tag_156\n      jumpi\n      returndatasize\n      0x00\n      dup1\n      returndatacopy\n      revert(0x00, returndatasize)\n    tag_156:\n      pop\n        /* \"crowdfunding_v1.sol\":2774:3116  {... */\n      pop\n        /* \"crowdfunding_v1.sol\":2732:3116  function withdrawCanceledCampain() public {... */\n      jump\t// out\n        /* \"crowdfunding_v1.sol\":2287:2719  function finalizarCampain() public  {... */\n    tag_73:\n        /* \"crowdfunding_v1.sol\":2359:2373  Estado.Abierta */\n      0x00\n        /* \"crowdfunding_v1.sol\":2342:2373  campainEstado == Estado.Abierta */\n      0x02\n      dup2\n      gt\n      iszero\n      tag_158\n      jumpi\n      tag_159\n      tag_114\n      jump\t// in\n    tag_159:\n    tag_158:\n        /* \"crowdfunding_v1.sol\":2342:2355  campainEstado */\n      0x03\n      0x00\n      swap1\n      sload\n      swap1\n      0x0100\n      exp\n      swap1\n      div\n      0xff\n      and\n        /* \"crowdfunding_v1.sol\":2342:2373  campainEstado == Estado.Abierta */\n      0x02\n      dup2\n      gt\n      iszero\n      tag_160\n      jumpi\n      tag_161\n      tag_114\n      jump\t// in\n    tag_161:\n    tag_160:\n      eq\n        /* \"crowdfunding_v1.sol\":2334:2396  require(campainEstado == Estado.Abierta,\"Campanya no abierta\") */\n      tag_162\n      jumpi\n      mload(0x40)\n      0x08c379a000000000000000000000000000000000000000000000000000000000\n      dup2\n      mstore\n      0x04\n      add\n      tag_163\n      swap1\n      tag_164\n      jump\t// in\n    tag_163:\n      mload(0x40)\n      dup1\n      swap2\n      sub\n      swap1\n      revert\n    tag_162:\n        /* \"crowdfunding_v1.sol\":2424:2438  campainManager */\n      0x00\n      dup1\n      sload\n      swap1\n      0x0100\n      exp\n      swap1\n      div\n      0xffffffffffffffffffffffffffffffffffffffff\n      and\n        /* \"crowdfunding_v1.sol\":2410:2438  msg.sender != campainManager */\n      0xffffffffffffffffffffffffffffffffffffffff\n      and\n        /* \"crowdfunding_v1.sol\":2410:2420  msg.sender */\n      caller\n        /* \"crowdfunding_v1.sol\":2410:2438  msg.sender != campainManager */\n      0xffffffffffffffffffffffffffffffffffffffff\n      and\n      eq\n        /* \"crowdfunding_v1.sol\":2407:2539  if(msg.sender != campainManager) {... */\n      tag_165\n      jumpi\n        /* \"crowdfunding_v1.sol\":2483:2499  CAMPANIN_DUEDATE */\n      immutable(\"0x7749cc8014201da2069c21d93ba99c584b6f62d393fde534ed47eac227e31561\")\n        /* \"crowdfunding_v1.sol\":2463:2478  block.timestamp */\n      timestamp\n        /* \"crowdfunding_v1.sol\":2463:2499  block.timestamp >=  CAMPANIN_DUEDATE */\n      lt\n      iszero\n        /* \"crowdfunding_v1.sol\":2455:2527  require(block.timestamp >=  CAMPANIN_DUEDATE, \"Campain is not over yet\") */\n      tag_166\n      jumpi\n      mload(0x40)\n      0x08c379a000000000000000000000000000000000000000000000000000000000\n      dup2\n      mstore\n      0x04\n      add\n      tag_167\n      swap1\n      tag_168\n      jump\t// in\n    tag_167:\n      mload(0x40)\n      dup1\n      swap2\n      sub\n      swap1\n      revert\n    tag_166:\n        /* \"crowdfunding_v1.sol\":2407:2539  if(msg.sender != campainManager) {... */\n    tag_165:\n        /* \"crowdfunding_v1.sol\":2569:2590  address(this).balance */\n      selfbalance\n        /* \"crowdfunding_v1.sol\":2554:2565  campainGoal */\n      sload(0x04)\n        /* \"crowdfunding_v1.sol\":2554:2590  campainGoal <= address(this).balance */\n      gt\n        /* \"crowdfunding_v1.sol\":2551:2712  if(campainGoal <= address(this).balance) {... */\n      tag_169\n      jumpi\n        /* \"crowdfunding_v1.sol\":2623:2636  Estado.Activa */\n      0x02\n        /* \"crowdfunding_v1.sol\":2607:2620  campainEstado */\n      0x03\n      0x00\n        /* \"crowdfunding_v1.sol\":2607:2636  campainEstado = Estado.Activa */\n      0x0100\n      exp\n      dup2\n      sload\n      dup2\n      0xff\n      mul\n      not\n      and\n      swap1\n      dup4\n      0x02\n      dup2\n      gt\n      iszero\n      tag_170\n      jumpi\n      tag_171\n      tag_114\n      jump\t// in\n    tag_171:\n    tag_170:\n      mul\n      or\n      swap1\n      sstore\n      pop\n        /* \"crowdfunding_v1.sol\":2551:2712  if(campainGoal <= address(this).balance) {... */\n      jump(tag_172)\n    tag_169:\n        /* \"crowdfunding_v1.sol\":2684:2700  Estado.Cancelada */\n      0x01\n        /* \"crowdfunding_v1.sol\":2668:2681  campainEstado */\n      0x03\n      0x00\n        /* \"crowdfunding_v1.sol\":2668:2700  campainEstado = Estado.Cancelada */\n      0x0100\n      exp\n      dup2\n      sload\n      dup2\n      0xff\n      mul\n      not\n      and\n      swap1\n      dup4\n      0x02\n      dup2\n      gt\n      iszero\n      tag_173\n      jumpi\n      tag_174\n      tag_114\n      jump\t// in\n    tag_174:\n    tag_173:\n      mul\n      or\n      swap1\n      sstore\n      pop\n        /* \"crowdfunding_v1.sol\":2551:2712  if(campainGoal <= address(this).balance) {... */\n    tag_172:\n        /* \"crowdfunding_v1.sol\":2287:2719  function finalizarCampain() public  {... */\n      jump\t// out\n        /* \"crowdfunding_v1.sol\":425:455  address[] public participantes */\n    tag_78:\n      0x07\n      dup2\n      dup2\n      sload\n      dup2\n      lt\n      tag_175\n      jumpi\n      0x00\n      dup1\n      revert\n    tag_175:\n      swap1\n      0x00\n      mstore\n      keccak256(0x00, 0x20)\n      add\n      0x00\n      swap2\n      pop\n      sload\n      swap1\n      0x0100\n      exp\n      swap1\n      div\n      0xffffffffffffffffffffffffffffffffffffffff\n      and\n      dup2\n      jump\t// out\n        /* \"crowdfunding_v1.sol\":368:418  mapping(address => uint256) public participaciones */\n    tag_84:\n      mstore(0x20, 0x06)\n      dup1\n      0x00\n      mstore\n      keccak256(0x00, 0x40)\n      0x00\n      swap2\n      pop\n      swap1\n      pop\n      sload\n      dup2\n      jump\t// out\n        /* \"crowdfunding_v1.sol\":2176:2281  function getParticipantes() public view returns(address[] memory) {... */\n    tag_88:\n        /* \"crowdfunding_v1.sol\":2224:2240  address[] memory */\n      0x60\n        /* \"crowdfunding_v1.sol\":2260:2273  participantes */\n      0x07\n        /* \"crowdfunding_v1.sol\":2253:2273  return participantes */\n      dup1\n      sload\n      dup1\n      0x20\n      mul\n      0x20\n      add\n      mload(0x40)\n      swap1\n      dup2\n      add\n      0x40\n      mstore\n      dup1\n      swap3\n      swap2\n      swap1\n      dup2\n      dup2\n      mstore\n      0x20\n      add\n      dup3\n      dup1\n      sload\n      dup1\n      iszero\n      tag_178\n      jumpi\n      0x20\n      mul\n      dup3\n      add\n      swap2\n      swap1\n      0x00\n      mstore\n      keccak256(0x00, 0x20)\n      swap1\n    tag_179:\n      dup2\n      0x00\n      swap1\n      sload\n      swap1\n      0x0100\n      exp\n      swap1\n      div\n      0xffffffffffffffffffffffffffffffffffffffff\n      and\n      0xffffffffffffffffffffffffffffffffffffffff\n      and\n      dup2\n      mstore\n      0x20\n      add\n      swap1\n      0x01\n      add\n      swap1\n      dup1\n      dup4\n      gt\n      tag_179\n      jumpi\n    tag_178:\n      pop\n      pop\n      pop\n      pop\n      pop\n      swap1\n      pop\n        /* \"crowdfunding_v1.sol\":2176:2281  function getParticipantes() public view returns(address[] memory) {... */\n      swap1\n      jump\t// out\n        /* \"crowdfunding_v1.sol\":329:361  uint256 public participationRate */\n    tag_94:\n      sload(0x05)\n      dup2\n      jump\t// out\n        /* \"crowdfunding_v1.sol\":2062:2170  function getTotalParticipantes() public view returns(uint256) {... */\n    tag_98:\n        /* \"crowdfunding_v1.sol\":2115:2122  uint256 */\n      0x00\n        /* \"crowdfunding_v1.sol\":2142:2155  participantes */\n      0x07\n        /* \"crowdfunding_v1.sol\":2142:2162  participantes.length */\n      dup1\n      sload\n      swap1\n      pop\n        /* \"crowdfunding_v1.sol\":2135:2162  return participantes.length */\n      swap1\n      pop\n        /* \"crowdfunding_v1.sol\":2062:2170  function getTotalParticipantes() public view returns(uint256) {... */\n      swap1\n      jump\t// out\n        /* \"crowdfunding_v1.sol\":225:257  string public campainDescription */\n    tag_102:\n      0x02\n      dup1\n      sload\n      tag_181\n      swap1\n      tag_129\n      jump\t// in\n    tag_181:\n      dup1\n      0x1f\n      add\n      0x20\n      dup1\n      swap2\n      div\n      mul\n      0x20\n      add\n      mload(0x40)\n      swap1\n      dup2\n      add\n      0x40\n      mstore\n      dup1\n      swap3\n      swap2\n      swap1\n      dup2\n      dup2\n      mstore\n      0x20\n      add\n      dup3\n      dup1\n      sload\n      tag_182\n      swap1\n      tag_129\n      jump\t// in\n    tag_182:\n      dup1\n      iszero\n      tag_183\n      jumpi\n      dup1\n      0x1f\n      lt\n      tag_184\n      jumpi\n      0x0100\n      dup1\n      dup4\n      sload\n      div\n      mul\n      dup4\n      mstore\n      swap2\n      0x20\n      add\n      swap2\n      jump(tag_183)\n    tag_184:\n      dup3\n      add\n      swap2\n      swap1\n      0x00\n      mstore\n      keccak256(0x00, 0x20)\n      swap1\n    tag_185:\n      dup2\n      sload\n      dup2\n      mstore\n      swap1\n      0x01\n      add\n      swap1\n      0x20\n      add\n      dup1\n      dup4\n      gt\n      tag_185\n      jumpi\n      dup3\n      swap1\n      sub\n      0x1f\n      and\n      dup3\n      add\n      swap2\n    tag_183:\n      pop\n      pop\n      pop\n      pop\n      pop\n      dup2\n      jump\t// out\n        /* \"crowdfunding_v1.sol\":504:542  uint immutable public CAMPANIN_DUEDATE */\n    tag_106:\n      immutable(\"0x7749cc8014201da2069c21d93ba99c584b6f62d393fde534ed47eac227e31561\")\n      dup2\n      jump\t// out\n        /* \"#utility.yul\":7:84   */\n    tag_186:\n        /* \"#utility.yul\":44:51   */\n      0x00\n        /* \"#utility.yul\":73:78   */\n      dup2\n        /* \"#utility.yul\":62:78   */\n      swap1\n      pop\n        /* \"#utility.yul\":7:84   */\n      swap2\n      swap1\n      pop\n      jump\t// out\n        /* \"#utility.yul\":90:208   */\n    tag_187:\n        /* \"#utility.yul\":177:201   */\n      tag_236\n        /* \"#utility.yul\":195:200   */\n      dup2\n        /* \"#utility.yul\":177:201   */\n      tag_186\n      jump\t// in\n    tag_236:\n        /* \"#utility.yul\":172:175   */\n      dup3\n        /* \"#utility.yul\":165:202   */\n      mstore\n        /* \"#utility.yul\":90:208   */\n      pop\n      pop\n      jump\t// out\n        /* \"#utility.yul\":214:436   */\n    tag_35:\n        /* \"#utility.yul\":307:311   */\n      0x00\n        /* \"#utility.yul\":345:347   */\n      0x20\n        /* \"#utility.yul\":334:343   */\n      dup3\n        /* \"#utility.yul\":330:348   */\n      add\n        /* \"#utility.yul\":322:348   */\n      swap1\n      pop\n        /* \"#utility.yul\":358:429   */\n      tag_238\n        /* \"#utility.yul\":426:427   */\n      0x00\n        /* \"#utility.yul\":415:424   */\n      dup4\n        /* \"#utility.yul\":411:428   */\n      add\n        /* \"#utility.yul\":402:408   */\n      dup5\n        /* \"#utility.yul\":358:429   */\n      tag_187\n      jump\t// in\n    tag_238:\n        /* \"#utility.yul\":214:436   */\n      swap3\n      swap2\n      pop\n      pop\n      jump\t// out\n        /* \"#utility.yul\":442:541   */\n    tag_188:\n        /* \"#utility.yul\":494:500   */\n      0x00\n        /* \"#utility.yul\":528:533   */\n      dup2\n        /* \"#utility.yul\":522:534   */\n      mload\n        /* \"#utility.yul\":512:534   */\n      swap1\n      pop\n        /* \"#utility.yul\":442:541   */\n      swap2\n      swap1\n      pop\n      jump\t// out\n        /* \"#utility.yul\":547:716   */\n    tag_189:\n        /* \"#utility.yul\":631:642   */\n      0x00\n        /* \"#utility.yul\":665:671   */\n      dup3\n        /* \"#utility.yul\":660:663   */\n      dup3\n        /* \"#utility.yul\":653:672   */\n      mstore\n        /* \"#utility.yul\":705:709   */\n      0x20\n        /* \"#utility.yul\":700:703   */\n      dup3\n        /* \"#utility.yul\":696:710   */\n      add\n        /* \"#utility.yul\":681:710   */\n      swap1\n      pop\n        /* \"#utility.yul\":547:716   */\n      swap3\n      swap2\n      pop\n      pop\n      jump\t// out\n        /* \"#utility.yul\":722:1029   */\n    tag_190:\n        /* \"#utility.yul\":790:791   */\n      0x00\n        /* \"#utility.yul\":800:913   */\n    tag_242:\n        /* \"#utility.yul\":814:820   */\n      dup4\n        /* \"#utility.yul\":811:812   */\n      dup2\n        /* \"#utility.yul\":808:821   */\n      lt\n        /* \"#utility.yul\":800:913   */\n      iszero\n      tag_244\n      jumpi\n        /* \"#utility.yul\":899:900   */\n      dup1\n        /* \"#utility.yul\":894:897   */\n      dup3\n        /* \"#utility.yul\":890:901   */\n      add\n        /* \"#utility.yul\":884:902   */\n      mload\n        /* \"#utility.yul\":880:881   */\n      dup2\n        /* \"#utility.yul\":875:878   */\n      dup5\n        /* \"#utility.yul\":871:882   */\n      add\n        /* \"#utility.yul\":864:903   */\n      mstore\n        /* \"#utility.yul\":836:838   */\n      0x20\n        /* \"#utility.yul\":833:834   */\n      dup2\n        /* \"#utility.yul\":829:839   */\n      add\n        /* \"#utility.yul\":824:839   */\n      swap1\n      pop\n        /* \"#utility.yul\":800:913   */\n      jump(tag_242)\n    tag_244:\n        /* \"#utility.yul\":931:937   */\n      dup4\n        /* \"#utility.yul\":928:929   */\n      dup2\n        /* \"#utility.yul\":925:938   */\n      gt\n        /* \"#utility.yul\":922:1023   */\n      iszero\n      tag_245\n      jumpi\n        /* \"#utility.yul\":1011:1012   */\n      0x00\n        /* \"#utility.yul\":1002:1008   */\n      dup5\n        /* \"#utility.yul\":997:1000   */\n      dup5\n        /* \"#utility.yul\":993:1009   */\n      add\n        /* \"#utility.yul\":986:1013   */\n      mstore\n        /* \"#utility.yul\":922:1023   */\n    tag_245:\n        /* \"#utility.yul\":771:1029   */\n      pop\n        /* \"#utility.yul\":722:1029   */\n      pop\n      pop\n      pop\n      jump\t// out\n        /* \"#utility.yul\":1035:1137   */\n    tag_191:\n        /* \"#utility.yul\":1076:1082   */\n      0x00\n        /* \"#utility.yul\":1127:1129   */\n      0x1f\n        /* \"#utility.yul\":1123:1130   */\n      not\n        /* \"#utility.yul\":1118:1120   */\n      0x1f\n        /* \"#utility.yul\":1111:1116   */\n      dup4\n        /* \"#utility.yul\":1107:1121   */\n      add\n        /* \"#utility.yul\":1103:1131   */\n      and\n        /* \"#utility.yul\":1093:1131   */\n      swap1\n      pop\n        /* \"#utility.yul\":1035:1137   */\n      swap2\n      swap1\n      pop\n      jump\t// out\n        /* \"#utility.yul\":1143:1507   */\n    tag_192:\n        /* \"#utility.yul\":1231:1234   */\n      0x00\n        /* \"#utility.yul\":1259:1298   */\n      tag_248\n        /* \"#utility.yul\":1292:1297   */\n      dup3\n        /* \"#utility.yul\":1259:1298   */\n      tag_188\n      jump\t// in\n    tag_248:\n        /* \"#utility.yul\":1314:1385   */\n      tag_249\n        /* \"#utility.yul\":1378:1384   */\n      dup2\n        /* \"#utility.yul\":1373:1376   */\n      dup6\n        /* \"#utility.yul\":1314:1385   */\n      tag_189\n      jump\t// in\n    tag_249:\n        /* \"#utility.yul\":1307:1385   */\n      swap4\n      pop\n        /* \"#utility.yul\":1394:1446   */\n      tag_250\n        /* \"#utility.yul\":1439:1445   */\n      dup2\n        /* \"#utility.yul\":1434:1437   */\n      dup6\n        /* \"#utility.yul\":1427:1431   */\n      0x20\n        /* \"#utility.yul\":1420:1425   */\n      dup7\n        /* \"#utility.yul\":1416:1432   */\n      add\n        /* \"#utility.yul\":1394:1446   */\n      tag_190\n      jump\t// in\n    tag_250:\n        /* \"#utility.yul\":1471:1500   */\n      tag_251\n        /* \"#utility.yul\":1493:1499   */\n      dup2\n        /* \"#utility.yul\":1471:1500   */\n      tag_191\n      jump\t// in\n    tag_251:\n        /* \"#utility.yul\":1466:1469   */\n      dup5\n        /* \"#utility.yul\":1462:1501   */\n      add\n        /* \"#utility.yul\":1455:1501   */\n      swap2\n      pop\n        /* \"#utility.yul\":1235:1507   */\n      pop\n        /* \"#utility.yul\":1143:1507   */\n      swap3\n      swap2\n      pop\n      pop\n      jump\t// out\n        /* \"#utility.yul\":1513:1826   */\n    tag_40:\n        /* \"#utility.yul\":1626:1630   */\n      0x00\n        /* \"#utility.yul\":1664:1666   */\n      0x20\n        /* \"#utility.yul\":1653:1662   */\n      dup3\n        /* \"#utility.yul\":1649:1667   */\n      add\n        /* \"#utility.yul\":1641:1667   */\n      swap1\n      pop\n        /* \"#utility.yul\":1713:1722   */\n      dup2\n        /* \"#utility.yul\":1707:1711   */\n      dup2\n        /* \"#utility.yul\":1703:1723   */\n      sub\n        /* \"#utility.yul\":1699:1700   */\n      0x00\n        /* \"#utility.yul\":1688:1697   */\n      dup4\n        /* \"#utility.yul\":1684:1701   */\n      add\n        /* \"#utility.yul\":1677:1724   */\n      mstore\n        /* \"#utility.yul\":1741:1819   */\n      tag_253\n        /* \"#utility.yul\":1814:1818   */\n      dup2\n        /* \"#utility.yul\":1805:1811   */\n      dup5\n        /* \"#utility.yul\":1741:1819   */\n      tag_192\n      jump\t// in\n    tag_253:\n        /* \"#utility.yul\":1733:1819   */\n      swap1\n      pop\n        /* \"#utility.yul\":1513:1826   */\n      swap3\n      swap2\n      pop\n      pop\n      jump\t// out\n        /* \"#utility.yul\":1913:2030   */\n    tag_194:\n        /* \"#utility.yul\":2022:2023   */\n      0x00\n        /* \"#utility.yul\":2019:2020   */\n      dup1\n        /* \"#utility.yul\":2012:2024   */\n      revert\n        /* \"#utility.yul\":2159:2285   */\n    tag_196:\n        /* \"#utility.yul\":2196:2203   */\n      0x00\n        /* \"#utility.yul\":2236:2278   */\n      0xffffffffffffffffffffffffffffffffffffffff\n        /* \"#utility.yul\":2229:2234   */\n      dup3\n        /* \"#utility.yul\":2225:2279   */\n      and\n        /* \"#utility.yul\":2214:2279   */\n      swap1\n      pop\n        /* \"#utility.yul\":2159:2285   */\n      swap2\n      swap1\n      pop\n      jump\t// out\n        /* \"#utility.yul\":2291:2387   */\n    tag_197:\n        /* \"#utility.yul\":2328:2335   */\n      0x00\n        /* \"#utility.yul\":2357:2381   */\n      tag_259\n        /* \"#utility.yul\":2375:2380   */\n      dup3\n        /* \"#utility.yul\":2357:2381   */\n      tag_196\n      jump\t// in\n    tag_259:\n        /* \"#utility.yul\":2346:2381   */\n      swap1\n      pop\n        /* \"#utility.yul\":2291:2387   */\n      swap2\n      swap1\n      pop\n      jump\t// out\n        /* \"#utility.yul\":2393:2515   */\n    tag_198:\n        /* \"#utility.yul\":2466:2490   */\n      tag_261\n        /* \"#utility.yul\":2484:2489   */\n      dup2\n        /* \"#utility.yul\":2466:2490   */\n      tag_197\n      jump\t// in\n    tag_261:\n        /* \"#utility.yul\":2459:2464   */\n      dup2\n        /* \"#utility.yul\":2456:2491   */\n      eq\n        /* \"#utility.yul\":2446:2509   */\n      tag_262\n      jumpi\n        /* \"#utility.yul\":2505:2506   */\n      0x00\n        /* \"#utility.yul\":2502:2503   */\n      dup1\n        /* \"#utility.yul\":2495:2507   */\n      revert\n        /* \"#utility.yul\":2446:2509   */\n    tag_262:\n        /* \"#utility.yul\":2393:2515   */\n      pop\n      jump\t// out\n        /* \"#utility.yul\":2521:2660   */\n    tag_199:\n        /* \"#utility.yul\":2567:2572   */\n      0x00\n        /* \"#utility.yul\":2605:2611   */\n      dup2\n        /* \"#utility.yul\":2592:2612   */\n      calldataload\n        /* \"#utility.yul\":2583:2612   */\n      swap1\n      pop\n        /* \"#utility.yul\":2621:2654   */\n      tag_264\n        /* \"#utility.yul\":2648:2653   */\n      dup2\n        /* \"#utility.yul\":2621:2654   */\n      tag_198\n      jump\t// in\n    tag_264:\n        /* \"#utility.yul\":2521:2660   */\n      swap3\n      swap2\n      pop\n      pop\n      jump\t// out\n        /* \"#utility.yul\":2666:2995   */\n    tag_48:\n        /* \"#utility.yul\":2725:2731   */\n      0x00\n        /* \"#utility.yul\":2774:2776   */\n      0x20\n        /* \"#utility.yul\":2762:2771   */\n      dup3\n        /* \"#utility.yul\":2753:2760   */\n      dup5\n        /* \"#utility.yul\":2749:2772   */\n      sub\n        /* \"#utility.yul\":2745:2777   */\n      slt\n        /* \"#utility.yul\":2742:2861   */\n      iszero\n      tag_266\n      jumpi\n        /* \"#utility.yul\":2780:2859   */\n      tag_267\n      tag_194\n      jump\t// in\n    tag_267:\n        /* \"#utility.yul\":2742:2861   */\n    tag_266:\n        /* \"#utility.yul\":2900:2901   */\n      0x00\n        /* \"#utility.yul\":2925:2978   */\n      tag_268\n        /* \"#utility.yul\":2970:2977   */\n      dup5\n        /* \"#utility.yul\":2961:2967   */\n      dup3\n        /* \"#utility.yul\":2950:2959   */\n      dup6\n        /* \"#utility.yul\":2946:2968   */\n      add\n        /* \"#utility.yul\":2925:2978   */\n      tag_199\n      jump\t// in\n    tag_268:\n        /* \"#utility.yul\":2915:2978   */\n      swap2\n      pop\n        /* \"#utility.yul\":2871:2988   */\n      pop\n        /* \"#utility.yul\":2666:2995   */\n      swap3\n      swap2\n      pop\n      pop\n      jump\t// out\n        /* \"#utility.yul\":3001:3181   */\n    tag_114:\n        /* \"#utility.yul\":3049:3126   */\n      0x4e487b7100000000000000000000000000000000000000000000000000000000\n        /* \"#utility.yul\":3046:3047   */\n      0x00\n        /* \"#utility.yul\":3039:3127   */\n      mstore\n        /* \"#utility.yul\":3146:3150   */\n      0x21\n        /* \"#utility.yul\":3143:3144   */\n      0x04\n        /* \"#utility.yul\":3136:3151   */\n      mstore\n        /* \"#utility.yul\":3170:3174   */\n      0x24\n        /* \"#utility.yul\":3167:3168   */\n      0x00\n        /* \"#utility.yul\":3160:3175   */\n      revert\n        /* \"#utility.yul\":3187:3300   */\n    tag_200:\n        /* \"#utility.yul\":3268:3269   */\n      0x03\n        /* \"#utility.yul\":3261:3266   */\n      dup2\n        /* \"#utility.yul\":3258:3270   */\n      lt\n        /* \"#utility.yul\":3248:3294   */\n      tag_271\n      jumpi\n        /* \"#utility.yul\":3274:3292   */\n      tag_272\n      tag_114\n      jump\t// in\n    tag_272:\n        /* \"#utility.yul\":3248:3294   */\n    tag_271:\n        /* \"#utility.yul\":3187:3300   */\n      pop\n      jump\t// out\n        /* \"#utility.yul\":3306:3433   */\n    tag_201:\n        /* \"#utility.yul\":3351:3358   */\n      0x00\n        /* \"#utility.yul\":3380:3385   */\n      dup2\n        /* \"#utility.yul\":3369:3385   */\n      swap1\n      pop\n        /* \"#utility.yul\":3386:3427   */\n      tag_274\n        /* \"#utility.yul\":3421:3426   */\n      dup3\n        /* \"#utility.yul\":3386:3427   */\n      tag_200\n      jump\t// in\n    tag_274:\n        /* \"#utility.yul\":3306:3433   */\n      swap2\n      swap1\n      pop\n      jump\t// out\n        /* \"#utility.yul\":3439:3566   */\n    tag_202:\n        /* \"#utility.yul\":3495:3504   */\n      0x00\n        /* \"#utility.yul\":3528:3560   */\n      tag_276\n        /* \"#utility.yul\":3554:3559   */\n      dup3\n        /* \"#utility.yul\":3528:3560   */\n      tag_201\n      jump\t// in\n    tag_276:\n        /* \"#utility.yul\":3515:3560   */\n      swap1\n      pop\n        /* \"#utility.yul\":3439:3566   */\n      swap2\n      swap1\n      pop\n      jump\t// out\n        /* \"#utility.yul\":3572:3715   */\n    tag_203:\n        /* \"#utility.yul\":3665:3708   */\n      tag_278\n        /* \"#utility.yul\":3702:3707   */\n      dup2\n        /* \"#utility.yul\":3665:3708   */\n      tag_202\n      jump\t// in\n    tag_278:\n        /* \"#utility.yul\":3660:3663   */\n      dup3\n        /* \"#utility.yul\":3653:3709   */\n      mstore\n        /* \"#utility.yul\":3572:3715   */\n      pop\n      pop\n      jump\t// out\n        /* \"#utility.yul\":3721:3955   */\n    tag_55:\n        /* \"#utility.yul\":3820:3824   */\n      0x00\n        /* \"#utility.yul\":3858:3860   */\n      0x20\n        /* \"#utility.yul\":3847:3856   */\n      dup3\n        /* \"#utility.yul\":3843:3861   */\n      add\n        /* \"#utility.yul\":3835:3861   */\n      swap1\n      pop\n        /* \"#utility.yul\":3871:3948   */\n      tag_280\n        /* \"#utility.yul\":3945:3946   */\n      0x00\n        /* \"#utility.yul\":3934:3943   */\n      dup4\n        /* \"#utility.yul\":3930:3947   */\n      add\n        /* \"#utility.yul\":3921:3927   */\n      dup5\n        /* \"#utility.yul\":3871:3948   */\n      tag_203\n      jump\t// in\n    tag_280:\n        /* \"#utility.yul\":3721:3955   */\n      swap3\n      swap2\n      pop\n      pop\n      jump\t// out\n        /* \"#utility.yul\":3961:4065   */\n    tag_204:\n        /* \"#utility.yul\":4006:4013   */\n      0x00\n        /* \"#utility.yul\":4035:4059   */\n      tag_282\n        /* \"#utility.yul\":4053:4058   */\n      dup3\n        /* \"#utility.yul\":4035:4059   */\n      tag_196\n      jump\t// in\n    tag_282:\n        /* \"#utility.yul\":4024:4059   */\n      swap1\n      pop\n        /* \"#utility.yul\":3961:4065   */\n      swap2\n      swap1\n      pop\n      jump\t// out\n        /* \"#utility.yul\":4071:4213   */\n    tag_205:\n        /* \"#utility.yul\":4174:4206   */\n      tag_284\n        /* \"#utility.yul\":4200:4205   */\n      dup2\n        /* \"#utility.yul\":4174:4206   */\n      tag_204\n      jump\t// in\n    tag_284:\n        /* \"#utility.yul\":4169:4172   */\n      dup3\n        /* \"#utility.yul\":4162:4207   */\n      mstore\n        /* \"#utility.yul\":4071:4213   */\n      pop\n      pop\n      jump\t// out\n        /* \"#utility.yul\":4219:4473   */\n    tag_60:\n        /* \"#utility.yul\":4328:4332   */\n      0x00\n        /* \"#utility.yul\":4366:4368   */\n      0x20\n        /* \"#utility.yul\":4355:4364   */\n      dup3\n        /* \"#utility.yul\":4351:4369   */\n      add\n        /* \"#utility.yul\":4343:4369   */\n      swap1\n      pop\n        /* \"#utility.yul\":4379:4466   */\n      tag_286\n        /* \"#utility.yul\":4463:4464   */\n      0x00\n        /* \"#utility.yul\":4452:4461   */\n      dup4\n        /* \"#utility.yul\":4448:4465   */\n      add\n        /* \"#utility.yul\":4439:4445   */\n      dup5\n        /* \"#utility.yul\":4379:4466   */\n      tag_205\n      jump\t// in\n    tag_286:\n        /* \"#utility.yul\":4219:4473   */\n      swap3\n      swap2\n      pop\n      pop\n      jump\t// out\n        /* \"#utility.yul\":4479:4601   */\n    tag_206:\n        /* \"#utility.yul\":4552:4576   */\n      tag_288\n        /* \"#utility.yul\":4570:4575   */\n      dup2\n        /* \"#utility.yul\":4552:4576   */\n      tag_186\n      jump\t// in\n    tag_288:\n        /* \"#utility.yul\":4545:4550   */\n      dup2\n        /* \"#utility.yul\":4542:4577   */\n      eq\n        /* \"#utility.yul\":4532:4595   */\n      tag_289\n      jumpi\n        /* \"#utility.yul\":4591:4592   */\n      0x00\n        /* \"#utility.yul\":4588:4589   */\n      dup1\n        /* \"#utility.yul\":4581:4593   */\n      revert\n        /* \"#utility.yul\":4532:4595   */\n    tag_289:\n        /* \"#utility.yul\":4479:4601   */\n      pop\n      jump\t// out\n        /* \"#utility.yul\":4607:4746   */\n    tag_207:\n        /* \"#utility.yul\":4653:4658   */\n      0x00\n        /* \"#utility.yul\":4691:4697   */\n      dup2\n        /* \"#utility.yul\":4678:4698   */\n      calldataload\n        /* \"#utility.yul\":4669:4698   */\n      swap1\n      pop\n        /* \"#utility.yul\":4707:4740   */\n      tag_291\n        /* \"#utility.yul\":4734:4739   */\n      dup2\n        /* \"#utility.yul\":4707:4740   */\n      tag_206\n      jump\t// in\n    tag_291:\n        /* \"#utility.yul\":4607:4746   */\n      swap3\n      swap2\n      pop\n      pop\n      jump\t// out\n        /* \"#utility.yul\":4752:5081   */\n    tag_77:\n        /* \"#utility.yul\":4811:4817   */\n      0x00\n        /* \"#utility.yul\":4860:4862   */\n      0x20\n        /* \"#utility.yul\":4848:4857   */\n      dup3\n        /* \"#utility.yul\":4839:4846   */\n      dup5\n        /* \"#utility.yul\":4835:4858   */\n      sub\n        /* \"#utility.yul\":4831:4863   */\n      slt\n        /* \"#utility.yul\":4828:4947   */\n      iszero\n      tag_293\n      jumpi\n        /* \"#utility.yul\":4866:4945   */\n      tag_294\n      tag_194\n      jump\t// in\n    tag_294:\n        /* \"#utility.yul\":4828:4947   */\n    tag_293:\n        /* \"#utility.yul\":4986:4987   */\n      0x00\n        /* \"#utility.yul\":5011:5064   */\n      tag_295\n        /* \"#utility.yul\":5056:5063   */\n      dup5\n        /* \"#utility.yul\":5047:5053   */\n      dup3\n        /* \"#utility.yul\":5036:5045   */\n      dup6\n        /* \"#utility.yul\":5032:5054   */\n      add\n        /* \"#utility.yul\":5011:5064   */\n      tag_207\n      jump\t// in\n    tag_295:\n        /* \"#utility.yul\":5001:5064   */\n      swap2\n      pop\n        /* \"#utility.yul\":4957:5074   */\n      pop\n        /* \"#utility.yul\":4752:5081   */\n      swap3\n      swap2\n      pop\n      pop\n      jump\t// out\n        /* \"#utility.yul\":5087:5205   */\n    tag_208:\n        /* \"#utility.yul\":5174:5198   */\n      tag_297\n        /* \"#utility.yul\":5192:5197   */\n      dup2\n        /* \"#utility.yul\":5174:5198   */\n      tag_197\n      jump\t// in\n    tag_297:\n        /* \"#utility.yul\":5169:5172   */\n      dup3\n        /* \"#utility.yul\":5162:5199   */\n      mstore\n        /* \"#utility.yul\":5087:5205   */\n      pop\n      pop\n      jump\t// out\n        /* \"#utility.yul\":5211:5433   */\n    tag_80:\n        /* \"#utility.yul\":5304:5308   */\n      0x00\n        /* \"#utility.yul\":5342:5344   */\n      0x20\n        /* \"#utility.yul\":5331:5340   */\n      dup3\n        /* \"#utility.yul\":5327:5345   */\n      add\n        /* \"#utility.yul\":5319:5345   */\n      swap1\n      pop\n        /* \"#utility.yul\":5355:5426   */\n      tag_299\n        /* \"#utility.yul\":5423:5424   */\n      0x00\n        /* \"#utility.yul\":5412:5421   */\n      dup4\n        /* \"#utility.yul\":5408:5425   */\n      add\n        /* \"#utility.yul\":5399:5405   */\n      dup5\n        /* \"#utility.yul\":5355:5426   */\n      tag_208\n      jump\t// in\n    tag_299:\n        /* \"#utility.yul\":5211:5433   */\n      swap3\n      swap2\n      pop\n      pop\n      jump\t// out\n        /* \"#utility.yul\":5439:5553   */\n    tag_209:\n        /* \"#utility.yul\":5506:5512   */\n      0x00\n        /* \"#utility.yul\":5540:5545   */\n      dup2\n        /* \"#utility.yul\":5534:5546   */\n      mload\n        /* \"#utility.yul\":5524:5546   */\n      swap1\n      pop\n        /* \"#utility.yul\":5439:5553   */\n      swap2\n      swap1\n      pop\n      jump\t// out\n        /* \"#utility.yul\":5559:5743   */\n    tag_210:\n        /* \"#utility.yul\":5658:5669   */\n      0x00\n        /* \"#utility.yul\":5692:5698   */\n      dup3\n        /* \"#utility.yul\":5687:5690   */\n      dup3\n        /* \"#utility.yul\":5680:5699   */\n      mstore\n        /* \"#utility.yul\":5732:5736   */\n      0x20\n        /* \"#utility.yul\":5727:5730   */\n      dup3\n        /* \"#utility.yul\":5723:5737   */\n      add\n        /* \"#utility.yul\":5708:5737   */\n      swap1\n      pop\n        /* \"#utility.yul\":5559:5743   */\n      swap3\n      swap2\n      pop\n      pop\n      jump\t// out\n        /* \"#utility.yul\":5749:5881   */\n    tag_211:\n        /* \"#utility.yul\":5816:5820   */\n      0x00\n        /* \"#utility.yul\":5839:5842   */\n      dup2\n        /* \"#utility.yul\":5831:5842   */\n      swap1\n      pop\n        /* \"#utility.yul\":5869:5873   */\n      0x20\n        /* \"#utility.yul\":5864:5867   */\n      dup3\n        /* \"#utility.yul\":5860:5874   */\n      add\n        /* \"#utility.yul\":5852:5874   */\n      swap1\n      pop\n        /* \"#utility.yul\":5749:5881   */\n      swap2\n      swap1\n      pop\n      jump\t// out\n        /* \"#utility.yul\":5887:5995   */\n    tag_212:\n        /* \"#utility.yul\":5964:5988   */\n      tag_304\n        /* \"#utility.yul\":5982:5987   */\n      dup2\n        /* \"#utility.yul\":5964:5988   */\n      tag_197\n      jump\t// in\n    tag_304:\n        /* \"#utility.yul\":5959:5962   */\n      dup3\n        /* \"#utility.yul\":5952:5989   */\n      mstore\n        /* \"#utility.yul\":5887:5995   */\n      pop\n      pop\n      jump\t// out\n        /* \"#utility.yul\":6001:6180   */\n    tag_213:\n        /* \"#utility.yul\":6070:6080   */\n      0x00\n        /* \"#utility.yul\":6091:6137   */\n      tag_306\n        /* \"#utility.yul\":6133:6136   */\n      dup4\n        /* \"#utility.yul\":6125:6131   */\n      dup4\n        /* \"#utility.yul\":6091:6137   */\n      tag_212\n      jump\t// in\n    tag_306:\n        /* \"#utility.yul\":6169:6173   */\n      0x20\n        /* \"#utility.yul\":6164:6167   */\n      dup4\n        /* \"#utility.yul\":6160:6174   */\n      add\n        /* \"#utility.yul\":6146:6174   */\n      swap1\n      pop\n        /* \"#utility.yul\":6001:6180   */\n      swap3\n      swap2\n      pop\n      pop\n      jump\t// out\n        /* \"#utility.yul\":6186:6299   */\n    tag_214:\n        /* \"#utility.yul\":6256:6260   */\n      0x00\n        /* \"#utility.yul\":6288:6292   */\n      0x20\n        /* \"#utility.yul\":6283:6286   */\n      dup3\n        /* \"#utility.yul\":6279:6293   */\n      add\n        /* \"#utility.yul\":6271:6293   */\n      swap1\n      pop\n        /* \"#utility.yul\":6186:6299   */\n      swap2\n      swap1\n      pop\n      jump\t// out\n        /* \"#utility.yul\":6335:7067   */\n    tag_215:\n        /* \"#utility.yul\":6454:6457   */\n      0x00\n        /* \"#utility.yul\":6483:6537   */\n      tag_309\n        /* \"#utility.yul\":6531:6536   */\n      dup3\n        /* \"#utility.yul\":6483:6537   */\n      tag_209\n      jump\t// in\n    tag_309:\n        /* \"#utility.yul\":6553:6639   */\n      tag_310\n        /* \"#utility.yul\":6632:6638   */\n      dup2\n        /* \"#utility.yul\":6627:6630   */\n      dup6\n        /* \"#utility.yul\":6553:6639   */\n      tag_210\n      jump\t// in\n    tag_310:\n        /* \"#utility.yul\":6546:6639   */\n      swap4\n      pop\n        /* \"#utility.yul\":6663:6719   */\n      tag_311\n        /* \"#utility.yul\":6713:6718   */\n      dup4\n        /* \"#utility.yul\":6663:6719   */\n      tag_211\n      jump\t// in\n    tag_311:\n        /* \"#utility.yul\":6742:6749   */\n      dup1\n        /* \"#utility.yul\":6773:6774   */\n      0x00\n        /* \"#utility.yul\":6758:7042   */\n    tag_312:\n        /* \"#utility.yul\":6783:6789   */\n      dup4\n        /* \"#utility.yul\":6780:6781   */\n      dup2\n        /* \"#utility.yul\":6777:6790   */\n      lt\n        /* \"#utility.yul\":6758:7042   */\n      iszero\n      tag_314\n      jumpi\n        /* \"#utility.yul\":6859:6865   */\n      dup2\n        /* \"#utility.yul\":6853:6866   */\n      mload\n        /* \"#utility.yul\":6886:6949   */\n      tag_315\n        /* \"#utility.yul\":6945:6948   */\n      dup9\n        /* \"#utility.yul\":6930:6943   */\n      dup3\n        /* \"#utility.yul\":6886:6949   */\n      tag_213\n      jump\t// in\n    tag_315:\n        /* \"#utility.yul\":6879:6949   */\n      swap8\n      pop\n        /* \"#utility.yul\":6972:7032   */\n      tag_316\n        /* \"#utility.yul\":7025:7031   */\n      dup4\n        /* \"#utility.yul\":6972:7032   */\n      tag_214\n      jump\t// in\n    tag_316:\n        /* \"#utility.yul\":6962:7032   */\n      swap3\n      pop\n        /* \"#utility.yul\":6818:7042   */\n      pop\n        /* \"#utility.yul\":6805:6806   */\n      0x01\n        /* \"#utility.yul\":6802:6803   */\n      dup2\n        /* \"#utility.yul\":6798:6807   */\n      add\n        /* \"#utility.yul\":6793:6807   */\n      swap1\n      pop\n        /* \"#utility.yul\":6758:7042   */\n      jump(tag_312)\n    tag_314:\n        /* \"#utility.yul\":6762:6776   */\n      pop\n        /* \"#utility.yul\":7058:7061   */\n      dup6\n        /* \"#utility.yul\":7051:7061   */\n      swap4\n      pop\n        /* \"#utility.yul\":6459:7067   */\n      pop\n      pop\n      pop\n        /* \"#utility.yul\":6335:7067   */\n      swap3\n      swap2\n      pop\n      pop\n      jump\t// out\n        /* \"#utility.yul\":7073:7446   */\n    tag_90:\n        /* \"#utility.yul\":7216:7220   */\n      0x00\n        /* \"#utility.yul\":7254:7256   */\n      0x20\n        /* \"#utility.yul\":7243:7252   */\n      dup3\n        /* \"#utility.yul\":7239:7257   */\n      add\n        /* \"#utility.yul\":7231:7257   */\n      swap1\n      pop\n        /* \"#utility.yul\":7303:7312   */\n      dup2\n        /* \"#utility.yul\":7297:7301   */\n      dup2\n        /* \"#utility.yul\":7293:7313   */\n      sub\n        /* \"#utility.yul\":7289:7290   */\n      0x00\n        /* \"#utility.yul\":7278:7287   */\n      dup4\n        /* \"#utility.yul\":7274:7291   */\n      add\n        /* \"#utility.yul\":7267:7314   */\n      mstore\n        /* \"#utility.yul\":7331:7439   */\n      tag_318\n        /* \"#utility.yul\":7434:7438   */\n      dup2\n        /* \"#utility.yul\":7425:7431   */\n      dup5\n        /* \"#utility.yul\":7331:7439   */\n      tag_215\n      jump\t// in\n    tag_318:\n        /* \"#utility.yul\":7323:7439   */\n      swap1\n      pop\n        /* \"#utility.yul\":7073:7446   */\n      swap3\n      swap2\n      pop\n      pop\n      jump\t// out\n        /* \"#utility.yul\":7452:7672   */\n    tag_216:\n        /* \"#utility.yul\":7592:7626   */\n      0x50617274696369706163696f6e206d696e696d61206e6f20616c63616e7a6164\n        /* \"#utility.yul\":7588:7589   */\n      0x00\n        /* \"#utility.yul\":7580:7586   */\n      dup3\n        /* \"#utility.yul\":7576:7590   */\n      add\n        /* \"#utility.yul\":7569:7627   */\n      mstore\n        /* \"#utility.yul\":7661:7664   */\n      0x6100000000000000000000000000000000000000000000000000000000000000\n        /* \"#utility.yul\":7656:7658   */\n      0x20\n        /* \"#utility.yul\":7648:7654   */\n      dup3\n        /* \"#utility.yul\":7644:7659   */\n      add\n        /* \"#utility.yul\":7637:7665   */\n      mstore\n        /* \"#utility.yul\":7452:7672   */\n      pop\n      jump\t// out\n        /* \"#utility.yul\":7678:8044   */\n    tag_217:\n        /* \"#utility.yul\":7820:7823   */\n      0x00\n        /* \"#utility.yul\":7841:7908   */\n      tag_321\n        /* \"#utility.yul\":7905:7907   */\n      0x21\n        /* \"#utility.yul\":7900:7903   */\n      dup4\n        /* \"#utility.yul\":7841:7908   */\n      tag_189\n      jump\t// in\n    tag_321:\n        /* \"#utility.yul\":7834:7908   */\n      swap2\n      pop\n        /* \"#utility.yul\":7917:8010   */\n      tag_322\n        /* \"#utility.yul\":8006:8009   */\n      dup3\n        /* \"#utility.yul\":7917:8010   */\n      tag_216\n      jump\t// in\n    tag_322:\n        /* \"#utility.yul\":8035:8037   */\n      0x40\n        /* \"#utility.yul\":8030:8033   */\n      dup3\n        /* \"#utility.yul\":8026:8038   */\n      add\n        /* \"#utility.yul\":8019:8038   */\n      swap1\n      pop\n        /* \"#utility.yul\":7678:8044   */\n      swap2\n      swap1\n      pop\n      jump\t// out\n        /* \"#utility.yul\":8050:8469   */\n    tag_111:\n        /* \"#utility.yul\":8216:8220   */\n      0x00\n        /* \"#utility.yul\":8254:8256   */\n      0x20\n        /* \"#utility.yul\":8243:8252   */\n      dup3\n        /* \"#utility.yul\":8239:8257   */\n      add\n        /* \"#utility.yul\":8231:8257   */\n      swap1\n      pop\n        /* \"#utility.yul\":8303:8312   */\n      dup2\n        /* \"#utility.yul\":8297:8301   */\n      dup2\n        /* \"#utility.yul\":8293:8313   */\n      sub\n        /* \"#utility.yul\":8289:8290   */\n      0x00\n        /* \"#utility.yul\":8278:8287   */\n      dup4\n        /* \"#utility.yul\":8274:8291   */\n      add\n        /* \"#utility.yul\":8267:8314   */\n      mstore\n        /* \"#utility.yul\":8331:8462   */\n      tag_324\n        /* \"#utility.yul\":8457:8461   */\n      dup2\n        /* \"#utility.yul\":8331:8462   */\n      tag_217\n      jump\t// in\n    tag_324:\n        /* \"#utility.yul\":8323:8462   */\n      swap1\n      pop\n        /* \"#utility.yul\":8050:8469   */\n      swap2\n      swap1\n      pop\n      jump\t// out\n        /* \"#utility.yul\":8475:8655   */\n    tag_218:\n        /* \"#utility.yul\":8615:8647   */\n      0x46696e616c697a61646f20706c617a6f2070617274696369706163696f6e0000\n        /* \"#utility.yul\":8611:8612   */\n      0x00\n        /* \"#utility.yul\":8603:8609   */\n      dup3\n        /* \"#utility.yul\":8599:8613   */\n      add\n        /* \"#utility.yul\":8592:8648   */\n      mstore\n        /* \"#utility.yul\":8475:8655   */\n      pop\n      jump\t// out\n        /* \"#utility.yul\":8661:9027   */\n    tag_219:\n        /* \"#utility.yul\":8803:8806   */\n      0x00\n        /* \"#utility.yul\":8824:8891   */\n      tag_327\n        /* \"#utility.yul\":8888:8890   */\n      0x1e\n        /* \"#utility.yul\":8883:8886   */\n      dup4\n        /* \"#utility.yul\":8824:8891   */\n      tag_189\n      jump\t// in\n    tag_327:\n        /* \"#utility.yul\":8817:8891   */\n      swap2\n      pop\n        /* \"#utility.yul\":8900:8993   */\n      tag_328\n        /* \"#utility.yul\":8989:8992   */\n      dup3\n        /* \"#utility.yul\":8900:8993   */\n      tag_218\n      jump\t// in\n    tag_328:\n        /* \"#utility.yul\":9018:9020   */\n      0x20\n        /* \"#utility.yul\":9013:9016   */\n      dup3\n        /* \"#utility.yul\":9009:9021   */\n      add\n        /* \"#utility.yul\":9002:9021   */\n      swap1\n      pop\n        /* \"#utility.yul\":8661:9027   */\n      swap2\n      swap1\n      pop\n      jump\t// out\n        /* \"#utility.yul\":9033:9452   */\n    tag_119:\n        /* \"#utility.yul\":9199:9203   */\n      0x00\n        /* \"#utility.yul\":9237:9239   */\n      0x20\n        /* \"#utility.yul\":9226:9235   */\n      dup3\n        /* \"#utility.yul\":9222:9240   */\n      add\n        /* \"#utility.yul\":9214:9240   */\n      swap1\n      pop\n        /* \"#utility.yul\":9286:9295   */\n      dup2\n        /* \"#utility.yul\":9280:9284   */\n      dup2\n        /* \"#utility.yul\":9276:9296   */\n      sub\n        /* \"#utility.yul\":9272:9273   */\n      0x00\n        /* \"#utility.yul\":9261:9270   */\n      dup4\n        /* \"#utility.yul\":9257:9274   */\n      add\n        /* \"#utility.yul\":9250:9297   */\n      mstore\n        /* \"#utility.yul\":9314:9445   */\n      tag_330\n        /* \"#utility.yul\":9440:9444   */\n      dup2\n        /* \"#utility.yul\":9314:9445   */\n      tag_219\n      jump\t// in\n    tag_330:\n        /* \"#utility.yul\":9306:9445   */\n      swap1\n      pop\n        /* \"#utility.yul\":9033:9452   */\n      swap2\n      swap1\n      pop\n      jump\t// out\n        /* \"#utility.yul\":9458:9638   */\n    tag_220:\n        /* \"#utility.yul\":9506:9583   */\n      0x4e487b7100000000000000000000000000000000000000000000000000000000\n        /* \"#utility.yul\":9503:9504   */\n      0x00\n        /* \"#utility.yul\":9496:9584   */\n      mstore\n        /* \"#utility.yul\":9603:9607   */\n      0x12\n        /* \"#utility.yul\":9600:9601   */\n      0x04\n        /* \"#utility.yul\":9593:9608   */\n      mstore\n        /* \"#utility.yul\":9627:9631   */\n      0x24\n        /* \"#utility.yul\":9624:9625   */\n      0x00\n        /* \"#utility.yul\":9617:9632   */\n      revert\n        /* \"#utility.yul\":9644:9824   */\n    tag_221:\n        /* \"#utility.yul\":9692:9769   */\n      0x4e487b7100000000000000000000000000000000000000000000000000000000\n        /* \"#utility.yul\":9689:9690   */\n      0x00\n        /* \"#utility.yul\":9682:9770   */\n      mstore\n        /* \"#utility.yul\":9789:9793   */\n      0x11\n        /* \"#utility.yul\":9786:9787   */\n      0x04\n        /* \"#utility.yul\":9779:9794   */\n      mstore\n        /* \"#utility.yul\":9813:9817   */\n      0x24\n        /* \"#utility.yul\":9810:9811   */\n      0x00\n        /* \"#utility.yul\":9803:9818   */\n      revert\n        /* \"#utility.yul\":9830:10015   */\n    tag_123:\n        /* \"#utility.yul\":9870:9871   */\n      0x00\n        /* \"#utility.yul\":9887:9907   */\n      tag_334\n        /* \"#utility.yul\":9905:9906   */\n      dup3\n        /* \"#utility.yul\":9887:9907   */\n      tag_186\n      jump\t// in\n    tag_334:\n        /* \"#utility.yul\":9882:9907   */\n      swap2\n      pop\n        /* \"#utility.yul\":9921:9941   */\n      tag_335\n        /* \"#utility.yul\":9939:9940   */\n      dup4\n        /* \"#utility.yul\":9921:9941   */\n      tag_186\n      jump\t// in\n    tag_335:\n        /* \"#utility.yul\":9916:9941   */\n      swap3\n      pop\n        /* \"#utility.yul\":9960:9961   */\n      dup3\n        /* \"#utility.yul\":9950:9985   */\n      tag_336\n      jumpi\n        /* \"#utility.yul\":9965:9983   */\n      tag_337\n      tag_220\n      jump\t// in\n    tag_337:\n        /* \"#utility.yul\":9950:9985   */\n    tag_336:\n        /* \"#utility.yul\":10007:10008   */\n      dup3\n        /* \"#utility.yul\":10004:10005   */\n      dup3\n        /* \"#utility.yul\":10000:10009   */\n      div\n        /* \"#utility.yul\":9995:10009   */\n      swap1\n      pop\n        /* \"#utility.yul\":9830:10015   */\n      swap3\n      swap2\n      pop\n      pop\n      jump\t// out\n        /* \"#utility.yul\":10021:10326   */\n    tag_125:\n        /* \"#utility.yul\":10061:10064   */\n      0x00\n        /* \"#utility.yul\":10080:10100   */\n      tag_339\n        /* \"#utility.yul\":10098:10099   */\n      dup3\n        /* \"#utility.yul\":10080:10100   */\n      tag_186\n      jump\t// in\n    tag_339:\n        /* \"#utility.yul\":10075:10100   */\n      swap2\n      pop\n        /* \"#utility.yul\":10114:10134   */\n      tag_340\n        /* \"#utility.yul\":10132:10133   */\n      dup4\n        /* \"#utility.yul\":10114:10134   */\n      tag_186\n      jump\t// in\n    tag_340:\n        /* \"#utility.yul\":10109:10134   */\n      swap3\n      pop\n        /* \"#utility.yul\":10268:10269   */\n      dup3\n        /* \"#utility.yul\":10200:10266   */\n      0xffffffffffffffffffffffffffffffffffffffffffffffffffffffffffffffff\n        /* \"#utility.yul\":10196:10270   */\n      sub\n        /* \"#utility.yul\":10193:10194   */\n      dup3\n        /* \"#utility.yul\":10190:10271   */\n      gt\n        /* \"#utility.yul\":10187:10294   */\n      iszero\n      tag_341\n      jumpi\n        /* \"#utility.yul\":10274:10292   */\n      tag_342\n      tag_221\n      jump\t// in\n    tag_342:\n        /* \"#utility.yul\":10187:10294   */\n    tag_341:\n        /* \"#utility.yul\":10318:10319   */\n      dup3\n        /* \"#utility.yul\":10315:10316   */\n      dup3\n        /* \"#utility.yul\":10311:10320   */\n      add\n        /* \"#utility.yul\":10304:10320   */\n      swap1\n      pop\n        /* \"#utility.yul\":10021:10326   */\n      swap3\n      swap2\n      pop\n      pop\n      jump\t// out\n        /* \"#utility.yul\":10332:10512   */\n    tag_222:\n        /* \"#utility.yul\":10380:10457   */\n      0x4e487b7100000000000000000000000000000000000000000000000000000000\n        /* \"#utility.yul\":10377:10378   */\n      0x00\n        /* \"#utility.yul\":10370:10458   */\n      mstore\n        /* \"#utility.yul\":10477:10481   */\n      0x22\n        /* \"#utility.yul\":10474:10475   */\n      0x04\n        /* \"#utility.yul\":10467:10482   */\n      mstore\n        /* \"#utility.yul\":10501:10505   */\n      0x24\n        /* \"#utility.yul\":10498:10499   */\n      0x00\n        /* \"#utility.yul\":10491:10506   */\n      revert\n        /* \"#utility.yul\":10518:10838   */\n    tag_129:\n        /* \"#utility.yul\":10562:10568   */\n      0x00\n        /* \"#utility.yul\":10599:10600   */\n      0x02\n        /* \"#utility.yul\":10593:10597   */\n      dup3\n        /* \"#utility.yul\":10589:10601   */\n      div\n        /* \"#utility.yul\":10579:10601   */\n      swap1\n      pop\n        /* \"#utility.yul\":10646:10647   */\n      0x01\n        /* \"#utility.yul\":10640:10644   */\n      dup3\n        /* \"#utility.yul\":10636:10648   */\n      and\n        /* \"#utility.yul\":10667:10685   */\n      dup1\n        /* \"#utility.yul\":10657:10738   */\n      tag_345\n      jumpi\n        /* \"#utility.yul\":10723:10727   */\n      0x7f\n        /* \"#utility.yul\":10715:10721   */\n      dup3\n        /* \"#utility.yul\":10711:10728   */\n      and\n        /* \"#utility.yul\":10701:10728   */\n      swap2\n      pop\n        /* \"#utility.yul\":10657:10738   */\n    tag_345:\n        /* \"#utility.yul\":10785:10787   */\n      0x20\n        /* \"#utility.yul\":10777:10783   */\n      dup3\n        /* \"#utility.yul\":10774:10788   */\n      lt\n        /* \"#utility.yul\":10754:10772   */\n      dup2\n        /* \"#utility.yul\":10751:10789   */\n      eq\n        /* \"#utility.yul\":10748:10832   */\n      iszero\n      tag_346\n      jumpi\n        /* \"#utility.yul\":10804:10822   */\n      tag_347\n      tag_222\n      jump\t// in\n    tag_347:\n        /* \"#utility.yul\":10748:10832   */\n    tag_346:\n        /* \"#utility.yul\":10569:10838   */\n      pop\n        /* \"#utility.yul\":10518:10838   */\n      swap2\n      swap1\n      pop\n      jump\t// out\n        /* \"#utility.yul\":10844:11014   */\n    tag_223:\n        /* \"#utility.yul\":10984:11006   */\n      0x4f6e6c792043616d7061696e206d616e61676572000000000000000000000000\n        /* \"#utility.yul\":10980:10981   */\n      0x00\n        /* \"#utility.yul\":10972:10978   */\n      dup3\n        /* \"#utility.yul\":10968:10982   */\n      add\n        /* \"#utility.yul\":10961:11007   */\n      mstore\n        /* \"#utility.yul\":10844:11014   */\n      pop\n      jump\t// out\n        /* \"#utility.yul\":11020:11386   */\n    tag_224:\n        /* \"#utility.yul\":11162:11165   */\n      0x00\n        /* \"#utility.yul\":11183:11250   */\n      tag_350\n        /* \"#utility.yul\":11247:11249   */\n      0x14\n        /* \"#utility.yul\":11242:11245   */\n      dup4\n        /* \"#utility.yul\":11183:11250   */\n      tag_189\n      jump\t// in\n    tag_350:\n        /* \"#utility.yul\":11176:11250   */\n      swap2\n      pop\n        /* \"#utility.yul\":11259:11352   */\n      tag_351\n        /* \"#utility.yul\":11348:11351   */\n      dup3\n        /* \"#utility.yul\":11259:11352   */\n      tag_223\n      jump\t// in\n    tag_351:\n        /* \"#utility.yul\":11377:11379   */\n      0x20\n        /* \"#utility.yul\":11372:11375   */\n      dup3\n        /* \"#utility.yul\":11368:11380   */\n      add\n        /* \"#utility.yul\":11361:11380   */\n      swap1\n      pop\n        /* \"#utility.yul\":11020:11386   */\n      swap2\n      swap1\n      pop\n      jump\t// out\n        /* \"#utility.yul\":11392:11811   */\n    tag_138:\n        /* \"#utility.yul\":11558:11562   */\n      0x00\n        /* \"#utility.yul\":11596:11598   */\n      0x20\n        /* \"#utility.yul\":11585:11594   */\n      dup3\n        /* \"#utility.yul\":11581:11599   */\n      add\n        /* \"#utility.yul\":11573:11599   */\n      swap1\n      pop\n        /* \"#utility.yul\":11645:11654   */\n      dup2\n        /* \"#utility.yul\":11639:11643   */\n      dup2\n        /* \"#utility.yul\":11635:11655   */\n      sub\n        /* \"#utility.yul\":11631:11632   */\n      0x00\n        /* \"#utility.yul\":11620:11629   */\n      dup4\n        /* \"#utility.yul\":11616:11633   */\n      add\n        /* \"#utility.yul\":11609:11656   */\n      mstore\n        /* \"#utility.yul\":11673:11804   */\n      tag_353\n        /* \"#utility.yul\":11799:11803   */\n      dup2\n        /* \"#utility.yul\":11673:11804   */\n      tag_224\n      jump\t// in\n    tag_353:\n        /* \"#utility.yul\":11665:11804   */\n      swap1\n      pop\n        /* \"#utility.yul\":11392:11811   */\n      swap2\n      swap1\n      pop\n      jump\t// out\n        /* \"#utility.yul\":11817:11983   */\n    tag_225:\n        /* \"#utility.yul\":11957:11975   */\n      0x666f6e646f7320726574697261646f7300000000000000000000000000000000\n        /* \"#utility.yul\":11953:11954   */\n      0x00\n        /* \"#utility.yul\":11945:11951   */\n      dup3\n        /* \"#utility.yul\":11941:11955   */\n      add\n        /* \"#utility.yul\":11934:11976   */\n      mstore\n        /* \"#utility.yul\":11817:11983   */\n      pop\n      jump\t// out\n        /* \"#utility.yul\":11989:12355   */\n    tag_226:\n        /* \"#utility.yul\":12131:12134   */\n      0x00\n        /* \"#utility.yul\":12152:12219   */\n      tag_356\n        /* \"#utility.yul\":12216:12218   */\n      0x10\n        /* \"#utility.yul\":12211:12214   */\n      dup4\n        /* \"#utility.yul\":12152:12219   */\n      tag_189\n      jump\t// in\n    tag_356:\n        /* \"#utility.yul\":12145:12219   */\n      swap2\n      pop\n        /* \"#utility.yul\":12228:12321   */\n      tag_357\n        /* \"#utility.yul\":12317:12320   */\n      dup3\n        /* \"#utility.yul\":12228:12321   */\n      tag_225\n      jump\t// in\n    tag_357:\n        /* \"#utility.yul\":12346:12348   */\n      0x20\n        /* \"#utility.yul\":12341:12344   */\n      dup3\n        /* \"#utility.yul\":12337:12349   */\n      add\n        /* \"#utility.yul\":12330:12349   */\n      swap1\n      pop\n        /* \"#utility.yul\":11989:12355   */\n      swap2\n      swap1\n      pop\n      jump\t// out\n        /* \"#utility.yul\":12361:12780   */\n    tag_145:\n        /* \"#utility.yul\":12527:12531   */\n      0x00\n        /* \"#utility.yul\":12565:12567   */\n      0x20\n        /* \"#utility.yul\":12554:12563   */\n      dup3\n        /* \"#utility.yul\":12550:12568   */\n      add\n        /* \"#utility.yul\":12542:12568   */\n      swap1\n      pop\n        /* \"#utility.yul\":12614:12623   */\n      dup2\n        /* \"#utility.yul\":12608:12612   */\n      dup2\n        /* \"#utility.yul\":12604:12624   */\n      sub\n        /* \"#utility.yul\":12600:12601   */\n      0x00\n        /* \"#utility.yul\":12589:12598   */\n      dup4\n        /* \"#utility.yul\":12585:12602   */\n      add\n        /* \"#utility.yul\":12578:12625   */\n      mstore\n        /* \"#utility.yul\":12642:12773   */\n      tag_359\n        /* \"#utility.yul\":12768:12772   */\n      dup2\n        /* \"#utility.yul\":12642:12773   */\n      tag_226\n      jump\t// in\n    tag_359:\n        /* \"#utility.yul\":12634:12773   */\n      swap1\n      pop\n        /* \"#utility.yul\":12361:12780   */\n      swap2\n      swap1\n      pop\n      jump\t// out\n        /* \"#utility.yul\":12786:12957   */\n    tag_227:\n        /* \"#utility.yul\":12926:12949   */\n      0x43616d70616e7961206e6f2063616e63656c6164610000000000000000000000\n        /* \"#utility.yul\":12922:12923   */\n      0x00\n        /* \"#utility.yul\":12914:12920   */\n      dup3\n        /* \"#utility.yul\":12910:12924   */\n      add\n        /* \"#utility.yul\":12903:12950   */\n      mstore\n        /* \"#utility.yul\":12786:12957   */\n      pop\n      jump\t// out\n        /* \"#utility.yul\":12963:13329   */\n    tag_228:\n        /* \"#utility.yul\":13105:13108   */\n      0x00\n        /* \"#utility.yul\":13126:13193   */\n      tag_362\n        /* \"#utility.yul\":13190:13192   */\n      0x15\n        /* \"#utility.yul\":13185:13188   */\n      dup4\n        /* \"#utility.yul\":13126:13193   */\n      tag_189\n      jump\t// in\n    tag_362:\n        /* \"#utility.yul\":13119:13193   */\n      swap2\n      pop\n        /* \"#utility.yul\":13202:13295   */\n      tag_363\n        /* \"#utility.yul\":13291:13294   */\n      dup3\n        /* \"#utility.yul\":13202:13295   */\n      tag_227\n      jump\t// in\n    tag_363:\n        /* \"#utility.yul\":13320:13322   */\n      0x20\n        /* \"#utility.yul\":13315:13318   */\n      dup3\n        /* \"#utility.yul\":13311:13323   */\n      add\n        /* \"#utility.yul\":13304:13323   */\n      swap1\n      pop\n        /* \"#utility.yul\":12963:13329   */\n      swap2\n      swap1\n      pop\n      jump\t// out\n        /* \"#utility.yul\":13335:13754   */\n    tag_152:\n        /* \"#utility.yul\":13501:13505   */\n      0x00\n        /* \"#utility.yul\":13539:13541   */\n      0x20\n        /* \"#utility.yul\":13528:13537   */\n      dup3\n        /* \"#utility.yul\":13524:13542   */\n      add\n        /* \"#utility.yul\":13516:13542   */\n      swap1\n      pop\n        /* \"#utility.yul\":13588:13597   */\n      dup2\n        /* \"#utility.yul\":13582:13586   */\n      dup2\n        /* \"#utility.yul\":13578:13598   */\n      sub\n        /* \"#utility.yul\":13574:13575   */\n      0x00\n        /* \"#utility.yul\":13563:13572   */\n      dup4\n        /* \"#utility.yul\":13559:13576   */\n      add\n        /* \"#utility.yul\":13552:13599   */\n      mstore\n        /* \"#utility.yul\":13616:13747   */\n      tag_365\n        /* \"#utility.yul\":13742:13746   */\n      dup2\n        /* \"#utility.yul\":13616:13747   */\n      tag_228\n      jump\t// in\n    tag_365:\n        /* \"#utility.yul\":13608:13747   */\n      swap1\n      pop\n        /* \"#utility.yul\":13335:13754   */\n      swap2\n      swap1\n      pop\n      jump\t// out\n        /* \"#utility.yul\":13760:14108   */\n    tag_154:\n        /* \"#utility.yul\":13800:13807   */\n      0x00\n        /* \"#utility.yul\":13823:13843   */\n      tag_367\n        /* \"#utility.yul\":13841:13842   */\n      dup3\n        /* \"#utility.yul\":13823:13843   */\n      tag_186\n      jump\t// in\n    tag_367:\n        /* \"#utility.yul\":13818:13843   */\n      swap2\n      pop\n        /* \"#utility.yul\":13857:13877   */\n      tag_368\n        /* \"#utility.yul\":13875:13876   */\n      dup4\n        /* \"#utility.yul\":13857:13877   */\n      tag_186\n      jump\t// in\n    tag_368:\n        /* \"#utility.yul\":13852:13877   */\n      swap3\n      pop\n        /* \"#utility.yul\":14045:14046   */\n      dup2\n        /* \"#utility.yul\":13977:14043   */\n      0xffffffffffffffffffffffffffffffffffffffffffffffffffffffffffffffff\n        /* \"#utility.yul\":13973:14047   */\n      div\n        /* \"#utility.yul\":13970:13971   */\n      dup4\n        /* \"#utility.yul\":13967:14048   */\n      gt\n        /* \"#utility.yul\":13962:13963   */\n      dup3\n        /* \"#utility.yul\":13955:13964   */\n      iszero\n        /* \"#utility.yul\":13948:13965   */\n      iszero\n        /* \"#utility.yul\":13944:14049   */\n      and\n        /* \"#utility.yul\":13941:14072   */\n      iszero\n      tag_369\n      jumpi\n        /* \"#utility.yul\":14052:14070   */\n      tag_370\n      tag_221\n      jump\t// in\n    tag_370:\n        /* \"#utility.yul\":13941:14072   */\n    tag_369:\n        /* \"#utility.yul\":14100:14101   */\n      dup3\n        /* \"#utility.yul\":14097:14098   */\n      dup3\n        /* \"#utility.yul\":14093:14102   */\n      mul\n        /* \"#utility.yul\":14082:14102   */\n      swap1\n      pop\n        /* \"#utility.yul\":13760:14108   */\n      swap3\n      swap2\n      pop\n      pop\n      jump\t// out\n        /* \"#utility.yul\":14114:14283   */\n    tag_229:\n        /* \"#utility.yul\":14254:14275   */\n      0x43616d70616e7961206e6f206162696572746100000000000000000000000000\n        /* \"#utility.yul\":14250:14251   */\n      0x00\n        /* \"#utility.yul\":14242:14248   */\n      dup3\n        /* \"#utility.yul\":14238:14252   */\n      add\n        /* \"#utility.yul\":14231:14276   */\n      mstore\n        /* \"#utility.yul\":14114:14283   */\n      pop\n      jump\t// out\n        /* \"#utility.yul\":14289:14655   */\n    tag_230:\n        /* \"#utility.yul\":14431:14434   */\n      0x00\n        /* \"#utility.yul\":14452:14519   */\n      tag_373\n        /* \"#utility.yul\":14516:14518   */\n      0x13\n        /* \"#utility.yul\":14511:14514   */\n      dup4\n        /* \"#utility.yul\":14452:14519   */\n      tag_189\n      jump\t// in\n    tag_373:\n        /* \"#utility.yul\":14445:14519   */\n      swap2\n      pop\n        /* \"#utility.yul\":14528:14621   */\n      tag_374\n        /* \"#utility.yul\":14617:14620   */\n      dup3\n        /* \"#utility.yul\":14528:14621   */\n      tag_229\n      jump\t// in\n    tag_374:\n        /* \"#utility.yul\":14646:14648   */\n      0x20\n        /* \"#utility.yul\":14641:14644   */\n      dup3\n        /* \"#utility.yul\":14637:14649   */\n      add\n        /* \"#utility.yul\":14630:14649   */\n      swap1\n      pop\n        /* \"#utility.yul\":14289:14655   */\n      swap2\n      swap1\n      pop\n      jump\t// out\n        /* \"#utility.yul\":14661:15080   */\n    tag_164:\n        /* \"#utility.yul\":14827:14831   */\n      0x00\n        /* \"#utility.yul\":14865:14867   */\n      0x20\n        /* \"#utility.yul\":14854:14863   */\n      dup3\n        /* \"#utility.yul\":14850:14868   */\n      add\n        /* \"#utility.yul\":14842:14868   */\n      swap1\n      pop\n        /* \"#utility.yul\":14914:14923   */\n      dup2\n        /* \"#utility.yul\":14908:14912   */\n      dup2\n        /* \"#utility.yul\":14904:14924   */\n      sub\n        /* \"#utility.yul\":14900:14901   */\n      0x00\n        /* \"#utility.yul\":14889:14898   */\n      dup4\n        /* \"#utility.yul\":14885:14902   */\n      add\n        /* \"#utility.yul\":14878:14925   */\n      mstore\n        /* \"#utility.yul\":14942:15073   */\n      tag_376\n        /* \"#utility.yul\":15068:15072   */\n      dup2\n        /* \"#utility.yul\":14942:15073   */\n      tag_230\n      jump\t// in\n    tag_376:\n        /* \"#utility.yul\":14934:15073   */\n      swap1\n      pop\n        /* \"#utility.yul\":14661:15080   */\n      swap2\n      swap1\n      pop\n      jump\t// out\n        /* \"#utility.yul\":15086:15259   */\n    tag_231:\n        /* \"#utility.yul\":15226:15251   */\n      0x43616d7061696e206973206e6f74206f76657220796574000000000000000000\n        /* \"#utility.yul\":15222:15223   */\n      0x00\n        /* \"#utility.yul\":15214:15220   */\n      dup3\n        /* \"#utility.yul\":15210:15224   */\n      add\n        /* \"#utility.yul\":15203:15252   */\n      mstore\n        /* \"#utility.yul\":15086:15259   */\n      pop\n      jump\t// out\n        /* \"#utility.yul\":15265:15631   */\n    tag_232:\n        /* \"#utility.yul\":15407:15410   */\n      0x00\n        /* \"#utility.yul\":15428:15495   */\n      tag_379\n        /* \"#utility.yul\":15492:15494   */\n      0x17\n        /* \"#utility.yul\":15487:15490   */\n      dup4\n        /* \"#utility.yul\":15428:15495   */\n      tag_189\n      jump\t// in\n    tag_379:\n        /* \"#utility.yul\":15421:15495   */\n      swap2\n      pop\n        /* \"#utility.yul\":15504:15597   */\n      tag_380\n        /* \"#utility.yul\":15593:15596   */\n      dup3\n        /* \"#utility.yul\":15504:15597   */\n      tag_231\n      jump\t// in\n    tag_380:\n        /* \"#utility.yul\":15622:15624   */\n      0x20\n        /* \"#utility.yul\":15617:15620   */\n      dup3\n        /* \"#utility.yul\":15613:15625   */\n      add\n        /* \"#utility.yul\":15606:15625   */\n      swap1\n      pop\n        /* \"#utility.yul\":15265:15631   */\n      swap2\n      swap1\n      pop\n      jump\t// out\n        /* \"#utility.yul\":15637:16056   */\n    tag_168:\n        /* \"#utility.yul\":15803:15807   */\n      0x00\n        /* \"#utility.yul\":15841:15843   */\n      0x20\n        /* \"#utility.yul\":15830:15839   */\n      dup3\n        /* \"#utility.yul\":15826:15844   */\n      add\n        /* \"#utility.yul\":15818:15844   */\n      swap1\n      pop\n        /* \"#utility.yul\":15890:15899   */\n      dup2\n        /* \"#utility.yul\":15884:15888   */\n      dup2\n        /* \"#utility.yul\":15880:15900   */\n      sub\n        /* \"#utility.yul\":15876:15877   */\n      0x00\n        /* \"#utility.yul\":15865:15874   */\n      dup4\n        /* \"#utility.yul\":15861:15878   */\n      add\n        /* \"#utility.yul\":15854:15901   */\n      mstore\n        /* \"#utility.yul\":15918:16049   */\n      tag_382\n        /* \"#utility.yul\":16044:16048   */\n      dup2\n        /* \"#utility.yul\":15918:16049   */\n      tag_232\n      jump\t// in\n    tag_382:\n        /* \"#utility.yul\":15910:16049   */\n      swap1\n      pop\n        /* \"#utility.yul\":15637:16056   */\n      swap2\n      swap1\n      pop\n      jump\t// out\n\n    auxdata: 0xa2646970667358221220daecdc7c1505322908651f9f96c50728e4684bdca1c6b42973614333646b817264736f6c634300080b0033\n}\n",
    "bytecode": {
      "linkReferences": {},
      "object": "60a06040523480156200001157600080fd5b5060405162001c1238038062001c128339818101604052810190620000379190620003b6565b600083118015620000485750600082115b6200005257600080fd5b84600190805190602001906200006a9291906200012e565b508360029080519060200190620000839291906200012e565b50336000806101000a81548173ffffffffffffffffffffffffffffffffffffffff021916908373ffffffffffffffffffffffffffffffffffffffff16021790555081600581905550826004819055506000600360006101000a81548160ff02191690836002811115620000fb57620000fa6200047c565b5b02179055506001816200010f9190620004da565b426200011c91906200053b565b608081815250505050505050620005fd565b8280546200013c90620005c7565b90600052602060002090601f016020900481019282620001605760008555620001ac565b82601f106200017b57805160ff1916838001178555620001ac565b82800160010185558215620001ac579182015b82811115620001ab5782518255916020019190600101906200018e565b5b509050620001bb9190620001bf565b5090565b5b80821115620001da576000816000905550600101620001c0565b5090565b6000604051905090565b600080fd5b600080fd5b600080fd5b600080fd5b6000601f19601f8301169050919050565b7f4e487b7100000000000000000000000000000000000000000000000000000000600052604160045260246000fd5b6200024782620001fc565b810181811067ffffffffffffffff821117156200026957620002686200020d565b5b80604052505050565b60006200027e620001de565b90506200028c82826200023c565b919050565b600067ffffffffffffffff821115620002af57620002ae6200020d565b5b620002ba82620001fc565b9050602081019050919050565b60005b83811015620002e7578082015181840152602081019050620002ca565b83811115620002f7576000848401525b50505050565b6000620003146200030e8462000291565b62000272565b905082815260208101848484011115620003335762000332620001f7565b5b62000340848285620002c7565b509392505050565b600082601f83011262000360576200035f620001f2565b5b815162000372848260208601620002fd565b91505092915050565b6000819050919050565b62000390816200037b565b81146200039c57600080fd5b50565b600081519050620003b08162000385565b92915050565b600080600080600060a08688031215620003d557620003d4620001e8565b5b600086015167ffffffffffffffff811115620003f657620003f5620001ed565b5b620004048882890162000348565b955050602086015167ffffffffffffffff811115620004285762000427620001ed565b5b620004368882890162000348565b945050604062000449888289016200039f565b93505060606200045c888289016200039f565b92505060806200046f888289016200039f565b9150509295509295909350565b7f4e487b7100000000000000000000000000000000000000000000000000000000600052602160045260246000fd5b7f4e487b7100000000000000000000000000000000000000000000000000000000600052601160045260246000fd5b6000620004e7826200037b565b9150620004f4836200037b565b9250817fffffffffffffffffffffffffffffffffffffffffffffffffffffffffffffffff048311821515161562000530576200052f620004ab565b5b828202905092915050565b600062000548826200037b565b915062000555836200037b565b9250827fffffffffffffffffffffffffffffffffffffffffffffffffffffffffffffffff038211156200058d576200058c620004ab565b5b828201905092915050565b7f4e487b7100000000000000000000000000000000000000000000000000000000600052602260045260246000fd5b60006002820490506001821680620005e057607f821691505b60208210811415620005f757620005f662000598565b5b50919050565b6080516115f26200062060003960008181610adf0152610d3001526115f26000f3fe60806040526004361061010d5760003560e01c8063b14d38c211610095578063d50fac4911610064578063d50fac491461034f578063e348c51814610359578063e3ce816414610384578063e7425109146103af578063f7a7e57e146103da5761011c565b8063b14d38c214610293578063b25924c1146102aa578063bbde609a146102e7578063cac9a391146103245761011c565b80638d1750c5116100dc5780638d1750c5146101e45780638f75c1fb1461020f57806393a39b2e1461023a57806395df868d14610251578063a4e58a871461027c5761011c565b8063225682d1146101265780633deff252146101515780637bd824101461017c5780638b83ba26146101a75761011c565b3661011c5761011a610405565b005b610124610405565b005b34801561013257600080fd5b5061013b610623565b6040516101489190610d6b565b60405180910390f35b34801561015d57600080fd5b5061016661062b565b6040516101739190610e1f565b60405180910390f35b34801561018857600080fd5b506101916106b9565b60405161019e9190610d6b565b60405180910390f35b3480156101b357600080fd5b506101ce60048036038101906101c99190610ea4565b6106bf565b6040516101db9190610d6b565b60405180910390f35b3480156101f057600080fd5b506101f9610708565b6040516102069190610f48565b60405180910390f35b34801561021b57600080fd5b5061022461071b565b6040516102319190610f84565b60405180910390f35b34801561024657600080fd5b5061024f61073f565b005b34801561025d57600080fd5b50610266610836565b6040516102739190610d6b565b60405180910390f35b34801561028857600080fd5b5061029161083c565b005b34801561029f57600080fd5b506102a8610a14565b005b3480156102b657600080fd5b506102d160048036038101906102cc9190610fcb565b610ba8565b6040516102de9190611007565b60405180910390f35b3480156102f357600080fd5b5061030e60048036038101906103099190610ea4565b610be7565b60405161031b9190610d6b565b60405180910390f35b34801561033057600080fd5b50610339610bff565b60405161034691906110e0565b60405180910390f35b610357610405565b005b34801561036557600080fd5b5061036e610c8d565b60405161037b9190610d6b565b60405180910390f35b34801561039057600080fd5b50610399610c93565b6040516103a69190610d6b565b60405180910390f35b3480156103bb57600080fd5b506103c4610ca0565b6040516103d19190610e1f565b60405180910390f35b3480156103e657600080fd5b506103ef610d2e565b6040516103fc9190610d6b565b60405180910390f35b60055434101561044a576040517f08c379a000000000000000000000000000000000000000000000000000000000815260040161044190611174565b60405180910390fd5b6000600281111561045e5761045d610ed1565b5b600360009054906101000a900460ff1660028111156104805761047f610ed1565b5b146104c0576040517f08c379a00000000000000000000000000000000000000000000000000000000081526004016104b7906111e0565b60405180910390fd5b6000600660003373ffffffffffffffffffffffffffffffffffffffff1673ffffffffffffffffffffffffffffffffffffffff16815260200190815260200160002054141561056c576007339080600181540180825580915050600190039060005260206000200160009091909190916101000a81548173ffffffffffffffffffffffffffffffffffffffff021916908373ffffffffffffffffffffffffffffffffffffffff1602179055505b60006005543461057c919061125e565b905080600660003373ffffffffffffffffffffffffffffffffffffffff1673ffffffffffffffffffffffffffffffffffffffff168152602001908152602001600020546105c9919061128f565b600660003373ffffffffffffffffffffffffffffffffffffffff1673ffffffffffffffffffffffffffffffffffffffff168152602001908152602001600020819055508060085461061a919061128f565b60088190555050565b600047905090565b6001805461063890611314565b80601f016020809104026020016040519081016040528092919081815260200182805461066490611314565b80156106b15780601f10610686576101008083540402835291602001916106b1565b820191906000526020600020905b81548152906001019060200180831161069457829003601f168201915b505050505081565b60085481565b6000600660008373ffffffffffffffffffffffffffffffffffffffff1673ffffffffffffffffffffffffffffffffffffffff168152602001908152602001600020549050919050565b600360009054906101000a900460ff1681565b60008054906101000a900473ffffffffffffffffffffffffffffffffffffffff1681565b3373ffffffffffffffffffffffffffffffffffffffff1660008054906101000a900473ffffffffffffffffffffffffffffffffffffffff1673ffffffffffffffffffffffffffffffffffffffff16146107cd576040517f08c379a00000000000000000000000000000000000000000000000000000000081526004016107c490611392565b60405180910390fd5b60008054906101000a900473ffffffffffffffffffffffffffffffffffffffff1673ffffffffffffffffffffffffffffffffffffffff166108fc479081150290604051600060405180830381858888f19350505050158015610833573d6000803e3d6000fd5b50565b60045481565b6000600660003373ffffffffffffffffffffffffffffffffffffffff1673ffffffffffffffffffffffffffffffffffffffff16815260200190815260200160002054116108be576040517f08c379a00000000000000000000000000000000000000000000000000000000081526004016108b5906113fe565b60405180910390fd5b600160028111156108d2576108d1610ed1565b5b600360009054906101000a900460ff1660028111156108f4576108f3610ed1565b5b14610934576040517f08c379a000000000000000000000000000000000000000000000000000000000815260040161092b9061146a565b60405180910390fd5b6000600554600660003373ffffffffffffffffffffffffffffffffffffffff1673ffffffffffffffffffffffffffffffffffffffff16815260200190815260200160002054610983919061148a565b90506000600660003373ffffffffffffffffffffffffffffffffffffffff1673ffffffffffffffffffffffffffffffffffffffff168152602001908152602001600020819055503373ffffffffffffffffffffffffffffffffffffffff166108fc829081150290604051600060405180830381858888f19350505050158015610a10573d6000803e3d6000fd5b5050565b60006002811115610a2857610a27610ed1565b5b600360009054906101000a900460ff166002811115610a4a57610a49610ed1565b5b14610a8a576040517f08c379a0000000000000000000000000000000000000000000000000000000008152600401610a8190611530565b60405180910390fd5b60008054906101000a900473ffffffffffffffffffffffffffffffffffffffff1673ffffffffffffffffffffffffffffffffffffffff163373ffffffffffffffffffffffffffffffffffffffff1614610b41577f0000000000000000000000000000000000000000000000000000000000000000421015610b40576040517f08c379a0000000000000000000000000000000000000000000000000000000008152600401610b379061159c565b60405180910390fd5b5b4760045411610b7a576002600360006101000a81548160ff02191690836002811115610b7057610b6f610ed1565b5b0217905550610ba6565b6001600360006101000a81548160ff02191690836002811115610ba057610b9f610ed1565b5b02179055505b565b60078181548110610bb857600080fd5b906000526020600020016000915054906101000a900473ffffffffffffffffffffffffffffffffffffffff1681565b60066020528060005260406000206000915090505481565b60606007805480602002602001604051908101604052809291908181526020018280548015610c8357602002820191906000526020600020905b8160009054906101000a900473ffffffffffffffffffffffffffffffffffffffff1673ffffffffffffffffffffffffffffffffffffffff1681526020019060010190808311610c39575b5050505050905090565b60055481565b6000600780549050905090565b60028054610cad90611314565b80601f0160208091040260200160405190810160405280929190818152602001828054610cd990611314565b8015610d265780601f10610cfb57610100808354040283529160200191610d26565b820191906000526020600020905b815481529060010190602001808311610d0957829003601f168201915b505050505081565b7f000000000000000000000000000000000000000000000000000000000000000081565b6000819050919050565b610d6581610d52565b82525050565b6000602082019050610d806000830184610d5c565b92915050565b600081519050919050565b600082825260208201905092915050565b60005b83811015610dc0578082015181840152602081019050610da5565b83811115610dcf576000848401525b50505050565b6000601f19601f8301169050919050565b6000610df182610d86565b610dfb8185610d91565b9350610e0b818560208601610da2565b610e1481610dd5565b840191505092915050565b60006020820190508181036000830152610e398184610de6565b905092915050565b600080fd5b600073ffffffffffffffffffffffffffffffffffffffff82169050919050565b6000610e7182610e46565b9050919050565b610e8181610e66565b8114610e8c57600080fd5b50565b600081359050610e9e81610e78565b92915050565b600060208284031215610eba57610eb9610e41565b5b6000610ec884828501610e8f565b91505092915050565b7f4e487b7100000000000000000000000000000000000000000000000000000000600052602160045260246000fd5b60038110610f1157610f10610ed1565b5b50565b6000819050610f2282610f00565b919050565b6000610f3282610f14565b9050919050565b610f4281610f27565b82525050565b6000602082019050610f5d6000830184610f39565b92915050565b6000610f6e82610e46565b9050919050565b610f7e81610f63565b82525050565b6000602082019050610f996000830184610f75565b92915050565b610fa881610d52565b8114610fb357600080fd5b50565b600081359050610fc581610f9f565b92915050565b600060208284031215610fe157610fe0610e41565b5b6000610fef84828501610fb6565b91505092915050565b61100181610e66565b82525050565b600060208201905061101c6000830184610ff8565b92915050565b600081519050919050565b600082825260208201905092915050565b6000819050602082019050919050565b61105781610e66565b82525050565b6000611069838361104e565b60208301905092915050565b6000602082019050919050565b600061108d82611022565b611097818561102d565b93506110a28361103e565b8060005b838110156110d35781516110ba888261105d565b97506110c583611075565b9250506001810190506110a6565b5085935050505092915050565b600060208201905081810360008301526110fa8184611082565b905092915050565b7f50617274696369706163696f6e206d696e696d61206e6f20616c63616e7a616460008201527f6100000000000000000000000000000000000000000000000000000000000000602082015250565b600061115e602183610d91565b915061116982611102565b604082019050919050565b6000602082019050818103600083015261118d81611151565b9050919050565b7f46696e616c697a61646f20706c617a6f2070617274696369706163696f6e0000600082015250565b60006111ca601e83610d91565b91506111d582611194565b602082019050919050565b600060208201905081810360008301526111f9816111bd565b9050919050565b7f4e487b7100000000000000000000000000000000000000000000000000000000600052601260045260246000fd5b7f4e487b7100000000000000000000000000000000000000000000000000000000600052601160045260246000fd5b600061126982610d52565b915061127483610d52565b92508261128457611283611200565b5b828204905092915050565b600061129a82610d52565b91506112a583610d52565b9250827fffffffffffffffffffffffffffffffffffffffffffffffffffffffffffffffff038211156112da576112d961122f565b5b828201905092915050565b7f4e487b7100000000000000000000000000000000000000000000000000000000600052602260045260246000fd5b6000600282049050600182168061132c57607f821691505b602082108114156113405761133f6112e5565b5b50919050565b7f4f6e6c792043616d7061696e206d616e61676572000000000000000000000000600082015250565b600061137c601483610d91565b915061138782611346565b602082019050919050565b600060208201905081810360008301526113ab8161136f565b9050919050565b7f666f6e646f7320726574697261646f7300000000000000000000000000000000600082015250565b60006113e8601083610d91565b91506113f3826113b2565b602082019050919050565b60006020820190508181036000830152611417816113db565b9050919050565b7f43616d70616e7961206e6f2063616e63656c6164610000000000000000000000600082015250565b6000611454601583610d91565b915061145f8261141e565b602082019050919050565b6000602082019050818103600083015261148381611447565b9050919050565b600061149582610d52565b91506114a083610d52565b9250817fffffffffffffffffffffffffffffffffffffffffffffffffffffffffffffffff04831182151516156114d9576114d861122f565b5b828202905092915050565b7f43616d70616e7961206e6f206162696572746100000000000000000000000000600082015250565b600061151a601383610d91565b9150611525826114e4565b602082019050919050565b600060208201905081810360008301526115498161150d565b9050919050565b7f43616d7061696e206973206e6f74206f76657220796574000000000000000000600082015250565b6000611586601783610d91565b915061159182611550565b602082019050919050565b600060208201905081810360008301526115b581611579565b905091905056fea2646970667358221220daecdc7c1505322908651f9f96c50728e4684bdca1c6b42973614333646b817264736f6c634300080b0033",
      "opcodes": "PUSH1 0xA0 PUSH1 0x40 MSTORE CALLVALUE DUP1 ISZERO PUSH3 0x11 JUMPI PUSH1 0x0 DUP1 REVERT JUMPDEST POP PUSH1 0x40 MLOAD PUSH3 0x1C12 CODESIZE SUB DUP1 PUSH3 0x1C12 DUP4 CODECOPY DUP2 DUP2 ADD PUSH1 0x40 MSTORE DUP2 ADD SWAP1 PUSH3 0x37 SWAP2 SWAP1 PUSH3 0x3B6 JUMP JUMPDEST PUSH1 0x0 DUP4 GT DUP1 ISZERO PUSH3 0x48 JUMPI POP PUSH1 0x0 DUP3 GT JUMPDEST PUSH3 0x52 JUMPI PUSH1 0x0 DUP1 REVERT JUMPDEST DUP5 PUSH1 0x1 SWAP1 DUP1 MLOAD SWAP1 PUSH1 0x20 ADD SWAP1 PUSH3 0x6A SWAP3 SWAP2 SWAP1 PUSH3 0x12E JUMP JUMPDEST POP DUP4 PUSH1 0x2 SWAP1 DUP1 MLOAD SWAP1 PUSH1 0x20 ADD SWAP1 PUSH3 0x83 SWAP3 SWAP2 SWAP1 PUSH3 0x12E JUMP JUMPDEST POP CALLER PUSH1 0x0 DUP1 PUSH2 0x100 EXP DUP2 SLOAD DUP2 PUSH20 0xFFFFFFFFFFFFFFFFFFFFFFFFFFFFFFFFFFFFFFFF MUL NOT AND SWAP1 DUP4 PUSH20 0xFFFFFFFFFFFFFFFFFFFFFFFFFFFFFFFFFFFFFFFF AND MUL OR SWAP1 SSTORE POP DUP2 PUSH1 0x5 DUP2 SWAP1 SSTORE POP DUP3 PUSH1 0x4 DUP2 SWAP1 SSTORE POP PUSH1 0x0 PUSH1 0x3 PUSH1 0x0 PUSH2 0x100 EXP DUP2 SLOAD DUP2 PUSH1 0xFF MUL NOT AND SWAP1 DUP4 PUSH1 0x2 DUP2 GT ISZERO PUSH3 0xFB JUMPI PUSH3 0xFA PUSH3 0x47C JUMP JUMPDEST JUMPDEST MUL OR SWAP1 SSTORE POP PUSH1 0x1 DUP2 PUSH3 0x10F SWAP2 SWAP1 PUSH3 0x4DA JUMP JUMPDEST TIMESTAMP PUSH3 0x11C SWAP2 SWAP1 PUSH3 0x53B JUMP JUMPDEST PUSH1 0x80 DUP2 DUP2 MSTORE POP POP POP POP POP POP POP PUSH3 0x5FD JUMP JUMPDEST DUP3 DUP1 SLOAD PUSH3 0x13C SWAP1 PUSH3 0x5C7 JUMP JUMPDEST SWAP1 PUSH1 0x0 MSTORE PUSH1 0x20 PUSH1 0x0 KECCAK256 SWAP1 PUSH1 0x1F ADD PUSH1 0x20 SWAP1 DIV DUP2 ADD SWAP3 DUP3 PUSH3 0x160 JUMPI PUSH1 0x0 DUP6 SSTORE PUSH3 0x1AC JUMP JUMPDEST DUP3 PUSH1 0x1F LT PUSH3 0x17B JUMPI DUP1 MLOAD PUSH1 0xFF NOT AND DUP4 DUP1 ADD OR DUP6 SSTORE PUSH3 0x1AC JUMP JUMPDEST DUP3 DUP1 ADD PUSH1 0x1 ADD DUP6 SSTORE DUP3 ISZERO PUSH3 0x1AC JUMPI SWAP2 DUP3 ADD JUMPDEST DUP3 DUP2 GT ISZERO PUSH3 0x1AB JUMPI DUP3 MLOAD DUP3 SSTORE SWAP2 PUSH1 0x20 ADD SWAP2 SWAP1 PUSH1 0x1 ADD SWAP1 PUSH3 0x18E JUMP JUMPDEST JUMPDEST POP SWAP1 POP PUSH3 0x1BB SWAP2 SWAP1 PUSH3 0x1BF JUMP JUMPDEST POP SWAP1 JUMP JUMPDEST JUMPDEST DUP1 DUP3 GT ISZERO PUSH3 0x1DA JUMPI PUSH1 0x0 DUP2 PUSH1 0x0 SWAP1 SSTORE POP PUSH1 0x1 ADD PUSH3 0x1C0 JUMP JUMPDEST POP SWAP1 JUMP JUMPDEST PUSH1 0x0 PUSH1 0x40 MLOAD SWAP1 POP SWAP1 JUMP JUMPDEST PUSH1 0x0 DUP1 REVERT JUMPDEST PUSH1 0x0 DUP1 REVERT JUMPDEST PUSH1 0x0 DUP1 REVERT JUMPDEST PUSH1 0x0 DUP1 REVERT JUMPDEST PUSH1 0x0 PUSH1 0x1F NOT PUSH1 0x1F DUP4 ADD AND SWAP1 POP SWAP2 SWAP1 POP JUMP JUMPDEST PUSH32 0x4E487B7100000000000000000000000000000000000000000000000000000000 PUSH1 0x0 MSTORE PUSH1 0x41 PUSH1 0x4 MSTORE PUSH1 0x24 PUSH1 0x0 REVERT JUMPDEST PUSH3 0x247 DUP3 PUSH3 0x1FC JUMP JUMPDEST DUP2 ADD DUP2 DUP2 LT PUSH8 0xFFFFFFFFFFFFFFFF DUP3 GT OR ISZERO PUSH3 0x269 JUMPI PUSH3 0x268 PUSH3 0x20D JUMP JUMPDEST JUMPDEST DUP1 PUSH1 0x40 MSTORE POP POP POP JUMP JUMPDEST PUSH1 0x0 PUSH3 0x27E PUSH3 0x1DE JUMP JUMPDEST SWAP1 POP PUSH3 0x28C DUP3 DUP3 PUSH3 0x23C JUMP JUMPDEST SWAP2 SWAP1 POP JUMP JUMPDEST PUSH1 0x0 PUSH8 0xFFFFFFFFFFFFFFFF DUP3 GT ISZERO PUSH3 0x2AF JUMPI PUSH3 0x2AE PUSH3 0x20D JUMP JUMPDEST JUMPDEST PUSH3 0x2BA DUP3 PUSH3 0x1FC JUMP JUMPDEST SWAP1 POP PUSH1 0x20 DUP2 ADD SWAP1 POP SWAP2 SWAP1 POP JUMP JUMPDEST PUSH1 0x0 JUMPDEST DUP4 DUP2 LT ISZERO PUSH3 0x2E7 JUMPI DUP1 DUP3 ADD MLOAD DUP2 DUP5 ADD MSTORE PUSH1 0x20 DUP2 ADD SWAP1 POP PUSH3 0x2CA JUMP JUMPDEST DUP4 DUP2 GT ISZERO PUSH3 0x2F7 JUMPI PUSH1 0x0 DUP5 DUP5 ADD MSTORE JUMPDEST POP POP POP POP JUMP JUMPDEST PUSH1 0x0 PUSH3 0x314 PUSH3 0x30E DUP5 PUSH3 0x291 JUMP JUMPDEST PUSH3 0x272 JUMP JUMPDEST SWAP1 POP DUP3 DUP2 MSTORE PUSH1 0x20 DUP2 ADD DUP5 DUP5 DUP5 ADD GT ISZERO PUSH3 0x333 JUMPI PUSH3 0x332 PUSH3 0x1F7 JUMP JUMPDEST JUMPDEST PUSH3 0x340 DUP5 DUP3 DUP6 PUSH3 0x2C7 JUMP JUMPDEST POP SWAP4 SWAP3 POP POP POP JUMP JUMPDEST PUSH1 0x0 DUP3 PUSH1 0x1F DUP4 ADD SLT PUSH3 0x360 JUMPI PUSH3 0x35F PUSH3 0x1F2 JUMP JUMPDEST JUMPDEST DUP2 MLOAD PUSH3 0x372 DUP5 DUP3 PUSH1 0x20 DUP7 ADD PUSH3 0x2FD JUMP JUMPDEST SWAP2 POP POP SWAP3 SWAP2 POP POP JUMP JUMPDEST PUSH1 0x0 DUP2 SWAP1 POP SWAP2 SWAP1 POP JUMP JUMPDEST PUSH3 0x390 DUP2 PUSH3 0x37B JUMP JUMPDEST DUP2 EQ PUSH3 0x39C JUMPI PUSH1 0x0 DUP1 REVERT JUMPDEST POP JUMP JUMPDEST PUSH1 0x0 DUP2 MLOAD SWAP1 POP PUSH3 0x3B0 DUP2 PUSH3 0x385 JUMP JUMPDEST SWAP3 SWAP2 POP POP JUMP JUMPDEST PUSH1 0x0 DUP1 PUSH1 0x0 DUP1 PUSH1 0x0 PUSH1 0xA0 DUP7 DUP9 SUB SLT ISZERO PUSH3 0x3D5 JUMPI PUSH3 0x3D4 PUSH3 0x1E8 JUMP JUMPDEST JUMPDEST PUSH1 0x0 DUP7 ADD MLOAD PUSH8 0xFFFFFFFFFFFFFFFF DUP2 GT ISZERO PUSH3 0x3F6 JUMPI PUSH3 0x3F5 PUSH3 0x1ED JUMP JUMPDEST JUMPDEST PUSH3 0x404 DUP9 DUP3 DUP10 ADD PUSH3 0x348 JUMP JUMPDEST SWAP6 POP POP PUSH1 0x20 DUP7 ADD MLOAD PUSH8 0xFFFFFFFFFFFFFFFF DUP2 GT ISZERO PUSH3 0x428 JUMPI PUSH3 0x427 PUSH3 0x1ED JUMP JUMPDEST JUMPDEST PUSH3 0x436 DUP9 DUP3 DUP10 ADD PUSH3 0x348 JUMP JUMPDEST SWAP5 POP POP PUSH1 0x40 PUSH3 0x449 DUP9 DUP3 DUP10 ADD PUSH3 0x39F JUMP JUMPDEST SWAP4 POP POP PUSH1 0x60 PUSH3 0x45C DUP9 DUP3 DUP10 ADD PUSH3 0x39F JUMP JUMPDEST SWAP3 POP POP PUSH1 0x80 PUSH3 0x46F DUP9 DUP3 DUP10 ADD PUSH3 0x39F JUMP JUMPDEST SWAP2 POP POP SWAP3 SWAP6 POP SWAP3 SWAP6 SWAP1 SWAP4 POP JUMP JUMPDEST PUSH32 0x4E487B7100000000000000000000000000000000000000000000000000000000 PUSH1 0x0 MSTORE PUSH1 0x21 PUSH1 0x4 MSTORE PUSH1 0x24 PUSH1 0x0 REVERT JUMPDEST PUSH32 0x4E487B7100000000000000000000000000000000000000000000000000000000 PUSH1 0x0 MSTORE PUSH1 0x11 PUSH1 0x4 MSTORE PUSH1 0x24 PUSH1 0x0 REVERT JUMPDEST PUSH1 0x0 PUSH3 0x4E7 DUP3 PUSH3 0x37B JUMP JUMPDEST SWAP2 POP PUSH3 0x4F4 DUP4 PUSH3 0x37B JUMP JUMPDEST SWAP3 POP DUP2 PUSH32 0xFFFFFFFFFFFFFFFFFFFFFFFFFFFFFFFFFFFFFFFFFFFFFFFFFFFFFFFFFFFFFFFF DIV DUP4 GT DUP3 ISZERO ISZERO AND ISZERO PUSH3 0x530 JUMPI PUSH3 0x52F PUSH3 0x4AB JUMP JUMPDEST JUMPDEST DUP3 DUP3 MUL SWAP1 POP SWAP3 SWAP2 POP POP JUMP JUMPDEST PUSH1 0x0 PUSH3 0x548 DUP3 PUSH3 0x37B JUMP JUMPDEST SWAP2 POP PUSH3 0x555 DUP4 PUSH3 0x37B JUMP JUMPDEST SWAP3 POP DUP3 PUSH32 0xFFFFFFFFFFFFFFFFFFFFFFFFFFFFFFFFFFFFFFFFFFFFFFFFFFFFFFFFFFFFFFFF SUB DUP3 GT ISZERO PUSH3 0x58D JUMPI PUSH3 0x58C PUSH3 0x4AB JUMP JUMPDEST JUMPDEST DUP3 DUP3 ADD SWAP1 POP SWAP3 SWAP2 POP POP JUMP JUMPDEST PUSH32 0x4E487B7100000000000000000000000000000000000000000000000000000000 PUSH1 0x0 MSTORE PUSH1 0x22 PUSH1 0x4 MSTORE PUSH1 0x24 PUSH1 0x0 REVERT JUMPDEST PUSH1 0x0 PUSH1 0x2 DUP3 DIV SWAP1 POP PUSH1 0x1 DUP3 AND DUP1 PUSH3 0x5E0 JUMPI PUSH1 0x7F DUP3 AND SWAP2 POP JUMPDEST PUSH1 0x20 DUP3 LT DUP2 EQ ISZERO PUSH3 0x5F7 JUMPI PUSH3 0x5F6 PUSH3 0x598 JUMP JUMPDEST JUMPDEST POP SWAP2 SWAP1 POP JUMP JUMPDEST PUSH1 0x80 MLOAD PUSH2 0x15F2 PUSH3 0x620 PUSH1 0x0 CODECOPY PUSH1 0x0 DUP2 DUP2 PUSH2 0xADF ADD MSTORE PUSH2 0xD30 ADD MSTORE PUSH2 0x15F2 PUSH1 0x0 RETURN INVALID PUSH1 0x80 PUSH1 0x40 MSTORE PUSH1 0x4 CALLDATASIZE LT PUSH2 0x10D JUMPI PUSH1 0x0 CALLDATALOAD PUSH1 0xE0 SHR DUP1 PUSH4 0xB14D38C2 GT PUSH2 0x95 JUMPI DUP1 PUSH4 0xD50FAC49 GT PUSH2 0x64 JUMPI DUP1 PUSH4 0xD50FAC49 EQ PUSH2 0x34F JUMPI DUP1 PUSH4 0xE348C518 EQ PUSH2 0x359 JUMPI DUP1 PUSH4 0xE3CE8164 EQ PUSH2 0x384 JUMPI DUP1 PUSH4 0xE7425109 EQ PUSH2 0x3AF JUMPI DUP1 PUSH4 0xF7A7E57E EQ PUSH2 0x3DA JUMPI PUSH2 0x11C JUMP JUMPDEST DUP1 PUSH4 0xB14D38C2 EQ PUSH2 0x293 JUMPI DUP1 PUSH4 0xB25924C1 EQ PUSH2 0x2AA JUMPI DUP1 PUSH4 0xBBDE609A EQ PUSH2 0x2E7 JUMPI DUP1 PUSH4 0xCAC9A391 EQ PUSH2 0x324 JUMPI PUSH2 0x11C JUMP JUMPDEST DUP1 PUSH4 0x8D1750C5 GT PUSH2 0xDC JUMPI DUP1 PUSH4 0x8D1750C5 EQ PUSH2 0x1E4 JUMPI DUP1 PUSH4 0x8F75C1FB EQ PUSH2 0x20F JUMPI DUP1 PUSH4 0x93A39B2E EQ PUSH2 0x23A JUMPI DUP1 PUSH4 0x95DF868D EQ PUSH2 0x251 JUMPI DUP1 PUSH4 0xA4E58A87 EQ PUSH2 0x27C JUMPI PUSH2 0x11C JUMP JUMPDEST DUP1 PUSH4 0x225682D1 EQ PUSH2 0x126 JUMPI DUP1 PUSH4 0x3DEFF252 EQ PUSH2 0x151 JUMPI DUP1 PUSH4 0x7BD82410 EQ PUSH2 0x17C JUMPI DUP1 PUSH4 0x8B83BA26 EQ PUSH2 0x1A7 JUMPI PUSH2 0x11C JUMP JUMPDEST CALLDATASIZE PUSH2 0x11C JUMPI PUSH2 0x11A PUSH2 0x405 JUMP JUMPDEST STOP JUMPDEST PUSH2 0x124 PUSH2 0x405 JUMP JUMPDEST STOP JUMPDEST CALLVALUE DUP1 ISZERO PUSH2 0x132 JUMPI PUSH1 0x0 DUP1 REVERT JUMPDEST POP PUSH2 0x13B PUSH2 0x623 JUMP JUMPDEST PUSH1 0x40 MLOAD PUSH2 0x148 SWAP2 SWAP1 PUSH2 0xD6B JUMP JUMPDEST PUSH1 0x40 MLOAD DUP1 SWAP2 SUB SWAP1 RETURN JUMPDEST CALLVALUE DUP1 ISZERO PUSH2 0x15D JUMPI PUSH1 0x0 DUP1 REVERT JUMPDEST POP PUSH2 0x166 PUSH2 0x62B JUMP JUMPDEST PUSH1 0x40 MLOAD PUSH2 0x173 SWAP2 SWAP1 PUSH2 0xE1F JUMP JUMPDEST PUSH1 0x40 MLOAD DUP1 SWAP2 SUB SWAP1 RETURN JUMPDEST CALLVALUE DUP1 ISZERO PUSH2 0x188 JUMPI PUSH1 0x0 DUP1 REVERT JUMPDEST POP PUSH2 0x191 PUSH2 0x6B9 JUMP JUMPDEST PUSH1 0x40 MLOAD PUSH2 0x19E SWAP2 SWAP1 PUSH2 0xD6B JUMP JUMPDEST PUSH1 0x40 MLOAD DUP1 SWAP2 SUB SWAP1 RETURN JUMPDEST CALLVALUE DUP1 ISZERO PUSH2 0x1B3 JUMPI PUSH1 0x0 DUP1 REVERT JUMPDEST POP PUSH2 0x1CE PUSH1 0x4 DUP1 CALLDATASIZE SUB DUP2 ADD SWAP1 PUSH2 0x1C9 SWAP2 SWAP1 PUSH2 0xEA4 JUMP JUMPDEST PUSH2 0x6BF JUMP JUMPDEST PUSH1 0x40 MLOAD PUSH2 0x1DB SWAP2 SWAP1 PUSH2 0xD6B JUMP JUMPDEST PUSH1 0x40 MLOAD DUP1 SWAP2 SUB SWAP1 RETURN JUMPDEST CALLVALUE DUP1 ISZERO PUSH2 0x1F0 JUMPI PUSH1 0x0 DUP1 REVERT JUMPDEST POP PUSH2 0x1F9 PUSH2 0x708 JUMP JUMPDEST PUSH1 0x40 MLOAD PUSH2 0x206 SWAP2 SWAP1 PUSH2 0xF48 JUMP JUMPDEST PUSH1 0x40 MLOAD DUP1 SWAP2 SUB SWAP1 RETURN JUMPDEST CALLVALUE DUP1 ISZERO PUSH2 0x21B JUMPI PUSH1 0x0 DUP1 REVERT JUMPDEST POP PUSH2 0x224 PUSH2 0x71B JUMP JUMPDEST PUSH1 0x40 MLOAD PUSH2 0x231 SWAP2 SWAP1 PUSH2 0xF84 JUMP JUMPDEST PUSH1 0x40 MLOAD DUP1 SWAP2 SUB SWAP1 RETURN JUMPDEST CALLVALUE DUP1 ISZERO PUSH2 0x246 JUMPI PUSH1 0x0 DUP1 REVERT JUMPDEST POP PUSH2 0x24F PUSH2 0x73F JUMP JUMPDEST STOP JUMPDEST CALLVALUE DUP1 ISZERO PUSH2 0x25D JUMPI PUSH1 0x0 DUP1 REVERT JUMPDEST POP PUSH2 0x266 PUSH2 0x836 JUMP JUMPDEST PUSH1 0x40 MLOAD PUSH2 0x273 SWAP2 SWAP1 PUSH2 0xD6B JUMP JUMPDEST PUSH1 0x40 MLOAD DUP1 SWAP2 SUB SWAP1 RETURN JUMPDEST CALLVALUE DUP1 ISZERO PUSH2 0x288 JUMPI PUSH1 0x0 DUP1 REVERT JUMPDEST POP PUSH2 0x291 PUSH2 0x83C JUMP JUMPDEST STOP JUMPDEST CALLVALUE DUP1 ISZERO PUSH2 0x29F JUMPI PUSH1 0x0 DUP1 REVERT JUMPDEST POP PUSH2 0x2A8 PUSH2 0xA14 JUMP JUMPDEST STOP JUMPDEST CALLVALUE DUP1 ISZERO PUSH2 0x2B6 JUMPI PUSH1 0x0 DUP1 REVERT JUMPDEST POP PUSH2 0x2D1 PUSH1 0x4 DUP1 CALLDATASIZE SUB DUP2 ADD SWAP1 PUSH2 0x2CC SWAP2 SWAP1 PUSH2 0xFCB JUMP JUMPDEST PUSH2 0xBA8 JUMP JUMPDEST PUSH1 0x40 MLOAD PUSH2 0x2DE SWAP2 SWAP1 PUSH2 0x1007 JUMP JUMPDEST PUSH1 0x40 MLOAD DUP1 SWAP2 SUB SWAP1 RETURN JUMPDEST CALLVALUE DUP1 ISZERO PUSH2 0x2F3 JUMPI PUSH1 0x0 DUP1 REVERT JUMPDEST POP PUSH2 0x30E PUSH1 0x4 DUP1 CALLDATASIZE SUB DUP2 ADD SWAP1 PUSH2 0x309 SWAP2 SWAP1 PUSH2 0xEA4 JUMP JUMPDEST PUSH2 0xBE7 JUMP JUMPDEST PUSH1 0x40 MLOAD PUSH2 0x31B SWAP2 SWAP1 PUSH2 0xD6B JUMP JUMPDEST PUSH1 0x40 MLOAD DUP1 SWAP2 SUB SWAP1 RETURN JUMPDEST CALLVALUE DUP1 ISZERO PUSH2 0x330 JUMPI PUSH1 0x0 DUP1 REVERT JUMPDEST POP PUSH2 0x339 PUSH2 0xBFF JUMP JUMPDEST PUSH1 0x40 MLOAD PUSH2 0x346 SWAP2 SWAP1 PUSH2 0x10E0 JUMP JUMPDEST PUSH1 0x40 MLOAD DUP1 SWAP2 SUB SWAP1 RETURN JUMPDEST PUSH2 0x357 PUSH2 0x405 JUMP JUMPDEST STOP JUMPDEST CALLVALUE DUP1 ISZERO PUSH2 0x365 JUMPI PUSH1 0x0 DUP1 REVERT JUMPDEST POP PUSH2 0x36E PUSH2 0xC8D JUMP JUMPDEST PUSH1 0x40 MLOAD PUSH2 0x37B SWAP2 SWAP1 PUSH2 0xD6B JUMP JUMPDEST PUSH1 0x40 MLOAD DUP1 SWAP2 SUB SWAP1 RETURN JUMPDEST CALLVALUE DUP1 ISZERO PUSH2 0x390 JUMPI PUSH1 0x0 DUP1 REVERT JUMPDEST POP PUSH2 0x399 PUSH2 0xC93 JUMP JUMPDEST PUSH1 0x40 MLOAD PUSH2 0x3A6 SWAP2 SWAP1 PUSH2 0xD6B JUMP JUMPDEST PUSH1 0x40 MLOAD DUP1 SWAP2 SUB SWAP1 RETURN JUMPDEST CALLVALUE DUP1 ISZERO PUSH2 0x3BB JUMPI PUSH1 0x0 DUP1 REVERT JUMPDEST POP PUSH2 0x3C4 PUSH2 0xCA0 JUMP JUMPDEST PUSH1 0x40 MLOAD PUSH2 0x3D1 SWAP2 SWAP1 PUSH2 0xE1F JUMP JUMPDEST PUSH1 0x40 MLOAD DUP1 SWAP2 SUB SWAP1 RETURN JUMPDEST CALLVALUE DUP1 ISZERO PUSH2 0x3E6 JUMPI PUSH1 0x0 DUP1 REVERT JUMPDEST POP PUSH2 0x3EF PUSH2 0xD2E JUMP JUMPDEST PUSH1 0x40 MLOAD PUSH2 0x3FC SWAP2 SWAP1 PUSH2 0xD6B JUMP JUMPDEST PUSH1 0x40 MLOAD DUP1 SWAP2 SUB SWAP1 RETURN JUMPDEST PUSH1 0x5 SLOAD CALLVALUE LT ISZERO PUSH2 0x44A JUMPI PUSH1 0x40 MLOAD PUSH32 0x8C379A000000000000000000000000000000000000000000000000000000000 DUP2 MSTORE PUSH1 0x4 ADD PUSH2 0x441 SWAP1 PUSH2 0x1174 JUMP JUMPDEST PUSH1 0x40 MLOAD DUP1 SWAP2 SUB SWAP1 REVERT JUMPDEST PUSH1 0x0 PUSH1 0x2 DUP2 GT ISZERO PUSH2 0x45E JUMPI PUSH2 0x45D PUSH2 0xED1 JUMP JUMPDEST JUMPDEST PUSH1 0x3 PUSH1 0x0 SWAP1 SLOAD SWAP1 PUSH2 0x100 EXP SWAP1 DIV PUSH1 0xFF AND PUSH1 0x2 DUP2 GT ISZERO PUSH2 0x480 JUMPI PUSH2 0x47F PUSH2 0xED1 JUMP JUMPDEST JUMPDEST EQ PUSH2 0x4C0 JUMPI PUSH1 0x40 MLOAD PUSH32 0x8C379A000000000000000000000000000000000000000000000000000000000 DUP2 MSTORE PUSH1 0x4 ADD PUSH2 0x4B7 SWAP1 PUSH2 0x11E0 JUMP JUMPDEST PUSH1 0x40 MLOAD DUP1 SWAP2 SUB SWAP1 REVERT JUMPDEST PUSH1 0x0 PUSH1 0x6 PUSH1 0x0 CALLER PUSH20 0xFFFFFFFFFFFFFFFFFFFFFFFFFFFFFFFFFFFFFFFF AND PUSH20 0xFFFFFFFFFFFFFFFFFFFFFFFFFFFFFFFFFFFFFFFF AND DUP2 MSTORE PUSH1 0x20 ADD SWAP1 DUP2 MSTORE PUSH1 0x20 ADD PUSH1 0x0 KECCAK256 SLOAD EQ ISZERO PUSH2 0x56C JUMPI PUSH1 0x7 CALLER SWAP1 DUP1 PUSH1 0x1 DUP2 SLOAD ADD DUP1 DUP3 SSTORE DUP1 SWAP2 POP POP PUSH1 0x1 SWAP1 SUB SWAP1 PUSH1 0x0 MSTORE PUSH1 0x20 PUSH1 0x0 KECCAK256 ADD PUSH1 0x0 SWAP1 SWAP2 SWAP1 SWAP2 SWAP1 SWAP2 PUSH2 0x100 EXP DUP2 SLOAD DUP2 PUSH20 0xFFFFFFFFFFFFFFFFFFFFFFFFFFFFFFFFFFFFFFFF MUL NOT AND SWAP1 DUP4 PUSH20 0xFFFFFFFFFFFFFFFFFFFFFFFFFFFFFFFFFFFFFFFF AND MUL OR SWAP1 SSTORE POP JUMPDEST PUSH1 0x0 PUSH1 0x5 SLOAD CALLVALUE PUSH2 0x57C SWAP2 SWAP1 PUSH2 0x125E JUMP JUMPDEST SWAP1 POP DUP1 PUSH1 0x6 PUSH1 0x0 CALLER PUSH20 0xFFFFFFFFFFFFFFFFFFFFFFFFFFFFFFFFFFFFFFFF AND PUSH20 0xFFFFFFFFFFFFFFFFFFFFFFFFFFFFFFFFFFFFFFFF AND DUP2 MSTORE PUSH1 0x20 ADD SWAP1 DUP2 MSTORE PUSH1 0x20 ADD PUSH1 0x0 KECCAK256 SLOAD PUSH2 0x5C9 SWAP2 SWAP1 PUSH2 0x128F JUMP JUMPDEST PUSH1 0x6 PUSH1 0x0 CALLER PUSH20 0xFFFFFFFFFFFFFFFFFFFFFFFFFFFFFFFFFFFFFFFF AND PUSH20 0xFFFFFFFFFFFFFFFFFFFFFFFFFFFFFFFFFFFFFFFF AND DUP2 MSTORE PUSH1 0x20 ADD SWAP1 DUP2 MSTORE PUSH1 0x20 ADD PUSH1 0x0 KECCAK256 DUP2 SWAP1 SSTORE POP DUP1 PUSH1 0x8 SLOAD PUSH2 0x61A SWAP2 SWAP1 PUSH2 0x128F JUMP JUMPDEST PUSH1 0x8 DUP2 SWAP1 SSTORE POP POP JUMP JUMPDEST PUSH1 0x0 SELFBALANCE SWAP1 POP SWAP1 JUMP JUMPDEST PUSH1 0x1 DUP1 SLOAD PUSH2 0x638 SWAP1 PUSH2 0x1314 JUMP JUMPDEST DUP1 PUSH1 0x1F ADD PUSH1 0x20 DUP1 SWAP2 DIV MUL PUSH1 0x20 ADD PUSH1 0x40 MLOAD SWAP1 DUP2 ADD PUSH1 0x40 MSTORE DUP1 SWAP3 SWAP2 SWAP1 DUP2 DUP2 MSTORE PUSH1 0x20 ADD DUP3 DUP1 SLOAD PUSH2 0x664 SWAP1 PUSH2 0x1314 JUMP JUMPDEST DUP1 ISZERO PUSH2 0x6B1 JUMPI DUP1 PUSH1 0x1F LT PUSH2 0x686 JUMPI PUSH2 0x100 DUP1 DUP4 SLOAD DIV MUL DUP4 MSTORE SWAP2 PUSH1 0x20 ADD SWAP2 PUSH2 0x6B1 JUMP JUMPDEST DUP3 ADD SWAP2 SWAP1 PUSH1 0x0 MSTORE PUSH1 0x20 PUSH1 0x0 KECCAK256 SWAP1 JUMPDEST DUP2 SLOAD DUP2 MSTORE SWAP1 PUSH1 0x1 ADD SWAP1 PUSH1 0x20 ADD DUP1 DUP4 GT PUSH2 0x694 JUMPI DUP3 SWAP1 SUB PUSH1 0x1F AND DUP3 ADD SWAP2 JUMPDEST POP POP POP POP POP DUP2 JUMP JUMPDEST PUSH1 0x8 SLOAD DUP2 JUMP JUMPDEST PUSH1 0x0 PUSH1 0x6 PUSH1 0x0 DUP4 PUSH20 0xFFFFFFFFFFFFFFFFFFFFFFFFFFFFFFFFFFFFFFFF AND PUSH20 0xFFFFFFFFFFFFFFFFFFFFFFFFFFFFFFFFFFFFFFFF AND DUP2 MSTORE PUSH1 0x20 ADD SWAP1 DUP2 MSTORE PUSH1 0x20 ADD PUSH1 0x0 KECCAK256 SLOAD SWAP1 POP SWAP2 SWAP1 POP JUMP JUMPDEST PUSH1 0x3 PUSH1 0x0 SWAP1 SLOAD SWAP1 PUSH2 0x100 EXP SWAP1 DIV PUSH1 0xFF AND DUP2 JUMP JUMPDEST PUSH1 0x0 DUP1 SLOAD SWAP1 PUSH2 0x100 EXP SWAP1 DIV PUSH20 0xFFFFFFFFFFFFFFFFFFFFFFFFFFFFFFFFFFFFFFFF AND DUP2 JUMP JUMPDEST CALLER PUSH20 0xFFFFFFFFFFFFFFFFFFFFFFFFFFFFFFFFFFFFFFFF AND PUSH1 0x0 DUP1 SLOAD SWAP1 PUSH2 0x100 EXP SWAP1 DIV PUSH20 0xFFFFFFFFFFFFFFFFFFFFFFFFFFFFFFFFFFFFFFFF AND PUSH20 0xFFFFFFFFFFFFFFFFFFFFFFFFFFFFFFFFFFFFFFFF AND EQ PUSH2 0x7CD JUMPI PUSH1 0x40 MLOAD PUSH32 0x8C379A000000000000000000000000000000000000000000000000000000000 DUP2 MSTORE PUSH1 0x4 ADD PUSH2 0x7C4 SWAP1 PUSH2 0x1392 JUMP JUMPDEST PUSH1 0x40 MLOAD DUP1 SWAP2 SUB SWAP1 REVERT JUMPDEST PUSH1 0x0 DUP1 SLOAD SWAP1 PUSH2 0x100 EXP SWAP1 DIV PUSH20 0xFFFFFFFFFFFFFFFFFFFFFFFFFFFFFFFFFFFFFFFF AND PUSH20 0xFFFFFFFFFFFFFFFFFFFFFFFFFFFFFFFFFFFFFFFF AND PUSH2 0x8FC SELFBALANCE SWAP1 DUP2 ISZERO MUL SWAP1 PUSH1 0x40 MLOAD PUSH1 0x0 PUSH1 0x40 MLOAD DUP1 DUP4 SUB DUP2 DUP6 DUP9 DUP9 CALL SWAP4 POP POP POP POP ISZERO DUP1 ISZERO PUSH2 0x833 JUMPI RETURNDATASIZE PUSH1 0x0 DUP1 RETURNDATACOPY RETURNDATASIZE PUSH1 0x0 REVERT JUMPDEST POP JUMP JUMPDEST PUSH1 0x4 SLOAD DUP2 JUMP JUMPDEST PUSH1 0x0 PUSH1 0x6 PUSH1 0x0 CALLER PUSH20 0xFFFFFFFFFFFFFFFFFFFFFFFFFFFFFFFFFFFFFFFF AND PUSH20 0xFFFFFFFFFFFFFFFFFFFFFFFFFFFFFFFFFFFFFFFF AND DUP2 MSTORE PUSH1 0x20 ADD SWAP1 DUP2 MSTORE PUSH1 0x20 ADD PUSH1 0x0 KECCAK256 SLOAD GT PUSH2 0x8BE JUMPI PUSH1 0x40 MLOAD PUSH32 0x8C379A000000000000000000000000000000000000000000000000000000000 DUP2 MSTORE PUSH1 0x4 ADD PUSH2 0x8B5 SWAP1 PUSH2 0x13FE JUMP JUMPDEST PUSH1 0x40 MLOAD DUP1 SWAP2 SUB SWAP1 REVERT JUMPDEST PUSH1 0x1 PUSH1 0x2 DUP2 GT ISZERO PUSH2 0x8D2 JUMPI PUSH2 0x8D1 PUSH2 0xED1 JUMP JUMPDEST JUMPDEST PUSH1 0x3 PUSH1 0x0 SWAP1 SLOAD SWAP1 PUSH2 0x100 EXP SWAP1 DIV PUSH1 0xFF AND PUSH1 0x2 DUP2 GT ISZERO PUSH2 0x8F4 JUMPI PUSH2 0x8F3 PUSH2 0xED1 JUMP JUMPDEST JUMPDEST EQ PUSH2 0x934 JUMPI PUSH1 0x40 MLOAD PUSH32 0x8C379A000000000000000000000000000000000000000000000000000000000 DUP2 MSTORE PUSH1 0x4 ADD PUSH2 0x92B SWAP1 PUSH2 0x146A JUMP JUMPDEST PUSH1 0x40 MLOAD DUP1 SWAP2 SUB SWAP1 REVERT JUMPDEST PUSH1 0x0 PUSH1 0x5 SLOAD PUSH1 0x6 PUSH1 0x0 CALLER PUSH20 0xFFFFFFFFFFFFFFFFFFFFFFFFFFFFFFFFFFFFFFFF AND PUSH20 0xFFFFFFFFFFFFFFFFFFFFFFFFFFFFFFFFFFFFFFFF AND DUP2 MSTORE PUSH1 0x20 ADD SWAP1 DUP2 MSTORE PUSH1 0x20 ADD PUSH1 0x0 KECCAK256 SLOAD PUSH2 0x983 SWAP2 SWAP1 PUSH2 0x148A JUMP JUMPDEST SWAP1 POP PUSH1 0x0 PUSH1 0x6 PUSH1 0x0 CALLER PUSH20 0xFFFFFFFFFFFFFFFFFFFFFFFFFFFFFFFFFFFFFFFF AND PUSH20 0xFFFFFFFFFFFFFFFFFFFFFFFFFFFFFFFFFFFFFFFF AND DUP2 MSTORE PUSH1 0x20 ADD SWAP1 DUP2 MSTORE PUSH1 0x20 ADD PUSH1 0x0 KECCAK256 DUP2 SWAP1 SSTORE POP CALLER PUSH20 0xFFFFFFFFFFFFFFFFFFFFFFFFFFFFFFFFFFFFFFFF AND PUSH2 0x8FC DUP3 SWAP1 DUP2 ISZERO MUL SWAP1 PUSH1 0x40 MLOAD PUSH1 0x0 PUSH1 0x40 MLOAD DUP1 DUP4 SUB DUP2 DUP6 DUP9 DUP9 CALL SWAP4 POP POP POP POP ISZERO DUP1 ISZERO PUSH2 0xA10 JUMPI RETURNDATASIZE PUSH1 0x0 DUP1 RETURNDATACOPY RETURNDATASIZE PUSH1 0x0 REVERT JUMPDEST POP POP JUMP JUMPDEST PUSH1 0x0 PUSH1 0x2 DUP2 GT ISZERO PUSH2 0xA28 JUMPI PUSH2 0xA27 PUSH2 0xED1 JUMP JUMPDEST JUMPDEST PUSH1 0x3 PUSH1 0x0 SWAP1 SLOAD SWAP1 PUSH2 0x100 EXP SWAP1 DIV PUSH1 0xFF AND PUSH1 0x2 DUP2 GT ISZERO PUSH2 0xA4A JUMPI PUSH2 0xA49 PUSH2 0xED1 JUMP JUMPDEST JUMPDEST EQ PUSH2 0xA8A JUMPI PUSH1 0x40 MLOAD PUSH32 0x8C379A000000000000000000000000000000000000000000000000000000000 DUP2 MSTORE PUSH1 0x4 ADD PUSH2 0xA81 SWAP1 PUSH2 0x1530 JUMP JUMPDEST PUSH1 0x40 MLOAD DUP1 SWAP2 SUB SWAP1 REVERT JUMPDEST PUSH1 0x0 DUP1 SLOAD SWAP1 PUSH2 0x100 EXP SWAP1 DIV PUSH20 0xFFFFFFFFFFFFFFFFFFFFFFFFFFFFFFFFFFFFFFFF AND PUSH20 0xFFFFFFFFFFFFFFFFFFFFFFFFFFFFFFFFFFFFFFFF AND CALLER PUSH20 0xFFFFFFFFFFFFFFFFFFFFFFFFFFFFFFFFFFFFFFFF AND EQ PUSH2 0xB41 JUMPI PUSH32 0x0 TIMESTAMP LT ISZERO PUSH2 0xB40 JUMPI PUSH1 0x40 MLOAD PUSH32 0x8C379A000000000000000000000000000000000000000000000000000000000 DUP2 MSTORE PUSH1 0x4 ADD PUSH2 0xB37 SWAP1 PUSH2 0x159C JUMP JUMPDEST PUSH1 0x40 MLOAD DUP1 SWAP2 SUB SWAP1 REVERT JUMPDEST JUMPDEST SELFBALANCE PUSH1 0x4 SLOAD GT PUSH2 0xB7A JUMPI PUSH1 0x2 PUSH1 0x3 PUSH1 0x0 PUSH2 0x100 EXP DUP2 SLOAD DUP2 PUSH1 0xFF MUL NOT AND SWAP1 DUP4 PUSH1 0x2 DUP2 GT ISZERO PUSH2 0xB70 JUMPI PUSH2 0xB6F PUSH2 0xED1 JUMP JUMPDEST JUMPDEST MUL OR SWAP1 SSTORE POP PUSH2 0xBA6 JUMP JUMPDEST PUSH1 0x1 PUSH1 0x3 PUSH1 0x0 PUSH2 0x100 EXP DUP2 SLOAD DUP2 PUSH1 0xFF MUL NOT AND SWAP1 DUP4 PUSH1 0x2 DUP2 GT ISZERO PUSH2 0xBA0 JUMPI PUSH2 0xB9F PUSH2 0xED1 JUMP JUMPDEST JUMPDEST MUL OR SWAP1 SSTORE POP JUMPDEST JUMP JUMPDEST PUSH1 0x7 DUP2 DUP2 SLOAD DUP2 LT PUSH2 0xBB8 JUMPI PUSH1 0x0 DUP1 REVERT JUMPDEST SWAP1 PUSH1 0x0 MSTORE PUSH1 0x20 PUSH1 0x0 KECCAK256 ADD PUSH1 0x0 SWAP2 POP SLOAD SWAP1 PUSH2 0x100 EXP SWAP1 DIV PUSH20 0xFFFFFFFFFFFFFFFFFFFFFFFFFFFFFFFFFFFFFFFF AND DUP2 JUMP JUMPDEST PUSH1 0x6 PUSH1 0x20 MSTORE DUP1 PUSH1 0x0 MSTORE PUSH1 0x40 PUSH1 0x0 KECCAK256 PUSH1 0x0 SWAP2 POP SWAP1 POP SLOAD DUP2 JUMP JUMPDEST PUSH1 0x60 PUSH1 0x7 DUP1 SLOAD DUP1 PUSH1 0x20 MUL PUSH1 0x20 ADD PUSH1 0x40 MLOAD SWAP1 DUP2 ADD PUSH1 0x40 MSTORE DUP1 SWAP3 SWAP2 SWAP1 DUP2 DUP2 MSTORE PUSH1 0x20 ADD DUP3 DUP1 SLOAD DUP1 ISZERO PUSH2 0xC83 JUMPI PUSH1 0x20 MUL DUP3 ADD SWAP2 SWAP1 PUSH1 0x0 MSTORE PUSH1 0x20 PUSH1 0x0 KECCAK256 SWAP1 JUMPDEST DUP2 PUSH1 0x0 SWAP1 SLOAD SWAP1 PUSH2 0x100 EXP SWAP1 DIV PUSH20 0xFFFFFFFFFFFFFFFFFFFFFFFFFFFFFFFFFFFFFFFF AND PUSH20 0xFFFFFFFFFFFFFFFFFFFFFFFFFFFFFFFFFFFFFFFF AND DUP2 MSTORE PUSH1 0x20 ADD SWAP1 PUSH1 0x1 ADD SWAP1 DUP1 DUP4 GT PUSH2 0xC39 JUMPI JUMPDEST POP POP POP POP POP SWAP1 POP SWAP1 JUMP JUMPDEST PUSH1 0x5 SLOAD DUP2 JUMP JUMPDEST PUSH1 0x0 PUSH1 0x7 DUP1 SLOAD SWAP1 POP SWAP1 POP SWAP1 JUMP JUMPDEST PUSH1 0x2 DUP1 SLOAD PUSH2 0xCAD SWAP1 PUSH2 0x1314 JUMP JUMPDEST DUP1 PUSH1 0x1F ADD PUSH1 0x20 DUP1 SWAP2 DIV MUL PUSH1 0x20 ADD PUSH1 0x40 MLOAD SWAP1 DUP2 ADD PUSH1 0x40 MSTORE DUP1 SWAP3 SWAP2 SWAP1 DUP2 DUP2 MSTORE PUSH1 0x20 ADD DUP3 DUP1 SLOAD PUSH2 0xCD9 SWAP1 PUSH2 0x1314 JUMP JUMPDEST DUP1 ISZERO PUSH2 0xD26 JUMPI DUP1 PUSH1 0x1F LT PUSH2 0xCFB JUMPI PUSH2 0x100 DUP1 DUP4 SLOAD DIV MUL DUP4 MSTORE SWAP2 PUSH1 0x20 ADD SWAP2 PUSH2 0xD26 JUMP JUMPDEST DUP3 ADD SWAP2 SWAP1 PUSH1 0x0 MSTORE PUSH1 0x20 PUSH1 0x0 KECCAK256 SWAP1 JUMPDEST DUP2 SLOAD DUP2 MSTORE SWAP1 PUSH1 0x1 ADD SWAP1 PUSH1 0x20 ADD DUP1 DUP4 GT PUSH2 0xD09 JUMPI DUP3 SWAP1 SUB PUSH1 0x1F AND DUP3 ADD SWAP2 JUMPDEST POP POP POP POP POP DUP2 JUMP JUMPDEST PUSH32 0x0 DUP2 JUMP JUMPDEST PUSH1 0x0 DUP2 SWAP1 POP SWAP2 SWAP1 POP JUMP JUMPDEST PUSH2 0xD65 DUP2 PUSH2 0xD52 JUMP JUMPDEST DUP3 MSTORE POP POP JUMP JUMPDEST PUSH1 0x0 PUSH1 0x20 DUP3 ADD SWAP1 POP PUSH2 0xD80 PUSH1 0x0 DUP4 ADD DUP5 PUSH2 0xD5C JUMP JUMPDEST SWAP3 SWAP2 POP POP JUMP JUMPDEST PUSH1 0x0 DUP2 MLOAD SWAP1 POP SWAP2 SWAP1 POP JUMP JUMPDEST PUSH1 0x0 DUP3 DUP3 MSTORE PUSH1 0x20 DUP3 ADD SWAP1 POP SWAP3 SWAP2 POP POP JUMP JUMPDEST PUSH1 0x0 JUMPDEST DUP4 DUP2 LT ISZERO PUSH2 0xDC0 JUMPI DUP1 DUP3 ADD MLOAD DUP2 DUP5 ADD MSTORE PUSH1 0x20 DUP2 ADD SWAP1 POP PUSH2 0xDA5 JUMP JUMPDEST DUP4 DUP2 GT ISZERO PUSH2 0xDCF JUMPI PUSH1 0x0 DUP5 DUP5 ADD MSTORE JUMPDEST POP POP POP POP JUMP JUMPDEST PUSH1 0x0 PUSH1 0x1F NOT PUSH1 0x1F DUP4 ADD AND SWAP1 POP SWAP2 SWAP1 POP JUMP JUMPDEST PUSH1 0x0 PUSH2 0xDF1 DUP3 PUSH2 0xD86 JUMP JUMPDEST PUSH2 0xDFB DUP2 DUP6 PUSH2 0xD91 JUMP JUMPDEST SWAP4 POP PUSH2 0xE0B DUP2 DUP6 PUSH1 0x20 DUP7 ADD PUSH2 0xDA2 JUMP JUMPDEST PUSH2 0xE14 DUP2 PUSH2 0xDD5 JUMP JUMPDEST DUP5 ADD SWAP2 POP POP SWAP3 SWAP2 POP POP JUMP JUMPDEST PUSH1 0x0 PUSH1 0x20 DUP3 ADD SWAP1 POP DUP2 DUP2 SUB PUSH1 0x0 DUP4 ADD MSTORE PUSH2 0xE39 DUP2 DUP5 PUSH2 0xDE6 JUMP JUMPDEST SWAP1 POP SWAP3 SWAP2 POP POP JUMP JUMPDEST PUSH1 0x0 DUP1 REVERT JUMPDEST PUSH1 0x0 PUSH20 0xFFFFFFFFFFFFFFFFFFFFFFFFFFFFFFFFFFFFFFFF DUP3 AND SWAP1 POP SWAP2 SWAP1 POP JUMP JUMPDEST PUSH1 0x0 PUSH2 0xE71 DUP3 PUSH2 0xE46 JUMP JUMPDEST SWAP1 POP SWAP2 SWAP1 POP JUMP JUMPDEST PUSH2 0xE81 DUP2 PUSH2 0xE66 JUMP JUMPDEST DUP2 EQ PUSH2 0xE8C JUMPI PUSH1 0x0 DUP1 REVERT JUMPDEST POP JUMP JUMPDEST PUSH1 0x0 DUP2 CALLDATALOAD SWAP1 POP PUSH2 0xE9E DUP2 PUSH2 0xE78 JUMP JUMPDEST SWAP3 SWAP2 POP POP JUMP JUMPDEST PUSH1 0x0 PUSH1 0x20 DUP3 DUP5 SUB SLT ISZERO PUSH2 0xEBA JUMPI PUSH2 0xEB9 PUSH2 0xE41 JUMP JUMPDEST JUMPDEST PUSH1 0x0 PUSH2 0xEC8 DUP5 DUP3 DUP6 ADD PUSH2 0xE8F JUMP JUMPDEST SWAP2 POP POP SWAP3 SWAP2 POP POP JUMP JUMPDEST PUSH32 0x4E487B7100000000000000000000000000000000000000000000000000000000 PUSH1 0x0 MSTORE PUSH1 0x21 PUSH1 0x4 MSTORE PUSH1 0x24 PUSH1 0x0 REVERT JUMPDEST PUSH1 0x3 DUP2 LT PUSH2 0xF11 JUMPI PUSH2 0xF10 PUSH2 0xED1 JUMP JUMPDEST JUMPDEST POP JUMP JUMPDEST PUSH1 0x0 DUP2 SWAP1 POP PUSH2 0xF22 DUP3 PUSH2 0xF00 JUMP JUMPDEST SWAP2 SWAP1 POP JUMP JUMPDEST PUSH1 0x0 PUSH2 0xF32 DUP3 PUSH2 0xF14 JUMP JUMPDEST SWAP1 POP SWAP2 SWAP1 POP JUMP JUMPDEST PUSH2 0xF42 DUP2 PUSH2 0xF27 JUMP JUMPDEST DUP3 MSTORE POP POP JUMP JUMPDEST PUSH1 0x0 PUSH1 0x20 DUP3 ADD SWAP1 POP PUSH2 0xF5D PUSH1 0x0 DUP4 ADD DUP5 PUSH2 0xF39 JUMP JUMPDEST SWAP3 SWAP2 POP POP JUMP JUMPDEST PUSH1 0x0 PUSH2 0xF6E DUP3 PUSH2 0xE46 JUMP JUMPDEST SWAP1 POP SWAP2 SWAP1 POP JUMP JUMPDEST PUSH2 0xF7E DUP2 PUSH2 0xF63 JUMP JUMPDEST DUP3 MSTORE POP POP JUMP JUMPDEST PUSH1 0x0 PUSH1 0x20 DUP3 ADD SWAP1 POP PUSH2 0xF99 PUSH1 0x0 DUP4 ADD DUP5 PUSH2 0xF75 JUMP JUMPDEST SWAP3 SWAP2 POP POP JUMP JUMPDEST PUSH2 0xFA8 DUP2 PUSH2 0xD52 JUMP JUMPDEST DUP2 EQ PUSH2 0xFB3 JUMPI PUSH1 0x0 DUP1 REVERT JUMPDEST POP JUMP JUMPDEST PUSH1 0x0 DUP2 CALLDATALOAD SWAP1 POP PUSH2 0xFC5 DUP2 PUSH2 0xF9F JUMP JUMPDEST SWAP3 SWAP2 POP POP JUMP JUMPDEST PUSH1 0x0 PUSH1 0x20 DUP3 DUP5 SUB SLT ISZERO PUSH2 0xFE1 JUMPI PUSH2 0xFE0 PUSH2 0xE41 JUMP JUMPDEST JUMPDEST PUSH1 0x0 PUSH2 0xFEF DUP5 DUP3 DUP6 ADD PUSH2 0xFB6 JUMP JUMPDEST SWAP2 POP POP SWAP3 SWAP2 POP POP JUMP JUMPDEST PUSH2 0x1001 DUP2 PUSH2 0xE66 JUMP JUMPDEST DUP3 MSTORE POP POP JUMP JUMPDEST PUSH1 0x0 PUSH1 0x20 DUP3 ADD SWAP1 POP PUSH2 0x101C PUSH1 0x0 DUP4 ADD DUP5 PUSH2 0xFF8 JUMP JUMPDEST SWAP3 SWAP2 POP POP JUMP JUMPDEST PUSH1 0x0 DUP2 MLOAD SWAP1 POP SWAP2 SWAP1 POP JUMP JUMPDEST PUSH1 0x0 DUP3 DUP3 MSTORE PUSH1 0x20 DUP3 ADD SWAP1 POP SWAP3 SWAP2 POP POP JUMP JUMPDEST PUSH1 0x0 DUP2 SWAP1 POP PUSH1 0x20 DUP3 ADD SWAP1 POP SWAP2 SWAP1 POP JUMP JUMPDEST PUSH2 0x1057 DUP2 PUSH2 0xE66 JUMP JUMPDEST DUP3 MSTORE POP POP JUMP JUMPDEST PUSH1 0x0 PUSH2 0x1069 DUP4 DUP4 PUSH2 0x104E JUMP JUMPDEST PUSH1 0x20 DUP4 ADD SWAP1 POP SWAP3 SWAP2 POP POP JUMP JUMPDEST PUSH1 0x0 PUSH1 0x20 DUP3 ADD SWAP1 POP SWAP2 SWAP1 POP JUMP JUMPDEST PUSH1 0x0 PUSH2 0x108D DUP3 PUSH2 0x1022 JUMP JUMPDEST PUSH2 0x1097 DUP2 DUP6 PUSH2 0x102D JUMP JUMPDEST SWAP4 POP PUSH2 0x10A2 DUP4 PUSH2 0x103E JUMP JUMPDEST DUP1 PUSH1 0x0 JUMPDEST DUP4 DUP2 LT ISZERO PUSH2 0x10D3 JUMPI DUP2 MLOAD PUSH2 0x10BA DUP9 DUP3 PUSH2 0x105D JUMP JUMPDEST SWAP8 POP PUSH2 0x10C5 DUP4 PUSH2 0x1075 JUMP JUMPDEST SWAP3 POP POP PUSH1 0x1 DUP2 ADD SWAP1 POP PUSH2 0x10A6 JUMP JUMPDEST POP DUP6 SWAP4 POP POP POP POP SWAP3 SWAP2 POP POP JUMP JUMPDEST PUSH1 0x0 PUSH1 0x20 DUP3 ADD SWAP1 POP DUP2 DUP2 SUB PUSH1 0x0 DUP4 ADD MSTORE PUSH2 0x10FA DUP2 DUP5 PUSH2 0x1082 JUMP JUMPDEST SWAP1 POP SWAP3 SWAP2 POP POP JUMP JUMPDEST PUSH32 0x50617274696369706163696F6E206D696E696D61206E6F20616C63616E7A6164 PUSH1 0x0 DUP3 ADD MSTORE PUSH32 0x6100000000000000000000000000000000000000000000000000000000000000 PUSH1 0x20 DUP3 ADD MSTORE POP JUMP JUMPDEST PUSH1 0x0 PUSH2 0x115E PUSH1 0x21 DUP4 PUSH2 0xD91 JUMP JUMPDEST SWAP2 POP PUSH2 0x1169 DUP3 PUSH2 0x1102 JUMP JUMPDEST PUSH1 0x40 DUP3 ADD SWAP1 POP SWAP2 SWAP1 POP JUMP JUMPDEST PUSH1 0x0 PUSH1 0x20 DUP3 ADD SWAP1 POP DUP2 DUP2 SUB PUSH1 0x0 DUP4 ADD MSTORE PUSH2 0x118D DUP2 PUSH2 0x1151 JUMP JUMPDEST SWAP1 POP SWAP2 SWAP1 POP JUMP JUMPDEST PUSH32 0x46696E616C697A61646F20706C617A6F2070617274696369706163696F6E0000 PUSH1 0x0 DUP3 ADD MSTORE POP JUMP JUMPDEST PUSH1 0x0 PUSH2 0x11CA PUSH1 0x1E DUP4 PUSH2 0xD91 JUMP JUMPDEST SWAP2 POP PUSH2 0x11D5 DUP3 PUSH2 0x1194 JUMP JUMPDEST PUSH1 0x20 DUP3 ADD SWAP1 POP SWAP2 SWAP1 POP JUMP JUMPDEST PUSH1 0x0 PUSH1 0x20 DUP3 ADD SWAP1 POP DUP2 DUP2 SUB PUSH1 0x0 DUP4 ADD MSTORE PUSH2 0x11F9 DUP2 PUSH2 0x11BD JUMP JUMPDEST SWAP1 POP SWAP2 SWAP1 POP JUMP JUMPDEST PUSH32 0x4E487B7100000000000000000000000000000000000000000000000000000000 PUSH1 0x0 MSTORE PUSH1 0x12 PUSH1 0x4 MSTORE PUSH1 0x24 PUSH1 0x0 REVERT JUMPDEST PUSH32 0x4E487B7100000000000000000000000000000000000000000000000000000000 PUSH1 0x0 MSTORE PUSH1 0x11 PUSH1 0x4 MSTORE PUSH1 0x24 PUSH1 0x0 REVERT JUMPDEST PUSH1 0x0 PUSH2 0x1269 DUP3 PUSH2 0xD52 JUMP JUMPDEST SWAP2 POP PUSH2 0x1274 DUP4 PUSH2 0xD52 JUMP JUMPDEST SWAP3 POP DUP3 PUSH2 0x1284 JUMPI PUSH2 0x1283 PUSH2 0x1200 JUMP JUMPDEST JUMPDEST DUP3 DUP3 DIV SWAP1 POP SWAP3 SWAP2 POP POP JUMP JUMPDEST PUSH1 0x0 PUSH2 0x129A DUP3 PUSH2 0xD52 JUMP JUMPDEST SWAP2 POP PUSH2 0x12A5 DUP4 PUSH2 0xD52 JUMP JUMPDEST SWAP3 POP DUP3 PUSH32 0xFFFFFFFFFFFFFFFFFFFFFFFFFFFFFFFFFFFFFFFFFFFFFFFFFFFFFFFFFFFFFFFF SUB DUP3 GT ISZERO PUSH2 0x12DA JUMPI PUSH2 0x12D9 PUSH2 0x122F JUMP JUMPDEST JUMPDEST DUP3 DUP3 ADD SWAP1 POP SWAP3 SWAP2 POP POP JUMP JUMPDEST PUSH32 0x4E487B7100000000000000000000000000000000000000000000000000000000 PUSH1 0x0 MSTORE PUSH1 0x22 PUSH1 0x4 MSTORE PUSH1 0x24 PUSH1 0x0 REVERT JUMPDEST PUSH1 0x0 PUSH1 0x2 DUP3 DIV SWAP1 POP PUSH1 0x1 DUP3 AND DUP1 PUSH2 0x132C JUMPI PUSH1 0x7F DUP3 AND SWAP2 POP JUMPDEST PUSH1 0x20 DUP3 LT DUP2 EQ ISZERO PUSH2 0x1340 JUMPI PUSH2 0x133F PUSH2 0x12E5 JUMP JUMPDEST JUMPDEST POP SWAP2 SWAP1 POP JUMP JUMPDEST PUSH32 0x4F6E6C792043616D7061696E206D616E61676572000000000000000000000000 PUSH1 0x0 DUP3 ADD MSTORE POP JUMP JUMPDEST PUSH1 0x0 PUSH2 0x137C PUSH1 0x14 DUP4 PUSH2 0xD91 JUMP JUMPDEST SWAP2 POP PUSH2 0x1387 DUP3 PUSH2 0x1346 JUMP JUMPDEST PUSH1 0x20 DUP3 ADD SWAP1 POP SWAP2 SWAP1 POP JUMP JUMPDEST PUSH1 0x0 PUSH1 0x20 DUP3 ADD SWAP1 POP DUP2 DUP2 SUB PUSH1 0x0 DUP4 ADD MSTORE PUSH2 0x13AB DUP2 PUSH2 0x136F JUMP JUMPDEST SWAP1 POP SWAP2 SWAP1 POP JUMP JUMPDEST PUSH32 0x666F6E646F7320726574697261646F7300000000000000000000000000000000 PUSH1 0x0 DUP3 ADD MSTORE POP JUMP JUMPDEST PUSH1 0x0 PUSH2 0x13E8 PUSH1 0x10 DUP4 PUSH2 0xD91 JUMP JUMPDEST SWAP2 POP PUSH2 0x13F3 DUP3 PUSH2 0x13B2 JUMP JUMPDEST PUSH1 0x20 DUP3 ADD SWAP1 POP SWAP2 SWAP1 POP JUMP JUMPDEST PUSH1 0x0 PUSH1 0x20 DUP3 ADD SWAP1 POP DUP2 DUP2 SUB PUSH1 0x0 DUP4 ADD MSTORE PUSH2 0x1417 DUP2 PUSH2 0x13DB JUMP JUMPDEST SWAP1 POP SWAP2 SWAP1 POP JUMP JUMPDEST PUSH32 0x43616D70616E7961206E6F2063616E63656C6164610000000000000000000000 PUSH1 0x0 DUP3 ADD MSTORE POP JUMP JUMPDEST PUSH1 0x0 PUSH2 0x1454 PUSH1 0x15 DUP4 PUSH2 0xD91 JUMP JUMPDEST SWAP2 POP PUSH2 0x145F DUP3 PUSH2 0x141E JUMP JUMPDEST PUSH1 0x20 DUP3 ADD SWAP1 POP SWAP2 SWAP1 POP JUMP JUMPDEST PUSH1 0x0 PUSH1 0x20 DUP3 ADD SWAP1 POP DUP2 DUP2 SUB PUSH1 0x0 DUP4 ADD MSTORE PUSH2 0x1483 DUP2 PUSH2 0x1447 JUMP JUMPDEST SWAP1 POP SWAP2 SWAP1 POP JUMP JUMPDEST PUSH1 0x0 PUSH2 0x1495 DUP3 PUSH2 0xD52 JUMP JUMPDEST SWAP2 POP PUSH2 0x14A0 DUP4 PUSH2 0xD52 JUMP JUMPDEST SWAP3 POP DUP2 PUSH32 0xFFFFFFFFFFFFFFFFFFFFFFFFFFFFFFFFFFFFFFFFFFFFFFFFFFFFFFFFFFFFFFFF DIV DUP4 GT DUP3 ISZERO ISZERO AND ISZERO PUSH2 0x14D9 JUMPI PUSH2 0x14D8 PUSH2 0x122F JUMP JUMPDEST JUMPDEST DUP3 DUP3 MUL SWAP1 POP SWAP3 SWAP2 POP POP JUMP JUMPDEST PUSH32 0x43616D70616E7961206E6F206162696572746100000000000000000000000000 PUSH1 0x0 DUP3 ADD MSTORE POP JUMP JUMPDEST PUSH1 0x0 PUSH2 0x151A PUSH1 0x13 DUP4 PUSH2 0xD91 JUMP JUMPDEST SWAP2 POP PUSH2 0x1525 DUP3 PUSH2 0x14E4 JUMP JUMPDEST PUSH1 0x20 DUP3 ADD SWAP1 POP SWAP2 SWAP1 POP JUMP JUMPDEST PUSH1 0x0 PUSH1 0x20 DUP3 ADD SWAP1 POP DUP2 DUP2 SUB PUSH1 0x0 DUP4 ADD MSTORE PUSH2 0x1549 DUP2 PUSH2 0x150D JUMP JUMPDEST SWAP1 POP SWAP2 SWAP1 POP JUMP JUMPDEST PUSH32 0x43616D7061696E206973206E6F74206F76657220796574000000000000000000 PUSH1 0x0 DUP3 ADD MSTORE POP JUMP JUMPDEST PUSH1 0x0 PUSH2 0x1586 PUSH1 0x17 DUP4 PUSH2 0xD91 JUMP JUMPDEST SWAP2 POP PUSH2 0x1591 DUP3 PUSH2 0x1550 JUMP JUMPDEST PUSH1 0x20 DUP3 ADD SWAP1 POP SWAP2 SWAP1 POP JUMP JUMPDEST PUSH1 0x0 PUSH1 0x20 DUP3 ADD SWAP1 POP DUP2 DUP2 SUB PUSH1 0x0 DUP4 ADD MSTORE PUSH2 0x15B5 DUP2 PUSH2 0x1579 JUMP JUMPDEST SWAP1 POP SWAP2 SWAP1 POP JUMP INVALID LOG2 PUSH5 0x6970667358 0x22 SLT KECCAK256 0xDA 0xEC 0xDC PUSH29 0x1505322908651F9F96C50728E4684BDCA1C6B42973614333646B817264 PUSH20 0x6F6C634300080B00330000000000000000000000 "
    },
    "gasEstimates": {
      "creation": {
        "codeDepositCost": "1123600",
        "executionCost": "infinite",
        "totalCost": "infinite"
      },
      "external": {
        "": "infinite",
        "CAMPANIN_DUEDATE()": "infinite",
        "adminGetFunds()": "infinite",
        "campainDescription()": "infinite",
        "campainEstado()": "2583",
        "campainGoal()": "2518",
        "campainManager()": "2556",
        "campainName()": "infinite",
        "finalizarCampain()": "infinite",
        "getParticipantes()": "infinite",
        "getTotalParticipantes()": "2511",
        "getUserParticipaciones(address)": "2931",
        "participaciones(address)": "2881",
        "participantes(uint256)": "5001",
        "participar()": "infinite",
        "participationRate()": "2473",
        "test_contractBalance()": "363",
        "totalParticipaciones()": "2497",
        "withdrawCanceledCampain()": "infinite"
      }
    },
    "methodIdentifiers": {
      "CAMPANIN_DUEDATE()": "f7a7e57e",
      "adminGetFunds()": "93a39b2e",
      "campainDescription()": "e7425109",
      "campainEstado()": "8d1750c5",
      "campainGoal()": "95df868d",
      "campainManager()": "8f75c1fb",
      "campainName()": "3deff252",
      "finalizarCampain()": "b14d38c2",
      "getParticipantes()": "cac9a391",
      "getTotalParticipantes()": "e3ce8164",
      "getUserParticipaciones(address)": "8b83ba26",
      "participaciones(address)": "bbde609a",
      "participantes(uint256)": "b25924c1",
      "participar()": "d50fac49",
      "participationRate()": "e348c518",
      "test_contractBalance()": "225682d1",
      "totalParticipaciones()": "7bd82410",
      "withdrawCanceledCampain()": "a4e58a87"
    }
  },
  "storageLayout": {
    "storage": [
      {
        "astId": 7,
        "contract": "crowdfunding_v1.sol:CrowdFunding",
        "label": "campainManager",
        "offset": 0,
        "slot": "0",
        "type": "t_address_payable"
      },
      {
        "astId": 9,
        "contract": "crowdfunding_v1.sol:CrowdFunding",
        "label": "campainName",
        "offset": 0,
        "slot": "1",
        "type": "t_string_storage"
      },
      {
        "astId": 11,
        "contract": "crowdfunding_v1.sol:CrowdFunding",
        "label": "campainDescription",
        "offset": 0,
        "slot": "2",
        "type": "t_string_storage"
      },
      {
        "astId": 14,
        "contract": "crowdfunding_v1.sol:CrowdFunding",
        "label": "campainEstado",
        "offset": 0,
        "slot": "3",
        "type": "t_enum(Estado)5"
      },
      {
        "astId": 16,
        "contract": "crowdfunding_v1.sol:CrowdFunding",
        "label": "campainGoal",
        "offset": 0,
        "slot": "4",
        "type": "t_uint256"
      },
      {
        "astId": 18,
        "contract": "crowdfunding_v1.sol:CrowdFunding",
        "label": "participationRate",
        "offset": 0,
        "slot": "5",
        "type": "t_uint256"
      },
      {
        "astId": 22,
        "contract": "crowdfunding_v1.sol:CrowdFunding",
        "label": "participaciones",
        "offset": 0,
        "slot": "6",
        "type": "t_mapping(t_address,t_uint256)"
      },
      {
        "astId": 25,
        "contract": "crowdfunding_v1.sol:CrowdFunding",
        "label": "participantes",
        "offset": 0,
        "slot": "7",
        "type": "t_array(t_address)dyn_storage"
      },
      {
        "astId": 27,
        "contract": "crowdfunding_v1.sol:CrowdFunding",
        "label": "totalParticipaciones",
        "offset": 0,
        "slot": "8",
        "type": "t_uint256"
      }
    ],
    "types": {
      "t_address": {
        "encoding": "inplace",
        "label": "address",
        "numberOfBytes": "20"
      },
      "t_address_payable": {
        "encoding": "inplace",
        "label": "address payable",
        "numberOfBytes": "20"
      },
      "t_array(t_address)dyn_storage": {
        "base": "t_address",
        "encoding": "dynamic_array",
        "label": "address[]",
        "numberOfBytes": "32"
      },
      "t_enum(Estado)5": {
        "encoding": "inplace",
        "label": "enum CrowdFunding.Estado",
        "numberOfBytes": "1"
      },
      "t_mapping(t_address,t_uint256)": {
        "encoding": "mapping",
        "key": "t_address",
        "label": "mapping(address => uint256)",
        "numberOfBytes": "32",
        "value": "t_uint256"
      },
      "t_string_storage": {
        "encoding": "bytes",
        "label": "string",
        "numberOfBytes": "32"
      },
      "t_uint256": {
        "encoding": "inplace",
        "label": "uint256",
        "numberOfBytes": "32"
      }
    }
  },
  "userdoc": {
    "kind": "user",
    "methods": {},
    "version": 1
  }
}